{"project/contracts/periphery/PriceOracle.sol":{"PriceOracle":{"abi":[{"inputs":[],"stateMutability":"nonpayable","type":"constructor"},{"inputs":[{"internalType":"address","name":"owner","type":"address"}],"name":"OwnableInvalidOwner","type":"error"},{"inputs":[{"internalType":"address","name":"account","type":"address"}],"name":"OwnableUnauthorizedAccount","type":"error"},{"anonymous":false,"inputs":[{"indexed":true,"internalType":"address","name":"previousOwner","type":"address"},{"indexed":true,"internalType":"address","name":"newOwner","type":"address"}],"name":"OwnershipTransferred","type":"event"},{"anonymous":false,"inputs":[{"indexed":true,"internalType":"address","name":"token","type":"address"},{"indexed":false,"internalType":"uint256","name":"price","type":"uint256"},{"indexed":false,"internalType":"uint256","name":"reserveBase","type":"uint256"},{"indexed":false,"internalType":"uint256","name":"reserveToken","type":"uint256"}],"name":"PriceUpdatedFromDex","type":"event"},{"inputs":[],"name":"DEVIATION_THRESHOLD","outputs":[{"internalType":"uint256","name":"","type":"uint256"}],"stateMutability":"view","type":"function"},{"inputs":[],"name":"MAX_PRICE_AGE","outputs":[{"internalType":"uint256","name":"","type":"uint256"}],"stateMutability":"view","type":"function"},{"inputs":[],"name":"PRICE_DELAY","outputs":[{"internalType":"uint256","name":"","type":"uint256"}],"stateMutability":"view","type":"function"},{"inputs":[],"name":"TWAP_PERIOD","outputs":[{"internalType":"uint256","name":"","type":"uint256"}],"stateMutability":"view","type":"function"},{"inputs":[{"internalType":"address","name":"","type":"address"}],"name":"authorizedUpdaters","outputs":[{"internalType":"bool","name":"","type":"bool"}],"stateMutability":"view","type":"function"},{"inputs":[],"name":"baseAsset","outputs":[{"internalType":"address","name":"","type":"address"}],"stateMutability":"view","type":"function"},{"inputs":[{"internalType":"address","name":"","type":"address"}],"name":"chainlinkFeeds","outputs":[{"internalType":"address","name":"","type":"address"}],"stateMutability":"view","type":"function"},{"inputs":[],"name":"dexFactory","outputs":[{"internalType":"address","name":"","type":"address"}],"stateMutability":"view","type":"function"},{"inputs":[{"internalType":"address","name":"","type":"address"}],"name":"effectivePrice","outputs":[{"internalType":"uint256","name":"","type":"uint256"}],"stateMutability":"view","type":"function"},{"inputs":[{"internalType":"address","name":"","type":"address"}],"name":"effectivePriceTime","outputs":[{"internalType":"uint256","name":"","type":"uint256"}],"stateMutability":"view","type":"function"},{"inputs":[{"internalType":"address","name":"token","type":"address"}],"name":"getPrice","outputs":[{"internalType":"uint256","name":"","type":"uint256"}],"stateMutability":"view","type":"function"},{"inputs":[{"internalType":"address","name":"token","type":"address"}],"name":"getPriceUpdatedAt","outputs":[{"internalType":"uint256","name":"","type":"uint256"}],"stateMutability":"view","type":"function"},{"inputs":[{"internalType":"address","name":"","type":"address"}],"name":"lastUpdateTime","outputs":[{"internalType":"uint256","name":"","type":"uint256"}],"stateMutability":"view","type":"function"},{"inputs":[],"name":"owner","outputs":[{"internalType":"address","name":"","type":"address"}],"stateMutability":"view","type":"function"},{"inputs":[],"name":"renounceOwnership","outputs":[],"stateMutability":"nonpayable","type":"function"},{"inputs":[{"internalType":"address","name":"updater","type":"address"},{"internalType":"bool","name":"authorized","type":"bool"}],"name":"setAuthorizedUpdater","outputs":[],"stateMutability":"nonpayable","type":"function"},{"inputs":[{"internalType":"address","name":"token","type":"address"},{"internalType":"address","name":"feed","type":"address"}],"name":"setChainlinkFeed","outputs":[],"stateMutability":"nonpayable","type":"function"},{"inputs":[{"internalType":"address","name":"_dexFactory","type":"address"},{"internalType":"address","name":"_baseAsset","type":"address"}],"name":"setDexConfig","outputs":[],"stateMutability":"nonpayable","type":"function"},{"inputs":[{"internalType":"address","name":"token","type":"address"},{"internalType":"address","name":"pair","type":"address"}],"name":"setTokenDexPair","outputs":[],"stateMutability":"nonpayable","type":"function"},{"inputs":[{"internalType":"address","name":"","type":"address"}],"name":"tokenDexPairs","outputs":[{"internalType":"address","name":"","type":"address"}],"stateMutability":"view","type":"function"},{"inputs":[{"internalType":"address","name":"newOwner","type":"address"}],"name":"transferOwnership","outputs":[],"stateMutability":"nonpayable","type":"function"},{"inputs":[{"internalType":"address","name":"","type":"address"}],"name":"twapPrices","outputs":[{"internalType":"uint256","name":"","type":"uint256"}],"stateMutability":"view","type":"function"},{"inputs":[{"internalType":"address","name":"token","type":"address"}],"name":"updateEffectivePrice","outputs":[],"stateMutability":"nonpayable","type":"function"},{"inputs":[{"internalType":"address","name":"token","type":"address"}],"name":"updatePriceFromDex","outputs":[{"internalType":"uint256","name":"","type":"uint256"}],"stateMutability":"nonpayable","type":"function"},{"inputs":[{"internalType":"address","name":"token","type":"address"},{"internalType":"uint256","name":"newPrice","type":"uint256"}],"name":"updateTwapPrice","outputs":[],"stateMutability":"nonpayable","type":"function"}],"evm":{"bytecode":{"linkReferences":{},"object":"60808060405234610078573315610063575f8054336001600160a01b03198216811783556040519290916001600160a01b0316907f8be0079c531659141344cd1fd0a4f28419497f9722a3daafe3b4186f6b6457e09080a3610e84908161007d8239f35b631e4fbdf760e01b81525f6004820152602490fd5b5f80fdfe608060409080825260049081361015610016575f80fd5b5f3560e01c9081630f3c40ea146107f25750806310fd6134146107bb57806316f2a53614610785578063246956c1146106d05780632959ea3b146106975780632ce9aead1461066057806341976e09146106345780635537c6c6146105de57806369ef32d214610587578063712be6fd14610531578063715018a6146104ed578063716e5192146104965780637ca251841461047a57806385f89eef1461040e5780638da5cb5b146103e75780638ff29cfe146103ab578063941bf20a1461037457806399fc65d4146103225780639d7f7e8614610306578063ad80580c14610251578063b849116414610230578063b8d8fbb414610208578063cdf456e1146101e0578063e8c16500146101a75763f2fde38b14610133575f80fd5b346101a35760203660031901126101a35761014c61080c565b90610155610bf3565b6001600160a01b0391821692831561018d5750505f548260018060a01b03198216175f55165f80516020610e2f8339815191525f80a3005b905f6024925191631e4fbdf760e01b8352820152fd5b5f80fd5b82346101a35760203660031901126101a3576020906001600160a01b03806101cd61080c565b165f5260018352815f2054169051908152f35b82346101a3575f3660031901126101a35760085490516001600160a01b039091168152602090f35b82346101a3575f3660031901126101a35760075490516001600160a01b039091168152602090f35b82346101a3575f3660031901126101a357602090516611c37937e080008152f35b5090346101a357602091826003193601126101a35761026e61080c565b92335f526006815261028560ff845f205416610938565b60018060a01b0380851694855f5260028352845f20549160018452855f2054166102e0575b50845f5260058252835f20556102584201938442116102cd575f52525f20555f80f35b601183634e487b7160e01b5f525260245ffd5b6102e990610c32565b80156102aa576102f98183610db1565b156102aa5790505f6102aa565b82346101a3575f3660031901126101a35760209051610e108152f35b82346101a357806003193601126101a35761033b61080c565b90602435918215158093036101a357610352610bf3565b60018060a01b03165f5260066020525f209060ff801983541691161790555f80f35b82346101a35760203660031901126101a3576020906001600160a01b0361039961080c565b165f5260058252805f20549051908152f35b82346101a35760203660031901126101a3576020906001600160a01b036103d061080c565b165f526006825260ff815f20541690519015158152f35b82346101a3575f3660031901126101a3575f5490516001600160a01b039091168152602090f35b5090346101a35760203660031901126101a3576001600160a01b0361043161080c565b165f81815260208490528290205415610467575f5281602052805f20546102571981019081116102cd5760209250905b51908152f35b506020915060038252805f205490610461565b82346101a3575f3660031901126101a357602090516138408152f35b82346101a357806003193601126101a3576104af61080c565b6104b7610822565b916104c0610bf3565b6001600160a01b039182165f90815260096020522080546001600160a01b03191692909116919091179055005b346101a3575f3660031901126101a357610505610bf3565b5f80546001600160a01b0319811682556001600160a01b03165f80516020610e2f8339815191528280a3005b82346101a357806003193601126101a35761054a61080c565b335f52600660205261056160ff835f205416610938565b6001600160a01b03165f9081526002602090815282822060243590556003905220429055005b82346101a357806003193601126101a3576105a061080c565b6105a8610822565b916105b1610bf3565b6001600160a01b039182165f90815260016020522080546001600160a01b03191692909116919091179055005b82346101a3573660031901126101a3576105f661080c565b6105fe610822565b610606610bf3565b600780546001600160a01b039384166001600160a01b03199182161790915560088054929093169116179055005b82346101a35760203660031901126101a35760209061065961065461080c565b610859565b9051908152f35b82346101a35760203660031901126101a3576020906001600160a01b0361068561080c565b165f5260038252805f20549051908152f35b82346101a35760203660031901126101a3576020906001600160a01b03806106bd61080c565b165f5260098352815f2054169051908152f35b50346101a357602091826003193601126101a3576106ec61080c565b6106f5816109e9565b928315610753575060018060a01b0316805f526002845282825f20556003845242825f20557f41efb4588920af82c5127de9396eff282cefda604c83706d1dadf421f4861342606083518581525f878201525f85820152a251908152f35b825162461bcd60e51b8152908101859052600c60248201526b6e6f2064657820707269636560a01b6044820152606490fd5b5090346101a35760203660031901126101a3576020916001600160a01b036107ab61080c565b165f528252805f20549051908152f35b82346101a35760203660031901126101a3576020906001600160a01b036107e061080c565b165f5260028252805f20549051908152f35b346101a3575f3660031901126101a3578061025860209252f35b600435906001600160a01b03821682036101a357565b602435906001600160a01b03821682036101a357565b9190820391821161084557565b634e487b7160e01b5f52601160045260245ffd5b60018060a01b03811690815f5260209060058252604092835f2054151580610927575b61091b5760028352835f205415158061090b575b806108ef575b6108e157506108a4906109e9565b9182156108b057505090565b60649250519062461bcd60e51b82526004820152600b60248201526a7374616c6520707269636560a81b6044820152fd5b60029291505f52525f205490565b5060038352610e10610904855f205442610838565b1115610896565b5060038352835f20541515610890565b5050600590525f205490565b5060048352835f205442101561087c565b1561093f57565b60405162461bcd60e51b815260206004820152600e60248201526d1b9bdd08185d5d1a1bdc9a5e995960921b6044820152606490fd5b601f909101601f19168101906001600160401b0382119082101761099857604052565b634e487b7160e01b5f52604160045260245ffd5b908160209103126101a357516001600160a01b03811681036101a35790565b81156109d5570490565b634e487b7160e01b5f52601260045260245ffd5b60018060a01b03809116805f526020600981528260409281845f20541690811580610be6575b80610bd9575b610b6c575b5016918215610b64578051630240bc6b60e21b815293606085600481875afa938415610b5a575f955f95610b20575b50851593848015610b18575b610b0d5780600492855193848092630dfe168160e01b82525afa938415610b0457505f93610ad5575b505080600854169116145f14610ab057670de0b6b3a764000080840293840414171561084557610aad916109cb565b90565b5090670de0b6b3a76400009182810292818404149015171561084557610aad916109cb565b610af5929350803d10610afd575b610aed8183610975565b8101906109ac565b905f80610a7e565b503d610ae3565b513d5f823e3d90fd5b505050505050505f90565b508515610a55565b955093506060853d606011610b52575b81610b3d60609383610975565b810103126101a357828551950151935f610a49565b3d9150610b30565b82513d5f823e3d90fd5b505050505f90565b91839150600754169160448660085416918651948593849263e6a4390560e01b8452600484015260248301525afa908115610bcf579084915f91610bb2575b505f610a1a565b610bc99150833d8511610afd57610aed8183610975565b5f610bab565b83513d5f823e3d90fd5b5082600854161515610a15565b5082600754161515610a0f565b5f546001600160a01b03163303610c0657565b60405163118cdaa760e01b8152336004820152602490fd5b51906001600160501b03821682036101a357565b60018060a01b038091165f526020906001825260405f2054168015610dab57604051633fabe5a360e21b81529160a083600481855afa928315610d3a575f935f945f925f92610d56575b505f861315610d4c576001600160501b03908116911610610b6457610ca4610e109142610838565b11610d4557806004926040519384809263313ce56760e01b82525afa908115610d3a575f91610d01575b5060ff91501660120360ff81116108455760ff16604d811161084557600a0a908181029181830414901517156108455790565b905081813d8311610d33575b610d178183610975565b810103126101a3575160ff811681036101a35760ff905f610cce565b503d610d0d565b6040513d5f823e3d90fd5b5050505f90565b5050505050505f90565b955050505060a0833d60a011610da3575b81610d7460a09383610975565b810103126101a357610d8583610c1e565b81840151610d9a608060608701519601610c1e565b9094915f610c7c565b3d9150610d67565b50505f90565b80158015610e26575b610e1f5781811115610e0f57610dd08282610838565b915b810180911161084557670de0b6b3a764000091828102928184041490151715610845576611c37937e0800091610e0b9160011c906109cb565b1090565b610e198183610838565b91610dd2565b5050600190565b508115610dba56fe8be0079c531659141344cd1fd0a4f28419497f9722a3daafe3b4186f6b6457e0a264697066735822122016a965aa8316a831da958f28b118697db61881ad66ad8cc38faa8c7d178a4c0664736f6c63430008180033","opcodes":"PUSH1 0x80 DUP1 PUSH1 0x40 MSTORE CALLVALUE PUSH2 0x78 JUMPI CALLER ISZERO PUSH2 0x63 JUMPI PUSH0 DUP1 SLOAD CALLER PUSH1 0x1 PUSH1 0x1 PUSH1 0xA0 SHL SUB NOT DUP3 AND DUP2 OR DUP4 SSTORE PUSH1 0x40 MLOAD SWAP3 SWAP1 SWAP2 PUSH1 0x1 PUSH1 0x1 PUSH1 0xA0 SHL SUB AND SWAP1 PUSH32 0x8BE0079C531659141344CD1FD0A4F28419497F9722A3DAAFE3B4186F6B6457E0 SWAP1 DUP1 LOG3 PUSH2 0xE84 SWAP1 DUP2 PUSH2 0x7D DUP3 CODECOPY RETURN JUMPDEST PUSH4 0x1E4FBDF7 PUSH1 0xE0 SHL DUP2 MSTORE PUSH0 PUSH1 0x4 DUP3 ADD MSTORE PUSH1 0x24 SWAP1 REVERT JUMPDEST PUSH0 DUP1 REVERT INVALID PUSH1 0x80 PUSH1 0x40 SWAP1 DUP1 DUP3 MSTORE PUSH1 0x4 SWAP1 DUP2 CALLDATASIZE LT ISZERO PUSH2 0x16 JUMPI PUSH0 DUP1 REVERT JUMPDEST PUSH0 CALLDATALOAD PUSH1 0xE0 SHR SWAP1 DUP2 PUSH4 0xF3C40EA EQ PUSH2 0x7F2 JUMPI POP DUP1 PUSH4 0x10FD6134 EQ PUSH2 0x7BB JUMPI DUP1 PUSH4 0x16F2A536 EQ PUSH2 0x785 JUMPI DUP1 PUSH4 0x246956C1 EQ PUSH2 0x6D0 JUMPI DUP1 PUSH4 0x2959EA3B EQ PUSH2 0x697 JUMPI DUP1 PUSH4 0x2CE9AEAD EQ PUSH2 0x660 JUMPI DUP1 PUSH4 0x41976E09 EQ PUSH2 0x634 JUMPI DUP1 PUSH4 0x5537C6C6 EQ PUSH2 0x5DE JUMPI DUP1 PUSH4 0x69EF32D2 EQ PUSH2 0x587 JUMPI DUP1 PUSH4 0x712BE6FD EQ PUSH2 0x531 JUMPI DUP1 PUSH4 0x715018A6 EQ PUSH2 0x4ED JUMPI DUP1 PUSH4 0x716E5192 EQ PUSH2 0x496 JUMPI DUP1 PUSH4 0x7CA25184 EQ PUSH2 0x47A JUMPI DUP1 PUSH4 0x85F89EEF EQ PUSH2 0x40E JUMPI DUP1 PUSH4 0x8DA5CB5B EQ PUSH2 0x3E7 JUMPI DUP1 PUSH4 0x8FF29CFE EQ PUSH2 0x3AB JUMPI DUP1 PUSH4 0x941BF20A EQ PUSH2 0x374 JUMPI DUP1 PUSH4 0x99FC65D4 EQ PUSH2 0x322 JUMPI DUP1 PUSH4 0x9D7F7E86 EQ PUSH2 0x306 JUMPI DUP1 PUSH4 0xAD80580C EQ PUSH2 0x251 JUMPI DUP1 PUSH4 0xB8491164 EQ PUSH2 0x230 JUMPI DUP1 PUSH4 0xB8D8FBB4 EQ PUSH2 0x208 JUMPI DUP1 PUSH4 0xCDF456E1 EQ PUSH2 0x1E0 JUMPI DUP1 PUSH4 0xE8C16500 EQ PUSH2 0x1A7 JUMPI PUSH4 0xF2FDE38B EQ PUSH2 0x133 JUMPI PUSH0 DUP1 REVERT JUMPDEST CALLVALUE PUSH2 0x1A3 JUMPI PUSH1 0x20 CALLDATASIZE PUSH1 0x3 NOT ADD SLT PUSH2 0x1A3 JUMPI PUSH2 0x14C PUSH2 0x80C JUMP JUMPDEST SWAP1 PUSH2 0x155 PUSH2 0xBF3 JUMP JUMPDEST PUSH1 0x1 PUSH1 0x1 PUSH1 0xA0 SHL SUB SWAP2 DUP3 AND SWAP3 DUP4 ISZERO PUSH2 0x18D JUMPI POP POP PUSH0 SLOAD DUP3 PUSH1 0x1 DUP1 PUSH1 0xA0 SHL SUB NOT DUP3 AND OR PUSH0 SSTORE AND PUSH0 DUP1 MLOAD PUSH1 0x20 PUSH2 0xE2F DUP4 CODECOPY DUP2 MLOAD SWAP2 MSTORE PUSH0 DUP1 LOG3 STOP JUMPDEST SWAP1 PUSH0 PUSH1 0x24 SWAP3 MLOAD SWAP2 PUSH4 0x1E4FBDF7 PUSH1 0xE0 SHL DUP4 MSTORE DUP3 ADD MSTORE REVERT JUMPDEST PUSH0 DUP1 REVERT JUMPDEST DUP3 CALLVALUE PUSH2 0x1A3 JUMPI PUSH1 0x20 CALLDATASIZE PUSH1 0x3 NOT ADD SLT PUSH2 0x1A3 JUMPI PUSH1 0x20 SWAP1 PUSH1 0x1 PUSH1 0x1 PUSH1 0xA0 SHL SUB DUP1 PUSH2 0x1CD PUSH2 0x80C JUMP JUMPDEST AND PUSH0 MSTORE PUSH1 0x1 DUP4 MSTORE DUP2 PUSH0 KECCAK256 SLOAD AND SWAP1 MLOAD SWAP1 DUP2 MSTORE RETURN JUMPDEST DUP3 CALLVALUE PUSH2 0x1A3 JUMPI PUSH0 CALLDATASIZE PUSH1 0x3 NOT ADD SLT PUSH2 0x1A3 JUMPI PUSH1 0x8 SLOAD SWAP1 MLOAD PUSH1 0x1 PUSH1 0x1 PUSH1 0xA0 SHL SUB SWAP1 SWAP2 AND DUP2 MSTORE PUSH1 0x20 SWAP1 RETURN JUMPDEST DUP3 CALLVALUE PUSH2 0x1A3 JUMPI PUSH0 CALLDATASIZE PUSH1 0x3 NOT ADD SLT PUSH2 0x1A3 JUMPI PUSH1 0x7 SLOAD SWAP1 MLOAD PUSH1 0x1 PUSH1 0x1 PUSH1 0xA0 SHL SUB SWAP1 SWAP2 AND DUP2 MSTORE PUSH1 0x20 SWAP1 RETURN JUMPDEST DUP3 CALLVALUE PUSH2 0x1A3 JUMPI PUSH0 CALLDATASIZE PUSH1 0x3 NOT ADD SLT PUSH2 0x1A3 JUMPI PUSH1 0x20 SWAP1 MLOAD PUSH7 0x11C37937E08000 DUP2 MSTORE RETURN JUMPDEST POP SWAP1 CALLVALUE PUSH2 0x1A3 JUMPI PUSH1 0x20 SWAP2 DUP3 PUSH1 0x3 NOT CALLDATASIZE ADD SLT PUSH2 0x1A3 JUMPI PUSH2 0x26E PUSH2 0x80C JUMP JUMPDEST SWAP3 CALLER PUSH0 MSTORE PUSH1 0x6 DUP2 MSTORE PUSH2 0x285 PUSH1 0xFF DUP5 PUSH0 KECCAK256 SLOAD AND PUSH2 0x938 JUMP JUMPDEST PUSH1 0x1 DUP1 PUSH1 0xA0 SHL SUB DUP1 DUP6 AND SWAP5 DUP6 PUSH0 MSTORE PUSH1 0x2 DUP4 MSTORE DUP5 PUSH0 KECCAK256 SLOAD SWAP2 PUSH1 0x1 DUP5 MSTORE DUP6 PUSH0 KECCAK256 SLOAD AND PUSH2 0x2E0 JUMPI JUMPDEST POP DUP5 PUSH0 MSTORE PUSH1 0x5 DUP3 MSTORE DUP4 PUSH0 KECCAK256 SSTORE PUSH2 0x258 TIMESTAMP ADD SWAP4 DUP5 TIMESTAMP GT PUSH2 0x2CD JUMPI PUSH0 MSTORE MSTORE PUSH0 KECCAK256 SSTORE PUSH0 DUP1 RETURN JUMPDEST PUSH1 0x11 DUP4 PUSH4 0x4E487B71 PUSH1 0xE0 SHL PUSH0 MSTORE MSTORE PUSH1 0x24 PUSH0 REVERT JUMPDEST PUSH2 0x2E9 SWAP1 PUSH2 0xC32 JUMP JUMPDEST DUP1 ISZERO PUSH2 0x2AA JUMPI PUSH2 0x2F9 DUP2 DUP4 PUSH2 0xDB1 JUMP JUMPDEST ISZERO PUSH2 0x2AA JUMPI SWAP1 POP PUSH0 PUSH2 0x2AA JUMP JUMPDEST DUP3 CALLVALUE PUSH2 0x1A3 JUMPI PUSH0 CALLDATASIZE PUSH1 0x3 NOT ADD SLT PUSH2 0x1A3 JUMPI PUSH1 0x20 SWAP1 MLOAD PUSH2 0xE10 DUP2 MSTORE RETURN JUMPDEST DUP3 CALLVALUE PUSH2 0x1A3 JUMPI DUP1 PUSH1 0x3 NOT CALLDATASIZE ADD SLT PUSH2 0x1A3 JUMPI PUSH2 0x33B PUSH2 0x80C JUMP JUMPDEST SWAP1 PUSH1 0x24 CALLDATALOAD SWAP2 DUP3 ISZERO ISZERO DUP1 SWAP4 SUB PUSH2 0x1A3 JUMPI PUSH2 0x352 PUSH2 0xBF3 JUMP JUMPDEST PUSH1 0x1 DUP1 PUSH1 0xA0 SHL SUB AND PUSH0 MSTORE PUSH1 0x6 PUSH1 0x20 MSTORE PUSH0 KECCAK256 SWAP1 PUSH1 0xFF DUP1 NOT DUP4 SLOAD AND SWAP2 AND OR SWAP1 SSTORE PUSH0 DUP1 RETURN JUMPDEST DUP3 CALLVALUE PUSH2 0x1A3 JUMPI PUSH1 0x20 CALLDATASIZE PUSH1 0x3 NOT ADD SLT PUSH2 0x1A3 JUMPI PUSH1 0x20 SWAP1 PUSH1 0x1 PUSH1 0x1 PUSH1 0xA0 SHL SUB PUSH2 0x399 PUSH2 0x80C JUMP JUMPDEST AND PUSH0 MSTORE PUSH1 0x5 DUP3 MSTORE DUP1 PUSH0 KECCAK256 SLOAD SWAP1 MLOAD SWAP1 DUP2 MSTORE RETURN JUMPDEST DUP3 CALLVALUE PUSH2 0x1A3 JUMPI PUSH1 0x20 CALLDATASIZE PUSH1 0x3 NOT ADD SLT PUSH2 0x1A3 JUMPI PUSH1 0x20 SWAP1 PUSH1 0x1 PUSH1 0x1 PUSH1 0xA0 SHL SUB PUSH2 0x3D0 PUSH2 0x80C JUMP JUMPDEST AND PUSH0 MSTORE PUSH1 0x6 DUP3 MSTORE PUSH1 0xFF DUP2 PUSH0 KECCAK256 SLOAD AND SWAP1 MLOAD SWAP1 ISZERO ISZERO DUP2 MSTORE RETURN JUMPDEST DUP3 CALLVALUE PUSH2 0x1A3 JUMPI PUSH0 CALLDATASIZE PUSH1 0x3 NOT ADD SLT PUSH2 0x1A3 JUMPI PUSH0 SLOAD SWAP1 MLOAD PUSH1 0x1 PUSH1 0x1 PUSH1 0xA0 SHL SUB SWAP1 SWAP2 AND DUP2 MSTORE PUSH1 0x20 SWAP1 RETURN JUMPDEST POP SWAP1 CALLVALUE PUSH2 0x1A3 JUMPI PUSH1 0x20 CALLDATASIZE PUSH1 0x3 NOT ADD SLT PUSH2 0x1A3 JUMPI PUSH1 0x1 PUSH1 0x1 PUSH1 0xA0 SHL SUB PUSH2 0x431 PUSH2 0x80C JUMP JUMPDEST AND PUSH0 DUP2 DUP2 MSTORE PUSH1 0x20 DUP5 SWAP1 MSTORE DUP3 SWAP1 KECCAK256 SLOAD ISZERO PUSH2 0x467 JUMPI PUSH0 MSTORE DUP2 PUSH1 0x20 MSTORE DUP1 PUSH0 KECCAK256 SLOAD PUSH2 0x257 NOT DUP2 ADD SWAP1 DUP2 GT PUSH2 0x2CD JUMPI PUSH1 0x20 SWAP3 POP SWAP1 JUMPDEST MLOAD SWAP1 DUP2 MSTORE RETURN JUMPDEST POP PUSH1 0x20 SWAP2 POP PUSH1 0x3 DUP3 MSTORE DUP1 PUSH0 KECCAK256 SLOAD SWAP1 PUSH2 0x461 JUMP JUMPDEST DUP3 CALLVALUE PUSH2 0x1A3 JUMPI PUSH0 CALLDATASIZE PUSH1 0x3 NOT ADD SLT PUSH2 0x1A3 JUMPI PUSH1 0x20 SWAP1 MLOAD PUSH2 0x3840 DUP2 MSTORE RETURN JUMPDEST DUP3 CALLVALUE PUSH2 0x1A3 JUMPI DUP1 PUSH1 0x3 NOT CALLDATASIZE ADD SLT PUSH2 0x1A3 JUMPI PUSH2 0x4AF PUSH2 0x80C JUMP JUMPDEST PUSH2 0x4B7 PUSH2 0x822 JUMP JUMPDEST SWAP2 PUSH2 0x4C0 PUSH2 0xBF3 JUMP JUMPDEST PUSH1 0x1 PUSH1 0x1 PUSH1 0xA0 SHL SUB SWAP2 DUP3 AND PUSH0 SWAP1 DUP2 MSTORE PUSH1 0x9 PUSH1 0x20 MSTORE KECCAK256 DUP1 SLOAD PUSH1 0x1 PUSH1 0x1 PUSH1 0xA0 SHL SUB NOT AND SWAP3 SWAP1 SWAP2 AND SWAP2 SWAP1 SWAP2 OR SWAP1 SSTORE STOP JUMPDEST CALLVALUE PUSH2 0x1A3 JUMPI PUSH0 CALLDATASIZE PUSH1 0x3 NOT ADD SLT PUSH2 0x1A3 JUMPI PUSH2 0x505 PUSH2 0xBF3 JUMP JUMPDEST PUSH0 DUP1 SLOAD PUSH1 0x1 PUSH1 0x1 PUSH1 0xA0 SHL SUB NOT DUP2 AND DUP3 SSTORE PUSH1 0x1 PUSH1 0x1 PUSH1 0xA0 SHL SUB AND PUSH0 DUP1 MLOAD PUSH1 0x20 PUSH2 0xE2F DUP4 CODECOPY DUP2 MLOAD SWAP2 MSTORE DUP3 DUP1 LOG3 STOP JUMPDEST DUP3 CALLVALUE PUSH2 0x1A3 JUMPI DUP1 PUSH1 0x3 NOT CALLDATASIZE ADD SLT PUSH2 0x1A3 JUMPI PUSH2 0x54A PUSH2 0x80C JUMP JUMPDEST CALLER PUSH0 MSTORE PUSH1 0x6 PUSH1 0x20 MSTORE PUSH2 0x561 PUSH1 0xFF DUP4 PUSH0 KECCAK256 SLOAD AND PUSH2 0x938 JUMP JUMPDEST PUSH1 0x1 PUSH1 0x1 PUSH1 0xA0 SHL SUB AND PUSH0 SWAP1 DUP2 MSTORE PUSH1 0x2 PUSH1 0x20 SWAP1 DUP2 MSTORE DUP3 DUP3 KECCAK256 PUSH1 0x24 CALLDATALOAD SWAP1 SSTORE PUSH1 0x3 SWAP1 MSTORE KECCAK256 TIMESTAMP SWAP1 SSTORE STOP JUMPDEST DUP3 CALLVALUE PUSH2 0x1A3 JUMPI DUP1 PUSH1 0x3 NOT CALLDATASIZE ADD SLT PUSH2 0x1A3 JUMPI PUSH2 0x5A0 PUSH2 0x80C JUMP JUMPDEST PUSH2 0x5A8 PUSH2 0x822 JUMP JUMPDEST SWAP2 PUSH2 0x5B1 PUSH2 0xBF3 JUMP JUMPDEST PUSH1 0x1 PUSH1 0x1 PUSH1 0xA0 SHL SUB SWAP2 DUP3 AND PUSH0 SWAP1 DUP2 MSTORE PUSH1 0x1 PUSH1 0x20 MSTORE KECCAK256 DUP1 SLOAD PUSH1 0x1 PUSH1 0x1 PUSH1 0xA0 SHL SUB NOT AND SWAP3 SWAP1 SWAP2 AND SWAP2 SWAP1 SWAP2 OR SWAP1 SSTORE STOP JUMPDEST DUP3 CALLVALUE PUSH2 0x1A3 JUMPI CALLDATASIZE PUSH1 0x3 NOT ADD SLT PUSH2 0x1A3 JUMPI PUSH2 0x5F6 PUSH2 0x80C JUMP JUMPDEST PUSH2 0x5FE PUSH2 0x822 JUMP JUMPDEST PUSH2 0x606 PUSH2 0xBF3 JUMP JUMPDEST PUSH1 0x7 DUP1 SLOAD PUSH1 0x1 PUSH1 0x1 PUSH1 0xA0 SHL SUB SWAP4 DUP5 AND PUSH1 0x1 PUSH1 0x1 PUSH1 0xA0 SHL SUB NOT SWAP2 DUP3 AND OR SWAP1 SWAP2 SSTORE PUSH1 0x8 DUP1 SLOAD SWAP3 SWAP1 SWAP4 AND SWAP2 AND OR SWAP1 SSTORE STOP JUMPDEST DUP3 CALLVALUE PUSH2 0x1A3 JUMPI PUSH1 0x20 CALLDATASIZE PUSH1 0x3 NOT ADD SLT PUSH2 0x1A3 JUMPI PUSH1 0x20 SWAP1 PUSH2 0x659 PUSH2 0x654 PUSH2 0x80C JUMP JUMPDEST PUSH2 0x859 JUMP JUMPDEST SWAP1 MLOAD SWAP1 DUP2 MSTORE RETURN JUMPDEST DUP3 CALLVALUE PUSH2 0x1A3 JUMPI PUSH1 0x20 CALLDATASIZE PUSH1 0x3 NOT ADD SLT PUSH2 0x1A3 JUMPI PUSH1 0x20 SWAP1 PUSH1 0x1 PUSH1 0x1 PUSH1 0xA0 SHL SUB PUSH2 0x685 PUSH2 0x80C JUMP JUMPDEST AND PUSH0 MSTORE PUSH1 0x3 DUP3 MSTORE DUP1 PUSH0 KECCAK256 SLOAD SWAP1 MLOAD SWAP1 DUP2 MSTORE RETURN JUMPDEST DUP3 CALLVALUE PUSH2 0x1A3 JUMPI PUSH1 0x20 CALLDATASIZE PUSH1 0x3 NOT ADD SLT PUSH2 0x1A3 JUMPI PUSH1 0x20 SWAP1 PUSH1 0x1 PUSH1 0x1 PUSH1 0xA0 SHL SUB DUP1 PUSH2 0x6BD PUSH2 0x80C JUMP JUMPDEST AND PUSH0 MSTORE PUSH1 0x9 DUP4 MSTORE DUP2 PUSH0 KECCAK256 SLOAD AND SWAP1 MLOAD SWAP1 DUP2 MSTORE RETURN JUMPDEST POP CALLVALUE PUSH2 0x1A3 JUMPI PUSH1 0x20 SWAP2 DUP3 PUSH1 0x3 NOT CALLDATASIZE ADD SLT PUSH2 0x1A3 JUMPI PUSH2 0x6EC PUSH2 0x80C JUMP JUMPDEST PUSH2 0x6F5 DUP2 PUSH2 0x9E9 JUMP JUMPDEST SWAP3 DUP4 ISZERO PUSH2 0x753 JUMPI POP PUSH1 0x1 DUP1 PUSH1 0xA0 SHL SUB AND DUP1 PUSH0 MSTORE PUSH1 0x2 DUP5 MSTORE DUP3 DUP3 PUSH0 KECCAK256 SSTORE PUSH1 0x3 DUP5 MSTORE TIMESTAMP DUP3 PUSH0 KECCAK256 SSTORE PUSH32 0x41EFB4588920AF82C5127DE9396EFF282CEFDA604C83706D1DADF421F4861342 PUSH1 0x60 DUP4 MLOAD DUP6 DUP2 MSTORE PUSH0 DUP8 DUP3 ADD MSTORE PUSH0 DUP6 DUP3 ADD MSTORE LOG2 MLOAD SWAP1 DUP2 MSTORE RETURN JUMPDEST DUP3 MLOAD PUSH3 0x461BCD PUSH1 0xE5 SHL DUP2 MSTORE SWAP1 DUP2 ADD DUP6 SWAP1 MSTORE PUSH1 0xC PUSH1 0x24 DUP3 ADD MSTORE PUSH12 0x6E6F20646578207072696365 PUSH1 0xA0 SHL PUSH1 0x44 DUP3 ADD MSTORE PUSH1 0x64 SWAP1 REVERT JUMPDEST POP SWAP1 CALLVALUE PUSH2 0x1A3 JUMPI PUSH1 0x20 CALLDATASIZE PUSH1 0x3 NOT ADD SLT PUSH2 0x1A3 JUMPI PUSH1 0x20 SWAP2 PUSH1 0x1 PUSH1 0x1 PUSH1 0xA0 SHL SUB PUSH2 0x7AB PUSH2 0x80C JUMP JUMPDEST AND PUSH0 MSTORE DUP3 MSTORE DUP1 PUSH0 KECCAK256 SLOAD SWAP1 MLOAD SWAP1 DUP2 MSTORE RETURN JUMPDEST DUP3 CALLVALUE PUSH2 0x1A3 JUMPI PUSH1 0x20 CALLDATASIZE PUSH1 0x3 NOT ADD SLT PUSH2 0x1A3 JUMPI PUSH1 0x20 SWAP1 PUSH1 0x1 PUSH1 0x1 PUSH1 0xA0 SHL SUB PUSH2 0x7E0 PUSH2 0x80C JUMP JUMPDEST AND PUSH0 MSTORE PUSH1 0x2 DUP3 MSTORE DUP1 PUSH0 KECCAK256 SLOAD SWAP1 MLOAD SWAP1 DUP2 MSTORE RETURN JUMPDEST CALLVALUE PUSH2 0x1A3 JUMPI PUSH0 CALLDATASIZE PUSH1 0x3 NOT ADD SLT PUSH2 0x1A3 JUMPI DUP1 PUSH2 0x258 PUSH1 0x20 SWAP3 MSTORE RETURN JUMPDEST PUSH1 0x4 CALLDATALOAD SWAP1 PUSH1 0x1 PUSH1 0x1 PUSH1 0xA0 SHL SUB DUP3 AND DUP3 SUB PUSH2 0x1A3 JUMPI JUMP JUMPDEST PUSH1 0x24 CALLDATALOAD SWAP1 PUSH1 0x1 PUSH1 0x1 PUSH1 0xA0 SHL SUB DUP3 AND DUP3 SUB PUSH2 0x1A3 JUMPI JUMP JUMPDEST SWAP2 SWAP1 DUP3 SUB SWAP2 DUP3 GT PUSH2 0x845 JUMPI JUMP JUMPDEST PUSH4 0x4E487B71 PUSH1 0xE0 SHL PUSH0 MSTORE PUSH1 0x11 PUSH1 0x4 MSTORE PUSH1 0x24 PUSH0 REVERT JUMPDEST PUSH1 0x1 DUP1 PUSH1 0xA0 SHL SUB DUP2 AND SWAP1 DUP2 PUSH0 MSTORE PUSH1 0x20 SWAP1 PUSH1 0x5 DUP3 MSTORE PUSH1 0x40 SWAP3 DUP4 PUSH0 KECCAK256 SLOAD ISZERO ISZERO DUP1 PUSH2 0x927 JUMPI JUMPDEST PUSH2 0x91B JUMPI PUSH1 0x2 DUP4 MSTORE DUP4 PUSH0 KECCAK256 SLOAD ISZERO ISZERO DUP1 PUSH2 0x90B JUMPI JUMPDEST DUP1 PUSH2 0x8EF JUMPI JUMPDEST PUSH2 0x8E1 JUMPI POP PUSH2 0x8A4 SWAP1 PUSH2 0x9E9 JUMP JUMPDEST SWAP2 DUP3 ISZERO PUSH2 0x8B0 JUMPI POP POP SWAP1 JUMP JUMPDEST PUSH1 0x64 SWAP3 POP MLOAD SWAP1 PUSH3 0x461BCD PUSH1 0xE5 SHL DUP3 MSTORE PUSH1 0x4 DUP3 ADD MSTORE PUSH1 0xB PUSH1 0x24 DUP3 ADD MSTORE PUSH11 0x7374616C65207072696365 PUSH1 0xA8 SHL PUSH1 0x44 DUP3 ADD MSTORE REVERT JUMPDEST PUSH1 0x2 SWAP3 SWAP2 POP PUSH0 MSTORE MSTORE PUSH0 KECCAK256 SLOAD SWAP1 JUMP JUMPDEST POP PUSH1 0x3 DUP4 MSTORE PUSH2 0xE10 PUSH2 0x904 DUP6 PUSH0 KECCAK256 SLOAD TIMESTAMP PUSH2 0x838 JUMP JUMPDEST GT ISZERO PUSH2 0x896 JUMP JUMPDEST POP PUSH1 0x3 DUP4 MSTORE DUP4 PUSH0 KECCAK256 SLOAD ISZERO ISZERO PUSH2 0x890 JUMP JUMPDEST POP POP PUSH1 0x5 SWAP1 MSTORE PUSH0 KECCAK256 SLOAD SWAP1 JUMP JUMPDEST POP PUSH1 0x4 DUP4 MSTORE DUP4 PUSH0 KECCAK256 SLOAD TIMESTAMP LT ISZERO PUSH2 0x87C JUMP JUMPDEST ISZERO PUSH2 0x93F JUMPI JUMP JUMPDEST PUSH1 0x40 MLOAD PUSH3 0x461BCD PUSH1 0xE5 SHL DUP2 MSTORE PUSH1 0x20 PUSH1 0x4 DUP3 ADD MSTORE PUSH1 0xE PUSH1 0x24 DUP3 ADD MSTORE PUSH14 0x1B9BDD08185D5D1A1BDC9A5E9959 PUSH1 0x92 SHL PUSH1 0x44 DUP3 ADD MSTORE PUSH1 0x64 SWAP1 REVERT JUMPDEST PUSH1 0x1F SWAP1 SWAP2 ADD PUSH1 0x1F NOT AND DUP2 ADD SWAP1 PUSH1 0x1 PUSH1 0x1 PUSH1 0x40 SHL SUB DUP3 GT SWAP1 DUP3 LT OR PUSH2 0x998 JUMPI PUSH1 0x40 MSTORE JUMP JUMPDEST PUSH4 0x4E487B71 PUSH1 0xE0 SHL PUSH0 MSTORE PUSH1 0x41 PUSH1 0x4 MSTORE PUSH1 0x24 PUSH0 REVERT JUMPDEST SWAP1 DUP2 PUSH1 0x20 SWAP2 SUB SLT PUSH2 0x1A3 JUMPI MLOAD PUSH1 0x1 PUSH1 0x1 PUSH1 0xA0 SHL SUB DUP2 AND DUP2 SUB PUSH2 0x1A3 JUMPI SWAP1 JUMP JUMPDEST DUP2 ISZERO PUSH2 0x9D5 JUMPI DIV SWAP1 JUMP JUMPDEST PUSH4 0x4E487B71 PUSH1 0xE0 SHL PUSH0 MSTORE PUSH1 0x12 PUSH1 0x4 MSTORE PUSH1 0x24 PUSH0 REVERT JUMPDEST PUSH1 0x1 DUP1 PUSH1 0xA0 SHL SUB DUP1 SWAP2 AND DUP1 PUSH0 MSTORE PUSH1 0x20 PUSH1 0x9 DUP2 MSTORE DUP3 PUSH1 0x40 SWAP3 DUP2 DUP5 PUSH0 KECCAK256 SLOAD AND SWAP1 DUP2 ISZERO DUP1 PUSH2 0xBE6 JUMPI JUMPDEST DUP1 PUSH2 0xBD9 JUMPI JUMPDEST PUSH2 0xB6C JUMPI JUMPDEST POP AND SWAP2 DUP3 ISZERO PUSH2 0xB64 JUMPI DUP1 MLOAD PUSH4 0x240BC6B PUSH1 0xE2 SHL DUP2 MSTORE SWAP4 PUSH1 0x60 DUP6 PUSH1 0x4 DUP2 DUP8 GAS STATICCALL SWAP4 DUP5 ISZERO PUSH2 0xB5A JUMPI PUSH0 SWAP6 PUSH0 SWAP6 PUSH2 0xB20 JUMPI JUMPDEST POP DUP6 ISZERO SWAP4 DUP5 DUP1 ISZERO PUSH2 0xB18 JUMPI JUMPDEST PUSH2 0xB0D JUMPI DUP1 PUSH1 0x4 SWAP3 DUP6 MLOAD SWAP4 DUP5 DUP1 SWAP3 PUSH4 0xDFE1681 PUSH1 0xE0 SHL DUP3 MSTORE GAS STATICCALL SWAP4 DUP5 ISZERO PUSH2 0xB04 JUMPI POP PUSH0 SWAP4 PUSH2 0xAD5 JUMPI JUMPDEST POP POP DUP1 PUSH1 0x8 SLOAD AND SWAP2 AND EQ PUSH0 EQ PUSH2 0xAB0 JUMPI PUSH8 0xDE0B6B3A7640000 DUP1 DUP5 MUL SWAP4 DUP5 DIV EQ OR ISZERO PUSH2 0x845 JUMPI PUSH2 0xAAD SWAP2 PUSH2 0x9CB JUMP JUMPDEST SWAP1 JUMP JUMPDEST POP SWAP1 PUSH8 0xDE0B6B3A7640000 SWAP2 DUP3 DUP2 MUL SWAP3 DUP2 DUP5 DIV EQ SWAP1 ISZERO OR ISZERO PUSH2 0x845 JUMPI PUSH2 0xAAD SWAP2 PUSH2 0x9CB JUMP JUMPDEST PUSH2 0xAF5 SWAP3 SWAP4 POP DUP1 RETURNDATASIZE LT PUSH2 0xAFD JUMPI JUMPDEST PUSH2 0xAED DUP2 DUP4 PUSH2 0x975 JUMP JUMPDEST DUP2 ADD SWAP1 PUSH2 0x9AC JUMP JUMPDEST SWAP1 PUSH0 DUP1 PUSH2 0xA7E JUMP JUMPDEST POP RETURNDATASIZE PUSH2 0xAE3 JUMP JUMPDEST MLOAD RETURNDATASIZE PUSH0 DUP3 RETURNDATACOPY RETURNDATASIZE SWAP1 REVERT JUMPDEST POP POP POP POP POP POP POP PUSH0 SWAP1 JUMP JUMPDEST POP DUP6 ISZERO PUSH2 0xA55 JUMP JUMPDEST SWAP6 POP SWAP4 POP PUSH1 0x60 DUP6 RETURNDATASIZE PUSH1 0x60 GT PUSH2 0xB52 JUMPI JUMPDEST DUP2 PUSH2 0xB3D PUSH1 0x60 SWAP4 DUP4 PUSH2 0x975 JUMP JUMPDEST DUP2 ADD SUB SLT PUSH2 0x1A3 JUMPI DUP3 DUP6 MLOAD SWAP6 ADD MLOAD SWAP4 PUSH0 PUSH2 0xA49 JUMP JUMPDEST RETURNDATASIZE SWAP2 POP PUSH2 0xB30 JUMP JUMPDEST DUP3 MLOAD RETURNDATASIZE PUSH0 DUP3 RETURNDATACOPY RETURNDATASIZE SWAP1 REVERT JUMPDEST POP POP POP POP PUSH0 SWAP1 JUMP JUMPDEST SWAP2 DUP4 SWAP2 POP PUSH1 0x7 SLOAD AND SWAP2 PUSH1 0x44 DUP7 PUSH1 0x8 SLOAD AND SWAP2 DUP7 MLOAD SWAP5 DUP6 SWAP4 DUP5 SWAP3 PUSH4 0xE6A43905 PUSH1 0xE0 SHL DUP5 MSTORE PUSH1 0x4 DUP5 ADD MSTORE PUSH1 0x24 DUP4 ADD MSTORE GAS STATICCALL SWAP1 DUP2 ISZERO PUSH2 0xBCF JUMPI SWAP1 DUP5 SWAP2 PUSH0 SWAP2 PUSH2 0xBB2 JUMPI JUMPDEST POP PUSH0 PUSH2 0xA1A JUMP JUMPDEST PUSH2 0xBC9 SWAP2 POP DUP4 RETURNDATASIZE DUP6 GT PUSH2 0xAFD JUMPI PUSH2 0xAED DUP2 DUP4 PUSH2 0x975 JUMP JUMPDEST PUSH0 PUSH2 0xBAB JUMP JUMPDEST DUP4 MLOAD RETURNDATASIZE PUSH0 DUP3 RETURNDATACOPY RETURNDATASIZE SWAP1 REVERT JUMPDEST POP DUP3 PUSH1 0x8 SLOAD AND ISZERO ISZERO PUSH2 0xA15 JUMP JUMPDEST POP DUP3 PUSH1 0x7 SLOAD AND ISZERO ISZERO PUSH2 0xA0F JUMP JUMPDEST PUSH0 SLOAD PUSH1 0x1 PUSH1 0x1 PUSH1 0xA0 SHL SUB AND CALLER SUB PUSH2 0xC06 JUMPI JUMP JUMPDEST PUSH1 0x40 MLOAD PUSH4 0x118CDAA7 PUSH1 0xE0 SHL DUP2 MSTORE CALLER PUSH1 0x4 DUP3 ADD MSTORE PUSH1 0x24 SWAP1 REVERT JUMPDEST MLOAD SWAP1 PUSH1 0x1 PUSH1 0x1 PUSH1 0x50 SHL SUB DUP3 AND DUP3 SUB PUSH2 0x1A3 JUMPI JUMP JUMPDEST PUSH1 0x1 DUP1 PUSH1 0xA0 SHL SUB DUP1 SWAP2 AND PUSH0 MSTORE PUSH1 0x20 SWAP1 PUSH1 0x1 DUP3 MSTORE PUSH1 0x40 PUSH0 KECCAK256 SLOAD AND DUP1 ISZERO PUSH2 0xDAB JUMPI PUSH1 0x40 MLOAD PUSH4 0x3FABE5A3 PUSH1 0xE2 SHL DUP2 MSTORE SWAP2 PUSH1 0xA0 DUP4 PUSH1 0x4 DUP2 DUP6 GAS STATICCALL SWAP3 DUP4 ISZERO PUSH2 0xD3A JUMPI PUSH0 SWAP4 PUSH0 SWAP5 PUSH0 SWAP3 PUSH0 SWAP3 PUSH2 0xD56 JUMPI JUMPDEST POP PUSH0 DUP7 SGT ISZERO PUSH2 0xD4C JUMPI PUSH1 0x1 PUSH1 0x1 PUSH1 0x50 SHL SUB SWAP1 DUP2 AND SWAP2 AND LT PUSH2 0xB64 JUMPI PUSH2 0xCA4 PUSH2 0xE10 SWAP2 TIMESTAMP PUSH2 0x838 JUMP JUMPDEST GT PUSH2 0xD45 JUMPI DUP1 PUSH1 0x4 SWAP3 PUSH1 0x40 MLOAD SWAP4 DUP5 DUP1 SWAP3 PUSH4 0x313CE567 PUSH1 0xE0 SHL DUP3 MSTORE GAS STATICCALL SWAP1 DUP2 ISZERO PUSH2 0xD3A JUMPI PUSH0 SWAP2 PUSH2 0xD01 JUMPI JUMPDEST POP PUSH1 0xFF SWAP2 POP AND PUSH1 0x12 SUB PUSH1 0xFF DUP2 GT PUSH2 0x845 JUMPI PUSH1 0xFF AND PUSH1 0x4D DUP2 GT PUSH2 0x845 JUMPI PUSH1 0xA EXP SWAP1 DUP2 DUP2 MUL SWAP2 DUP2 DUP4 DIV EQ SWAP1 ISZERO OR ISZERO PUSH2 0x845 JUMPI SWAP1 JUMP JUMPDEST SWAP1 POP DUP2 DUP2 RETURNDATASIZE DUP4 GT PUSH2 0xD33 JUMPI JUMPDEST PUSH2 0xD17 DUP2 DUP4 PUSH2 0x975 JUMP JUMPDEST DUP2 ADD SUB SLT PUSH2 0x1A3 JUMPI MLOAD PUSH1 0xFF DUP2 AND DUP2 SUB PUSH2 0x1A3 JUMPI PUSH1 0xFF SWAP1 PUSH0 PUSH2 0xCCE JUMP JUMPDEST POP RETURNDATASIZE PUSH2 0xD0D JUMP JUMPDEST PUSH1 0x40 MLOAD RETURNDATASIZE PUSH0 DUP3 RETURNDATACOPY RETURNDATASIZE SWAP1 REVERT JUMPDEST POP POP POP PUSH0 SWAP1 JUMP JUMPDEST POP POP POP POP POP POP PUSH0 SWAP1 JUMP JUMPDEST SWAP6 POP POP POP POP PUSH1 0xA0 DUP4 RETURNDATASIZE PUSH1 0xA0 GT PUSH2 0xDA3 JUMPI JUMPDEST DUP2 PUSH2 0xD74 PUSH1 0xA0 SWAP4 DUP4 PUSH2 0x975 JUMP JUMPDEST DUP2 ADD SUB SLT PUSH2 0x1A3 JUMPI PUSH2 0xD85 DUP4 PUSH2 0xC1E JUMP JUMPDEST DUP2 DUP5 ADD MLOAD PUSH2 0xD9A PUSH1 0x80 PUSH1 0x60 DUP8 ADD MLOAD SWAP7 ADD PUSH2 0xC1E JUMP JUMPDEST SWAP1 SWAP5 SWAP2 PUSH0 PUSH2 0xC7C JUMP JUMPDEST RETURNDATASIZE SWAP2 POP PUSH2 0xD67 JUMP JUMPDEST POP POP PUSH0 SWAP1 JUMP JUMPDEST DUP1 ISZERO DUP1 ISZERO PUSH2 0xE26 JUMPI JUMPDEST PUSH2 0xE1F JUMPI DUP2 DUP2 GT ISZERO PUSH2 0xE0F JUMPI PUSH2 0xDD0 DUP3 DUP3 PUSH2 0x838 JUMP JUMPDEST SWAP2 JUMPDEST DUP2 ADD DUP1 SWAP2 GT PUSH2 0x845 JUMPI PUSH8 0xDE0B6B3A7640000 SWAP2 DUP3 DUP2 MUL SWAP3 DUP2 DUP5 DIV EQ SWAP1 ISZERO OR ISZERO PUSH2 0x845 JUMPI PUSH7 0x11C37937E08000 SWAP2 PUSH2 0xE0B SWAP2 PUSH1 0x1 SHR SWAP1 PUSH2 0x9CB JUMP JUMPDEST LT SWAP1 JUMP JUMPDEST PUSH2 0xE19 DUP2 DUP4 PUSH2 0x838 JUMP JUMPDEST SWAP2 PUSH2 0xDD2 JUMP JUMPDEST POP POP PUSH1 0x1 SWAP1 JUMP JUMPDEST POP DUP2 ISZERO PUSH2 0xDBA JUMP INVALID DUP12 0xE0 SMOD SWAP13 MSTORE8 AND MSIZE EQ SGT PREVRANDAO 0xCD 0x1F 0xD0 LOG4 CALLCODE DUP5 NOT BLOBHASH PUSH32 0x9722A3DAAFE3B4186F6B6457E0A264697066735822122016A965AA8316A831DA SWAP6 DUP16 0x28 0xB1 XOR PUSH10 0x7DB61881AD66AD8CC38F 0xAA DUP13 PUSH30 0x178A4C0664736F6C63430008180033000000000000000000000000000000 "},"methodIdentifiers":{"DEVIATION_THRESHOLD()":"b8491164","MAX_PRICE_AGE()":"9d7f7e86","PRICE_DELAY()":"0f3c40ea","TWAP_PERIOD()":"7ca25184","authorizedUpdaters(address)":"8ff29cfe","baseAsset()":"cdf456e1","chainlinkFeeds(address)":"e8c16500","dexFactory()":"b8d8fbb4","effectivePrice(address)":"941bf20a","effectivePriceTime(address)":"16f2a536","getPrice(address)":"41976e09","getPriceUpdatedAt(address)":"85f89eef","lastUpdateTime(address)":"2ce9aead","owner()":"8da5cb5b","renounceOwnership()":"715018a6","setAuthorizedUpdater(address,bool)":"99fc65d4","setChainlinkFeed(address,address)":"69ef32d2","setDexConfig(address,address)":"5537c6c6","setTokenDexPair(address,address)":"716e5192","tokenDexPairs(address)":"2959ea3b","transferOwnership(address)":"f2fde38b","twapPrices(address)":"10fd6134","updateEffectivePrice(address)":"ad80580c","updatePriceFromDex(address)":"246956c1","updateTwapPrice(address,uint256)":"712be6fd"}}}}}