{"project/contracts/dao/LaunchDAO.sol":{"LaunchDAO":{"abi":[{"inputs":[{"internalType":"address","name":"_bondingCurve","type":"address"},{"internalType":"address","name":"_feeDistributor","type":"address"}],"stateMutability":"nonpayable","type":"constructor"},{"inputs":[],"name":"CandidateNotActive","type":"error"},{"inputs":[],"name":"CandidateNotExpired","type":"error"},{"inputs":[],"name":"InsufficientFee","type":"error"},{"inputs":[],"name":"InvalidDurationTier","type":"error"},{"inputs":[],"name":"NotInGracePeriod","type":"error"},{"inputs":[],"name":"NotProposer","type":"error"},{"inputs":[],"name":"NotRecyclable","type":"error"},{"inputs":[{"internalType":"address","name":"owner","type":"address"}],"name":"OwnableInvalidOwner","type":"error"},{"inputs":[{"internalType":"address","name":"account","type":"address"}],"name":"OwnableUnauthorizedAccount","type":"error"},{"inputs":[],"name":"ReentrancyGuardReentrantCall","type":"error"},{"inputs":[{"internalType":"address","name":"token","type":"address"}],"name":"SafeERC20FailedOperation","type":"error"},{"anonymous":false,"inputs":[{"indexed":true,"internalType":"uint256","name":"candidateId","type":"uint256"},{"indexed":true,"internalType":"address","name":"proposer","type":"address"}],"name":"CandidateEarlyQueued","type":"event"},{"anonymous":false,"inputs":[{"indexed":true,"internalType":"uint256","name":"candidateId","type":"uint256"}],"name":"CandidateQueued","type":"event"},{"anonymous":false,"inputs":[{"indexed":true,"internalType":"uint256","name":"candidateId","type":"uint256"},{"indexed":false,"internalType":"address","name":"token","type":"address"}],"name":"CandidateReadyToLaunch","type":"event"},{"anonymous":false,"inputs":[{"indexed":true,"internalType":"uint256","name":"candidateId","type":"uint256"},{"indexed":true,"internalType":"address","name":"newProposer","type":"address"},{"indexed":false,"internalType":"enum LaunchDAO.DurationTier","name":"tier","type":"uint8"}],"name":"CandidateRecycled","type":"event"},{"anonymous":false,"inputs":[{"indexed":true,"internalType":"uint256","name":"candidateId","type":"uint256"},{"indexed":true,"internalType":"address","name":"proposer","type":"address"},{"indexed":false,"internalType":"enum LaunchDAO.DurationTier","name":"tier","type":"uint8"}],"name":"CandidateRenewed","type":"event"},{"anonymous":false,"inputs":[{"indexed":true,"internalType":"uint256","name":"candidateId","type":"uint256"},{"indexed":true,"internalType":"address","name":"proposer","type":"address"},{"indexed":false,"internalType":"string","name":"name","type":"string"},{"indexed":false,"internalType":"string","name":"symbol","type":"string"},{"indexed":false,"internalType":"enum LaunchDAO.DurationTier","name":"tier","type":"uint8"}],"name":"CandidateSubmitted","type":"event"},{"anonymous":false,"inputs":[{"indexed":true,"internalType":"uint256","name":"day","type":"uint256"},{"indexed":false,"internalType":"uint256","name":"count","type":"uint256"}],"name":"DailyEnqueue","type":"event"},{"anonymous":false,"inputs":[{"indexed":true,"internalType":"uint256","name":"day","type":"uint256"},{"indexed":false,"internalType":"uint256","name":"winningCandidateId","type":"uint256"}],"name":"EpochSettled","type":"event"},{"anonymous":false,"inputs":[{"indexed":true,"internalType":"address","name":"previousOwner","type":"address"},{"indexed":true,"internalType":"address","name":"newOwner","type":"address"}],"name":"OwnershipTransferred","type":"event"},{"anonymous":false,"inputs":[{"indexed":true,"internalType":"address","name":"from","type":"address"},{"indexed":false,"internalType":"uint256","name":"amount","type":"uint256"}],"name":"RewardsDeposited","type":"event"},{"anonymous":false,"inputs":[{"indexed":true,"internalType":"address","name":"user","type":"address"},{"indexed":false,"internalType":"uint256","name":"amount","type":"uint256"}],"name":"RightsClaimed","type":"event"},{"anonymous":false,"inputs":[{"indexed":true,"internalType":"address","name":"user","type":"address"},{"indexed":true,"internalType":"uint256","name":"candidateId","type":"uint256"},{"indexed":false,"internalType":"uint256","name":"amount","type":"uint256"}],"name":"RightsVoted","type":"event"},{"anonymous":false,"inputs":[{"indexed":true,"internalType":"address","name":"user","type":"address"},{"indexed":false,"internalType":"address","name":"token","type":"address"},{"indexed":false,"internalType":"uint256","name":"amount","type":"uint256"},{"indexed":false,"internalType":"enum LaunchDAO.StakeDuration","name":"duration","type":"uint8"},{"indexed":false,"internalType":"uint256","name":"positionId","type":"uint256"}],"name":"Staked","type":"event"},{"anonymous":false,"inputs":[{"indexed":true,"internalType":"address","name":"user","type":"address"},{"indexed":true,"internalType":"uint256","name":"candidateId","type":"uint256"},{"indexed":false,"internalType":"uint256","name":"usdcAmount","type":"uint256"},{"indexed":false,"internalType":"uint256","name":"dogeAmount","type":"uint256"},{"indexed":false,"internalType":"uint256","name":"weight","type":"uint256"}],"name":"Subscribed","type":"event"},{"anonymous":false,"inputs":[{"indexed":true,"internalType":"address","name":"user","type":"address"},{"indexed":true,"internalType":"uint256","name":"candidateId","type":"uint256"},{"indexed":false,"internalType":"address","name":"token","type":"address"},{"indexed":false,"internalType":"uint256","name":"tokenAmount","type":"uint256"}],"name":"SubscriptionClaimed","type":"event"},{"anonymous":false,"inputs":[{"indexed":true,"internalType":"address","name":"user","type":"address"},{"indexed":true,"internalType":"uint256","name":"candidateId","type":"uint256"},{"indexed":false,"internalType":"uint256","name":"usdcAmount","type":"uint256"},{"indexed":false,"internalType":"uint256","name":"dogeAmount","type":"uint256"}],"name":"SubscriptionRefunded","type":"event"},{"anonymous":false,"inputs":[{"indexed":true,"internalType":"uint256","name":"candidateId","type":"uint256"},{"indexed":false,"internalType":"address","name":"token","type":"address"},{"indexed":false,"internalType":"uint256","name":"usdcUsed","type":"uint256"},{"indexed":false,"internalType":"uint256","name":"tokensReceived","type":"uint256"},{"indexed":false,"internalType":"uint256","name":"excessUsdc","type":"uint256"}],"name":"TokenLaunched","type":"event"},{"anonymous":false,"inputs":[{"indexed":true,"internalType":"address","name":"user","type":"address"},{"indexed":false,"internalType":"uint256","name":"positionId","type":"uint256"},{"indexed":false,"internalType":"address","name":"token","type":"address"},{"indexed":false,"internalType":"uint256","name":"amount","type":"uint256"}],"name":"Unstaked","type":"event"},{"inputs":[],"name":"CONVERGE_THRESHOLD","outputs":[{"internalType":"uint256","name":"","type":"uint256"}],"stateMutability":"view","type":"function"},{"inputs":[],"name":"DAILY_QUEUE_LIMIT","outputs":[{"internalType":"uint256","name":"","type":"uint256"}],"stateMutability":"view","type":"function"},{"inputs":[],"name":"DEMAND_BPS","outputs":[{"internalType":"uint256","name":"","type":"uint256"}],"stateMutability":"view","type":"function"},{"inputs":[],"name":"DOGE_RIGHTS_BASE","outputs":[{"internalType":"uint256","name":"","type":"uint256"}],"stateMutability":"view","type":"function"},{"inputs":[],"name":"DOGE_SCORE_MULTIPLIER","outputs":[{"internalType":"uint256","name":"","type":"uint256"}],"stateMutability":"view","type":"function"},{"inputs":[],"name":"DOGE_USDC_RATE","outputs":[{"internalType":"uint256","name":"","type":"uint256"}],"stateMutability":"view","type":"function"},{"inputs":[],"name":"EPOCH_DURATION","outputs":[{"internalType":"uint256","name":"","type":"uint256"}],"stateMutability":"view","type":"function"},{"inputs":[],"name":"FIXED_180_BPS","outputs":[{"internalType":"uint256","name":"","type":"uint256"}],"stateMutability":"view","type":"function"},{"inputs":[],"name":"FIXED_180_DURATION","outputs":[{"internalType":"uint256","name":"","type":"uint256"}],"stateMutability":"view","type":"function"},{"inputs":[],"name":"FIXED_30_BPS","outputs":[{"internalType":"uint256","name":"","type":"uint256"}],"stateMutability":"view","type":"function"},{"inputs":[],"name":"FIXED_30_DURATION","outputs":[{"internalType":"uint256","name":"","type":"uint256"}],"stateMutability":"view","type":"function"},{"inputs":[],"name":"FIXED_90_BPS","outputs":[{"internalType":"uint256","name":"","type":"uint256"}],"stateMutability":"view","type":"function"},{"inputs":[],"name":"FIXED_90_DURATION","outputs":[{"internalType":"uint256","name":"","type":"uint256"}],"stateMutability":"view","type":"function"},{"inputs":[],"name":"FIXED_TOTAL_SUPPLY","outputs":[{"internalType":"uint256","name":"","type":"uint256"}],"stateMutability":"view","type":"function"},{"inputs":[],"name":"LAUNCH_REWARD","outputs":[{"internalType":"uint256","name":"","type":"uint256"}],"stateMutability":"view","type":"function"},{"inputs":[],"name":"LAUNCH_THRESHOLD","outputs":[{"internalType":"uint256","name":"","type":"uint256"}],"stateMutability":"view","type":"function"},{"inputs":[],"name":"MAX_EFFECTIVE_RIGHTS","outputs":[{"internalType":"uint256","name":"","type":"uint256"}],"stateMutability":"view","type":"function"},{"inputs":[],"name":"MAX_STAKE","outputs":[{"internalType":"uint256","name":"","type":"uint256"}],"stateMutability":"view","type":"function"},{"inputs":[],"name":"MIN_STAKE","outputs":[{"internalType":"uint256","name":"","type":"uint256"}],"stateMutability":"view","type":"function"},{"inputs":[],"name":"MIN_SUBSCRIBE_USDC","outputs":[{"internalType":"uint256","name":"","type":"uint256"}],"stateMutability":"view","type":"function"},{"inputs":[],"name":"RIGHTS_CYCLE","outputs":[{"internalType":"uint256","name":"","type":"uint256"}],"stateMutability":"view","type":"function"},{"inputs":[],"name":"RIGHTS_DENOMINATOR","outputs":[{"internalType":"uint256","name":"","type":"uint256"}],"stateMutability":"view","type":"function"},{"inputs":[],"name":"SETTLE_REWARD","outputs":[{"internalType":"uint256","name":"","type":"uint256"}],"stateMutability":"view","type":"function"},{"inputs":[],"name":"SUBSCRIBE_DENOM","outputs":[{"internalType":"uint256","name":"","type":"uint256"}],"stateMutability":"view","type":"function"},{"inputs":[],"name":"SUBSCRIBE_USDC_WEIGHT","outputs":[{"internalType":"uint256","name":"","type":"uint256"}],"stateMutability":"view","type":"function"},{"inputs":[],"name":"TIER_1_DURATION","outputs":[{"internalType":"uint256","name":"","type":"uint256"}],"stateMutability":"view","type":"function"},{"inputs":[],"name":"TIER_1_FEE","outputs":[{"internalType":"uint256","name":"","type":"uint256"}],"stateMutability":"view","type":"function"},{"inputs":[],"name":"TIER_30_DURATION","outputs":[{"internalType":"uint256","name":"","type":"uint256"}],"stateMutability":"view","type":"function"},{"inputs":[],"name":"TIER_30_FEE","outputs":[{"internalType":"uint256","name":"","type":"uint256"}],"stateMutability":"view","type":"function"},{"inputs":[],"name":"TIER_7_DURATION","outputs":[{"internalType":"uint256","name":"","type":"uint256"}],"stateMutability":"view","type":"function"},{"inputs":[],"name":"TIER_7_FEE","outputs":[{"internalType":"uint256","name":"","type":"uint256"}],"stateMutability":"view","type":"function"},{"inputs":[],"name":"USDC_RIGHTS_BASE","outputs":[{"internalType":"uint256","name":"","type":"uint256"}],"stateMutability":"view","type":"function"},{"inputs":[{"internalType":"uint256","name":"","type":"uint256"}],"name":"activeCandidateIds","outputs":[{"internalType":"uint256","name":"","type":"uint256"}],"stateMutability":"view","type":"function"},{"inputs":[],"name":"bondingCurve","outputs":[{"internalType":"address","name":"","type":"address"}],"stateMutability":"view","type":"function"},{"inputs":[{"internalType":"uint256","name":"","type":"uint256"},{"internalType":"uint256","name":"","type":"uint256"}],"name":"candidateSupporters","outputs":[{"internalType":"address","name":"","type":"address"}],"stateMutability":"view","type":"function"},{"inputs":[{"internalType":"uint256","name":"","type":"uint256"}],"name":"candidates","outputs":[{"internalType":"address","name":"proposer","type":"address"},{"internalType":"string","name":"name","type":"string"},{"internalType":"string","name":"symbol","type":"string"},{"internalType":"string","name":"metadataURI","type":"string"},{"internalType":"uint256","name":"totalWeight","type":"uint256"},{"internalType":"uint256","name":"totalSubUsdc","type":"uint256"},{"internalType":"uint256","name":"totalSubDoge","type":"uint256"},{"internalType":"uint256","name":"totalRightsVotes","type":"uint256"},{"internalType":"uint256","name":"submitTime","type":"uint256"},{"internalType":"uint256","name":"durationTier","type":"uint256"},{"internalType":"uint256","name":"expireTime","type":"uint256"},{"internalType":"uint256","name":"gracePeriodEnd","type":"uint256"},{"internalType":"enum LaunchDAO.CandidateStatus","name":"status","type":"uint8"},{"internalType":"bool","name":"wasLaunched","type":"bool"},{"internalType":"address","name":"launchedToken","type":"address"},{"internalType":"uint256","name":"launchedTokenSupply","type":"uint256"},{"internalType":"uint256","name":"launchedUsdcUsed","type":"uint256"},{"internalType":"uint256","name":"launchedExcessUsdc","type":"uint256"},{"internalType":"uint256","name":"launchedDogeUsed","type":"uint256"},{"internalType":"uint256","name":"launchedExcessDoge","type":"uint256"},{"internalType":"uint256","name":"queueTime","type":"uint256"},{"internalType":"uint256","name":"launchAt","type":"uint256"},{"internalType":"bool","name":"wantTaxShare","type":"bool"},{"internalType":"bool","name":"wantLpShare","type":"bool"},{"internalType":"bool","name":"wantTokenAllocation","type":"bool"}],"stateMutability":"view","type":"function"},{"inputs":[{"internalType":"uint256","name":"candidateId","type":"uint256"},{"internalType":"enum LaunchDAO.DurationTier","name":"tier","type":"uint8"},{"internalType":"bool","name":"_wantTaxShare","type":"bool"},{"internalType":"bool","name":"_wantLpShare","type":"bool"},{"internalType":"bool","name":"_wantTokenAllocation","type":"bool"}],"name":"claimRecycled","outputs":[],"stateMutability":"payable","type":"function"},{"inputs":[],"name":"claimRights","outputs":[],"stateMutability":"nonpayable","type":"function"},{"inputs":[{"internalType":"uint256","name":"candidateId","type":"uint256"}],"name":"claimSubscription","outputs":[],"stateMutability":"nonpayable","type":"function"},{"inputs":[],"name":"currentDay","outputs":[{"internalType":"uint256","name":"","type":"uint256"}],"stateMutability":"view","type":"function"},{"inputs":[{"internalType":"uint256","name":"","type":"uint256"}],"name":"dayLaunchCount","outputs":[{"internalType":"uint256","name":"","type":"uint256"}],"stateMutability":"view","type":"function"},{"inputs":[],"name":"defaultWantLpShare","outputs":[{"internalType":"bool","name":"","type":"bool"}],"stateMutability":"view","type":"function"},{"inputs":[],"name":"defaultWantTaxShare","outputs":[{"internalType":"bool","name":"","type":"bool"}],"stateMutability":"view","type":"function"},{"inputs":[],"name":"defaultWantTokenAllocation","outputs":[{"internalType":"bool","name":"","type":"bool"}],"stateMutability":"view","type":"function"},{"inputs":[{"internalType":"uint256","name":"amount","type":"uint256"}],"name":"depositRewards","outputs":[],"stateMutability":"nonpayable","type":"function"},{"inputs":[],"name":"dogeToken","outputs":[{"internalType":"address","name":"","type":"address"}],"stateMutability":"view","type":"function"},{"inputs":[{"internalType":"uint256","name":"candidateId","type":"uint256"}],"name":"earlyQueue","outputs":[],"stateMutability":"nonpayable","type":"function"},{"inputs":[{"internalType":"uint256","name":"","type":"uint256"}],"name":"epochInfo","outputs":[{"internalType":"uint256","name":"dayStart","type":"uint256"},{"internalType":"uint256","name":"winningCandidateId","type":"uint256"},{"internalType":"bool","name":"isSettled","type":"bool"},{"internalType":"bool","name":"settleRewardClaimed","type":"bool"},{"internalType":"bool","name":"launchRewardClaimed","type":"bool"}],"stateMutability":"view","type":"function"},{"inputs":[],"name":"feeDistributor","outputs":[{"internalType":"address","name":"","type":"address"}],"stateMutability":"view","type":"function"},{"inputs":[],"name":"getActiveCandidates","outputs":[{"internalType":"uint256[]","name":"ids","type":"uint256[]"},{"internalType":"string[]","name":"names","type":"string[]"},{"internalType":"string[]","name":"symbols","type":"string[]"},{"internalType":"uint256[]","name":"weights","type":"uint256[]"},{"internalType":"uint256[]","name":"subUsdcs","type":"uint256[]"},{"internalType":"uint256[]","name":"subDoges","type":"uint256[]"}],"stateMutability":"view","type":"function"},{"inputs":[],"name":"getCandidateCount","outputs":[{"internalType":"uint256","name":"","type":"uint256"}],"stateMutability":"view","type":"function"},{"inputs":[{"internalType":"uint256","name":"candidateId","type":"uint256"}],"name":"getCandidateStatus","outputs":[{"internalType":"enum LaunchDAO.CandidateStatus","name":"","type":"uint8"}],"stateMutability":"view","type":"function"},{"inputs":[{"internalType":"address","name":"user","type":"address"}],"name":"getEffectiveRights","outputs":[{"internalType":"uint256","name":"","type":"uint256"}],"stateMutability":"view","type":"function"},{"inputs":[],"name":"getEpochTimeRemaining","outputs":[{"internalType":"uint256","name":"","type":"uint256"}],"stateMutability":"view","type":"function"},{"inputs":[],"name":"getGracePeriodCandidates","outputs":[{"internalType":"uint256[]","name":"ids","type":"uint256[]"},{"internalType":"string[]","name":"names","type":"string[]"},{"internalType":"uint256[]","name":"gracePeriodEnds","type":"uint256[]"},{"internalType":"address[]","name":"proposers","type":"address[]"}],"stateMutability":"view","type":"function"},{"inputs":[{"internalType":"address","name":"user","type":"address"}],"name":"getPendingRights","outputs":[{"internalType":"uint256","name":"","type":"uint256"}],"stateMutability":"view","type":"function"},{"inputs":[{"internalType":"uint256","name":"index","type":"uint256"}],"name":"getQueueItem","outputs":[{"internalType":"uint256","name":"","type":"uint256"}],"stateMutability":"view","type":"function"},{"inputs":[],"name":"getQueueLength","outputs":[{"internalType":"uint256","name":"","type":"uint256"}],"stateMutability":"view","type":"function"},{"inputs":[],"name":"getQueuedCandidates","outputs":[{"internalType":"uint256[]","name":"ids","type":"uint256[]"},{"internalType":"string[]","name":"names","type":"string[]"},{"internalType":"string[]","name":"symbols","type":"string[]"},{"internalType":"uint256[]","name":"queueTimes","type":"uint256[]"}],"stateMutability":"view","type":"function"},{"inputs":[],"name":"getRecyclableCandidates","outputs":[{"internalType":"uint256[]","name":"ids","type":"uint256[]"},{"internalType":"string[]","name":"names","type":"string[]"},{"internalType":"string[]","name":"symbols","type":"string[]"},{"internalType":"string[]","name":"metadataURIs","type":"string[]"}],"stateMutability":"view","type":"function"},{"inputs":[{"internalType":"enum LaunchDAO.StakeDuration","name":"d","type":"uint8"}],"name":"getStakeDurationSeconds","outputs":[{"internalType":"uint256","name":"","type":"uint256"}],"stateMutability":"pure","type":"function"},{"inputs":[{"internalType":"enum LaunchDAO.StakeDuration","name":"d","type":"uint8"}],"name":"getStakeMultiplierBps","outputs":[{"internalType":"uint256","name":"","type":"uint256"}],"stateMutability":"pure","type":"function"},{"inputs":[{"internalType":"address","name":"user","type":"address"},{"internalType":"uint256","name":"index","type":"uint256"}],"name":"getStakePosition","outputs":[{"internalType":"address","name":"token","type":"address"},{"internalType":"uint256","name":"amount","type":"uint256"},{"internalType":"uint256","name":"startTime","type":"uint256"},{"internalType":"enum LaunchDAO.StakeDuration","name":"duration","type":"uint8"},{"internalType":"uint256","name":"maturityTime","type":"uint256"},{"internalType":"bool","name":"withdrawn","type":"bool"},{"internalType":"uint256","name":"lastRightsClaimTime","type":"uint256"}],"stateMutability":"view","type":"function"},{"inputs":[{"internalType":"address","name":"user","type":"address"}],"name":"getStakePositionCount","outputs":[{"internalType":"uint256","name":"","type":"uint256"}],"stateMutability":"view","type":"function"},{"inputs":[{"internalType":"address","name":"user","type":"address"}],"name":"getStakePositions","outputs":[{"internalType":"address[]","name":"tokens","type":"address[]"},{"internalType":"uint256[]","name":"amounts","type":"uint256[]"},{"internalType":"uint256[]","name":"startTimes","type":"uint256[]"},{"internalType":"uint256[]","name":"durations","type":"uint256[]"},{"internalType":"uint256[]","name":"maturityTimes","type":"uint256[]"},{"internalType":"bool[]","name":"withdrawns","type":"bool[]"}],"stateMutability":"view","type":"function"},{"inputs":[{"internalType":"address","name":"user","type":"address"},{"internalType":"uint256","name":"candidateId","type":"uint256"}],"name":"getSubscription","outputs":[{"internalType":"uint256","name":"usdcAmount","type":"uint256"},{"internalType":"uint256","name":"dogeAmount","type":"uint256"},{"internalType":"uint256","name":"subscribeTime","type":"uint256"},{"internalType":"bool","name":"isActive","type":"bool"},{"internalType":"bool","name":"hasClaimed","type":"bool"},{"internalType":"bool","name":"hasRefunded","type":"bool"}],"stateMutability":"view","type":"function"},{"inputs":[{"internalType":"enum LaunchDAO.DurationTier","name":"tier","type":"uint8"}],"name":"getTierDuration","outputs":[{"internalType":"uint256","name":"","type":"uint256"}],"stateMutability":"pure","type":"function"},{"inputs":[{"internalType":"enum LaunchDAO.DurationTier","name":"tier","type":"uint8"}],"name":"getTierFee","outputs":[{"internalType":"uint256","name":"","type":"uint256"}],"stateMutability":"pure","type":"function"},{"inputs":[{"internalType":"address","name":"user","type":"address"}],"name":"getUserTotalEffectiveRights","outputs":[{"internalType":"uint256","name":"","type":"uint256"}],"stateMutability":"view","type":"function"},{"inputs":[{"internalType":"uint256","name":"","type":"uint256"},{"internalType":"address","name":"","type":"address"}],"name":"isSupporter","outputs":[{"internalType":"bool","name":"","type":"bool"}],"stateMutability":"view","type":"function"},{"inputs":[],"name":"lastLaunchDay","outputs":[{"internalType":"uint256","name":"","type":"uint256"}],"stateMutability":"view","type":"function"},{"inputs":[],"name":"lastQueueDay","outputs":[{"internalType":"uint256","name":"","type":"uint256"}],"stateMutability":"view","type":"function"},{"inputs":[],"name":"launchHour","outputs":[{"internalType":"uint256","name":"","type":"uint256"}],"stateMutability":"view","type":"function"},{"inputs":[{"internalType":"uint256","name":"","type":"uint256"}],"name":"launchQueueItems","outputs":[{"internalType":"uint256","name":"","type":"uint256"}],"stateMutability":"view","type":"function"},{"inputs":[],"name":"maxLaunchsPerDay","outputs":[{"internalType":"uint256","name":"","type":"uint256"}],"stateMutability":"view","type":"function"},{"inputs":[],"name":"owner","outputs":[{"internalType":"address","name":"","type":"address"}],"stateMutability":"view","type":"function"},{"inputs":[],"name":"processQueue","outputs":[],"stateMutability":"nonpayable","type":"function"},{"inputs":[],"name":"queueHead","outputs":[{"internalType":"uint256","name":"","type":"uint256"}],"stateMutability":"view","type":"function"},{"inputs":[{"internalType":"uint256","name":"","type":"uint256"}],"name":"queueScore","outputs":[{"internalType":"uint256","name":"","type":"uint256"}],"stateMutability":"view","type":"function"},{"inputs":[{"internalType":"uint256","name":"candidateId","type":"uint256"}],"name":"refundSubscription","outputs":[],"stateMutability":"nonpayable","type":"function"},{"inputs":[{"internalType":"uint256","name":"candidateId","type":"uint256"},{"internalType":"enum LaunchDAO.DurationTier","name":"tier","type":"uint8"},{"internalType":"bool","name":"_wantTaxShare","type":"bool"},{"internalType":"bool","name":"_wantLpShare","type":"bool"},{"internalType":"bool","name":"_wantTokenAllocation","type":"bool"}],"name":"renewCandidate","outputs":[],"stateMutability":"payable","type":"function"},{"inputs":[],"name":"renounceOwnership","outputs":[],"stateMutability":"nonpayable","type":"function"},{"inputs":[],"name":"rewardPool","outputs":[{"internalType":"uint256","name":"","type":"uint256"}],"stateMutability":"view","type":"function"},{"inputs":[{"internalType":"address","name":"_bondingCurve","type":"address"}],"name":"setBondingCurve","outputs":[],"stateMutability":"nonpayable","type":"function"},{"inputs":[{"internalType":"bool","name":"_tax","type":"bool"},{"internalType":"bool","name":"_lp","type":"bool"},{"internalType":"bool","name":"_token","type":"bool"}],"name":"setDefaultIncentives","outputs":[],"stateMutability":"nonpayable","type":"function"},{"inputs":[{"internalType":"address","name":"_dogeToken","type":"address"}],"name":"setDogeToken","outputs":[],"stateMutability":"nonpayable","type":"function"},{"inputs":[{"internalType":"address","name":"_feeDistributor","type":"address"}],"name":"setFeeDistributor","outputs":[],"stateMutability":"nonpayable","type":"function"},{"inputs":[{"internalType":"uint256","name":"_hour","type":"uint256"}],"name":"setLaunchHour","outputs":[],"stateMutability":"nonpayable","type":"function"},{"inputs":[{"internalType":"uint256","name":"_max","type":"uint256"}],"name":"setMaxLaunchsPerDay","outputs":[],"stateMutability":"nonpayable","type":"function"},{"inputs":[],"name":"settleEpoch","outputs":[],"stateMutability":"nonpayable","type":"function"},{"inputs":[{"internalType":"uint256","name":"amount","type":"uint256"},{"internalType":"enum LaunchDAO.StakeDuration","name":"duration","type":"uint8"}],"name":"stakeDoge","outputs":[],"stateMutability":"nonpayable","type":"function"},{"inputs":[{"internalType":"enum LaunchDAO.StakeDuration","name":"duration","type":"uint8"}],"name":"stakeUsdc","outputs":[],"stateMutability":"payable","type":"function"},{"inputs":[{"internalType":"string","name":"name","type":"string"},{"internalType":"string","name":"symbol","type":"string"},{"internalType":"string","name":"metadataURI","type":"string"},{"internalType":"enum LaunchDAO.DurationTier","name":"tier","type":"uint8"},{"internalType":"bool","name":"_wantTaxShare","type":"bool"},{"internalType":"bool","name":"_wantLpShare","type":"bool"},{"internalType":"bool","name":"_wantTokenAllocation","type":"bool"}],"name":"submitCandidate","outputs":[],"stateMutability":"payable","type":"function"},{"inputs":[{"internalType":"uint256","name":"candidateId","type":"uint256"}],"name":"subscribeUsdc","outputs":[],"stateMutability":"payable","type":"function"},{"inputs":[],"name":"totalStakedDoge","outputs":[{"internalType":"uint256","name":"","type":"uint256"}],"stateMutability":"view","type":"function"},{"inputs":[],"name":"totalStakedUsdc","outputs":[{"internalType":"uint256","name":"","type":"uint256"}],"stateMutability":"view","type":"function"},{"inputs":[{"internalType":"address","name":"newOwner","type":"address"}],"name":"transferOwnership","outputs":[],"stateMutability":"nonpayable","type":"function"},{"inputs":[{"internalType":"uint256","name":"positionId","type":"uint256"}],"name":"unstakePosition","outputs":[],"stateMutability":"nonpayable","type":"function"},{"inputs":[{"internalType":"address","name":"","type":"address"}],"name":"userEffectiveSpent","outputs":[{"internalType":"uint256","name":"","type":"uint256"}],"stateMutability":"view","type":"function"},{"inputs":[{"internalType":"address","name":"","type":"address"}],"name":"userRawRights","outputs":[{"internalType":"uint256","name":"","type":"uint256"}],"stateMutability":"view","type":"function"},{"inputs":[{"internalType":"address","name":"","type":"address"},{"internalType":"uint256","name":"","type":"uint256"}],"name":"userStakePositions","outputs":[{"internalType":"address","name":"token","type":"address"},{"internalType":"uint256","name":"amount","type":"uint256"},{"internalType":"uint256","name":"startTime","type":"uint256"},{"internalType":"enum LaunchDAO.StakeDuration","name":"duration","type":"uint8"},{"internalType":"uint256","name":"maturityTime","type":"uint256"},{"internalType":"bool","name":"withdrawn","type":"bool"},{"internalType":"uint256","name":"lastRightsClaimTime","type":"uint256"}],"stateMutability":"view","type":"function"},{"inputs":[{"internalType":"address","name":"","type":"address"},{"internalType":"uint256","name":"","type":"uint256"}],"name":"userSubscriptions","outputs":[{"internalType":"uint256","name":"usdcAmount","type":"uint256"},{"internalType":"uint256","name":"dogeAmount","type":"uint256"},{"internalType":"uint256","name":"subscribeTime","type":"uint256"},{"internalType":"bool","name":"isActive","type":"bool"},{"internalType":"bool","name":"hasClaimed","type":"bool"},{"internalType":"bool","name":"hasRefunded","type":"bool"}],"stateMutability":"view","type":"function"},{"inputs":[{"internalType":"uint256","name":"candidateId","type":"uint256"},{"internalType":"uint256","name":"amount","type":"uint256"}],"name":"voteWithRights","outputs":[],"stateMutability":"nonpayable","type":"function"},{"stateMutability":"payable","type":"receive"}],"evm":{"bytecode":{"linkReferences":{},"object":"608034620001f25762006210906001600160401b0390601f38849003908101601f191682019083821183831017620001b35780839160409687948552833981010312620001f2576200005f60206200005783620001f6565b9201620001f6565b9060017f9b779b17422d0df92223018b32b4d1fa46e071723d6817e2486d003becc55f00553315620001db575f8054336001600160a01b031980831682178455946001600160a01b0394909385939192918416907f8be0079c531659141344cd1fd0a4f28419497f9722a3daafe3b4186f6b6457e09080a36201010160a01b62ffffff60a01b196003541617600355600160145560046015551683600154161760015516906002541617600255620151808042049081601255808202908282041482151715620001c75783519260a0840190811184821017620001b3578452825260208201905f1982526002848401935f855260608101935f855260808201935f85525f526018602052865f209151825551600182015501925115159160ff62ff000061ff0086549351151560081b169351151560101b1693169062ffffff191617171790555161600490816200020c8239f35b634e487b7160e01b5f52604160045260245ffd5b634e487b7160e01b5f52601160045260245ffd5b8351631e4fbdf760e01b81525f6004820152602490fd5b5f80fd5b51906001600160a01b0382168203620001f25756fe6101e080604052600436101561001d575b50361561001b575f80fd5b005b5f3560e01c9081630b7d389114613b26575080630d43e8ad14613afe5780630f903ff81461385a57806312c0a32e14613840578063147ff5ea1461382357806315f07276146138005780631631de29146137d7578063168c98aa146137af5780631a65f02a146113cf5780631ca857f1146137855780631d32c2da14611ea657806322754eb31461376857806322d31977146137405780632ae4f0fe1461371d5780632b89eb2c1461054c5780632bb61e20146137005780632cdfa5a2146135385780632dcd7878146122c25780632e4a2f491461340b5780632e569eff1461338557806330a563471461336857806330bff7531461331a5780633282914c146132fe5780633292754c1461238a57806333085903146132d45780633477ee2e146130655780633894228e146130055780633ae9a18e146109975780633b46c2a914612fe95780633c194b0814612fcc5780633ce6027114612f6e5780633f02012c14612e8e57806341cba1b214612e6c57806343c9e53514612e5457806343ff1fb814612e115780634571db5814612d0657806348b7b14814612ce35780634a235eb614612ad65780634af6e91b14612ab95780634b26507514612a9d5780634ff23bb614612a65578063532a89c714612a1d5780635541f0bd146129fb5780635a9d0184146127ef5780635c9302c9146127d25780635e07e877146127aa57806363a495911461278d57806363ce0b281461276857806364452fb31461273f57806364a0c3711461272257806364c5c2a0146126a157806366666aa914612684578063671880831461256857806367d41d621461238f5780636ede970d1461238a578063701b09a01461096f578063715018a61461234657806375dd0989146122c757806377a980f0146122c25780637df8eb191461219957806383a1bc871461217c578063889c3b75146121545780638bdf67f2146120c45780638c2c9ef11461208c5780638da5cb5b146120655780638fc1dd1314611ed857806392a4046514611eab57806393c116a814611ea65780639652364414611e89578063969c79151461162e5780639b396ed2146116135780639e941839146115db578063a04ec53914611430578063a5ac681014611414578063a6e3f189146113f1578063a70b9f0c146113d4578063a75f615b146113cf578063ae3390d11461124e578063aeca825114611232578063b3602acd1461120c578063b3f3985614611075578063b6b385f714610cb8578063b8c6a92914610c35578063b8f7700514610c1b578063bfc6357414610bfe578063c033760414610a63578063c28ce62814610a48578063c94ad98014610a24578063c95d6edc14610997578063c98517c514610974578063cb1c2b5c1461096f578063cc75f7fa1461094a578063ccfc2e8d14610907578063d701de83146108d7578063d727c1a3146108bc578063d764695d14610799578063d96f8d611461077c578063e5c181d614610757578063edf48d3914610579578063eff1d50e14610551578063f03a5b921461054c578063f2fde38b146104dd5763fc4c611114610496575f610010565b346104d95760203660031901126104d9576104af613b40565b6104b7615042565b600380546001600160a01b0319166001600160a01b0392909216919091179055005b5f80fd5b346104d95760203660031901126104d9576104f6613b40565b6104fe615042565b6001600160a01b03908116908115610534575f548260018060a01b03198216175f55165f80516020615f8f8339815191525f80a3005b604051631e4fbdf760e01b81525f6004820152602490fd5b613bed565b346104d9575f3660031901126104d9576001546040516001600160a01b039091168152602090f35b61058236613edc565b909161058f9493946147e0565b600454841015610745576105a284613d61565b5080546001600160a01b0394908516330361073357600c82019460ff86541660078110156106ca576003036107215783841561071a575b8015610713575b6105e9906145b3565b6105f28861478a565b341061070257346106de575b5061060887614482565b9460038810156106ca5760148361065c92610647610667998c60096106629901556106338142614119565b600a8501556106428142614119565b614119565b600b830155805460ff1916905501938461429a565b82614022565b614502565b61067081615541565b156106bc575b6106836040518093614665565b7f2a3a266bc0dc3fc4a4fa960561c5e7df63b322b7231853520b5785075e6728fb60203393a360015f80516020615faf83398151915255005b6106c581614640565b610676565b634e487b7160e01b5f52602160045260245ffd5b5f8080806106fc943490600254165af16106f6614093565b506145fe565b876105fe565b60405162976f7560e21b8152600490fd5b50846105e0565b50816105d9565b60405163083e130160e01b8152600490fd5b604051637d1b73b960e01b8152600490fd5b6040516396c970c760e01b8152600490fd5b346104d9575f3660031901126104d957602060ff60035460b01c166040519015158152f35b346104d9575f3660031901126104d9576020601554604051908152f35b346104d9575f3660031901126104d9576107b16147e0565b6107ba3361488d565b801561088357335f52600a60205260405f205f5b815481101561082a578060ff60056107e860019486613f8b565b500154161580610814575b6107fe575b016107ce565b6108088184613f8b565b506006429101556107f8565b50816108208285613f8b565b50015415156107f3565b82335f52600b60205260405f20610842828254614119565b90556040519081527f4149e37857edc1db51bcca87505c9858b22410e3530284631e663e641faa89e260203392a260015f80516020615faf83398151915255005b60405162461bcd60e51b81526020600482015260116024820152706e6f2070656e64696e672072696768747360781b6044820152606490fd5b346104d9575f3660031901126104d957602060405160068152f35b346104d95760203660031901126104d95760043560038110156104d9576108ff60209161478a565b604051908152f35b346104d95760203660031901126104d957610920613b40565b610928615042565b600280546001600160a01b0319166001600160a01b0392909216919091179055005b346104d9575f3660031901126104d957602060ff60035460a81c166040519015158152f35b613eba565b346104d9575f3660031901126104d9576020604051681043561a88293000008152f35b346104d95760403660031901126104d9576001600160a01b036109b8613b40565b165f90815260096020908152604080832060243584528252918290208054600182015460028301546003909301548551928352938201529283015260ff80821615156060840152600882901c81161515608084015260109190911c16151560a082015260c090f35b0390f35b346104d9575f3660031901126104d957602060405169014542ba12a337c000008152f35b346104d9575f3660031901126104d957602060405160968152f35b346104d957610a7136613ea4565b610a796147e0565b610a866004548310613fa4565b610a9181151561438c565b610a9a33614349565b8111610bc357610aa861520b565b610ab18261535a565b610aba82613d61565b5060ff600c820154169060078210156106ca57610b02827f42bd776809143fac33832dc0546a39e2e7a8d6a2e5d9eafd85ede1d80576c4369315908115610bb8575b50614404565b335f526004602091600c835260405f20610b1d868254614119565b905560078101610b2e868254614119565b905501610b3c848254614119565b9055835f526011815260405f20335f52815260ff60405f20541615610b80575b6040519283523392a3610b6d6148da565b60015f80516020615faf83398151915255005b835f526011815260405f20335f52815260405f20600160ff19825416179055835f5260108152610bb33360405f20614447565b610b5c565b600191501486610afc565b60405162461bcd60e51b8152602060048201526013602482015272696e73756666696369656e742072696768747360681b6044820152606490fd5b346104d9575f3660031901126104d9576020601454604051908152f35b346104d9575f3660031901126104d95760206108ff614777565b346104d95760403660031901126104d957610c4e613b40565b6001600160a01b039081165f908152600a602052604090208054602435908110156104d957610c7c91613f8b565b5090815416610a2060018301549260028101549060ff600382015416600482015490600660ff6005850154169301549360405197889788613cff565b346104d9575f3660031901126104d957610cd06147e0565b610cd861520b565b5f5b60058054821015610d8a57610d0d9060ff600c610cf685613b56565b949054600395861b1c610d088161535a565b613d61565b5001541660078110156106ca5715610d7f57545f19810191908211610d6b57610d38610d5e92613b56565b9054911b1c610d4683613b56565b90919082549060031b91821b915f19901b1916179055565b610d6661557b565b610cda565b634e487b7160e01b5f52601160045260245ffd5b5050610d66906141da565b6012545f5260206018815260405f20600281019160ff9060ff84541661103f578254620151808101809111610d6b574210611009575f19905f945f5b600554811015610e4957610dd981613b56565b90549060031b1c610de98161535a565b85600c610df583613d61565b5001541660078110156106ca571580610e33575b610e17575b50600101610dc6565b9650925060016004610e2888613d61565b500154969390610e0e565b50876004610e4083613d61565b50015411610e09565b50826001865f198314158981610fff575b50610f8f575b0155805460ff1981166001178083556003546001600160a01b0393929190841615159081610f79575b81610f6a575b50610ecb575b847ffc1ab2f07e0d89eb63ae0626ebdd0e00e2497fc8db2f3a10a4fea7588c71c6b98560125492604051908152a2610b6d6148da565b61ffff1916610101179055600f54678ac7230489e7ffff198101908111610d6b57600f55600354166040519063a9059cbb60e01b5f5233600452678ac7230489e80000602452825f60448180855af160015f5114811615610f4b575b8260405215610f365780610e95565b635274afe760e01b8252600482015260249150fd5b6001811516610f6157813b15153d151616610f27565b823d5f823e3d90fd5b60ff915060081c161586610e8f565b9050678ac7230489e80000600f54101590610e89565b600c610f9a84613d61565b5001805460ff19166005179055610fb083613d61565b50601342910155827f18c22795ad314fd0401dda1b801b24e2513f22906ea99c7bc18fe27809d4dfc586610fe383613d61565b50600c868060a01b0391015460101c16604051908152a2610e60565b9050151587610e5a565b6064906040519062461bcd60e51b82526004820152600f60248201526e195c1bd8da081b9bdd08195b991959608a1b6044820152fd5b6064906040519062461bcd60e51b82526004820152600f60248201526e185b1c9958591e481cd95d1d1b1959608a1b6044820152fd5b346104d9575f3660031901126104d9575f80600454905b8181106111ce575061109d826141ff565b906110a783614231565b6110b96110b3856141ff565b946141ff565b915f805b828110611112576110e886610a20876111048b6110f68a604051978897608089526080890190613c08565b908782036020890152613c79565b908582036040870152613c08565b908382036060850152613f4f565b60ff600c61111f83613d61565b5001541660078110156106ca5760031461113c575b6001016110bd565b906111c6818361114e6001948a61427a565b528261117461115c86613d61565b5061116d6040518094819301613db5565b0382613e74565b61117e828861427a565b52611189818761427a565b50600b61119585613d61565b5001546111a2828b61427a565b526111ac84613d61565b50838060a01b039054166111c0828961427a565b526141da565b919050611134565b60ff600c6111db83613d61565b5001541660078110156106ca576003146111f8575b60010161108c565b916112046001916141da565b9290506111f0565b346104d9575f3660031901126104d957604051676765c793fa10079d601b1b8152602090f35b346104d9575f3660031901126104d95760206040516127108152f35b346104d9575f3660031901126104d9576004545f805b8281106113915750611275816141ff565b9061127f81614231565b61129161128b83614231565b92614231565b935f805b8281106112dc576110e886610a20896112ce896112c08a604051978897608089526080890190613c08565b908582036040870152613c79565b908382036060850152613c79565b60ff600c6112e983613d61565b5001541660078110156106ca57600414611306575b600101611295565b9061138981836113186001948a61427a565b528261132661115c86613d61565b611330828861427a565b5261133b818761427a565b50600261134a61115c86613d61565b611354828961427a565b5261135f818861427a565b50600361136e61115c86613d61565b611378828b61427a565b52611383818a61427a565b506141da565b9190506112fe565b60ff600c61139e83613d61565b5001541660078110156106ca576004146113bb575b600101611264565b906113c76001916141da565b9190506113b3565b613baf565b346104d9575f3660031901126104d9576020604051620151808152f35b346104d95760203660031901126104d95760206108ff61140f613b40565b614746565b346104d9575f3660031901126104d95760206040516103e88152f35b346104d9576020806003193601126104d9576001600160a01b039081611454613b40565b1690815f52600a80825260405f205461146c816141ff565b94611476826141ff565b61147f836141ff565b91611489846141ff565b93611493816141ff565b9561149d826141ff565b985f5b83811061154757506114d28b8b8b6115098c6114fb8d6114ed8e6114df8f6040519b8c9b60c08d5260c08d0190613f4f565b908b82038a8d0152613c08565b9089820360408b0152613c08565b908782036060890152613c08565b908582036080870152613c08565b83810360a08501528180845192838152019301915f5b82811061152e57505050500390f35b835115158552869550938101939281019260010161151f565b815f52828a5261155a8160405f20613f8b565b50908c61156b82888554169261427a565b52600182015461157b828961427a565b52600282015461158b828a61427a565b5260ff8060038401541660048110156106ca57828e9260056001968f8f956115b6866115d09861427a565b526115c68560048401549261427a565b520154169261427a565b9015159052016114a0565b346104d95760203660031901126104d9576001600160a01b036115fc613b40565b165f52600c602052602060405f2054604051908152f35b346104d9575f3660031901126104d957602060405160c88152f35b60e03660031901126104d9576004356001600160401b0381116104d957611659903690600401613f22565b906024356001600160401b0381116104d957611679903690600401613f22565b90916044356001600160401b0381116104d95761169a903690600401613f22565b600360643510156104d9576084351515608435036104d95760a435151560a435036104d95760c435151560c435036104d9576116d46147e0565b6116df60643561478a565b34106107025785151580611e7e575b15611e4a57600184101580611e3f575b15611e09576084358015611e00575b8015611df7575b61171d906145b3565b61172561520b565b34611dd5575b611736606435614482565b61174e6117438242614119565b916106428142614119565b604051939092906001600160401b03610320860190811190861117611c1c576117a3916103208601604052338652611787368b896146c9565b602087015261179736898b6146c9565b604087015236916146c9565b60608401525f60808401525f60a08401525f60c08401525f60e0840152426101008401526064356101208401526101408301526101608201525f6101808201525f6101a08201525f6101c08201525f6101e08201525f6102008201525f6102208201525f6102408201525f6102608201525f6102808201525f6102a082015260843515156102c082015260a43515156102e082015260c4351515610300820152600454600160401b811015611c1c578060016118629201600455613d61565b919091611dc257805182546001600160a01b0319166001600160a01b039190911617825560208101518051906001600160401b038211611c1c5781906118ab6001860154613d7d565b601f8111611d72575b50602090601f8311600114611d04575f92611cf9575b50508160011b915f199060031b1c19161760018301555b60408101518051906001600160401b038211611c1c5781906119066002860154613d7d565b601f8111611ca9575b50602090601f8311600114611c3b575f92611c30575b50508160011b915f199060031b1c19161760028301555b60608101518051906001600160401b038211611c1c5781906119616003860154613d7d565b601f8111611bcc575b50602090601f8311600114611b5e575f92611b53575b50508160011b915f199060031b1c19161760038301555b6080810151600483015560a0810151600583015560c0810151600683015560e0810151600783015561010081015160088301556101208101516009830155610140810151600a830155610160810151600b830155600c82016101808201519060078210156106ca57611aba93611a3f6014926103009460ff80198354169116178155611a2a6101a0870151151582614022565b6101c08601516001600160a01b0316906146ff565b6101e0840151600d820155610200840151600e820155610220840151600f8201556102408401516010820155610260840151601182015561028084015160128201556102a084015160138201550191611a9f6102c082015115158461429a565b611ab06102e0820151151584614022565b0151151590614502565b6004545f199390848101908111610d6b57611ad490614640565b600454938401938411610d6b577fb4b263aacba851bdb25f2b7f384d8cc2c9ae8b1ba670c2c075242de4803e2e7792611b1c611b2a9360405197606089526060890191614726565b918683036020880152614726565b92611b3a60408201606435614665565b8033940390a360015f80516020615faf83398151915255005b015190508880611980565b9250600385015f5260205f20905f935b601f1984168510611bb1576001945083601f19811610611b99575b505050811b016003830155611997565b01515f1960f88460031b161c19169055888080611b89565b81810151835560209485019460019093019290910190611b6e565b909150600385015f5260205f20601f840160051c810160208510611c15575b90849392915b601f830160051c82018110611c0757505061196a565b5f8155859450600101611bf1565b5080611beb565b634e487b7160e01b5f52604160045260245ffd5b015190508880611925565b9250600285015f5260205f20905f935b601f1984168510611c8e576001945083601f19811610611c76575b505050811b01600283015561193c565b01515f1960f88460031b161c19169055888080611c66565b81810151835560209485019460019093019290910190611c4b565b909150600285015f5260205f20601f840160051c810160208510611cf2575b90849392915b601f830160051c82018110611ce457505061190f565b5f8155859450600101611cce565b5080611cc8565b0151905088806118ca565b9250600185015f5260205f20905f935b601f1984168510611d57576001945083601f19811610611d3f575b505050811b0160018301556118e1565b01515f1960f88460031b161c19169055888080611d2f565b81810151835560209485019460019093019290910190611d14565b909150600185015f5260205f20601f840160051c810160208510611dbb575b90849392915b601f830160051c82018110611dad5750506118b4565b5f8155859450600101611d97565b5080611d91565b634e487b7160e01b5f525f60045260245ffd5b611df25f8080803460018060a01b03600254165af16106f6614093565b61172b565b5060c435611714565b5060a43561170d565b60405162461bcd60e51b815260206004820152600e60248201526d1a5b9d985b1a59081cde5b589bdb60921b6044820152606490fd5b50600b8411156116fe565b60405162461bcd60e51b815260206004820152600c60248201526b696e76616c6964206e616d6560a01b6044820152606490fd5b5060408611156116ee565b346104d9575f3660031901126104d9576020600754604051908152f35b613bca565b346104d95760203660031901126104d9576020611ec9600435614672565b611ed66040518092613e97565bf35b611ee136613edc565b9091611eee9493946147e0565b60045484101561074557611f0184613d61565b50600c81019360ff85541660078110156106ca576004036120535782831561204c575b8015612045575b611f34906145b3565b611f3d8761478a565b34106107025734612023575b611f5287614482565b82546001600160a01b031916331783559460038810156106ca5760148361065c92611f93611fc0998c60096106629901554260088501556106338142614119565b600b8301555f60048301555f60058301555f60068301555f600783015560ff19815416905501938461429a565b611fc981615541565b15612015575b611fdc6040518093614665565b7fca784b215e9ed8b39bd99320e31c5f22f970965a1ab7485768d5aa78cfce318c60203393a360015f80516020615faf83398151915255005b61201e81614640565b611fcf565b6120405f8080803460018060a01b03600254165af16106f6614093565b611f49565b5083611f2b565b5080611f24565b60405163e24d8aaf60e01b8152600490fd5b346104d9575f3660031901126104d9575f546040516001600160a01b039091168152602090f35b346104d95760203660031901126104d9576001600160a01b036120ad613b40565b165f52600b602052602060405f2054604051908152f35b346104d95760203660031901126104d9576004356120e06147e0565b6003546121069082906001600160a01b03166120fd81151561451c565b309033906154d7565b61211281600f54614119565b600f556040519081527fb8b27d0db504fa5d914f1fd330347096e88d5ff94b6c612d32797e7c12a8f66f60203392a260015f80516020615faf83398151915255005b346104d95760203660031901126104d95760043560048110156104d9576108ff60209161455d565b346104d9575f3660031901126104d9576020600e54604051908152f35b346104d95760403660031901126104d95760043560243560048110156104d9576121c16147e0565b6121cc82151561438c565b6003546001600160a01b0391612277916121ef90859085166120fd81151561451c565b806122aa575f925b335f52600a60205261224e60405f20948554958360035416916040519261221d84613e46565b8352886020840152426040840152612238866060850161428e565b60808301525f60a08301524260c08301526142ab565b61225a85600e54614119565b600e55600354169360405194855260208501526040840190613cf2565b60608201527fa39f1a52e5f1fe5d69cdb40252b07509e684f4ea2c5596791ff7564d21e859b460803392a2610b6d6148da565b6122bc6122b68261455d565b42614119565b926121f7565b613cd5565b346104d95760203660031901126104d9576004356122e3615042565b60018110158061233b575b156122f857601455005b60405162461bcd60e51b815260206004820152601b60248201527a696e76616c6964206d6178206c61756e636873207065722064617960281b6044820152606490fd5b5060038111156122ee565b346104d9575f3660031901126104d95761235e615042565b5f80546001600160a01b0319811682556001600160a01b03165f80516020615f8f8339815191528280a3005b613d3f565b346104d9576020806003193601126104d957600435906123ad6147e0565b6123ba6004548310613fa4565b6123c38261535a565b600c6123ce83613d61565b50015460ff8116600781101590816106ca576002811491821561255b575b821561254a575b5050156125175760081c60ff166124e457335f526009815260405f20825f52815260405f2060038101805461242a60ff8216613fe4565b60ff8160101c166124ac5762ff00ff19166201000017905554905f908261248e575b6040519283528201527f091380d7a866e5f3f1be944f956d899f223e73d0e00a72070911ff812cec647660403392a360015f80516020615faf83398151915255005b6124a78280808087335af16124a1614093565b506143c6565b61244c565b60405162461bcd60e51b815260048101859052601060248201526f185b1c9958591e481c99599d5b99195960821b6044820152606490fd5b6064906040519062461bcd60e51b82526004820152600c60248201526b1dd85cc81b185d5b98da195960a21b6044820152fd5b60405162461bcd60e51b815260048101839052600b60248201526a1b9bdd08195e1c1a5c995960aa1b6044820152606490fd5b9091506106ca5760041484806123f3565b506003811491505f6123ec565b346104d95760203660031901126104d9576004356125846147e0565b6125916004548210613fa4565b61259a81613d61565b5080546001600160a01b031633036126505760ff600c8201541660078110156106ca576801158e460913d00000916125d4600592156144c9565b015410612612576125e481615417565b33907f6b1e5a8a4a9ec3960f3a4602ac75cd6dcaea90d17a82bf5f0fd007a97ad507c65f80a3610b6d6148da565b60405162461bcd60e51b815260206004820152601660248201527518995b1bddc81b185d5b98da081d1a1c995cda1bdb1960521b6044820152606490fd5b60405162461bcd60e51b815260206004820152600c60248201526b3737ba10383937b837b9b2b960a11b6044820152606490fd5b346104d9575f3660031901126104d9576020600f54604051908152f35b346104d95760203660031901126104d9576007546004356126c28183614119565b60065411156126ed576126da6126df91602093614119565b613b82565b90546040519160031b1c8152f35b60405162461bcd60e51b815260206004820152600d60248201526c6f7574206f6620626f756e647360981b6044820152606490fd5b346104d9575f3660031901126104d9576020601654604051908152f35b346104d95760203660031901126104d9576004356006548110156104d9576126df602091613b82565b346104d9575f3660031901126104d957602060ff60035460a01c166040519015158152f35b346104d9575f3660031901126104d9576020601354604051908152f35b346104d95760203660031901126104d95760043560038110156104d9576108ff602091614482565b346104d9575f3660031901126104d9576020601254604051908152f35b6020806003193601126104d957600435906128086147e0565b6128156004548310613fa4565b670de0b6b3a764000034106129c15761282c61520b565b6128358261535a565b61283e82613d61565b5090600c820160ff81541660078110156106ca57806128659115908115610bb85750614404565b612710803402903482041434151715610d6b5760ff9268056bc75e2d63100000869204335f526009825260405f20835f528252600360405f206128a9348254614119565b815542600282015501851990600182825416179055835f526011835260405f20335f5283528560405f2054161561298a575b50600760058701966128ee348954614119565b80985560048101612900848254614119565b90550161290e828254614119565b90555f6040519234845283015260408201527f9542af2e322bd6c92465b36fb8f408f061d0a277dfefd940840f1f348e00147460603392a3541660078110156106ca57159081612976575b50612967575b610b6d6148da565b61297090615417565b8061295f565b6801158e460913d000009150101582612959565b835f526011835260405f20335f528352600160405f2091825416179055825f52601082526129bb3360405f20614447565b876128db565b6064906040519062461bcd60e51b82526004820152601360248201527262656c6f77206d696e2073756273637269626560681b6044820152fd5b346104d9575f3660031901126104d9576020604051678ac7230489e800008152f35b346104d957612a2b36613ea4565b905f52601060205260405f2080548210156104d957602091612a4c91613b9a565b905460405160039290921b1c6001600160a01b03168152f35b346104d95760203660031901126104d9576001600160a01b03612a86613b40565b165f52600a602052602060405f2054604051908152f35b346104d9575f3660031901126104d95760206040516101f48152f35b346104d9575f3660031901126104d95760206040516276a7008152f35b346104d9576020806003193601126104d95760043590612af46147e0565b335f52600a815260405f2054821015612cac57335f52600a8152612b1b8260405f20613f8b565b506005810160ff815416612c73576001820190612b3a8254151561438c565b600483015480612c34575b50612b4f836150ad565b80612c16575b50805460ff1916600117905554905490916001600160a01b039182169182612be15750612b8483600d5461406b565b600d55612b9a5f80808087335af16124a1614093565b60405193845283015260408201527f31afc885c1072f7b78bed205f5e5db4d16b4aab433352079e8388eef35dabf0d60603392a260015f80516020615faf83398151915255005b6003541683818414612bf5575b5050612b9a565b612c0f91612c0582600e5461406b565b600e55339061480f565b8483612bee565b335f52600b8552612c2c60405f20918254614119565b905585612b55565b4210612c405785612b45565b60405162461bcd60e51b815260048101859052600b60248201526a1b9bdd081b585d1d5c995960aa1b6044820152606490fd5b60405162461bcd60e51b815260048101849052601160248201527030b63932b0b23c903bb4ba34323930bbb760791b6044820152606490fd5b6064906040519062461bcd60e51b82526004820152601060248201526f34b73b30b634b2103837b9b4ba34b7b760811b6044820152fd5b346104d95760203660031901126104d95760206108ff612d01613b40565b614349565b346104d9575f3660031901126104d957600654612d26600754809261406b565b90612d30826141ff565b90612d3a83614231565b612d4384614231565b93612d4d816141ff565b925f5b828110612d89576110e886610a2087612d7b8b6112c08a604051978897608089526080890190613c08565b908382036060850152613c08565b806012612dfd612d9e6126da60019587614119565b90549060031b1c80612db0858c61427a565b5284612dbe61115c83613d61565b612dc8858a61427a565b52612dd3848961427a565b506002612de261115c83613d61565b612dec858d61427a565b52612df7848c61427a565b50613d61565b500154612e0a828861427a565b5201612d50565b346104d95760203660031901126104d957612e2a613b40565b612e32615042565b600180546001600160a01b0319166001600160a01b0392909216919091179055005b346104d9575f3660031901126104d95761295f6147e0565b346104d9575f3660031901126104d95760206040516706f05b59d3b200008152f35b346104d95760603660031901126104d95760043580158015918281036104d95760243591821515928381036104d95760443590811515938483036104d957612ed4615042565b92612f66575b508115612f5e575b5015612f20576003549060ff60b01b9060b01b169260ff60a01b9060a01b169062ffffff60a01b1916179060ff60a81b9060a81b1617176003555f80f35b60405162461bcd60e51b81526020600482015260166024820152756d7573742063686f6f7365206174206c65617374203160501b6044820152606490fd5b905084612ee2565b915085612eda565b346104d95760203660031901126104d957600435612f8a615042565b6018811015612f9857601555005b60405162461bcd60e51b815260206004820152600c60248201526b34b73b30b634b2103437bab960a11b6044820152606490fd5b346104d9575f3660031901126104d957602060405162ed4e008152f35b346104d9575f3660031901126104d957602060405161012c8152f35b346104d95760203660031901126104d9576004355f52601860205260a060405f2060ff8154916002600182015491015490604051938452602084015281811615156040840152818160081c161515606084015260101c1615156080820152f35b346104d95760203660031901126104d9576004356004548110156104d95761308c90613d61565b5080546040516101408190526001600160a01b0390911691906130b28160018401613db5565b0361014051906130c191613e74565b6040516101608190526130d78160028401613db5565b0361016051906130e691613e74565b6040516101808190526130fc8160038401613db5565b03610180519061310b91613e74565b6004810154610120526005810154916006820154600783015460088401546009850154600a860154600b87015491600c88015493600d89015495600e8a015497600f8b01549960108c01549b6011810154608052601281015460a052601381015460e052601401546101005260405160c0526103209060c051528060c0516020015260c05101610140519061319f91613c3b565b60c051810360c0516040015261016051906131b991613c3b565b60c051810360c0516060015261018051906131d391613c3b565b9b6101205160c0516080015260c05160a0015260c05160c0015260c05160e0015260c051610100015260c051610120015260c051610140015260c051610160015260c0516101800160ff82169061322991613e97565b8060081c60ff16151560c0516101a00152600160a01b600190039060101c1660c0516101c0015260c0516101e0015260c051610200015260c051610220015260c051610240015260805160c051610260015260a05160c051610280015260e05160c0516102a001526101005160ff16151560c0516102c001526101005160081c60ff16151560c0516102e001526101005160101c60ff16151560c051610300015260c051900360c051f35b346104d95760203660031901126104d9576004355f526017602052602060405f2054604051908152f35b346104d9575f3660031901126104d95760206040516102588152f35b346104d95760403660031901126104d9576024356001600160a01b038116908190036104d9576004355f52601160205260405f20905f52602052602060ff60405f2054166040519015158152f35b346104d9575f3660031901126104d9576020600454604051908152f35b346104d95760403660031901126104d95761339e613b40565b6001600160a01b039081165f818152600a6020526040902054602435908110156133d657610c7c915f52600a60205260405f20613f8b565b60405162461bcd60e51b815260206004820152600d60248201526c0d2dcecc2d8d2c840d2dcc8caf609b1b6044820152606490fd5b6020806003193601126104d95760043560048110156104d95761342c6147e0565b67016345785d8a0000341061350157681043561a882930000034116134ca57806134b5576122775f915b335f52600a845261349060405f20938454946040519161347583613e46565b5f83523488840152426040840152612238856060850161428e565b61349c34600d54614119565b600d55604051935f855234908501526040840190613cf2565b6122776134c46122b68361455d565b91613456565b60405162461bcd60e51b815260048101839052600f60248201526e61626f7665206d6178207374616b6560881b6044820152606490fd5b60405162461bcd60e51b815260048101839052600f60248201526e62656c6f77206d696e207374616b6560881b6044820152606490fd5b346104d9575f3660031901126104d9575f80600454905b8181106136c45750613560826141ff565b9061356a83614231565b61357384614231565b61357c856141ff565b9161358f613589876141ff565b966141ff565b935f805b8281106135f0576135c688610a20896135e28d6114fb8c6114ed8d6135d48e6040519b8c9b60c08d5260c08d0190613c08565b908b820360208d0152613c79565b9089820360408b0152613c79565b9083820360a0850152613c08565b60ff600c6135fd83613d61565b5001541660078110156106ca5715613618575b600101613593565b906136bc818361362a6001948c61427a565b528261363861115c86613d61565b613642828861427a565b5261364d818761427a565b50600261365c61115c86613d61565b613666828961427a565b52613671818861427a565b50600461367d85613d61565b50015461368a828a61427a565b52600561369685613d61565b5001546136a3828d61427a565b5260066136af85613d61565b5001546111c0828b61427a565b919050613610565b60ff600c6136d183613d61565b5001541660078110156106ca57156136ec575b60010161354f565b916136f86001916141da565b9290506136e4565b346104d9575f3660031901126104d9576020600d54604051908152f35b346104d9575f3660031901126104d957602060405168056bc75e2d631000008152f35b346104d9575f3660031901126104d9576003546040516001600160a01b039091168152602090f35b346104d9575f3660031901126104d95760206040516203f4808152f35b346104d95760203660031901126104d9576004355f526008602052602060405f2054604051908152f35b346104d95760203660031901126104d95760043560048110156104d9576108ff60209161417f565b346104d95760203660031901126104d9576004356005548110156104d9576126df602091613b56565b346104d95760203660031901126104d95760206108ff61381e613b40565b61488d565b346104d9575f3660031901126104d957602060405162093a808152f35b346104d9575f3660031901126104d95760206108ff614126565b346104d9576020806003193601126104d957600435906138786147e0565b6138856004548310613fa4565b61388e82613d61565b50600c810180549160ff8360081c1615613aca576001600160a01b039260101c831615613a9a57335f526009845260405f20855f52845260405f20906003820180546138dc60ff8216613fe4565b60ff8160081c16613a63576101009061ff001916179055815494600f820195865480151580613a56575b613a1f575b50600e8301549182156139ee5750916139465f80516020615f6f8339815191529694926139416139739795600d8501549061403a565b61404d565b96876139d8575b54801515806139ce575b613989575b5050505460101c16926040519182913395836140fe565b0390a360015f80516020615faf83398151915255005b6139996005916139a2945461403a565b9101549061404d565b806139af575b808061395c565b5f8080806139c894335af16139c2614093565b506140c2565b866139a8565b5082541515613957565b6139e9883387875460101c1661480f565b61394d565b6064906040519062461bcd60e51b82526004820152600a6024820152691e995c9bc81d1bdd185b60b21b6044820152fd5b613a2c613a37918361403a565b60058501549061404d565b80821115613a4e57613a489161406b565b8861390b565b50505f613a48565b5060058401541515613906565b60405162461bcd60e51b815260048101889052600f60248201526e185b1c9958591e4818db185a5b5959608a1b6044820152606490fd5b60405162461bcd60e51b81526004810185905260086024820152673737903a37b5b2b760c11b6044820152606490fd5b60405162461bcd60e51b815260048101859052600c60248201526b1b9bdd081b185d5b98da195960a21b6044820152606490fd5b346104d9575f3660031901126104d9576002546040516001600160a01b039091168152602090f35b346104d9575f3660031901126104d9578061708060209252f35b600435906001600160a01b03821682036104d957565b600554811015613b6e5760055f5260205f2001905f90565b634e487b7160e01b5f52603260045260245ffd5b600654811015613b6e5760065f5260205f2001905f90565b8054821015613b6e575f5260205f2001905f90565b346104d9575f3660031901126104d957602060405160648152f35b346104d9575f3660031901126104d95760206040516801158e460913d000008152f35b346104d9575f3660031901126104d957602060405160038152f35b9081518082526020808093019301915f5b828110613c27575050505090565b835185529381019392810192600101613c19565b91908251928382525f5b848110613c65575050825f602080949584010152601f8019910116010190565b602081830181015184830182015201613c45565b90808251908181526020809101926020808460051b8301019501935f915b848310613ca75750505050505090565b9091929394958480613cc5600193601f198682030187528a51613c3b565b9801930193019194939290613c97565b346104d9575f3660031901126104d957602060405162278d008152f35b9060048210156106ca5752565b93613d2f919897969360c0969360e087019a60018060a01b03168752602087015260408601526060850190613cf2565b6080830152151560a08201520152565b346104d9575f3660031901126104d9576020604051670de0b6b3a76400008152f35b600454811015613b6e5760045f52601560205f20910201905f90565b90600182811c92168015613dab575b6020831014613d9757565b634e487b7160e01b5f52602260045260245ffd5b91607f1691613d8c565b80545f9392613dc382613d7d565b918282526020936001916001811690815f14613e275750600114613de9575b5050505050565b90939495505f92919252835f2092845f945b838610613e1357505050500101905f80808080613de2565b805485870183015294019385908201613dfb565b60ff19168685015250505090151560051b010191505f80808080613de2565b60e081019081106001600160401b03821117611c1c57604052565b6001600160401b038111611c1c57604052565b601f909101601f19168101906001600160401b03821190821017611c1c57604052565b9060078210156106ca5752565b60409060031901126104d9576004359060243590565b346104d9575f3660031901126104d957602060405167016345785d8a00008152f35b60a09060031901126104d9576004359060243560038110156104d9579060443580151581036104d9579060643580151581036104d9579060843580151581036104d95790565b9181601f840112156104d9578235916001600160401b0383116104d957602083818601950101116104d957565b9081518082526020808093019301915f5b828110613f6e575050505090565b83516001600160a01b031685529381019392810192600101613f60565b8054821015613b6e575f52600760205f20910201905f90565b15613fab57565b60405162461bcd60e51b8152602060048201526011602482015270696e76616c69642063616e64696461746560781b6044820152606490fd5b15613feb57565b60405162461bcd60e51b815260206004820152600f60248201526e37379039bab139b1b934b83a34b7b760891b6044820152606490fd5b9061ff00825491151560081b169061ff001916179055565b81810292918115918404141715610d6b57565b8115614057570490565b634e487b7160e01b5f52601260045260245ffd5b91908203918211610d6b57565b6001600160401b038111611c1c57601f01601f191660200190565b3d156140bd573d906140a482614078565b916140b26040519384613e74565b82523d5f602084013e565b606090565b156140c957565b60405162461bcd60e51b815260206004820152600d60248201526c1c99599d5b990819985a5b1959609a1b6044820152606490fd5b6001600160a01b039091168152602081019190915260400190565b91908201809211610d6b57565b6012545f52601860205260405f2054620151808101809111610d6b57804210156141585761415590429061406b565b90565b505f90565b6060906020815260076020820152661a5b9d985b1a5960ca1b60408201520190565b60048110156106ca5780156141d457600181146141ce57600281146141c8576003146141c25760405162461bcd60e51b8152806141be6004820161415d565b0390fd5b61012c90565b5060c890565b50609690565b50606490565b5f198114610d6b5760010190565b6001600160401b038111611c1c5760051b60200190565b90614209826141e8565b6142166040519182613e74565b8281528092614227601f19916141e8565b0190602036910137565b9061423b826141e8565b6142486040519182613e74565b8281528092614259601f19916141e8565b01905f5b82811061426957505050565b80606060208093850101520161425d565b8051821015613b6e5760209160051b010190565b60048210156106ca5752565b9060ff801983541691151516179055565b8054600160401b811015611c1c576142c891600182018155613f8b565b919091611dc257805182546001600160a01b0319166001600160a01b039190911617825560208101516001830155604081015160028301556060810151600383019160048210156106ca5760069260c09260ff801983541691161790556080810151600485015561434260a082015115156005860161429a565b0151910155565b6001600160a01b03165f818152600b60205260409020546143699061506d565b905f52600c60205260405f20548082116143835750505f90565b6141559161406b565b1561439357565b60405162461bcd60e51b815260206004820152600b60248201526a1e995c9bc8185b5bdd5b9d60aa1b6044820152606490fd5b156143cd57565b60405162461bcd60e51b815260206004820152600f60248201526e1d1c985b9cd9995c8819985a5b1959608a1b6044820152606490fd5b1561440b57565b60405162461bcd60e51b81526020600482015260146024820152731b9bdd081858dd1a5d99481bdc881c5d595d595960621b6044820152606490fd5b8054600160401b811015611c1c5761446491600182018155613b9a565b60018060a09493941b038084549260031b9316831b921b1916179055565b60038110156106ca5780156144c157600181146144b9576002146144b25760405163aa20e77560e01b8152600490fd5b62278d0090565b5062093a8090565b506203f48090565b156144d057565b60405162461bcd60e51b815260206004820152600a6024820152696e6f742061637469766560b01b6044820152606490fd5b9062ff0000825491151560101b169062ff00001916179055565b1561452357565b60405162461bcd60e51b8152602060048201526012602482015271191bd9d9481d1bdad95b881b9bdd081cd95d60721b6044820152606490fd5b60048110156106ca57801561415857600181146145ab57600281146145a35760031461459c5760405162461bcd60e51b8152806141be6004820161415d565b62ed4e0090565b506276a70090565b5062278d0090565b156145ba57565b606460405162461bcd60e51b815260206004820152602060248201527f6d7573742063686f6f7365206174206c65617374203120696e63656e746976656044820152fd5b1561460557565b60405162461bcd60e51b8152602060048201526013602482015272199959481d1c985b9cd9995c8819985a5b1959606a1b6044820152606490fd5b60055490600160401b821015611c1c57610d468260016146639401600555613b56565b565b9060038210156106ca5752565b61468390610d086004548210613fa4565b5060ff600c820154169060078210156106ca578115806146bc575b6146a6575090565b600b9150015442116146b757600390565b600490565b50600a810154421161469e565b9291926146d582614078565b916146e36040519384613e74565b8294818452818301116104d9578281602093845f960137010152565b805462010000600160b01b03191660109290921b62010000600160b01b0316919091179055565b908060209392818452848401375f828201840152601f01601f1916010190565b61436961477260018060a01b03831692835f52600b60205261476c60405f20549161488d565b90614119565b61506d565b6006546007548082116143835750505f90565b60038110156106ca5780156147d357600181146147c6576002146147ba5760405163aa20e77560e01b8152600490fd5b670de0b6b3a764000090565b506706f05b59d3b2000090565b5067016345785d8a000090565b5f80516020615faf83398151915260028154146147fd5760029055565b604051633ee5aeb560e01b8152600490fd5b60405163a9059cbb60e01b5f9081526001600160a01b039384166004526024949094529260209060448180855af160015f511481161561486e575b836040521561485857505050565b635274afe760e01b835216600482015260249150fd5b600181151661488457813b15153d15161661484a565b833d5f823e3d90fd5b6001600160a01b03165f908152600a60205260408120805482915b8183106148b55750505090565b9091926148d160019161476c6148cb8786613f8b565b506150ad565b930191906148a8565b62015180908142045f52601760205260405f2054601454111561503e57601554610e10834206041061503e5761490e6155b9565b5f915b6014548084109081615026575b501561501e575b60078054600654811080614fec575b1561494957614942906141da565b9055614925565b5050916007546006549081811015614f0157809161496682613b82565b90549060031b1c5f52600860205260405f20549060018301808411610d6b575b818110614e9057505050808203614e55575b50506149a5600754613b82565b90549060031b1c906149b682613d61565b50918442046013558442045f52601760205260405f206149d681546141da565b90555f602060018060a01b03600154166014860154906040518094818094637e2a32ef60e11b8252610120600483015260ff614a598c6003614a36614a22610124880160018501613db5565b821988820301602489015260028401613db5565b676765c793fa10079d601b1b604488015286810382190160648801529101613db5565b913060848501528460a4850152818116151560c4850152818160081c16151560e485015260101c16151561010483015203925af1908115614d69575f91614e13575b506001600160a01b0381163b156104d95760405163306892cf60e11b81523060048201525f81602481836001600160a01b0387165af18015614d6957614e04575b506001600160a01b0381163b156104d957604051637ac1c9a160e11b81523060048201525f81602481836001600160a01b0387165af18015614d6957614df5575b505f936005810154915f916801158e460913d000008411614dc1575b83151580614db7575b614c63575b600e8101849055600f81018390556003548791600d916001600160a01b03811615614c45575b50614b8884600c830161010661ffff198254161781556146ff565b0155614b978287858488615638565b6001546001600160a01b031691823b156104d957614c30967f37a15ad6422bd0641fc4188d5b385eac92d644ea1a48795b158b196d52423818945f80608096602460405180948193639c8b121760e01b835260018060a01b038b1660048401525af1614c36575b50614c0a6007546141da565b6007556040519360018060a01b03168452602084015260408301526060820152a26141da565b91614911565b614c3f90613e61565b5f614bfe565b6001600160a01b0319166001600160a01b038516176003555f614b6d565b6040516370a0823160e01b815230600482015296506020876024816001600160a01b0386165afa968715614d69575f97614d83575b506001546001600160a01b0316803b156104d957604051636db0e3b760e11b81526001600160a01b03841660048201525f6024820181905230604483015290918290606490829089905af18015614d6957614d74575b506040516370a0823160e01b81523060048201526020816024816001600160a01b0387165afa908115614d69575f91614d36575b50600d97614d2f9161406b565b9650614b47565b90506020813d602011614d61575b81614d5160209383613e74565b810103126104d95751600d614d22565b3d9150614d44565b6040513d5f823e3d90fd5b614d7d90613e61565b5f614cee565b9096506020813d602011614daf575b81614d9f60209383613e74565b810103126104d95751955f614c98565b3d9150614d92565b5083471015614b42565b92809192506801158e460913cfffff19810111610d6b576801158e460913cfffff1901906801158e460913d0000092614b39565b614dfe90613e61565b5f614b1d565b614e0d90613e61565b5f614adc565b90506020813d602011614e4d575b81614e2e60209383613e74565b810103126104d957516001600160a01b03811681036104d9575f614a9b565b3d9150614e21565b610d46614e89926126da614e6884613b82565b90549060031b1c93610d46614e7c84613b82565b90549060031b1c91613b82565b5f80614998565b614e9981613b82565b90549060031b1c60ff600c614ead83613d61565b5001541660078110156106ca5760011480614eec575b614ed1575b50600101614986565b91925093505f52600860205260405f20549060018490614ec8565b50805f5260086020528360405f205411614ec3565b50505090505b6012545f9081526018602052604090206003546001600160a01b0391908216151580614fd7575b80614fc5575b614f3c575050565b600201805462ff0000191662010000179055600f546801158e460913cfffff198101908111610d6b57600f55600354166040519063a9059cbb60e01b5f52336004526801158e460913d0000060245260205f60448180855af160015f5114811615614faf575b8260405215610f36575050565b6001811516610f6157813b15153d151616614fa2565b5060ff600282015460101c1615614f34565b506801158e460913d00000600f541015614f2e565b5060ff600c615009614ffd84613b82565b90549060031b1c613d61565b50015416828110156106ca5760011415614934565b509050614f07565b90508142045f52601760205260405f2054105f61491e565b9050565b5f546001600160a01b0316330361505557565b60405163118cdaa760e01b8152336004820152602490fd5b6101f490818111156150a8576101f319810190808211610d6b578183029183830403610d6b5761509c9161404d565b8101809111610d6b5790565b905090565b60ff60058201541680156151ff575b6141585780546150d4906001600160a01b0316615b47565b906150e560ff60038301541661417f565b915f926004830154801515806151f6575b156151a757617080918261510e60068701548461406b565b0480615177575b5050615121904261406b565b04918261512f575b50505090565b61514592600161514092015461403a565b61403a565b90606482029180830460641490151715610d6b5769014542ba12a337c0000061516f920490614119565b5f8080615129565b61512192965069014542ba12a337c00000916151408661514061519e9460018b015461403a565b0494905f615115565b50916170806151ba60068301544261406b565b0490816151c9575b5050505090565b69014542ba12a337c000009450916151406151409260016151ec9695015461403a565b045f8080806151c2565b508042116150f6565b506001810154156150bc565b5f5b601290815490600191828101809111610d6b5761522990615ba8565b42101580615350575b1561534b57615240906141da565b91615249615bc0565b6152516155b9565b80545f52601890602082815260029060409482865f2001805460ff811615615325575b505061528084546141da565b809455835f52848252855f20541561529e575b50505050505061520d565b6152a784615ba8565b92865160a081019281841060018060401b03851117611c1c5788615311966153089561531a9b528352858301905f198252808401995f8b5260608501975f8952608086019a5f8c525f52525f2092518355519082015501945115158561429a565b51151583614022565b51151590614502565b5f8080808080615293565b61532d615e7d565b6153405760ff1916821790555f80615274565b505050505050505050565b505050565b5060078110615232565b61536390613d61565b50600c810190815460ff811660078110156106ca57158061540a575b6153fb575b50815460ff811660078110156106ca57600114806153ee575b6153df575b5081549060ff821660078110156106ca5760031490816153d1575b506153c6575050565b60ff19166004179055565b600b9150015442115f6153bd565b60ff191660031782555f6153a2565b50600a820154421161539d565b60ff191660031782555f615384565b50600a820154421161537f565b61542081613d61565b50600c81019081549160ff831660078110156106ca5761544090156144c9565b6005820154600483015490600382029180830460031490151715610d6b5760019161546a91614119565b9360ff1916179055601242910155600654600160401b811015611c1c5782610d4682600161549b9401600655613b82565b815f52600860205260405f20556154b181615eed565b7f04b18362a00bae55f3b8c43e1ee247e0a15fe6d5f2c22035b57fa5f95e685f5a5f80a2565b6040516323b872dd60e01b5f9081526001600160a01b03938416600452938316602452604494909452909160209060648180855af160015f511481161561552b575b836040525f6060521561485857505050565b600181151661488457813b15153d151616615519565b600554905f5b828110615555575050505f90565b8161555f82613b56565b90549060031b1c1461557357600101615547565b505050600190565b60055480156155a5575f199081019061559382613b56565b909182549160031b1b19169055600555565b634e487b7160e01b5f52603160045260245ffd5b6007906007545b60065481101561563357806155d76155e592613b82565b929054600393841b1c613d61565b5091600c830190815460ff811694878610156106ca5760018096149081615625575b50615616575b505050016155c0565b60ff19161790555f808061560d565b600a9150015442115f615607565b509050565b6101a0526101c052929181158015615b3f575b615b395761565b6101a051613d61565b5060018060a01b03905416906101a0515f52601060205260405f205f5b8154811015615b305761568b8183613b9a565b9190549160039260018060a01b038183861b1c165f52600960205260405f206101a0515f5260205260405f20938085015460ff80821615918215615b23575b5050615b17578454918b8a5f948a151580615afe575b615aa0575b6156f392916139419161403a565b928384615786575b906001975f80516020615f6f833981519152949392861015615771575b508061574d575b506157436040519283926101a051978a8060a01b03921b1c16946101c051836140fe565b0390a35b01615678565b5f80808061576b948c8060a01b03878c8a1b1c165af16139c2614093565b5f61571f565b8301805461ff0019166101001790555f615718565b92919085831b82901c6001600160a01b03168b03615841576101c0516001600160a01b03163b156104d9576001975f80516020615f6f83398151915294604051637ac1c9a160e11b81528a8060a01b03858a881b1c1660048201525f81602481838f8060a01b036101c051165af1615832575b505b8661580d575b919293945097506156fb565b61582d878b8060a01b03868b891b1c168c8060a01b036101c0511661480f565b615801565b61583b90613e61565b5f6157f9565b909192604051636914617f60e01b815260208160048160018060a01b036101c051165afa5f9181615a6c575b5061588e575b50906001975f80516020615f6f8339815191529493926157fb565b801561587357604095949392919551906318160ddd60e01b825260208260048160018060a01b036101c051165afa918215614d69575f92615a38575b506040516370a0823160e01b81526101c080516001600160a01b039081166004840152905191939160209185916024918391165afa928315614d69575f93615a00575b509061514060649361591e9361406b565b0497604051986370a0823160e01b8a5260018060a01b038489871b1c1660048b015260208a60248160018060a01b036101c051165afa908115614d69575f916159cb575b60019a50818111156159b257906159789161406b565b80861161599d575b505f80516020615f6f83398151915294955b919293945097615873565b94505f80516020615f6f833981519152615980565b50505f80516020615f6f83398151915294505f95615992565b905060208a3d6020116159f8575b816159e660209383613e74565b810103126104d9576001995190615962565b3d91506159d9565b9250906020833d602011615a30575b81615a1c60209383613e74565b810103126104d9579151919061514061590d565b3d9150615a0f565b9091506020813d602011615a64575b81615a5460209383613e74565b810103126104d95751905f6158ca565b3d9150615a47565b9091506020813d602011615a98575b81615a8860209383613e74565b810103126104d95751905f61586d565b3d9150615a7b565b94505050615ac8615ab1898561403a565b6005615abf6101a051613d61565b5001549061404d565b928c848c81841115615aee57615ae4613941926156f39561406b565b91509192506156e5565b6156f3935061394191505f615ae4565b506005615b0d6101a051613d61565b50015415156156e0565b50505060019150615747565b60081c1690505f806156ca565b50505050509050565b50509050565b50831561564b565b6001600160a01b03908116908115615ba0576003541614615b9b5760405162461bcd60e51b81526020600482015260116024820152703ab739bab83837b93a32b2103a37b5b2b760791b6044820152606490fd5b600690565b505061025890565b6201518090818102918183041490151715610d6b5790565b60165460125480911015615e7a57601681905560058054915f90815b848110615e0257508115615de55750615bf4816141ff565b91615bfe826141ff565b935f915f5b828110615d135750505050600381105f14615d0857809291925b615c26816141ff565b935f945f945b848610615c57575b5050505050505f80516020615f4f833981519152602060125492604051908152a2565b9091929394955f195f805b878110615cc157505f198214908115615cb8575b50615cb157600191615ca0615c9a8385615c93615ca5968a61427a565b528861427a565b51615417565b6141da565b96019493929190615c2c565b5095615c34565b9050155f615c76565b615ccb818761427a565b511580615cf5575b615ce0575b600101615c62565b809250615cee91508461427a565b5181615cd8565b5081615d01828761427a565b5111615cd3565b600390929192615c1d565b615d1c81613b56565b9054600391821b1c60ff600c615d3183613d61565b5001541660078110156106ca571580615dc6575b615d54575b5050600101615c03565b80615d62878a98959861427a565b52615d7984615d7083613d61565b50015491613d61565b50600480910154838102938185041490151715615db3575091615da1615dab92600194614119565b6111c0828b61427a565b93905f615d4a565b601190634e487b7160e01b5f525260245ffd5b506801158e460913d0000084615ddb83613d61565b5001541015615d45565b925050505f80516020615f4f83398151915260206040515f8152a2565b615e0b81613b56565b90549060031b1c60ff600c615e1f83613d61565b5001541660078110156106ca578590159182615e59575b5050615e45575b600101615bdc565b91615e516001916141da565b929050615e3d565b6801158e460913d000009250615e6e90613d61565b5001541015845f615e36565b50565b6005545f5b818110615e8f5750505f90565b615e9881613b56565b90549060031b1c60ff600c615eac83613d61565b5001541660078110156106ca57159081615ed5575b50615ece57600101615e82565b5050600190565b60049150615ee290613d61565b50015415155f615ec1565b5f5b6005548082101561534b578290615f0583613b56565b929054600393841b1c14615f1d575050600101615eef565b9092505f198101908111610d6b57615f4692615f3b610d4692613b56565b9054911b1c91613b56565b61466361557b56fec506deb19351b419dbc376c29e7f162818be5e9ad574df3f4112e4e5d0d6cf64c753569e0deb32bd2346e6d5557cb4a9c29ff3f67f069cd2723ecdb71e6c189d8be0079c531659141344cd1fd0a4f28419497f9722a3daafe3b4186f6b6457e09b779b17422d0df92223018b32b4d1fa46e071723d6817e2486d003becc55f00a26469706673582212201e559410038464d9158d49a2fd656018c9cfc786c605ae4484741afcdd93d80864736f6c63430008180033","opcodes":"PUSH1 0x80 CALLVALUE PUSH3 0x1F2 JUMPI PUSH3 0x6210 SWAP1 PUSH1 0x1 PUSH1 0x1 PUSH1 0x40 SHL SUB SWAP1 PUSH1 0x1F CODESIZE DUP5 SWAP1 SUB SWAP1 DUP2 ADD PUSH1 0x1F NOT AND DUP3 ADD SWAP1 DUP4 DUP3 GT DUP4 DUP4 LT OR PUSH3 0x1B3 JUMPI DUP1 DUP4 SWAP2 PUSH1 0x40 SWAP7 DUP8 SWAP5 DUP6 MSTORE DUP4 CODECOPY DUP2 ADD SUB SLT PUSH3 0x1F2 JUMPI PUSH3 0x5F PUSH1 0x20 PUSH3 0x57 DUP4 PUSH3 0x1F6 JUMP JUMPDEST SWAP3 ADD PUSH3 0x1F6 JUMP JUMPDEST SWAP1 PUSH1 0x1 PUSH32 0x9B779B17422D0DF92223018B32B4D1FA46E071723D6817E2486D003BECC55F00 SSTORE CALLER ISZERO PUSH3 0x1DB JUMPI PUSH0 DUP1 SLOAD CALLER PUSH1 0x1 PUSH1 0x1 PUSH1 0xA0 SHL SUB NOT DUP1 DUP4 AND DUP3 OR DUP5 SSTORE SWAP5 PUSH1 0x1 PUSH1 0x1 PUSH1 0xA0 SHL SUB SWAP5 SWAP1 SWAP4 DUP6 SWAP4 SWAP2 SWAP3 SWAP2 DUP5 AND SWAP1 PUSH32 0x8BE0079C531659141344CD1FD0A4F28419497F9722A3DAAFE3B4186F6B6457E0 SWAP1 DUP1 LOG3 PUSH3 0x10101 PUSH1 0xA0 SHL PUSH3 0xFFFFFF PUSH1 0xA0 SHL NOT PUSH1 0x3 SLOAD AND OR PUSH1 0x3 SSTORE PUSH1 0x1 PUSH1 0x14 SSTORE PUSH1 0x4 PUSH1 0x15 SSTORE AND DUP4 PUSH1 0x1 SLOAD AND OR PUSH1 0x1 SSTORE AND SWAP1 PUSH1 0x2 SLOAD AND OR PUSH1 0x2 SSTORE PUSH3 0x15180 DUP1 TIMESTAMP DIV SWAP1 DUP2 PUSH1 0x12 SSTORE DUP1 DUP3 MUL SWAP1 DUP3 DUP3 DIV EQ DUP3 ISZERO OR ISZERO PUSH3 0x1C7 JUMPI DUP4 MLOAD SWAP3 PUSH1 0xA0 DUP5 ADD SWAP1 DUP2 GT DUP5 DUP3 LT OR PUSH3 0x1B3 JUMPI DUP5 MSTORE DUP3 MSTORE PUSH1 0x20 DUP3 ADD SWAP1 PUSH0 NOT DUP3 MSTORE PUSH1 0x2 DUP5 DUP5 ADD SWAP4 PUSH0 DUP6 MSTORE PUSH1 0x60 DUP2 ADD SWAP4 PUSH0 DUP6 MSTORE PUSH1 0x80 DUP3 ADD SWAP4 PUSH0 DUP6 MSTORE PUSH0 MSTORE PUSH1 0x18 PUSH1 0x20 MSTORE DUP7 PUSH0 KECCAK256 SWAP2 MLOAD DUP3 SSTORE MLOAD PUSH1 0x1 DUP3 ADD SSTORE ADD SWAP3 MLOAD ISZERO ISZERO SWAP2 PUSH1 0xFF PUSH3 0xFF0000 PUSH2 0xFF00 DUP7 SLOAD SWAP4 MLOAD ISZERO ISZERO PUSH1 0x8 SHL AND SWAP4 MLOAD ISZERO ISZERO PUSH1 0x10 SHL AND SWAP4 AND SWAP1 PUSH3 0xFFFFFF NOT AND OR OR OR SWAP1 SSTORE MLOAD PUSH2 0x6004 SWAP1 DUP2 PUSH3 0x20C DUP3 CODECOPY RETURN JUMPDEST PUSH4 0x4E487B71 PUSH1 0xE0 SHL PUSH0 MSTORE PUSH1 0x41 PUSH1 0x4 MSTORE PUSH1 0x24 PUSH0 REVERT JUMPDEST PUSH4 0x4E487B71 PUSH1 0xE0 SHL PUSH0 MSTORE PUSH1 0x11 PUSH1 0x4 MSTORE PUSH1 0x24 PUSH0 REVERT JUMPDEST DUP4 MLOAD PUSH4 0x1E4FBDF7 PUSH1 0xE0 SHL DUP2 MSTORE PUSH0 PUSH1 0x4 DUP3 ADD MSTORE PUSH1 0x24 SWAP1 REVERT JUMPDEST PUSH0 DUP1 REVERT JUMPDEST MLOAD SWAP1 PUSH1 0x1 PUSH1 0x1 PUSH1 0xA0 SHL SUB DUP3 AND DUP3 SUB PUSH3 0x1F2 JUMPI JUMP INVALID PUSH2 0x1E0 DUP1 PUSH1 0x40 MSTORE PUSH1 0x4 CALLDATASIZE LT ISZERO PUSH2 0x1D JUMPI JUMPDEST POP CALLDATASIZE ISZERO PUSH2 0x1B JUMPI PUSH0 DUP1 REVERT JUMPDEST STOP JUMPDEST PUSH0 CALLDATALOAD PUSH1 0xE0 SHR SWAP1 DUP2 PUSH4 0xB7D3891 EQ PUSH2 0x3B26 JUMPI POP DUP1 PUSH4 0xD43E8AD EQ PUSH2 0x3AFE JUMPI DUP1 PUSH4 0xF903FF8 EQ PUSH2 0x385A JUMPI DUP1 PUSH4 0x12C0A32E EQ PUSH2 0x3840 JUMPI DUP1 PUSH4 0x147FF5EA EQ PUSH2 0x3823 JUMPI DUP1 PUSH4 0x15F07276 EQ PUSH2 0x3800 JUMPI DUP1 PUSH4 0x1631DE29 EQ PUSH2 0x37D7 JUMPI DUP1 PUSH4 0x168C98AA EQ PUSH2 0x37AF JUMPI DUP1 PUSH4 0x1A65F02A EQ PUSH2 0x13CF JUMPI DUP1 PUSH4 0x1CA857F1 EQ PUSH2 0x3785 JUMPI DUP1 PUSH4 0x1D32C2DA EQ PUSH2 0x1EA6 JUMPI DUP1 PUSH4 0x22754EB3 EQ PUSH2 0x3768 JUMPI DUP1 PUSH4 0x22D31977 EQ PUSH2 0x3740 JUMPI DUP1 PUSH4 0x2AE4F0FE EQ PUSH2 0x371D JUMPI DUP1 PUSH4 0x2B89EB2C EQ PUSH2 0x54C JUMPI DUP1 PUSH4 0x2BB61E20 EQ PUSH2 0x3700 JUMPI DUP1 PUSH4 0x2CDFA5A2 EQ PUSH2 0x3538 JUMPI DUP1 PUSH4 0x2DCD7878 EQ PUSH2 0x22C2 JUMPI DUP1 PUSH4 0x2E4A2F49 EQ PUSH2 0x340B JUMPI DUP1 PUSH4 0x2E569EFF EQ PUSH2 0x3385 JUMPI DUP1 PUSH4 0x30A56347 EQ PUSH2 0x3368 JUMPI DUP1 PUSH4 0x30BFF753 EQ PUSH2 0x331A JUMPI DUP1 PUSH4 0x3282914C EQ PUSH2 0x32FE JUMPI DUP1 PUSH4 0x3292754C EQ PUSH2 0x238A JUMPI DUP1 PUSH4 0x33085903 EQ PUSH2 0x32D4 JUMPI DUP1 PUSH4 0x3477EE2E EQ PUSH2 0x3065 JUMPI DUP1 PUSH4 0x3894228E EQ PUSH2 0x3005 JUMPI DUP1 PUSH4 0x3AE9A18E EQ PUSH2 0x997 JUMPI DUP1 PUSH4 0x3B46C2A9 EQ PUSH2 0x2FE9 JUMPI DUP1 PUSH4 0x3C194B08 EQ PUSH2 0x2FCC JUMPI DUP1 PUSH4 0x3CE60271 EQ PUSH2 0x2F6E JUMPI DUP1 PUSH4 0x3F02012C EQ PUSH2 0x2E8E JUMPI DUP1 PUSH4 0x41CBA1B2 EQ PUSH2 0x2E6C JUMPI DUP1 PUSH4 0x43C9E535 EQ PUSH2 0x2E54 JUMPI DUP1 PUSH4 0x43FF1FB8 EQ PUSH2 0x2E11 JUMPI DUP1 PUSH4 0x4571DB58 EQ PUSH2 0x2D06 JUMPI DUP1 PUSH4 0x48B7B148 EQ PUSH2 0x2CE3 JUMPI DUP1 PUSH4 0x4A235EB6 EQ PUSH2 0x2AD6 JUMPI DUP1 PUSH4 0x4AF6E91B EQ PUSH2 0x2AB9 JUMPI DUP1 PUSH4 0x4B265075 EQ PUSH2 0x2A9D JUMPI DUP1 PUSH4 0x4FF23BB6 EQ PUSH2 0x2A65 JUMPI DUP1 PUSH4 0x532A89C7 EQ PUSH2 0x2A1D JUMPI DUP1 PUSH4 0x5541F0BD EQ PUSH2 0x29FB JUMPI DUP1 PUSH4 0x5A9D0184 EQ PUSH2 0x27EF JUMPI DUP1 PUSH4 0x5C9302C9 EQ PUSH2 0x27D2 JUMPI DUP1 PUSH4 0x5E07E877 EQ PUSH2 0x27AA JUMPI DUP1 PUSH4 0x63A49591 EQ PUSH2 0x278D JUMPI DUP1 PUSH4 0x63CE0B28 EQ PUSH2 0x2768 JUMPI DUP1 PUSH4 0x64452FB3 EQ PUSH2 0x273F JUMPI DUP1 PUSH4 0x64A0C371 EQ PUSH2 0x2722 JUMPI DUP1 PUSH4 0x64C5C2A0 EQ PUSH2 0x26A1 JUMPI DUP1 PUSH4 0x66666AA9 EQ PUSH2 0x2684 JUMPI DUP1 PUSH4 0x67188083 EQ PUSH2 0x2568 JUMPI DUP1 PUSH4 0x67D41D62 EQ PUSH2 0x238F JUMPI DUP1 PUSH4 0x6EDE970D EQ PUSH2 0x238A JUMPI DUP1 PUSH4 0x701B09A0 EQ PUSH2 0x96F JUMPI DUP1 PUSH4 0x715018A6 EQ PUSH2 0x2346 JUMPI DUP1 PUSH4 0x75DD0989 EQ PUSH2 0x22C7 JUMPI DUP1 PUSH4 0x77A980F0 EQ PUSH2 0x22C2 JUMPI DUP1 PUSH4 0x7DF8EB19 EQ PUSH2 0x2199 JUMPI DUP1 PUSH4 0x83A1BC87 EQ PUSH2 0x217C JUMPI DUP1 PUSH4 0x889C3B75 EQ PUSH2 0x2154 JUMPI DUP1 PUSH4 0x8BDF67F2 EQ PUSH2 0x20C4 JUMPI DUP1 PUSH4 0x8C2C9EF1 EQ PUSH2 0x208C JUMPI DUP1 PUSH4 0x8DA5CB5B EQ PUSH2 0x2065 JUMPI DUP1 PUSH4 0x8FC1DD13 EQ PUSH2 0x1ED8 JUMPI DUP1 PUSH4 0x92A40465 EQ PUSH2 0x1EAB JUMPI DUP1 PUSH4 0x93C116A8 EQ PUSH2 0x1EA6 JUMPI DUP1 PUSH4 0x96523644 EQ PUSH2 0x1E89 JUMPI DUP1 PUSH4 0x969C7915 EQ PUSH2 0x162E JUMPI DUP1 PUSH4 0x9B396ED2 EQ PUSH2 0x1613 JUMPI DUP1 PUSH4 0x9E941839 EQ PUSH2 0x15DB JUMPI DUP1 PUSH4 0xA04EC539 EQ PUSH2 0x1430 JUMPI DUP1 PUSH4 0xA5AC6810 EQ PUSH2 0x1414 JUMPI DUP1 PUSH4 0xA6E3F189 EQ PUSH2 0x13F1 JUMPI DUP1 PUSH4 0xA70B9F0C EQ PUSH2 0x13D4 JUMPI DUP1 PUSH4 0xA75F615B EQ PUSH2 0x13CF JUMPI DUP1 PUSH4 0xAE3390D1 EQ PUSH2 0x124E JUMPI DUP1 PUSH4 0xAECA8251 EQ PUSH2 0x1232 JUMPI DUP1 PUSH4 0xB3602ACD EQ PUSH2 0x120C JUMPI DUP1 PUSH4 0xB3F39856 EQ PUSH2 0x1075 JUMPI DUP1 PUSH4 0xB6B385F7 EQ PUSH2 0xCB8 JUMPI DUP1 PUSH4 0xB8C6A929 EQ PUSH2 0xC35 JUMPI DUP1 PUSH4 0xB8F77005 EQ PUSH2 0xC1B JUMPI DUP1 PUSH4 0xBFC63574 EQ PUSH2 0xBFE JUMPI DUP1 PUSH4 0xC0337604 EQ PUSH2 0xA63 JUMPI DUP1 PUSH4 0xC28CE628 EQ PUSH2 0xA48 JUMPI DUP1 PUSH4 0xC94AD980 EQ PUSH2 0xA24 JUMPI DUP1 PUSH4 0xC95D6EDC EQ PUSH2 0x997 JUMPI DUP1 PUSH4 0xC98517C5 EQ PUSH2 0x974 JUMPI DUP1 PUSH4 0xCB1C2B5C EQ PUSH2 0x96F JUMPI DUP1 PUSH4 0xCC75F7FA EQ PUSH2 0x94A JUMPI DUP1 PUSH4 0xCCFC2E8D EQ PUSH2 0x907 JUMPI DUP1 PUSH4 0xD701DE83 EQ PUSH2 0x8D7 JUMPI DUP1 PUSH4 0xD727C1A3 EQ PUSH2 0x8BC JUMPI DUP1 PUSH4 0xD764695D EQ PUSH2 0x799 JUMPI DUP1 PUSH4 0xD96F8D61 EQ PUSH2 0x77C JUMPI DUP1 PUSH4 0xE5C181D6 EQ PUSH2 0x757 JUMPI DUP1 PUSH4 0xEDF48D39 EQ PUSH2 0x579 JUMPI DUP1 PUSH4 0xEFF1D50E EQ PUSH2 0x551 JUMPI DUP1 PUSH4 0xF03A5B92 EQ PUSH2 0x54C JUMPI DUP1 PUSH4 0xF2FDE38B EQ PUSH2 0x4DD JUMPI PUSH4 0xFC4C6111 EQ PUSH2 0x496 JUMPI PUSH0 PUSH2 0x10 JUMP JUMPDEST CALLVALUE PUSH2 0x4D9 JUMPI PUSH1 0x20 CALLDATASIZE PUSH1 0x3 NOT ADD SLT PUSH2 0x4D9 JUMPI PUSH2 0x4AF PUSH2 0x3B40 JUMP JUMPDEST PUSH2 0x4B7 PUSH2 0x5042 JUMP JUMPDEST PUSH1 0x3 DUP1 SLOAD PUSH1 0x1 PUSH1 0x1 PUSH1 0xA0 SHL SUB NOT AND PUSH1 0x1 PUSH1 0x1 PUSH1 0xA0 SHL SUB SWAP3 SWAP1 SWAP3 AND SWAP2 SWAP1 SWAP2 OR SWAP1 SSTORE STOP JUMPDEST PUSH0 DUP1 REVERT JUMPDEST CALLVALUE PUSH2 0x4D9 JUMPI PUSH1 0x20 CALLDATASIZE PUSH1 0x3 NOT ADD SLT PUSH2 0x4D9 JUMPI PUSH2 0x4F6 PUSH2 0x3B40 JUMP JUMPDEST PUSH2 0x4FE PUSH2 0x5042 JUMP JUMPDEST PUSH1 0x1 PUSH1 0x1 PUSH1 0xA0 SHL SUB SWAP1 DUP2 AND SWAP1 DUP2 ISZERO PUSH2 0x534 JUMPI PUSH0 SLOAD DUP3 PUSH1 0x1 DUP1 PUSH1 0xA0 SHL SUB NOT DUP3 AND OR PUSH0 SSTORE AND PUSH0 DUP1 MLOAD PUSH1 0x20 PUSH2 0x5F8F DUP4 CODECOPY DUP2 MLOAD SWAP2 MSTORE PUSH0 DUP1 LOG3 STOP JUMPDEST PUSH1 0x40 MLOAD PUSH4 0x1E4FBDF7 PUSH1 0xE0 SHL DUP2 MSTORE PUSH0 PUSH1 0x4 DUP3 ADD MSTORE PUSH1 0x24 SWAP1 REVERT JUMPDEST PUSH2 0x3BED JUMP JUMPDEST CALLVALUE PUSH2 0x4D9 JUMPI PUSH0 CALLDATASIZE PUSH1 0x3 NOT ADD SLT PUSH2 0x4D9 JUMPI PUSH1 0x1 SLOAD PUSH1 0x40 MLOAD PUSH1 0x1 PUSH1 0x1 PUSH1 0xA0 SHL SUB SWAP1 SWAP2 AND DUP2 MSTORE PUSH1 0x20 SWAP1 RETURN JUMPDEST PUSH2 0x582 CALLDATASIZE PUSH2 0x3EDC JUMP JUMPDEST SWAP1 SWAP2 PUSH2 0x58F SWAP5 SWAP4 SWAP5 PUSH2 0x47E0 JUMP JUMPDEST PUSH1 0x4 SLOAD DUP5 LT ISZERO PUSH2 0x745 JUMPI PUSH2 0x5A2 DUP5 PUSH2 0x3D61 JUMP JUMPDEST POP DUP1 SLOAD PUSH1 0x1 PUSH1 0x1 PUSH1 0xA0 SHL SUB SWAP5 SWAP1 DUP6 AND CALLER SUB PUSH2 0x733 JUMPI PUSH1 0xC DUP3 ADD SWAP5 PUSH1 0xFF DUP7 SLOAD AND PUSH1 0x7 DUP2 LT ISZERO PUSH2 0x6CA JUMPI PUSH1 0x3 SUB PUSH2 0x721 JUMPI DUP4 DUP5 ISZERO PUSH2 0x71A JUMPI JUMPDEST DUP1 ISZERO PUSH2 0x713 JUMPI JUMPDEST PUSH2 0x5E9 SWAP1 PUSH2 0x45B3 JUMP JUMPDEST PUSH2 0x5F2 DUP9 PUSH2 0x478A JUMP JUMPDEST CALLVALUE LT PUSH2 0x702 JUMPI CALLVALUE PUSH2 0x6DE JUMPI JUMPDEST POP PUSH2 0x608 DUP8 PUSH2 0x4482 JUMP JUMPDEST SWAP5 PUSH1 0x3 DUP9 LT ISZERO PUSH2 0x6CA JUMPI PUSH1 0x14 DUP4 PUSH2 0x65C SWAP3 PUSH2 0x647 PUSH2 0x667 SWAP10 DUP13 PUSH1 0x9 PUSH2 0x662 SWAP10 ADD SSTORE PUSH2 0x633 DUP2 TIMESTAMP PUSH2 0x4119 JUMP JUMPDEST PUSH1 0xA DUP6 ADD SSTORE PUSH2 0x642 DUP2 TIMESTAMP PUSH2 0x4119 JUMP JUMPDEST PUSH2 0x4119 JUMP JUMPDEST PUSH1 0xB DUP4 ADD SSTORE DUP1 SLOAD PUSH1 0xFF NOT AND SWAP1 SSTORE ADD SWAP4 DUP5 PUSH2 0x429A JUMP JUMPDEST DUP3 PUSH2 0x4022 JUMP JUMPDEST PUSH2 0x4502 JUMP JUMPDEST PUSH2 0x670 DUP2 PUSH2 0x5541 JUMP JUMPDEST ISZERO PUSH2 0x6BC JUMPI JUMPDEST PUSH2 0x683 PUSH1 0x40 MLOAD DUP1 SWAP4 PUSH2 0x4665 JUMP JUMPDEST PUSH32 0x2A3A266BC0DC3FC4A4FA960561C5E7DF63B322B7231853520B5785075E6728FB PUSH1 0x20 CALLER SWAP4 LOG3 PUSH1 0x1 PUSH0 DUP1 MLOAD PUSH1 0x20 PUSH2 0x5FAF DUP4 CODECOPY DUP2 MLOAD SWAP2 MSTORE SSTORE STOP JUMPDEST PUSH2 0x6C5 DUP2 PUSH2 0x4640 JUMP JUMPDEST PUSH2 0x676 JUMP JUMPDEST PUSH4 0x4E487B71 PUSH1 0xE0 SHL PUSH0 MSTORE PUSH1 0x21 PUSH1 0x4 MSTORE PUSH1 0x24 PUSH0 REVERT JUMPDEST PUSH0 DUP1 DUP1 DUP1 PUSH2 0x6FC SWAP5 CALLVALUE SWAP1 PUSH1 0x2 SLOAD AND GAS CALL PUSH2 0x6F6 PUSH2 0x4093 JUMP JUMPDEST POP PUSH2 0x45FE JUMP JUMPDEST DUP8 PUSH2 0x5FE JUMP JUMPDEST PUSH1 0x40 MLOAD PUSH3 0x976F75 PUSH1 0xE2 SHL DUP2 MSTORE PUSH1 0x4 SWAP1 REVERT JUMPDEST POP DUP5 PUSH2 0x5E0 JUMP JUMPDEST POP DUP2 PUSH2 0x5D9 JUMP JUMPDEST PUSH1 0x40 MLOAD PUSH4 0x83E1301 PUSH1 0xE0 SHL DUP2 MSTORE PUSH1 0x4 SWAP1 REVERT JUMPDEST PUSH1 0x40 MLOAD PUSH4 0x7D1B73B9 PUSH1 0xE0 SHL DUP2 MSTORE PUSH1 0x4 SWAP1 REVERT JUMPDEST PUSH1 0x40 MLOAD PUSH4 0x96C970C7 PUSH1 0xE0 SHL DUP2 MSTORE PUSH1 0x4 SWAP1 REVERT JUMPDEST CALLVALUE PUSH2 0x4D9 JUMPI PUSH0 CALLDATASIZE PUSH1 0x3 NOT ADD SLT PUSH2 0x4D9 JUMPI PUSH1 0x20 PUSH1 0xFF PUSH1 0x3 SLOAD PUSH1 0xB0 SHR AND PUSH1 0x40 MLOAD SWAP1 ISZERO ISZERO DUP2 MSTORE RETURN JUMPDEST CALLVALUE PUSH2 0x4D9 JUMPI PUSH0 CALLDATASIZE PUSH1 0x3 NOT ADD SLT PUSH2 0x4D9 JUMPI PUSH1 0x20 PUSH1 0x15 SLOAD PUSH1 0x40 MLOAD SWAP1 DUP2 MSTORE RETURN JUMPDEST CALLVALUE PUSH2 0x4D9 JUMPI PUSH0 CALLDATASIZE PUSH1 0x3 NOT ADD SLT PUSH2 0x4D9 JUMPI PUSH2 0x7B1 PUSH2 0x47E0 JUMP JUMPDEST PUSH2 0x7BA CALLER PUSH2 0x488D JUMP JUMPDEST DUP1 ISZERO PUSH2 0x883 JUMPI CALLER PUSH0 MSTORE PUSH1 0xA PUSH1 0x20 MSTORE PUSH1 0x40 PUSH0 KECCAK256 PUSH0 JUMPDEST DUP2 SLOAD DUP2 LT ISZERO PUSH2 0x82A JUMPI DUP1 PUSH1 0xFF PUSH1 0x5 PUSH2 0x7E8 PUSH1 0x1 SWAP5 DUP7 PUSH2 0x3F8B JUMP JUMPDEST POP ADD SLOAD AND ISZERO DUP1 PUSH2 0x814 JUMPI JUMPDEST PUSH2 0x7FE JUMPI JUMPDEST ADD PUSH2 0x7CE JUMP JUMPDEST PUSH2 0x808 DUP2 DUP5 PUSH2 0x3F8B JUMP JUMPDEST POP PUSH1 0x6 TIMESTAMP SWAP2 ADD SSTORE PUSH2 0x7F8 JUMP JUMPDEST POP DUP2 PUSH2 0x820 DUP3 DUP6 PUSH2 0x3F8B JUMP JUMPDEST POP ADD SLOAD ISZERO ISZERO PUSH2 0x7F3 JUMP JUMPDEST DUP3 CALLER PUSH0 MSTORE PUSH1 0xB PUSH1 0x20 MSTORE PUSH1 0x40 PUSH0 KECCAK256 PUSH2 0x842 DUP3 DUP3 SLOAD PUSH2 0x4119 JUMP JUMPDEST SWAP1 SSTORE PUSH1 0x40 MLOAD SWAP1 DUP2 MSTORE PUSH32 0x4149E37857EDC1DB51BCCA87505C9858B22410E3530284631E663E641FAA89E2 PUSH1 0x20 CALLER SWAP3 LOG2 PUSH1 0x1 PUSH0 DUP1 MLOAD PUSH1 0x20 PUSH2 0x5FAF DUP4 CODECOPY DUP2 MLOAD SWAP2 MSTORE SSTORE STOP JUMPDEST PUSH1 0x40 MLOAD PUSH3 0x461BCD PUSH1 0xE5 SHL DUP2 MSTORE PUSH1 0x20 PUSH1 0x4 DUP3 ADD MSTORE PUSH1 0x11 PUSH1 0x24 DUP3 ADD MSTORE PUSH17 0x6E6F2070656E64696E6720726967687473 PUSH1 0x78 SHL PUSH1 0x44 DUP3 ADD MSTORE PUSH1 0x64 SWAP1 REVERT JUMPDEST CALLVALUE PUSH2 0x4D9 JUMPI PUSH0 CALLDATASIZE PUSH1 0x3 NOT ADD SLT PUSH2 0x4D9 JUMPI PUSH1 0x20 PUSH1 0x40 MLOAD PUSH1 0x6 DUP2 MSTORE RETURN JUMPDEST CALLVALUE PUSH2 0x4D9 JUMPI PUSH1 0x20 CALLDATASIZE PUSH1 0x3 NOT ADD SLT PUSH2 0x4D9 JUMPI PUSH1 0x4 CALLDATALOAD PUSH1 0x3 DUP2 LT ISZERO PUSH2 0x4D9 JUMPI PUSH2 0x8FF PUSH1 0x20 SWAP2 PUSH2 0x478A JUMP JUMPDEST PUSH1 0x40 MLOAD SWAP1 DUP2 MSTORE RETURN JUMPDEST CALLVALUE PUSH2 0x4D9 JUMPI PUSH1 0x20 CALLDATASIZE PUSH1 0x3 NOT ADD SLT PUSH2 0x4D9 JUMPI PUSH2 0x920 PUSH2 0x3B40 JUMP JUMPDEST PUSH2 0x928 PUSH2 0x5042 JUMP JUMPDEST PUSH1 0x2 DUP1 SLOAD PUSH1 0x1 PUSH1 0x1 PUSH1 0xA0 SHL SUB NOT AND PUSH1 0x1 PUSH1 0x1 PUSH1 0xA0 SHL SUB SWAP3 SWAP1 SWAP3 AND SWAP2 SWAP1 SWAP2 OR SWAP1 SSTORE STOP JUMPDEST CALLVALUE PUSH2 0x4D9 JUMPI PUSH0 CALLDATASIZE PUSH1 0x3 NOT ADD SLT PUSH2 0x4D9 JUMPI PUSH1 0x20 PUSH1 0xFF PUSH1 0x3 SLOAD PUSH1 0xA8 SHR AND PUSH1 0x40 MLOAD SWAP1 ISZERO ISZERO DUP2 MSTORE RETURN JUMPDEST PUSH2 0x3EBA JUMP JUMPDEST CALLVALUE PUSH2 0x4D9 JUMPI PUSH0 CALLDATASIZE PUSH1 0x3 NOT ADD SLT PUSH2 0x4D9 JUMPI PUSH1 0x20 PUSH1 0x40 MLOAD PUSH9 0x1043561A8829300000 DUP2 MSTORE RETURN JUMPDEST CALLVALUE PUSH2 0x4D9 JUMPI PUSH1 0x40 CALLDATASIZE PUSH1 0x3 NOT ADD SLT PUSH2 0x4D9 JUMPI PUSH1 0x1 PUSH1 0x1 PUSH1 0xA0 SHL SUB PUSH2 0x9B8 PUSH2 0x3B40 JUMP JUMPDEST AND PUSH0 SWAP1 DUP2 MSTORE PUSH1 0x9 PUSH1 0x20 SWAP1 DUP2 MSTORE PUSH1 0x40 DUP1 DUP4 KECCAK256 PUSH1 0x24 CALLDATALOAD DUP5 MSTORE DUP3 MSTORE SWAP2 DUP3 SWAP1 KECCAK256 DUP1 SLOAD PUSH1 0x1 DUP3 ADD SLOAD PUSH1 0x2 DUP4 ADD SLOAD PUSH1 0x3 SWAP1 SWAP4 ADD SLOAD DUP6 MLOAD SWAP3 DUP4 MSTORE SWAP4 DUP3 ADD MSTORE SWAP3 DUP4 ADD MSTORE PUSH1 0xFF DUP1 DUP3 AND ISZERO ISZERO PUSH1 0x60 DUP5 ADD MSTORE PUSH1 0x8 DUP3 SWAP1 SHR DUP2 AND ISZERO ISZERO PUSH1 0x80 DUP5 ADD MSTORE PUSH1 0x10 SWAP2 SWAP1 SWAP2 SHR AND ISZERO ISZERO PUSH1 0xA0 DUP3 ADD MSTORE PUSH1 0xC0 SWAP1 RETURN JUMPDEST SUB SWAP1 RETURN JUMPDEST CALLVALUE PUSH2 0x4D9 JUMPI PUSH0 CALLDATASIZE PUSH1 0x3 NOT ADD SLT PUSH2 0x4D9 JUMPI PUSH1 0x20 PUSH1 0x40 MLOAD PUSH10 0x14542BA12A337C00000 DUP2 MSTORE RETURN JUMPDEST CALLVALUE PUSH2 0x4D9 JUMPI PUSH0 CALLDATASIZE PUSH1 0x3 NOT ADD SLT PUSH2 0x4D9 JUMPI PUSH1 0x20 PUSH1 0x40 MLOAD PUSH1 0x96 DUP2 MSTORE RETURN JUMPDEST CALLVALUE PUSH2 0x4D9 JUMPI PUSH2 0xA71 CALLDATASIZE PUSH2 0x3EA4 JUMP JUMPDEST PUSH2 0xA79 PUSH2 0x47E0 JUMP JUMPDEST PUSH2 0xA86 PUSH1 0x4 SLOAD DUP4 LT PUSH2 0x3FA4 JUMP JUMPDEST PUSH2 0xA91 DUP2 ISZERO ISZERO PUSH2 0x438C JUMP JUMPDEST PUSH2 0xA9A CALLER PUSH2 0x4349 JUMP JUMPDEST DUP2 GT PUSH2 0xBC3 JUMPI PUSH2 0xAA8 PUSH2 0x520B JUMP JUMPDEST PUSH2 0xAB1 DUP3 PUSH2 0x535A JUMP JUMPDEST PUSH2 0xABA DUP3 PUSH2 0x3D61 JUMP JUMPDEST POP PUSH1 0xFF PUSH1 0xC DUP3 ADD SLOAD AND SWAP1 PUSH1 0x7 DUP3 LT ISZERO PUSH2 0x6CA JUMPI PUSH2 0xB02 DUP3 PUSH32 0x42BD776809143FAC33832DC0546A39E2E7A8D6A2E5D9EAFD85EDE1D80576C436 SWAP4 ISZERO SWAP1 DUP2 ISZERO PUSH2 0xBB8 JUMPI JUMPDEST POP PUSH2 0x4404 JUMP JUMPDEST CALLER PUSH0 MSTORE PUSH1 0x4 PUSH1 0x20 SWAP2 PUSH1 0xC DUP4 MSTORE PUSH1 0x40 PUSH0 KECCAK256 PUSH2 0xB1D DUP7 DUP3 SLOAD PUSH2 0x4119 JUMP JUMPDEST SWAP1 SSTORE PUSH1 0x7 DUP2 ADD PUSH2 0xB2E DUP7 DUP3 SLOAD PUSH2 0x4119 JUMP JUMPDEST SWAP1 SSTORE ADD PUSH2 0xB3C DUP5 DUP3 SLOAD PUSH2 0x4119 JUMP JUMPDEST SWAP1 SSTORE DUP4 PUSH0 MSTORE PUSH1 0x11 DUP2 MSTORE PUSH1 0x40 PUSH0 KECCAK256 CALLER PUSH0 MSTORE DUP2 MSTORE PUSH1 0xFF PUSH1 0x40 PUSH0 KECCAK256 SLOAD AND ISZERO PUSH2 0xB80 JUMPI JUMPDEST PUSH1 0x40 MLOAD SWAP3 DUP4 MSTORE CALLER SWAP3 LOG3 PUSH2 0xB6D PUSH2 0x48DA JUMP JUMPDEST PUSH1 0x1 PUSH0 DUP1 MLOAD PUSH1 0x20 PUSH2 0x5FAF DUP4 CODECOPY DUP2 MLOAD SWAP2 MSTORE SSTORE STOP JUMPDEST DUP4 PUSH0 MSTORE PUSH1 0x11 DUP2 MSTORE PUSH1 0x40 PUSH0 KECCAK256 CALLER PUSH0 MSTORE DUP2 MSTORE PUSH1 0x40 PUSH0 KECCAK256 PUSH1 0x1 PUSH1 0xFF NOT DUP3 SLOAD AND OR SWAP1 SSTORE DUP4 PUSH0 MSTORE PUSH1 0x10 DUP2 MSTORE PUSH2 0xBB3 CALLER PUSH1 0x40 PUSH0 KECCAK256 PUSH2 0x4447 JUMP JUMPDEST PUSH2 0xB5C JUMP JUMPDEST PUSH1 0x1 SWAP2 POP EQ DUP7 PUSH2 0xAFC JUMP JUMPDEST PUSH1 0x40 MLOAD PUSH3 0x461BCD PUSH1 0xE5 SHL DUP2 MSTORE PUSH1 0x20 PUSH1 0x4 DUP3 ADD MSTORE PUSH1 0x13 PUSH1 0x24 DUP3 ADD MSTORE PUSH19 0x696E73756666696369656E7420726967687473 PUSH1 0x68 SHL PUSH1 0x44 DUP3 ADD MSTORE PUSH1 0x64 SWAP1 REVERT JUMPDEST CALLVALUE PUSH2 0x4D9 JUMPI PUSH0 CALLDATASIZE PUSH1 0x3 NOT ADD SLT PUSH2 0x4D9 JUMPI PUSH1 0x20 PUSH1 0x14 SLOAD PUSH1 0x40 MLOAD SWAP1 DUP2 MSTORE RETURN JUMPDEST CALLVALUE PUSH2 0x4D9 JUMPI PUSH0 CALLDATASIZE PUSH1 0x3 NOT ADD SLT PUSH2 0x4D9 JUMPI PUSH1 0x20 PUSH2 0x8FF PUSH2 0x4777 JUMP JUMPDEST CALLVALUE PUSH2 0x4D9 JUMPI PUSH1 0x40 CALLDATASIZE PUSH1 0x3 NOT ADD SLT PUSH2 0x4D9 JUMPI PUSH2 0xC4E PUSH2 0x3B40 JUMP JUMPDEST PUSH1 0x1 PUSH1 0x1 PUSH1 0xA0 SHL SUB SWAP1 DUP2 AND PUSH0 SWAP1 DUP2 MSTORE PUSH1 0xA PUSH1 0x20 MSTORE PUSH1 0x40 SWAP1 KECCAK256 DUP1 SLOAD PUSH1 0x24 CALLDATALOAD SWAP1 DUP2 LT ISZERO PUSH2 0x4D9 JUMPI PUSH2 0xC7C SWAP2 PUSH2 0x3F8B JUMP JUMPDEST POP SWAP1 DUP2 SLOAD AND PUSH2 0xA20 PUSH1 0x1 DUP4 ADD SLOAD SWAP3 PUSH1 0x2 DUP2 ADD SLOAD SWAP1 PUSH1 0xFF PUSH1 0x3 DUP3 ADD SLOAD AND PUSH1 0x4 DUP3 ADD SLOAD SWAP1 PUSH1 0x6 PUSH1 0xFF PUSH1 0x5 DUP6 ADD SLOAD AND SWAP4 ADD SLOAD SWAP4 PUSH1 0x40 MLOAD SWAP8 DUP9 SWAP8 DUP9 PUSH2 0x3CFF JUMP JUMPDEST CALLVALUE PUSH2 0x4D9 JUMPI PUSH0 CALLDATASIZE PUSH1 0x3 NOT ADD SLT PUSH2 0x4D9 JUMPI PUSH2 0xCD0 PUSH2 0x47E0 JUMP JUMPDEST PUSH2 0xCD8 PUSH2 0x520B JUMP JUMPDEST PUSH0 JUMPDEST PUSH1 0x5 DUP1 SLOAD DUP3 LT ISZERO PUSH2 0xD8A JUMPI PUSH2 0xD0D SWAP1 PUSH1 0xFF PUSH1 0xC PUSH2 0xCF6 DUP6 PUSH2 0x3B56 JUMP JUMPDEST SWAP5 SWAP1 SLOAD PUSH1 0x3 SWAP6 DUP7 SHL SHR PUSH2 0xD08 DUP2 PUSH2 0x535A JUMP JUMPDEST PUSH2 0x3D61 JUMP JUMPDEST POP ADD SLOAD AND PUSH1 0x7 DUP2 LT ISZERO PUSH2 0x6CA JUMPI ISZERO PUSH2 0xD7F JUMPI SLOAD PUSH0 NOT DUP2 ADD SWAP2 SWAP1 DUP3 GT PUSH2 0xD6B JUMPI PUSH2 0xD38 PUSH2 0xD5E SWAP3 PUSH2 0x3B56 JUMP JUMPDEST SWAP1 SLOAD SWAP2 SHL SHR PUSH2 0xD46 DUP4 PUSH2 0x3B56 JUMP JUMPDEST SWAP1 SWAP2 SWAP1 DUP3 SLOAD SWAP1 PUSH1 0x3 SHL SWAP2 DUP3 SHL SWAP2 PUSH0 NOT SWAP1 SHL NOT AND OR SWAP1 SSTORE JUMP JUMPDEST PUSH2 0xD66 PUSH2 0x557B JUMP JUMPDEST PUSH2 0xCDA JUMP JUMPDEST PUSH4 0x4E487B71 PUSH1 0xE0 SHL PUSH0 MSTORE PUSH1 0x11 PUSH1 0x4 MSTORE PUSH1 0x24 PUSH0 REVERT JUMPDEST POP POP PUSH2 0xD66 SWAP1 PUSH2 0x41DA JUMP JUMPDEST PUSH1 0x12 SLOAD PUSH0 MSTORE PUSH1 0x20 PUSH1 0x18 DUP2 MSTORE PUSH1 0x40 PUSH0 KECCAK256 PUSH1 0x2 DUP2 ADD SWAP2 PUSH1 0xFF SWAP1 PUSH1 0xFF DUP5 SLOAD AND PUSH2 0x103F JUMPI DUP3 SLOAD PUSH3 0x15180 DUP2 ADD DUP1 SWAP2 GT PUSH2 0xD6B JUMPI TIMESTAMP LT PUSH2 0x1009 JUMPI PUSH0 NOT SWAP1 PUSH0 SWAP5 PUSH0 JUMPDEST PUSH1 0x5 SLOAD DUP2 LT ISZERO PUSH2 0xE49 JUMPI PUSH2 0xDD9 DUP2 PUSH2 0x3B56 JUMP JUMPDEST SWAP1 SLOAD SWAP1 PUSH1 0x3 SHL SHR PUSH2 0xDE9 DUP2 PUSH2 0x535A JUMP JUMPDEST DUP6 PUSH1 0xC PUSH2 0xDF5 DUP4 PUSH2 0x3D61 JUMP JUMPDEST POP ADD SLOAD AND PUSH1 0x7 DUP2 LT ISZERO PUSH2 0x6CA JUMPI ISZERO DUP1 PUSH2 0xE33 JUMPI JUMPDEST PUSH2 0xE17 JUMPI JUMPDEST POP PUSH1 0x1 ADD PUSH2 0xDC6 JUMP JUMPDEST SWAP7 POP SWAP3 POP PUSH1 0x1 PUSH1 0x4 PUSH2 0xE28 DUP9 PUSH2 0x3D61 JUMP JUMPDEST POP ADD SLOAD SWAP7 SWAP4 SWAP1 PUSH2 0xE0E JUMP JUMPDEST POP DUP8 PUSH1 0x4 PUSH2 0xE40 DUP4 PUSH2 0x3D61 JUMP JUMPDEST POP ADD SLOAD GT PUSH2 0xE09 JUMP JUMPDEST POP DUP3 PUSH1 0x1 DUP7 PUSH0 NOT DUP4 EQ ISZERO DUP10 DUP2 PUSH2 0xFFF JUMPI JUMPDEST POP PUSH2 0xF8F JUMPI JUMPDEST ADD SSTORE DUP1 SLOAD PUSH1 0xFF NOT DUP2 AND PUSH1 0x1 OR DUP1 DUP4 SSTORE PUSH1 0x3 SLOAD PUSH1 0x1 PUSH1 0x1 PUSH1 0xA0 SHL SUB SWAP4 SWAP3 SWAP2 SWAP1 DUP5 AND ISZERO ISZERO SWAP1 DUP2 PUSH2 0xF79 JUMPI JUMPDEST DUP2 PUSH2 0xF6A JUMPI JUMPDEST POP PUSH2 0xECB JUMPI JUMPDEST DUP5 PUSH32 0xFC1AB2F07E0D89EB63AE0626EBDD0E00E2497FC8DB2F3A10A4FEA7588C71C6B9 DUP6 PUSH1 0x12 SLOAD SWAP3 PUSH1 0x40 MLOAD SWAP1 DUP2 MSTORE LOG2 PUSH2 0xB6D PUSH2 0x48DA JUMP JUMPDEST PUSH2 0xFFFF NOT AND PUSH2 0x101 OR SWAP1 SSTORE PUSH1 0xF SLOAD PUSH8 0x8AC7230489E7FFFF NOT DUP2 ADD SWAP1 DUP2 GT PUSH2 0xD6B JUMPI PUSH1 0xF SSTORE PUSH1 0x3 SLOAD AND PUSH1 0x40 MLOAD SWAP1 PUSH4 0xA9059CBB PUSH1 0xE0 SHL PUSH0 MSTORE CALLER PUSH1 0x4 MSTORE PUSH8 0x8AC7230489E80000 PUSH1 0x24 MSTORE DUP3 PUSH0 PUSH1 0x44 DUP2 DUP1 DUP6 GAS CALL PUSH1 0x1 PUSH0 MLOAD EQ DUP2 AND ISZERO PUSH2 0xF4B JUMPI JUMPDEST DUP3 PUSH1 0x40 MSTORE ISZERO PUSH2 0xF36 JUMPI DUP1 PUSH2 0xE95 JUMP JUMPDEST PUSH4 0x5274AFE7 PUSH1 0xE0 SHL DUP3 MSTORE PUSH1 0x4 DUP3 ADD MSTORE PUSH1 0x24 SWAP2 POP REVERT JUMPDEST PUSH1 0x1 DUP2 ISZERO AND PUSH2 0xF61 JUMPI DUP2 EXTCODESIZE ISZERO ISZERO RETURNDATASIZE ISZERO AND AND PUSH2 0xF27 JUMP JUMPDEST DUP3 RETURNDATASIZE PUSH0 DUP3 RETURNDATACOPY RETURNDATASIZE SWAP1 REVERT JUMPDEST PUSH1 0xFF SWAP2 POP PUSH1 0x8 SHR AND ISZERO DUP7 PUSH2 0xE8F JUMP JUMPDEST SWAP1 POP PUSH8 0x8AC7230489E80000 PUSH1 0xF SLOAD LT ISZERO SWAP1 PUSH2 0xE89 JUMP JUMPDEST PUSH1 0xC PUSH2 0xF9A DUP5 PUSH2 0x3D61 JUMP JUMPDEST POP ADD DUP1 SLOAD PUSH1 0xFF NOT AND PUSH1 0x5 OR SWAP1 SSTORE PUSH2 0xFB0 DUP4 PUSH2 0x3D61 JUMP JUMPDEST POP PUSH1 0x13 TIMESTAMP SWAP2 ADD SSTORE DUP3 PUSH32 0x18C22795AD314FD0401DDA1B801B24E2513F22906EA99C7BC18FE27809D4DFC5 DUP7 PUSH2 0xFE3 DUP4 PUSH2 0x3D61 JUMP JUMPDEST POP PUSH1 0xC DUP7 DUP1 PUSH1 0xA0 SHL SUB SWAP2 ADD SLOAD PUSH1 0x10 SHR AND PUSH1 0x40 MLOAD SWAP1 DUP2 MSTORE LOG2 PUSH2 0xE60 JUMP JUMPDEST SWAP1 POP ISZERO ISZERO DUP8 PUSH2 0xE5A JUMP JUMPDEST PUSH1 0x64 SWAP1 PUSH1 0x40 MLOAD SWAP1 PUSH3 0x461BCD PUSH1 0xE5 SHL DUP3 MSTORE PUSH1 0x4 DUP3 ADD MSTORE PUSH1 0xF PUSH1 0x24 DUP3 ADD MSTORE PUSH15 0x195C1BD8DA081B9BDD08195B991959 PUSH1 0x8A SHL PUSH1 0x44 DUP3 ADD MSTORE REVERT JUMPDEST PUSH1 0x64 SWAP1 PUSH1 0x40 MLOAD SWAP1 PUSH3 0x461BCD PUSH1 0xE5 SHL DUP3 MSTORE PUSH1 0x4 DUP3 ADD MSTORE PUSH1 0xF PUSH1 0x24 DUP3 ADD MSTORE PUSH15 0x185B1C9958591E481CD95D1D1B1959 PUSH1 0x8A SHL PUSH1 0x44 DUP3 ADD MSTORE REVERT JUMPDEST CALLVALUE PUSH2 0x4D9 JUMPI PUSH0 CALLDATASIZE PUSH1 0x3 NOT ADD SLT PUSH2 0x4D9 JUMPI PUSH0 DUP1 PUSH1 0x4 SLOAD SWAP1 JUMPDEST DUP2 DUP2 LT PUSH2 0x11CE JUMPI POP PUSH2 0x109D DUP3 PUSH2 0x41FF JUMP JUMPDEST SWAP1 PUSH2 0x10A7 DUP4 PUSH2 0x4231 JUMP JUMPDEST PUSH2 0x10B9 PUSH2 0x10B3 DUP6 PUSH2 0x41FF JUMP JUMPDEST SWAP5 PUSH2 0x41FF JUMP JUMPDEST SWAP2 PUSH0 DUP1 JUMPDEST DUP3 DUP2 LT PUSH2 0x1112 JUMPI PUSH2 0x10E8 DUP7 PUSH2 0xA20 DUP8 PUSH2 0x1104 DUP12 PUSH2 0x10F6 DUP11 PUSH1 0x40 MLOAD SWAP8 DUP9 SWAP8 PUSH1 0x80 DUP10 MSTORE PUSH1 0x80 DUP10 ADD SWAP1 PUSH2 0x3C08 JUMP JUMPDEST SWAP1 DUP8 DUP3 SUB PUSH1 0x20 DUP10 ADD MSTORE PUSH2 0x3C79 JUMP JUMPDEST SWAP1 DUP6 DUP3 SUB PUSH1 0x40 DUP8 ADD MSTORE PUSH2 0x3C08 JUMP JUMPDEST SWAP1 DUP4 DUP3 SUB PUSH1 0x60 DUP6 ADD MSTORE PUSH2 0x3F4F JUMP JUMPDEST PUSH1 0xFF PUSH1 0xC PUSH2 0x111F DUP4 PUSH2 0x3D61 JUMP JUMPDEST POP ADD SLOAD AND PUSH1 0x7 DUP2 LT ISZERO PUSH2 0x6CA JUMPI PUSH1 0x3 EQ PUSH2 0x113C JUMPI JUMPDEST PUSH1 0x1 ADD PUSH2 0x10BD JUMP JUMPDEST SWAP1 PUSH2 0x11C6 DUP2 DUP4 PUSH2 0x114E PUSH1 0x1 SWAP5 DUP11 PUSH2 0x427A JUMP JUMPDEST MSTORE DUP3 PUSH2 0x1174 PUSH2 0x115C DUP7 PUSH2 0x3D61 JUMP JUMPDEST POP PUSH2 0x116D PUSH1 0x40 MLOAD DUP1 SWAP5 DUP2 SWAP4 ADD PUSH2 0x3DB5 JUMP JUMPDEST SUB DUP3 PUSH2 0x3E74 JUMP JUMPDEST PUSH2 0x117E DUP3 DUP9 PUSH2 0x427A JUMP JUMPDEST MSTORE PUSH2 0x1189 DUP2 DUP8 PUSH2 0x427A JUMP JUMPDEST POP PUSH1 0xB PUSH2 0x1195 DUP6 PUSH2 0x3D61 JUMP JUMPDEST POP ADD SLOAD PUSH2 0x11A2 DUP3 DUP12 PUSH2 0x427A JUMP JUMPDEST MSTORE PUSH2 0x11AC DUP5 PUSH2 0x3D61 JUMP JUMPDEST POP DUP4 DUP1 PUSH1 0xA0 SHL SUB SWAP1 SLOAD AND PUSH2 0x11C0 DUP3 DUP10 PUSH2 0x427A JUMP JUMPDEST MSTORE PUSH2 0x41DA JUMP JUMPDEST SWAP2 SWAP1 POP PUSH2 0x1134 JUMP JUMPDEST PUSH1 0xFF PUSH1 0xC PUSH2 0x11DB DUP4 PUSH2 0x3D61 JUMP JUMPDEST POP ADD SLOAD AND PUSH1 0x7 DUP2 LT ISZERO PUSH2 0x6CA JUMPI PUSH1 0x3 EQ PUSH2 0x11F8 JUMPI JUMPDEST PUSH1 0x1 ADD PUSH2 0x108C JUMP JUMPDEST SWAP2 PUSH2 0x1204 PUSH1 0x1 SWAP2 PUSH2 0x41DA JUMP JUMPDEST SWAP3 SWAP1 POP PUSH2 0x11F0 JUMP JUMPDEST CALLVALUE PUSH2 0x4D9 JUMPI PUSH0 CALLDATASIZE PUSH1 0x3 NOT ADD SLT PUSH2 0x4D9 JUMPI PUSH1 0x40 MLOAD PUSH8 0x6765C793FA10079D PUSH1 0x1B SHL DUP2 MSTORE PUSH1 0x20 SWAP1 RETURN JUMPDEST CALLVALUE PUSH2 0x4D9 JUMPI PUSH0 CALLDATASIZE PUSH1 0x3 NOT ADD SLT PUSH2 0x4D9 JUMPI PUSH1 0x20 PUSH1 0x40 MLOAD PUSH2 0x2710 DUP2 MSTORE RETURN JUMPDEST CALLVALUE PUSH2 0x4D9 JUMPI PUSH0 CALLDATASIZE PUSH1 0x3 NOT ADD SLT PUSH2 0x4D9 JUMPI PUSH1 0x4 SLOAD PUSH0 DUP1 JUMPDEST DUP3 DUP2 LT PUSH2 0x1391 JUMPI POP PUSH2 0x1275 DUP2 PUSH2 0x41FF JUMP JUMPDEST SWAP1 PUSH2 0x127F DUP2 PUSH2 0x4231 JUMP JUMPDEST PUSH2 0x1291 PUSH2 0x128B DUP4 PUSH2 0x4231 JUMP JUMPDEST SWAP3 PUSH2 0x4231 JUMP JUMPDEST SWAP4 PUSH0 DUP1 JUMPDEST DUP3 DUP2 LT PUSH2 0x12DC JUMPI PUSH2 0x10E8 DUP7 PUSH2 0xA20 DUP10 PUSH2 0x12CE DUP10 PUSH2 0x12C0 DUP11 PUSH1 0x40 MLOAD SWAP8 DUP9 SWAP8 PUSH1 0x80 DUP10 MSTORE PUSH1 0x80 DUP10 ADD SWAP1 PUSH2 0x3C08 JUMP JUMPDEST SWAP1 DUP6 DUP3 SUB PUSH1 0x40 DUP8 ADD MSTORE PUSH2 0x3C79 JUMP JUMPDEST SWAP1 DUP4 DUP3 SUB PUSH1 0x60 DUP6 ADD MSTORE PUSH2 0x3C79 JUMP JUMPDEST PUSH1 0xFF PUSH1 0xC PUSH2 0x12E9 DUP4 PUSH2 0x3D61 JUMP JUMPDEST POP ADD SLOAD AND PUSH1 0x7 DUP2 LT ISZERO PUSH2 0x6CA JUMPI PUSH1 0x4 EQ PUSH2 0x1306 JUMPI JUMPDEST PUSH1 0x1 ADD PUSH2 0x1295 JUMP JUMPDEST SWAP1 PUSH2 0x1389 DUP2 DUP4 PUSH2 0x1318 PUSH1 0x1 SWAP5 DUP11 PUSH2 0x427A JUMP JUMPDEST MSTORE DUP3 PUSH2 0x1326 PUSH2 0x115C DUP7 PUSH2 0x3D61 JUMP JUMPDEST PUSH2 0x1330 DUP3 DUP9 PUSH2 0x427A JUMP JUMPDEST MSTORE PUSH2 0x133B DUP2 DUP8 PUSH2 0x427A JUMP JUMPDEST POP PUSH1 0x2 PUSH2 0x134A PUSH2 0x115C DUP7 PUSH2 0x3D61 JUMP JUMPDEST PUSH2 0x1354 DUP3 DUP10 PUSH2 0x427A JUMP JUMPDEST MSTORE PUSH2 0x135F DUP2 DUP9 PUSH2 0x427A JUMP JUMPDEST POP PUSH1 0x3 PUSH2 0x136E PUSH2 0x115C DUP7 PUSH2 0x3D61 JUMP JUMPDEST PUSH2 0x1378 DUP3 DUP12 PUSH2 0x427A JUMP JUMPDEST MSTORE PUSH2 0x1383 DUP2 DUP11 PUSH2 0x427A JUMP JUMPDEST POP PUSH2 0x41DA JUMP JUMPDEST SWAP2 SWAP1 POP PUSH2 0x12FE JUMP JUMPDEST PUSH1 0xFF PUSH1 0xC PUSH2 0x139E DUP4 PUSH2 0x3D61 JUMP JUMPDEST POP ADD SLOAD AND PUSH1 0x7 DUP2 LT ISZERO PUSH2 0x6CA JUMPI PUSH1 0x4 EQ PUSH2 0x13BB JUMPI JUMPDEST PUSH1 0x1 ADD PUSH2 0x1264 JUMP JUMPDEST SWAP1 PUSH2 0x13C7 PUSH1 0x1 SWAP2 PUSH2 0x41DA JUMP JUMPDEST SWAP2 SWAP1 POP PUSH2 0x13B3 JUMP JUMPDEST PUSH2 0x3BAF JUMP JUMPDEST CALLVALUE PUSH2 0x4D9 JUMPI PUSH0 CALLDATASIZE PUSH1 0x3 NOT ADD SLT PUSH2 0x4D9 JUMPI PUSH1 0x20 PUSH1 0x40 MLOAD PUSH3 0x15180 DUP2 MSTORE RETURN JUMPDEST CALLVALUE PUSH2 0x4D9 JUMPI PUSH1 0x20 CALLDATASIZE PUSH1 0x3 NOT ADD SLT PUSH2 0x4D9 JUMPI PUSH1 0x20 PUSH2 0x8FF PUSH2 0x140F PUSH2 0x3B40 JUMP JUMPDEST PUSH2 0x4746 JUMP JUMPDEST CALLVALUE PUSH2 0x4D9 JUMPI PUSH0 CALLDATASIZE PUSH1 0x3 NOT ADD SLT PUSH2 0x4D9 JUMPI PUSH1 0x20 PUSH1 0x40 MLOAD PUSH2 0x3E8 DUP2 MSTORE RETURN JUMPDEST CALLVALUE PUSH2 0x4D9 JUMPI PUSH1 0x20 DUP1 PUSH1 0x3 NOT CALLDATASIZE ADD SLT PUSH2 0x4D9 JUMPI PUSH1 0x1 PUSH1 0x1 PUSH1 0xA0 SHL SUB SWAP1 DUP2 PUSH2 0x1454 PUSH2 0x3B40 JUMP JUMPDEST AND SWAP1 DUP2 PUSH0 MSTORE PUSH1 0xA DUP1 DUP3 MSTORE PUSH1 0x40 PUSH0 KECCAK256 SLOAD PUSH2 0x146C DUP2 PUSH2 0x41FF JUMP JUMPDEST SWAP5 PUSH2 0x1476 DUP3 PUSH2 0x41FF JUMP JUMPDEST PUSH2 0x147F DUP4 PUSH2 0x41FF JUMP JUMPDEST SWAP2 PUSH2 0x1489 DUP5 PUSH2 0x41FF JUMP JUMPDEST SWAP4 PUSH2 0x1493 DUP2 PUSH2 0x41FF JUMP JUMPDEST SWAP6 PUSH2 0x149D DUP3 PUSH2 0x41FF JUMP JUMPDEST SWAP9 PUSH0 JUMPDEST DUP4 DUP2 LT PUSH2 0x1547 JUMPI POP PUSH2 0x14D2 DUP12 DUP12 DUP12 PUSH2 0x1509 DUP13 PUSH2 0x14FB DUP14 PUSH2 0x14ED DUP15 PUSH2 0x14DF DUP16 PUSH1 0x40 MLOAD SWAP12 DUP13 SWAP12 PUSH1 0xC0 DUP14 MSTORE PUSH1 0xC0 DUP14 ADD SWAP1 PUSH2 0x3F4F JUMP JUMPDEST SWAP1 DUP12 DUP3 SUB DUP11 DUP14 ADD MSTORE PUSH2 0x3C08 JUMP JUMPDEST SWAP1 DUP10 DUP3 SUB PUSH1 0x40 DUP12 ADD MSTORE PUSH2 0x3C08 JUMP JUMPDEST SWAP1 DUP8 DUP3 SUB PUSH1 0x60 DUP10 ADD MSTORE PUSH2 0x3C08 JUMP JUMPDEST SWAP1 DUP6 DUP3 SUB PUSH1 0x80 DUP8 ADD MSTORE PUSH2 0x3C08 JUMP JUMPDEST DUP4 DUP2 SUB PUSH1 0xA0 DUP6 ADD MSTORE DUP2 DUP1 DUP5 MLOAD SWAP3 DUP4 DUP2 MSTORE ADD SWAP4 ADD SWAP2 PUSH0 JUMPDEST DUP3 DUP2 LT PUSH2 0x152E JUMPI POP POP POP POP SUB SWAP1 RETURN JUMPDEST DUP4 MLOAD ISZERO ISZERO DUP6 MSTORE DUP7 SWAP6 POP SWAP4 DUP2 ADD SWAP4 SWAP3 DUP2 ADD SWAP3 PUSH1 0x1 ADD PUSH2 0x151F JUMP JUMPDEST DUP2 PUSH0 MSTORE DUP3 DUP11 MSTORE PUSH2 0x155A DUP2 PUSH1 0x40 PUSH0 KECCAK256 PUSH2 0x3F8B JUMP JUMPDEST POP SWAP1 DUP13 PUSH2 0x156B DUP3 DUP9 DUP6 SLOAD AND SWAP3 PUSH2 0x427A JUMP JUMPDEST MSTORE PUSH1 0x1 DUP3 ADD SLOAD PUSH2 0x157B DUP3 DUP10 PUSH2 0x427A JUMP JUMPDEST MSTORE PUSH1 0x2 DUP3 ADD SLOAD PUSH2 0x158B DUP3 DUP11 PUSH2 0x427A JUMP JUMPDEST MSTORE PUSH1 0xFF DUP1 PUSH1 0x3 DUP5 ADD SLOAD AND PUSH1 0x4 DUP2 LT ISZERO PUSH2 0x6CA JUMPI DUP3 DUP15 SWAP3 PUSH1 0x5 PUSH1 0x1 SWAP7 DUP16 DUP16 SWAP6 PUSH2 0x15B6 DUP7 PUSH2 0x15D0 SWAP9 PUSH2 0x427A JUMP JUMPDEST MSTORE PUSH2 0x15C6 DUP6 PUSH1 0x4 DUP5 ADD SLOAD SWAP3 PUSH2 0x427A JUMP JUMPDEST MSTORE ADD SLOAD AND SWAP3 PUSH2 0x427A JUMP JUMPDEST SWAP1 ISZERO ISZERO SWAP1 MSTORE ADD PUSH2 0x14A0 JUMP JUMPDEST CALLVALUE PUSH2 0x4D9 JUMPI PUSH1 0x20 CALLDATASIZE PUSH1 0x3 NOT ADD SLT PUSH2 0x4D9 JUMPI PUSH1 0x1 PUSH1 0x1 PUSH1 0xA0 SHL SUB PUSH2 0x15FC PUSH2 0x3B40 JUMP JUMPDEST AND PUSH0 MSTORE PUSH1 0xC PUSH1 0x20 MSTORE PUSH1 0x20 PUSH1 0x40 PUSH0 KECCAK256 SLOAD PUSH1 0x40 MLOAD SWAP1 DUP2 MSTORE RETURN JUMPDEST CALLVALUE PUSH2 0x4D9 JUMPI PUSH0 CALLDATASIZE PUSH1 0x3 NOT ADD SLT PUSH2 0x4D9 JUMPI PUSH1 0x20 PUSH1 0x40 MLOAD PUSH1 0xC8 DUP2 MSTORE RETURN JUMPDEST PUSH1 0xE0 CALLDATASIZE PUSH1 0x3 NOT ADD SLT PUSH2 0x4D9 JUMPI PUSH1 0x4 CALLDATALOAD PUSH1 0x1 PUSH1 0x1 PUSH1 0x40 SHL SUB DUP2 GT PUSH2 0x4D9 JUMPI PUSH2 0x1659 SWAP1 CALLDATASIZE SWAP1 PUSH1 0x4 ADD PUSH2 0x3F22 JUMP JUMPDEST SWAP1 PUSH1 0x24 CALLDATALOAD PUSH1 0x1 PUSH1 0x1 PUSH1 0x40 SHL SUB DUP2 GT PUSH2 0x4D9 JUMPI PUSH2 0x1679 SWAP1 CALLDATASIZE SWAP1 PUSH1 0x4 ADD PUSH2 0x3F22 JUMP JUMPDEST SWAP1 SWAP2 PUSH1 0x44 CALLDATALOAD PUSH1 0x1 PUSH1 0x1 PUSH1 0x40 SHL SUB DUP2 GT PUSH2 0x4D9 JUMPI PUSH2 0x169A SWAP1 CALLDATASIZE SWAP1 PUSH1 0x4 ADD PUSH2 0x3F22 JUMP JUMPDEST PUSH1 0x3 PUSH1 0x64 CALLDATALOAD LT ISZERO PUSH2 0x4D9 JUMPI PUSH1 0x84 CALLDATALOAD ISZERO ISZERO PUSH1 0x84 CALLDATALOAD SUB PUSH2 0x4D9 JUMPI PUSH1 0xA4 CALLDATALOAD ISZERO ISZERO PUSH1 0xA4 CALLDATALOAD SUB PUSH2 0x4D9 JUMPI PUSH1 0xC4 CALLDATALOAD ISZERO ISZERO PUSH1 0xC4 CALLDATALOAD SUB PUSH2 0x4D9 JUMPI PUSH2 0x16D4 PUSH2 0x47E0 JUMP JUMPDEST PUSH2 0x16DF PUSH1 0x64 CALLDATALOAD PUSH2 0x478A JUMP JUMPDEST CALLVALUE LT PUSH2 0x702 JUMPI DUP6 ISZERO ISZERO DUP1 PUSH2 0x1E7E JUMPI JUMPDEST ISZERO PUSH2 0x1E4A JUMPI PUSH1 0x1 DUP5 LT ISZERO DUP1 PUSH2 0x1E3F JUMPI JUMPDEST ISZERO PUSH2 0x1E09 JUMPI PUSH1 0x84 CALLDATALOAD DUP1 ISZERO PUSH2 0x1E00 JUMPI JUMPDEST DUP1 ISZERO PUSH2 0x1DF7 JUMPI JUMPDEST PUSH2 0x171D SWAP1 PUSH2 0x45B3 JUMP JUMPDEST PUSH2 0x1725 PUSH2 0x520B JUMP JUMPDEST CALLVALUE PUSH2 0x1DD5 JUMPI JUMPDEST PUSH2 0x1736 PUSH1 0x64 CALLDATALOAD PUSH2 0x4482 JUMP JUMPDEST PUSH2 0x174E PUSH2 0x1743 DUP3 TIMESTAMP PUSH2 0x4119 JUMP JUMPDEST SWAP2 PUSH2 0x642 DUP2 TIMESTAMP PUSH2 0x4119 JUMP JUMPDEST PUSH1 0x40 MLOAD SWAP4 SWAP1 SWAP3 SWAP1 PUSH1 0x1 PUSH1 0x1 PUSH1 0x40 SHL SUB PUSH2 0x320 DUP7 ADD SWAP1 DUP2 GT SWAP1 DUP7 GT OR PUSH2 0x1C1C JUMPI PUSH2 0x17A3 SWAP2 PUSH2 0x320 DUP7 ADD PUSH1 0x40 MSTORE CALLER DUP7 MSTORE PUSH2 0x1787 CALLDATASIZE DUP12 DUP10 PUSH2 0x46C9 JUMP JUMPDEST PUSH1 0x20 DUP8 ADD MSTORE PUSH2 0x1797 CALLDATASIZE DUP10 DUP12 PUSH2 0x46C9 JUMP JUMPDEST PUSH1 0x40 DUP8 ADD MSTORE CALLDATASIZE SWAP2 PUSH2 0x46C9 JUMP JUMPDEST PUSH1 0x60 DUP5 ADD MSTORE PUSH0 PUSH1 0x80 DUP5 ADD MSTORE PUSH0 PUSH1 0xA0 DUP5 ADD MSTORE PUSH0 PUSH1 0xC0 DUP5 ADD MSTORE PUSH0 PUSH1 0xE0 DUP5 ADD MSTORE TIMESTAMP PUSH2 0x100 DUP5 ADD MSTORE PUSH1 0x64 CALLDATALOAD PUSH2 0x120 DUP5 ADD MSTORE PUSH2 0x140 DUP4 ADD MSTORE PUSH2 0x160 DUP3 ADD MSTORE PUSH0 PUSH2 0x180 DUP3 ADD MSTORE PUSH0 PUSH2 0x1A0 DUP3 ADD MSTORE PUSH0 PUSH2 0x1C0 DUP3 ADD MSTORE PUSH0 PUSH2 0x1E0 DUP3 ADD MSTORE PUSH0 PUSH2 0x200 DUP3 ADD MSTORE PUSH0 PUSH2 0x220 DUP3 ADD MSTORE PUSH0 PUSH2 0x240 DUP3 ADD MSTORE PUSH0 PUSH2 0x260 DUP3 ADD MSTORE PUSH0 PUSH2 0x280 DUP3 ADD MSTORE PUSH0 PUSH2 0x2A0 DUP3 ADD MSTORE PUSH1 0x84 CALLDATALOAD ISZERO ISZERO PUSH2 0x2C0 DUP3 ADD MSTORE PUSH1 0xA4 CALLDATALOAD ISZERO ISZERO PUSH2 0x2E0 DUP3 ADD MSTORE PUSH1 0xC4 CALLDATALOAD ISZERO ISZERO PUSH2 0x300 DUP3 ADD MSTORE PUSH1 0x4 SLOAD PUSH1 0x1 PUSH1 0x40 SHL DUP2 LT ISZERO PUSH2 0x1C1C JUMPI DUP1 PUSH1 0x1 PUSH2 0x1862 SWAP3 ADD PUSH1 0x4 SSTORE PUSH2 0x3D61 JUMP JUMPDEST SWAP2 SWAP1 SWAP2 PUSH2 0x1DC2 JUMPI DUP1 MLOAD DUP3 SLOAD PUSH1 0x1 PUSH1 0x1 PUSH1 0xA0 SHL SUB NOT AND PUSH1 0x1 PUSH1 0x1 PUSH1 0xA0 SHL SUB SWAP2 SWAP1 SWAP2 AND OR DUP3 SSTORE PUSH1 0x20 DUP2 ADD MLOAD DUP1 MLOAD SWAP1 PUSH1 0x1 PUSH1 0x1 PUSH1 0x40 SHL SUB DUP3 GT PUSH2 0x1C1C JUMPI DUP2 SWAP1 PUSH2 0x18AB PUSH1 0x1 DUP7 ADD SLOAD PUSH2 0x3D7D JUMP JUMPDEST PUSH1 0x1F DUP2 GT PUSH2 0x1D72 JUMPI JUMPDEST POP PUSH1 0x20 SWAP1 PUSH1 0x1F DUP4 GT PUSH1 0x1 EQ PUSH2 0x1D04 JUMPI PUSH0 SWAP3 PUSH2 0x1CF9 JUMPI JUMPDEST POP POP DUP2 PUSH1 0x1 SHL SWAP2 PUSH0 NOT SWAP1 PUSH1 0x3 SHL SHR NOT AND OR PUSH1 0x1 DUP4 ADD SSTORE JUMPDEST PUSH1 0x40 DUP2 ADD MLOAD DUP1 MLOAD SWAP1 PUSH1 0x1 PUSH1 0x1 PUSH1 0x40 SHL SUB DUP3 GT PUSH2 0x1C1C JUMPI DUP2 SWAP1 PUSH2 0x1906 PUSH1 0x2 DUP7 ADD SLOAD PUSH2 0x3D7D JUMP JUMPDEST PUSH1 0x1F DUP2 GT PUSH2 0x1CA9 JUMPI JUMPDEST POP PUSH1 0x20 SWAP1 PUSH1 0x1F DUP4 GT PUSH1 0x1 EQ PUSH2 0x1C3B JUMPI PUSH0 SWAP3 PUSH2 0x1C30 JUMPI JUMPDEST POP POP DUP2 PUSH1 0x1 SHL SWAP2 PUSH0 NOT SWAP1 PUSH1 0x3 SHL SHR NOT AND OR PUSH1 0x2 DUP4 ADD SSTORE JUMPDEST PUSH1 0x60 DUP2 ADD MLOAD DUP1 MLOAD SWAP1 PUSH1 0x1 PUSH1 0x1 PUSH1 0x40 SHL SUB DUP3 GT PUSH2 0x1C1C JUMPI DUP2 SWAP1 PUSH2 0x1961 PUSH1 0x3 DUP7 ADD SLOAD PUSH2 0x3D7D JUMP JUMPDEST PUSH1 0x1F DUP2 GT PUSH2 0x1BCC JUMPI JUMPDEST POP PUSH1 0x20 SWAP1 PUSH1 0x1F DUP4 GT PUSH1 0x1 EQ PUSH2 0x1B5E JUMPI PUSH0 SWAP3 PUSH2 0x1B53 JUMPI JUMPDEST POP POP DUP2 PUSH1 0x1 SHL SWAP2 PUSH0 NOT SWAP1 PUSH1 0x3 SHL SHR NOT AND OR PUSH1 0x3 DUP4 ADD SSTORE JUMPDEST PUSH1 0x80 DUP2 ADD MLOAD PUSH1 0x4 DUP4 ADD SSTORE PUSH1 0xA0 DUP2 ADD MLOAD PUSH1 0x5 DUP4 ADD SSTORE PUSH1 0xC0 DUP2 ADD MLOAD PUSH1 0x6 DUP4 ADD SSTORE PUSH1 0xE0 DUP2 ADD MLOAD PUSH1 0x7 DUP4 ADD SSTORE PUSH2 0x100 DUP2 ADD MLOAD PUSH1 0x8 DUP4 ADD SSTORE PUSH2 0x120 DUP2 ADD MLOAD PUSH1 0x9 DUP4 ADD SSTORE PUSH2 0x140 DUP2 ADD MLOAD PUSH1 0xA DUP4 ADD SSTORE PUSH2 0x160 DUP2 ADD MLOAD PUSH1 0xB DUP4 ADD SSTORE PUSH1 0xC DUP3 ADD PUSH2 0x180 DUP3 ADD MLOAD SWAP1 PUSH1 0x7 DUP3 LT ISZERO PUSH2 0x6CA JUMPI PUSH2 0x1ABA SWAP4 PUSH2 0x1A3F PUSH1 0x14 SWAP3 PUSH2 0x300 SWAP5 PUSH1 0xFF DUP1 NOT DUP4 SLOAD AND SWAP2 AND OR DUP2 SSTORE PUSH2 0x1A2A PUSH2 0x1A0 DUP8 ADD MLOAD ISZERO ISZERO DUP3 PUSH2 0x4022 JUMP JUMPDEST PUSH2 0x1C0 DUP7 ADD MLOAD PUSH1 0x1 PUSH1 0x1 PUSH1 0xA0 SHL SUB AND SWAP1 PUSH2 0x46FF JUMP JUMPDEST PUSH2 0x1E0 DUP5 ADD MLOAD PUSH1 0xD DUP3 ADD SSTORE PUSH2 0x200 DUP5 ADD MLOAD PUSH1 0xE DUP3 ADD SSTORE PUSH2 0x220 DUP5 ADD MLOAD PUSH1 0xF DUP3 ADD SSTORE PUSH2 0x240 DUP5 ADD MLOAD PUSH1 0x10 DUP3 ADD SSTORE PUSH2 0x260 DUP5 ADD MLOAD PUSH1 0x11 DUP3 ADD SSTORE PUSH2 0x280 DUP5 ADD MLOAD PUSH1 0x12 DUP3 ADD SSTORE PUSH2 0x2A0 DUP5 ADD MLOAD PUSH1 0x13 DUP3 ADD SSTORE ADD SWAP2 PUSH2 0x1A9F PUSH2 0x2C0 DUP3 ADD MLOAD ISZERO ISZERO DUP5 PUSH2 0x429A JUMP JUMPDEST PUSH2 0x1AB0 PUSH2 0x2E0 DUP3 ADD MLOAD ISZERO ISZERO DUP5 PUSH2 0x4022 JUMP JUMPDEST ADD MLOAD ISZERO ISZERO SWAP1 PUSH2 0x4502 JUMP JUMPDEST PUSH1 0x4 SLOAD PUSH0 NOT SWAP4 SWAP1 DUP5 DUP2 ADD SWAP1 DUP2 GT PUSH2 0xD6B JUMPI PUSH2 0x1AD4 SWAP1 PUSH2 0x4640 JUMP JUMPDEST PUSH1 0x4 SLOAD SWAP4 DUP5 ADD SWAP4 DUP5 GT PUSH2 0xD6B JUMPI PUSH32 0xB4B263AACBA851BDB25F2B7F384D8CC2C9AE8B1BA670C2C075242DE4803E2E77 SWAP3 PUSH2 0x1B1C PUSH2 0x1B2A SWAP4 PUSH1 0x40 MLOAD SWAP8 PUSH1 0x60 DUP10 MSTORE PUSH1 0x60 DUP10 ADD SWAP2 PUSH2 0x4726 JUMP JUMPDEST SWAP2 DUP7 DUP4 SUB PUSH1 0x20 DUP9 ADD MSTORE PUSH2 0x4726 JUMP JUMPDEST SWAP3 PUSH2 0x1B3A PUSH1 0x40 DUP3 ADD PUSH1 0x64 CALLDATALOAD PUSH2 0x4665 JUMP JUMPDEST DUP1 CALLER SWAP5 SUB SWAP1 LOG3 PUSH1 0x1 PUSH0 DUP1 MLOAD PUSH1 0x20 PUSH2 0x5FAF DUP4 CODECOPY DUP2 MLOAD SWAP2 MSTORE SSTORE STOP JUMPDEST ADD MLOAD SWAP1 POP DUP9 DUP1 PUSH2 0x1980 JUMP JUMPDEST SWAP3 POP PUSH1 0x3 DUP6 ADD PUSH0 MSTORE PUSH1 0x20 PUSH0 KECCAK256 SWAP1 PUSH0 SWAP4 JUMPDEST PUSH1 0x1F NOT DUP5 AND DUP6 LT PUSH2 0x1BB1 JUMPI PUSH1 0x1 SWAP5 POP DUP4 PUSH1 0x1F NOT DUP2 AND LT PUSH2 0x1B99 JUMPI JUMPDEST POP POP POP DUP2 SHL ADD PUSH1 0x3 DUP4 ADD SSTORE PUSH2 0x1997 JUMP JUMPDEST ADD MLOAD PUSH0 NOT PUSH1 0xF8 DUP5 PUSH1 0x3 SHL AND SHR NOT AND SWAP1 SSTORE DUP9 DUP1 DUP1 PUSH2 0x1B89 JUMP JUMPDEST DUP2 DUP2 ADD MLOAD DUP4 SSTORE PUSH1 0x20 SWAP5 DUP6 ADD SWAP5 PUSH1 0x1 SWAP1 SWAP4 ADD SWAP3 SWAP1 SWAP2 ADD SWAP1 PUSH2 0x1B6E JUMP JUMPDEST SWAP1 SWAP2 POP PUSH1 0x3 DUP6 ADD PUSH0 MSTORE PUSH1 0x20 PUSH0 KECCAK256 PUSH1 0x1F DUP5 ADD PUSH1 0x5 SHR DUP2 ADD PUSH1 0x20 DUP6 LT PUSH2 0x1C15 JUMPI JUMPDEST SWAP1 DUP5 SWAP4 SWAP3 SWAP2 JUMPDEST PUSH1 0x1F DUP4 ADD PUSH1 0x5 SHR DUP3 ADD DUP2 LT PUSH2 0x1C07 JUMPI POP POP PUSH2 0x196A JUMP JUMPDEST PUSH0 DUP2 SSTORE DUP6 SWAP5 POP PUSH1 0x1 ADD PUSH2 0x1BF1 JUMP JUMPDEST POP DUP1 PUSH2 0x1BEB JUMP JUMPDEST PUSH4 0x4E487B71 PUSH1 0xE0 SHL PUSH0 MSTORE PUSH1 0x41 PUSH1 0x4 MSTORE PUSH1 0x24 PUSH0 REVERT JUMPDEST ADD MLOAD SWAP1 POP DUP9 DUP1 PUSH2 0x1925 JUMP JUMPDEST SWAP3 POP PUSH1 0x2 DUP6 ADD PUSH0 MSTORE PUSH1 0x20 PUSH0 KECCAK256 SWAP1 PUSH0 SWAP4 JUMPDEST PUSH1 0x1F NOT DUP5 AND DUP6 LT PUSH2 0x1C8E JUMPI PUSH1 0x1 SWAP5 POP DUP4 PUSH1 0x1F NOT DUP2 AND LT PUSH2 0x1C76 JUMPI JUMPDEST POP POP POP DUP2 SHL ADD PUSH1 0x2 DUP4 ADD SSTORE PUSH2 0x193C JUMP JUMPDEST ADD MLOAD PUSH0 NOT PUSH1 0xF8 DUP5 PUSH1 0x3 SHL AND SHR NOT AND SWAP1 SSTORE DUP9 DUP1 DUP1 PUSH2 0x1C66 JUMP JUMPDEST DUP2 DUP2 ADD MLOAD DUP4 SSTORE PUSH1 0x20 SWAP5 DUP6 ADD SWAP5 PUSH1 0x1 SWAP1 SWAP4 ADD SWAP3 SWAP1 SWAP2 ADD SWAP1 PUSH2 0x1C4B JUMP JUMPDEST SWAP1 SWAP2 POP PUSH1 0x2 DUP6 ADD PUSH0 MSTORE PUSH1 0x20 PUSH0 KECCAK256 PUSH1 0x1F DUP5 ADD PUSH1 0x5 SHR DUP2 ADD PUSH1 0x20 DUP6 LT PUSH2 0x1CF2 JUMPI JUMPDEST SWAP1 DUP5 SWAP4 SWAP3 SWAP2 JUMPDEST PUSH1 0x1F DUP4 ADD PUSH1 0x5 SHR DUP3 ADD DUP2 LT PUSH2 0x1CE4 JUMPI POP POP PUSH2 0x190F JUMP JUMPDEST PUSH0 DUP2 SSTORE DUP6 SWAP5 POP PUSH1 0x1 ADD PUSH2 0x1CCE JUMP JUMPDEST POP DUP1 PUSH2 0x1CC8 JUMP JUMPDEST ADD MLOAD SWAP1 POP DUP9 DUP1 PUSH2 0x18CA JUMP JUMPDEST SWAP3 POP PUSH1 0x1 DUP6 ADD PUSH0 MSTORE PUSH1 0x20 PUSH0 KECCAK256 SWAP1 PUSH0 SWAP4 JUMPDEST PUSH1 0x1F NOT DUP5 AND DUP6 LT PUSH2 0x1D57 JUMPI PUSH1 0x1 SWAP5 POP DUP4 PUSH1 0x1F NOT DUP2 AND LT PUSH2 0x1D3F JUMPI JUMPDEST POP POP POP DUP2 SHL ADD PUSH1 0x1 DUP4 ADD SSTORE PUSH2 0x18E1 JUMP JUMPDEST ADD MLOAD PUSH0 NOT PUSH1 0xF8 DUP5 PUSH1 0x3 SHL AND SHR NOT AND SWAP1 SSTORE DUP9 DUP1 DUP1 PUSH2 0x1D2F JUMP JUMPDEST DUP2 DUP2 ADD MLOAD DUP4 SSTORE PUSH1 0x20 SWAP5 DUP6 ADD SWAP5 PUSH1 0x1 SWAP1 SWAP4 ADD SWAP3 SWAP1 SWAP2 ADD SWAP1 PUSH2 0x1D14 JUMP JUMPDEST SWAP1 SWAP2 POP PUSH1 0x1 DUP6 ADD PUSH0 MSTORE PUSH1 0x20 PUSH0 KECCAK256 PUSH1 0x1F DUP5 ADD PUSH1 0x5 SHR DUP2 ADD PUSH1 0x20 DUP6 LT PUSH2 0x1DBB JUMPI JUMPDEST SWAP1 DUP5 SWAP4 SWAP3 SWAP2 JUMPDEST PUSH1 0x1F DUP4 ADD PUSH1 0x5 SHR DUP3 ADD DUP2 LT PUSH2 0x1DAD JUMPI POP POP PUSH2 0x18B4 JUMP JUMPDEST PUSH0 DUP2 SSTORE DUP6 SWAP5 POP PUSH1 0x1 ADD PUSH2 0x1D97 JUMP JUMPDEST POP DUP1 PUSH2 0x1D91 JUMP JUMPDEST PUSH4 0x4E487B71 PUSH1 0xE0 SHL PUSH0 MSTORE PUSH0 PUSH1 0x4 MSTORE PUSH1 0x24 PUSH0 REVERT JUMPDEST PUSH2 0x1DF2 PUSH0 DUP1 DUP1 DUP1 CALLVALUE PUSH1 0x1 DUP1 PUSH1 0xA0 SHL SUB PUSH1 0x2 SLOAD AND GAS CALL PUSH2 0x6F6 PUSH2 0x4093 JUMP JUMPDEST PUSH2 0x172B JUMP JUMPDEST POP PUSH1 0xC4 CALLDATALOAD PUSH2 0x1714 JUMP JUMPDEST POP PUSH1 0xA4 CALLDATALOAD PUSH2 0x170D JUMP JUMPDEST PUSH1 0x40 MLOAD PUSH3 0x461BCD PUSH1 0xE5 SHL DUP2 MSTORE PUSH1 0x20 PUSH1 0x4 DUP3 ADD MSTORE PUSH1 0xE PUSH1 0x24 DUP3 ADD MSTORE PUSH14 0x1A5B9D985B1A59081CDE5B589BDB PUSH1 0x92 SHL PUSH1 0x44 DUP3 ADD MSTORE PUSH1 0x64 SWAP1 REVERT JUMPDEST POP PUSH1 0xB DUP5 GT ISZERO PUSH2 0x16FE JUMP JUMPDEST PUSH1 0x40 MLOAD PUSH3 0x461BCD PUSH1 0xE5 SHL DUP2 MSTORE PUSH1 0x20 PUSH1 0x4 DUP3 ADD MSTORE PUSH1 0xC PUSH1 0x24 DUP3 ADD MSTORE PUSH12 0x696E76616C6964206E616D65 PUSH1 0xA0 SHL PUSH1 0x44 DUP3 ADD MSTORE PUSH1 0x64 SWAP1 REVERT JUMPDEST POP PUSH1 0x40 DUP7 GT ISZERO PUSH2 0x16EE JUMP JUMPDEST CALLVALUE PUSH2 0x4D9 JUMPI PUSH0 CALLDATASIZE PUSH1 0x3 NOT ADD SLT PUSH2 0x4D9 JUMPI PUSH1 0x20 PUSH1 0x7 SLOAD PUSH1 0x40 MLOAD SWAP1 DUP2 MSTORE RETURN JUMPDEST PUSH2 0x3BCA JUMP JUMPDEST CALLVALUE PUSH2 0x4D9 JUMPI PUSH1 0x20 CALLDATASIZE PUSH1 0x3 NOT ADD SLT PUSH2 0x4D9 JUMPI PUSH1 0x20 PUSH2 0x1EC9 PUSH1 0x4 CALLDATALOAD PUSH2 0x4672 JUMP JUMPDEST PUSH2 0x1ED6 PUSH1 0x40 MLOAD DUP1 SWAP3 PUSH2 0x3E97 JUMP JUMPDEST RETURN JUMPDEST PUSH2 0x1EE1 CALLDATASIZE PUSH2 0x3EDC JUMP JUMPDEST SWAP1 SWAP2 PUSH2 0x1EEE SWAP5 SWAP4 SWAP5 PUSH2 0x47E0 JUMP JUMPDEST PUSH1 0x4 SLOAD DUP5 LT ISZERO PUSH2 0x745 JUMPI PUSH2 0x1F01 DUP5 PUSH2 0x3D61 JUMP JUMPDEST POP PUSH1 0xC DUP2 ADD SWAP4 PUSH1 0xFF DUP6 SLOAD AND PUSH1 0x7 DUP2 LT ISZERO PUSH2 0x6CA JUMPI PUSH1 0x4 SUB PUSH2 0x2053 JUMPI DUP3 DUP4 ISZERO PUSH2 0x204C JUMPI JUMPDEST DUP1 ISZERO PUSH2 0x2045 JUMPI JUMPDEST PUSH2 0x1F34 SWAP1 PUSH2 0x45B3 JUMP JUMPDEST PUSH2 0x1F3D DUP8 PUSH2 0x478A JUMP JUMPDEST CALLVALUE LT PUSH2 0x702 JUMPI CALLVALUE PUSH2 0x2023 JUMPI JUMPDEST PUSH2 0x1F52 DUP8 PUSH2 0x4482 JUMP JUMPDEST DUP3 SLOAD PUSH1 0x1 PUSH1 0x1 PUSH1 0xA0 SHL SUB NOT AND CALLER OR DUP4 SSTORE SWAP5 PUSH1 0x3 DUP9 LT ISZERO PUSH2 0x6CA JUMPI PUSH1 0x14 DUP4 PUSH2 0x65C SWAP3 PUSH2 0x1F93 PUSH2 0x1FC0 SWAP10 DUP13 PUSH1 0x9 PUSH2 0x662 SWAP10 ADD SSTORE TIMESTAMP PUSH1 0x8 DUP6 ADD SSTORE PUSH2 0x633 DUP2 TIMESTAMP PUSH2 0x4119 JUMP JUMPDEST PUSH1 0xB DUP4 ADD SSTORE PUSH0 PUSH1 0x4 DUP4 ADD SSTORE PUSH0 PUSH1 0x5 DUP4 ADD SSTORE PUSH0 PUSH1 0x6 DUP4 ADD SSTORE PUSH0 PUSH1 0x7 DUP4 ADD SSTORE PUSH1 0xFF NOT DUP2 SLOAD AND SWAP1 SSTORE ADD SWAP4 DUP5 PUSH2 0x429A JUMP JUMPDEST PUSH2 0x1FC9 DUP2 PUSH2 0x5541 JUMP JUMPDEST ISZERO PUSH2 0x2015 JUMPI JUMPDEST PUSH2 0x1FDC PUSH1 0x40 MLOAD DUP1 SWAP4 PUSH2 0x4665 JUMP JUMPDEST PUSH32 0xCA784B215E9ED8B39BD99320E31C5F22F970965A1AB7485768D5AA78CFCE318C PUSH1 0x20 CALLER SWAP4 LOG3 PUSH1 0x1 PUSH0 DUP1 MLOAD PUSH1 0x20 PUSH2 0x5FAF DUP4 CODECOPY DUP2 MLOAD SWAP2 MSTORE SSTORE STOP JUMPDEST PUSH2 0x201E DUP2 PUSH2 0x4640 JUMP JUMPDEST PUSH2 0x1FCF JUMP JUMPDEST PUSH2 0x2040 PUSH0 DUP1 DUP1 DUP1 CALLVALUE PUSH1 0x1 DUP1 PUSH1 0xA0 SHL SUB PUSH1 0x2 SLOAD AND GAS CALL PUSH2 0x6F6 PUSH2 0x4093 JUMP JUMPDEST PUSH2 0x1F49 JUMP JUMPDEST POP DUP4 PUSH2 0x1F2B JUMP JUMPDEST POP DUP1 PUSH2 0x1F24 JUMP JUMPDEST PUSH1 0x40 MLOAD PUSH4 0xE24D8AAF PUSH1 0xE0 SHL DUP2 MSTORE PUSH1 0x4 SWAP1 REVERT JUMPDEST CALLVALUE PUSH2 0x4D9 JUMPI PUSH0 CALLDATASIZE PUSH1 0x3 NOT ADD SLT PUSH2 0x4D9 JUMPI PUSH0 SLOAD PUSH1 0x40 MLOAD PUSH1 0x1 PUSH1 0x1 PUSH1 0xA0 SHL SUB SWAP1 SWAP2 AND DUP2 MSTORE PUSH1 0x20 SWAP1 RETURN JUMPDEST CALLVALUE PUSH2 0x4D9 JUMPI PUSH1 0x20 CALLDATASIZE PUSH1 0x3 NOT ADD SLT PUSH2 0x4D9 JUMPI PUSH1 0x1 PUSH1 0x1 PUSH1 0xA0 SHL SUB PUSH2 0x20AD PUSH2 0x3B40 JUMP JUMPDEST AND PUSH0 MSTORE PUSH1 0xB PUSH1 0x20 MSTORE PUSH1 0x20 PUSH1 0x40 PUSH0 KECCAK256 SLOAD PUSH1 0x40 MLOAD SWAP1 DUP2 MSTORE RETURN JUMPDEST CALLVALUE PUSH2 0x4D9 JUMPI PUSH1 0x20 CALLDATASIZE PUSH1 0x3 NOT ADD SLT PUSH2 0x4D9 JUMPI PUSH1 0x4 CALLDATALOAD PUSH2 0x20E0 PUSH2 0x47E0 JUMP JUMPDEST PUSH1 0x3 SLOAD PUSH2 0x2106 SWAP1 DUP3 SWAP1 PUSH1 0x1 PUSH1 0x1 PUSH1 0xA0 SHL SUB AND PUSH2 0x20FD DUP2 ISZERO ISZERO PUSH2 0x451C JUMP JUMPDEST ADDRESS SWAP1 CALLER SWAP1 PUSH2 0x54D7 JUMP JUMPDEST PUSH2 0x2112 DUP2 PUSH1 0xF SLOAD PUSH2 0x4119 JUMP JUMPDEST PUSH1 0xF SSTORE PUSH1 0x40 MLOAD SWAP1 DUP2 MSTORE PUSH32 0xB8B27D0DB504FA5D914F1FD330347096E88D5FF94B6C612D32797E7C12A8F66F PUSH1 0x20 CALLER SWAP3 LOG2 PUSH1 0x1 PUSH0 DUP1 MLOAD PUSH1 0x20 PUSH2 0x5FAF DUP4 CODECOPY DUP2 MLOAD SWAP2 MSTORE SSTORE STOP JUMPDEST CALLVALUE PUSH2 0x4D9 JUMPI PUSH1 0x20 CALLDATASIZE PUSH1 0x3 NOT ADD SLT PUSH2 0x4D9 JUMPI PUSH1 0x4 CALLDATALOAD PUSH1 0x4 DUP2 LT ISZERO PUSH2 0x4D9 JUMPI PUSH2 0x8FF PUSH1 0x20 SWAP2 PUSH2 0x455D JUMP JUMPDEST CALLVALUE PUSH2 0x4D9 JUMPI PUSH0 CALLDATASIZE PUSH1 0x3 NOT ADD SLT PUSH2 0x4D9 JUMPI PUSH1 0x20 PUSH1 0xE SLOAD PUSH1 0x40 MLOAD SWAP1 DUP2 MSTORE RETURN JUMPDEST CALLVALUE PUSH2 0x4D9 JUMPI PUSH1 0x40 CALLDATASIZE PUSH1 0x3 NOT ADD SLT PUSH2 0x4D9 JUMPI PUSH1 0x4 CALLDATALOAD PUSH1 0x24 CALLDATALOAD PUSH1 0x4 DUP2 LT ISZERO PUSH2 0x4D9 JUMPI PUSH2 0x21C1 PUSH2 0x47E0 JUMP JUMPDEST PUSH2 0x21CC DUP3 ISZERO ISZERO PUSH2 0x438C JUMP JUMPDEST PUSH1 0x3 SLOAD PUSH1 0x1 PUSH1 0x1 PUSH1 0xA0 SHL SUB SWAP2 PUSH2 0x2277 SWAP2 PUSH2 0x21EF SWAP1 DUP6 SWAP1 DUP6 AND PUSH2 0x20FD DUP2 ISZERO ISZERO PUSH2 0x451C JUMP JUMPDEST DUP1 PUSH2 0x22AA JUMPI PUSH0 SWAP3 JUMPDEST CALLER PUSH0 MSTORE PUSH1 0xA PUSH1 0x20 MSTORE PUSH2 0x224E PUSH1 0x40 PUSH0 KECCAK256 SWAP5 DUP6 SLOAD SWAP6 DUP4 PUSH1 0x3 SLOAD AND SWAP2 PUSH1 0x40 MLOAD SWAP3 PUSH2 0x221D DUP5 PUSH2 0x3E46 JUMP JUMPDEST DUP4 MSTORE DUP9 PUSH1 0x20 DUP5 ADD MSTORE TIMESTAMP PUSH1 0x40 DUP5 ADD MSTORE PUSH2 0x2238 DUP7 PUSH1 0x60 DUP6 ADD PUSH2 0x428E JUMP JUMPDEST PUSH1 0x80 DUP4 ADD MSTORE PUSH0 PUSH1 0xA0 DUP4 ADD MSTORE TIMESTAMP PUSH1 0xC0 DUP4 ADD MSTORE PUSH2 0x42AB JUMP JUMPDEST PUSH2 0x225A DUP6 PUSH1 0xE SLOAD PUSH2 0x4119 JUMP JUMPDEST PUSH1 0xE SSTORE PUSH1 0x3 SLOAD AND SWAP4 PUSH1 0x40 MLOAD SWAP5 DUP6 MSTORE PUSH1 0x20 DUP6 ADD MSTORE PUSH1 0x40 DUP5 ADD SWAP1 PUSH2 0x3CF2 JUMP JUMPDEST PUSH1 0x60 DUP3 ADD MSTORE PUSH32 0xA39F1A52E5F1FE5D69CDB40252B07509E684F4EA2C5596791FF7564D21E859B4 PUSH1 0x80 CALLER SWAP3 LOG2 PUSH2 0xB6D PUSH2 0x48DA JUMP JUMPDEST PUSH2 0x22BC PUSH2 0x22B6 DUP3 PUSH2 0x455D JUMP JUMPDEST TIMESTAMP PUSH2 0x4119 JUMP JUMPDEST SWAP3 PUSH2 0x21F7 JUMP JUMPDEST PUSH2 0x3CD5 JUMP JUMPDEST CALLVALUE PUSH2 0x4D9 JUMPI PUSH1 0x20 CALLDATASIZE PUSH1 0x3 NOT ADD SLT PUSH2 0x4D9 JUMPI PUSH1 0x4 CALLDATALOAD PUSH2 0x22E3 PUSH2 0x5042 JUMP JUMPDEST PUSH1 0x1 DUP2 LT ISZERO DUP1 PUSH2 0x233B JUMPI JUMPDEST ISZERO PUSH2 0x22F8 JUMPI PUSH1 0x14 SSTORE STOP JUMPDEST PUSH1 0x40 MLOAD PUSH3 0x461BCD PUSH1 0xE5 SHL DUP2 MSTORE PUSH1 0x20 PUSH1 0x4 DUP3 ADD MSTORE PUSH1 0x1B PUSH1 0x24 DUP3 ADD MSTORE PUSH27 0x696E76616C6964206D6178206C61756E6368732070657220646179 PUSH1 0x28 SHL PUSH1 0x44 DUP3 ADD MSTORE PUSH1 0x64 SWAP1 REVERT JUMPDEST POP PUSH1 0x3 DUP2 GT ISZERO PUSH2 0x22EE JUMP JUMPDEST CALLVALUE PUSH2 0x4D9 JUMPI PUSH0 CALLDATASIZE PUSH1 0x3 NOT ADD SLT PUSH2 0x4D9 JUMPI PUSH2 0x235E PUSH2 0x5042 JUMP JUMPDEST PUSH0 DUP1 SLOAD PUSH1 0x1 PUSH1 0x1 PUSH1 0xA0 SHL SUB NOT DUP2 AND DUP3 SSTORE PUSH1 0x1 PUSH1 0x1 PUSH1 0xA0 SHL SUB AND PUSH0 DUP1 MLOAD PUSH1 0x20 PUSH2 0x5F8F DUP4 CODECOPY DUP2 MLOAD SWAP2 MSTORE DUP3 DUP1 LOG3 STOP JUMPDEST PUSH2 0x3D3F JUMP JUMPDEST CALLVALUE PUSH2 0x4D9 JUMPI PUSH1 0x20 DUP1 PUSH1 0x3 NOT CALLDATASIZE ADD SLT PUSH2 0x4D9 JUMPI PUSH1 0x4 CALLDATALOAD SWAP1 PUSH2 0x23AD PUSH2 0x47E0 JUMP JUMPDEST PUSH2 0x23BA PUSH1 0x4 SLOAD DUP4 LT PUSH2 0x3FA4 JUMP JUMPDEST PUSH2 0x23C3 DUP3 PUSH2 0x535A JUMP JUMPDEST PUSH1 0xC PUSH2 0x23CE DUP4 PUSH2 0x3D61 JUMP JUMPDEST POP ADD SLOAD PUSH1 0xFF DUP2 AND PUSH1 0x7 DUP2 LT ISZERO SWAP1 DUP2 PUSH2 0x6CA JUMPI PUSH1 0x2 DUP2 EQ SWAP2 DUP3 ISZERO PUSH2 0x255B JUMPI JUMPDEST DUP3 ISZERO PUSH2 0x254A JUMPI JUMPDEST POP POP ISZERO PUSH2 0x2517 JUMPI PUSH1 0x8 SHR PUSH1 0xFF AND PUSH2 0x24E4 JUMPI CALLER PUSH0 MSTORE PUSH1 0x9 DUP2 MSTORE PUSH1 0x40 PUSH0 KECCAK256 DUP3 PUSH0 MSTORE DUP2 MSTORE PUSH1 0x40 PUSH0 KECCAK256 PUSH1 0x3 DUP2 ADD DUP1 SLOAD PUSH2 0x242A PUSH1 0xFF DUP3 AND PUSH2 0x3FE4 JUMP JUMPDEST PUSH1 0xFF DUP2 PUSH1 0x10 SHR AND PUSH2 0x24AC JUMPI PUSH3 0xFF00FF NOT AND PUSH3 0x10000 OR SWAP1 SSTORE SLOAD SWAP1 PUSH0 SWAP1 DUP3 PUSH2 0x248E JUMPI JUMPDEST PUSH1 0x40 MLOAD SWAP3 DUP4 MSTORE DUP3 ADD MSTORE PUSH32 0x91380D7A866E5F3F1BE944F956D899F223E73D0E00A72070911FF812CEC6476 PUSH1 0x40 CALLER SWAP3 LOG3 PUSH1 0x1 PUSH0 DUP1 MLOAD PUSH1 0x20 PUSH2 0x5FAF DUP4 CODECOPY DUP2 MLOAD SWAP2 MSTORE SSTORE STOP JUMPDEST PUSH2 0x24A7 DUP3 DUP1 DUP1 DUP1 DUP8 CALLER GAS CALL PUSH2 0x24A1 PUSH2 0x4093 JUMP JUMPDEST POP PUSH2 0x43C6 JUMP JUMPDEST PUSH2 0x244C JUMP JUMPDEST PUSH1 0x40 MLOAD PUSH3 0x461BCD PUSH1 0xE5 SHL DUP2 MSTORE PUSH1 0x4 DUP2 ADD DUP6 SWAP1 MSTORE PUSH1 0x10 PUSH1 0x24 DUP3 ADD MSTORE PUSH16 0x185B1C9958591E481C99599D5B991959 PUSH1 0x82 SHL PUSH1 0x44 DUP3 ADD MSTORE PUSH1 0x64 SWAP1 REVERT JUMPDEST PUSH1 0x64 SWAP1 PUSH1 0x40 MLOAD SWAP1 PUSH3 0x461BCD PUSH1 0xE5 SHL DUP3 MSTORE PUSH1 0x4 DUP3 ADD MSTORE PUSH1 0xC PUSH1 0x24 DUP3 ADD MSTORE PUSH12 0x1DD85CC81B185D5B98DA1959 PUSH1 0xA2 SHL PUSH1 0x44 DUP3 ADD MSTORE REVERT JUMPDEST PUSH1 0x40 MLOAD PUSH3 0x461BCD PUSH1 0xE5 SHL DUP2 MSTORE PUSH1 0x4 DUP2 ADD DUP4 SWAP1 MSTORE PUSH1 0xB PUSH1 0x24 DUP3 ADD MSTORE PUSH11 0x1B9BDD08195E1C1A5C9959 PUSH1 0xAA SHL PUSH1 0x44 DUP3 ADD MSTORE PUSH1 0x64 SWAP1 REVERT JUMPDEST SWAP1 SWAP2 POP PUSH2 0x6CA JUMPI PUSH1 0x4 EQ DUP5 DUP1 PUSH2 0x23F3 JUMP JUMPDEST POP PUSH1 0x3 DUP2 EQ SWAP2 POP PUSH0 PUSH2 0x23EC JUMP JUMPDEST CALLVALUE PUSH2 0x4D9 JUMPI PUSH1 0x20 CALLDATASIZE PUSH1 0x3 NOT ADD SLT PUSH2 0x4D9 JUMPI PUSH1 0x4 CALLDATALOAD PUSH2 0x2584 PUSH2 0x47E0 JUMP JUMPDEST PUSH2 0x2591 PUSH1 0x4 SLOAD DUP3 LT PUSH2 0x3FA4 JUMP JUMPDEST PUSH2 0x259A DUP2 PUSH2 0x3D61 JUMP JUMPDEST POP DUP1 SLOAD PUSH1 0x1 PUSH1 0x1 PUSH1 0xA0 SHL SUB AND CALLER SUB PUSH2 0x2650 JUMPI PUSH1 0xFF PUSH1 0xC DUP3 ADD SLOAD AND PUSH1 0x7 DUP2 LT ISZERO PUSH2 0x6CA JUMPI PUSH9 0x1158E460913D00000 SWAP2 PUSH2 0x25D4 PUSH1 0x5 SWAP3 ISZERO PUSH2 0x44C9 JUMP JUMPDEST ADD SLOAD LT PUSH2 0x2612 JUMPI PUSH2 0x25E4 DUP2 PUSH2 0x5417 JUMP JUMPDEST CALLER SWAP1 PUSH32 0x6B1E5A8A4A9EC3960F3A4602AC75CD6DCAEA90D17A82BF5F0FD007A97AD507C6 PUSH0 DUP1 LOG3 PUSH2 0xB6D PUSH2 0x48DA JUMP JUMPDEST PUSH1 0x40 MLOAD PUSH3 0x461BCD PUSH1 0xE5 SHL DUP2 MSTORE PUSH1 0x20 PUSH1 0x4 DUP3 ADD MSTORE PUSH1 0x16 PUSH1 0x24 DUP3 ADD MSTORE PUSH22 0x18995B1BDDC81B185D5B98DA081D1A1C995CDA1BDB19 PUSH1 0x52 SHL PUSH1 0x44 DUP3 ADD MSTORE PUSH1 0x64 SWAP1 REVERT JUMPDEST PUSH1 0x40 MLOAD PUSH3 0x461BCD PUSH1 0xE5 SHL DUP2 MSTORE PUSH1 0x20 PUSH1 0x4 DUP3 ADD MSTORE PUSH1 0xC PUSH1 0x24 DUP3 ADD MSTORE PUSH12 0x3737BA10383937B837B9B2B9 PUSH1 0xA1 SHL PUSH1 0x44 DUP3 ADD MSTORE PUSH1 0x64 SWAP1 REVERT JUMPDEST CALLVALUE PUSH2 0x4D9 JUMPI PUSH0 CALLDATASIZE PUSH1 0x3 NOT ADD SLT PUSH2 0x4D9 JUMPI PUSH1 0x20 PUSH1 0xF SLOAD PUSH1 0x40 MLOAD SWAP1 DUP2 MSTORE RETURN JUMPDEST CALLVALUE PUSH2 0x4D9 JUMPI PUSH1 0x20 CALLDATASIZE PUSH1 0x3 NOT ADD SLT PUSH2 0x4D9 JUMPI PUSH1 0x7 SLOAD PUSH1 0x4 CALLDATALOAD PUSH2 0x26C2 DUP2 DUP4 PUSH2 0x4119 JUMP JUMPDEST PUSH1 0x6 SLOAD GT ISZERO PUSH2 0x26ED JUMPI PUSH2 0x26DA PUSH2 0x26DF SWAP2 PUSH1 0x20 SWAP4 PUSH2 0x4119 JUMP JUMPDEST PUSH2 0x3B82 JUMP JUMPDEST SWAP1 SLOAD PUSH1 0x40 MLOAD SWAP2 PUSH1 0x3 SHL SHR DUP2 MSTORE RETURN JUMPDEST PUSH1 0x40 MLOAD PUSH3 0x461BCD PUSH1 0xE5 SHL DUP2 MSTORE PUSH1 0x20 PUSH1 0x4 DUP3 ADD MSTORE PUSH1 0xD PUSH1 0x24 DUP3 ADD MSTORE PUSH13 0x6F7574206F6620626F756E6473 PUSH1 0x98 SHL PUSH1 0x44 DUP3 ADD MSTORE PUSH1 0x64 SWAP1 REVERT JUMPDEST CALLVALUE PUSH2 0x4D9 JUMPI PUSH0 CALLDATASIZE PUSH1 0x3 NOT ADD SLT PUSH2 0x4D9 JUMPI PUSH1 0x20 PUSH1 0x16 SLOAD PUSH1 0x40 MLOAD SWAP1 DUP2 MSTORE RETURN JUMPDEST CALLVALUE PUSH2 0x4D9 JUMPI PUSH1 0x20 CALLDATASIZE PUSH1 0x3 NOT ADD SLT PUSH2 0x4D9 JUMPI PUSH1 0x4 CALLDATALOAD PUSH1 0x6 SLOAD DUP2 LT ISZERO PUSH2 0x4D9 JUMPI PUSH2 0x26DF PUSH1 0x20 SWAP2 PUSH2 0x3B82 JUMP JUMPDEST CALLVALUE PUSH2 0x4D9 JUMPI PUSH0 CALLDATASIZE PUSH1 0x3 NOT ADD SLT PUSH2 0x4D9 JUMPI PUSH1 0x20 PUSH1 0xFF PUSH1 0x3 SLOAD PUSH1 0xA0 SHR AND PUSH1 0x40 MLOAD SWAP1 ISZERO ISZERO DUP2 MSTORE RETURN JUMPDEST CALLVALUE PUSH2 0x4D9 JUMPI PUSH0 CALLDATASIZE PUSH1 0x3 NOT ADD SLT PUSH2 0x4D9 JUMPI PUSH1 0x20 PUSH1 0x13 SLOAD PUSH1 0x40 MLOAD SWAP1 DUP2 MSTORE RETURN JUMPDEST CALLVALUE PUSH2 0x4D9 JUMPI PUSH1 0x20 CALLDATASIZE PUSH1 0x3 NOT ADD SLT PUSH2 0x4D9 JUMPI PUSH1 0x4 CALLDATALOAD PUSH1 0x3 DUP2 LT ISZERO PUSH2 0x4D9 JUMPI PUSH2 0x8FF PUSH1 0x20 SWAP2 PUSH2 0x4482 JUMP JUMPDEST CALLVALUE PUSH2 0x4D9 JUMPI PUSH0 CALLDATASIZE PUSH1 0x3 NOT ADD SLT PUSH2 0x4D9 JUMPI PUSH1 0x20 PUSH1 0x12 SLOAD PUSH1 0x40 MLOAD SWAP1 DUP2 MSTORE RETURN JUMPDEST PUSH1 0x20 DUP1 PUSH1 0x3 NOT CALLDATASIZE ADD SLT PUSH2 0x4D9 JUMPI PUSH1 0x4 CALLDATALOAD SWAP1 PUSH2 0x2808 PUSH2 0x47E0 JUMP JUMPDEST PUSH2 0x2815 PUSH1 0x4 SLOAD DUP4 LT PUSH2 0x3FA4 JUMP JUMPDEST PUSH8 0xDE0B6B3A7640000 CALLVALUE LT PUSH2 0x29C1 JUMPI PUSH2 0x282C PUSH2 0x520B JUMP JUMPDEST PUSH2 0x2835 DUP3 PUSH2 0x535A JUMP JUMPDEST PUSH2 0x283E DUP3 PUSH2 0x3D61 JUMP JUMPDEST POP SWAP1 PUSH1 0xC DUP3 ADD PUSH1 0xFF DUP2 SLOAD AND PUSH1 0x7 DUP2 LT ISZERO PUSH2 0x6CA JUMPI DUP1 PUSH2 0x2865 SWAP2 ISZERO SWAP1 DUP2 ISZERO PUSH2 0xBB8 JUMPI POP PUSH2 0x4404 JUMP JUMPDEST PUSH2 0x2710 DUP1 CALLVALUE MUL SWAP1 CALLVALUE DUP3 DIV EQ CALLVALUE ISZERO OR ISZERO PUSH2 0xD6B JUMPI PUSH1 0xFF SWAP3 PUSH9 0x56BC75E2D63100000 DUP7 SWAP3 DIV CALLER PUSH0 MSTORE PUSH1 0x9 DUP3 MSTORE PUSH1 0x40 PUSH0 KECCAK256 DUP4 PUSH0 MSTORE DUP3 MSTORE PUSH1 0x3 PUSH1 0x40 PUSH0 KECCAK256 PUSH2 0x28A9 CALLVALUE DUP3 SLOAD PUSH2 0x4119 JUMP JUMPDEST DUP2 SSTORE TIMESTAMP PUSH1 0x2 DUP3 ADD SSTORE ADD DUP6 NOT SWAP1 PUSH1 0x1 DUP3 DUP3 SLOAD AND OR SWAP1 SSTORE DUP4 PUSH0 MSTORE PUSH1 0x11 DUP4 MSTORE PUSH1 0x40 PUSH0 KECCAK256 CALLER PUSH0 MSTORE DUP4 MSTORE DUP6 PUSH1 0x40 PUSH0 KECCAK256 SLOAD AND ISZERO PUSH2 0x298A JUMPI JUMPDEST POP PUSH1 0x7 PUSH1 0x5 DUP8 ADD SWAP7 PUSH2 0x28EE CALLVALUE DUP10 SLOAD PUSH2 0x4119 JUMP JUMPDEST DUP1 SWAP9 SSTORE PUSH1 0x4 DUP2 ADD PUSH2 0x2900 DUP5 DUP3 SLOAD PUSH2 0x4119 JUMP JUMPDEST SWAP1 SSTORE ADD PUSH2 0x290E DUP3 DUP3 SLOAD PUSH2 0x4119 JUMP JUMPDEST SWAP1 SSTORE PUSH0 PUSH1 0x40 MLOAD SWAP3 CALLVALUE DUP5 MSTORE DUP4 ADD MSTORE PUSH1 0x40 DUP3 ADD MSTORE PUSH32 0x9542AF2E322BD6C92465B36FB8F408F061D0A277DFEFD940840F1F348E001474 PUSH1 0x60 CALLER SWAP3 LOG3 SLOAD AND PUSH1 0x7 DUP2 LT ISZERO PUSH2 0x6CA JUMPI ISZERO SWAP1 DUP2 PUSH2 0x2976 JUMPI JUMPDEST POP PUSH2 0x2967 JUMPI JUMPDEST PUSH2 0xB6D PUSH2 0x48DA JUMP JUMPDEST PUSH2 0x2970 SWAP1 PUSH2 0x5417 JUMP JUMPDEST DUP1 PUSH2 0x295F JUMP JUMPDEST PUSH9 0x1158E460913D00000 SWAP2 POP LT ISZERO DUP3 PUSH2 0x2959 JUMP JUMPDEST DUP4 PUSH0 MSTORE PUSH1 0x11 DUP4 MSTORE PUSH1 0x40 PUSH0 KECCAK256 CALLER PUSH0 MSTORE DUP4 MSTORE PUSH1 0x1 PUSH1 0x40 PUSH0 KECCAK256 SWAP2 DUP3 SLOAD AND OR SWAP1 SSTORE DUP3 PUSH0 MSTORE PUSH1 0x10 DUP3 MSTORE PUSH2 0x29BB CALLER PUSH1 0x40 PUSH0 KECCAK256 PUSH2 0x4447 JUMP JUMPDEST DUP8 PUSH2 0x28DB JUMP JUMPDEST PUSH1 0x64 SWAP1 PUSH1 0x40 MLOAD SWAP1 PUSH3 0x461BCD PUSH1 0xE5 SHL DUP3 MSTORE PUSH1 0x4 DUP3 ADD MSTORE PUSH1 0x13 PUSH1 0x24 DUP3 ADD MSTORE PUSH19 0x62656C6F77206D696E20737562736372696265 PUSH1 0x68 SHL PUSH1 0x44 DUP3 ADD MSTORE REVERT JUMPDEST CALLVALUE PUSH2 0x4D9 JUMPI PUSH0 CALLDATASIZE PUSH1 0x3 NOT ADD SLT PUSH2 0x4D9 JUMPI PUSH1 0x20 PUSH1 0x40 MLOAD PUSH8 0x8AC7230489E80000 DUP2 MSTORE RETURN JUMPDEST CALLVALUE PUSH2 0x4D9 JUMPI PUSH2 0x2A2B CALLDATASIZE PUSH2 0x3EA4 JUMP JUMPDEST SWAP1 PUSH0 MSTORE PUSH1 0x10 PUSH1 0x20 MSTORE PUSH1 0x40 PUSH0 KECCAK256 DUP1 SLOAD DUP3 LT ISZERO PUSH2 0x4D9 JUMPI PUSH1 0x20 SWAP2 PUSH2 0x2A4C SWAP2 PUSH2 0x3B9A JUMP JUMPDEST SWAP1 SLOAD PUSH1 0x40 MLOAD PUSH1 0x3 SWAP3 SWAP1 SWAP3 SHL SHR PUSH1 0x1 PUSH1 0x1 PUSH1 0xA0 SHL SUB AND DUP2 MSTORE RETURN JUMPDEST CALLVALUE PUSH2 0x4D9 JUMPI PUSH1 0x20 CALLDATASIZE PUSH1 0x3 NOT ADD SLT PUSH2 0x4D9 JUMPI PUSH1 0x1 PUSH1 0x1 PUSH1 0xA0 SHL SUB PUSH2 0x2A86 PUSH2 0x3B40 JUMP JUMPDEST AND PUSH0 MSTORE PUSH1 0xA PUSH1 0x20 MSTORE PUSH1 0x20 PUSH1 0x40 PUSH0 KECCAK256 SLOAD PUSH1 0x40 MLOAD SWAP1 DUP2 MSTORE RETURN JUMPDEST CALLVALUE PUSH2 0x4D9 JUMPI PUSH0 CALLDATASIZE PUSH1 0x3 NOT ADD SLT PUSH2 0x4D9 JUMPI PUSH1 0x20 PUSH1 0x40 MLOAD PUSH2 0x1F4 DUP2 MSTORE RETURN JUMPDEST CALLVALUE PUSH2 0x4D9 JUMPI PUSH0 CALLDATASIZE PUSH1 0x3 NOT ADD SLT PUSH2 0x4D9 JUMPI PUSH1 0x20 PUSH1 0x40 MLOAD PUSH3 0x76A700 DUP2 MSTORE RETURN JUMPDEST CALLVALUE PUSH2 0x4D9 JUMPI PUSH1 0x20 DUP1 PUSH1 0x3 NOT CALLDATASIZE ADD SLT PUSH2 0x4D9 JUMPI PUSH1 0x4 CALLDATALOAD SWAP1 PUSH2 0x2AF4 PUSH2 0x47E0 JUMP JUMPDEST CALLER PUSH0 MSTORE PUSH1 0xA DUP2 MSTORE PUSH1 0x40 PUSH0 KECCAK256 SLOAD DUP3 LT ISZERO PUSH2 0x2CAC JUMPI CALLER PUSH0 MSTORE PUSH1 0xA DUP2 MSTORE PUSH2 0x2B1B DUP3 PUSH1 0x40 PUSH0 KECCAK256 PUSH2 0x3F8B JUMP JUMPDEST POP PUSH1 0x5 DUP2 ADD PUSH1 0xFF DUP2 SLOAD AND PUSH2 0x2C73 JUMPI PUSH1 0x1 DUP3 ADD SWAP1 PUSH2 0x2B3A DUP3 SLOAD ISZERO ISZERO PUSH2 0x438C JUMP JUMPDEST PUSH1 0x4 DUP4 ADD SLOAD DUP1 PUSH2 0x2C34 JUMPI JUMPDEST POP PUSH2 0x2B4F DUP4 PUSH2 0x50AD JUMP JUMPDEST DUP1 PUSH2 0x2C16 JUMPI JUMPDEST POP DUP1 SLOAD PUSH1 0xFF NOT AND PUSH1 0x1 OR SWAP1 SSTORE SLOAD SWAP1 SLOAD SWAP1 SWAP2 PUSH1 0x1 PUSH1 0x1 PUSH1 0xA0 SHL SUB SWAP2 DUP3 AND SWAP2 DUP3 PUSH2 0x2BE1 JUMPI POP PUSH2 0x2B84 DUP4 PUSH1 0xD SLOAD PUSH2 0x406B JUMP JUMPDEST PUSH1 0xD SSTORE PUSH2 0x2B9A PUSH0 DUP1 DUP1 DUP1 DUP8 CALLER GAS CALL PUSH2 0x24A1 PUSH2 0x4093 JUMP JUMPDEST PUSH1 0x40 MLOAD SWAP4 DUP5 MSTORE DUP4 ADD MSTORE PUSH1 0x40 DUP3 ADD MSTORE PUSH32 0x31AFC885C1072F7B78BED205F5E5DB4D16B4AAB433352079E8388EEF35DABF0D PUSH1 0x60 CALLER SWAP3 LOG2 PUSH1 0x1 PUSH0 DUP1 MLOAD PUSH1 0x20 PUSH2 0x5FAF DUP4 CODECOPY DUP2 MLOAD SWAP2 MSTORE SSTORE STOP JUMPDEST PUSH1 0x3 SLOAD AND DUP4 DUP2 DUP5 EQ PUSH2 0x2BF5 JUMPI JUMPDEST POP POP PUSH2 0x2B9A JUMP JUMPDEST PUSH2 0x2C0F SWAP2 PUSH2 0x2C05 DUP3 PUSH1 0xE SLOAD PUSH2 0x406B JUMP JUMPDEST PUSH1 0xE SSTORE CALLER SWAP1 PUSH2 0x480F JUMP JUMPDEST DUP5 DUP4 PUSH2 0x2BEE JUMP JUMPDEST CALLER PUSH0 MSTORE PUSH1 0xB DUP6 MSTORE PUSH2 0x2C2C PUSH1 0x40 PUSH0 KECCAK256 SWAP2 DUP3 SLOAD PUSH2 0x4119 JUMP JUMPDEST SWAP1 SSTORE DUP6 PUSH2 0x2B55 JUMP JUMPDEST TIMESTAMP LT PUSH2 0x2C40 JUMPI DUP6 PUSH2 0x2B45 JUMP JUMPDEST PUSH1 0x40 MLOAD PUSH3 0x461BCD PUSH1 0xE5 SHL DUP2 MSTORE PUSH1 0x4 DUP2 ADD DUP6 SWAP1 MSTORE PUSH1 0xB PUSH1 0x24 DUP3 ADD MSTORE PUSH11 0x1B9BDD081B585D1D5C9959 PUSH1 0xAA SHL PUSH1 0x44 DUP3 ADD MSTORE PUSH1 0x64 SWAP1 REVERT JUMPDEST PUSH1 0x40 MLOAD PUSH3 0x461BCD PUSH1 0xE5 SHL DUP2 MSTORE PUSH1 0x4 DUP2 ADD DUP5 SWAP1 MSTORE PUSH1 0x11 PUSH1 0x24 DUP3 ADD MSTORE PUSH17 0x30B63932B0B23C903BB4BA34323930BBB7 PUSH1 0x79 SHL PUSH1 0x44 DUP3 ADD MSTORE PUSH1 0x64 SWAP1 REVERT JUMPDEST PUSH1 0x64 SWAP1 PUSH1 0x40 MLOAD SWAP1 PUSH3 0x461BCD PUSH1 0xE5 SHL DUP3 MSTORE PUSH1 0x4 DUP3 ADD MSTORE PUSH1 0x10 PUSH1 0x24 DUP3 ADD MSTORE PUSH16 0x34B73B30B634B2103837B9B4BA34B7B7 PUSH1 0x81 SHL PUSH1 0x44 DUP3 ADD MSTORE REVERT JUMPDEST CALLVALUE PUSH2 0x4D9 JUMPI PUSH1 0x20 CALLDATASIZE PUSH1 0x3 NOT ADD SLT PUSH2 0x4D9 JUMPI PUSH1 0x20 PUSH2 0x8FF PUSH2 0x2D01 PUSH2 0x3B40 JUMP JUMPDEST PUSH2 0x4349 JUMP JUMPDEST CALLVALUE PUSH2 0x4D9 JUMPI PUSH0 CALLDATASIZE PUSH1 0x3 NOT ADD SLT PUSH2 0x4D9 JUMPI PUSH1 0x6 SLOAD PUSH2 0x2D26 PUSH1 0x7 SLOAD DUP1 SWAP3 PUSH2 0x406B JUMP JUMPDEST SWAP1 PUSH2 0x2D30 DUP3 PUSH2 0x41FF JUMP JUMPDEST SWAP1 PUSH2 0x2D3A DUP4 PUSH2 0x4231 JUMP JUMPDEST PUSH2 0x2D43 DUP5 PUSH2 0x4231 JUMP JUMPDEST SWAP4 PUSH2 0x2D4D DUP2 PUSH2 0x41FF JUMP JUMPDEST SWAP3 PUSH0 JUMPDEST DUP3 DUP2 LT PUSH2 0x2D89 JUMPI PUSH2 0x10E8 DUP7 PUSH2 0xA20 DUP8 PUSH2 0x2D7B DUP12 PUSH2 0x12C0 DUP11 PUSH1 0x40 MLOAD SWAP8 DUP9 SWAP8 PUSH1 0x80 DUP10 MSTORE PUSH1 0x80 DUP10 ADD SWAP1 PUSH2 0x3C08 JUMP JUMPDEST SWAP1 DUP4 DUP3 SUB PUSH1 0x60 DUP6 ADD MSTORE PUSH2 0x3C08 JUMP JUMPDEST DUP1 PUSH1 0x12 PUSH2 0x2DFD PUSH2 0x2D9E PUSH2 0x26DA PUSH1 0x1 SWAP6 DUP8 PUSH2 0x4119 JUMP JUMPDEST SWAP1 SLOAD SWAP1 PUSH1 0x3 SHL SHR DUP1 PUSH2 0x2DB0 DUP6 DUP13 PUSH2 0x427A JUMP JUMPDEST MSTORE DUP5 PUSH2 0x2DBE PUSH2 0x115C DUP4 PUSH2 0x3D61 JUMP JUMPDEST PUSH2 0x2DC8 DUP6 DUP11 PUSH2 0x427A JUMP JUMPDEST MSTORE PUSH2 0x2DD3 DUP5 DUP10 PUSH2 0x427A JUMP JUMPDEST POP PUSH1 0x2 PUSH2 0x2DE2 PUSH2 0x115C DUP4 PUSH2 0x3D61 JUMP JUMPDEST PUSH2 0x2DEC DUP6 DUP14 PUSH2 0x427A JUMP JUMPDEST MSTORE PUSH2 0x2DF7 DUP5 DUP13 PUSH2 0x427A JUMP JUMPDEST POP PUSH2 0x3D61 JUMP JUMPDEST POP ADD SLOAD PUSH2 0x2E0A DUP3 DUP9 PUSH2 0x427A JUMP JUMPDEST MSTORE ADD PUSH2 0x2D50 JUMP JUMPDEST CALLVALUE PUSH2 0x4D9 JUMPI PUSH1 0x20 CALLDATASIZE PUSH1 0x3 NOT ADD SLT PUSH2 0x4D9 JUMPI PUSH2 0x2E2A PUSH2 0x3B40 JUMP JUMPDEST PUSH2 0x2E32 PUSH2 0x5042 JUMP JUMPDEST PUSH1 0x1 DUP1 SLOAD PUSH1 0x1 PUSH1 0x1 PUSH1 0xA0 SHL SUB NOT AND PUSH1 0x1 PUSH1 0x1 PUSH1 0xA0 SHL SUB SWAP3 SWAP1 SWAP3 AND SWAP2 SWAP1 SWAP2 OR SWAP1 SSTORE STOP JUMPDEST CALLVALUE PUSH2 0x4D9 JUMPI PUSH0 CALLDATASIZE PUSH1 0x3 NOT ADD SLT PUSH2 0x4D9 JUMPI PUSH2 0x295F PUSH2 0x47E0 JUMP JUMPDEST CALLVALUE PUSH2 0x4D9 JUMPI PUSH0 CALLDATASIZE PUSH1 0x3 NOT ADD SLT PUSH2 0x4D9 JUMPI PUSH1 0x20 PUSH1 0x40 MLOAD PUSH8 0x6F05B59D3B20000 DUP2 MSTORE RETURN JUMPDEST CALLVALUE PUSH2 0x4D9 JUMPI PUSH1 0x60 CALLDATASIZE PUSH1 0x3 NOT ADD SLT PUSH2 0x4D9 JUMPI PUSH1 0x4 CALLDATALOAD DUP1 ISZERO DUP1 ISZERO SWAP2 DUP3 DUP2 SUB PUSH2 0x4D9 JUMPI PUSH1 0x24 CALLDATALOAD SWAP2 DUP3 ISZERO ISZERO SWAP3 DUP4 DUP2 SUB PUSH2 0x4D9 JUMPI PUSH1 0x44 CALLDATALOAD SWAP1 DUP2 ISZERO ISZERO SWAP4 DUP5 DUP4 SUB PUSH2 0x4D9 JUMPI PUSH2 0x2ED4 PUSH2 0x5042 JUMP JUMPDEST SWAP3 PUSH2 0x2F66 JUMPI JUMPDEST POP DUP2 ISZERO PUSH2 0x2F5E JUMPI JUMPDEST POP ISZERO PUSH2 0x2F20 JUMPI PUSH1 0x3 SLOAD SWAP1 PUSH1 0xFF PUSH1 0xB0 SHL SWAP1 PUSH1 0xB0 SHL AND SWAP3 PUSH1 0xFF PUSH1 0xA0 SHL SWAP1 PUSH1 0xA0 SHL AND SWAP1 PUSH3 0xFFFFFF PUSH1 0xA0 SHL NOT AND OR SWAP1 PUSH1 0xFF PUSH1 0xA8 SHL SWAP1 PUSH1 0xA8 SHL AND OR OR PUSH1 0x3 SSTORE PUSH0 DUP1 RETURN JUMPDEST PUSH1 0x40 MLOAD PUSH3 0x461BCD PUSH1 0xE5 SHL DUP2 MSTORE PUSH1 0x20 PUSH1 0x4 DUP3 ADD MSTORE PUSH1 0x16 PUSH1 0x24 DUP3 ADD MSTORE PUSH22 0x6D7573742063686F6F7365206174206C656173742031 PUSH1 0x50 SHL PUSH1 0x44 DUP3 ADD MSTORE PUSH1 0x64 SWAP1 REVERT JUMPDEST SWAP1 POP DUP5 PUSH2 0x2EE2 JUMP JUMPDEST SWAP2 POP DUP6 PUSH2 0x2EDA JUMP JUMPDEST CALLVALUE PUSH2 0x4D9 JUMPI PUSH1 0x20 CALLDATASIZE PUSH1 0x3 NOT ADD SLT PUSH2 0x4D9 JUMPI PUSH1 0x4 CALLDATALOAD PUSH2 0x2F8A PUSH2 0x5042 JUMP JUMPDEST PUSH1 0x18 DUP2 LT ISZERO PUSH2 0x2F98 JUMPI PUSH1 0x15 SSTORE STOP JUMPDEST PUSH1 0x40 MLOAD PUSH3 0x461BCD PUSH1 0xE5 SHL DUP2 MSTORE PUSH1 0x20 PUSH1 0x4 DUP3 ADD MSTORE PUSH1 0xC PUSH1 0x24 DUP3 ADD MSTORE PUSH12 0x34B73B30B634B2103437BAB9 PUSH1 0xA1 SHL PUSH1 0x44 DUP3 ADD MSTORE PUSH1 0x64 SWAP1 REVERT JUMPDEST CALLVALUE PUSH2 0x4D9 JUMPI PUSH0 CALLDATASIZE PUSH1 0x3 NOT ADD SLT PUSH2 0x4D9 JUMPI PUSH1 0x20 PUSH1 0x40 MLOAD PUSH3 0xED4E00 DUP2 MSTORE RETURN JUMPDEST CALLVALUE PUSH2 0x4D9 JUMPI PUSH0 CALLDATASIZE PUSH1 0x3 NOT ADD SLT PUSH2 0x4D9 JUMPI PUSH1 0x20 PUSH1 0x40 MLOAD PUSH2 0x12C DUP2 MSTORE RETURN JUMPDEST CALLVALUE PUSH2 0x4D9 JUMPI PUSH1 0x20 CALLDATASIZE PUSH1 0x3 NOT ADD SLT PUSH2 0x4D9 JUMPI PUSH1 0x4 CALLDATALOAD PUSH0 MSTORE PUSH1 0x18 PUSH1 0x20 MSTORE PUSH1 0xA0 PUSH1 0x40 PUSH0 KECCAK256 PUSH1 0xFF DUP2 SLOAD SWAP2 PUSH1 0x2 PUSH1 0x1 DUP3 ADD SLOAD SWAP2 ADD SLOAD SWAP1 PUSH1 0x40 MLOAD SWAP4 DUP5 MSTORE PUSH1 0x20 DUP5 ADD MSTORE DUP2 DUP2 AND ISZERO ISZERO PUSH1 0x40 DUP5 ADD MSTORE DUP2 DUP2 PUSH1 0x8 SHR AND ISZERO ISZERO PUSH1 0x60 DUP5 ADD MSTORE PUSH1 0x10 SHR AND ISZERO ISZERO PUSH1 0x80 DUP3 ADD MSTORE RETURN JUMPDEST CALLVALUE PUSH2 0x4D9 JUMPI PUSH1 0x20 CALLDATASIZE PUSH1 0x3 NOT ADD SLT PUSH2 0x4D9 JUMPI PUSH1 0x4 CALLDATALOAD PUSH1 0x4 SLOAD DUP2 LT ISZERO PUSH2 0x4D9 JUMPI PUSH2 0x308C SWAP1 PUSH2 0x3D61 JUMP JUMPDEST POP DUP1 SLOAD PUSH1 0x40 MLOAD PUSH2 0x140 DUP2 SWAP1 MSTORE PUSH1 0x1 PUSH1 0x1 PUSH1 0xA0 SHL SUB SWAP1 SWAP2 AND SWAP2 SWAP1 PUSH2 0x30B2 DUP2 PUSH1 0x1 DUP5 ADD PUSH2 0x3DB5 JUMP JUMPDEST SUB PUSH2 0x140 MLOAD SWAP1 PUSH2 0x30C1 SWAP2 PUSH2 0x3E74 JUMP JUMPDEST PUSH1 0x40 MLOAD PUSH2 0x160 DUP2 SWAP1 MSTORE PUSH2 0x30D7 DUP2 PUSH1 0x2 DUP5 ADD PUSH2 0x3DB5 JUMP JUMPDEST SUB PUSH2 0x160 MLOAD SWAP1 PUSH2 0x30E6 SWAP2 PUSH2 0x3E74 JUMP JUMPDEST PUSH1 0x40 MLOAD PUSH2 0x180 DUP2 SWAP1 MSTORE PUSH2 0x30FC DUP2 PUSH1 0x3 DUP5 ADD PUSH2 0x3DB5 JUMP JUMPDEST SUB PUSH2 0x180 MLOAD SWAP1 PUSH2 0x310B SWAP2 PUSH2 0x3E74 JUMP JUMPDEST PUSH1 0x4 DUP2 ADD SLOAD PUSH2 0x120 MSTORE PUSH1 0x5 DUP2 ADD SLOAD SWAP2 PUSH1 0x6 DUP3 ADD SLOAD PUSH1 0x7 DUP4 ADD SLOAD PUSH1 0x8 DUP5 ADD SLOAD PUSH1 0x9 DUP6 ADD SLOAD PUSH1 0xA DUP7 ADD SLOAD PUSH1 0xB DUP8 ADD SLOAD SWAP2 PUSH1 0xC DUP9 ADD SLOAD SWAP4 PUSH1 0xD DUP10 ADD SLOAD SWAP6 PUSH1 0xE DUP11 ADD SLOAD SWAP8 PUSH1 0xF DUP12 ADD SLOAD SWAP10 PUSH1 0x10 DUP13 ADD SLOAD SWAP12 PUSH1 0x11 DUP2 ADD SLOAD PUSH1 0x80 MSTORE PUSH1 0x12 DUP2 ADD SLOAD PUSH1 0xA0 MSTORE PUSH1 0x13 DUP2 ADD SLOAD PUSH1 0xE0 MSTORE PUSH1 0x14 ADD SLOAD PUSH2 0x100 MSTORE PUSH1 0x40 MLOAD PUSH1 0xC0 MSTORE PUSH2 0x320 SWAP1 PUSH1 0xC0 MLOAD MSTORE DUP1 PUSH1 0xC0 MLOAD PUSH1 0x20 ADD MSTORE PUSH1 0xC0 MLOAD ADD PUSH2 0x140 MLOAD SWAP1 PUSH2 0x319F SWAP2 PUSH2 0x3C3B JUMP JUMPDEST PUSH1 0xC0 MLOAD DUP2 SUB PUSH1 0xC0 MLOAD PUSH1 0x40 ADD MSTORE PUSH2 0x160 MLOAD SWAP1 PUSH2 0x31B9 SWAP2 PUSH2 0x3C3B JUMP JUMPDEST PUSH1 0xC0 MLOAD DUP2 SUB PUSH1 0xC0 MLOAD PUSH1 0x60 ADD MSTORE PUSH2 0x180 MLOAD SWAP1 PUSH2 0x31D3 SWAP2 PUSH2 0x3C3B JUMP JUMPDEST SWAP12 PUSH2 0x120 MLOAD PUSH1 0xC0 MLOAD PUSH1 0x80 ADD MSTORE PUSH1 0xC0 MLOAD PUSH1 0xA0 ADD MSTORE PUSH1 0xC0 MLOAD PUSH1 0xC0 ADD MSTORE PUSH1 0xC0 MLOAD PUSH1 0xE0 ADD MSTORE PUSH1 0xC0 MLOAD PUSH2 0x100 ADD MSTORE PUSH1 0xC0 MLOAD PUSH2 0x120 ADD MSTORE PUSH1 0xC0 MLOAD PUSH2 0x140 ADD MSTORE PUSH1 0xC0 MLOAD PUSH2 0x160 ADD MSTORE PUSH1 0xC0 MLOAD PUSH2 0x180 ADD PUSH1 0xFF DUP3 AND SWAP1 PUSH2 0x3229 SWAP2 PUSH2 0x3E97 JUMP JUMPDEST DUP1 PUSH1 0x8 SHR PUSH1 0xFF AND ISZERO ISZERO PUSH1 0xC0 MLOAD PUSH2 0x1A0 ADD MSTORE PUSH1 0x1 PUSH1 0xA0 SHL PUSH1 0x1 SWAP1 SUB SWAP1 PUSH1 0x10 SHR AND PUSH1 0xC0 MLOAD PUSH2 0x1C0 ADD MSTORE PUSH1 0xC0 MLOAD PUSH2 0x1E0 ADD MSTORE PUSH1 0xC0 MLOAD PUSH2 0x200 ADD MSTORE PUSH1 0xC0 MLOAD PUSH2 0x220 ADD MSTORE PUSH1 0xC0 MLOAD PUSH2 0x240 ADD MSTORE PUSH1 0x80 MLOAD PUSH1 0xC0 MLOAD PUSH2 0x260 ADD MSTORE PUSH1 0xA0 MLOAD PUSH1 0xC0 MLOAD PUSH2 0x280 ADD MSTORE PUSH1 0xE0 MLOAD PUSH1 0xC0 MLOAD PUSH2 0x2A0 ADD MSTORE PUSH2 0x100 MLOAD PUSH1 0xFF AND ISZERO ISZERO PUSH1 0xC0 MLOAD PUSH2 0x2C0 ADD MSTORE PUSH2 0x100 MLOAD PUSH1 0x8 SHR PUSH1 0xFF AND ISZERO ISZERO PUSH1 0xC0 MLOAD PUSH2 0x2E0 ADD MSTORE PUSH2 0x100 MLOAD PUSH1 0x10 SHR PUSH1 0xFF AND ISZERO ISZERO PUSH1 0xC0 MLOAD PUSH2 0x300 ADD MSTORE PUSH1 0xC0 MLOAD SWAP1 SUB PUSH1 0xC0 MLOAD RETURN JUMPDEST CALLVALUE PUSH2 0x4D9 JUMPI PUSH1 0x20 CALLDATASIZE PUSH1 0x3 NOT ADD SLT PUSH2 0x4D9 JUMPI PUSH1 0x4 CALLDATALOAD PUSH0 MSTORE PUSH1 0x17 PUSH1 0x20 MSTORE PUSH1 0x20 PUSH1 0x40 PUSH0 KECCAK256 SLOAD PUSH1 0x40 MLOAD SWAP1 DUP2 MSTORE RETURN JUMPDEST CALLVALUE PUSH2 0x4D9 JUMPI PUSH0 CALLDATASIZE PUSH1 0x3 NOT ADD SLT PUSH2 0x4D9 JUMPI PUSH1 0x20 PUSH1 0x40 MLOAD PUSH2 0x258 DUP2 MSTORE RETURN JUMPDEST CALLVALUE PUSH2 0x4D9 JUMPI PUSH1 0x40 CALLDATASIZE PUSH1 0x3 NOT ADD SLT PUSH2 0x4D9 JUMPI PUSH1 0x24 CALLDATALOAD PUSH1 0x1 PUSH1 0x1 PUSH1 0xA0 SHL SUB DUP2 AND SWAP1 DUP2 SWAP1 SUB PUSH2 0x4D9 JUMPI PUSH1 0x4 CALLDATALOAD PUSH0 MSTORE PUSH1 0x11 PUSH1 0x20 MSTORE PUSH1 0x40 PUSH0 KECCAK256 SWAP1 PUSH0 MSTORE PUSH1 0x20 MSTORE PUSH1 0x20 PUSH1 0xFF PUSH1 0x40 PUSH0 KECCAK256 SLOAD AND PUSH1 0x40 MLOAD SWAP1 ISZERO ISZERO DUP2 MSTORE RETURN JUMPDEST CALLVALUE PUSH2 0x4D9 JUMPI PUSH0 CALLDATASIZE PUSH1 0x3 NOT ADD SLT PUSH2 0x4D9 JUMPI PUSH1 0x20 PUSH1 0x4 SLOAD PUSH1 0x40 MLOAD SWAP1 DUP2 MSTORE RETURN JUMPDEST CALLVALUE PUSH2 0x4D9 JUMPI PUSH1 0x40 CALLDATASIZE PUSH1 0x3 NOT ADD SLT PUSH2 0x4D9 JUMPI PUSH2 0x339E PUSH2 0x3B40 JUMP JUMPDEST PUSH1 0x1 PUSH1 0x1 PUSH1 0xA0 SHL SUB SWAP1 DUP2 AND PUSH0 DUP2 DUP2 MSTORE PUSH1 0xA PUSH1 0x20 MSTORE PUSH1 0x40 SWAP1 KECCAK256 SLOAD PUSH1 0x24 CALLDATALOAD SWAP1 DUP2 LT ISZERO PUSH2 0x33D6 JUMPI PUSH2 0xC7C SWAP2 PUSH0 MSTORE PUSH1 0xA PUSH1 0x20 MSTORE PUSH1 0x40 PUSH0 KECCAK256 PUSH2 0x3F8B JUMP JUMPDEST PUSH1 0x40 MLOAD PUSH3 0x461BCD PUSH1 0xE5 SHL DUP2 MSTORE PUSH1 0x20 PUSH1 0x4 DUP3 ADD MSTORE PUSH1 0xD PUSH1 0x24 DUP3 ADD MSTORE PUSH13 0xD2DCECC2D8D2C840D2DCC8CAF PUSH1 0x9B SHL PUSH1 0x44 DUP3 ADD MSTORE PUSH1 0x64 SWAP1 REVERT JUMPDEST PUSH1 0x20 DUP1 PUSH1 0x3 NOT CALLDATASIZE ADD SLT PUSH2 0x4D9 JUMPI PUSH1 0x4 CALLDATALOAD PUSH1 0x4 DUP2 LT ISZERO PUSH2 0x4D9 JUMPI PUSH2 0x342C PUSH2 0x47E0 JUMP JUMPDEST PUSH8 0x16345785D8A0000 CALLVALUE LT PUSH2 0x3501 JUMPI PUSH9 0x1043561A8829300000 CALLVALUE GT PUSH2 0x34CA JUMPI DUP1 PUSH2 0x34B5 JUMPI PUSH2 0x2277 PUSH0 SWAP2 JUMPDEST CALLER PUSH0 MSTORE PUSH1 0xA DUP5 MSTORE PUSH2 0x3490 PUSH1 0x40 PUSH0 KECCAK256 SWAP4 DUP5 SLOAD SWAP5 PUSH1 0x40 MLOAD SWAP2 PUSH2 0x3475 DUP4 PUSH2 0x3E46 JUMP JUMPDEST PUSH0 DUP4 MSTORE CALLVALUE DUP9 DUP5 ADD MSTORE TIMESTAMP PUSH1 0x40 DUP5 ADD MSTORE PUSH2 0x2238 DUP6 PUSH1 0x60 DUP6 ADD PUSH2 0x428E JUMP JUMPDEST PUSH2 0x349C CALLVALUE PUSH1 0xD SLOAD PUSH2 0x4119 JUMP JUMPDEST PUSH1 0xD SSTORE PUSH1 0x40 MLOAD SWAP4 PUSH0 DUP6 MSTORE CALLVALUE SWAP1 DUP6 ADD MSTORE PUSH1 0x40 DUP5 ADD SWAP1 PUSH2 0x3CF2 JUMP JUMPDEST PUSH2 0x2277 PUSH2 0x34C4 PUSH2 0x22B6 DUP4 PUSH2 0x455D JUMP JUMPDEST SWAP2 PUSH2 0x3456 JUMP JUMPDEST PUSH1 0x40 MLOAD PUSH3 0x461BCD PUSH1 0xE5 SHL DUP2 MSTORE PUSH1 0x4 DUP2 ADD DUP4 SWAP1 MSTORE PUSH1 0xF PUSH1 0x24 DUP3 ADD MSTORE PUSH15 0x61626F7665206D6178207374616B65 PUSH1 0x88 SHL PUSH1 0x44 DUP3 ADD MSTORE PUSH1 0x64 SWAP1 REVERT JUMPDEST PUSH1 0x40 MLOAD PUSH3 0x461BCD PUSH1 0xE5 SHL DUP2 MSTORE PUSH1 0x4 DUP2 ADD DUP4 SWAP1 MSTORE PUSH1 0xF PUSH1 0x24 DUP3 ADD MSTORE PUSH15 0x62656C6F77206D696E207374616B65 PUSH1 0x88 SHL PUSH1 0x44 DUP3 ADD MSTORE PUSH1 0x64 SWAP1 REVERT JUMPDEST CALLVALUE PUSH2 0x4D9 JUMPI PUSH0 CALLDATASIZE PUSH1 0x3 NOT ADD SLT PUSH2 0x4D9 JUMPI PUSH0 DUP1 PUSH1 0x4 SLOAD SWAP1 JUMPDEST DUP2 DUP2 LT PUSH2 0x36C4 JUMPI POP PUSH2 0x3560 DUP3 PUSH2 0x41FF JUMP JUMPDEST SWAP1 PUSH2 0x356A DUP4 PUSH2 0x4231 JUMP JUMPDEST PUSH2 0x3573 DUP5 PUSH2 0x4231 JUMP JUMPDEST PUSH2 0x357C DUP6 PUSH2 0x41FF JUMP JUMPDEST SWAP2 PUSH2 0x358F PUSH2 0x3589 DUP8 PUSH2 0x41FF JUMP JUMPDEST SWAP7 PUSH2 0x41FF JUMP JUMPDEST SWAP4 PUSH0 DUP1 JUMPDEST DUP3 DUP2 LT PUSH2 0x35F0 JUMPI PUSH2 0x35C6 DUP9 PUSH2 0xA20 DUP10 PUSH2 0x35E2 DUP14 PUSH2 0x14FB DUP13 PUSH2 0x14ED DUP14 PUSH2 0x35D4 DUP15 PUSH1 0x40 MLOAD SWAP12 DUP13 SWAP12 PUSH1 0xC0 DUP14 MSTORE PUSH1 0xC0 DUP14 ADD SWAP1 PUSH2 0x3C08 JUMP JUMPDEST SWAP1 DUP12 DUP3 SUB PUSH1 0x20 DUP14 ADD MSTORE PUSH2 0x3C79 JUMP JUMPDEST SWAP1 DUP10 DUP3 SUB PUSH1 0x40 DUP12 ADD MSTORE PUSH2 0x3C79 JUMP JUMPDEST SWAP1 DUP4 DUP3 SUB PUSH1 0xA0 DUP6 ADD MSTORE PUSH2 0x3C08 JUMP JUMPDEST PUSH1 0xFF PUSH1 0xC PUSH2 0x35FD DUP4 PUSH2 0x3D61 JUMP JUMPDEST POP ADD SLOAD AND PUSH1 0x7 DUP2 LT ISZERO PUSH2 0x6CA JUMPI ISZERO PUSH2 0x3618 JUMPI JUMPDEST PUSH1 0x1 ADD PUSH2 0x3593 JUMP JUMPDEST SWAP1 PUSH2 0x36BC DUP2 DUP4 PUSH2 0x362A PUSH1 0x1 SWAP5 DUP13 PUSH2 0x427A JUMP JUMPDEST MSTORE DUP3 PUSH2 0x3638 PUSH2 0x115C DUP7 PUSH2 0x3D61 JUMP JUMPDEST PUSH2 0x3642 DUP3 DUP9 PUSH2 0x427A JUMP JUMPDEST MSTORE PUSH2 0x364D DUP2 DUP8 PUSH2 0x427A JUMP JUMPDEST POP PUSH1 0x2 PUSH2 0x365C PUSH2 0x115C DUP7 PUSH2 0x3D61 JUMP JUMPDEST PUSH2 0x3666 DUP3 DUP10 PUSH2 0x427A JUMP JUMPDEST MSTORE PUSH2 0x3671 DUP2 DUP9 PUSH2 0x427A JUMP JUMPDEST POP PUSH1 0x4 PUSH2 0x367D DUP6 PUSH2 0x3D61 JUMP JUMPDEST POP ADD SLOAD PUSH2 0x368A DUP3 DUP11 PUSH2 0x427A JUMP JUMPDEST MSTORE PUSH1 0x5 PUSH2 0x3696 DUP6 PUSH2 0x3D61 JUMP JUMPDEST POP ADD SLOAD PUSH2 0x36A3 DUP3 DUP14 PUSH2 0x427A JUMP JUMPDEST MSTORE PUSH1 0x6 PUSH2 0x36AF DUP6 PUSH2 0x3D61 JUMP JUMPDEST POP ADD SLOAD PUSH2 0x11C0 DUP3 DUP12 PUSH2 0x427A JUMP JUMPDEST SWAP2 SWAP1 POP PUSH2 0x3610 JUMP JUMPDEST PUSH1 0xFF PUSH1 0xC PUSH2 0x36D1 DUP4 PUSH2 0x3D61 JUMP JUMPDEST POP ADD SLOAD AND PUSH1 0x7 DUP2 LT ISZERO PUSH2 0x6CA JUMPI ISZERO PUSH2 0x36EC JUMPI JUMPDEST PUSH1 0x1 ADD PUSH2 0x354F JUMP JUMPDEST SWAP2 PUSH2 0x36F8 PUSH1 0x1 SWAP2 PUSH2 0x41DA JUMP JUMPDEST SWAP3 SWAP1 POP PUSH2 0x36E4 JUMP JUMPDEST CALLVALUE PUSH2 0x4D9 JUMPI PUSH0 CALLDATASIZE PUSH1 0x3 NOT ADD SLT PUSH2 0x4D9 JUMPI PUSH1 0x20 PUSH1 0xD SLOAD PUSH1 0x40 MLOAD SWAP1 DUP2 MSTORE RETURN JUMPDEST CALLVALUE PUSH2 0x4D9 JUMPI PUSH0 CALLDATASIZE PUSH1 0x3 NOT ADD SLT PUSH2 0x4D9 JUMPI PUSH1 0x20 PUSH1 0x40 MLOAD PUSH9 0x56BC75E2D63100000 DUP2 MSTORE RETURN JUMPDEST CALLVALUE PUSH2 0x4D9 JUMPI PUSH0 CALLDATASIZE PUSH1 0x3 NOT ADD SLT PUSH2 0x4D9 JUMPI PUSH1 0x3 SLOAD PUSH1 0x40 MLOAD PUSH1 0x1 PUSH1 0x1 PUSH1 0xA0 SHL SUB SWAP1 SWAP2 AND DUP2 MSTORE PUSH1 0x20 SWAP1 RETURN JUMPDEST CALLVALUE PUSH2 0x4D9 JUMPI PUSH0 CALLDATASIZE PUSH1 0x3 NOT ADD SLT PUSH2 0x4D9 JUMPI PUSH1 0x20 PUSH1 0x40 MLOAD PUSH3 0x3F480 DUP2 MSTORE RETURN JUMPDEST CALLVALUE PUSH2 0x4D9 JUMPI PUSH1 0x20 CALLDATASIZE PUSH1 0x3 NOT ADD SLT PUSH2 0x4D9 JUMPI PUSH1 0x4 CALLDATALOAD PUSH0 MSTORE PUSH1 0x8 PUSH1 0x20 MSTORE PUSH1 0x20 PUSH1 0x40 PUSH0 KECCAK256 SLOAD PUSH1 0x40 MLOAD SWAP1 DUP2 MSTORE RETURN JUMPDEST CALLVALUE PUSH2 0x4D9 JUMPI PUSH1 0x20 CALLDATASIZE PUSH1 0x3 NOT ADD SLT PUSH2 0x4D9 JUMPI PUSH1 0x4 CALLDATALOAD PUSH1 0x4 DUP2 LT ISZERO PUSH2 0x4D9 JUMPI PUSH2 0x8FF PUSH1 0x20 SWAP2 PUSH2 0x417F JUMP JUMPDEST CALLVALUE PUSH2 0x4D9 JUMPI PUSH1 0x20 CALLDATASIZE PUSH1 0x3 NOT ADD SLT PUSH2 0x4D9 JUMPI PUSH1 0x4 CALLDATALOAD PUSH1 0x5 SLOAD DUP2 LT ISZERO PUSH2 0x4D9 JUMPI PUSH2 0x26DF PUSH1 0x20 SWAP2 PUSH2 0x3B56 JUMP JUMPDEST CALLVALUE PUSH2 0x4D9 JUMPI PUSH1 0x20 CALLDATASIZE PUSH1 0x3 NOT ADD SLT PUSH2 0x4D9 JUMPI PUSH1 0x20 PUSH2 0x8FF PUSH2 0x381E PUSH2 0x3B40 JUMP JUMPDEST PUSH2 0x488D JUMP JUMPDEST CALLVALUE PUSH2 0x4D9 JUMPI PUSH0 CALLDATASIZE PUSH1 0x3 NOT ADD SLT PUSH2 0x4D9 JUMPI PUSH1 0x20 PUSH1 0x40 MLOAD PUSH3 0x93A80 DUP2 MSTORE RETURN JUMPDEST CALLVALUE PUSH2 0x4D9 JUMPI PUSH0 CALLDATASIZE PUSH1 0x3 NOT ADD SLT PUSH2 0x4D9 JUMPI PUSH1 0x20 PUSH2 0x8FF PUSH2 0x4126 JUMP JUMPDEST CALLVALUE PUSH2 0x4D9 JUMPI PUSH1 0x20 DUP1 PUSH1 0x3 NOT CALLDATASIZE ADD SLT PUSH2 0x4D9 JUMPI PUSH1 0x4 CALLDATALOAD SWAP1 PUSH2 0x3878 PUSH2 0x47E0 JUMP JUMPDEST PUSH2 0x3885 PUSH1 0x4 SLOAD DUP4 LT PUSH2 0x3FA4 JUMP JUMPDEST PUSH2 0x388E DUP3 PUSH2 0x3D61 JUMP JUMPDEST POP PUSH1 0xC DUP2 ADD DUP1 SLOAD SWAP2 PUSH1 0xFF DUP4 PUSH1 0x8 SHR AND ISZERO PUSH2 0x3ACA JUMPI PUSH1 0x1 PUSH1 0x1 PUSH1 0xA0 SHL SUB SWAP3 PUSH1 0x10 SHR DUP4 AND ISZERO PUSH2 0x3A9A JUMPI CALLER PUSH0 MSTORE PUSH1 0x9 DUP5 MSTORE PUSH1 0x40 PUSH0 KECCAK256 DUP6 PUSH0 MSTORE DUP5 MSTORE PUSH1 0x40 PUSH0 KECCAK256 SWAP1 PUSH1 0x3 DUP3 ADD DUP1 SLOAD PUSH2 0x38DC PUSH1 0xFF DUP3 AND PUSH2 0x3FE4 JUMP JUMPDEST PUSH1 0xFF DUP2 PUSH1 0x8 SHR AND PUSH2 0x3A63 JUMPI PUSH2 0x100 SWAP1 PUSH2 0xFF00 NOT AND OR SWAP1 SSTORE DUP2 SLOAD SWAP5 PUSH1 0xF DUP3 ADD SWAP6 DUP7 SLOAD DUP1 ISZERO ISZERO DUP1 PUSH2 0x3A56 JUMPI JUMPDEST PUSH2 0x3A1F JUMPI JUMPDEST POP PUSH1 0xE DUP4 ADD SLOAD SWAP2 DUP3 ISZERO PUSH2 0x39EE JUMPI POP SWAP2 PUSH2 0x3946 PUSH0 DUP1 MLOAD PUSH1 0x20 PUSH2 0x5F6F DUP4 CODECOPY DUP2 MLOAD SWAP2 MSTORE SWAP7 SWAP5 SWAP3 PUSH2 0x3941 PUSH2 0x3973 SWAP8 SWAP6 PUSH1 0xD DUP6 ADD SLOAD SWAP1 PUSH2 0x403A JUMP JUMPDEST PUSH2 0x404D JUMP JUMPDEST SWAP7 DUP8 PUSH2 0x39D8 JUMPI JUMPDEST SLOAD DUP1 ISZERO ISZERO DUP1 PUSH2 0x39CE JUMPI JUMPDEST PUSH2 0x3989 JUMPI JUMPDEST POP POP POP SLOAD PUSH1 0x10 SHR AND SWAP3 PUSH1 0x40 MLOAD SWAP2 DUP3 SWAP2 CALLER SWAP6 DUP4 PUSH2 0x40FE JUMP JUMPDEST SUB SWAP1 LOG3 PUSH1 0x1 PUSH0 DUP1 MLOAD PUSH1 0x20 PUSH2 0x5FAF DUP4 CODECOPY DUP2 MLOAD SWAP2 MSTORE SSTORE STOP JUMPDEST PUSH2 0x3999 PUSH1 0x5 SWAP2 PUSH2 0x39A2 SWAP5 SLOAD PUSH2 0x403A JUMP JUMPDEST SWAP2 ADD SLOAD SWAP1 PUSH2 0x404D JUMP JUMPDEST DUP1 PUSH2 0x39AF JUMPI JUMPDEST DUP1 DUP1 PUSH2 0x395C JUMP JUMPDEST PUSH0 DUP1 DUP1 DUP1 PUSH2 0x39C8 SWAP5 CALLER GAS CALL PUSH2 0x39C2 PUSH2 0x4093 JUMP JUMPDEST POP PUSH2 0x40C2 JUMP JUMPDEST DUP7 PUSH2 0x39A8 JUMP JUMPDEST POP DUP3 SLOAD ISZERO ISZERO PUSH2 0x3957 JUMP JUMPDEST PUSH2 0x39E9 DUP9 CALLER DUP8 DUP8 SLOAD PUSH1 0x10 SHR AND PUSH2 0x480F JUMP JUMPDEST PUSH2 0x394D JUMP JUMPDEST PUSH1 0x64 SWAP1 PUSH1 0x40 MLOAD SWAP1 PUSH3 0x461BCD PUSH1 0xE5 SHL DUP3 MSTORE PUSH1 0x4 DUP3 ADD MSTORE PUSH1 0xA PUSH1 0x24 DUP3 ADD MSTORE PUSH10 0x1E995C9BC81D1BDD185B PUSH1 0xB2 SHL PUSH1 0x44 DUP3 ADD MSTORE REVERT JUMPDEST PUSH2 0x3A2C PUSH2 0x3A37 SWAP2 DUP4 PUSH2 0x403A JUMP JUMPDEST PUSH1 0x5 DUP6 ADD SLOAD SWAP1 PUSH2 0x404D JUMP JUMPDEST DUP1 DUP3 GT ISZERO PUSH2 0x3A4E JUMPI PUSH2 0x3A48 SWAP2 PUSH2 0x406B JUMP JUMPDEST DUP9 PUSH2 0x390B JUMP JUMPDEST POP POP PUSH0 PUSH2 0x3A48 JUMP JUMPDEST POP PUSH1 0x5 DUP5 ADD SLOAD ISZERO ISZERO PUSH2 0x3906 JUMP JUMPDEST PUSH1 0x40 MLOAD PUSH3 0x461BCD PUSH1 0xE5 SHL DUP2 MSTORE PUSH1 0x4 DUP2 ADD DUP9 SWAP1 MSTORE PUSH1 0xF PUSH1 0x24 DUP3 ADD MSTORE PUSH15 0x185B1C9958591E4818DB185A5B5959 PUSH1 0x8A SHL PUSH1 0x44 DUP3 ADD MSTORE PUSH1 0x64 SWAP1 REVERT JUMPDEST PUSH1 0x40 MLOAD PUSH3 0x461BCD PUSH1 0xE5 SHL DUP2 MSTORE PUSH1 0x4 DUP2 ADD DUP6 SWAP1 MSTORE PUSH1 0x8 PUSH1 0x24 DUP3 ADD MSTORE PUSH8 0x3737903A37B5B2B7 PUSH1 0xC1 SHL PUSH1 0x44 DUP3 ADD MSTORE PUSH1 0x64 SWAP1 REVERT JUMPDEST PUSH1 0x40 MLOAD PUSH3 0x461BCD PUSH1 0xE5 SHL DUP2 MSTORE PUSH1 0x4 DUP2 ADD DUP6 SWAP1 MSTORE PUSH1 0xC PUSH1 0x24 DUP3 ADD MSTORE PUSH12 0x1B9BDD081B185D5B98DA1959 PUSH1 0xA2 SHL PUSH1 0x44 DUP3 ADD MSTORE PUSH1 0x64 SWAP1 REVERT JUMPDEST CALLVALUE PUSH2 0x4D9 JUMPI PUSH0 CALLDATASIZE PUSH1 0x3 NOT ADD SLT PUSH2 0x4D9 JUMPI PUSH1 0x2 SLOAD PUSH1 0x40 MLOAD PUSH1 0x1 PUSH1 0x1 PUSH1 0xA0 SHL SUB SWAP1 SWAP2 AND DUP2 MSTORE PUSH1 0x20 SWAP1 RETURN JUMPDEST CALLVALUE PUSH2 0x4D9 JUMPI PUSH0 CALLDATASIZE PUSH1 0x3 NOT ADD SLT PUSH2 0x4D9 JUMPI DUP1 PUSH2 0x7080 PUSH1 0x20 SWAP3 MSTORE RETURN JUMPDEST PUSH1 0x4 CALLDATALOAD SWAP1 PUSH1 0x1 PUSH1 0x1 PUSH1 0xA0 SHL SUB DUP3 AND DUP3 SUB PUSH2 0x4D9 JUMPI JUMP JUMPDEST PUSH1 0x5 SLOAD DUP2 LT ISZERO PUSH2 0x3B6E JUMPI PUSH1 0x5 PUSH0 MSTORE PUSH1 0x20 PUSH0 KECCAK256 ADD SWAP1 PUSH0 SWAP1 JUMP JUMPDEST PUSH4 0x4E487B71 PUSH1 0xE0 SHL PUSH0 MSTORE PUSH1 0x32 PUSH1 0x4 MSTORE PUSH1 0x24 PUSH0 REVERT JUMPDEST PUSH1 0x6 SLOAD DUP2 LT ISZERO PUSH2 0x3B6E JUMPI PUSH1 0x6 PUSH0 MSTORE PUSH1 0x20 PUSH0 KECCAK256 ADD SWAP1 PUSH0 SWAP1 JUMP JUMPDEST DUP1 SLOAD DUP3 LT ISZERO PUSH2 0x3B6E JUMPI PUSH0 MSTORE PUSH1 0x20 PUSH0 KECCAK256 ADD SWAP1 PUSH0 SWAP1 JUMP JUMPDEST CALLVALUE PUSH2 0x4D9 JUMPI PUSH0 CALLDATASIZE PUSH1 0x3 NOT ADD SLT PUSH2 0x4D9 JUMPI PUSH1 0x20 PUSH1 0x40 MLOAD PUSH1 0x64 DUP2 MSTORE RETURN JUMPDEST CALLVALUE PUSH2 0x4D9 JUMPI PUSH0 CALLDATASIZE PUSH1 0x3 NOT ADD SLT PUSH2 0x4D9 JUMPI PUSH1 0x20 PUSH1 0x40 MLOAD PUSH9 0x1158E460913D00000 DUP2 MSTORE RETURN JUMPDEST CALLVALUE PUSH2 0x4D9 JUMPI PUSH0 CALLDATASIZE PUSH1 0x3 NOT ADD SLT PUSH2 0x4D9 JUMPI PUSH1 0x20 PUSH1 0x40 MLOAD PUSH1 0x3 DUP2 MSTORE RETURN JUMPDEST SWAP1 DUP2 MLOAD DUP1 DUP3 MSTORE PUSH1 0x20 DUP1 DUP1 SWAP4 ADD SWAP4 ADD SWAP2 PUSH0 JUMPDEST DUP3 DUP2 LT PUSH2 0x3C27 JUMPI POP POP POP POP SWAP1 JUMP JUMPDEST DUP4 MLOAD DUP6 MSTORE SWAP4 DUP2 ADD SWAP4 SWAP3 DUP2 ADD SWAP3 PUSH1 0x1 ADD PUSH2 0x3C19 JUMP JUMPDEST SWAP2 SWAP1 DUP3 MLOAD SWAP3 DUP4 DUP3 MSTORE PUSH0 JUMPDEST DUP5 DUP2 LT PUSH2 0x3C65 JUMPI POP POP DUP3 PUSH0 PUSH1 0x20 DUP1 SWAP5 SWAP6 DUP5 ADD ADD MSTORE PUSH1 0x1F DUP1 NOT SWAP2 ADD AND ADD ADD SWAP1 JUMP JUMPDEST PUSH1 0x20 DUP2 DUP4 ADD DUP2 ADD MLOAD DUP5 DUP4 ADD DUP3 ADD MSTORE ADD PUSH2 0x3C45 JUMP JUMPDEST SWAP1 DUP1 DUP3 MLOAD SWAP1 DUP2 DUP2 MSTORE PUSH1 0x20 DUP1 SWAP2 ADD SWAP3 PUSH1 0x20 DUP1 DUP5 PUSH1 0x5 SHL DUP4 ADD ADD SWAP6 ADD SWAP4 PUSH0 SWAP2 JUMPDEST DUP5 DUP4 LT PUSH2 0x3CA7 JUMPI POP POP POP POP POP POP SWAP1 JUMP JUMPDEST SWAP1 SWAP2 SWAP3 SWAP4 SWAP5 SWAP6 DUP5 DUP1 PUSH2 0x3CC5 PUSH1 0x1 SWAP4 PUSH1 0x1F NOT DUP7 DUP3 SUB ADD DUP8 MSTORE DUP11 MLOAD PUSH2 0x3C3B JUMP JUMPDEST SWAP9 ADD SWAP4 ADD SWAP4 ADD SWAP2 SWAP5 SWAP4 SWAP3 SWAP1 PUSH2 0x3C97 JUMP JUMPDEST CALLVALUE PUSH2 0x4D9 JUMPI PUSH0 CALLDATASIZE PUSH1 0x3 NOT ADD SLT PUSH2 0x4D9 JUMPI PUSH1 0x20 PUSH1 0x40 MLOAD PUSH3 0x278D00 DUP2 MSTORE RETURN JUMPDEST SWAP1 PUSH1 0x4 DUP3 LT ISZERO PUSH2 0x6CA JUMPI MSTORE JUMP JUMPDEST SWAP4 PUSH2 0x3D2F SWAP2 SWAP9 SWAP8 SWAP7 SWAP4 PUSH1 0xC0 SWAP7 SWAP4 PUSH1 0xE0 DUP8 ADD SWAP11 PUSH1 0x1 DUP1 PUSH1 0xA0 SHL SUB AND DUP8 MSTORE PUSH1 0x20 DUP8 ADD MSTORE PUSH1 0x40 DUP7 ADD MSTORE PUSH1 0x60 DUP6 ADD SWAP1 PUSH2 0x3CF2 JUMP JUMPDEST PUSH1 0x80 DUP4 ADD MSTORE ISZERO ISZERO PUSH1 0xA0 DUP3 ADD MSTORE ADD MSTORE JUMP JUMPDEST CALLVALUE PUSH2 0x4D9 JUMPI PUSH0 CALLDATASIZE PUSH1 0x3 NOT ADD SLT PUSH2 0x4D9 JUMPI PUSH1 0x20 PUSH1 0x40 MLOAD PUSH8 0xDE0B6B3A7640000 DUP2 MSTORE RETURN JUMPDEST PUSH1 0x4 SLOAD DUP2 LT ISZERO PUSH2 0x3B6E JUMPI PUSH1 0x4 PUSH0 MSTORE PUSH1 0x15 PUSH1 0x20 PUSH0 KECCAK256 SWAP2 MUL ADD SWAP1 PUSH0 SWAP1 JUMP JUMPDEST SWAP1 PUSH1 0x1 DUP3 DUP2 SHR SWAP3 AND DUP1 ISZERO PUSH2 0x3DAB JUMPI JUMPDEST PUSH1 0x20 DUP4 LT EQ PUSH2 0x3D97 JUMPI JUMP JUMPDEST PUSH4 0x4E487B71 PUSH1 0xE0 SHL PUSH0 MSTORE PUSH1 0x22 PUSH1 0x4 MSTORE PUSH1 0x24 PUSH0 REVERT JUMPDEST SWAP2 PUSH1 0x7F AND SWAP2 PUSH2 0x3D8C JUMP JUMPDEST DUP1 SLOAD PUSH0 SWAP4 SWAP3 PUSH2 0x3DC3 DUP3 PUSH2 0x3D7D JUMP JUMPDEST SWAP2 DUP3 DUP3 MSTORE PUSH1 0x20 SWAP4 PUSH1 0x1 SWAP2 PUSH1 0x1 DUP2 AND SWAP1 DUP2 PUSH0 EQ PUSH2 0x3E27 JUMPI POP PUSH1 0x1 EQ PUSH2 0x3DE9 JUMPI JUMPDEST POP POP POP POP POP JUMP JUMPDEST SWAP1 SWAP4 SWAP5 SWAP6 POP PUSH0 SWAP3 SWAP2 SWAP3 MSTORE DUP4 PUSH0 KECCAK256 SWAP3 DUP5 PUSH0 SWAP5 JUMPDEST DUP4 DUP7 LT PUSH2 0x3E13 JUMPI POP POP POP POP ADD ADD SWAP1 PUSH0 DUP1 DUP1 DUP1 DUP1 PUSH2 0x3DE2 JUMP JUMPDEST DUP1 SLOAD DUP6 DUP8 ADD DUP4 ADD MSTORE SWAP5 ADD SWAP4 DUP6 SWAP1 DUP3 ADD PUSH2 0x3DFB JUMP JUMPDEST PUSH1 0xFF NOT AND DUP7 DUP6 ADD MSTORE POP POP POP SWAP1 ISZERO ISZERO PUSH1 0x5 SHL ADD ADD SWAP2 POP PUSH0 DUP1 DUP1 DUP1 DUP1 PUSH2 0x3DE2 JUMP JUMPDEST PUSH1 0xE0 DUP2 ADD SWAP1 DUP2 LT PUSH1 0x1 PUSH1 0x1 PUSH1 0x40 SHL SUB DUP3 GT OR PUSH2 0x1C1C JUMPI PUSH1 0x40 MSTORE JUMP JUMPDEST PUSH1 0x1 PUSH1 0x1 PUSH1 0x40 SHL SUB DUP2 GT PUSH2 0x1C1C JUMPI PUSH1 0x40 MSTORE JUMP JUMPDEST PUSH1 0x1F SWAP1 SWAP2 ADD PUSH1 0x1F NOT AND DUP2 ADD SWAP1 PUSH1 0x1 PUSH1 0x1 PUSH1 0x40 SHL SUB DUP3 GT SWAP1 DUP3 LT OR PUSH2 0x1C1C JUMPI PUSH1 0x40 MSTORE JUMP JUMPDEST SWAP1 PUSH1 0x7 DUP3 LT ISZERO PUSH2 0x6CA JUMPI MSTORE JUMP JUMPDEST PUSH1 0x40 SWAP1 PUSH1 0x3 NOT ADD SLT PUSH2 0x4D9 JUMPI PUSH1 0x4 CALLDATALOAD SWAP1 PUSH1 0x24 CALLDATALOAD SWAP1 JUMP JUMPDEST CALLVALUE PUSH2 0x4D9 JUMPI PUSH0 CALLDATASIZE PUSH1 0x3 NOT ADD SLT PUSH2 0x4D9 JUMPI PUSH1 0x20 PUSH1 0x40 MLOAD PUSH8 0x16345785D8A0000 DUP2 MSTORE RETURN JUMPDEST PUSH1 0xA0 SWAP1 PUSH1 0x3 NOT ADD SLT PUSH2 0x4D9 JUMPI PUSH1 0x4 CALLDATALOAD SWAP1 PUSH1 0x24 CALLDATALOAD PUSH1 0x3 DUP2 LT ISZERO PUSH2 0x4D9 JUMPI SWAP1 PUSH1 0x44 CALLDATALOAD DUP1 ISZERO ISZERO DUP2 SUB PUSH2 0x4D9 JUMPI SWAP1 PUSH1 0x64 CALLDATALOAD DUP1 ISZERO ISZERO DUP2 SUB PUSH2 0x4D9 JUMPI SWAP1 PUSH1 0x84 CALLDATALOAD DUP1 ISZERO ISZERO DUP2 SUB PUSH2 0x4D9 JUMPI SWAP1 JUMP JUMPDEST SWAP2 DUP2 PUSH1 0x1F DUP5 ADD SLT ISZERO PUSH2 0x4D9 JUMPI DUP3 CALLDATALOAD SWAP2 PUSH1 0x1 PUSH1 0x1 PUSH1 0x40 SHL SUB DUP4 GT PUSH2 0x4D9 JUMPI PUSH1 0x20 DUP4 DUP2 DUP7 ADD SWAP6 ADD ADD GT PUSH2 0x4D9 JUMPI JUMP JUMPDEST SWAP1 DUP2 MLOAD DUP1 DUP3 MSTORE PUSH1 0x20 DUP1 DUP1 SWAP4 ADD SWAP4 ADD SWAP2 PUSH0 JUMPDEST DUP3 DUP2 LT PUSH2 0x3F6E JUMPI POP POP POP POP SWAP1 JUMP JUMPDEST DUP4 MLOAD PUSH1 0x1 PUSH1 0x1 PUSH1 0xA0 SHL SUB AND DUP6 MSTORE SWAP4 DUP2 ADD SWAP4 SWAP3 DUP2 ADD SWAP3 PUSH1 0x1 ADD PUSH2 0x3F60 JUMP JUMPDEST DUP1 SLOAD DUP3 LT ISZERO PUSH2 0x3B6E JUMPI PUSH0 MSTORE PUSH1 0x7 PUSH1 0x20 PUSH0 KECCAK256 SWAP2 MUL ADD SWAP1 PUSH0 SWAP1 JUMP JUMPDEST ISZERO PUSH2 0x3FAB JUMPI JUMP JUMPDEST PUSH1 0x40 MLOAD PUSH3 0x461BCD PUSH1 0xE5 SHL DUP2 MSTORE PUSH1 0x20 PUSH1 0x4 DUP3 ADD MSTORE PUSH1 0x11 PUSH1 0x24 DUP3 ADD MSTORE PUSH17 0x696E76616C69642063616E646964617465 PUSH1 0x78 SHL PUSH1 0x44 DUP3 ADD MSTORE PUSH1 0x64 SWAP1 REVERT JUMPDEST ISZERO PUSH2 0x3FEB JUMPI JUMP JUMPDEST PUSH1 0x40 MLOAD PUSH3 0x461BCD PUSH1 0xE5 SHL DUP2 MSTORE PUSH1 0x20 PUSH1 0x4 DUP3 ADD MSTORE PUSH1 0xF PUSH1 0x24 DUP3 ADD MSTORE PUSH15 0x37379039BAB139B1B934B83A34B7B7 PUSH1 0x89 SHL PUSH1 0x44 DUP3 ADD MSTORE PUSH1 0x64 SWAP1 REVERT JUMPDEST SWAP1 PUSH2 0xFF00 DUP3 SLOAD SWAP2 ISZERO ISZERO PUSH1 0x8 SHL AND SWAP1 PUSH2 0xFF00 NOT AND OR SWAP1 SSTORE JUMP JUMPDEST DUP2 DUP2 MUL SWAP3 SWAP2 DUP2 ISZERO SWAP2 DUP5 DIV EQ OR ISZERO PUSH2 0xD6B JUMPI JUMP JUMPDEST DUP2 ISZERO PUSH2 0x4057 JUMPI DIV SWAP1 JUMP JUMPDEST PUSH4 0x4E487B71 PUSH1 0xE0 SHL PUSH0 MSTORE PUSH1 0x12 PUSH1 0x4 MSTORE PUSH1 0x24 PUSH0 REVERT JUMPDEST SWAP2 SWAP1 DUP3 SUB SWAP2 DUP3 GT PUSH2 0xD6B JUMPI JUMP JUMPDEST PUSH1 0x1 PUSH1 0x1 PUSH1 0x40 SHL SUB DUP2 GT PUSH2 0x1C1C JUMPI PUSH1 0x1F ADD PUSH1 0x1F NOT AND PUSH1 0x20 ADD SWAP1 JUMP JUMPDEST RETURNDATASIZE ISZERO PUSH2 0x40BD JUMPI RETURNDATASIZE SWAP1 PUSH2 0x40A4 DUP3 PUSH2 0x4078 JUMP JUMPDEST SWAP2 PUSH2 0x40B2 PUSH1 0x40 MLOAD SWAP4 DUP5 PUSH2 0x3E74 JUMP JUMPDEST DUP3 MSTORE RETURNDATASIZE PUSH0 PUSH1 0x20 DUP5 ADD RETURNDATACOPY JUMP JUMPDEST PUSH1 0x60 SWAP1 JUMP JUMPDEST ISZERO PUSH2 0x40C9 JUMPI JUMP JUMPDEST PUSH1 0x40 MLOAD PUSH3 0x461BCD PUSH1 0xE5 SHL DUP2 MSTORE PUSH1 0x20 PUSH1 0x4 DUP3 ADD MSTORE PUSH1 0xD PUSH1 0x24 DUP3 ADD MSTORE PUSH13 0x1C99599D5B990819985A5B1959 PUSH1 0x9A SHL PUSH1 0x44 DUP3 ADD MSTORE PUSH1 0x64 SWAP1 REVERT JUMPDEST PUSH1 0x1 PUSH1 0x1 PUSH1 0xA0 SHL SUB SWAP1 SWAP2 AND DUP2 MSTORE PUSH1 0x20 DUP2 ADD SWAP2 SWAP1 SWAP2 MSTORE PUSH1 0x40 ADD SWAP1 JUMP JUMPDEST SWAP2 SWAP1 DUP3 ADD DUP1 SWAP3 GT PUSH2 0xD6B JUMPI JUMP JUMPDEST PUSH1 0x12 SLOAD PUSH0 MSTORE PUSH1 0x18 PUSH1 0x20 MSTORE PUSH1 0x40 PUSH0 KECCAK256 SLOAD PUSH3 0x15180 DUP2 ADD DUP1 SWAP2 GT PUSH2 0xD6B JUMPI DUP1 TIMESTAMP LT ISZERO PUSH2 0x4158 JUMPI PUSH2 0x4155 SWAP1 TIMESTAMP SWAP1 PUSH2 0x406B JUMP JUMPDEST SWAP1 JUMP JUMPDEST POP PUSH0 SWAP1 JUMP JUMPDEST PUSH1 0x60 SWAP1 PUSH1 0x20 DUP2 MSTORE PUSH1 0x7 PUSH1 0x20 DUP3 ADD MSTORE PUSH7 0x1A5B9D985B1A59 PUSH1 0xCA SHL PUSH1 0x40 DUP3 ADD MSTORE ADD SWAP1 JUMP JUMPDEST PUSH1 0x4 DUP2 LT ISZERO PUSH2 0x6CA JUMPI DUP1 ISZERO PUSH2 0x41D4 JUMPI PUSH1 0x1 DUP2 EQ PUSH2 0x41CE JUMPI PUSH1 0x2 DUP2 EQ PUSH2 0x41C8 JUMPI PUSH1 0x3 EQ PUSH2 0x41C2 JUMPI PUSH1 0x40 MLOAD PUSH3 0x461BCD PUSH1 0xE5 SHL DUP2 MSTORE DUP1 PUSH2 0x41BE PUSH1 0x4 DUP3 ADD PUSH2 0x415D JUMP JUMPDEST SUB SWAP1 REVERT JUMPDEST PUSH2 0x12C SWAP1 JUMP JUMPDEST POP PUSH1 0xC8 SWAP1 JUMP JUMPDEST POP PUSH1 0x96 SWAP1 JUMP JUMPDEST POP PUSH1 0x64 SWAP1 JUMP JUMPDEST PUSH0 NOT DUP2 EQ PUSH2 0xD6B JUMPI PUSH1 0x1 ADD SWAP1 JUMP JUMPDEST PUSH1 0x1 PUSH1 0x1 PUSH1 0x40 SHL SUB DUP2 GT PUSH2 0x1C1C JUMPI PUSH1 0x5 SHL PUSH1 0x20 ADD SWAP1 JUMP JUMPDEST SWAP1 PUSH2 0x4209 DUP3 PUSH2 0x41E8 JUMP JUMPDEST PUSH2 0x4216 PUSH1 0x40 MLOAD SWAP2 DUP3 PUSH2 0x3E74 JUMP JUMPDEST DUP3 DUP2 MSTORE DUP1 SWAP3 PUSH2 0x4227 PUSH1 0x1F NOT SWAP2 PUSH2 0x41E8 JUMP JUMPDEST ADD SWAP1 PUSH1 0x20 CALLDATASIZE SWAP2 ADD CALLDATACOPY JUMP JUMPDEST SWAP1 PUSH2 0x423B DUP3 PUSH2 0x41E8 JUMP JUMPDEST PUSH2 0x4248 PUSH1 0x40 MLOAD SWAP2 DUP3 PUSH2 0x3E74 JUMP JUMPDEST DUP3 DUP2 MSTORE DUP1 SWAP3 PUSH2 0x4259 PUSH1 0x1F NOT SWAP2 PUSH2 0x41E8 JUMP JUMPDEST ADD SWAP1 PUSH0 JUMPDEST DUP3 DUP2 LT PUSH2 0x4269 JUMPI POP POP POP JUMP JUMPDEST DUP1 PUSH1 0x60 PUSH1 0x20 DUP1 SWAP4 DUP6 ADD ADD MSTORE ADD PUSH2 0x425D JUMP JUMPDEST DUP1 MLOAD DUP3 LT ISZERO PUSH2 0x3B6E JUMPI PUSH1 0x20 SWAP2 PUSH1 0x5 SHL ADD ADD SWAP1 JUMP JUMPDEST PUSH1 0x4 DUP3 LT ISZERO PUSH2 0x6CA JUMPI MSTORE JUMP JUMPDEST SWAP1 PUSH1 0xFF DUP1 NOT DUP4 SLOAD AND SWAP2 ISZERO ISZERO AND OR SWAP1 SSTORE JUMP JUMPDEST DUP1 SLOAD PUSH1 0x1 PUSH1 0x40 SHL DUP2 LT ISZERO PUSH2 0x1C1C JUMPI PUSH2 0x42C8 SWAP2 PUSH1 0x1 DUP3 ADD DUP2 SSTORE PUSH2 0x3F8B JUMP JUMPDEST SWAP2 SWAP1 SWAP2 PUSH2 0x1DC2 JUMPI DUP1 MLOAD DUP3 SLOAD PUSH1 0x1 PUSH1 0x1 PUSH1 0xA0 SHL SUB NOT AND PUSH1 0x1 PUSH1 0x1 PUSH1 0xA0 SHL SUB SWAP2 SWAP1 SWAP2 AND OR DUP3 SSTORE PUSH1 0x20 DUP2 ADD MLOAD PUSH1 0x1 DUP4 ADD SSTORE PUSH1 0x40 DUP2 ADD MLOAD PUSH1 0x2 DUP4 ADD SSTORE PUSH1 0x60 DUP2 ADD MLOAD PUSH1 0x3 DUP4 ADD SWAP2 PUSH1 0x4 DUP3 LT ISZERO PUSH2 0x6CA JUMPI PUSH1 0x6 SWAP3 PUSH1 0xC0 SWAP3 PUSH1 0xFF DUP1 NOT DUP4 SLOAD AND SWAP2 AND OR SWAP1 SSTORE PUSH1 0x80 DUP2 ADD MLOAD PUSH1 0x4 DUP6 ADD SSTORE PUSH2 0x4342 PUSH1 0xA0 DUP3 ADD MLOAD ISZERO ISZERO PUSH1 0x5 DUP7 ADD PUSH2 0x429A JUMP JUMPDEST ADD MLOAD SWAP2 ADD SSTORE JUMP JUMPDEST PUSH1 0x1 PUSH1 0x1 PUSH1 0xA0 SHL SUB AND PUSH0 DUP2 DUP2 MSTORE PUSH1 0xB PUSH1 0x20 MSTORE PUSH1 0x40 SWAP1 KECCAK256 SLOAD PUSH2 0x4369 SWAP1 PUSH2 0x506D JUMP JUMPDEST SWAP1 PUSH0 MSTORE PUSH1 0xC PUSH1 0x20 MSTORE PUSH1 0x40 PUSH0 KECCAK256 SLOAD DUP1 DUP3 GT PUSH2 0x4383 JUMPI POP POP PUSH0 SWAP1 JUMP JUMPDEST PUSH2 0x4155 SWAP2 PUSH2 0x406B JUMP JUMPDEST ISZERO PUSH2 0x4393 JUMPI JUMP JUMPDEST PUSH1 0x40 MLOAD PUSH3 0x461BCD PUSH1 0xE5 SHL DUP2 MSTORE PUSH1 0x20 PUSH1 0x4 DUP3 ADD MSTORE PUSH1 0xB PUSH1 0x24 DUP3 ADD MSTORE PUSH11 0x1E995C9BC8185B5BDD5B9D PUSH1 0xAA SHL PUSH1 0x44 DUP3 ADD MSTORE PUSH1 0x64 SWAP1 REVERT JUMPDEST ISZERO PUSH2 0x43CD JUMPI JUMP JUMPDEST PUSH1 0x40 MLOAD PUSH3 0x461BCD PUSH1 0xE5 SHL DUP2 MSTORE PUSH1 0x20 PUSH1 0x4 DUP3 ADD MSTORE PUSH1 0xF PUSH1 0x24 DUP3 ADD MSTORE PUSH15 0x1D1C985B9CD9995C8819985A5B1959 PUSH1 0x8A SHL PUSH1 0x44 DUP3 ADD MSTORE PUSH1 0x64 SWAP1 REVERT JUMPDEST ISZERO PUSH2 0x440B JUMPI JUMP JUMPDEST PUSH1 0x40 MLOAD PUSH3 0x461BCD PUSH1 0xE5 SHL DUP2 MSTORE PUSH1 0x20 PUSH1 0x4 DUP3 ADD MSTORE PUSH1 0x14 PUSH1 0x24 DUP3 ADD MSTORE PUSH20 0x1B9BDD081858DD1A5D99481BDC881C5D595D5959 PUSH1 0x62 SHL PUSH1 0x44 DUP3 ADD MSTORE PUSH1 0x64 SWAP1 REVERT JUMPDEST DUP1 SLOAD PUSH1 0x1 PUSH1 0x40 SHL DUP2 LT ISZERO PUSH2 0x1C1C JUMPI PUSH2 0x4464 SWAP2 PUSH1 0x1 DUP3 ADD DUP2 SSTORE PUSH2 0x3B9A JUMP JUMPDEST PUSH1 0x1 DUP1 PUSH1 0xA0 SWAP5 SWAP4 SWAP5 SHL SUB DUP1 DUP5 SLOAD SWAP3 PUSH1 0x3 SHL SWAP4 AND DUP4 SHL SWAP3 SHL NOT AND OR SWAP1 SSTORE JUMP JUMPDEST PUSH1 0x3 DUP2 LT ISZERO PUSH2 0x6CA JUMPI DUP1 ISZERO PUSH2 0x44C1 JUMPI PUSH1 0x1 DUP2 EQ PUSH2 0x44B9 JUMPI PUSH1 0x2 EQ PUSH2 0x44B2 JUMPI PUSH1 0x40 MLOAD PUSH4 0xAA20E775 PUSH1 0xE0 SHL DUP2 MSTORE PUSH1 0x4 SWAP1 REVERT JUMPDEST PUSH3 0x278D00 SWAP1 JUMP JUMPDEST POP PUSH3 0x93A80 SWAP1 JUMP JUMPDEST POP PUSH3 0x3F480 SWAP1 JUMP JUMPDEST ISZERO PUSH2 0x44D0 JUMPI JUMP JUMPDEST PUSH1 0x40 MLOAD PUSH3 0x461BCD PUSH1 0xE5 SHL DUP2 MSTORE PUSH1 0x20 PUSH1 0x4 DUP3 ADD MSTORE PUSH1 0xA PUSH1 0x24 DUP3 ADD MSTORE PUSH10 0x6E6F7420616374697665 PUSH1 0xB0 SHL PUSH1 0x44 DUP3 ADD MSTORE PUSH1 0x64 SWAP1 REVERT JUMPDEST SWAP1 PUSH3 0xFF0000 DUP3 SLOAD SWAP2 ISZERO ISZERO PUSH1 0x10 SHL AND SWAP1 PUSH3 0xFF0000 NOT AND OR SWAP1 SSTORE JUMP JUMPDEST ISZERO PUSH2 0x4523 JUMPI JUMP JUMPDEST PUSH1 0x40 MLOAD PUSH3 0x461BCD PUSH1 0xE5 SHL DUP2 MSTORE PUSH1 0x20 PUSH1 0x4 DUP3 ADD MSTORE PUSH1 0x12 PUSH1 0x24 DUP3 ADD MSTORE PUSH18 0x191BD9D9481D1BDAD95B881B9BDD081CD95D PUSH1 0x72 SHL PUSH1 0x44 DUP3 ADD MSTORE PUSH1 0x64 SWAP1 REVERT JUMPDEST PUSH1 0x4 DUP2 LT ISZERO PUSH2 0x6CA JUMPI DUP1 ISZERO PUSH2 0x4158 JUMPI PUSH1 0x1 DUP2 EQ PUSH2 0x45AB JUMPI PUSH1 0x2 DUP2 EQ PUSH2 0x45A3 JUMPI PUSH1 0x3 EQ PUSH2 0x459C JUMPI PUSH1 0x40 MLOAD PUSH3 0x461BCD PUSH1 0xE5 SHL DUP2 MSTORE DUP1 PUSH2 0x41BE PUSH1 0x4 DUP3 ADD PUSH2 0x415D JUMP JUMPDEST PUSH3 0xED4E00 SWAP1 JUMP JUMPDEST POP PUSH3 0x76A700 SWAP1 JUMP JUMPDEST POP PUSH3 0x278D00 SWAP1 JUMP JUMPDEST ISZERO PUSH2 0x45BA JUMPI JUMP JUMPDEST PUSH1 0x64 PUSH1 0x40 MLOAD PUSH3 0x461BCD PUSH1 0xE5 SHL DUP2 MSTORE PUSH1 0x20 PUSH1 0x4 DUP3 ADD MSTORE PUSH1 0x20 PUSH1 0x24 DUP3 ADD MSTORE PUSH32 0x6D7573742063686F6F7365206174206C65617374203120696E63656E74697665 PUSH1 0x44 DUP3 ADD MSTORE REVERT JUMPDEST ISZERO PUSH2 0x4605 JUMPI JUMP JUMPDEST PUSH1 0x40 MLOAD PUSH3 0x461BCD PUSH1 0xE5 SHL DUP2 MSTORE PUSH1 0x20 PUSH1 0x4 DUP3 ADD MSTORE PUSH1 0x13 PUSH1 0x24 DUP3 ADD MSTORE PUSH19 0x199959481D1C985B9CD9995C8819985A5B1959 PUSH1 0x6A SHL PUSH1 0x44 DUP3 ADD MSTORE PUSH1 0x64 SWAP1 REVERT JUMPDEST PUSH1 0x5 SLOAD SWAP1 PUSH1 0x1 PUSH1 0x40 SHL DUP3 LT ISZERO PUSH2 0x1C1C JUMPI PUSH2 0xD46 DUP3 PUSH1 0x1 PUSH2 0x4663 SWAP5 ADD PUSH1 0x5 SSTORE PUSH2 0x3B56 JUMP JUMPDEST JUMP JUMPDEST SWAP1 PUSH1 0x3 DUP3 LT ISZERO PUSH2 0x6CA JUMPI MSTORE JUMP JUMPDEST PUSH2 0x4683 SWAP1 PUSH2 0xD08 PUSH1 0x4 SLOAD DUP3 LT PUSH2 0x3FA4 JUMP JUMPDEST POP PUSH1 0xFF PUSH1 0xC DUP3 ADD SLOAD AND SWAP1 PUSH1 0x7 DUP3 LT ISZERO PUSH2 0x6CA JUMPI DUP2 ISZERO DUP1 PUSH2 0x46BC JUMPI JUMPDEST PUSH2 0x46A6 JUMPI POP SWAP1 JUMP JUMPDEST PUSH1 0xB SWAP2 POP ADD SLOAD TIMESTAMP GT PUSH2 0x46B7 JUMPI PUSH1 0x3 SWAP1 JUMP JUMPDEST PUSH1 0x4 SWAP1 JUMP JUMPDEST POP PUSH1 0xA DUP2 ADD SLOAD TIMESTAMP GT PUSH2 0x469E JUMP JUMPDEST SWAP3 SWAP2 SWAP3 PUSH2 0x46D5 DUP3 PUSH2 0x4078 JUMP JUMPDEST SWAP2 PUSH2 0x46E3 PUSH1 0x40 MLOAD SWAP4 DUP5 PUSH2 0x3E74 JUMP JUMPDEST DUP3 SWAP5 DUP2 DUP5 MSTORE DUP2 DUP4 ADD GT PUSH2 0x4D9 JUMPI DUP3 DUP2 PUSH1 0x20 SWAP4 DUP5 PUSH0 SWAP7 ADD CALLDATACOPY ADD ADD MSTORE JUMP JUMPDEST DUP1 SLOAD PUSH3 0x10000 PUSH1 0x1 PUSH1 0xB0 SHL SUB NOT AND PUSH1 0x10 SWAP3 SWAP1 SWAP3 SHL PUSH3 0x10000 PUSH1 0x1 PUSH1 0xB0 SHL SUB AND SWAP2 SWAP1 SWAP2 OR SWAP1 SSTORE JUMP JUMPDEST SWAP1 DUP1 PUSH1 0x20 SWAP4 SWAP3 DUP2 DUP5 MSTORE DUP5 DUP5 ADD CALLDATACOPY PUSH0 DUP3 DUP3 ADD DUP5 ADD MSTORE PUSH1 0x1F ADD PUSH1 0x1F NOT AND ADD ADD SWAP1 JUMP JUMPDEST PUSH2 0x4369 PUSH2 0x4772 PUSH1 0x1 DUP1 PUSH1 0xA0 SHL SUB DUP4 AND SWAP3 DUP4 PUSH0 MSTORE PUSH1 0xB PUSH1 0x20 MSTORE PUSH2 0x476C PUSH1 0x40 PUSH0 KECCAK256 SLOAD SWAP2 PUSH2 0x488D JUMP JUMPDEST SWAP1 PUSH2 0x4119 JUMP JUMPDEST PUSH2 0x506D JUMP JUMPDEST PUSH1 0x6 SLOAD PUSH1 0x7 SLOAD DUP1 DUP3 GT PUSH2 0x4383 JUMPI POP POP PUSH0 SWAP1 JUMP JUMPDEST PUSH1 0x3 DUP2 LT ISZERO PUSH2 0x6CA JUMPI DUP1 ISZERO PUSH2 0x47D3 JUMPI PUSH1 0x1 DUP2 EQ PUSH2 0x47C6 JUMPI PUSH1 0x2 EQ PUSH2 0x47BA JUMPI PUSH1 0x40 MLOAD PUSH4 0xAA20E775 PUSH1 0xE0 SHL DUP2 MSTORE PUSH1 0x4 SWAP1 REVERT JUMPDEST PUSH8 0xDE0B6B3A7640000 SWAP1 JUMP JUMPDEST POP PUSH8 0x6F05B59D3B20000 SWAP1 JUMP JUMPDEST POP PUSH8 0x16345785D8A0000 SWAP1 JUMP JUMPDEST PUSH0 DUP1 MLOAD PUSH1 0x20 PUSH2 0x5FAF DUP4 CODECOPY DUP2 MLOAD SWAP2 MSTORE PUSH1 0x2 DUP2 SLOAD EQ PUSH2 0x47FD JUMPI PUSH1 0x2 SWAP1 SSTORE JUMP JUMPDEST PUSH1 0x40 MLOAD PUSH4 0x3EE5AEB5 PUSH1 0xE0 SHL DUP2 MSTORE PUSH1 0x4 SWAP1 REVERT JUMPDEST PUSH1 0x40 MLOAD PUSH4 0xA9059CBB PUSH1 0xE0 SHL PUSH0 SWAP1 DUP2 MSTORE PUSH1 0x1 PUSH1 0x1 PUSH1 0xA0 SHL SUB SWAP4 DUP5 AND PUSH1 0x4 MSTORE PUSH1 0x24 SWAP5 SWAP1 SWAP5 MSTORE SWAP3 PUSH1 0x20 SWAP1 PUSH1 0x44 DUP2 DUP1 DUP6 GAS CALL PUSH1 0x1 PUSH0 MLOAD EQ DUP2 AND ISZERO PUSH2 0x486E JUMPI JUMPDEST DUP4 PUSH1 0x40 MSTORE ISZERO PUSH2 0x4858 JUMPI POP POP POP JUMP JUMPDEST PUSH4 0x5274AFE7 PUSH1 0xE0 SHL DUP4 MSTORE AND PUSH1 0x4 DUP3 ADD MSTORE PUSH1 0x24 SWAP2 POP REVERT JUMPDEST PUSH1 0x1 DUP2 ISZERO AND PUSH2 0x4884 JUMPI DUP2 EXTCODESIZE ISZERO ISZERO RETURNDATASIZE ISZERO AND AND PUSH2 0x484A JUMP JUMPDEST DUP4 RETURNDATASIZE PUSH0 DUP3 RETURNDATACOPY RETURNDATASIZE SWAP1 REVERT JUMPDEST PUSH1 0x1 PUSH1 0x1 PUSH1 0xA0 SHL SUB AND PUSH0 SWAP1 DUP2 MSTORE PUSH1 0xA PUSH1 0x20 MSTORE PUSH1 0x40 DUP2 KECCAK256 DUP1 SLOAD DUP3 SWAP2 JUMPDEST DUP2 DUP4 LT PUSH2 0x48B5 JUMPI POP POP POP SWAP1 JUMP JUMPDEST SWAP1 SWAP2 SWAP3 PUSH2 0x48D1 PUSH1 0x1 SWAP2 PUSH2 0x476C PUSH2 0x48CB DUP8 DUP7 PUSH2 0x3F8B JUMP JUMPDEST POP PUSH2 0x50AD JUMP JUMPDEST SWAP4 ADD SWAP2 SWAP1 PUSH2 0x48A8 JUMP JUMPDEST PUSH3 0x15180 SWAP1 DUP2 TIMESTAMP DIV PUSH0 MSTORE PUSH1 0x17 PUSH1 0x20 MSTORE PUSH1 0x40 PUSH0 KECCAK256 SLOAD PUSH1 0x14 SLOAD GT ISZERO PUSH2 0x503E JUMPI PUSH1 0x15 SLOAD PUSH2 0xE10 DUP4 TIMESTAMP MOD DIV LT PUSH2 0x503E JUMPI PUSH2 0x490E PUSH2 0x55B9 JUMP JUMPDEST PUSH0 SWAP2 JUMPDEST PUSH1 0x14 SLOAD DUP1 DUP5 LT SWAP1 DUP2 PUSH2 0x5026 JUMPI JUMPDEST POP ISZERO PUSH2 0x501E JUMPI JUMPDEST PUSH1 0x7 DUP1 SLOAD PUSH1 0x6 SLOAD DUP2 LT DUP1 PUSH2 0x4FEC JUMPI JUMPDEST ISZERO PUSH2 0x4949 JUMPI PUSH2 0x4942 SWAP1 PUSH2 0x41DA JUMP JUMPDEST SWAP1 SSTORE PUSH2 0x4925 JUMP JUMPDEST POP POP SWAP2 PUSH1 0x7 SLOAD PUSH1 0x6 SLOAD SWAP1 DUP2 DUP2 LT ISZERO PUSH2 0x4F01 JUMPI DUP1 SWAP2 PUSH2 0x4966 DUP3 PUSH2 0x3B82 JUMP JUMPDEST SWAP1 SLOAD SWAP1 PUSH1 0x3 SHL SHR PUSH0 MSTORE PUSH1 0x8 PUSH1 0x20 MSTORE PUSH1 0x40 PUSH0 KECCAK256 SLOAD SWAP1 PUSH1 0x1 DUP4 ADD DUP1 DUP5 GT PUSH2 0xD6B JUMPI JUMPDEST DUP2 DUP2 LT PUSH2 0x4E90 JUMPI POP POP POP DUP1 DUP3 SUB PUSH2 0x4E55 JUMPI JUMPDEST POP POP PUSH2 0x49A5 PUSH1 0x7 SLOAD PUSH2 0x3B82 JUMP JUMPDEST SWAP1 SLOAD SWAP1 PUSH1 0x3 SHL SHR SWAP1 PUSH2 0x49B6 DUP3 PUSH2 0x3D61 JUMP JUMPDEST POP SWAP2 DUP5 TIMESTAMP DIV PUSH1 0x13 SSTORE DUP5 TIMESTAMP DIV PUSH0 MSTORE PUSH1 0x17 PUSH1 0x20 MSTORE PUSH1 0x40 PUSH0 KECCAK256 PUSH2 0x49D6 DUP2 SLOAD PUSH2 0x41DA JUMP JUMPDEST SWAP1 SSTORE PUSH0 PUSH1 0x20 PUSH1 0x1 DUP1 PUSH1 0xA0 SHL SUB PUSH1 0x1 SLOAD AND PUSH1 0x14 DUP7 ADD SLOAD SWAP1 PUSH1 0x40 MLOAD DUP1 SWAP5 DUP2 DUP1 SWAP5 PUSH4 0x7E2A32EF PUSH1 0xE1 SHL DUP3 MSTORE PUSH2 0x120 PUSH1 0x4 DUP4 ADD MSTORE PUSH1 0xFF PUSH2 0x4A59 DUP13 PUSH1 0x3 PUSH2 0x4A36 PUSH2 0x4A22 PUSH2 0x124 DUP9 ADD PUSH1 0x1 DUP6 ADD PUSH2 0x3DB5 JUMP JUMPDEST DUP3 NOT DUP9 DUP3 SUB ADD PUSH1 0x24 DUP10 ADD MSTORE PUSH1 0x2 DUP5 ADD PUSH2 0x3DB5 JUMP JUMPDEST PUSH8 0x6765C793FA10079D PUSH1 0x1B SHL PUSH1 0x44 DUP9 ADD MSTORE DUP7 DUP2 SUB DUP3 NOT ADD PUSH1 0x64 DUP9 ADD MSTORE SWAP2 ADD PUSH2 0x3DB5 JUMP JUMPDEST SWAP2 ADDRESS PUSH1 0x84 DUP6 ADD MSTORE DUP5 PUSH1 0xA4 DUP6 ADD MSTORE DUP2 DUP2 AND ISZERO ISZERO PUSH1 0xC4 DUP6 ADD MSTORE DUP2 DUP2 PUSH1 0x8 SHR AND ISZERO ISZERO PUSH1 0xE4 DUP6 ADD MSTORE PUSH1 0x10 SHR AND ISZERO ISZERO PUSH2 0x104 DUP4 ADD MSTORE SUB SWAP3 GAS CALL SWAP1 DUP2 ISZERO PUSH2 0x4D69 JUMPI PUSH0 SWAP2 PUSH2 0x4E13 JUMPI JUMPDEST POP PUSH1 0x1 PUSH1 0x1 PUSH1 0xA0 SHL SUB DUP2 AND EXTCODESIZE ISZERO PUSH2 0x4D9 JUMPI PUSH1 0x40 MLOAD PUSH4 0x306892CF PUSH1 0xE1 SHL DUP2 MSTORE ADDRESS PUSH1 0x4 DUP3 ADD MSTORE PUSH0 DUP2 PUSH1 0x24 DUP2 DUP4 PUSH1 0x1 PUSH1 0x1 PUSH1 0xA0 SHL SUB DUP8 AND GAS CALL DUP1 ISZERO PUSH2 0x4D69 JUMPI PUSH2 0x4E04 JUMPI JUMPDEST POP PUSH1 0x1 PUSH1 0x1 PUSH1 0xA0 SHL SUB DUP2 AND EXTCODESIZE ISZERO PUSH2 0x4D9 JUMPI PUSH1 0x40 MLOAD PUSH4 0x7AC1C9A1 PUSH1 0xE1 SHL DUP2 MSTORE ADDRESS PUSH1 0x4 DUP3 ADD MSTORE PUSH0 DUP2 PUSH1 0x24 DUP2 DUP4 PUSH1 0x1 PUSH1 0x1 PUSH1 0xA0 SHL SUB DUP8 AND GAS CALL DUP1 ISZERO PUSH2 0x4D69 JUMPI PUSH2 0x4DF5 JUMPI JUMPDEST POP PUSH0 SWAP4 PUSH1 0x5 DUP2 ADD SLOAD SWAP2 PUSH0 SWAP2 PUSH9 0x1158E460913D00000 DUP5 GT PUSH2 0x4DC1 JUMPI JUMPDEST DUP4 ISZERO ISZERO DUP1 PUSH2 0x4DB7 JUMPI JUMPDEST PUSH2 0x4C63 JUMPI JUMPDEST PUSH1 0xE DUP2 ADD DUP5 SWAP1 SSTORE PUSH1 0xF DUP2 ADD DUP4 SWAP1 SSTORE PUSH1 0x3 SLOAD DUP8 SWAP2 PUSH1 0xD SWAP2 PUSH1 0x1 PUSH1 0x1 PUSH1 0xA0 SHL SUB DUP2 AND ISZERO PUSH2 0x4C45 JUMPI JUMPDEST POP PUSH2 0x4B88 DUP5 PUSH1 0xC DUP4 ADD PUSH2 0x106 PUSH2 0xFFFF NOT DUP3 SLOAD AND OR DUP2 SSTORE PUSH2 0x46FF JUMP JUMPDEST ADD SSTORE PUSH2 0x4B97 DUP3 DUP8 DUP6 DUP5 DUP9 PUSH2 0x5638 JUMP JUMPDEST PUSH1 0x1 SLOAD PUSH1 0x1 PUSH1 0x1 PUSH1 0xA0 SHL SUB AND SWAP2 DUP3 EXTCODESIZE ISZERO PUSH2 0x4D9 JUMPI PUSH2 0x4C30 SWAP7 PUSH32 0x37A15AD6422BD0641FC4188D5B385EAC92D644EA1A48795B158B196D52423818 SWAP5 PUSH0 DUP1 PUSH1 0x80 SWAP7 PUSH1 0x24 PUSH1 0x40 MLOAD DUP1 SWAP5 DUP2 SWAP4 PUSH4 0x9C8B1217 PUSH1 0xE0 SHL DUP4 MSTORE PUSH1 0x1 DUP1 PUSH1 0xA0 SHL SUB DUP12 AND PUSH1 0x4 DUP5 ADD MSTORE GAS CALL PUSH2 0x4C36 JUMPI JUMPDEST POP PUSH2 0x4C0A PUSH1 0x7 SLOAD PUSH2 0x41DA JUMP JUMPDEST PUSH1 0x7 SSTORE PUSH1 0x40 MLOAD SWAP4 PUSH1 0x1 DUP1 PUSH1 0xA0 SHL SUB AND DUP5 MSTORE PUSH1 0x20 DUP5 ADD MSTORE PUSH1 0x40 DUP4 ADD MSTORE PUSH1 0x60 DUP3 ADD MSTORE LOG2 PUSH2 0x41DA JUMP JUMPDEST SWAP2 PUSH2 0x4911 JUMP JUMPDEST PUSH2 0x4C3F SWAP1 PUSH2 0x3E61 JUMP JUMPDEST PUSH0 PUSH2 0x4BFE JUMP JUMPDEST PUSH1 0x1 PUSH1 0x1 PUSH1 0xA0 SHL SUB NOT AND PUSH1 0x1 PUSH1 0x1 PUSH1 0xA0 SHL SUB DUP6 AND OR PUSH1 0x3 SSTORE PUSH0 PUSH2 0x4B6D JUMP JUMPDEST PUSH1 0x40 MLOAD PUSH4 0x70A08231 PUSH1 0xE0 SHL DUP2 MSTORE ADDRESS PUSH1 0x4 DUP3 ADD MSTORE SWAP7 POP PUSH1 0x20 DUP8 PUSH1 0x24 DUP2 PUSH1 0x1 PUSH1 0x1 PUSH1 0xA0 SHL SUB DUP7 AND GAS STATICCALL SWAP7 DUP8 ISZERO PUSH2 0x4D69 JUMPI PUSH0 SWAP8 PUSH2 0x4D83 JUMPI JUMPDEST POP PUSH1 0x1 SLOAD PUSH1 0x1 PUSH1 0x1 PUSH1 0xA0 SHL SUB AND DUP1 EXTCODESIZE ISZERO PUSH2 0x4D9 JUMPI PUSH1 0x40 MLOAD PUSH4 0x6DB0E3B7 PUSH1 0xE1 SHL DUP2 MSTORE PUSH1 0x1 PUSH1 0x1 PUSH1 0xA0 SHL SUB DUP5 AND PUSH1 0x4 DUP3 ADD MSTORE PUSH0 PUSH1 0x24 DUP3 ADD DUP2 SWAP1 MSTORE ADDRESS PUSH1 0x44 DUP4 ADD MSTORE SWAP1 SWAP2 DUP3 SWAP1 PUSH1 0x64 SWAP1 DUP3 SWAP1 DUP10 SWAP1 GAS CALL DUP1 ISZERO PUSH2 0x4D69 JUMPI PUSH2 0x4D74 JUMPI JUMPDEST POP PUSH1 0x40 MLOAD PUSH4 0x70A08231 PUSH1 0xE0 SHL DUP2 MSTORE ADDRESS PUSH1 0x4 DUP3 ADD MSTORE PUSH1 0x20 DUP2 PUSH1 0x24 DUP2 PUSH1 0x1 PUSH1 0x1 PUSH1 0xA0 SHL SUB DUP8 AND GAS STATICCALL SWAP1 DUP2 ISZERO PUSH2 0x4D69 JUMPI PUSH0 SWAP2 PUSH2 0x4D36 JUMPI JUMPDEST POP PUSH1 0xD SWAP8 PUSH2 0x4D2F SWAP2 PUSH2 0x406B JUMP JUMPDEST SWAP7 POP PUSH2 0x4B47 JUMP JUMPDEST SWAP1 POP PUSH1 0x20 DUP2 RETURNDATASIZE PUSH1 0x20 GT PUSH2 0x4D61 JUMPI JUMPDEST DUP2 PUSH2 0x4D51 PUSH1 0x20 SWAP4 DUP4 PUSH2 0x3E74 JUMP JUMPDEST DUP2 ADD SUB SLT PUSH2 0x4D9 JUMPI MLOAD PUSH1 0xD PUSH2 0x4D22 JUMP JUMPDEST RETURNDATASIZE SWAP2 POP PUSH2 0x4D44 JUMP JUMPDEST PUSH1 0x40 MLOAD RETURNDATASIZE PUSH0 DUP3 RETURNDATACOPY RETURNDATASIZE SWAP1 REVERT JUMPDEST PUSH2 0x4D7D SWAP1 PUSH2 0x3E61 JUMP JUMPDEST PUSH0 PUSH2 0x4CEE JUMP JUMPDEST SWAP1 SWAP7 POP PUSH1 0x20 DUP2 RETURNDATASIZE PUSH1 0x20 GT PUSH2 0x4DAF JUMPI JUMPDEST DUP2 PUSH2 0x4D9F PUSH1 0x20 SWAP4 DUP4 PUSH2 0x3E74 JUMP JUMPDEST DUP2 ADD SUB SLT PUSH2 0x4D9 JUMPI MLOAD SWAP6 PUSH0 PUSH2 0x4C98 JUMP JUMPDEST RETURNDATASIZE SWAP2 POP PUSH2 0x4D92 JUMP JUMPDEST POP DUP4 SELFBALANCE LT ISZERO PUSH2 0x4B42 JUMP JUMPDEST SWAP3 DUP1 SWAP2 SWAP3 POP PUSH9 0x1158E460913CFFFFF NOT DUP2 ADD GT PUSH2 0xD6B JUMPI PUSH9 0x1158E460913CFFFFF NOT ADD SWAP1 PUSH9 0x1158E460913D00000 SWAP3 PUSH2 0x4B39 JUMP JUMPDEST PUSH2 0x4DFE SWAP1 PUSH2 0x3E61 JUMP JUMPDEST PUSH0 PUSH2 0x4B1D JUMP JUMPDEST PUSH2 0x4E0D SWAP1 PUSH2 0x3E61 JUMP JUMPDEST PUSH0 PUSH2 0x4ADC JUMP JUMPDEST SWAP1 POP PUSH1 0x20 DUP2 RETURNDATASIZE PUSH1 0x20 GT PUSH2 0x4E4D JUMPI JUMPDEST DUP2 PUSH2 0x4E2E PUSH1 0x20 SWAP4 DUP4 PUSH2 0x3E74 JUMP JUMPDEST DUP2 ADD SUB SLT PUSH2 0x4D9 JUMPI MLOAD PUSH1 0x1 PUSH1 0x1 PUSH1 0xA0 SHL SUB DUP2 AND DUP2 SUB PUSH2 0x4D9 JUMPI PUSH0 PUSH2 0x4A9B JUMP JUMPDEST RETURNDATASIZE SWAP2 POP PUSH2 0x4E21 JUMP JUMPDEST PUSH2 0xD46 PUSH2 0x4E89 SWAP3 PUSH2 0x26DA PUSH2 0x4E68 DUP5 PUSH2 0x3B82 JUMP JUMPDEST SWAP1 SLOAD SWAP1 PUSH1 0x3 SHL SHR SWAP4 PUSH2 0xD46 PUSH2 0x4E7C DUP5 PUSH2 0x3B82 JUMP JUMPDEST SWAP1 SLOAD SWAP1 PUSH1 0x3 SHL SHR SWAP2 PUSH2 0x3B82 JUMP JUMPDEST PUSH0 DUP1 PUSH2 0x4998 JUMP JUMPDEST PUSH2 0x4E99 DUP2 PUSH2 0x3B82 JUMP JUMPDEST SWAP1 SLOAD SWAP1 PUSH1 0x3 SHL SHR PUSH1 0xFF PUSH1 0xC PUSH2 0x4EAD DUP4 PUSH2 0x3D61 JUMP JUMPDEST POP ADD SLOAD AND PUSH1 0x7 DUP2 LT ISZERO PUSH2 0x6CA JUMPI PUSH1 0x1 EQ DUP1 PUSH2 0x4EEC JUMPI JUMPDEST PUSH2 0x4ED1 JUMPI JUMPDEST POP PUSH1 0x1 ADD PUSH2 0x4986 JUMP JUMPDEST SWAP2 SWAP3 POP SWAP4 POP PUSH0 MSTORE PUSH1 0x8 PUSH1 0x20 MSTORE PUSH1 0x40 PUSH0 KECCAK256 SLOAD SWAP1 PUSH1 0x1 DUP5 SWAP1 PUSH2 0x4EC8 JUMP JUMPDEST POP DUP1 PUSH0 MSTORE PUSH1 0x8 PUSH1 0x20 MSTORE DUP4 PUSH1 0x40 PUSH0 KECCAK256 SLOAD GT PUSH2 0x4EC3 JUMP JUMPDEST POP POP POP SWAP1 POP JUMPDEST PUSH1 0x12 SLOAD PUSH0 SWAP1 DUP2 MSTORE PUSH1 0x18 PUSH1 0x20 MSTORE PUSH1 0x40 SWAP1 KECCAK256 PUSH1 0x3 SLOAD PUSH1 0x1 PUSH1 0x1 PUSH1 0xA0 SHL SUB SWAP2 SWAP1 DUP3 AND ISZERO ISZERO DUP1 PUSH2 0x4FD7 JUMPI JUMPDEST DUP1 PUSH2 0x4FC5 JUMPI JUMPDEST PUSH2 0x4F3C JUMPI POP POP JUMP JUMPDEST PUSH1 0x2 ADD DUP1 SLOAD PUSH3 0xFF0000 NOT AND PUSH3 0x10000 OR SWAP1 SSTORE PUSH1 0xF SLOAD PUSH9 0x1158E460913CFFFFF NOT DUP2 ADD SWAP1 DUP2 GT PUSH2 0xD6B JUMPI PUSH1 0xF SSTORE PUSH1 0x3 SLOAD AND PUSH1 0x40 MLOAD SWAP1 PUSH4 0xA9059CBB PUSH1 0xE0 SHL PUSH0 MSTORE CALLER PUSH1 0x4 MSTORE PUSH9 0x1158E460913D00000 PUSH1 0x24 MSTORE PUSH1 0x20 PUSH0 PUSH1 0x44 DUP2 DUP1 DUP6 GAS CALL PUSH1 0x1 PUSH0 MLOAD EQ DUP2 AND ISZERO PUSH2 0x4FAF JUMPI JUMPDEST DUP3 PUSH1 0x40 MSTORE ISZERO PUSH2 0xF36 JUMPI POP POP JUMP JUMPDEST PUSH1 0x1 DUP2 ISZERO AND PUSH2 0xF61 JUMPI DUP2 EXTCODESIZE ISZERO ISZERO RETURNDATASIZE ISZERO AND AND PUSH2 0x4FA2 JUMP JUMPDEST POP PUSH1 0xFF PUSH1 0x2 DUP3 ADD SLOAD PUSH1 0x10 SHR AND ISZERO PUSH2 0x4F34 JUMP JUMPDEST POP PUSH9 0x1158E460913D00000 PUSH1 0xF SLOAD LT ISZERO PUSH2 0x4F2E JUMP JUMPDEST POP PUSH1 0xFF PUSH1 0xC PUSH2 0x5009 PUSH2 0x4FFD DUP5 PUSH2 0x3B82 JUMP JUMPDEST SWAP1 SLOAD SWAP1 PUSH1 0x3 SHL SHR PUSH2 0x3D61 JUMP JUMPDEST POP ADD SLOAD AND DUP3 DUP2 LT ISZERO PUSH2 0x6CA JUMPI PUSH1 0x1 EQ ISZERO PUSH2 0x4934 JUMP JUMPDEST POP SWAP1 POP PUSH2 0x4F07 JUMP JUMPDEST SWAP1 POP DUP2 TIMESTAMP DIV PUSH0 MSTORE PUSH1 0x17 PUSH1 0x20 MSTORE PUSH1 0x40 PUSH0 KECCAK256 SLOAD LT PUSH0 PUSH2 0x491E JUMP JUMPDEST SWAP1 POP JUMP JUMPDEST PUSH0 SLOAD PUSH1 0x1 PUSH1 0x1 PUSH1 0xA0 SHL SUB AND CALLER SUB PUSH2 0x5055 JUMPI JUMP JUMPDEST PUSH1 0x40 MLOAD PUSH4 0x118CDAA7 PUSH1 0xE0 SHL DUP2 MSTORE CALLER PUSH1 0x4 DUP3 ADD MSTORE PUSH1 0x24 SWAP1 REVERT JUMPDEST PUSH2 0x1F4 SWAP1 DUP2 DUP2 GT ISZERO PUSH2 0x50A8 JUMPI PUSH2 0x1F3 NOT DUP2 ADD SWAP1 DUP1 DUP3 GT PUSH2 0xD6B JUMPI DUP2 DUP4 MUL SWAP2 DUP4 DUP4 DIV SUB PUSH2 0xD6B JUMPI PUSH2 0x509C SWAP2 PUSH2 0x404D JUMP JUMPDEST DUP2 ADD DUP1 SWAP2 GT PUSH2 0xD6B JUMPI SWAP1 JUMP JUMPDEST SWAP1 POP SWAP1 JUMP JUMPDEST PUSH1 0xFF PUSH1 0x5 DUP3 ADD SLOAD AND DUP1 ISZERO PUSH2 0x51FF JUMPI JUMPDEST PUSH2 0x4158 JUMPI DUP1 SLOAD PUSH2 0x50D4 SWAP1 PUSH1 0x1 PUSH1 0x1 PUSH1 0xA0 SHL SUB AND PUSH2 0x5B47 JUMP JUMPDEST SWAP1 PUSH2 0x50E5 PUSH1 0xFF PUSH1 0x3 DUP4 ADD SLOAD AND PUSH2 0x417F JUMP JUMPDEST SWAP2 PUSH0 SWAP3 PUSH1 0x4 DUP4 ADD SLOAD DUP1 ISZERO ISZERO DUP1 PUSH2 0x51F6 JUMPI JUMPDEST ISZERO PUSH2 0x51A7 JUMPI PUSH2 0x7080 SWAP2 DUP3 PUSH2 0x510E PUSH1 0x6 DUP8 ADD SLOAD DUP5 PUSH2 0x406B JUMP JUMPDEST DIV DUP1 PUSH2 0x5177 JUMPI JUMPDEST POP POP PUSH2 0x5121 SWAP1 TIMESTAMP PUSH2 0x406B JUMP JUMPDEST DIV SWAP2 DUP3 PUSH2 0x512F JUMPI JUMPDEST POP POP POP SWAP1 JUMP JUMPDEST PUSH2 0x5145 SWAP3 PUSH1 0x1 PUSH2 0x5140 SWAP3 ADD SLOAD PUSH2 0x403A JUMP JUMPDEST PUSH2 0x403A JUMP JUMPDEST SWAP1 PUSH1 0x64 DUP3 MUL SWAP2 DUP1 DUP4 DIV PUSH1 0x64 EQ SWAP1 ISZERO OR ISZERO PUSH2 0xD6B JUMPI PUSH10 0x14542BA12A337C00000 PUSH2 0x516F SWAP3 DIV SWAP1 PUSH2 0x4119 JUMP JUMPDEST PUSH0 DUP1 DUP1 PUSH2 0x5129 JUMP JUMPDEST PUSH2 0x5121 SWAP3 SWAP7 POP PUSH10 0x14542BA12A337C00000 SWAP2 PUSH2 0x5140 DUP7 PUSH2 0x5140 PUSH2 0x519E SWAP5 PUSH1 0x1 DUP12 ADD SLOAD PUSH2 0x403A JUMP JUMPDEST DIV SWAP5 SWAP1 PUSH0 PUSH2 0x5115 JUMP JUMPDEST POP SWAP2 PUSH2 0x7080 PUSH2 0x51BA PUSH1 0x6 DUP4 ADD SLOAD TIMESTAMP PUSH2 0x406B JUMP JUMPDEST DIV SWAP1 DUP2 PUSH2 0x51C9 JUMPI JUMPDEST POP POP POP POP SWAP1 JUMP JUMPDEST PUSH10 0x14542BA12A337C00000 SWAP5 POP SWAP2 PUSH2 0x5140 PUSH2 0x5140 SWAP3 PUSH1 0x1 PUSH2 0x51EC SWAP7 SWAP6 ADD SLOAD PUSH2 0x403A JUMP JUMPDEST DIV PUSH0 DUP1 DUP1 DUP1 PUSH2 0x51C2 JUMP JUMPDEST POP DUP1 TIMESTAMP GT PUSH2 0x50F6 JUMP JUMPDEST POP PUSH1 0x1 DUP2 ADD SLOAD ISZERO PUSH2 0x50BC JUMP JUMPDEST PUSH0 JUMPDEST PUSH1 0x12 SWAP1 DUP2 SLOAD SWAP1 PUSH1 0x1 SWAP2 DUP3 DUP2 ADD DUP1 SWAP2 GT PUSH2 0xD6B JUMPI PUSH2 0x5229 SWAP1 PUSH2 0x5BA8 JUMP JUMPDEST TIMESTAMP LT ISZERO DUP1 PUSH2 0x5350 JUMPI JUMPDEST ISZERO PUSH2 0x534B JUMPI PUSH2 0x5240 SWAP1 PUSH2 0x41DA JUMP JUMPDEST SWAP2 PUSH2 0x5249 PUSH2 0x5BC0 JUMP JUMPDEST PUSH2 0x5251 PUSH2 0x55B9 JUMP JUMPDEST DUP1 SLOAD PUSH0 MSTORE PUSH1 0x18 SWAP1 PUSH1 0x20 DUP3 DUP2 MSTORE PUSH1 0x2 SWAP1 PUSH1 0x40 SWAP5 DUP3 DUP7 PUSH0 KECCAK256 ADD DUP1 SLOAD PUSH1 0xFF DUP2 AND ISZERO PUSH2 0x5325 JUMPI JUMPDEST POP POP PUSH2 0x5280 DUP5 SLOAD PUSH2 0x41DA JUMP JUMPDEST DUP1 SWAP5 SSTORE DUP4 PUSH0 MSTORE DUP5 DUP3 MSTORE DUP6 PUSH0 KECCAK256 SLOAD ISZERO PUSH2 0x529E JUMPI JUMPDEST POP POP POP POP POP POP PUSH2 0x520D JUMP JUMPDEST PUSH2 0x52A7 DUP5 PUSH2 0x5BA8 JUMP JUMPDEST SWAP3 DUP7 MLOAD PUSH1 0xA0 DUP2 ADD SWAP3 DUP2 DUP5 LT PUSH1 0x1 DUP1 PUSH1 0x40 SHL SUB DUP6 GT OR PUSH2 0x1C1C JUMPI DUP9 PUSH2 0x5311 SWAP7 PUSH2 0x5308 SWAP6 PUSH2 0x531A SWAP12 MSTORE DUP4 MSTORE DUP6 DUP4 ADD SWAP1 PUSH0 NOT DUP3 MSTORE DUP1 DUP5 ADD SWAP10 PUSH0 DUP12 MSTORE PUSH1 0x60 DUP6 ADD SWAP8 PUSH0 DUP10 MSTORE PUSH1 0x80 DUP7 ADD SWAP11 PUSH0 DUP13 MSTORE PUSH0 MSTORE MSTORE PUSH0 KECCAK256 SWAP3 MLOAD DUP4 SSTORE MLOAD SWAP1 DUP3 ADD SSTORE ADD SWAP5 MLOAD ISZERO ISZERO DUP6 PUSH2 0x429A JUMP JUMPDEST MLOAD ISZERO ISZERO DUP4 PUSH2 0x4022 JUMP JUMPDEST MLOAD ISZERO ISZERO SWAP1 PUSH2 0x4502 JUMP JUMPDEST PUSH0 DUP1 DUP1 DUP1 DUP1 DUP1 PUSH2 0x5293 JUMP JUMPDEST PUSH2 0x532D PUSH2 0x5E7D JUMP JUMPDEST PUSH2 0x5340 JUMPI PUSH1 0xFF NOT AND DUP3 OR SWAP1 SSTORE PUSH0 DUP1 PUSH2 0x5274 JUMP JUMPDEST POP POP POP POP POP POP POP POP POP JUMP JUMPDEST POP POP POP JUMP JUMPDEST POP PUSH1 0x7 DUP2 LT PUSH2 0x5232 JUMP JUMPDEST PUSH2 0x5363 SWAP1 PUSH2 0x3D61 JUMP JUMPDEST POP PUSH1 0xC DUP2 ADD SWAP1 DUP2 SLOAD PUSH1 0xFF DUP2 AND PUSH1 0x7 DUP2 LT ISZERO PUSH2 0x6CA JUMPI ISZERO DUP1 PUSH2 0x540A JUMPI JUMPDEST PUSH2 0x53FB JUMPI JUMPDEST POP DUP2 SLOAD PUSH1 0xFF DUP2 AND PUSH1 0x7 DUP2 LT ISZERO PUSH2 0x6CA JUMPI PUSH1 0x1 EQ DUP1 PUSH2 0x53EE JUMPI JUMPDEST PUSH2 0x53DF JUMPI JUMPDEST POP DUP2 SLOAD SWAP1 PUSH1 0xFF DUP3 AND PUSH1 0x7 DUP2 LT ISZERO PUSH2 0x6CA JUMPI PUSH1 0x3 EQ SWAP1 DUP2 PUSH2 0x53D1 JUMPI JUMPDEST POP PUSH2 0x53C6 JUMPI POP POP JUMP JUMPDEST PUSH1 0xFF NOT AND PUSH1 0x4 OR SWAP1 SSTORE JUMP JUMPDEST PUSH1 0xB SWAP2 POP ADD SLOAD TIMESTAMP GT PUSH0 PUSH2 0x53BD JUMP JUMPDEST PUSH1 0xFF NOT AND PUSH1 0x3 OR DUP3 SSTORE PUSH0 PUSH2 0x53A2 JUMP JUMPDEST POP PUSH1 0xA DUP3 ADD SLOAD TIMESTAMP GT PUSH2 0x539D JUMP JUMPDEST PUSH1 0xFF NOT AND PUSH1 0x3 OR DUP3 SSTORE PUSH0 PUSH2 0x5384 JUMP JUMPDEST POP PUSH1 0xA DUP3 ADD SLOAD TIMESTAMP GT PUSH2 0x537F JUMP JUMPDEST PUSH2 0x5420 DUP2 PUSH2 0x3D61 JUMP JUMPDEST POP PUSH1 0xC DUP2 ADD SWAP1 DUP2 SLOAD SWAP2 PUSH1 0xFF DUP4 AND PUSH1 0x7 DUP2 LT ISZERO PUSH2 0x6CA JUMPI PUSH2 0x5440 SWAP1 ISZERO PUSH2 0x44C9 JUMP JUMPDEST PUSH1 0x5 DUP3 ADD SLOAD PUSH1 0x4 DUP4 ADD SLOAD SWAP1 PUSH1 0x3 DUP3 MUL SWAP2 DUP1 DUP4 DIV PUSH1 0x3 EQ SWAP1 ISZERO OR ISZERO PUSH2 0xD6B JUMPI PUSH1 0x1 SWAP2 PUSH2 0x546A SWAP2 PUSH2 0x4119 JUMP JUMPDEST SWAP4 PUSH1 0xFF NOT AND OR SWAP1 SSTORE PUSH1 0x12 TIMESTAMP SWAP2 ADD SSTORE PUSH1 0x6 SLOAD PUSH1 0x1 PUSH1 0x40 SHL DUP2 LT ISZERO PUSH2 0x1C1C JUMPI DUP3 PUSH2 0xD46 DUP3 PUSH1 0x1 PUSH2 0x549B SWAP5 ADD PUSH1 0x6 SSTORE PUSH2 0x3B82 JUMP JUMPDEST DUP2 PUSH0 MSTORE PUSH1 0x8 PUSH1 0x20 MSTORE PUSH1 0x40 PUSH0 KECCAK256 SSTORE PUSH2 0x54B1 DUP2 PUSH2 0x5EED JUMP JUMPDEST PUSH32 0x4B18362A00BAE55F3B8C43E1EE247E0A15FE6D5F2C22035B57FA5F95E685F5A PUSH0 DUP1 LOG2 JUMP JUMPDEST PUSH1 0x40 MLOAD PUSH4 0x23B872DD PUSH1 0xE0 SHL PUSH0 SWAP1 DUP2 MSTORE PUSH1 0x1 PUSH1 0x1 PUSH1 0xA0 SHL SUB SWAP4 DUP5 AND PUSH1 0x4 MSTORE SWAP4 DUP4 AND PUSH1 0x24 MSTORE PUSH1 0x44 SWAP5 SWAP1 SWAP5 MSTORE SWAP1 SWAP2 PUSH1 0x20 SWAP1 PUSH1 0x64 DUP2 DUP1 DUP6 GAS CALL PUSH1 0x1 PUSH0 MLOAD EQ DUP2 AND ISZERO PUSH2 0x552B JUMPI JUMPDEST DUP4 PUSH1 0x40 MSTORE PUSH0 PUSH1 0x60 MSTORE ISZERO PUSH2 0x4858 JUMPI POP POP POP JUMP JUMPDEST PUSH1 0x1 DUP2 ISZERO AND PUSH2 0x4884 JUMPI DUP2 EXTCODESIZE ISZERO ISZERO RETURNDATASIZE ISZERO AND AND PUSH2 0x5519 JUMP JUMPDEST PUSH1 0x5 SLOAD SWAP1 PUSH0 JUMPDEST DUP3 DUP2 LT PUSH2 0x5555 JUMPI POP POP POP PUSH0 SWAP1 JUMP JUMPDEST DUP2 PUSH2 0x555F DUP3 PUSH2 0x3B56 JUMP JUMPDEST SWAP1 SLOAD SWAP1 PUSH1 0x3 SHL SHR EQ PUSH2 0x5573 JUMPI PUSH1 0x1 ADD PUSH2 0x5547 JUMP JUMPDEST POP POP POP PUSH1 0x1 SWAP1 JUMP JUMPDEST PUSH1 0x5 SLOAD DUP1 ISZERO PUSH2 0x55A5 JUMPI PUSH0 NOT SWAP1 DUP2 ADD SWAP1 PUSH2 0x5593 DUP3 PUSH2 0x3B56 JUMP JUMPDEST SWAP1 SWAP2 DUP3 SLOAD SWAP2 PUSH1 0x3 SHL SHL NOT AND SWAP1 SSTORE PUSH1 0x5 SSTORE JUMP JUMPDEST PUSH4 0x4E487B71 PUSH1 0xE0 SHL PUSH0 MSTORE PUSH1 0x31 PUSH1 0x4 MSTORE PUSH1 0x24 PUSH0 REVERT JUMPDEST PUSH1 0x7 SWAP1 PUSH1 0x7 SLOAD JUMPDEST PUSH1 0x6 SLOAD DUP2 LT ISZERO PUSH2 0x5633 JUMPI DUP1 PUSH2 0x55D7 PUSH2 0x55E5 SWAP3 PUSH2 0x3B82 JUMP JUMPDEST SWAP3 SWAP1 SLOAD PUSH1 0x3 SWAP4 DUP5 SHL SHR PUSH2 0x3D61 JUMP JUMPDEST POP SWAP2 PUSH1 0xC DUP4 ADD SWAP1 DUP2 SLOAD PUSH1 0xFF DUP2 AND SWAP5 DUP8 DUP7 LT ISZERO PUSH2 0x6CA JUMPI PUSH1 0x1 DUP1 SWAP7 EQ SWAP1 DUP2 PUSH2 0x5625 JUMPI JUMPDEST POP PUSH2 0x5616 JUMPI JUMPDEST POP POP POP ADD PUSH2 0x55C0 JUMP JUMPDEST PUSH1 0xFF NOT AND OR SWAP1 SSTORE PUSH0 DUP1 DUP1 PUSH2 0x560D JUMP JUMPDEST PUSH1 0xA SWAP2 POP ADD SLOAD TIMESTAMP GT PUSH0 PUSH2 0x5607 JUMP JUMPDEST POP SWAP1 POP JUMP JUMPDEST PUSH2 0x1A0 MSTORE PUSH2 0x1C0 MSTORE SWAP3 SWAP2 DUP2 ISZERO DUP1 ISZERO PUSH2 0x5B3F JUMPI JUMPDEST PUSH2 0x5B39 JUMPI PUSH2 0x565B PUSH2 0x1A0 MLOAD PUSH2 0x3D61 JUMP JUMPDEST POP PUSH1 0x1 DUP1 PUSH1 0xA0 SHL SUB SWAP1 SLOAD AND SWAP1 PUSH2 0x1A0 MLOAD PUSH0 MSTORE PUSH1 0x10 PUSH1 0x20 MSTORE PUSH1 0x40 PUSH0 KECCAK256 PUSH0 JUMPDEST DUP2 SLOAD DUP2 LT ISZERO PUSH2 0x5B30 JUMPI PUSH2 0x568B DUP2 DUP4 PUSH2 0x3B9A JUMP JUMPDEST SWAP2 SWAP1 SLOAD SWAP2 PUSH1 0x3 SWAP3 PUSH1 0x1 DUP1 PUSH1 0xA0 SHL SUB DUP2 DUP4 DUP7 SHL SHR AND PUSH0 MSTORE PUSH1 0x9 PUSH1 0x20 MSTORE PUSH1 0x40 PUSH0 KECCAK256 PUSH2 0x1A0 MLOAD PUSH0 MSTORE PUSH1 0x20 MSTORE PUSH1 0x40 PUSH0 KECCAK256 SWAP4 DUP1 DUP6 ADD SLOAD PUSH1 0xFF DUP1 DUP3 AND ISZERO SWAP2 DUP3 ISZERO PUSH2 0x5B23 JUMPI JUMPDEST POP POP PUSH2 0x5B17 JUMPI DUP5 SLOAD SWAP2 DUP12 DUP11 PUSH0 SWAP5 DUP11 ISZERO ISZERO DUP1 PUSH2 0x5AFE JUMPI JUMPDEST PUSH2 0x5AA0 JUMPI JUMPDEST PUSH2 0x56F3 SWAP3 SWAP2 PUSH2 0x3941 SWAP2 PUSH2 0x403A JUMP JUMPDEST SWAP3 DUP4 DUP5 PUSH2 0x5786 JUMPI JUMPDEST SWAP1 PUSH1 0x1 SWAP8 PUSH0 DUP1 MLOAD PUSH1 0x20 PUSH2 0x5F6F DUP4 CODECOPY DUP2 MLOAD SWAP2 MSTORE SWAP5 SWAP4 SWAP3 DUP7 LT ISZERO PUSH2 0x5771 JUMPI JUMPDEST POP DUP1 PUSH2 0x574D JUMPI JUMPDEST POP PUSH2 0x5743 PUSH1 0x40 MLOAD SWAP3 DUP4 SWAP3 PUSH2 0x1A0 MLOAD SWAP8 DUP11 DUP1 PUSH1 0xA0 SHL SUB SWAP3 SHL SHR AND SWAP5 PUSH2 0x1C0 MLOAD DUP4 PUSH2 0x40FE JUMP JUMPDEST SUB SWAP1 LOG3 JUMPDEST ADD PUSH2 0x5678 JUMP JUMPDEST PUSH0 DUP1 DUP1 DUP1 PUSH2 0x576B SWAP5 DUP13 DUP1 PUSH1 0xA0 SHL SUB DUP8 DUP13 DUP11 SHL SHR AND GAS CALL PUSH2 0x39C2 PUSH2 0x4093 JUMP JUMPDEST PUSH0 PUSH2 0x571F JUMP JUMPDEST DUP4 ADD DUP1 SLOAD PUSH2 0xFF00 NOT AND PUSH2 0x100 OR SWAP1 SSTORE PUSH0 PUSH2 0x5718 JUMP JUMPDEST SWAP3 SWAP2 SWAP1 DUP6 DUP4 SHL DUP3 SWAP1 SHR PUSH1 0x1 PUSH1 0x1 PUSH1 0xA0 SHL SUB AND DUP12 SUB PUSH2 0x5841 JUMPI PUSH2 0x1C0 MLOAD PUSH1 0x1 PUSH1 0x1 PUSH1 0xA0 SHL SUB AND EXTCODESIZE ISZERO PUSH2 0x4D9 JUMPI PUSH1 0x1 SWAP8 PUSH0 DUP1 MLOAD PUSH1 0x20 PUSH2 0x5F6F DUP4 CODECOPY DUP2 MLOAD SWAP2 MSTORE SWAP5 PUSH1 0x40 MLOAD PUSH4 0x7AC1C9A1 PUSH1 0xE1 SHL DUP2 MSTORE DUP11 DUP1 PUSH1 0xA0 SHL SUB DUP6 DUP11 DUP9 SHL SHR AND PUSH1 0x4 DUP3 ADD MSTORE PUSH0 DUP2 PUSH1 0x24 DUP2 DUP4 DUP16 DUP1 PUSH1 0xA0 SHL SUB PUSH2 0x1C0 MLOAD AND GAS CALL PUSH2 0x5832 JUMPI JUMPDEST POP JUMPDEST DUP7 PUSH2 0x580D JUMPI JUMPDEST SWAP2 SWAP3 SWAP4 SWAP5 POP SWAP8 POP PUSH2 0x56FB JUMP JUMPDEST PUSH2 0x582D DUP8 DUP12 DUP1 PUSH1 0xA0 SHL SUB DUP7 DUP12 DUP10 SHL SHR AND DUP13 DUP1 PUSH1 0xA0 SHL SUB PUSH2 0x1C0 MLOAD AND PUSH2 0x480F JUMP JUMPDEST PUSH2 0x5801 JUMP JUMPDEST PUSH2 0x583B SWAP1 PUSH2 0x3E61 JUMP JUMPDEST PUSH0 PUSH2 0x57F9 JUMP JUMPDEST SWAP1 SWAP2 SWAP3 PUSH1 0x40 MLOAD PUSH4 0x6914617F PUSH1 0xE0 SHL DUP2 MSTORE PUSH1 0x20 DUP2 PUSH1 0x4 DUP2 PUSH1 0x1 DUP1 PUSH1 0xA0 SHL SUB PUSH2 0x1C0 MLOAD AND GAS STATICCALL PUSH0 SWAP2 DUP2 PUSH2 0x5A6C JUMPI JUMPDEST POP PUSH2 0x588E JUMPI JUMPDEST POP SWAP1 PUSH1 0x1 SWAP8 PUSH0 DUP1 MLOAD PUSH1 0x20 PUSH2 0x5F6F DUP4 CODECOPY DUP2 MLOAD SWAP2 MSTORE SWAP5 SWAP4 SWAP3 PUSH2 0x57FB JUMP JUMPDEST DUP1 ISZERO PUSH2 0x5873 JUMPI PUSH1 0x40 SWAP6 SWAP5 SWAP4 SWAP3 SWAP2 SWAP6 MLOAD SWAP1 PUSH4 0x18160DDD PUSH1 0xE0 SHL DUP3 MSTORE PUSH1 0x20 DUP3 PUSH1 0x4 DUP2 PUSH1 0x1 DUP1 PUSH1 0xA0 SHL SUB PUSH2 0x1C0 MLOAD AND GAS STATICCALL SWAP2 DUP3 ISZERO PUSH2 0x4D69 JUMPI PUSH0 SWAP3 PUSH2 0x5A38 JUMPI JUMPDEST POP PUSH1 0x40 MLOAD PUSH4 0x70A08231 PUSH1 0xE0 SHL DUP2 MSTORE PUSH2 0x1C0 DUP1 MLOAD PUSH1 0x1 PUSH1 0x1 PUSH1 0xA0 SHL SUB SWAP1 DUP2 AND PUSH1 0x4 DUP5 ADD MSTORE SWAP1 MLOAD SWAP2 SWAP4 SWAP2 PUSH1 0x20 SWAP2 DUP6 SWAP2 PUSH1 0x24 SWAP2 DUP4 SWAP2 AND GAS STATICCALL SWAP3 DUP4 ISZERO PUSH2 0x4D69 JUMPI PUSH0 SWAP4 PUSH2 0x5A00 JUMPI JUMPDEST POP SWAP1 PUSH2 0x5140 PUSH1 0x64 SWAP4 PUSH2 0x591E SWAP4 PUSH2 0x406B JUMP JUMPDEST DIV SWAP8 PUSH1 0x40 MLOAD SWAP9 PUSH4 0x70A08231 PUSH1 0xE0 SHL DUP11 MSTORE PUSH1 0x1 DUP1 PUSH1 0xA0 SHL SUB DUP5 DUP10 DUP8 SHL SHR AND PUSH1 0x4 DUP12 ADD MSTORE PUSH1 0x20 DUP11 PUSH1 0x24 DUP2 PUSH1 0x1 DUP1 PUSH1 0xA0 SHL SUB PUSH2 0x1C0 MLOAD AND GAS STATICCALL SWAP1 DUP2 ISZERO PUSH2 0x4D69 JUMPI PUSH0 SWAP2 PUSH2 0x59CB JUMPI JUMPDEST PUSH1 0x1 SWAP11 POP DUP2 DUP2 GT ISZERO PUSH2 0x59B2 JUMPI SWAP1 PUSH2 0x5978 SWAP2 PUSH2 0x406B JUMP JUMPDEST DUP1 DUP7 GT PUSH2 0x599D JUMPI JUMPDEST POP PUSH0 DUP1 MLOAD PUSH1 0x20 PUSH2 0x5F6F DUP4 CODECOPY DUP2 MLOAD SWAP2 MSTORE SWAP5 SWAP6 JUMPDEST SWAP2 SWAP3 SWAP4 SWAP5 POP SWAP8 PUSH2 0x5873 JUMP JUMPDEST SWAP5 POP PUSH0 DUP1 MLOAD PUSH1 0x20 PUSH2 0x5F6F DUP4 CODECOPY DUP2 MLOAD SWAP2 MSTORE PUSH2 0x5980 JUMP JUMPDEST POP POP PUSH0 DUP1 MLOAD PUSH1 0x20 PUSH2 0x5F6F DUP4 CODECOPY DUP2 MLOAD SWAP2 MSTORE SWAP5 POP PUSH0 SWAP6 PUSH2 0x5992 JUMP JUMPDEST SWAP1 POP PUSH1 0x20 DUP11 RETURNDATASIZE PUSH1 0x20 GT PUSH2 0x59F8 JUMPI JUMPDEST DUP2 PUSH2 0x59E6 PUSH1 0x20 SWAP4 DUP4 PUSH2 0x3E74 JUMP JUMPDEST DUP2 ADD SUB SLT PUSH2 0x4D9 JUMPI PUSH1 0x1 SWAP10 MLOAD SWAP1 PUSH2 0x5962 JUMP JUMPDEST RETURNDATASIZE SWAP2 POP PUSH2 0x59D9 JUMP JUMPDEST SWAP3 POP SWAP1 PUSH1 0x20 DUP4 RETURNDATASIZE PUSH1 0x20 GT PUSH2 0x5A30 JUMPI JUMPDEST DUP2 PUSH2 0x5A1C PUSH1 0x20 SWAP4 DUP4 PUSH2 0x3E74 JUMP JUMPDEST DUP2 ADD SUB SLT PUSH2 0x4D9 JUMPI SWAP2 MLOAD SWAP2 SWAP1 PUSH2 0x5140 PUSH2 0x590D JUMP JUMPDEST RETURNDATASIZE SWAP2 POP PUSH2 0x5A0F JUMP JUMPDEST SWAP1 SWAP2 POP PUSH1 0x20 DUP2 RETURNDATASIZE PUSH1 0x20 GT PUSH2 0x5A64 JUMPI JUMPDEST DUP2 PUSH2 0x5A54 PUSH1 0x20 SWAP4 DUP4 PUSH2 0x3E74 JUMP JUMPDEST DUP2 ADD SUB SLT PUSH2 0x4D9 JUMPI MLOAD SWAP1 PUSH0 PUSH2 0x58CA JUMP JUMPDEST RETURNDATASIZE SWAP2 POP PUSH2 0x5A47 JUMP JUMPDEST SWAP1 SWAP2 POP PUSH1 0x20 DUP2 RETURNDATASIZE PUSH1 0x20 GT PUSH2 0x5A98 JUMPI JUMPDEST DUP2 PUSH2 0x5A88 PUSH1 0x20 SWAP4 DUP4 PUSH2 0x3E74 JUMP JUMPDEST DUP2 ADD SUB SLT PUSH2 0x4D9 JUMPI MLOAD SWAP1 PUSH0 PUSH2 0x586D JUMP JUMPDEST RETURNDATASIZE SWAP2 POP PUSH2 0x5A7B JUMP JUMPDEST SWAP5 POP POP POP PUSH2 0x5AC8 PUSH2 0x5AB1 DUP10 DUP6 PUSH2 0x403A JUMP JUMPDEST PUSH1 0x5 PUSH2 0x5ABF PUSH2 0x1A0 MLOAD PUSH2 0x3D61 JUMP JUMPDEST POP ADD SLOAD SWAP1 PUSH2 0x404D JUMP JUMPDEST SWAP3 DUP13 DUP5 DUP13 DUP2 DUP5 GT ISZERO PUSH2 0x5AEE JUMPI PUSH2 0x5AE4 PUSH2 0x3941 SWAP3 PUSH2 0x56F3 SWAP6 PUSH2 0x406B JUMP JUMPDEST SWAP2 POP SWAP2 SWAP3 POP PUSH2 0x56E5 JUMP JUMPDEST PUSH2 0x56F3 SWAP4 POP PUSH2 0x3941 SWAP2 POP PUSH0 PUSH2 0x5AE4 JUMP JUMPDEST POP PUSH1 0x5 PUSH2 0x5B0D PUSH2 0x1A0 MLOAD PUSH2 0x3D61 JUMP JUMPDEST POP ADD SLOAD ISZERO ISZERO PUSH2 0x56E0 JUMP JUMPDEST POP POP POP PUSH1 0x1 SWAP2 POP PUSH2 0x5747 JUMP JUMPDEST PUSH1 0x8 SHR AND SWAP1 POP PUSH0 DUP1 PUSH2 0x56CA JUMP JUMPDEST POP POP POP POP POP SWAP1 POP JUMP JUMPDEST POP POP SWAP1 POP JUMP JUMPDEST POP DUP4 ISZERO PUSH2 0x564B JUMP JUMPDEST PUSH1 0x1 PUSH1 0x1 PUSH1 0xA0 SHL SUB SWAP1 DUP2 AND SWAP1 DUP2 ISZERO PUSH2 0x5BA0 JUMPI PUSH1 0x3 SLOAD AND EQ PUSH2 0x5B9B JUMPI PUSH1 0x40 MLOAD PUSH3 0x461BCD PUSH1 0xE5 SHL DUP2 MSTORE PUSH1 0x20 PUSH1 0x4 DUP3 ADD MSTORE PUSH1 0x11 PUSH1 0x24 DUP3 ADD MSTORE PUSH17 0x3AB739BAB83837B93A32B2103A37B5B2B7 PUSH1 0x79 SHL PUSH1 0x44 DUP3 ADD MSTORE PUSH1 0x64 SWAP1 REVERT JUMPDEST PUSH1 0x6 SWAP1 JUMP JUMPDEST POP POP PUSH2 0x258 SWAP1 JUMP JUMPDEST PUSH3 0x15180 SWAP1 DUP2 DUP2 MUL SWAP2 DUP2 DUP4 DIV EQ SWAP1 ISZERO OR ISZERO PUSH2 0xD6B JUMPI SWAP1 JUMP JUMPDEST PUSH1 0x16 SLOAD PUSH1 0x12 SLOAD DUP1 SWAP2 LT ISZERO PUSH2 0x5E7A JUMPI PUSH1 0x16 DUP2 SWAP1 SSTORE PUSH1 0x5 DUP1 SLOAD SWAP2 PUSH0 SWAP1 DUP2 JUMPDEST DUP5 DUP2 LT PUSH2 0x5E02 JUMPI POP DUP2 ISZERO PUSH2 0x5DE5 JUMPI POP PUSH2 0x5BF4 DUP2 PUSH2 0x41FF JUMP JUMPDEST SWAP2 PUSH2 0x5BFE DUP3 PUSH2 0x41FF JUMP JUMPDEST SWAP4 PUSH0 SWAP2 PUSH0 JUMPDEST DUP3 DUP2 LT PUSH2 0x5D13 JUMPI POP POP POP POP PUSH1 0x3 DUP2 LT PUSH0 EQ PUSH2 0x5D08 JUMPI DUP1 SWAP3 SWAP2 SWAP3 JUMPDEST PUSH2 0x5C26 DUP2 PUSH2 0x41FF JUMP JUMPDEST SWAP4 PUSH0 SWAP5 PUSH0 SWAP5 JUMPDEST DUP5 DUP7 LT PUSH2 0x5C57 JUMPI JUMPDEST POP POP POP POP POP POP PUSH0 DUP1 MLOAD PUSH1 0x20 PUSH2 0x5F4F DUP4 CODECOPY DUP2 MLOAD SWAP2 MSTORE PUSH1 0x20 PUSH1 0x12 SLOAD SWAP3 PUSH1 0x40 MLOAD SWAP1 DUP2 MSTORE LOG2 JUMP JUMPDEST SWAP1 SWAP2 SWAP3 SWAP4 SWAP5 SWAP6 PUSH0 NOT PUSH0 DUP1 JUMPDEST DUP8 DUP2 LT PUSH2 0x5CC1 JUMPI POP PUSH0 NOT DUP3 EQ SWAP1 DUP2 ISZERO PUSH2 0x5CB8 JUMPI JUMPDEST POP PUSH2 0x5CB1 JUMPI PUSH1 0x1 SWAP2 PUSH2 0x5CA0 PUSH2 0x5C9A DUP4 DUP6 PUSH2 0x5C93 PUSH2 0x5CA5 SWAP7 DUP11 PUSH2 0x427A JUMP JUMPDEST MSTORE DUP9 PUSH2 0x427A JUMP JUMPDEST MLOAD PUSH2 0x5417 JUMP JUMPDEST PUSH2 0x41DA JUMP JUMPDEST SWAP7 ADD SWAP5 SWAP4 SWAP3 SWAP2 SWAP1 PUSH2 0x5C2C JUMP JUMPDEST POP SWAP6 PUSH2 0x5C34 JUMP JUMPDEST SWAP1 POP ISZERO PUSH0 PUSH2 0x5C76 JUMP JUMPDEST PUSH2 0x5CCB DUP2 DUP8 PUSH2 0x427A JUMP JUMPDEST MLOAD ISZERO DUP1 PUSH2 0x5CF5 JUMPI JUMPDEST PUSH2 0x5CE0 JUMPI JUMPDEST PUSH1 0x1 ADD PUSH2 0x5C62 JUMP JUMPDEST DUP1 SWAP3 POP PUSH2 0x5CEE SWAP2 POP DUP5 PUSH2 0x427A JUMP JUMPDEST MLOAD DUP2 PUSH2 0x5CD8 JUMP JUMPDEST POP DUP2 PUSH2 0x5D01 DUP3 DUP8 PUSH2 0x427A JUMP JUMPDEST MLOAD GT PUSH2 0x5CD3 JUMP JUMPDEST PUSH1 0x3 SWAP1 SWAP3 SWAP2 SWAP3 PUSH2 0x5C1D JUMP JUMPDEST PUSH2 0x5D1C DUP2 PUSH2 0x3B56 JUMP JUMPDEST SWAP1 SLOAD PUSH1 0x3 SWAP2 DUP3 SHL SHR PUSH1 0xFF PUSH1 0xC PUSH2 0x5D31 DUP4 PUSH2 0x3D61 JUMP JUMPDEST POP ADD SLOAD AND PUSH1 0x7 DUP2 LT ISZERO PUSH2 0x6CA JUMPI ISZERO DUP1 PUSH2 0x5DC6 JUMPI JUMPDEST PUSH2 0x5D54 JUMPI JUMPDEST POP POP PUSH1 0x1 ADD PUSH2 0x5C03 JUMP JUMPDEST DUP1 PUSH2 0x5D62 DUP8 DUP11 SWAP9 SWAP6 SWAP9 PUSH2 0x427A JUMP JUMPDEST MSTORE PUSH2 0x5D79 DUP5 PUSH2 0x5D70 DUP4 PUSH2 0x3D61 JUMP JUMPDEST POP ADD SLOAD SWAP2 PUSH2 0x3D61 JUMP JUMPDEST POP PUSH1 0x4 DUP1 SWAP2 ADD SLOAD DUP4 DUP2 MUL SWAP4 DUP2 DUP6 DIV EQ SWAP1 ISZERO OR ISZERO PUSH2 0x5DB3 JUMPI POP SWAP2 PUSH2 0x5DA1 PUSH2 0x5DAB SWAP3 PUSH1 0x1 SWAP5 PUSH2 0x4119 JUMP JUMPDEST PUSH2 0x11C0 DUP3 DUP12 PUSH2 0x427A JUMP JUMPDEST SWAP4 SWAP1 PUSH0 PUSH2 0x5D4A JUMP JUMPDEST PUSH1 0x11 SWAP1 PUSH4 0x4E487B71 PUSH1 0xE0 SHL PUSH0 MSTORE MSTORE PUSH1 0x24 PUSH0 REVERT JUMPDEST POP PUSH9 0x1158E460913D00000 DUP5 PUSH2 0x5DDB DUP4 PUSH2 0x3D61 JUMP JUMPDEST POP ADD SLOAD LT ISZERO PUSH2 0x5D45 JUMP JUMPDEST SWAP3 POP POP POP PUSH0 DUP1 MLOAD PUSH1 0x20 PUSH2 0x5F4F DUP4 CODECOPY DUP2 MLOAD SWAP2 MSTORE PUSH1 0x20 PUSH1 0x40 MLOAD PUSH0 DUP2 MSTORE LOG2 JUMP JUMPDEST PUSH2 0x5E0B DUP2 PUSH2 0x3B56 JUMP JUMPDEST SWAP1 SLOAD SWAP1 PUSH1 0x3 SHL SHR PUSH1 0xFF PUSH1 0xC PUSH2 0x5E1F DUP4 PUSH2 0x3D61 JUMP JUMPDEST POP ADD SLOAD AND PUSH1 0x7 DUP2 LT ISZERO PUSH2 0x6CA JUMPI DUP6 SWAP1 ISZERO SWAP2 DUP3 PUSH2 0x5E59 JUMPI JUMPDEST POP POP PUSH2 0x5E45 JUMPI JUMPDEST PUSH1 0x1 ADD PUSH2 0x5BDC JUMP JUMPDEST SWAP2 PUSH2 0x5E51 PUSH1 0x1 SWAP2 PUSH2 0x41DA JUMP JUMPDEST SWAP3 SWAP1 POP PUSH2 0x5E3D JUMP JUMPDEST PUSH9 0x1158E460913D00000 SWAP3 POP PUSH2 0x5E6E SWAP1 PUSH2 0x3D61 JUMP JUMPDEST POP ADD SLOAD LT ISZERO DUP5 PUSH0 PUSH2 0x5E36 JUMP JUMPDEST POP JUMP JUMPDEST PUSH1 0x5 SLOAD PUSH0 JUMPDEST DUP2 DUP2 LT PUSH2 0x5E8F JUMPI POP POP PUSH0 SWAP1 JUMP JUMPDEST PUSH2 0x5E98 DUP2 PUSH2 0x3B56 JUMP JUMPDEST SWAP1 SLOAD SWAP1 PUSH1 0x3 SHL SHR PUSH1 0xFF PUSH1 0xC PUSH2 0x5EAC DUP4 PUSH2 0x3D61 JUMP JUMPDEST POP ADD SLOAD AND PUSH1 0x7 DUP2 LT ISZERO PUSH2 0x6CA JUMPI ISZERO SWAP1 DUP2 PUSH2 0x5ED5 JUMPI JUMPDEST POP PUSH2 0x5ECE JUMPI PUSH1 0x1 ADD PUSH2 0x5E82 JUMP JUMPDEST POP POP PUSH1 0x1 SWAP1 JUMP JUMPDEST PUSH1 0x4 SWAP2 POP PUSH2 0x5EE2 SWAP1 PUSH2 0x3D61 JUMP JUMPDEST POP ADD SLOAD ISZERO ISZERO PUSH0 PUSH2 0x5EC1 JUMP JUMPDEST PUSH0 JUMPDEST PUSH1 0x5 SLOAD DUP1 DUP3 LT ISZERO PUSH2 0x534B JUMPI DUP3 SWAP1 PUSH2 0x5F05 DUP4 PUSH2 0x3B56 JUMP JUMPDEST SWAP3 SWAP1 SLOAD PUSH1 0x3 SWAP4 DUP5 SHL SHR EQ PUSH2 0x5F1D JUMPI POP POP PUSH1 0x1 ADD PUSH2 0x5EEF JUMP JUMPDEST SWAP1 SWAP3 POP PUSH0 NOT DUP2 ADD SWAP1 DUP2 GT PUSH2 0xD6B JUMPI PUSH2 0x5F46 SWAP3 PUSH2 0x5F3B PUSH2 0xD46 SWAP3 PUSH2 0x3B56 JUMP JUMPDEST SWAP1 SLOAD SWAP2 SHL SHR SWAP2 PUSH2 0x3B56 JUMP JUMPDEST PUSH2 0x4663 PUSH2 0x557B JUMP INVALID 0xC5 MOD 0xDE 0xB1 SWAP4 MLOAD 0xB4 NOT 0xDB 0xC3 PUSH23 0xC29E7F162818BE5E9AD574DF3F4112E4E5D0D6CF64C753 JUMP SWAP15 0xD 0xEB ORIGIN 0xBD 0x23 CHAINID 0xE6 0xD5 SSTORE PUSH29 0xB4A9C29FF3F67F069CD2723ECDB71E6C189D8BE0079C531659141344CD 0x1F 0xD0 LOG4 CALLCODE DUP5 NOT BLOBHASH PUSH32 0x9722A3DAAFE3B4186F6B6457E09B779B17422D0DF92223018B32B4D1FA46E071 PUSH19 0x3D6817E2486D003BECC55F00A2646970667358 0x22 SLT KECCAK256 0x1E SSTORE SWAP5 LT SUB DUP5 PUSH5 0xD9158D49A2 REVERT PUSH6 0x6018C9CFC786 0xC6 SDIV 0xAE PREVRANDAO DUP5 PUSH21 0x1AFCDD93D80864736F6C6343000818003300000000 "},"methodIdentifiers":{"CONVERGE_THRESHOLD()":"4b265075","DAILY_QUEUE_LIMIT()":"2b89eb2c","DEMAND_BPS()":"1a65f02a","DOGE_RIGHTS_BASE()":"d727c1a3","DOGE_SCORE_MULTIPLIER()":"f03a5b92","DOGE_USDC_RATE()":"a75f615b","EPOCH_DURATION()":"a70b9f0c","FIXED_180_BPS()":"3b46c2a9","FIXED_180_DURATION()":"3c194b08","FIXED_30_BPS()":"c28ce628","FIXED_30_DURATION()":"2dcd7878","FIXED_90_BPS()":"9b396ed2","FIXED_90_DURATION()":"4af6e91b","FIXED_TOTAL_SUPPLY()":"b3602acd","LAUNCH_REWARD()":"93c116a8","LAUNCH_THRESHOLD()":"1d32c2da","MAX_EFFECTIVE_RIGHTS()":"a5ac6810","MAX_STAKE()":"c98517c5","MIN_STAKE()":"cb1c2b5c","MIN_SUBSCRIBE_USDC()":"6ede970d","RIGHTS_CYCLE()":"0b7d3891","RIGHTS_DENOMINATOR()":"c94ad980","SETTLE_REWARD()":"5541f0bd","SUBSCRIBE_DENOM()":"2ae4f0fe","SUBSCRIBE_USDC_WEIGHT()":"aeca8251","TIER_1_DURATION()":"22754eb3","TIER_1_FEE()":"701b09a0","TIER_30_DURATION()":"77a980f0","TIER_30_FEE()":"3292754c","TIER_7_DURATION()":"147ff5ea","TIER_7_FEE()":"41cba1b2","USDC_RIGHTS_BASE()":"3282914c","activeCandidateIds(uint256)":"1631de29","bondingCurve()":"eff1d50e","candidateSupporters(uint256,uint256)":"532a89c7","candidates(uint256)":"3477ee2e","claimRecycled(uint256,uint8,bool,bool,bool)":"8fc1dd13","claimRights()":"d764695d","claimSubscription(uint256)":"0f903ff8","currentDay()":"5c9302c9","dayLaunchCount(uint256)":"33085903","defaultWantLpShare()":"cc75f7fa","defaultWantTaxShare()":"63ce0b28","defaultWantTokenAllocation()":"e5c181d6","depositRewards(uint256)":"8bdf67f2","dogeToken()":"22d31977","earlyQueue(uint256)":"67188083","epochInfo(uint256)":"3894228e","feeDistributor()":"0d43e8ad","getActiveCandidates()":"2cdfa5a2","getCandidateCount()":"30a56347","getCandidateStatus(uint256)":"92a40465","getEffectiveRights(address)":"48b7b148","getEpochTimeRemaining()":"12c0a32e","getGracePeriodCandidates()":"b3f39856","getPendingRights(address)":"15f07276","getQueueItem(uint256)":"64c5c2a0","getQueueLength()":"b8f77005","getQueuedCandidates()":"4571db58","getRecyclableCandidates()":"ae3390d1","getStakeDurationSeconds(uint8)":"889c3b75","getStakeMultiplierBps(uint8)":"168c98aa","getStakePosition(address,uint256)":"2e569eff","getStakePositionCount(address)":"4ff23bb6","getStakePositions(address)":"a04ec539","getSubscription(address,uint256)":"3ae9a18e","getTierDuration(uint8)":"5e07e877","getTierFee(uint8)":"d701de83","getUserTotalEffectiveRights(address)":"a6e3f189","isSupporter(uint256,address)":"30bff753","lastLaunchDay()":"63a49591","lastQueueDay()":"64a0c371","launchHour()":"d96f8d61","launchQueueItems(uint256)":"64452fb3","maxLaunchsPerDay()":"bfc63574","owner()":"8da5cb5b","processQueue()":"43c9e535","queueHead()":"96523644","queueScore(uint256)":"1ca857f1","refundSubscription(uint256)":"67d41d62","renewCandidate(uint256,uint8,bool,bool,bool)":"edf48d39","renounceOwnership()":"715018a6","rewardPool()":"66666aa9","setBondingCurve(address)":"43ff1fb8","setDefaultIncentives(bool,bool,bool)":"3f02012c","setDogeToken(address)":"fc4c6111","setFeeDistributor(address)":"ccfc2e8d","setLaunchHour(uint256)":"3ce60271","setMaxLaunchsPerDay(uint256)":"75dd0989","settleEpoch()":"b6b385f7","stakeDoge(uint256,uint8)":"7df8eb19","stakeUsdc(uint8)":"2e4a2f49","submitCandidate(string,string,string,uint8,bool,bool,bool)":"969c7915","subscribeUsdc(uint256)":"5a9d0184","totalStakedDoge()":"83a1bc87","totalStakedUsdc()":"2bb61e20","transferOwnership(address)":"f2fde38b","unstakePosition(uint256)":"4a235eb6","userEffectiveSpent(address)":"9e941839","userRawRights(address)":"8c2c9ef1","userStakePositions(address,uint256)":"b8c6a929","userSubscriptions(address,uint256)":"c95d6edc","voteWithRights(uint256,uint256)":"c0337604"}}}}}