{"project/contracts/pool/PerpetualPool.sol":{"PerpetualPool":{"abi":[{"inputs":[{"internalType":"address","name":"_oracle","type":"address"},{"internalType":"address","name":"_burnEngine","type":"address"},{"internalType":"address","name":"_platformTreasury","type":"address"}],"stateMutability":"nonpayable","type":"constructor"},{"inputs":[],"name":"EnforcedPause","type":"error"},{"inputs":[],"name":"ExpectedPause","type":"error"},{"inputs":[{"internalType":"address","name":"owner","type":"address"}],"name":"OwnableInvalidOwner","type":"error"},{"inputs":[{"internalType":"address","name":"account","type":"address"}],"name":"OwnableUnauthorizedAccount","type":"error"},{"inputs":[],"name":"ReentrancyGuardReentrantCall","type":"error"},{"inputs":[{"internalType":"address","name":"token","type":"address"}],"name":"SafeERC20FailedOperation","type":"error"},{"anonymous":false,"inputs":[{"indexed":true,"internalType":"address","name":"token","type":"address"},{"indexed":false,"internalType":"uint256","name":"amount","type":"uint256"}],"name":"DepositTokens","type":"event"},{"anonymous":false,"inputs":[{"indexed":true,"internalType":"address","name":"token","type":"address"},{"indexed":false,"internalType":"int256","name":"rate","type":"int256"},{"indexed":false,"internalType":"uint256","name":"timestamp","type":"uint256"}],"name":"FundingRateUpdated","type":"event"},{"anonymous":false,"inputs":[{"indexed":true,"internalType":"address","name":"token","type":"address"},{"indexed":false,"internalType":"uint256","name":"amount","type":"uint256"}],"name":"InsuranceFundAdded","type":"event"},{"anonymous":false,"inputs":[{"indexed":true,"internalType":"address","name":"token","type":"address"},{"indexed":false,"internalType":"uint256","name":"amount","type":"uint256"},{"indexed":false,"internalType":"string","name":"reason","type":"string"}],"name":"InsuranceFundUsed","type":"event"},{"anonymous":false,"inputs":[{"indexed":true,"internalType":"uint256","name":"orderId","type":"uint256"},{"indexed":true,"internalType":"address","name":"user","type":"address"}],"name":"LimitOrderCancelled","type":"event"},{"anonymous":false,"inputs":[{"indexed":true,"internalType":"uint256","name":"orderId","type":"uint256"},{"indexed":true,"internalType":"address","name":"user","type":"address"},{"indexed":false,"internalType":"uint256","name":"entryPrice","type":"uint256"}],"name":"LimitOrderExecuted","type":"event"},{"anonymous":false,"inputs":[{"indexed":true,"internalType":"uint256","name":"orderId","type":"uint256"},{"indexed":true,"internalType":"address","name":"user","type":"address"},{"indexed":true,"internalType":"address","name":"token","type":"address"},{"indexed":false,"internalType":"bool","name":"isLong","type":"bool"},{"indexed":false,"internalType":"uint256","name":"margin","type":"uint256"},{"indexed":false,"internalType":"uint256","name":"leverage","type":"uint256"},{"indexed":false,"internalType":"uint256","name":"triggerPrice","type":"uint256"},{"indexed":false,"internalType":"bool","name":"isTriggerAbove","type":"bool"}],"name":"LimitOrderPlaced","type":"event"},{"anonymous":false,"inputs":[{"indexed":true,"internalType":"address","name":"user","type":"address"},{"indexed":true,"internalType":"address","name":"token","type":"address"},{"indexed":false,"internalType":"uint256","name":"amount","type":"uint256"},{"indexed":false,"internalType":"uint256","name":"newMargin","type":"uint256"}],"name":"MarginAdded","type":"event"},{"anonymous":false,"inputs":[{"indexed":true,"internalType":"address","name":"user","type":"address"},{"indexed":true,"internalType":"address","name":"token","type":"address"},{"indexed":false,"internalType":"uint256","name":"amount","type":"uint256"},{"indexed":false,"internalType":"uint256","name":"newMargin","type":"uint256"}],"name":"MarginRemoved","type":"event"},{"anonymous":false,"inputs":[{"indexed":true,"internalType":"address","name":"previousOwner","type":"address"},{"indexed":true,"internalType":"address","name":"newOwner","type":"address"}],"name":"OwnershipTransferred","type":"event"},{"anonymous":false,"inputs":[{"indexed":false,"internalType":"address","name":"account","type":"address"}],"name":"Paused","type":"event"},{"anonymous":false,"inputs":[{"indexed":true,"internalType":"address","name":"token","type":"address"},{"indexed":true,"internalType":"address","name":"user","type":"address"},{"indexed":false,"internalType":"bool","name":"isLong","type":"bool"},{"indexed":false,"internalType":"uint256","name":"margin","type":"uint256"},{"indexed":false,"internalType":"uint256","name":"size","type":"uint256"},{"indexed":false,"internalType":"uint256","name":"exitPrice","type":"uint256"},{"indexed":false,"internalType":"int256","name":"pnl","type":"int256"},{"indexed":false,"internalType":"uint256","name":"timestamp","type":"uint256"}],"name":"PositionClosed","type":"event"},{"anonymous":false,"inputs":[{"indexed":true,"internalType":"address","name":"token","type":"address"},{"indexed":true,"internalType":"address","name":"liquidator","type":"address"},{"indexed":true,"internalType":"address","name":"borrower","type":"address"},{"indexed":false,"internalType":"bool","name":"isLong","type":"bool"},{"indexed":false,"internalType":"uint256","name":"size","type":"uint256"},{"indexed":false,"internalType":"uint256","name":"exitPrice","type":"uint256"},{"indexed":false,"internalType":"int256","name":"pnl","type":"int256"},{"indexed":false,"internalType":"uint256","name":"timestamp","type":"uint256"}],"name":"PositionLiquidated","type":"event"},{"anonymous":false,"inputs":[{"indexed":true,"internalType":"address","name":"token","type":"address"},{"indexed":true,"internalType":"address","name":"user","type":"address"},{"indexed":false,"internalType":"bool","name":"isLong","type":"bool"},{"indexed":false,"internalType":"uint256","name":"margin","type":"uint256"},{"indexed":false,"internalType":"uint256","name":"size","type":"uint256"},{"indexed":false,"internalType":"uint256","name":"entryPrice","type":"uint256"},{"indexed":false,"internalType":"uint256","name":"timestamp","type":"uint256"}],"name":"PositionOpened","type":"event"},{"anonymous":false,"inputs":[{"indexed":true,"internalType":"address","name":"token","type":"address"},{"indexed":true,"internalType":"address","name":"user","type":"address"},{"indexed":false,"internalType":"bool","name":"isLong","type":"bool"},{"indexed":false,"internalType":"uint256","name":"closeSize","type":"uint256"},{"indexed":false,"internalType":"uint256","name":"remainingSize","type":"uint256"},{"indexed":false,"internalType":"uint256","name":"exitPrice","type":"uint256"},{"indexed":false,"internalType":"int256","name":"closePnl","type":"int256"},{"indexed":false,"internalType":"uint256","name":"timestamp","type":"uint256"}],"name":"PositionPartiallyClosed","type":"event"},{"anonymous":false,"inputs":[{"indexed":true,"internalType":"address","name":"token","type":"address"}],"name":"TokenDelistedForPerp","type":"event"},{"anonymous":false,"inputs":[{"indexed":true,"internalType":"address","name":"token","type":"address"}],"name":"TokenListedForPerp","type":"event"},{"anonymous":false,"inputs":[{"indexed":true,"internalType":"address","name":"user","type":"address"},{"indexed":true,"internalType":"address","name":"token","type":"address"}],"name":"TpslCancelled","type":"event"},{"anonymous":false,"inputs":[{"indexed":true,"internalType":"address","name":"user","type":"address"},{"indexed":true,"internalType":"address","name":"token","type":"address"},{"indexed":false,"internalType":"uint256","name":"tpPrice","type":"uint256"},{"indexed":false,"internalType":"uint256","name":"slPrice","type":"uint256"}],"name":"TpslSet","type":"event"},{"anonymous":false,"inputs":[{"indexed":true,"internalType":"address","name":"user","type":"address"},{"indexed":true,"internalType":"address","name":"token","type":"address"},{"indexed":false,"internalType":"bool","name":"isTp","type":"bool"},{"indexed":false,"internalType":"uint256","name":"triggerPrice","type":"uint256"},{"indexed":false,"internalType":"uint256","name":"closePrice","type":"uint256"},{"indexed":false,"internalType":"uint256","name":"executorReward","type":"uint256"}],"name":"TpslTriggered","type":"event"},{"anonymous":false,"inputs":[{"indexed":false,"internalType":"address","name":"account","type":"address"}],"name":"Unpaused","type":"event"},{"inputs":[],"name":"FUNDING_INTERVAL","outputs":[{"internalType":"uint256","name":"","type":"uint256"}],"stateMutability":"view","type":"function"},{"inputs":[],"name":"INSURANCE_FEE_SPLIT","outputs":[{"internalType":"uint256","name":"","type":"uint256"}],"stateMutability":"view","type":"function"},{"inputs":[],"name":"LIQUIDATION_FEE","outputs":[{"internalType":"uint256","name":"","type":"uint256"}],"stateMutability":"view","type":"function"},{"inputs":[],"name":"MAINTENANCE_MARGIN_RATIO","outputs":[{"internalType":"uint256","name":"","type":"uint256"}],"stateMutability":"view","type":"function"},{"inputs":[],"name":"MAX_FUNDING_RATE","outputs":[{"internalType":"uint256","name":"","type":"uint256"}],"stateMutability":"view","type":"function"},{"inputs":[],"name":"MAX_LEVERAGE","outputs":[{"internalType":"uint256","name":"","type":"uint256"}],"stateMutability":"view","type":"function"},{"inputs":[],"name":"PRICE_STALENESS_THRESHOLD","outputs":[{"internalType":"uint256","name":"","type":"uint256"}],"stateMutability":"view","type":"function"},{"inputs":[{"internalType":"address","name":"token","type":"address"}],"name":"addMargin","outputs":[],"stateMutability":"payable","type":"function"},{"inputs":[],"name":"baseFundingRate","outputs":[{"internalType":"uint256","name":"","type":"uint256"}],"stateMutability":"view","type":"function"},{"inputs":[],"name":"bondingCurve","outputs":[{"internalType":"address","name":"","type":"address"}],"stateMutability":"view","type":"function"},{"inputs":[],"name":"burnEngine","outputs":[{"internalType":"address","name":"","type":"address"}],"stateMutability":"view","type":"function"},{"inputs":[{"internalType":"uint256","name":"orderId","type":"uint256"}],"name":"cancelLimitOrder","outputs":[],"stateMutability":"nonpayable","type":"function"},{"inputs":[{"internalType":"address","name":"token","type":"address"}],"name":"cancelTpsl","outputs":[],"stateMutability":"nonpayable","type":"function"},{"inputs":[{"internalType":"address","name":"token","type":"address"}],"name":"closePosition","outputs":[],"stateMutability":"nonpayable","type":"function"},{"inputs":[{"internalType":"address","name":"token","type":"address"},{"internalType":"uint256","name":"closeSize","type":"uint256"}],"name":"closePositionPartial","outputs":[],"stateMutability":"nonpayable","type":"function"},{"inputs":[{"internalType":"address","name":"","type":"address"}],"name":"cumulativeFundingRate","outputs":[{"internalType":"uint256","name":"","type":"uint256"}],"stateMutability":"view","type":"function"},{"inputs":[],"name":"defaultToken","outputs":[{"internalType":"address","name":"","type":"address"}],"stateMutability":"view","type":"function"},{"inputs":[{"internalType":"address","name":"token","type":"address"}],"name":"delistTokenForPerp","outputs":[],"stateMutability":"nonpayable","type":"function"},{"inputs":[{"internalType":"address","name":"token","type":"address"},{"internalType":"uint256","name":"amount","type":"uint256"}],"name":"depositTokens","outputs":[],"stateMutability":"nonpayable","type":"function"},{"inputs":[{"internalType":"address","name":"token","type":"address"}],"name":"depositUsdcToInsurance","outputs":[],"stateMutability":"payable","type":"function"},{"inputs":[],"name":"dexLister","outputs":[{"internalType":"address","name":"","type":"address"}],"stateMutability":"view","type":"function"},{"inputs":[{"internalType":"uint256","name":"orderId","type":"uint256"}],"name":"executeLimitOrder","outputs":[],"stateMutability":"nonpayable","type":"function"},{"inputs":[{"internalType":"address","name":"user","type":"address"},{"internalType":"address","name":"token","type":"address"},{"internalType":"bool","name":"isTp","type":"bool"}],"name":"executeTpsl","outputs":[],"stateMutability":"nonpayable","type":"function"},{"inputs":[{"internalType":"address","name":"token","type":"address"}],"name":"getCurrentFundingRate","outputs":[{"internalType":"int256","name":"","type":"int256"}],"stateMutability":"view","type":"function"},{"inputs":[],"name":"getLimitOrderCount","outputs":[{"internalType":"uint256","name":"","type":"uint256"}],"stateMutability":"view","type":"function"},{"inputs":[{"internalType":"address","name":"user","type":"address"},{"internalType":"address","name":"token","type":"address"}],"name":"getLiquidationPrice","outputs":[{"internalType":"uint256","name":"","type":"uint256"}],"stateMutability":"view","type":"function"},{"inputs":[],"name":"getListedTokens","outputs":[{"internalType":"address[]","name":"","type":"address[]"}],"stateMutability":"view","type":"function"},{"inputs":[],"name":"getListedTokensCount","outputs":[{"internalType":"uint256","name":"","type":"uint256"}],"stateMutability":"view","type":"function"},{"inputs":[{"internalType":"address","name":"user","type":"address"},{"internalType":"address","name":"token","type":"address"}],"name":"getMarginHealth","outputs":[{"internalType":"uint256","name":"","type":"uint256"}],"stateMutability":"view","type":"function"},{"inputs":[{"internalType":"address","name":"user","type":"address"},{"internalType":"address","name":"token","type":"address"}],"name":"getMarginRatio","outputs":[{"internalType":"uint256","name":"","type":"uint256"}],"stateMutability":"view","type":"function"},{"inputs":[{"internalType":"address","name":"token","type":"address"}],"name":"getMarkPrice","outputs":[{"internalType":"uint256","name":"","type":"uint256"}],"stateMutability":"view","type":"function"},{"inputs":[{"internalType":"address","name":"token","type":"address"}],"name":"getNextFundingTime","outputs":[{"internalType":"uint256","name":"","type":"uint256"}],"stateMutability":"view","type":"function"},{"inputs":[{"internalType":"address","name":"token","type":"address"}],"name":"getOpenInterest","outputs":[{"internalType":"uint256","name":"longOI","type":"uint256"},{"internalType":"uint256","name":"shortOI","type":"uint256"}],"stateMutability":"view","type":"function"},{"inputs":[{"internalType":"address","name":"user","type":"address"},{"internalType":"address","name":"token","type":"address"}],"name":"getPnl","outputs":[{"internalType":"int256","name":"","type":"int256"}],"stateMutability":"view","type":"function"},{"inputs":[{"internalType":"address","name":"user","type":"address"},{"internalType":"address","name":"token","type":"address"}],"name":"getPosition","outputs":[{"internalType":"uint256","name":"margin","type":"uint256"},{"internalType":"uint256","name":"size","type":"uint256"},{"internalType":"uint256","name":"entryPrice","type":"uint256"},{"internalType":"uint256","name":"lastFundingTime_","type":"uint256"},{"internalType":"bool","name":"isLong","type":"bool"},{"internalType":"bool","name":"isActive","type":"bool"},{"internalType":"uint256","name":"tpPrice","type":"uint256"},{"internalType":"uint256","name":"slPrice","type":"uint256"},{"internalType":"bool","name":"hasTpsl","type":"bool"}],"stateMutability":"view","type":"function"},{"inputs":[{"internalType":"address","name":"user","type":"address"}],"name":"getUserLimitOrders","outputs":[{"internalType":"uint256[]","name":"orderIds","type":"uint256[]"},{"internalType":"address[]","name":"tokens","type":"address[]"},{"internalType":"bool[]","name":"isLongs","type":"bool[]"},{"internalType":"uint256[]","name":"margins","type":"uint256[]"},{"internalType":"uint256[]","name":"leverages","type":"uint256[]"},{"internalType":"uint256[]","name":"triggerPrices","type":"uint256[]"},{"internalType":"bool[]","name":"isTriggerAboves","type":"bool[]"},{"internalType":"bool[]","name":"actives","type":"bool[]"}],"stateMutability":"view","type":"function"},{"inputs":[{"internalType":"address","name":"","type":"address"}],"name":"isTokenListedForPerp","outputs":[{"internalType":"bool","name":"","type":"bool"}],"stateMutability":"view","type":"function"},{"inputs":[{"internalType":"address","name":"","type":"address"}],"name":"lastFundingTime","outputs":[{"internalType":"uint256","name":"","type":"uint256"}],"stateMutability":"view","type":"function"},{"inputs":[{"internalType":"uint256","name":"","type":"uint256"}],"name":"limitOrders","outputs":[{"internalType":"address","name":"user","type":"address"},{"internalType":"address","name":"token","type":"address"},{"internalType":"bool","name":"isLong","type":"bool"},{"internalType":"uint256","name":"margin","type":"uint256"},{"internalType":"uint256","name":"leverage","type":"uint256"},{"internalType":"uint256","name":"triggerPrice","type":"uint256"},{"internalType":"bool","name":"isTriggerAbove","type":"bool"},{"internalType":"bool","name":"isActive","type":"bool"}],"stateMutability":"view","type":"function"},{"inputs":[{"internalType":"address","name":"borrower","type":"address"},{"internalType":"address","name":"token","type":"address"}],"name":"liquidate","outputs":[],"stateMutability":"nonpayable","type":"function"},{"inputs":[],"name":"liquidatorIncentiveBps","outputs":[{"internalType":"uint256","name":"","type":"uint256"}],"stateMutability":"view","type":"function"},{"inputs":[{"internalType":"address","name":"token","type":"address"}],"name":"listTokenForPerp","outputs":[],"stateMutability":"nonpayable","type":"function"},{"inputs":[{"internalType":"uint256","name":"","type":"uint256"}],"name":"listedTokens","outputs":[{"internalType":"address","name":"","type":"address"}],"stateMutability":"view","type":"function"},{"inputs":[{"internalType":"address","name":"token","type":"address"},{"internalType":"bool","name":"isLong","type":"bool"},{"internalType":"uint256","name":"marginUsdc","type":"uint256"},{"internalType":"uint256","name":"leverage","type":"uint256"}],"name":"openPosition","outputs":[],"stateMutability":"payable","type":"function"},{"inputs":[],"name":"oracle","outputs":[{"internalType":"contract IPerpOracle","name":"","type":"address"}],"stateMutability":"view","type":"function"},{"inputs":[],"name":"owner","outputs":[{"internalType":"address","name":"","type":"address"}],"stateMutability":"view","type":"function"},{"inputs":[],"name":"paused","outputs":[{"internalType":"bool","name":"","type":"bool"}],"stateMutability":"view","type":"function"},{"inputs":[{"internalType":"address","name":"token","type":"address"},{"internalType":"bool","name":"isLong","type":"bool"},{"internalType":"uint256","name":"marginUsdc","type":"uint256"},{"internalType":"uint256","name":"leverage","type":"uint256"},{"internalType":"uint256","name":"triggerPrice","type":"uint256"},{"internalType":"bool","name":"isTriggerAbove","type":"bool"}],"name":"placeLimitOrder","outputs":[],"stateMutability":"payable","type":"function"},{"inputs":[],"name":"platformTreasury","outputs":[{"internalType":"address","name":"","type":"address"}],"stateMutability":"view","type":"function"},{"inputs":[{"internalType":"address","name":"","type":"address"},{"internalType":"address","name":"","type":"address"}],"name":"positions","outputs":[{"internalType":"uint256","name":"margin","type":"uint256"},{"internalType":"uint256","name":"size","type":"uint256"},{"internalType":"uint256","name":"entryPrice","type":"uint256"},{"internalType":"uint256","name":"lastFundingTime","type":"uint256"},{"internalType":"bool","name":"isLong","type":"bool"},{"internalType":"bool","name":"isActive","type":"bool"},{"internalType":"uint256","name":"tpPrice","type":"uint256"},{"internalType":"uint256","name":"slPrice","type":"uint256"},{"internalType":"bool","name":"hasTpsl","type":"bool"},{"internalType":"int256","name":"fundingDebt","type":"int256"}],"stateMutability":"view","type":"function"},{"inputs":[],"name":"protocolFeeBps","outputs":[{"internalType":"uint256","name":"","type":"uint256"}],"stateMutability":"view","type":"function"},{"inputs":[{"internalType":"address","name":"token","type":"address"},{"internalType":"uint256","name":"amount","type":"uint256"}],"name":"removeMargin","outputs":[],"stateMutability":"nonpayable","type":"function"},{"inputs":[],"name":"renounceOwnership","outputs":[],"stateMutability":"nonpayable","type":"function"},{"inputs":[{"internalType":"uint256","name":"_rate","type":"uint256"}],"name":"setBaseFundingRate","outputs":[],"stateMutability":"nonpayable","type":"function"},{"inputs":[{"internalType":"address","name":"_bondingCurve","type":"address"}],"name":"setBondingCurve","outputs":[],"stateMutability":"nonpayable","type":"function"},{"inputs":[{"internalType":"address","name":"_burnEngine","type":"address"}],"name":"setBurnEngine","outputs":[],"stateMutability":"nonpayable","type":"function"},{"inputs":[{"internalType":"address","name":"token","type":"address"}],"name":"setDefaultToken","outputs":[],"stateMutability":"nonpayable","type":"function"},{"inputs":[{"internalType":"address","name":"_dexLister","type":"address"}],"name":"setDexLister","outputs":[],"stateMutability":"nonpayable","type":"function"},{"inputs":[{"internalType":"uint256","name":"_bps","type":"uint256"}],"name":"setLiquidatorIncentiveBps","outputs":[],"stateMutability":"nonpayable","type":"function"},{"inputs":[{"internalType":"address","name":"_oracle","type":"address"}],"name":"setOracle","outputs":[],"stateMutability":"nonpayable","type":"function"},{"inputs":[{"internalType":"address","name":"_treasury","type":"address"}],"name":"setPlatformTreasury","outputs":[],"stateMutability":"nonpayable","type":"function"},{"inputs":[{"internalType":"uint256","name":"_bps","type":"uint256"}],"name":"setProtocolFeeBps","outputs":[],"stateMutability":"nonpayable","type":"function"},{"inputs":[{"internalType":"address","name":"token","type":"address"},{"internalType":"uint256","name":"tpPrice","type":"uint256"},{"internalType":"uint256","name":"slPrice","type":"uint256"}],"name":"setTpsl","outputs":[],"stateMutability":"nonpayable","type":"function"},{"inputs":[{"internalType":"uint256","name":"_bps","type":"uint256"}],"name":"setTpslExecutorRewardBps","outputs":[],"stateMutability":"nonpayable","type":"function"},{"inputs":[{"internalType":"address","name":"","type":"address"}],"name":"tokenAvailable","outputs":[{"internalType":"uint256","name":"","type":"uint256"}],"stateMutability":"view","type":"function"},{"inputs":[{"internalType":"address","name":"","type":"address"}],"name":"tokenInsuranceFund","outputs":[{"internalType":"uint256","name":"","type":"uint256"}],"stateMutability":"view","type":"function"},{"inputs":[{"internalType":"address","name":"","type":"address"}],"name":"tokenLongOpenInterest","outputs":[{"internalType":"uint256","name":"","type":"uint256"}],"stateMutability":"view","type":"function"},{"inputs":[{"internalType":"address","name":"","type":"address"}],"name":"tokenShortOpenInterest","outputs":[{"internalType":"uint256","name":"","type":"uint256"}],"stateMutability":"view","type":"function"},{"inputs":[],"name":"totalInsuranceFund","outputs":[{"internalType":"uint256","name":"","type":"uint256"}],"stateMutability":"view","type":"function"},{"inputs":[],"name":"tpslExecutorRewardBps","outputs":[{"internalType":"uint256","name":"","type":"uint256"}],"stateMutability":"view","type":"function"},{"inputs":[{"internalType":"uint256","name":"","type":"uint256"}],"name":"tpslOrders","outputs":[{"internalType":"address","name":"user","type":"address"},{"internalType":"address","name":"token","type":"address"},{"internalType":"uint256","name":"triggerPrice","type":"uint256"},{"internalType":"bool","name":"isTp","type":"bool"},{"internalType":"bool","name":"isActive","type":"bool"}],"stateMutability":"view","type":"function"},{"inputs":[{"internalType":"address","name":"newOwner","type":"address"}],"name":"transferOwnership","outputs":[],"stateMutability":"nonpayable","type":"function"},{"inputs":[{"internalType":"address","name":"","type":"address"},{"internalType":"uint256","name":"","type":"uint256"}],"name":"userLimitOrders","outputs":[{"internalType":"uint256","name":"","type":"uint256"}],"stateMutability":"view","type":"function"},{"inputs":[{"internalType":"address","name":"","type":"address"},{"internalType":"address","name":"","type":"address"},{"internalType":"uint256","name":"","type":"uint256"}],"name":"userTpslOrders","outputs":[{"internalType":"uint256","name":"","type":"uint256"}],"stateMutability":"view","type":"function"},{"stateMutability":"payable","type":"receive"}],"evm":{"bytecode":{"linkReferences":{},"object":"6080346200015f57601f62004d8238819003918201601f19168301916001600160401b0383118484101762000163578084926060946040528339810103126200015f576200004d8162000177565b620000696040620000616020850162000177565b930162000177565b9160017f9b779b17422d0df92223018b32b4d1fa46e071723d6817e2486d003becc55f0055331562000147575f8054610100600160a81b0319811633600881811b610100600160a81b0316929092178455604051966001600160a01b03959094869491939190911c8416907f8be0079c531659141344cd1fd0a4f28419497f9722a3daafe3b4186f6b6457e09080a3655af3107a4000600655600a6007556101f460085560646009558160018060a01b031995168560015416176001551683600254161760025516906005541617600555614bf590816200018d8239f35b604051631e4fbdf760e01b81525f6004820152602490fd5b5f80fd5b634e487b7160e01b5f52604160045260245ffd5b51906001600160a01b03821682036200015f5756fe608080604052600436101561001c575b50361561001a575f80fd5b005b5f3560e01c9081630bf429d7146138255750806310d9b8b8146137705780631867b4801461374457806319d07496146137275780631c7817cc1461370a5780632ba996a5146136765780632e354c7d146136425780632f86e2dd146134d1578063311414901461349957806335659fb81461347c57806337acb11914613313578063407dc30814613109578063428ad47d14612a7c57806343ff1fb814612a395780634bd214451461297d5780634c974221146129605780634d92c7561461294357806355efb2871461292757806357431923146128ff5780635a9d1ac3146128bd5780635c975abb1461289c5780635d6f9c14146128115780635db3225a146127f55780635eafc3a6146125165780636268b6e9146124e75780636301793d146124ca57806366168bd71461237e5780636970bff8146122f45780636a0016d0146122b05780636d5730901461228d578063715018a61461224557806374c13fda1461221d578063759f8a1f146121b65780637adbf973146121735780637cd86d60146121305780637dc0d1d0146121085780637ebecc13146120d057806386b9d81f14611b475780638ab68fdf14611b045780638da5cb5b14611ad95780638fde79a814611aad57806390f0496c1461194557806391dfacee1461191657806397b2544f146118de578063983dde521461189b5780639b45ec9714611879578063a3e2b495146117e6578063a5bb2be61461179d578063a5cdc8fc1461165f578063aea1d4d914611627578063b182733014611606578063b33dc19014611553578063b959d6951461135a578063b99287ae146112f2578063c0417e58146112c4578063c0b5ce971461129c578063c721946014610f8a578063cc018b7c14610f6d578063cc0f374e14610f30578063d24ddfb714610f04578063dba0ae3a14610c8a578063dd5d02e614610a93578063e138818c14610a6b578063e1e32f9914610a11578063e3a892d5146109ee578063e851bc9414610979578063ea0a45f914610945578063ecfcc6da146104b6578063eff1d50e1461048e578063f25b9caa14610472578063f2fde38b146103eb578063f40f2a79146103ca578063f7c628ee146103925763ff84600614610356575f61000f565b3461038e57602036600319011261038e576001600160a01b03610377613844565b165f52600b602052602060405f2054604051908152f35b5f80fd5b3461038e57602036600319011261038e576001600160a01b036103b3613844565b165f52600e602052602060405f2054604051908152f35b3461038e575f36600319011261038e57602060405166038d7ea4c680008152f35b3461038e57602036600319011261038e57610404613844565b61040c614539565b6001600160a01b0381811691821561045a575f8054610100600160a81b03198116600893841b610100600160a81b031617825590911c91909116905f80516020614b608339815191529080a3005b604051631e4fbdf760e01b81525f6004820152602490fd5b3461038e575f36600319011261038e57602060405161012c8152f35b3461038e575f36600319011261038e576003546040516001600160a01b039091168152602090f35b3461038e57604036600319011261038e576104cf613844565b602480356104db6144ed565b6104e361451c565b335f52602091600a835260405f209360018060a01b039283821695865f52855260405f209361051b60ff600487015460081c16613980565b81159485159081610936575b50156108fd57335f52600a865260405f20875f5286528360405f209287600485019361055960ff865460081c16613980565b61056287614744565b60015416604051978880926341976e0960e01b82528d60048301525afa9586156108f2575f966108c3575b50610599861515613c59565b6105a285614591565b670de0b6b3a764000080820297828904821417156108b0576105ca6001860198895490613ad3565b926105dd886105d888613a24565b614961565b84810291905f8112600160ff1b87141661089c5780830586149015171561088957508161061491059661060f87613a24565b614a2a565b5f811315610824578554610657919080821161081c575b8161063591613ac6565b87558b5f52600f8b5260405f2061064d8282546139f4565b90556011546139f4565b6011555b61066d60038601934285558654613ab3565b04915f86126107f45761068086846139f4565b925b845460ff16156107d7578a5f52600b8a5260405f206106a2848254613ac6565b90555b885483810361074b575050505087949260ff5f80516020614ba08339815191529593836106f194151580610741575b610722575b50541690549654926040519485943399429487614567565b0390a3335f52600a815260405f20915f525261070f60405f20613ef9565b60015f80516020614b8083398151915255005b5f80808061073b94335af1610735613d0a565b50614054565b8b6106d9565b50478111156106d4565b839b9a506107ac9660ff95936107815f946107785f80516020614b408339815191529e9a98600896613ac6565b8a558354613ac6565b82554290550155801515806107cd575b6107b4575b5054169054926040519485943399429487614567565b0390a361070f565b5f8080806107c794335af1610735613d0a565b89610796565b5047811115610791565b8a5f52600c8a5260405f206107ed848254613ac6565b90556106a5565b6107fd86613ee9565b83811061080d57505f5b92610682565b6108179084613ac6565b610807565b90508061062b565b5f8112610832575b5061065b565b61083b90613ee9565b6108468187546139f4565b86558a5f52600f8a5260405f209081549181831015610867575b505061082c565b6108748261087e94613ac6565b9055601154613ac6565b6011558a8080610860565b634e487b7160e01b5f9081526011600452fd5b50634e487b7160e01b5f9081526011600452fd5b82634e487b7160e01b5f5260116004525ffd5b9095508781813d83116108eb575b6108db8183613a01565b8101031261038e5751948961058d565b503d6108d1565b6040513d5f823e3d90fd5b60405162461bcd60e51b81526004810187905260128186015271696e76616c696420636c6f73652073697a6560701b6044820152606490fd5b60019150015482111588610527565b3461038e57604036600319011261038e576020610971610963613844565b61096b61385a565b90614441565b604051908152f35b3461038e57602036600319011261038e5760043560175481101561038e5760a09060175f5260205f209060021b0160ff600180841b03918281541692600182015416906003600282015491015491604051948552602085015260408401528181161515606084015260081c1615156080820152f35b3461038e57602036600319011261038e576020610971610a0c613844565b614339565b3461038e57602036600319011261038e57610a2a613844565b610a32614539565b6001600160a01b03165f81815260136020526040902054610a559060ff16613c0f565b601480546001600160a01b031916919091179055005b3461038e575f36600319011261038e576005546040516001600160a01b039091168152602090f35b3461038e57602036600319011261038e576001600160a01b03610ab4613844565b165f52601660205260405f20805490610acc826142f3565b90610ad6836142dc565b92610ae46040519485613a01565b808452601f19610af3826142dc565b01366020860137610b03816142f3565b610b0c826142f3565b610b15836142f3565b90610b1f846142f3565b92610b29856142f3565b94610b33816142f3565b965f5b828110610bd257505050604051978897610100808a528901610b5791613918565b88810360208a0152610b6891613870565b8781036040890152610b799161394b565b8681036060880152610b8a91613918565b8581036080870152610b9b91613918565b84810360a0860152610bac91613918565b83810360c0850152610bbd9161394b565b82810360e0840152610bce9161394b565b0390f35b808b60058c610be3600195876138e7565b9054600391821b1c610bff86610bf8836138fc565b5094614325565b528582015493610c1786888060a01b03871692614325565b5260ff9384610c26878c614325565b9160a01c16151590526002820154610c3e868c614325565b52810154610c4c858c614325565b526004810154610c5c858d614325565b52015490610c6a838c614325565b81831615159052610c7b838d614325565b9160081c161515905201610b36565b608036600319011261038e57610c9e613844565b610ca66138ac565b60443591606435610cb56144ed565b610cbd61451c565b670de0b6b3a7640000918282101580610ef2575b610cda90613d8d565b610ce685341015613dcc565b610cf18515156139ba565b60018060a01b039384821694855f52602060138152610d1660ff60405f205416613e0e565b335f52600a815260405f20875f52815260405f206004810196610d4060ff895460081c1615613e56565b836001541696838a6024604051809b81936341976e0960e01b835260048301525afa9788156108f2578b905f99610eb0575b5098610db4600793610dad610e4c99989796945f80516020614b208339815191529d610d9f8e1515613c59565b610da88d614591565b613ab3565b0498614744565b8b8255876001830155886002830155426003830155610dd38682613c48565b805461ff0019166101001790555f6008820181905560058201819055600682015501805460ff191690558215610e9357600b90885f525260405f20610e198582546139f4565b90555b612710610e2b6007548a613ab3565b0480151580610e86575b610e62575b50506040519384933398429386614114565b0390a360015f80516020614b8083398151915255005b5f80808093610e7f95600254165af1610e79613d0a565b506140d2565b8780610e3a565b5081600254161515610e35565b600c90885f525260405f20610ea98582546139f4565b9055610e1c565b858095939a50819498979692503d8311610eeb575b610ecf8183613a01565b8101031261038e5790519693949293919290918a610db4610d72565b503d610ec5565b50678ac7230489e80000821115610cd1565b3461038e57604036600319011261038e576020610971610f22613844565b610f2a61385a565b9061413a565b3461038e57602036600319011261038e576001600160a01b03610f51613844565b165f526013602052602060ff60405f2054166040519015158152f35b3461038e575f36600319011261038e576020600654604051908152f35b3461038e5760208060031936011261038e57600435610fa76144ed565b610faf61451c565b610fbc6015548210613fd9565b610fc5816138fc565b5090600582019283549060ff92610fe0848460081c16614015565b60018060a01b039260248460015416936001880190808783541696604051948580926341976e0960e01b82528a60048301525afa9283156108f2575f9361126d575b5061102e831515613c59565b61103786614591565b838816156112585761104f60048a0154841015614092565b868954165f52600a815260405f20865f52815260405f206004810189815460081c1661121f5788999a9b61ff0099989919809716905560028c01958c8754906003015461109b91613ab3565b670de0b6b3a76400009004996110b090614744565b865483558960018401558560028401554260038401558b855460a01c166110d79083613c48565b8154166101001790556008015f9055815494868a8760a01c165f149b5f80516020614b208339815191529a610e4c987f431ebe7f2929904a285c3050ab2a96ca5b4533ee5206a3b661cde6dd6d141d569e61120257508554165f52600b845260405f206111458b82546139f4565b90555b61115c875461271091829160075490613ab3565b04801515806111f5575b6111d8575b5061117a885460095490613ab3565b04801515806111ce575b6111af575b5054169a8b92604051868152a354915494604051958695841698429460a01c1686614114565b5f8080806111c894335af16111c2613d0a565b50613d48565b8d611189565b5047811115611184565b5f8080806111ef9488600254165af1610e79613d0a565b8e61116b565b5083600254161515611166565b165f52600c845260405f206112188b82546139f4565b9055611148565b60405162461bcd60e51b81526004810184905260116024820152703ab9b2b9103430b9903837b9b4ba34b7b760791b6044820152606490fd5b61126860048a0154841115614092565b61104f565b9080935081813d8311611295575b6112858183613a01565b8101031261038e5751918a611022565b503d61127b565b3461038e575f36600319011261038e576004546040516001600160a01b039091168152602090f35b3461038e57602036600319011261038e576004356112e0614539565b6112ed6064821115613bd8565b600755005b3461038e57606036600319011261038e5761130b613844565b61131361385a565b6044359160018060a01b038091165f52601860205260405f2091165f5260205260405f20805482101561038e5760209161134c916138e7565b90546040519160031b1c8152f35b3461038e57604036600319011261038e57611373613844565b60243561137e6144ed565b61138661451c565b335f526020600a815260405f209260018060a01b0380911693845f52825260405f20906004820154906113be60ff8360081c16613980565b84151580611549575b15611513578360249160015416604051928380926341976e0960e01b82528a60048301525afa9081156108f2575f916114e4575b506114368161141467011c37937e080000931515613c59565b61141f878654613ac6565b936001860154918560ff6002890154931693614a03565b106114945781556114505f80808087335af1610735613d0a565b54906040519283528201527f33a6a7befb7e6c5e685340c90629413ed5a124b429160f8f02f4d818ae7efbbd60403392a360015f80516020614b8083398151915255005b60405162461bcd60e51b815260048101849052602260248201527f6d617267696e20726174696f20746f6f206c6f772061667465722072656d6f76604482015261185b60f21b6064820152608490fd5b90508381813d831161150c575b6114fb8183613a01565b8101031261038e57516114366113fb565b503d6114f1565b60405162461bcd60e51b815260048101859052600e60248201526d1a5b9d985b1a5908185b5bdd5b9d60921b6044820152606490fd5b50825485106113c7565b3461038e57604036600319011261038e5761156c613844565b61157461385a565b9060018060a01b038091165f52600a60205260405f2091165f526020526101206115a060405f20613a24565b805190602081015190604081015160608201516080830151151560a084015115159060c08501519260e08601519461010080970151151597604051998a5260208a015260408901526060880152608087015260a086015260c085015260e0840152820152f35b3461038e575f36600319011261038e57602060405166b1a2bc2ec500008152f35b3461038e57602036600319011261038e576001600160a01b03611648613844565b165f52600f602052602060405f2054604051908152f35b3461038e57602036600319011261038e5760043561167b6144ed565b6116886015548210613fd9565b611691816138fc565b5080546001600160a01b03163303611767578060056002920180546116bb60ff8260081c16614015565b61ff001916905501548015158061175d575b61170c575b5033907f34cf495316dbb07c8286e6c6b35542a47854aaf8050f2dd51ab0347b855582975f80a360015f80516020614b8083398151915255005b5f80808093335af161171c613d0a565b501561172857816116d2565b60405162461bcd60e51b815260206004820152600d60248201526c1c99599d5b990819985a5b1959609a1b6044820152606490fd5b50478111156116cd565b60405162461bcd60e51b815260206004820152600e60248201526d3737ba103cb7bab91037b93232b960911b6044820152606490fd5b3461038e57604036600319011261038e576117b6613844565b6001600160a01b03165f9081526016602052604090208054602435919082101561038e5760209161134c916138e7565b3461038e57602036600319011261038e5760043560155481101561038e57611810610100916138fc565b5060ff60018060a01b038083541692600181015460028201548460038401549260056004860154950154956040519889528116602089015260a01c16151560408701526060860152608085015260a0840152818116151560c084015260081c16151560e0820152f35b3461038e575f36600319011261038e576020604051678ac7230489e800008152f35b3461038e57602036600319011261038e576118b4613844565b6118bc614539565b600280546001600160a01b0319166001600160a01b0392909216919091179055005b3461038e57602036600319011261038e576001600160a01b036118ff613844565b165f526010602052602060405f2054604051908152f35b3461038e57602036600319011261038e57600435611932614539565b6119406103e8821115613bd8565b600855005b3461038e57602036600319011261038e5761195e613844565b611966614539565b6001600160a01b0381811691908215611a7957825f52601360205260ff60405f205416611a43575f838152601360205260409020805460ff19166001179055601254600160401b811015611a2f5783926119c98260016119e794016012556138bb565b90919060018060a01b038084549260031b9316831b921b1916179055565b60145490811615611a1a575b507f44407f8af029e74ef3c8d735b22092e8d0b7793d8739ea61b6cd677aef5eb4125f80a2005b6001600160a01b0319161760145580826119f3565b634e487b7160e01b5f52604160045260245ffd5b60405162461bcd60e51b815260206004820152600e60248201526d185b1c9958591e481b1a5cdd195960921b6044820152606490fd5b60405162461bcd60e51b815260206004820152600c60248201526b7a65726f206164647265737360a01b6044820152606490fd5b3461038e57604036600319011261038e576020610971611acb613844565b611ad361385a565b90613f2e565b3461038e575f36600319011261038e575f5460405160089190911c6001600160a01b03168152602090f35b3461038e57602036600319011261038e57611b1d613844565b611b25614539565b600480546001600160a01b0319166001600160a01b0392909216919091179055005b3461038e57604036600319011261038e57611b60613844565b611b6861385a565b90611b716144ed565b611b7961451c565b6001600160a01b038181165f908152600a602090815260408083209386168352929052206004810154611bb19060081c60ff16613980565b6001546040516341976e0960e01b81526001600160a01b038581166004830152909160209183916024918391165afa9081156108f2575f9161209e575b50611bfa811515613c59565b611c0384614591565b66d529ae9e860000611c1d82611c1885613a24565b614686565b101561206657611c2c84614744565b611c39816105d884613a24565b90825466b1a2bc2ec5000080820290828204148215171561205257670de0b6b3a76400009004612710611c6e60085484613ab3565b04610bb88381810204811484151715612052576127109084020492611c9c84611c9784866139f4565b6139f4565b90808211611fe6575b5050600486015460ff1615611fbb57600186015460018060a01b0389165f52600b602052611cd860405f20918254613ac6565b90555b80151580611fb1575b611f55575b5080151580611f41575b611ee0575b5080611e86575b505f8212611d98575b600160ff600485015416930154604051931515845260208401526040830152606082015242608082015260018060a01b0382169033907f2519c4ebc951d8ee92a05c30c8d8c1470731af70c412127475402abd963d1b1160a0600180821b03871692a460018060a01b03165f52600a60205260405f209060018060a01b03165f5260205261070f60405f20613ef9565b611da182613ee9565b835480821180611e66575b611db8575b5050611d08565b611dc191613ac6565b6001600160a01b0386165f908152600f6020526040902080549182811115611e5b5750611dee8280613ac6565b9055611dfc81601154613ac6565b60115560405190815260406020820152600a60408201526962616e6b72757074637960b01b60608201527f9a8c1dc5fb2b764e1b96134304619e44486c555d03fa116c381105d23fd37e67608060018060a01b03881692a28580611db1565b611dee908093613ac6565b506001600160a01b0387165f908152600f60205260409020541515611dac565b60018060a01b0386165f52600f60205260405f20611ea58282546139f4565b9055611eb3816011546139f4565b6011556040519081526001600160a01b038616905f80516020614ae083398151915290602090a285611cff565b6002545f918291829182916001600160a01b03165af1611efe613d0a565b5015611f0a5786611cf8565b60405162461bcd60e51b815260206004820152600f60248201526e189d5c9b881999594819985a5b1959608a1b6044820152606490fd5b506002546001600160a01b03161515611cf3565b5f80808093335af1611f65613d0a565b5015611f715787611ce9565b60405162461bcd60e51b81526020600482015260186024820152771b1a5c5d5a59185d1bdc881c995dd85c990819985a5b195960421b6044820152606490fd5b5047811115611ce4565b600186015460018060a01b0389165f52600c602052611fdf60405f20918254613ac6565b9055611cdb565b809192939450670de0b6b3a7640000810204670de0b6b3a7640000148115171561205257612045670de0b6b3a764000061203c8161203361202c61204a97838802613ad3565b8099613ab3565b04968796613ab3565b04948592613ac6565b613ac6565b918880611ca5565b634e487b7160e01b5f52601160045260245ffd5b60405162461bcd60e51b815260206004820152601060248201526f706f736974696f6e206865616c74687960801b6044820152606490fd5b90506020813d6020116120c8575b816120b960209383613a01565b8101031261038e575184611bee565b3d91506120ac565b3461038e57602036600319011261038e576001600160a01b036120f1613844565b165f52600d602052602060405f2054604051908152f35b3461038e575f36600319011261038e576001546040516001600160a01b039091168152602090f35b3461038e57602036600319011261038e57612149613844565b612151614539565b600580546001600160a01b0319166001600160a01b0392909216919091179055005b3461038e57602036600319011261038e5761218c613844565b612194614539565b600180546001600160a01b0319166001600160a01b0392909216919091179055005b602036600319011261038e576121ca613844565b341561038e576001600160a01b03165f818152600f6020526040902080546121f39034906139f4565b9055612201346011546139f4565b6011555f80516020614ae08339815191526020604051348152a2005b3461038e575f36600319011261038e576014546040516001600160a01b039091168152602090f35b3461038e575f36600319011261038e5761225d614539565b5f8054610100600160a81b03198116825560081c6001600160a01b03165f80516020614b608339815191528280a3005b3461038e57602036600319011261038e5760206109716122ab613844565b613ea2565b3461038e57602036600319011261038e576001600160a01b036122d1613844565b165f52600b6020526040805f2054600c602052815f205482519182526020820152f35b3461038e57602036600319011261038e5761230d613844565b335f52600a60205260405f209060018060a01b031690815f52602052600760405f2061234260ff600483015460081c16613980565b5f60058201555f60068201550160ff198154169055337fe9b7e1d3cb64115da0bf49cbe4af2b06c8d42e87b1e1c0fe240c32be832f58095f80a3005b3461038e57604036600319011261038e57612397613844565b600354602435916001600160a01b03918216331480156124bd575b80156124ae575b156124785716906040516323b872dd60e01b5f5233600452306024528160445260205f60648180875af160015f5114811615612459575b816040525f60605215612443575060207fe3a6e26dceff30d982e183d0ce051fb5b791f2108785a9d440d417247cef5b4191835f526010825260405f206124388282546139f4565b9055604051908152a2005b635274afe760e01b815260048101839052602490fd5b600181151661246f57833b15153d1516166123f0565b503d5f823e3d90fd5b60405162461bcd60e51b815260206004820152600e60248201526d1b9bdd08185d5d1a1bdc9a5e995960921b6044820152606490fd5b50815f5460081c1633146123b9565b50816004541633146123b2565b3461038e575f36600319011261038e576020600954604051908152f35b3461038e57602036600319011261038e57600435612503614539565b6125116101f4821115613bd8565b600955005b60c036600319011261038e5761252a613844565b6125326138ac565b60a43591821515830361038e576125476144ed565b61254f61451c565b670de0b6b3a76400006064351015806127e1575b61256c90613d8d565b61257a604435341015613dcc565b61258760443515156139ba565b608435156127a75760018060a01b031691825f5260136020526125b060ff60405f205416613e0e565b335f52600a60205260405f20835f526020526125d960ff600460405f20015460081c1615613e56565b60155460405190919061010081016001600160401b03811182821017611a2f5760405233815284602082015283151560408201526044356060820152606435608082015260843560a082015281151560c0820152600160e0820152600160401b831015611a2f5760018301601555612650836138fc565b61279457815181546001600160a01b0319166001600160a01b03918216178255602083015160018301805460408601516001600160a81b0319909116929093169190911791151560a090811b60ff60a01b169290921790556060830151600283015560808301516003830155820151600482015560c08201516005919091019160e0916126df90151584613c48565b0151815461ff00191690151560081b61ff0016179055335f9081526016602052604090208054600160401b811015611a2f57612720916001820181556138e7565b81549060031b9084821b915f19901b19161790556040519215158352604435602084015260643560408401526084356060840152151560808301527fd38cf2938cf143ec7305058c0eac45e5532fcd567442eef7f027e22d8b1caed560a03393a460015f80516020614b8083398151915255005b634e487b7160e01b5f525f60045260245ffd5b60405162461bcd60e51b81526020600482015260126024820152717a65726f207472696767657220707269636560701b6044820152606490fd5b50678ac7230489e800006064351115612563565b3461038e575f36600319011261038e576020604051610bb88152f35b3461038e5760208060031936011261038e5761282b613844565b6001546040516341976e0960e01b81526001600160a01b03928316600482015291839183916024918391165afa9081156108f2575f9161286f575b50604051908152f35b90508181813d8311612895575b6128868183613a01565b8101031261038e575182612866565b503d61287c565b3461038e575f36600319011261038e57602060ff5f54166040519015158152f35b3461038e57602036600319011261038e5760043560125481101561038e576128e66020916138bb565b905460405160039290921b1c6001600160a01b03168152f35b3461038e575f36600319011261038e576002546040516001600160a01b039091168152602090f35b3461038e575f36600319011261038e5760206040516170808152f35b3461038e575f36600319011261038e576020600854604051908152f35b3461038e575f36600319011261038e576020601254604051908152f35b3461038e57604036600319011261038e57612996613844565b61299e61385a565b9060018060a01b038091165f52600a60205260405f2091165f5260205261014060405f208054906001810154906002810154600382015460ff600484015460058501549260068601549460088460078901541697015497604051998a5260208a0152604089015260608801528181161515608088015260081c16151560a086015260c085015260e08401521515610100830152610120820152f35b3461038e57602036600319011261038e57612a52613844565b612a5a614539565b600380546001600160a01b0319166001600160a01b0392909216919091179055005b3461038e57606036600319011261038e57612a95613844565b612a9d61385a565b60443590811515820361038e57612ab26144ed565b612aba61451c565b6001600160a01b038381165f908152600a60209081526040808320938516835292905220600481015491600883901c60ff16806130fb575b156130cc576001546040516341976e0960e01b81526001600160a01b03838116600483015290939160209185916024918391165afa9283156108f2575f93613098575b50612b41831515613c59565b612b4a82614591565b841561308d576005810154925b831561305e5760249460ff161561304057851561302f57612b7a84821015613ccd565b6001612710612b8d845460095490613ab3565b049283151580613025575b61300d575b01549360018060a01b0388165f52600a60205260405f2060018060a01b0385165f5260205260405f2094612bda60ff600488015460081c16613980565b612be385614744565b6001546040516341976e0960e01b81526001600160a01b03878116600483015290986020928a928391165afa9687156108f2575f97612fd9575b50612c29871515613c59565b612c3285614591565b670de0b6b3a76400008102818104670de0b6b3a76400001482151715612052576001870154612c6091613ad3565b90612c6e886105d889613a24565b965f8812600160ff1b841416612052578783810205831488151715612052577f399e51b755363f9e7c0719a2ac0289d77f512608b9d120ae8af7ca01e0ff3e1e988b670de0b6b3a76400008560809b020594612ccd8a61060f86613a24565b5f811315612f72578454612d0f9190808211612f6a575b81612cee91613ac6565b865560018060a01b038c165f52600f60205260405f2061064d8282546139f4565b6011555b670de0b6b3a7640000612d2e60038601924284558654613ab3565b04905f8712612f4257612d4187836139f4565b915b600486015460ff1615612f1c5760018060a01b038c165f52600b60205260405f20612d6f888254613ac6565b90555b6001860154878103612e72575050505f80516020614ba083398151915293945080151580612e68575b612e42575b50600484015484546001909501546040516001600160a01b0393841697938c169690948594612dd794429491939060ff1687614567565b0390a36001600160a01b038881165f908152600a60209081526040808320938816835292905220612e0790613ef9565b604080519715158852602088019190915286015260608501526001600160a01b03908116941692a360015f80516020614b8083398151915255005b612e61915f918291829182916001600160a01b03165af1610735613d0a565b8b8d612da0565b5047811115612d9b565b91612ea0612ee99492612e948a5f80516020614b408339815191529a96613ac6565b60018601558454613ac6565b83554290555f600883015580151580612f12575b612ef1575b50600160ff6004830154169101549660405194859460018060a01b0316988d60018060a01b031698429487614567565b0390a3612e07565b5f808080612f0c9460018060a01b0389165af1610735613d0a565b8f612eb9565b5047811115612eb4565b60018060a01b038c165f52600c60205260405f20612f3b888254613ac6565b9055612d72565b612f4b87613ee9565b828110612f5b57505f5b91612d43565b612f659083613ac6565b612f55565b905080612ce4565b5f8112612f80575b50612d13565b612f8990613ee9565b612f948186546139f4565b85556001600160a01b038b165f908152600f602052604090208054919081831015612fc1575b5050612f7a565b61087482612fce94613ac6565b6011558e8080612fba565b9096506020813d602011613005575b81612ff560209383613a01565b8101031261038e57519589612c1d565b3d9150612fe8565b6130205f80808088335af16111c2613d0a565b612b9d565b5047841115612b98565b61303b84821115613c90565b612b7a565b85156130525761303b84821115613ccd565b61303b84821015613c90565b60405162461bcd60e51b81526020600482015260076024820152661b9bdd081cd95d60ca1b6044820152606490fd5b600681015492612b57565b9092506020813d6020116130c4575b816130b460209383613a01565b8101031261038e57519186612b35565b3d91506130a7565b60405162461bcd60e51b81526020600482015260076024820152661b9bc81d1c1cdb60ca1b6044820152606490fd5b5060ff600783015416612af2565b3461038e57606036600319011261038e57613122613844565b602435604435335f526020600a815260405f209360018060a01b031693845f52815260405f2060ff600482015461315d828260081c16613980565b16156132665783158015613259575b156132225782158015613215575b156131de576131a3905b8460058201558360068201558415908115916131d4575b600701613c48565b6040519283528201527f6c6d28f5d331e789a81e2a85ca3c76cd34f609c9bc9d9caa6cd309c7dd015fb460403392a3005b841515915061319b565b60405162461bcd60e51b815260048101839052600f60248201526e534c206d757374203c20656e74727960881b6044820152606490fd5b506002810154831061317a565b60405162461bcd60e51b815260048101839052600f60248201526e5450206d757374203e20656e74727960881b6044820152606490fd5b506002810154841161316c565b83158015613306575b156132cf57821580156132c2575b1561328b576131a390613184565b60405162461bcd60e51b815260048101839052600f60248201526e534c206d757374203e20656e74727960881b6044820152606490fd5b506002810154831161327d565b60405162461bcd60e51b815260048101839052600f60248201526e5450206d757374203c20656e74727960881b6044820152606490fd5b506002810154841061326f565b3461038e57602036600319011261038e5761332c613844565b613334614539565b60018060a01b0380911690815f52601360205261335760ff60405f205416613c0f565b8060145416821461343f575f828152601360205260408120805460ff191690555b6012908154918282101561343657839285613392846138bb565b969054600397881b1c16146133ae575050600191925001613378565b9092915f199180830191908211612052576119c9846133cf6133dc946138bb565b905490891b1c16916138bb565b825480156134225701926133ef846138bb565b81939154921b1b19169055555b7f53f882e7ae7f246c0c12e357352713c90da73cfbaa37abcdc49697b332efc9275f80a2005b634e487b7160e01b5f52603160045260245ffd5b505050506133fc565b60405162461bcd60e51b815260206004820152601560248201527418d85b9b9bdd0819195b1a5cdd08191959985d5b1d605a1b6044820152606490fd5b3461038e575f36600319011261038e576020600754604051908152f35b3461038e57602036600319011261038e576001600160a01b036134ba613844565b165f52600c602052602060405f2054604051908152f35b3461038e5760208060031936011261038e576134eb613844565b906134f46144ed565b6134fc61451c565b335f52600a815260405f2091602460018060a01b039182811694855f528452600160405f2061353460ff600483015460081c16613980565b015492335f52600a855260405f20865f52855260405f209085600483019161356260ff845460081c16613980565b61356b85614744565b60015416604051958680926341976e0960e01b82528b60048301525afa9384156108f2575f94613613575b506135a2841515613c59565b6135ab83614591565b670de0b6b3a764000080860295808704821481151715612052576135d56001850197885490613ad3565b916135e3876105d887613a24565b808402905f8112600160ff1b86141661205257808205851490151715612052578161061491059661060f87613a24565b9093508581813d831161363b575b61362b8183613a01565b8101031261038e57519287613596565b503d613621565b3461038e57602036600319011261038e5760043561365e614539565b61367166038d7ea4c68000821115613bd8565b600655005b3461038e575f36600319011261038e57604051601280548083525f918252602080840193927fbb8a6a4669ba250d26cd7a459eca9d215f8307e33aebe50379bc5a3617ec344492915b8282106136ea57610bce856136d681890382613a01565b604051918291602083526020830190613870565b83546001600160a01b0316865294850194600193840193909101906136bf565b3461038e575f36600319011261038e576020601554604051908152f35b3461038e575f36600319011261038e576020601154604051908152f35b3461038e57604036600319011261038e576020610971613762613844565b61376a61385a565b90613af1565b602036600319011261038e57613784613844565b61378c6144ed565b61379461451c565b335f52600a60205260405f209060018060a01b031690815f5260205260405f206137c760ff600483015460081c16613980565b6137d23415156139ba565b6137dd3482546139f4565b8091556040519034825260208201527f5ee4d5d52169c996164e259f1aad282b3746303766ea2f71d42f3d0aaa9680a560403392a360015f80516020614b8083398151915255005b3461038e575f36600319011261038e578066d529ae9e86000060209252f35b600435906001600160a01b038216820361038e57565b602435906001600160a01b038216820361038e57565b9081518082526020808093019301915f5b82811061388f575050505090565b83516001600160a01b031685529381019392810192600101613881565b60243590811515820361038e57565b6012548110156138d35760125f5260205f2001905f90565b634e487b7160e01b5f52603260045260245ffd5b80548210156138d3575f5260205f2001905f90565b6015548110156138d35760155f52600660205f20910201905f90565b9081518082526020808093019301915f5b828110613937575050505090565b835185529381019392810192600101613929565b9081518082526020808093019301915f5b82811061396a575050505090565b835115158552938101939281019260010161395c565b1561398757565b60405162461bcd60e51b815260206004820152600b60248201526a3737903837b9b4ba34b7b760a91b6044820152606490fd5b156139c157565b60405162461bcd60e51b815260206004820152600b60248201526a3d32b9379036b0b933b4b760a91b6044820152606490fd5b9190820180921161205257565b601f909101601f19168101906001600160401b03821190821017611a2f57604052565b60405190919061014081016001600160401b03811182821017611a2f57604052610120600882948054845260018101546020850152600281015460408501526003810154606085015260ff600482015481811615156080870152831c16151560a0850152600581015460c0850152600681015460e085015260ff60078201541615156101008501520154910152565b8181029291811591840414171561205257565b9190820391821161205257565b8115613add570490565b634e487b7160e01b5f52601260045260245ffd5b60018060a01b038091165f52600a60205260405f2091165f52602052613b1960405f20613a24565b60a081015115613bd35780518015613b815760808201516020919015613b8757613b47906040840151613ab3565b910151670eb5e06245ea00009081810291818304149015171561205257670de0b6b3a764000090048015613b8157613b7e91613ad3565b90565b50505f90565b613b95906040840151613ab3565b910151670d0b8d0508de00009081810291818304149015171561205257670de0b6b3a764000090048015613bcc57613b7e91613ad3565b50505f1990565b505f90565b15613bdf57565b60405162461bcd60e51b81526020600482015260086024820152670e8dede40d0d2ced60c31b6044820152606490fd5b15613c1657565b60405162461bcd60e51b815260206004820152600a6024820152691b9bdd081b1a5cdd195960b21b6044820152606490fd5b9060ff801983541691151516179055565b15613c6057565b60405162461bcd60e51b81526020600482015260086024820152676e6f20707269636560c01b6044820152606490fd5b15613c9757565b60405162461bcd60e51b815260206004820152600e60248201526d14d3081b9bdd081c995858da195960921b6044820152606490fd5b15613cd457565b60405162461bcd60e51b815260206004820152600e60248201526d1514081b9bdd081c995858da195960921b6044820152606490fd5b3d15613d43573d906001600160401b038211611a2f5760405191613d38601f8201601f191660200184613a01565b82523d5f602084013e565b606090565b15613d4f57565b60405162461bcd60e51b8152602060048201526016602482015275195e1958dd5d1bdc881c995dd85c990819985a5b195960521b6044820152606490fd5b15613d9457565b60405162461bcd60e51b815260206004820152601060248201526f696e76616c6964206c6576657261676560801b6044820152606490fd5b15613dd357565b60405162461bcd60e51b815260206004820152601360248201527234b739bab33334b1b4b2b73a1036b0b933b4b760691b6044820152606490fd5b15613e1557565b60405162461bcd60e51b81526020600482015260196024820152780746f6b656e206e6f74206c697374656420666f72207065727603c1b6044820152606490fd5b15613e5d57565b60405162461bcd60e51b815260206004820152601d60248201527f636c6f7365206578697374696e6720706f736974696f6e2066697273740000006044820152606490fd5b6001600160a01b03165f818152600e602052604090205415613ed9575f52600e60205260405f205461708081018091116120525790565b5061708042018042116120525790565b600160ff1b8114612052575f0390565b60085f918281558260018201558260028201558260038201558260048201558260058201558260068201558260078201550155565b60018060a01b038091165f52602090600a82528060405f20931692835f528252613f5a60405f20613a24565b9060a082015115613fd157829060015416936024604051809681936341976e0960e01b835260048301525afa9182156108f2575f92613f9f575b50613b7e9250614961565b90915082813d8311613fca575b613fb68183613a01565b8101031261038e57613b7e9151905f613f94565b503d613fac565b505050505f90565b15613fe057565b60405162461bcd60e51b815260206004820152600d60248201526c34b73b30b634b21037b93232b960991b6044820152606490fd5b1561401c57565b60405162461bcd60e51b815260206004820152601060248201526f6f72646572206e6f742061637469766560801b6044820152606490fd5b1561405b57565b60405162461bcd60e51b815260206004820152600f60248201526e1d1c985b9cd9995c8819985a5b1959608a1b6044820152606490fd5b1561409957565b60405162461bcd60e51b81526020600482015260116024820152701c1c9a58d9481b9bdd081c995858da1959607a1b6044820152606490fd5b156140d957565b60405162461bcd60e51b8152602060048201526013602482015272199959481d1c985b9cd9995c8819985a5b1959606a1b6044820152606490fd5b9192608093969594919660a0840197151584526020840152604083015260608201520152565b60018060a01b03809116805f52602092600a845260409083825f20911690815f528552614168825f20613a24565b9360a0850151156142d1578251936230cf6960e71b855260048501528160248501528584604481305afa9384156142c7579086915f95614296575b50600154169160248451809481936341976e0960e01b835260048301525afa94851561428c575f9561425c575b50508315613fd1576080830151156142305781841115613fd157614209920151818082115f146142265761420391613ac6565b92613ac6565b9060648202918083046064149015171561205257613b7e91613ad3565b5050600192613ac6565b818492941015613fd1576142099201518084115f14614253576142039084613ac6565b50600192613ac6565b9080929550813d8311614285575b6142748183613a01565b8101031261038e5751925f806141d0565b503d61426a565b82513d5f823e3d90fd5b8281939296503d83116142c0575b6142ae8183613a01565b8101031261038e57859051935f6141a3565b503d6142a4565b83513d5f823e3d90fd5b505050505050606490565b6001600160401b038111611a2f5760051b60200190565b906142fd826142dc565b61430a6040519182613a01565b828152809261431b601f19916142dc565b0190602036910137565b80518210156138d35760209160051b010190565b60018060a01b03165f52600b60205260405f2054600c60205260405f205490801591828093614439575b61443257808211156143c557670de0b6b3a76400009283830292830484141715612052576143a39161439b9180156143bc5790613ad3565b600654613ab3565b0466038d7ea4c680008082136143b7575090565b905090565b50600190613ad3565b91908083116143d5575050505f90565b670de0b6b3a764000091828402938085048414901517156120525761440c936144069261439b926143bc5790613ad3565b04613ee9565b66038d7ea4c6800061441d82613ee9565b136144255790565b5066038d7ea4c67fff1990565b5050505f90565b508015614363565b60018060a01b038091165f52602090600a82528060405f20931692835f52825261446d60405f20613a24565b9060a0820151156144e457829060015416936024604051809681936341976e0960e01b835260048301525afa9182156108f2575f926144b2575b50613b7e9250614686565b90915082813d83116144dd575b6144c98183613a01565b8101031261038e57613b7e9151905f6144a7565b503d6144bf565b505050505f1990565b5f80516020614b80833981519152600281541461450a5760029055565b604051633ee5aeb560e01b8152600490fd5b60ff5f541661452757565b60405163d93c066560e01b8152600490fd5b5f5460081c6001600160a01b0316330361454f57565b60405163118cdaa760e01b8152336004820152602490fd5b9260a094919796959260c08501981515855260208501526040840152606083015260808201520152565b6001546040516385f89eef60e01b81526001600160a01b0392831660048201526020929091839183916024918391165afa9081156108f2575f91614659575b50801561461e576145e461012c9142613ac6565b116145ec5750565b6064906040519062461bcd60e51b82526004820152600b60248201526a7072696365207374616c6560a81b6044820152fd5b60405162461bcd60e51b81526004810183905260136024820152721c1c9a58d9481b995d995c881d5c19185d1959606a1b6044820152606490fd5b90508181813d831161467f575b6146708183613a01565b8101031261038e57515f6145d0565b503d614666565b6146908282614961565b608082015190929015614722576146ae6146b9916020840151613ab3565b604083015190613ad3565b915b5f81126146f7576146cc91516139f4565b905b8015613bcc57670de0b6b3a76400009182810292818404149015171561205257613b7e91613ad3565b61470090613ee9565b9051908181106147145750505f5b906146ce565b61471d91613ac6565b61470e565b61473e906147396020840151604085015190613ab3565b613ad3565b916146bb565b60018060a01b0316805f526020600e81526040805f208054156149595761476c905442613ac6565b916170809283811061495257845f52600b8252825f2054600c8352835f20549481159283809461494a575b6149385704945f8183111561488b5750670de0b6b3a76400009283830292830484141715612052576147d9918691610da89161439b9180156143bc5790613ad3565b049066038d7ea4c68000938085029485040361205257835f80516020614b00833981519152948313614883575b505b5f82131561484157845f52600d8152825f206148258382546139f4565b90555b845f52600e815242835f205582519182524290820152a2565b5f8212156148285761485282613ee9565b855f52600d8252835f209080825410155f1461487a57614873908254613ac6565b9055614828565b505f9055614828565b91505f614806565b93928282116148ad575b5050505f80516020614b008339815191529350614808565b9091929350670de0b6b3a7640000918281029080820484149015171561205257610da861439b88926148ea9661440695155f146143bc5790613ad3565b906148f482613ee9565b9366038d7ea4c68000908082029182040361205257805f80516020614b008339815191529513614926575b8080614895565b614931919250613ee9565b905f61491f565b5050600e90925250505f204290555050565b508615614797565b5050505050565b429055505050565b6080810151156149c1576040810180519091908084106149a25750613b7e92614994602061499a93015191845190613ac6565b90613ab3565b905190613ad3565b61499a90614994613b7e9560206149bc9695015192613ac6565b613ee9565b6040810180519091908084116149e95750613b7e92614994602061499a930151918451613ac6565b613b7e9361499461499a9260206149bc9695015192613ac6565b909315614a18576146ce929161473991613ab3565b614a259261473991613ab3565b6146ce565b60608101514281101561443257614a446170809142613ac6565b049182156144325760018060a01b03165f52600b60205260405f2054600c60205260405f205492811580614ad7575b613fd157614a99614a8f670de0b6b3a764000092600654613ab3565b6020850151613ab3565b049280821115614aba5750506080015115614ab15790565b613b7e90613ee9565b11614ac55750505f90565b6080015115613b7e57613b7e90613ee9565b508315614a7356febf303edf95352cf6ad54b706e89542319cd1e6cafa0cd0a4240c27e776b9dea7769084355bca6d68d2849f20818a61530e0c68371f43a43c0ca7edc0b3ee27509020403d73c786ad905c04a7eb4321e541e6d41ceae2333e7f74fade7471558cbf9f87525440f259c04cb82958a99f5e4d1fc20995d3313229f91ee94f6d62cf8be0079c531659141344cd1fd0a4f28419497f9722a3daafe3b4186f6b6457e09b779b17422d0df92223018b32b4d1fa46e071723d6817e2486d003becc55f008252bd05c6d67c86efed48140ec67188bf0dfd021cd6fd1b830f99ea0f354e19a2646970667358221220268b98eb820c565ec7e611a71f4d31c266d8fa0ff313ebb265cf6980476e6f0f64736f6c63430008180033","opcodes":"PUSH1 0x80 CALLVALUE PUSH3 0x15F JUMPI PUSH1 0x1F PUSH3 0x4D82 CODESIZE DUP2 SWAP1 SUB SWAP2 DUP3 ADD PUSH1 0x1F NOT AND DUP4 ADD SWAP2 PUSH1 0x1 PUSH1 0x1 PUSH1 0x40 SHL SUB DUP4 GT DUP5 DUP5 LT OR PUSH3 0x163 JUMPI DUP1 DUP5 SWAP3 PUSH1 0x60 SWAP5 PUSH1 0x40 MSTORE DUP4 CODECOPY DUP2 ADD SUB SLT PUSH3 0x15F JUMPI PUSH3 0x4D DUP2 PUSH3 0x177 JUMP JUMPDEST PUSH3 0x69 PUSH1 0x40 PUSH3 0x61 PUSH1 0x20 DUP6 ADD PUSH3 0x177 JUMP JUMPDEST SWAP4 ADD PUSH3 0x177 JUMP JUMPDEST SWAP2 PUSH1 0x1 PUSH32 0x9B779B17422D0DF92223018B32B4D1FA46E071723D6817E2486D003BECC55F00 SSTORE CALLER ISZERO PUSH3 0x147 JUMPI PUSH0 DUP1 SLOAD PUSH2 0x100 PUSH1 0x1 PUSH1 0xA8 SHL SUB NOT DUP2 AND CALLER PUSH1 0x8 DUP2 DUP2 SHL PUSH2 0x100 PUSH1 0x1 PUSH1 0xA8 SHL SUB AND SWAP3 SWAP1 SWAP3 OR DUP5 SSTORE PUSH1 0x40 MLOAD SWAP7 PUSH1 0x1 PUSH1 0x1 PUSH1 0xA0 SHL SUB SWAP6 SWAP1 SWAP5 DUP7 SWAP5 SWAP2 SWAP4 SWAP2 SWAP1 SWAP2 SHR DUP5 AND SWAP1 PUSH32 0x8BE0079C531659141344CD1FD0A4F28419497F9722A3DAAFE3B4186F6B6457E0 SWAP1 DUP1 LOG3 PUSH6 0x5AF3107A4000 PUSH1 0x6 SSTORE PUSH1 0xA PUSH1 0x7 SSTORE PUSH2 0x1F4 PUSH1 0x8 SSTORE PUSH1 0x64 PUSH1 0x9 SSTORE DUP2 PUSH1 0x1 DUP1 PUSH1 0xA0 SHL SUB NOT SWAP6 AND DUP6 PUSH1 0x1 SLOAD AND OR PUSH1 0x1 SSTORE AND DUP4 PUSH1 0x2 SLOAD AND OR PUSH1 0x2 SSTORE AND SWAP1 PUSH1 0x5 SLOAD AND OR PUSH1 0x5 SSTORE PUSH2 0x4BF5 SWAP1 DUP2 PUSH3 0x18D DUP3 CODECOPY RETURN JUMPDEST PUSH1 0x40 MLOAD PUSH4 0x1E4FBDF7 PUSH1 0xE0 SHL DUP2 MSTORE PUSH0 PUSH1 0x4 DUP3 ADD MSTORE PUSH1 0x24 SWAP1 REVERT JUMPDEST PUSH0 DUP1 REVERT JUMPDEST PUSH4 0x4E487B71 PUSH1 0xE0 SHL PUSH0 MSTORE PUSH1 0x41 PUSH1 0x4 MSTORE PUSH1 0x24 PUSH0 REVERT JUMPDEST MLOAD SWAP1 PUSH1 0x1 PUSH1 0x1 PUSH1 0xA0 SHL SUB DUP3 AND DUP3 SUB PUSH3 0x15F JUMPI JUMP INVALID PUSH1 0x80 DUP1 PUSH1 0x40 MSTORE PUSH1 0x4 CALLDATASIZE LT ISZERO PUSH2 0x1C JUMPI JUMPDEST POP CALLDATASIZE ISZERO PUSH2 0x1A JUMPI PUSH0 DUP1 REVERT JUMPDEST STOP JUMPDEST PUSH0 CALLDATALOAD PUSH1 0xE0 SHR SWAP1 DUP2 PUSH4 0xBF429D7 EQ PUSH2 0x3825 JUMPI POP DUP1 PUSH4 0x10D9B8B8 EQ PUSH2 0x3770 JUMPI DUP1 PUSH4 0x1867B480 EQ PUSH2 0x3744 JUMPI DUP1 PUSH4 0x19D07496 EQ PUSH2 0x3727 JUMPI DUP1 PUSH4 0x1C7817CC EQ PUSH2 0x370A JUMPI DUP1 PUSH4 0x2BA996A5 EQ PUSH2 0x3676 JUMPI DUP1 PUSH4 0x2E354C7D EQ PUSH2 0x3642 JUMPI DUP1 PUSH4 0x2F86E2DD EQ PUSH2 0x34D1 JUMPI DUP1 PUSH4 0x31141490 EQ PUSH2 0x3499 JUMPI DUP1 PUSH4 0x35659FB8 EQ PUSH2 0x347C JUMPI DUP1 PUSH4 0x37ACB119 EQ PUSH2 0x3313 JUMPI DUP1 PUSH4 0x407DC308 EQ PUSH2 0x3109 JUMPI DUP1 PUSH4 0x428AD47D EQ PUSH2 0x2A7C JUMPI DUP1 PUSH4 0x43FF1FB8 EQ PUSH2 0x2A39 JUMPI DUP1 PUSH4 0x4BD21445 EQ PUSH2 0x297D JUMPI DUP1 PUSH4 0x4C974221 EQ PUSH2 0x2960 JUMPI DUP1 PUSH4 0x4D92C756 EQ PUSH2 0x2943 JUMPI DUP1 PUSH4 0x55EFB287 EQ PUSH2 0x2927 JUMPI DUP1 PUSH4 0x57431923 EQ PUSH2 0x28FF JUMPI DUP1 PUSH4 0x5A9D1AC3 EQ PUSH2 0x28BD JUMPI DUP1 PUSH4 0x5C975ABB EQ PUSH2 0x289C JUMPI DUP1 PUSH4 0x5D6F9C14 EQ PUSH2 0x2811 JUMPI DUP1 PUSH4 0x5DB3225A EQ PUSH2 0x27F5 JUMPI DUP1 PUSH4 0x5EAFC3A6 EQ PUSH2 0x2516 JUMPI DUP1 PUSH4 0x6268B6E9 EQ PUSH2 0x24E7 JUMPI DUP1 PUSH4 0x6301793D EQ PUSH2 0x24CA JUMPI DUP1 PUSH4 0x66168BD7 EQ PUSH2 0x237E JUMPI DUP1 PUSH4 0x6970BFF8 EQ PUSH2 0x22F4 JUMPI DUP1 PUSH4 0x6A0016D0 EQ PUSH2 0x22B0 JUMPI DUP1 PUSH4 0x6D573090 EQ PUSH2 0x228D JUMPI DUP1 PUSH4 0x715018A6 EQ PUSH2 0x2245 JUMPI DUP1 PUSH4 0x74C13FDA EQ PUSH2 0x221D JUMPI DUP1 PUSH4 0x759F8A1F EQ PUSH2 0x21B6 JUMPI DUP1 PUSH4 0x7ADBF973 EQ PUSH2 0x2173 JUMPI DUP1 PUSH4 0x7CD86D60 EQ PUSH2 0x2130 JUMPI DUP1 PUSH4 0x7DC0D1D0 EQ PUSH2 0x2108 JUMPI DUP1 PUSH4 0x7EBECC13 EQ PUSH2 0x20D0 JUMPI DUP1 PUSH4 0x86B9D81F EQ PUSH2 0x1B47 JUMPI DUP1 PUSH4 0x8AB68FDF EQ PUSH2 0x1B04 JUMPI DUP1 PUSH4 0x8DA5CB5B EQ PUSH2 0x1AD9 JUMPI DUP1 PUSH4 0x8FDE79A8 EQ PUSH2 0x1AAD JUMPI DUP1 PUSH4 0x90F0496C EQ PUSH2 0x1945 JUMPI DUP1 PUSH4 0x91DFACEE EQ PUSH2 0x1916 JUMPI DUP1 PUSH4 0x97B2544F EQ PUSH2 0x18DE JUMPI DUP1 PUSH4 0x983DDE52 EQ PUSH2 0x189B JUMPI DUP1 PUSH4 0x9B45EC97 EQ PUSH2 0x1879 JUMPI DUP1 PUSH4 0xA3E2B495 EQ PUSH2 0x17E6 JUMPI DUP1 PUSH4 0xA5BB2BE6 EQ PUSH2 0x179D JUMPI DUP1 PUSH4 0xA5CDC8FC EQ PUSH2 0x165F JUMPI DUP1 PUSH4 0xAEA1D4D9 EQ PUSH2 0x1627 JUMPI DUP1 PUSH4 0xB1827330 EQ PUSH2 0x1606 JUMPI DUP1 PUSH4 0xB33DC190 EQ PUSH2 0x1553 JUMPI DUP1 PUSH4 0xB959D695 EQ PUSH2 0x135A JUMPI DUP1 PUSH4 0xB99287AE EQ PUSH2 0x12F2 JUMPI DUP1 PUSH4 0xC0417E58 EQ PUSH2 0x12C4 JUMPI DUP1 PUSH4 0xC0B5CE97 EQ PUSH2 0x129C JUMPI DUP1 PUSH4 0xC7219460 EQ PUSH2 0xF8A JUMPI DUP1 PUSH4 0xCC018B7C EQ PUSH2 0xF6D JUMPI DUP1 PUSH4 0xCC0F374E EQ PUSH2 0xF30 JUMPI DUP1 PUSH4 0xD24DDFB7 EQ PUSH2 0xF04 JUMPI DUP1 PUSH4 0xDBA0AE3A EQ PUSH2 0xC8A JUMPI DUP1 PUSH4 0xDD5D02E6 EQ PUSH2 0xA93 JUMPI DUP1 PUSH4 0xE138818C EQ PUSH2 0xA6B JUMPI DUP1 PUSH4 0xE1E32F99 EQ PUSH2 0xA11 JUMPI DUP1 PUSH4 0xE3A892D5 EQ PUSH2 0x9EE JUMPI DUP1 PUSH4 0xE851BC94 EQ PUSH2 0x979 JUMPI DUP1 PUSH4 0xEA0A45F9 EQ PUSH2 0x945 JUMPI DUP1 PUSH4 0xECFCC6DA EQ PUSH2 0x4B6 JUMPI DUP1 PUSH4 0xEFF1D50E EQ PUSH2 0x48E JUMPI DUP1 PUSH4 0xF25B9CAA EQ PUSH2 0x472 JUMPI DUP1 PUSH4 0xF2FDE38B EQ PUSH2 0x3EB JUMPI DUP1 PUSH4 0xF40F2A79 EQ PUSH2 0x3CA JUMPI DUP1 PUSH4 0xF7C628EE EQ PUSH2 0x392 JUMPI PUSH4 0xFF846006 EQ PUSH2 0x356 JUMPI PUSH0 PUSH2 0xF JUMP JUMPDEST CALLVALUE PUSH2 0x38E JUMPI PUSH1 0x20 CALLDATASIZE PUSH1 0x3 NOT ADD SLT PUSH2 0x38E JUMPI PUSH1 0x1 PUSH1 0x1 PUSH1 0xA0 SHL SUB PUSH2 0x377 PUSH2 0x3844 JUMP JUMPDEST AND PUSH0 MSTORE PUSH1 0xB PUSH1 0x20 MSTORE PUSH1 0x20 PUSH1 0x40 PUSH0 KECCAK256 SLOAD PUSH1 0x40 MLOAD SWAP1 DUP2 MSTORE RETURN JUMPDEST PUSH0 DUP1 REVERT JUMPDEST CALLVALUE PUSH2 0x38E JUMPI PUSH1 0x20 CALLDATASIZE PUSH1 0x3 NOT ADD SLT PUSH2 0x38E JUMPI PUSH1 0x1 PUSH1 0x1 PUSH1 0xA0 SHL SUB PUSH2 0x3B3 PUSH2 0x3844 JUMP JUMPDEST AND PUSH0 MSTORE PUSH1 0xE PUSH1 0x20 MSTORE PUSH1 0x20 PUSH1 0x40 PUSH0 KECCAK256 SLOAD PUSH1 0x40 MLOAD SWAP1 DUP2 MSTORE RETURN JUMPDEST CALLVALUE PUSH2 0x38E JUMPI PUSH0 CALLDATASIZE PUSH1 0x3 NOT ADD SLT PUSH2 0x38E JUMPI PUSH1 0x20 PUSH1 0x40 MLOAD PUSH7 0x38D7EA4C68000 DUP2 MSTORE RETURN JUMPDEST CALLVALUE PUSH2 0x38E JUMPI PUSH1 0x20 CALLDATASIZE PUSH1 0x3 NOT ADD SLT PUSH2 0x38E JUMPI PUSH2 0x404 PUSH2 0x3844 JUMP JUMPDEST PUSH2 0x40C PUSH2 0x4539 JUMP JUMPDEST PUSH1 0x1 PUSH1 0x1 PUSH1 0xA0 SHL SUB DUP2 DUP2 AND SWAP2 DUP3 ISZERO PUSH2 0x45A JUMPI PUSH0 DUP1 SLOAD PUSH2 0x100 PUSH1 0x1 PUSH1 0xA8 SHL SUB NOT DUP2 AND PUSH1 0x8 SWAP4 DUP5 SHL PUSH2 0x100 PUSH1 0x1 PUSH1 0xA8 SHL SUB AND OR DUP3 SSTORE SWAP1 SWAP2 SHR SWAP2 SWAP1 SWAP2 AND SWAP1 PUSH0 DUP1 MLOAD PUSH1 0x20 PUSH2 0x4B60 DUP4 CODECOPY DUP2 MLOAD SWAP2 MSTORE SWAP1 DUP1 LOG3 STOP JUMPDEST PUSH1 0x40 MLOAD PUSH4 0x1E4FBDF7 PUSH1 0xE0 SHL DUP2 MSTORE PUSH0 PUSH1 0x4 DUP3 ADD MSTORE PUSH1 0x24 SWAP1 REVERT JUMPDEST CALLVALUE PUSH2 0x38E JUMPI PUSH0 CALLDATASIZE PUSH1 0x3 NOT ADD SLT PUSH2 0x38E JUMPI PUSH1 0x20 PUSH1 0x40 MLOAD PUSH2 0x12C DUP2 MSTORE RETURN JUMPDEST CALLVALUE PUSH2 0x38E JUMPI PUSH0 CALLDATASIZE PUSH1 0x3 NOT ADD SLT PUSH2 0x38E JUMPI PUSH1 0x3 SLOAD PUSH1 0x40 MLOAD PUSH1 0x1 PUSH1 0x1 PUSH1 0xA0 SHL SUB SWAP1 SWAP2 AND DUP2 MSTORE PUSH1 0x20 SWAP1 RETURN JUMPDEST CALLVALUE PUSH2 0x38E JUMPI PUSH1 0x40 CALLDATASIZE PUSH1 0x3 NOT ADD SLT PUSH2 0x38E JUMPI PUSH2 0x4CF PUSH2 0x3844 JUMP JUMPDEST PUSH1 0x24 DUP1 CALLDATALOAD PUSH2 0x4DB PUSH2 0x44ED JUMP JUMPDEST PUSH2 0x4E3 PUSH2 0x451C JUMP JUMPDEST CALLER PUSH0 MSTORE PUSH1 0x20 SWAP2 PUSH1 0xA DUP4 MSTORE PUSH1 0x40 PUSH0 KECCAK256 SWAP4 PUSH1 0x1 DUP1 PUSH1 0xA0 SHL SUB SWAP3 DUP4 DUP3 AND SWAP6 DUP7 PUSH0 MSTORE DUP6 MSTORE PUSH1 0x40 PUSH0 KECCAK256 SWAP4 PUSH2 0x51B PUSH1 0xFF PUSH1 0x4 DUP8 ADD SLOAD PUSH1 0x8 SHR AND PUSH2 0x3980 JUMP JUMPDEST DUP2 ISZERO SWAP5 DUP6 ISZERO SWAP1 DUP2 PUSH2 0x936 JUMPI JUMPDEST POP ISZERO PUSH2 0x8FD JUMPI CALLER PUSH0 MSTORE PUSH1 0xA DUP7 MSTORE PUSH1 0x40 PUSH0 KECCAK256 DUP8 PUSH0 MSTORE DUP7 MSTORE DUP4 PUSH1 0x40 PUSH0 KECCAK256 SWAP3 DUP8 PUSH1 0x4 DUP6 ADD SWAP4 PUSH2 0x559 PUSH1 0xFF DUP7 SLOAD PUSH1 0x8 SHR AND PUSH2 0x3980 JUMP JUMPDEST PUSH2 0x562 DUP8 PUSH2 0x4744 JUMP JUMPDEST PUSH1 0x1 SLOAD AND PUSH1 0x40 MLOAD SWAP8 DUP9 DUP1 SWAP3 PUSH4 0x41976E09 PUSH1 0xE0 SHL DUP3 MSTORE DUP14 PUSH1 0x4 DUP4 ADD MSTORE GAS STATICCALL SWAP6 DUP7 ISZERO PUSH2 0x8F2 JUMPI PUSH0 SWAP7 PUSH2 0x8C3 JUMPI JUMPDEST POP PUSH2 0x599 DUP7 ISZERO ISZERO PUSH2 0x3C59 JUMP JUMPDEST PUSH2 0x5A2 DUP6 PUSH2 0x4591 JUMP JUMPDEST PUSH8 0xDE0B6B3A7640000 DUP1 DUP3 MUL SWAP8 DUP3 DUP10 DIV DUP3 EQ OR ISZERO PUSH2 0x8B0 JUMPI PUSH2 0x5CA PUSH1 0x1 DUP7 ADD SWAP9 DUP10 SLOAD SWAP1 PUSH2 0x3AD3 JUMP JUMPDEST SWAP3 PUSH2 0x5DD DUP9 PUSH2 0x5D8 DUP9 PUSH2 0x3A24 JUMP JUMPDEST PUSH2 0x4961 JUMP JUMPDEST DUP5 DUP2 MUL SWAP2 SWAP1 PUSH0 DUP2 SLT PUSH1 0x1 PUSH1 0xFF SHL DUP8 EQ AND PUSH2 0x89C JUMPI DUP1 DUP4 SDIV DUP7 EQ SWAP1 ISZERO OR ISZERO PUSH2 0x889 JUMPI POP DUP2 PUSH2 0x614 SWAP2 SDIV SWAP7 PUSH2 0x60F DUP8 PUSH2 0x3A24 JUMP JUMPDEST PUSH2 0x4A2A JUMP JUMPDEST PUSH0 DUP2 SGT ISZERO PUSH2 0x824 JUMPI DUP6 SLOAD PUSH2 0x657 SWAP2 SWAP1 DUP1 DUP3 GT PUSH2 0x81C JUMPI JUMPDEST DUP2 PUSH2 0x635 SWAP2 PUSH2 0x3AC6 JUMP JUMPDEST DUP8 SSTORE DUP12 PUSH0 MSTORE PUSH1 0xF DUP12 MSTORE PUSH1 0x40 PUSH0 KECCAK256 PUSH2 0x64D DUP3 DUP3 SLOAD PUSH2 0x39F4 JUMP JUMPDEST SWAP1 SSTORE PUSH1 0x11 SLOAD PUSH2 0x39F4 JUMP JUMPDEST PUSH1 0x11 SSTORE JUMPDEST PUSH2 0x66D PUSH1 0x3 DUP7 ADD SWAP4 TIMESTAMP DUP6 SSTORE DUP7 SLOAD PUSH2 0x3AB3 JUMP JUMPDEST DIV SWAP2 PUSH0 DUP7 SLT PUSH2 0x7F4 JUMPI PUSH2 0x680 DUP7 DUP5 PUSH2 0x39F4 JUMP JUMPDEST SWAP3 JUMPDEST DUP5 SLOAD PUSH1 0xFF AND ISZERO PUSH2 0x7D7 JUMPI DUP11 PUSH0 MSTORE PUSH1 0xB DUP11 MSTORE PUSH1 0x40 PUSH0 KECCAK256 PUSH2 0x6A2 DUP5 DUP3 SLOAD PUSH2 0x3AC6 JUMP JUMPDEST SWAP1 SSTORE JUMPDEST DUP9 SLOAD DUP4 DUP2 SUB PUSH2 0x74B JUMPI POP POP POP POP DUP8 SWAP5 SWAP3 PUSH1 0xFF PUSH0 DUP1 MLOAD PUSH1 0x20 PUSH2 0x4BA0 DUP4 CODECOPY DUP2 MLOAD SWAP2 MSTORE SWAP6 SWAP4 DUP4 PUSH2 0x6F1 SWAP5 ISZERO ISZERO DUP1 PUSH2 0x741 JUMPI JUMPDEST PUSH2 0x722 JUMPI JUMPDEST POP SLOAD AND SWAP1 SLOAD SWAP7 SLOAD SWAP3 PUSH1 0x40 MLOAD SWAP5 DUP6 SWAP5 CALLER SWAP10 TIMESTAMP SWAP5 DUP8 PUSH2 0x4567 JUMP JUMPDEST SUB SWAP1 LOG3 CALLER PUSH0 MSTORE PUSH1 0xA DUP2 MSTORE PUSH1 0x40 PUSH0 KECCAK256 SWAP2 PUSH0 MSTORE MSTORE PUSH2 0x70F PUSH1 0x40 PUSH0 KECCAK256 PUSH2 0x3EF9 JUMP JUMPDEST PUSH1 0x1 PUSH0 DUP1 MLOAD PUSH1 0x20 PUSH2 0x4B80 DUP4 CODECOPY DUP2 MLOAD SWAP2 MSTORE SSTORE STOP JUMPDEST PUSH0 DUP1 DUP1 DUP1 PUSH2 0x73B SWAP5 CALLER GAS CALL PUSH2 0x735 PUSH2 0x3D0A JUMP JUMPDEST POP PUSH2 0x4054 JUMP JUMPDEST DUP12 PUSH2 0x6D9 JUMP JUMPDEST POP SELFBALANCE DUP2 GT ISZERO PUSH2 0x6D4 JUMP JUMPDEST DUP4 SWAP12 SWAP11 POP PUSH2 0x7AC SWAP7 PUSH1 0xFF SWAP6 SWAP4 PUSH2 0x781 PUSH0 SWAP5 PUSH2 0x778 PUSH0 DUP1 MLOAD PUSH1 0x20 PUSH2 0x4B40 DUP4 CODECOPY DUP2 MLOAD SWAP2 MSTORE SWAP15 SWAP11 SWAP9 PUSH1 0x8 SWAP7 PUSH2 0x3AC6 JUMP JUMPDEST DUP11 SSTORE DUP4 SLOAD PUSH2 0x3AC6 JUMP JUMPDEST DUP3 SSTORE TIMESTAMP SWAP1 SSTORE ADD SSTORE DUP1 ISZERO ISZERO DUP1 PUSH2 0x7CD JUMPI JUMPDEST PUSH2 0x7B4 JUMPI JUMPDEST POP SLOAD AND SWAP1 SLOAD SWAP3 PUSH1 0x40 MLOAD SWAP5 DUP6 SWAP5 CALLER SWAP10 TIMESTAMP SWAP5 DUP8 PUSH2 0x4567 JUMP JUMPDEST SUB SWAP1 LOG3 PUSH2 0x70F JUMP JUMPDEST PUSH0 DUP1 DUP1 DUP1 PUSH2 0x7C7 SWAP5 CALLER GAS CALL PUSH2 0x735 PUSH2 0x3D0A JUMP JUMPDEST DUP10 PUSH2 0x796 JUMP JUMPDEST POP SELFBALANCE DUP2 GT ISZERO PUSH2 0x791 JUMP JUMPDEST DUP11 PUSH0 MSTORE PUSH1 0xC DUP11 MSTORE PUSH1 0x40 PUSH0 KECCAK256 PUSH2 0x7ED DUP5 DUP3 SLOAD PUSH2 0x3AC6 JUMP JUMPDEST SWAP1 SSTORE PUSH2 0x6A5 JUMP JUMPDEST PUSH2 0x7FD DUP7 PUSH2 0x3EE9 JUMP JUMPDEST DUP4 DUP2 LT PUSH2 0x80D JUMPI POP PUSH0 JUMPDEST SWAP3 PUSH2 0x682 JUMP JUMPDEST PUSH2 0x817 SWAP1 DUP5 PUSH2 0x3AC6 JUMP JUMPDEST PUSH2 0x807 JUMP JUMPDEST SWAP1 POP DUP1 PUSH2 0x62B JUMP JUMPDEST PUSH0 DUP2 SLT PUSH2 0x832 JUMPI JUMPDEST POP PUSH2 0x65B JUMP JUMPDEST PUSH2 0x83B SWAP1 PUSH2 0x3EE9 JUMP JUMPDEST PUSH2 0x846 DUP2 DUP8 SLOAD PUSH2 0x39F4 JUMP JUMPDEST DUP7 SSTORE DUP11 PUSH0 MSTORE PUSH1 0xF DUP11 MSTORE PUSH1 0x40 PUSH0 KECCAK256 SWAP1 DUP2 SLOAD SWAP2 DUP2 DUP4 LT ISZERO PUSH2 0x867 JUMPI JUMPDEST POP POP PUSH2 0x82C JUMP JUMPDEST PUSH2 0x874 DUP3 PUSH2 0x87E SWAP5 PUSH2 0x3AC6 JUMP JUMPDEST SWAP1 SSTORE PUSH1 0x11 SLOAD PUSH2 0x3AC6 JUMP JUMPDEST PUSH1 0x11 SSTORE DUP11 DUP1 DUP1 PUSH2 0x860 JUMP JUMPDEST PUSH4 0x4E487B71 PUSH1 0xE0 SHL PUSH0 SWAP1 DUP2 MSTORE PUSH1 0x11 PUSH1 0x4 MSTORE REVERT JUMPDEST POP PUSH4 0x4E487B71 PUSH1 0xE0 SHL PUSH0 SWAP1 DUP2 MSTORE PUSH1 0x11 PUSH1 0x4 MSTORE REVERT JUMPDEST DUP3 PUSH4 0x4E487B71 PUSH1 0xE0 SHL PUSH0 MSTORE PUSH1 0x11 PUSH1 0x4 MSTORE PUSH0 REVERT JUMPDEST SWAP1 SWAP6 POP DUP8 DUP2 DUP2 RETURNDATASIZE DUP4 GT PUSH2 0x8EB JUMPI JUMPDEST PUSH2 0x8DB DUP2 DUP4 PUSH2 0x3A01 JUMP JUMPDEST DUP2 ADD SUB SLT PUSH2 0x38E JUMPI MLOAD SWAP5 DUP10 PUSH2 0x58D JUMP JUMPDEST POP RETURNDATASIZE PUSH2 0x8D1 JUMP JUMPDEST PUSH1 0x40 MLOAD RETURNDATASIZE PUSH0 DUP3 RETURNDATACOPY RETURNDATASIZE SWAP1 REVERT JUMPDEST PUSH1 0x40 MLOAD PUSH3 0x461BCD PUSH1 0xE5 SHL DUP2 MSTORE PUSH1 0x4 DUP2 ADD DUP8 SWAP1 MSTORE PUSH1 0x12 DUP2 DUP7 ADD MSTORE PUSH18 0x696E76616C696420636C6F73652073697A65 PUSH1 0x70 SHL PUSH1 0x44 DUP3 ADD MSTORE PUSH1 0x64 SWAP1 REVERT JUMPDEST PUSH1 0x1 SWAP2 POP ADD SLOAD DUP3 GT ISZERO DUP9 PUSH2 0x527 JUMP JUMPDEST CALLVALUE PUSH2 0x38E JUMPI PUSH1 0x40 CALLDATASIZE PUSH1 0x3 NOT ADD SLT PUSH2 0x38E JUMPI PUSH1 0x20 PUSH2 0x971 PUSH2 0x963 PUSH2 0x3844 JUMP JUMPDEST PUSH2 0x96B PUSH2 0x385A JUMP JUMPDEST SWAP1 PUSH2 0x4441 JUMP JUMPDEST PUSH1 0x40 MLOAD SWAP1 DUP2 MSTORE RETURN JUMPDEST CALLVALUE PUSH2 0x38E JUMPI PUSH1 0x20 CALLDATASIZE PUSH1 0x3 NOT ADD SLT PUSH2 0x38E JUMPI PUSH1 0x4 CALLDATALOAD PUSH1 0x17 SLOAD DUP2 LT ISZERO PUSH2 0x38E JUMPI PUSH1 0xA0 SWAP1 PUSH1 0x17 PUSH0 MSTORE PUSH1 0x20 PUSH0 KECCAK256 SWAP1 PUSH1 0x2 SHL ADD PUSH1 0xFF PUSH1 0x1 DUP1 DUP5 SHL SUB SWAP2 DUP3 DUP2 SLOAD AND SWAP3 PUSH1 0x1 DUP3 ADD SLOAD AND SWAP1 PUSH1 0x3 PUSH1 0x2 DUP3 ADD SLOAD SWAP2 ADD SLOAD SWAP2 PUSH1 0x40 MLOAD SWAP5 DUP6 MSTORE PUSH1 0x20 DUP6 ADD MSTORE PUSH1 0x40 DUP5 ADD MSTORE DUP2 DUP2 AND ISZERO ISZERO PUSH1 0x60 DUP5 ADD MSTORE PUSH1 0x8 SHR AND ISZERO ISZERO PUSH1 0x80 DUP3 ADD MSTORE RETURN JUMPDEST CALLVALUE PUSH2 0x38E JUMPI PUSH1 0x20 CALLDATASIZE PUSH1 0x3 NOT ADD SLT PUSH2 0x38E JUMPI PUSH1 0x20 PUSH2 0x971 PUSH2 0xA0C PUSH2 0x3844 JUMP JUMPDEST PUSH2 0x4339 JUMP JUMPDEST CALLVALUE PUSH2 0x38E JUMPI PUSH1 0x20 CALLDATASIZE PUSH1 0x3 NOT ADD SLT PUSH2 0x38E JUMPI PUSH2 0xA2A PUSH2 0x3844 JUMP JUMPDEST PUSH2 0xA32 PUSH2 0x4539 JUMP JUMPDEST PUSH1 0x1 PUSH1 0x1 PUSH1 0xA0 SHL SUB AND PUSH0 DUP2 DUP2 MSTORE PUSH1 0x13 PUSH1 0x20 MSTORE PUSH1 0x40 SWAP1 KECCAK256 SLOAD PUSH2 0xA55 SWAP1 PUSH1 0xFF AND PUSH2 0x3C0F JUMP JUMPDEST PUSH1 0x14 DUP1 SLOAD PUSH1 0x1 PUSH1 0x1 PUSH1 0xA0 SHL SUB NOT AND SWAP2 SWAP1 SWAP2 OR SWAP1 SSTORE STOP JUMPDEST CALLVALUE PUSH2 0x38E JUMPI PUSH0 CALLDATASIZE PUSH1 0x3 NOT ADD SLT PUSH2 0x38E JUMPI PUSH1 0x5 SLOAD PUSH1 0x40 MLOAD PUSH1 0x1 PUSH1 0x1 PUSH1 0xA0 SHL SUB SWAP1 SWAP2 AND DUP2 MSTORE PUSH1 0x20 SWAP1 RETURN JUMPDEST CALLVALUE PUSH2 0x38E JUMPI PUSH1 0x20 CALLDATASIZE PUSH1 0x3 NOT ADD SLT PUSH2 0x38E JUMPI PUSH1 0x1 PUSH1 0x1 PUSH1 0xA0 SHL SUB PUSH2 0xAB4 PUSH2 0x3844 JUMP JUMPDEST AND PUSH0 MSTORE PUSH1 0x16 PUSH1 0x20 MSTORE PUSH1 0x40 PUSH0 KECCAK256 DUP1 SLOAD SWAP1 PUSH2 0xACC DUP3 PUSH2 0x42F3 JUMP JUMPDEST SWAP1 PUSH2 0xAD6 DUP4 PUSH2 0x42DC JUMP JUMPDEST SWAP3 PUSH2 0xAE4 PUSH1 0x40 MLOAD SWAP5 DUP6 PUSH2 0x3A01 JUMP JUMPDEST DUP1 DUP5 MSTORE PUSH1 0x1F NOT PUSH2 0xAF3 DUP3 PUSH2 0x42DC JUMP JUMPDEST ADD CALLDATASIZE PUSH1 0x20 DUP7 ADD CALLDATACOPY PUSH2 0xB03 DUP2 PUSH2 0x42F3 JUMP JUMPDEST PUSH2 0xB0C DUP3 PUSH2 0x42F3 JUMP JUMPDEST PUSH2 0xB15 DUP4 PUSH2 0x42F3 JUMP JUMPDEST SWAP1 PUSH2 0xB1F DUP5 PUSH2 0x42F3 JUMP JUMPDEST SWAP3 PUSH2 0xB29 DUP6 PUSH2 0x42F3 JUMP JUMPDEST SWAP5 PUSH2 0xB33 DUP2 PUSH2 0x42F3 JUMP JUMPDEST SWAP7 PUSH0 JUMPDEST DUP3 DUP2 LT PUSH2 0xBD2 JUMPI POP POP POP PUSH1 0x40 MLOAD SWAP8 DUP9 SWAP8 PUSH2 0x100 DUP1 DUP11 MSTORE DUP10 ADD PUSH2 0xB57 SWAP2 PUSH2 0x3918 JUMP JUMPDEST DUP9 DUP2 SUB PUSH1 0x20 DUP11 ADD MSTORE PUSH2 0xB68 SWAP2 PUSH2 0x3870 JUMP JUMPDEST DUP8 DUP2 SUB PUSH1 0x40 DUP10 ADD MSTORE PUSH2 0xB79 SWAP2 PUSH2 0x394B JUMP JUMPDEST DUP7 DUP2 SUB PUSH1 0x60 DUP9 ADD MSTORE PUSH2 0xB8A SWAP2 PUSH2 0x3918 JUMP JUMPDEST DUP6 DUP2 SUB PUSH1 0x80 DUP8 ADD MSTORE PUSH2 0xB9B SWAP2 PUSH2 0x3918 JUMP JUMPDEST DUP5 DUP2 SUB PUSH1 0xA0 DUP7 ADD MSTORE PUSH2 0xBAC SWAP2 PUSH2 0x3918 JUMP JUMPDEST DUP4 DUP2 SUB PUSH1 0xC0 DUP6 ADD MSTORE PUSH2 0xBBD SWAP2 PUSH2 0x394B JUMP JUMPDEST DUP3 DUP2 SUB PUSH1 0xE0 DUP5 ADD MSTORE PUSH2 0xBCE SWAP2 PUSH2 0x394B JUMP JUMPDEST SUB SWAP1 RETURN JUMPDEST DUP1 DUP12 PUSH1 0x5 DUP13 PUSH2 0xBE3 PUSH1 0x1 SWAP6 DUP8 PUSH2 0x38E7 JUMP JUMPDEST SWAP1 SLOAD PUSH1 0x3 SWAP2 DUP3 SHL SHR PUSH2 0xBFF DUP7 PUSH2 0xBF8 DUP4 PUSH2 0x38FC JUMP JUMPDEST POP SWAP5 PUSH2 0x4325 JUMP JUMPDEST MSTORE DUP6 DUP3 ADD SLOAD SWAP4 PUSH2 0xC17 DUP7 DUP9 DUP1 PUSH1 0xA0 SHL SUB DUP8 AND SWAP3 PUSH2 0x4325 JUMP JUMPDEST MSTORE PUSH1 0xFF SWAP4 DUP5 PUSH2 0xC26 DUP8 DUP13 PUSH2 0x4325 JUMP JUMPDEST SWAP2 PUSH1 0xA0 SHR AND ISZERO ISZERO SWAP1 MSTORE PUSH1 0x2 DUP3 ADD SLOAD PUSH2 0xC3E DUP7 DUP13 PUSH2 0x4325 JUMP JUMPDEST MSTORE DUP2 ADD SLOAD PUSH2 0xC4C DUP6 DUP13 PUSH2 0x4325 JUMP JUMPDEST MSTORE PUSH1 0x4 DUP2 ADD SLOAD PUSH2 0xC5C DUP6 DUP14 PUSH2 0x4325 JUMP JUMPDEST MSTORE ADD SLOAD SWAP1 PUSH2 0xC6A DUP4 DUP13 PUSH2 0x4325 JUMP JUMPDEST DUP2 DUP4 AND ISZERO ISZERO SWAP1 MSTORE PUSH2 0xC7B DUP4 DUP14 PUSH2 0x4325 JUMP JUMPDEST SWAP2 PUSH1 0x8 SHR AND ISZERO ISZERO SWAP1 MSTORE ADD PUSH2 0xB36 JUMP JUMPDEST PUSH1 0x80 CALLDATASIZE PUSH1 0x3 NOT ADD SLT PUSH2 0x38E JUMPI PUSH2 0xC9E PUSH2 0x3844 JUMP JUMPDEST PUSH2 0xCA6 PUSH2 0x38AC JUMP JUMPDEST PUSH1 0x44 CALLDATALOAD SWAP2 PUSH1 0x64 CALLDATALOAD PUSH2 0xCB5 PUSH2 0x44ED JUMP JUMPDEST PUSH2 0xCBD PUSH2 0x451C JUMP JUMPDEST PUSH8 0xDE0B6B3A7640000 SWAP2 DUP3 DUP3 LT ISZERO DUP1 PUSH2 0xEF2 JUMPI JUMPDEST PUSH2 0xCDA SWAP1 PUSH2 0x3D8D JUMP JUMPDEST PUSH2 0xCE6 DUP6 CALLVALUE LT ISZERO PUSH2 0x3DCC JUMP JUMPDEST PUSH2 0xCF1 DUP6 ISZERO ISZERO PUSH2 0x39BA JUMP JUMPDEST PUSH1 0x1 DUP1 PUSH1 0xA0 SHL SUB SWAP4 DUP5 DUP3 AND SWAP5 DUP6 PUSH0 MSTORE PUSH1 0x20 PUSH1 0x13 DUP2 MSTORE PUSH2 0xD16 PUSH1 0xFF PUSH1 0x40 PUSH0 KECCAK256 SLOAD AND PUSH2 0x3E0E JUMP JUMPDEST CALLER PUSH0 MSTORE PUSH1 0xA DUP2 MSTORE PUSH1 0x40 PUSH0 KECCAK256 DUP8 PUSH0 MSTORE DUP2 MSTORE PUSH1 0x40 PUSH0 KECCAK256 PUSH1 0x4 DUP2 ADD SWAP7 PUSH2 0xD40 PUSH1 0xFF DUP10 SLOAD PUSH1 0x8 SHR AND ISZERO PUSH2 0x3E56 JUMP JUMPDEST DUP4 PUSH1 0x1 SLOAD AND SWAP7 DUP4 DUP11 PUSH1 0x24 PUSH1 0x40 MLOAD DUP1 SWAP12 DUP2 SWAP4 PUSH4 0x41976E09 PUSH1 0xE0 SHL DUP4 MSTORE PUSH1 0x4 DUP4 ADD MSTORE GAS STATICCALL SWAP8 DUP9 ISZERO PUSH2 0x8F2 JUMPI DUP12 SWAP1 PUSH0 SWAP10 PUSH2 0xEB0 JUMPI JUMPDEST POP SWAP9 PUSH2 0xDB4 PUSH1 0x7 SWAP4 PUSH2 0xDAD PUSH2 0xE4C SWAP10 SWAP9 SWAP8 SWAP7 SWAP5 PUSH0 DUP1 MLOAD PUSH1 0x20 PUSH2 0x4B20 DUP4 CODECOPY DUP2 MLOAD SWAP2 MSTORE SWAP14 PUSH2 0xD9F DUP15 ISZERO ISZERO PUSH2 0x3C59 JUMP JUMPDEST PUSH2 0xDA8 DUP14 PUSH2 0x4591 JUMP JUMPDEST PUSH2 0x3AB3 JUMP JUMPDEST DIV SWAP9 PUSH2 0x4744 JUMP JUMPDEST DUP12 DUP3 SSTORE DUP8 PUSH1 0x1 DUP4 ADD SSTORE DUP9 PUSH1 0x2 DUP4 ADD SSTORE TIMESTAMP PUSH1 0x3 DUP4 ADD SSTORE PUSH2 0xDD3 DUP7 DUP3 PUSH2 0x3C48 JUMP JUMPDEST DUP1 SLOAD PUSH2 0xFF00 NOT AND PUSH2 0x100 OR SWAP1 SSTORE PUSH0 PUSH1 0x8 DUP3 ADD DUP2 SWAP1 SSTORE PUSH1 0x5 DUP3 ADD DUP2 SWAP1 SSTORE PUSH1 0x6 DUP3 ADD SSTORE ADD DUP1 SLOAD PUSH1 0xFF NOT AND SWAP1 SSTORE DUP3 ISZERO PUSH2 0xE93 JUMPI PUSH1 0xB SWAP1 DUP9 PUSH0 MSTORE MSTORE PUSH1 0x40 PUSH0 KECCAK256 PUSH2 0xE19 DUP6 DUP3 SLOAD PUSH2 0x39F4 JUMP JUMPDEST SWAP1 SSTORE JUMPDEST PUSH2 0x2710 PUSH2 0xE2B PUSH1 0x7 SLOAD DUP11 PUSH2 0x3AB3 JUMP JUMPDEST DIV DUP1 ISZERO ISZERO DUP1 PUSH2 0xE86 JUMPI JUMPDEST PUSH2 0xE62 JUMPI JUMPDEST POP POP PUSH1 0x40 MLOAD SWAP4 DUP5 SWAP4 CALLER SWAP9 TIMESTAMP SWAP4 DUP7 PUSH2 0x4114 JUMP JUMPDEST SUB SWAP1 LOG3 PUSH1 0x1 PUSH0 DUP1 MLOAD PUSH1 0x20 PUSH2 0x4B80 DUP4 CODECOPY DUP2 MLOAD SWAP2 MSTORE SSTORE STOP JUMPDEST PUSH0 DUP1 DUP1 DUP1 SWAP4 PUSH2 0xE7F SWAP6 PUSH1 0x2 SLOAD AND GAS CALL PUSH2 0xE79 PUSH2 0x3D0A JUMP JUMPDEST POP PUSH2 0x40D2 JUMP JUMPDEST DUP8 DUP1 PUSH2 0xE3A JUMP JUMPDEST POP DUP2 PUSH1 0x2 SLOAD AND ISZERO ISZERO PUSH2 0xE35 JUMP JUMPDEST PUSH1 0xC SWAP1 DUP9 PUSH0 MSTORE MSTORE PUSH1 0x40 PUSH0 KECCAK256 PUSH2 0xEA9 DUP6 DUP3 SLOAD PUSH2 0x39F4 JUMP JUMPDEST SWAP1 SSTORE PUSH2 0xE1C JUMP JUMPDEST DUP6 DUP1 SWAP6 SWAP4 SWAP11 POP DUP2 SWAP5 SWAP9 SWAP8 SWAP7 SWAP3 POP RETURNDATASIZE DUP4 GT PUSH2 0xEEB JUMPI JUMPDEST PUSH2 0xECF DUP2 DUP4 PUSH2 0x3A01 JUMP JUMPDEST DUP2 ADD SUB SLT PUSH2 0x38E JUMPI SWAP1 MLOAD SWAP7 SWAP4 SWAP5 SWAP3 SWAP4 SWAP2 SWAP3 SWAP1 SWAP2 DUP11 PUSH2 0xDB4 PUSH2 0xD72 JUMP JUMPDEST POP RETURNDATASIZE PUSH2 0xEC5 JUMP JUMPDEST POP PUSH8 0x8AC7230489E80000 DUP3 GT ISZERO PUSH2 0xCD1 JUMP JUMPDEST CALLVALUE PUSH2 0x38E JUMPI PUSH1 0x40 CALLDATASIZE PUSH1 0x3 NOT ADD SLT PUSH2 0x38E JUMPI PUSH1 0x20 PUSH2 0x971 PUSH2 0xF22 PUSH2 0x3844 JUMP JUMPDEST PUSH2 0xF2A PUSH2 0x385A JUMP JUMPDEST SWAP1 PUSH2 0x413A JUMP JUMPDEST CALLVALUE PUSH2 0x38E JUMPI PUSH1 0x20 CALLDATASIZE PUSH1 0x3 NOT ADD SLT PUSH2 0x38E JUMPI PUSH1 0x1 PUSH1 0x1 PUSH1 0xA0 SHL SUB PUSH2 0xF51 PUSH2 0x3844 JUMP JUMPDEST AND PUSH0 MSTORE PUSH1 0x13 PUSH1 0x20 MSTORE PUSH1 0x20 PUSH1 0xFF PUSH1 0x40 PUSH0 KECCAK256 SLOAD AND PUSH1 0x40 MLOAD SWAP1 ISZERO ISZERO DUP2 MSTORE RETURN JUMPDEST CALLVALUE PUSH2 0x38E JUMPI PUSH0 CALLDATASIZE PUSH1 0x3 NOT ADD SLT PUSH2 0x38E JUMPI PUSH1 0x20 PUSH1 0x6 SLOAD PUSH1 0x40 MLOAD SWAP1 DUP2 MSTORE RETURN JUMPDEST CALLVALUE PUSH2 0x38E JUMPI PUSH1 0x20 DUP1 PUSH1 0x3 NOT CALLDATASIZE ADD SLT PUSH2 0x38E JUMPI PUSH1 0x4 CALLDATALOAD PUSH2 0xFA7 PUSH2 0x44ED JUMP JUMPDEST PUSH2 0xFAF PUSH2 0x451C JUMP JUMPDEST PUSH2 0xFBC PUSH1 0x15 SLOAD DUP3 LT PUSH2 0x3FD9 JUMP JUMPDEST PUSH2 0xFC5 DUP2 PUSH2 0x38FC JUMP JUMPDEST POP SWAP1 PUSH1 0x5 DUP3 ADD SWAP3 DUP4 SLOAD SWAP1 PUSH1 0xFF SWAP3 PUSH2 0xFE0 DUP5 DUP5 PUSH1 0x8 SHR AND PUSH2 0x4015 JUMP JUMPDEST PUSH1 0x1 DUP1 PUSH1 0xA0 SHL SUB SWAP3 PUSH1 0x24 DUP5 PUSH1 0x1 SLOAD AND SWAP4 PUSH1 0x1 DUP9 ADD SWAP1 DUP1 DUP8 DUP4 SLOAD AND SWAP7 PUSH1 0x40 MLOAD SWAP5 DUP6 DUP1 SWAP3 PUSH4 0x41976E09 PUSH1 0xE0 SHL DUP3 MSTORE DUP11 PUSH1 0x4 DUP4 ADD MSTORE GAS STATICCALL SWAP3 DUP4 ISZERO PUSH2 0x8F2 JUMPI PUSH0 SWAP4 PUSH2 0x126D JUMPI JUMPDEST POP PUSH2 0x102E DUP4 ISZERO ISZERO PUSH2 0x3C59 JUMP JUMPDEST PUSH2 0x1037 DUP7 PUSH2 0x4591 JUMP JUMPDEST DUP4 DUP9 AND ISZERO PUSH2 0x1258 JUMPI PUSH2 0x104F PUSH1 0x4 DUP11 ADD SLOAD DUP5 LT ISZERO PUSH2 0x4092 JUMP JUMPDEST DUP7 DUP10 SLOAD AND PUSH0 MSTORE PUSH1 0xA DUP2 MSTORE PUSH1 0x40 PUSH0 KECCAK256 DUP7 PUSH0 MSTORE DUP2 MSTORE PUSH1 0x40 PUSH0 KECCAK256 PUSH1 0x4 DUP2 ADD DUP10 DUP2 SLOAD PUSH1 0x8 SHR AND PUSH2 0x121F JUMPI DUP9 SWAP10 SWAP11 SWAP12 PUSH2 0xFF00 SWAP10 SWAP9 SWAP10 NOT DUP1 SWAP8 AND SWAP1 SSTORE PUSH1 0x2 DUP13 ADD SWAP6 DUP13 DUP8 SLOAD SWAP1 PUSH1 0x3 ADD SLOAD PUSH2 0x109B SWAP2 PUSH2 0x3AB3 JUMP JUMPDEST PUSH8 0xDE0B6B3A7640000 SWAP1 DIV SWAP10 PUSH2 0x10B0 SWAP1 PUSH2 0x4744 JUMP JUMPDEST DUP7 SLOAD DUP4 SSTORE DUP10 PUSH1 0x1 DUP5 ADD SSTORE DUP6 PUSH1 0x2 DUP5 ADD SSTORE TIMESTAMP PUSH1 0x3 DUP5 ADD SSTORE DUP12 DUP6 SLOAD PUSH1 0xA0 SHR AND PUSH2 0x10D7 SWAP1 DUP4 PUSH2 0x3C48 JUMP JUMPDEST DUP2 SLOAD AND PUSH2 0x100 OR SWAP1 SSTORE PUSH1 0x8 ADD PUSH0 SWAP1 SSTORE DUP2 SLOAD SWAP5 DUP7 DUP11 DUP8 PUSH1 0xA0 SHR AND PUSH0 EQ SWAP12 PUSH0 DUP1 MLOAD PUSH1 0x20 PUSH2 0x4B20 DUP4 CODECOPY DUP2 MLOAD SWAP2 MSTORE SWAP11 PUSH2 0xE4C SWAP9 PUSH32 0x431EBE7F2929904A285C3050AB2A96CA5B4533EE5206A3B661CDE6DD6D141D56 SWAP15 PUSH2 0x1202 JUMPI POP DUP6 SLOAD AND PUSH0 MSTORE PUSH1 0xB DUP5 MSTORE PUSH1 0x40 PUSH0 KECCAK256 PUSH2 0x1145 DUP12 DUP3 SLOAD PUSH2 0x39F4 JUMP JUMPDEST SWAP1 SSTORE JUMPDEST PUSH2 0x115C DUP8 SLOAD PUSH2 0x2710 SWAP2 DUP3 SWAP2 PUSH1 0x7 SLOAD SWAP1 PUSH2 0x3AB3 JUMP JUMPDEST DIV DUP1 ISZERO ISZERO DUP1 PUSH2 0x11F5 JUMPI JUMPDEST PUSH2 0x11D8 JUMPI JUMPDEST POP PUSH2 0x117A DUP9 SLOAD PUSH1 0x9 SLOAD SWAP1 PUSH2 0x3AB3 JUMP JUMPDEST DIV DUP1 ISZERO ISZERO DUP1 PUSH2 0x11CE JUMPI JUMPDEST PUSH2 0x11AF JUMPI JUMPDEST POP SLOAD AND SWAP11 DUP12 SWAP3 PUSH1 0x40 MLOAD DUP7 DUP2 MSTORE LOG3 SLOAD SWAP2 SLOAD SWAP5 PUSH1 0x40 MLOAD SWAP6 DUP7 SWAP6 DUP5 AND SWAP9 TIMESTAMP SWAP5 PUSH1 0xA0 SHR AND DUP7 PUSH2 0x4114 JUMP JUMPDEST PUSH0 DUP1 DUP1 DUP1 PUSH2 0x11C8 SWAP5 CALLER GAS CALL PUSH2 0x11C2 PUSH2 0x3D0A JUMP JUMPDEST POP PUSH2 0x3D48 JUMP JUMPDEST DUP14 PUSH2 0x1189 JUMP JUMPDEST POP SELFBALANCE DUP2 GT ISZERO PUSH2 0x1184 JUMP JUMPDEST PUSH0 DUP1 DUP1 DUP1 PUSH2 0x11EF SWAP5 DUP9 PUSH1 0x2 SLOAD AND GAS CALL PUSH2 0xE79 PUSH2 0x3D0A JUMP JUMPDEST DUP15 PUSH2 0x116B JUMP JUMPDEST POP DUP4 PUSH1 0x2 SLOAD AND ISZERO ISZERO PUSH2 0x1166 JUMP JUMPDEST AND PUSH0 MSTORE PUSH1 0xC DUP5 MSTORE PUSH1 0x40 PUSH0 KECCAK256 PUSH2 0x1218 DUP12 DUP3 SLOAD PUSH2 0x39F4 JUMP JUMPDEST SWAP1 SSTORE PUSH2 0x1148 JUMP JUMPDEST PUSH1 0x40 MLOAD PUSH3 0x461BCD PUSH1 0xE5 SHL DUP2 MSTORE PUSH1 0x4 DUP2 ADD DUP5 SWAP1 MSTORE PUSH1 0x11 PUSH1 0x24 DUP3 ADD MSTORE PUSH17 0x3AB9B2B9103430B9903837B9B4BA34B7B7 PUSH1 0x79 SHL PUSH1 0x44 DUP3 ADD MSTORE PUSH1 0x64 SWAP1 REVERT JUMPDEST PUSH2 0x1268 PUSH1 0x4 DUP11 ADD SLOAD DUP5 GT ISZERO PUSH2 0x4092 JUMP JUMPDEST PUSH2 0x104F JUMP JUMPDEST SWAP1 DUP1 SWAP4 POP DUP2 DUP2 RETURNDATASIZE DUP4 GT PUSH2 0x1295 JUMPI JUMPDEST PUSH2 0x1285 DUP2 DUP4 PUSH2 0x3A01 JUMP JUMPDEST DUP2 ADD SUB SLT PUSH2 0x38E JUMPI MLOAD SWAP2 DUP11 PUSH2 0x1022 JUMP JUMPDEST POP RETURNDATASIZE PUSH2 0x127B JUMP JUMPDEST CALLVALUE PUSH2 0x38E JUMPI PUSH0 CALLDATASIZE PUSH1 0x3 NOT ADD SLT PUSH2 0x38E JUMPI PUSH1 0x4 SLOAD PUSH1 0x40 MLOAD PUSH1 0x1 PUSH1 0x1 PUSH1 0xA0 SHL SUB SWAP1 SWAP2 AND DUP2 MSTORE PUSH1 0x20 SWAP1 RETURN JUMPDEST CALLVALUE PUSH2 0x38E JUMPI PUSH1 0x20 CALLDATASIZE PUSH1 0x3 NOT ADD SLT PUSH2 0x38E JUMPI PUSH1 0x4 CALLDATALOAD PUSH2 0x12E0 PUSH2 0x4539 JUMP JUMPDEST PUSH2 0x12ED PUSH1 0x64 DUP3 GT ISZERO PUSH2 0x3BD8 JUMP JUMPDEST PUSH1 0x7 SSTORE STOP JUMPDEST CALLVALUE PUSH2 0x38E JUMPI PUSH1 0x60 CALLDATASIZE PUSH1 0x3 NOT ADD SLT PUSH2 0x38E JUMPI PUSH2 0x130B PUSH2 0x3844 JUMP JUMPDEST PUSH2 0x1313 PUSH2 0x385A JUMP JUMPDEST PUSH1 0x44 CALLDATALOAD SWAP2 PUSH1 0x1 DUP1 PUSH1 0xA0 SHL SUB DUP1 SWAP2 AND PUSH0 MSTORE PUSH1 0x18 PUSH1 0x20 MSTORE PUSH1 0x40 PUSH0 KECCAK256 SWAP2 AND PUSH0 MSTORE PUSH1 0x20 MSTORE PUSH1 0x40 PUSH0 KECCAK256 DUP1 SLOAD DUP3 LT ISZERO PUSH2 0x38E JUMPI PUSH1 0x20 SWAP2 PUSH2 0x134C SWAP2 PUSH2 0x38E7 JUMP JUMPDEST SWAP1 SLOAD PUSH1 0x40 MLOAD SWAP2 PUSH1 0x3 SHL SHR DUP2 MSTORE RETURN JUMPDEST CALLVALUE PUSH2 0x38E JUMPI PUSH1 0x40 CALLDATASIZE PUSH1 0x3 NOT ADD SLT PUSH2 0x38E JUMPI PUSH2 0x1373 PUSH2 0x3844 JUMP JUMPDEST PUSH1 0x24 CALLDATALOAD PUSH2 0x137E PUSH2 0x44ED JUMP JUMPDEST PUSH2 0x1386 PUSH2 0x451C JUMP JUMPDEST CALLER PUSH0 MSTORE PUSH1 0x20 PUSH1 0xA DUP2 MSTORE PUSH1 0x40 PUSH0 KECCAK256 SWAP3 PUSH1 0x1 DUP1 PUSH1 0xA0 SHL SUB DUP1 SWAP2 AND SWAP4 DUP5 PUSH0 MSTORE DUP3 MSTORE PUSH1 0x40 PUSH0 KECCAK256 SWAP1 PUSH1 0x4 DUP3 ADD SLOAD SWAP1 PUSH2 0x13BE PUSH1 0xFF DUP4 PUSH1 0x8 SHR AND PUSH2 0x3980 JUMP JUMPDEST DUP5 ISZERO ISZERO DUP1 PUSH2 0x1549 JUMPI JUMPDEST ISZERO PUSH2 0x1513 JUMPI DUP4 PUSH1 0x24 SWAP2 PUSH1 0x1 SLOAD AND PUSH1 0x40 MLOAD SWAP3 DUP4 DUP1 SWAP3 PUSH4 0x41976E09 PUSH1 0xE0 SHL DUP3 MSTORE DUP11 PUSH1 0x4 DUP4 ADD MSTORE GAS STATICCALL SWAP1 DUP2 ISZERO PUSH2 0x8F2 JUMPI PUSH0 SWAP2 PUSH2 0x14E4 JUMPI JUMPDEST POP PUSH2 0x1436 DUP2 PUSH2 0x1414 PUSH8 0x11C37937E080000 SWAP4 ISZERO ISZERO PUSH2 0x3C59 JUMP JUMPDEST PUSH2 0x141F DUP8 DUP7 SLOAD PUSH2 0x3AC6 JUMP JUMPDEST SWAP4 PUSH1 0x1 DUP7 ADD SLOAD SWAP2 DUP6 PUSH1 0xFF PUSH1 0x2 DUP10 ADD SLOAD SWAP4 AND SWAP4 PUSH2 0x4A03 JUMP JUMPDEST LT PUSH2 0x1494 JUMPI DUP2 SSTORE PUSH2 0x1450 PUSH0 DUP1 DUP1 DUP1 DUP8 CALLER GAS CALL PUSH2 0x735 PUSH2 0x3D0A JUMP JUMPDEST SLOAD SWAP1 PUSH1 0x40 MLOAD SWAP3 DUP4 MSTORE DUP3 ADD MSTORE PUSH32 0x33A6A7BEFB7E6C5E685340C90629413ED5A124B429160F8F02F4D818AE7EFBBD PUSH1 0x40 CALLER SWAP3 LOG3 PUSH1 0x1 PUSH0 DUP1 MLOAD PUSH1 0x20 PUSH2 0x4B80 DUP4 CODECOPY DUP2 MLOAD SWAP2 MSTORE SSTORE STOP JUMPDEST PUSH1 0x40 MLOAD PUSH3 0x461BCD PUSH1 0xE5 SHL DUP2 MSTORE PUSH1 0x4 DUP2 ADD DUP5 SWAP1 MSTORE PUSH1 0x22 PUSH1 0x24 DUP3 ADD MSTORE PUSH32 0x6D617267696E20726174696F20746F6F206C6F772061667465722072656D6F76 PUSH1 0x44 DUP3 ADD MSTORE PUSH2 0x185B PUSH1 0xF2 SHL PUSH1 0x64 DUP3 ADD MSTORE PUSH1 0x84 SWAP1 REVERT JUMPDEST SWAP1 POP DUP4 DUP2 DUP2 RETURNDATASIZE DUP4 GT PUSH2 0x150C JUMPI JUMPDEST PUSH2 0x14FB DUP2 DUP4 PUSH2 0x3A01 JUMP JUMPDEST DUP2 ADD SUB SLT PUSH2 0x38E JUMPI MLOAD PUSH2 0x1436 PUSH2 0x13FB JUMP JUMPDEST POP RETURNDATASIZE PUSH2 0x14F1 JUMP JUMPDEST PUSH1 0x40 MLOAD PUSH3 0x461BCD PUSH1 0xE5 SHL DUP2 MSTORE PUSH1 0x4 DUP2 ADD DUP6 SWAP1 MSTORE PUSH1 0xE PUSH1 0x24 DUP3 ADD MSTORE PUSH14 0x1A5B9D985B1A5908185B5BDD5B9D PUSH1 0x92 SHL PUSH1 0x44 DUP3 ADD MSTORE PUSH1 0x64 SWAP1 REVERT JUMPDEST POP DUP3 SLOAD DUP6 LT PUSH2 0x13C7 JUMP JUMPDEST CALLVALUE PUSH2 0x38E JUMPI PUSH1 0x40 CALLDATASIZE PUSH1 0x3 NOT ADD SLT PUSH2 0x38E JUMPI PUSH2 0x156C PUSH2 0x3844 JUMP JUMPDEST PUSH2 0x1574 PUSH2 0x385A JUMP JUMPDEST SWAP1 PUSH1 0x1 DUP1 PUSH1 0xA0 SHL SUB DUP1 SWAP2 AND PUSH0 MSTORE PUSH1 0xA PUSH1 0x20 MSTORE PUSH1 0x40 PUSH0 KECCAK256 SWAP2 AND PUSH0 MSTORE PUSH1 0x20 MSTORE PUSH2 0x120 PUSH2 0x15A0 PUSH1 0x40 PUSH0 KECCAK256 PUSH2 0x3A24 JUMP JUMPDEST DUP1 MLOAD SWAP1 PUSH1 0x20 DUP2 ADD MLOAD SWAP1 PUSH1 0x40 DUP2 ADD MLOAD PUSH1 0x60 DUP3 ADD MLOAD PUSH1 0x80 DUP4 ADD MLOAD ISZERO ISZERO PUSH1 0xA0 DUP5 ADD MLOAD ISZERO ISZERO SWAP1 PUSH1 0xC0 DUP6 ADD MLOAD SWAP3 PUSH1 0xE0 DUP7 ADD MLOAD SWAP5 PUSH2 0x100 DUP1 SWAP8 ADD MLOAD ISZERO ISZERO SWAP8 PUSH1 0x40 MLOAD SWAP10 DUP11 MSTORE PUSH1 0x20 DUP11 ADD MSTORE PUSH1 0x40 DUP10 ADD MSTORE PUSH1 0x60 DUP9 ADD MSTORE PUSH1 0x80 DUP8 ADD MSTORE PUSH1 0xA0 DUP7 ADD MSTORE PUSH1 0xC0 DUP6 ADD MSTORE PUSH1 0xE0 DUP5 ADD MSTORE DUP3 ADD MSTORE RETURN JUMPDEST CALLVALUE PUSH2 0x38E JUMPI PUSH0 CALLDATASIZE PUSH1 0x3 NOT ADD SLT PUSH2 0x38E JUMPI PUSH1 0x20 PUSH1 0x40 MLOAD PUSH7 0xB1A2BC2EC50000 DUP2 MSTORE RETURN JUMPDEST CALLVALUE PUSH2 0x38E JUMPI PUSH1 0x20 CALLDATASIZE PUSH1 0x3 NOT ADD SLT PUSH2 0x38E JUMPI PUSH1 0x1 PUSH1 0x1 PUSH1 0xA0 SHL SUB PUSH2 0x1648 PUSH2 0x3844 JUMP JUMPDEST AND PUSH0 MSTORE PUSH1 0xF PUSH1 0x20 MSTORE PUSH1 0x20 PUSH1 0x40 PUSH0 KECCAK256 SLOAD PUSH1 0x40 MLOAD SWAP1 DUP2 MSTORE RETURN JUMPDEST CALLVALUE PUSH2 0x38E JUMPI PUSH1 0x20 CALLDATASIZE PUSH1 0x3 NOT ADD SLT PUSH2 0x38E JUMPI PUSH1 0x4 CALLDATALOAD PUSH2 0x167B PUSH2 0x44ED JUMP JUMPDEST PUSH2 0x1688 PUSH1 0x15 SLOAD DUP3 LT PUSH2 0x3FD9 JUMP JUMPDEST PUSH2 0x1691 DUP2 PUSH2 0x38FC JUMP JUMPDEST POP DUP1 SLOAD PUSH1 0x1 PUSH1 0x1 PUSH1 0xA0 SHL SUB AND CALLER SUB PUSH2 0x1767 JUMPI DUP1 PUSH1 0x5 PUSH1 0x2 SWAP3 ADD DUP1 SLOAD PUSH2 0x16BB PUSH1 0xFF DUP3 PUSH1 0x8 SHR AND PUSH2 0x4015 JUMP JUMPDEST PUSH2 0xFF00 NOT AND SWAP1 SSTORE ADD SLOAD DUP1 ISZERO ISZERO DUP1 PUSH2 0x175D JUMPI JUMPDEST PUSH2 0x170C JUMPI JUMPDEST POP CALLER SWAP1 PUSH32 0x34CF495316DBB07C8286E6C6B35542A47854AAF8050F2DD51AB0347B85558297 PUSH0 DUP1 LOG3 PUSH1 0x1 PUSH0 DUP1 MLOAD PUSH1 0x20 PUSH2 0x4B80 DUP4 CODECOPY DUP2 MLOAD SWAP2 MSTORE SSTORE STOP JUMPDEST PUSH0 DUP1 DUP1 DUP1 SWAP4 CALLER GAS CALL PUSH2 0x171C PUSH2 0x3D0A JUMP JUMPDEST POP ISZERO PUSH2 0x1728 JUMPI DUP2 PUSH2 0x16D2 JUMP JUMPDEST PUSH1 0x40 MLOAD PUSH3 0x461BCD PUSH1 0xE5 SHL DUP2 MSTORE PUSH1 0x20 PUSH1 0x4 DUP3 ADD MSTORE PUSH1 0xD PUSH1 0x24 DUP3 ADD MSTORE PUSH13 0x1C99599D5B990819985A5B1959 PUSH1 0x9A SHL PUSH1 0x44 DUP3 ADD MSTORE PUSH1 0x64 SWAP1 REVERT JUMPDEST POP SELFBALANCE DUP2 GT ISZERO PUSH2 0x16CD JUMP JUMPDEST PUSH1 0x40 MLOAD PUSH3 0x461BCD PUSH1 0xE5 SHL DUP2 MSTORE PUSH1 0x20 PUSH1 0x4 DUP3 ADD MSTORE PUSH1 0xE PUSH1 0x24 DUP3 ADD MSTORE PUSH14 0x3737BA103CB7BAB91037B93232B9 PUSH1 0x91 SHL PUSH1 0x44 DUP3 ADD MSTORE PUSH1 0x64 SWAP1 REVERT JUMPDEST CALLVALUE PUSH2 0x38E JUMPI PUSH1 0x40 CALLDATASIZE PUSH1 0x3 NOT ADD SLT PUSH2 0x38E JUMPI PUSH2 0x17B6 PUSH2 0x3844 JUMP JUMPDEST PUSH1 0x1 PUSH1 0x1 PUSH1 0xA0 SHL SUB AND PUSH0 SWAP1 DUP2 MSTORE PUSH1 0x16 PUSH1 0x20 MSTORE PUSH1 0x40 SWAP1 KECCAK256 DUP1 SLOAD PUSH1 0x24 CALLDATALOAD SWAP2 SWAP1 DUP3 LT ISZERO PUSH2 0x38E JUMPI PUSH1 0x20 SWAP2 PUSH2 0x134C SWAP2 PUSH2 0x38E7 JUMP JUMPDEST CALLVALUE PUSH2 0x38E JUMPI PUSH1 0x20 CALLDATASIZE PUSH1 0x3 NOT ADD SLT PUSH2 0x38E JUMPI PUSH1 0x4 CALLDATALOAD PUSH1 0x15 SLOAD DUP2 LT ISZERO PUSH2 0x38E JUMPI PUSH2 0x1810 PUSH2 0x100 SWAP2 PUSH2 0x38FC JUMP JUMPDEST POP PUSH1 0xFF PUSH1 0x1 DUP1 PUSH1 0xA0 SHL SUB DUP1 DUP4 SLOAD AND SWAP3 PUSH1 0x1 DUP2 ADD SLOAD PUSH1 0x2 DUP3 ADD SLOAD DUP5 PUSH1 0x3 DUP5 ADD SLOAD SWAP3 PUSH1 0x5 PUSH1 0x4 DUP7 ADD SLOAD SWAP6 ADD SLOAD SWAP6 PUSH1 0x40 MLOAD SWAP9 DUP10 MSTORE DUP2 AND PUSH1 0x20 DUP10 ADD MSTORE PUSH1 0xA0 SHR AND ISZERO ISZERO PUSH1 0x40 DUP8 ADD MSTORE PUSH1 0x60 DUP7 ADD MSTORE PUSH1 0x80 DUP6 ADD MSTORE PUSH1 0xA0 DUP5 ADD MSTORE DUP2 DUP2 AND ISZERO ISZERO PUSH1 0xC0 DUP5 ADD MSTORE PUSH1 0x8 SHR AND ISZERO ISZERO PUSH1 0xE0 DUP3 ADD MSTORE RETURN JUMPDEST CALLVALUE PUSH2 0x38E JUMPI PUSH0 CALLDATASIZE PUSH1 0x3 NOT ADD SLT PUSH2 0x38E JUMPI PUSH1 0x20 PUSH1 0x40 MLOAD PUSH8 0x8AC7230489E80000 DUP2 MSTORE RETURN JUMPDEST CALLVALUE PUSH2 0x38E JUMPI PUSH1 0x20 CALLDATASIZE PUSH1 0x3 NOT ADD SLT PUSH2 0x38E JUMPI PUSH2 0x18B4 PUSH2 0x3844 JUMP JUMPDEST PUSH2 0x18BC PUSH2 0x4539 JUMP JUMPDEST PUSH1 0x2 DUP1 SLOAD PUSH1 0x1 PUSH1 0x1 PUSH1 0xA0 SHL SUB NOT AND PUSH1 0x1 PUSH1 0x1 PUSH1 0xA0 SHL SUB SWAP3 SWAP1 SWAP3 AND SWAP2 SWAP1 SWAP2 OR SWAP1 SSTORE STOP JUMPDEST CALLVALUE PUSH2 0x38E JUMPI PUSH1 0x20 CALLDATASIZE PUSH1 0x3 NOT ADD SLT PUSH2 0x38E JUMPI PUSH1 0x1 PUSH1 0x1 PUSH1 0xA0 SHL SUB PUSH2 0x18FF PUSH2 0x3844 JUMP JUMPDEST AND PUSH0 MSTORE PUSH1 0x10 PUSH1 0x20 MSTORE PUSH1 0x20 PUSH1 0x40 PUSH0 KECCAK256 SLOAD PUSH1 0x40 MLOAD SWAP1 DUP2 MSTORE RETURN JUMPDEST CALLVALUE PUSH2 0x38E JUMPI PUSH1 0x20 CALLDATASIZE PUSH1 0x3 NOT ADD SLT PUSH2 0x38E JUMPI PUSH1 0x4 CALLDATALOAD PUSH2 0x1932 PUSH2 0x4539 JUMP JUMPDEST PUSH2 0x1940 PUSH2 0x3E8 DUP3 GT ISZERO PUSH2 0x3BD8 JUMP JUMPDEST PUSH1 0x8 SSTORE STOP JUMPDEST CALLVALUE PUSH2 0x38E JUMPI PUSH1 0x20 CALLDATASIZE PUSH1 0x3 NOT ADD SLT PUSH2 0x38E JUMPI PUSH2 0x195E PUSH2 0x3844 JUMP JUMPDEST PUSH2 0x1966 PUSH2 0x4539 JUMP JUMPDEST PUSH1 0x1 PUSH1 0x1 PUSH1 0xA0 SHL SUB DUP2 DUP2 AND SWAP2 SWAP1 DUP3 ISZERO PUSH2 0x1A79 JUMPI DUP3 PUSH0 MSTORE PUSH1 0x13 PUSH1 0x20 MSTORE PUSH1 0xFF PUSH1 0x40 PUSH0 KECCAK256 SLOAD AND PUSH2 0x1A43 JUMPI PUSH0 DUP4 DUP2 MSTORE PUSH1 0x13 PUSH1 0x20 MSTORE PUSH1 0x40 SWAP1 KECCAK256 DUP1 SLOAD PUSH1 0xFF NOT AND PUSH1 0x1 OR SWAP1 SSTORE PUSH1 0x12 SLOAD PUSH1 0x1 PUSH1 0x40 SHL DUP2 LT ISZERO PUSH2 0x1A2F JUMPI DUP4 SWAP3 PUSH2 0x19C9 DUP3 PUSH1 0x1 PUSH2 0x19E7 SWAP5 ADD PUSH1 0x12 SSTORE PUSH2 0x38BB JUMP JUMPDEST SWAP1 SWAP2 SWAP1 PUSH1 0x1 DUP1 PUSH1 0xA0 SHL SUB DUP1 DUP5 SLOAD SWAP3 PUSH1 0x3 SHL SWAP4 AND DUP4 SHL SWAP3 SHL NOT AND OR SWAP1 SSTORE JUMP JUMPDEST PUSH1 0x14 SLOAD SWAP1 DUP2 AND ISZERO PUSH2 0x1A1A JUMPI JUMPDEST POP PUSH32 0x44407F8AF029E74EF3C8D735B22092E8D0B7793D8739EA61B6CD677AEF5EB412 PUSH0 DUP1 LOG2 STOP JUMPDEST PUSH1 0x1 PUSH1 0x1 PUSH1 0xA0 SHL SUB NOT AND OR PUSH1 0x14 SSTORE DUP1 DUP3 PUSH2 0x19F3 JUMP JUMPDEST PUSH4 0x4E487B71 PUSH1 0xE0 SHL PUSH0 MSTORE PUSH1 0x41 PUSH1 0x4 MSTORE PUSH1 0x24 PUSH0 REVERT JUMPDEST PUSH1 0x40 MLOAD PUSH3 0x461BCD PUSH1 0xE5 SHL DUP2 MSTORE PUSH1 0x20 PUSH1 0x4 DUP3 ADD MSTORE PUSH1 0xE PUSH1 0x24 DUP3 ADD MSTORE PUSH14 0x185B1C9958591E481B1A5CDD1959 PUSH1 0x92 SHL PUSH1 0x44 DUP3 ADD MSTORE PUSH1 0x64 SWAP1 REVERT JUMPDEST PUSH1 0x40 MLOAD PUSH3 0x461BCD PUSH1 0xE5 SHL DUP2 MSTORE PUSH1 0x20 PUSH1 0x4 DUP3 ADD MSTORE PUSH1 0xC PUSH1 0x24 DUP3 ADD MSTORE PUSH12 0x7A65726F2061646472657373 PUSH1 0xA0 SHL PUSH1 0x44 DUP3 ADD MSTORE PUSH1 0x64 SWAP1 REVERT JUMPDEST CALLVALUE PUSH2 0x38E JUMPI PUSH1 0x40 CALLDATASIZE PUSH1 0x3 NOT ADD SLT PUSH2 0x38E JUMPI PUSH1 0x20 PUSH2 0x971 PUSH2 0x1ACB PUSH2 0x3844 JUMP JUMPDEST PUSH2 0x1AD3 PUSH2 0x385A JUMP JUMPDEST SWAP1 PUSH2 0x3F2E JUMP JUMPDEST CALLVALUE PUSH2 0x38E JUMPI PUSH0 CALLDATASIZE PUSH1 0x3 NOT ADD SLT PUSH2 0x38E JUMPI PUSH0 SLOAD PUSH1 0x40 MLOAD PUSH1 0x8 SWAP2 SWAP1 SWAP2 SHR PUSH1 0x1 PUSH1 0x1 PUSH1 0xA0 SHL SUB AND DUP2 MSTORE PUSH1 0x20 SWAP1 RETURN JUMPDEST CALLVALUE PUSH2 0x38E JUMPI PUSH1 0x20 CALLDATASIZE PUSH1 0x3 NOT ADD SLT PUSH2 0x38E JUMPI PUSH2 0x1B1D PUSH2 0x3844 JUMP JUMPDEST PUSH2 0x1B25 PUSH2 0x4539 JUMP JUMPDEST PUSH1 0x4 DUP1 SLOAD PUSH1 0x1 PUSH1 0x1 PUSH1 0xA0 SHL SUB NOT AND PUSH1 0x1 PUSH1 0x1 PUSH1 0xA0 SHL SUB SWAP3 SWAP1 SWAP3 AND SWAP2 SWAP1 SWAP2 OR SWAP1 SSTORE STOP JUMPDEST CALLVALUE PUSH2 0x38E JUMPI PUSH1 0x40 CALLDATASIZE PUSH1 0x3 NOT ADD SLT PUSH2 0x38E JUMPI PUSH2 0x1B60 PUSH2 0x3844 JUMP JUMPDEST PUSH2 0x1B68 PUSH2 0x385A JUMP JUMPDEST SWAP1 PUSH2 0x1B71 PUSH2 0x44ED JUMP JUMPDEST PUSH2 0x1B79 PUSH2 0x451C JUMP JUMPDEST PUSH1 0x1 PUSH1 0x1 PUSH1 0xA0 SHL SUB DUP2 DUP2 AND PUSH0 SWAP1 DUP2 MSTORE PUSH1 0xA PUSH1 0x20 SWAP1 DUP2 MSTORE PUSH1 0x40 DUP1 DUP4 KECCAK256 SWAP4 DUP7 AND DUP4 MSTORE SWAP3 SWAP1 MSTORE KECCAK256 PUSH1 0x4 DUP2 ADD SLOAD PUSH2 0x1BB1 SWAP1 PUSH1 0x8 SHR PUSH1 0xFF AND PUSH2 0x3980 JUMP JUMPDEST PUSH1 0x1 SLOAD PUSH1 0x40 MLOAD PUSH4 0x41976E09 PUSH1 0xE0 SHL DUP2 MSTORE PUSH1 0x1 PUSH1 0x1 PUSH1 0xA0 SHL SUB DUP6 DUP2 AND PUSH1 0x4 DUP4 ADD MSTORE SWAP1 SWAP2 PUSH1 0x20 SWAP2 DUP4 SWAP2 PUSH1 0x24 SWAP2 DUP4 SWAP2 AND GAS STATICCALL SWAP1 DUP2 ISZERO PUSH2 0x8F2 JUMPI PUSH0 SWAP2 PUSH2 0x209E JUMPI JUMPDEST POP PUSH2 0x1BFA DUP2 ISZERO ISZERO PUSH2 0x3C59 JUMP JUMPDEST PUSH2 0x1C03 DUP5 PUSH2 0x4591 JUMP JUMPDEST PUSH7 0xD529AE9E860000 PUSH2 0x1C1D DUP3 PUSH2 0x1C18 DUP6 PUSH2 0x3A24 JUMP JUMPDEST PUSH2 0x4686 JUMP JUMPDEST LT ISZERO PUSH2 0x2066 JUMPI PUSH2 0x1C2C DUP5 PUSH2 0x4744 JUMP JUMPDEST PUSH2 0x1C39 DUP2 PUSH2 0x5D8 DUP5 PUSH2 0x3A24 JUMP JUMPDEST SWAP1 DUP3 SLOAD PUSH7 0xB1A2BC2EC50000 DUP1 DUP3 MUL SWAP1 DUP3 DUP3 DIV EQ DUP3 ISZERO OR ISZERO PUSH2 0x2052 JUMPI PUSH8 0xDE0B6B3A7640000 SWAP1 DIV PUSH2 0x2710 PUSH2 0x1C6E PUSH1 0x8 SLOAD DUP5 PUSH2 0x3AB3 JUMP JUMPDEST DIV PUSH2 0xBB8 DUP4 DUP2 DUP2 MUL DIV DUP2 EQ DUP5 ISZERO OR ISZERO PUSH2 0x2052 JUMPI PUSH2 0x2710 SWAP1 DUP5 MUL DIV SWAP3 PUSH2 0x1C9C DUP5 PUSH2 0x1C97 DUP5 DUP7 PUSH2 0x39F4 JUMP JUMPDEST PUSH2 0x39F4 JUMP JUMPDEST SWAP1 DUP1 DUP3 GT PUSH2 0x1FE6 JUMPI JUMPDEST POP POP PUSH1 0x4 DUP7 ADD SLOAD PUSH1 0xFF AND ISZERO PUSH2 0x1FBB JUMPI PUSH1 0x1 DUP7 ADD SLOAD PUSH1 0x1 DUP1 PUSH1 0xA0 SHL SUB DUP10 AND PUSH0 MSTORE PUSH1 0xB PUSH1 0x20 MSTORE PUSH2 0x1CD8 PUSH1 0x40 PUSH0 KECCAK256 SWAP2 DUP3 SLOAD PUSH2 0x3AC6 JUMP JUMPDEST SWAP1 SSTORE JUMPDEST DUP1 ISZERO ISZERO DUP1 PUSH2 0x1FB1 JUMPI JUMPDEST PUSH2 0x1F55 JUMPI JUMPDEST POP DUP1 ISZERO ISZERO DUP1 PUSH2 0x1F41 JUMPI JUMPDEST PUSH2 0x1EE0 JUMPI JUMPDEST POP DUP1 PUSH2 0x1E86 JUMPI JUMPDEST POP PUSH0 DUP3 SLT PUSH2 0x1D98 JUMPI JUMPDEST PUSH1 0x1 PUSH1 0xFF PUSH1 0x4 DUP6 ADD SLOAD AND SWAP4 ADD SLOAD PUSH1 0x40 MLOAD SWAP4 ISZERO ISZERO DUP5 MSTORE PUSH1 0x20 DUP5 ADD MSTORE PUSH1 0x40 DUP4 ADD MSTORE PUSH1 0x60 DUP3 ADD MSTORE TIMESTAMP PUSH1 0x80 DUP3 ADD MSTORE PUSH1 0x1 DUP1 PUSH1 0xA0 SHL SUB DUP3 AND SWAP1 CALLER SWAP1 PUSH32 0x2519C4EBC951D8EE92A05C30C8D8C1470731AF70C412127475402ABD963D1B11 PUSH1 0xA0 PUSH1 0x1 DUP1 DUP3 SHL SUB DUP8 AND SWAP3 LOG4 PUSH1 0x1 DUP1 PUSH1 0xA0 SHL SUB AND PUSH0 MSTORE PUSH1 0xA PUSH1 0x20 MSTORE PUSH1 0x40 PUSH0 KECCAK256 SWAP1 PUSH1 0x1 DUP1 PUSH1 0xA0 SHL SUB AND PUSH0 MSTORE PUSH1 0x20 MSTORE PUSH2 0x70F PUSH1 0x40 PUSH0 KECCAK256 PUSH2 0x3EF9 JUMP JUMPDEST PUSH2 0x1DA1 DUP3 PUSH2 0x3EE9 JUMP JUMPDEST DUP4 SLOAD DUP1 DUP3 GT DUP1 PUSH2 0x1E66 JUMPI JUMPDEST PUSH2 0x1DB8 JUMPI JUMPDEST POP POP PUSH2 0x1D08 JUMP JUMPDEST PUSH2 0x1DC1 SWAP2 PUSH2 0x3AC6 JUMP JUMPDEST PUSH1 0x1 PUSH1 0x1 PUSH1 0xA0 SHL SUB DUP7 AND PUSH0 SWAP1 DUP2 MSTORE PUSH1 0xF PUSH1 0x20 MSTORE PUSH1 0x40 SWAP1 KECCAK256 DUP1 SLOAD SWAP2 DUP3 DUP2 GT ISZERO PUSH2 0x1E5B JUMPI POP PUSH2 0x1DEE DUP3 DUP1 PUSH2 0x3AC6 JUMP JUMPDEST SWAP1 SSTORE PUSH2 0x1DFC DUP2 PUSH1 0x11 SLOAD PUSH2 0x3AC6 JUMP JUMPDEST PUSH1 0x11 SSTORE PUSH1 0x40 MLOAD SWAP1 DUP2 MSTORE PUSH1 0x40 PUSH1 0x20 DUP3 ADD MSTORE PUSH1 0xA PUSH1 0x40 DUP3 ADD MSTORE PUSH10 0x62616E6B727570746379 PUSH1 0xB0 SHL PUSH1 0x60 DUP3 ADD MSTORE PUSH32 0x9A8C1DC5FB2B764E1B96134304619E44486C555D03FA116C381105D23FD37E67 PUSH1 0x80 PUSH1 0x1 DUP1 PUSH1 0xA0 SHL SUB DUP9 AND SWAP3 LOG2 DUP6 DUP1 PUSH2 0x1DB1 JUMP JUMPDEST PUSH2 0x1DEE SWAP1 DUP1 SWAP4 PUSH2 0x3AC6 JUMP JUMPDEST POP PUSH1 0x1 PUSH1 0x1 PUSH1 0xA0 SHL SUB DUP8 AND PUSH0 SWAP1 DUP2 MSTORE PUSH1 0xF PUSH1 0x20 MSTORE PUSH1 0x40 SWAP1 KECCAK256 SLOAD ISZERO ISZERO PUSH2 0x1DAC JUMP JUMPDEST PUSH1 0x1 DUP1 PUSH1 0xA0 SHL SUB DUP7 AND PUSH0 MSTORE PUSH1 0xF PUSH1 0x20 MSTORE PUSH1 0x40 PUSH0 KECCAK256 PUSH2 0x1EA5 DUP3 DUP3 SLOAD PUSH2 0x39F4 JUMP JUMPDEST SWAP1 SSTORE PUSH2 0x1EB3 DUP2 PUSH1 0x11 SLOAD PUSH2 0x39F4 JUMP JUMPDEST PUSH1 0x11 SSTORE PUSH1 0x40 MLOAD SWAP1 DUP2 MSTORE PUSH1 0x1 PUSH1 0x1 PUSH1 0xA0 SHL SUB DUP7 AND SWAP1 PUSH0 DUP1 MLOAD PUSH1 0x20 PUSH2 0x4AE0 DUP4 CODECOPY DUP2 MLOAD SWAP2 MSTORE SWAP1 PUSH1 0x20 SWAP1 LOG2 DUP6 PUSH2 0x1CFF JUMP JUMPDEST PUSH1 0x2 SLOAD PUSH0 SWAP2 DUP3 SWAP2 DUP3 SWAP2 DUP3 SWAP2 PUSH1 0x1 PUSH1 0x1 PUSH1 0xA0 SHL SUB AND GAS CALL PUSH2 0x1EFE PUSH2 0x3D0A JUMP JUMPDEST POP ISZERO PUSH2 0x1F0A JUMPI DUP7 PUSH2 0x1CF8 JUMP JUMPDEST PUSH1 0x40 MLOAD PUSH3 0x461BCD PUSH1 0xE5 SHL DUP2 MSTORE PUSH1 0x20 PUSH1 0x4 DUP3 ADD MSTORE PUSH1 0xF PUSH1 0x24 DUP3 ADD MSTORE PUSH15 0x189D5C9B881999594819985A5B1959 PUSH1 0x8A SHL PUSH1 0x44 DUP3 ADD MSTORE PUSH1 0x64 SWAP1 REVERT JUMPDEST POP PUSH1 0x2 SLOAD PUSH1 0x1 PUSH1 0x1 PUSH1 0xA0 SHL SUB AND ISZERO ISZERO PUSH2 0x1CF3 JUMP JUMPDEST PUSH0 DUP1 DUP1 DUP1 SWAP4 CALLER GAS CALL PUSH2 0x1F65 PUSH2 0x3D0A JUMP JUMPDEST POP ISZERO PUSH2 0x1F71 JUMPI DUP8 PUSH2 0x1CE9 JUMP JUMPDEST PUSH1 0x40 MLOAD PUSH3 0x461BCD PUSH1 0xE5 SHL DUP2 MSTORE PUSH1 0x20 PUSH1 0x4 DUP3 ADD MSTORE PUSH1 0x18 PUSH1 0x24 DUP3 ADD MSTORE PUSH24 0x1B1A5C5D5A59185D1BDC881C995DD85C990819985A5B1959 PUSH1 0x42 SHL PUSH1 0x44 DUP3 ADD MSTORE PUSH1 0x64 SWAP1 REVERT JUMPDEST POP SELFBALANCE DUP2 GT ISZERO PUSH2 0x1CE4 JUMP JUMPDEST PUSH1 0x1 DUP7 ADD SLOAD PUSH1 0x1 DUP1 PUSH1 0xA0 SHL SUB DUP10 AND PUSH0 MSTORE PUSH1 0xC PUSH1 0x20 MSTORE PUSH2 0x1FDF PUSH1 0x40 PUSH0 KECCAK256 SWAP2 DUP3 SLOAD PUSH2 0x3AC6 JUMP JUMPDEST SWAP1 SSTORE PUSH2 0x1CDB JUMP JUMPDEST DUP1 SWAP2 SWAP3 SWAP4 SWAP5 POP PUSH8 0xDE0B6B3A7640000 DUP2 MUL DIV PUSH8 0xDE0B6B3A7640000 EQ DUP2 ISZERO OR ISZERO PUSH2 0x2052 JUMPI PUSH2 0x2045 PUSH8 0xDE0B6B3A7640000 PUSH2 0x203C DUP2 PUSH2 0x2033 PUSH2 0x202C PUSH2 0x204A SWAP8 DUP4 DUP9 MUL PUSH2 0x3AD3 JUMP JUMPDEST DUP1 SWAP10 PUSH2 0x3AB3 JUMP JUMPDEST DIV SWAP7 DUP8 SWAP7 PUSH2 0x3AB3 JUMP JUMPDEST DIV SWAP5 DUP6 SWAP3 PUSH2 0x3AC6 JUMP JUMPDEST PUSH2 0x3AC6 JUMP JUMPDEST SWAP2 DUP9 DUP1 PUSH2 0x1CA5 JUMP JUMPDEST PUSH4 0x4E487B71 PUSH1 0xE0 SHL PUSH0 MSTORE PUSH1 0x11 PUSH1 0x4 MSTORE PUSH1 0x24 PUSH0 REVERT JUMPDEST PUSH1 0x40 MLOAD PUSH3 0x461BCD PUSH1 0xE5 SHL DUP2 MSTORE PUSH1 0x20 PUSH1 0x4 DUP3 ADD MSTORE PUSH1 0x10 PUSH1 0x24 DUP3 ADD MSTORE PUSH16 0x706F736974696F6E206865616C746879 PUSH1 0x80 SHL PUSH1 0x44 DUP3 ADD MSTORE PUSH1 0x64 SWAP1 REVERT JUMPDEST SWAP1 POP PUSH1 0x20 DUP2 RETURNDATASIZE PUSH1 0x20 GT PUSH2 0x20C8 JUMPI JUMPDEST DUP2 PUSH2 0x20B9 PUSH1 0x20 SWAP4 DUP4 PUSH2 0x3A01 JUMP JUMPDEST DUP2 ADD SUB SLT PUSH2 0x38E JUMPI MLOAD DUP5 PUSH2 0x1BEE JUMP JUMPDEST RETURNDATASIZE SWAP2 POP PUSH2 0x20AC JUMP JUMPDEST CALLVALUE PUSH2 0x38E JUMPI PUSH1 0x20 CALLDATASIZE PUSH1 0x3 NOT ADD SLT PUSH2 0x38E JUMPI PUSH1 0x1 PUSH1 0x1 PUSH1 0xA0 SHL SUB PUSH2 0x20F1 PUSH2 0x3844 JUMP JUMPDEST AND PUSH0 MSTORE PUSH1 0xD PUSH1 0x20 MSTORE PUSH1 0x20 PUSH1 0x40 PUSH0 KECCAK256 SLOAD PUSH1 0x40 MLOAD SWAP1 DUP2 MSTORE RETURN JUMPDEST CALLVALUE PUSH2 0x38E JUMPI PUSH0 CALLDATASIZE PUSH1 0x3 NOT ADD SLT PUSH2 0x38E JUMPI PUSH1 0x1 SLOAD PUSH1 0x40 MLOAD PUSH1 0x1 PUSH1 0x1 PUSH1 0xA0 SHL SUB SWAP1 SWAP2 AND DUP2 MSTORE PUSH1 0x20 SWAP1 RETURN JUMPDEST CALLVALUE PUSH2 0x38E JUMPI PUSH1 0x20 CALLDATASIZE PUSH1 0x3 NOT ADD SLT PUSH2 0x38E JUMPI PUSH2 0x2149 PUSH2 0x3844 JUMP JUMPDEST PUSH2 0x2151 PUSH2 0x4539 JUMP JUMPDEST PUSH1 0x5 DUP1 SLOAD PUSH1 0x1 PUSH1 0x1 PUSH1 0xA0 SHL SUB NOT AND PUSH1 0x1 PUSH1 0x1 PUSH1 0xA0 SHL SUB SWAP3 SWAP1 SWAP3 AND SWAP2 SWAP1 SWAP2 OR SWAP1 SSTORE STOP JUMPDEST CALLVALUE PUSH2 0x38E JUMPI PUSH1 0x20 CALLDATASIZE PUSH1 0x3 NOT ADD SLT PUSH2 0x38E JUMPI PUSH2 0x218C PUSH2 0x3844 JUMP JUMPDEST PUSH2 0x2194 PUSH2 0x4539 JUMP JUMPDEST PUSH1 0x1 DUP1 SLOAD PUSH1 0x1 PUSH1 0x1 PUSH1 0xA0 SHL SUB NOT AND PUSH1 0x1 PUSH1 0x1 PUSH1 0xA0 SHL SUB SWAP3 SWAP1 SWAP3 AND SWAP2 SWAP1 SWAP2 OR SWAP1 SSTORE STOP JUMPDEST PUSH1 0x20 CALLDATASIZE PUSH1 0x3 NOT ADD SLT PUSH2 0x38E JUMPI PUSH2 0x21CA PUSH2 0x3844 JUMP JUMPDEST CALLVALUE ISZERO PUSH2 0x38E JUMPI PUSH1 0x1 PUSH1 0x1 PUSH1 0xA0 SHL SUB AND PUSH0 DUP2 DUP2 MSTORE PUSH1 0xF PUSH1 0x20 MSTORE PUSH1 0x40 SWAP1 KECCAK256 DUP1 SLOAD PUSH2 0x21F3 SWAP1 CALLVALUE SWAP1 PUSH2 0x39F4 JUMP JUMPDEST SWAP1 SSTORE PUSH2 0x2201 CALLVALUE PUSH1 0x11 SLOAD PUSH2 0x39F4 JUMP JUMPDEST PUSH1 0x11 SSTORE PUSH0 DUP1 MLOAD PUSH1 0x20 PUSH2 0x4AE0 DUP4 CODECOPY DUP2 MLOAD SWAP2 MSTORE PUSH1 0x20 PUSH1 0x40 MLOAD CALLVALUE DUP2 MSTORE LOG2 STOP JUMPDEST CALLVALUE PUSH2 0x38E JUMPI PUSH0 CALLDATASIZE PUSH1 0x3 NOT ADD SLT PUSH2 0x38E JUMPI PUSH1 0x14 SLOAD PUSH1 0x40 MLOAD PUSH1 0x1 PUSH1 0x1 PUSH1 0xA0 SHL SUB SWAP1 SWAP2 AND DUP2 MSTORE PUSH1 0x20 SWAP1 RETURN JUMPDEST CALLVALUE PUSH2 0x38E JUMPI PUSH0 CALLDATASIZE PUSH1 0x3 NOT ADD SLT PUSH2 0x38E JUMPI PUSH2 0x225D PUSH2 0x4539 JUMP JUMPDEST PUSH0 DUP1 SLOAD PUSH2 0x100 PUSH1 0x1 PUSH1 0xA8 SHL SUB NOT DUP2 AND DUP3 SSTORE PUSH1 0x8 SHR PUSH1 0x1 PUSH1 0x1 PUSH1 0xA0 SHL SUB AND PUSH0 DUP1 MLOAD PUSH1 0x20 PUSH2 0x4B60 DUP4 CODECOPY DUP2 MLOAD SWAP2 MSTORE DUP3 DUP1 LOG3 STOP JUMPDEST CALLVALUE PUSH2 0x38E JUMPI PUSH1 0x20 CALLDATASIZE PUSH1 0x3 NOT ADD SLT PUSH2 0x38E JUMPI PUSH1 0x20 PUSH2 0x971 PUSH2 0x22AB PUSH2 0x3844 JUMP JUMPDEST PUSH2 0x3EA2 JUMP JUMPDEST CALLVALUE PUSH2 0x38E JUMPI PUSH1 0x20 CALLDATASIZE PUSH1 0x3 NOT ADD SLT PUSH2 0x38E JUMPI PUSH1 0x1 PUSH1 0x1 PUSH1 0xA0 SHL SUB PUSH2 0x22D1 PUSH2 0x3844 JUMP JUMPDEST AND PUSH0 MSTORE PUSH1 0xB PUSH1 0x20 MSTORE PUSH1 0x40 DUP1 PUSH0 KECCAK256 SLOAD PUSH1 0xC PUSH1 0x20 MSTORE DUP2 PUSH0 KECCAK256 SLOAD DUP3 MLOAD SWAP2 DUP3 MSTORE PUSH1 0x20 DUP3 ADD MSTORE RETURN JUMPDEST CALLVALUE PUSH2 0x38E JUMPI PUSH1 0x20 CALLDATASIZE PUSH1 0x3 NOT ADD SLT PUSH2 0x38E JUMPI PUSH2 0x230D PUSH2 0x3844 JUMP JUMPDEST CALLER PUSH0 MSTORE PUSH1 0xA PUSH1 0x20 MSTORE PUSH1 0x40 PUSH0 KECCAK256 SWAP1 PUSH1 0x1 DUP1 PUSH1 0xA0 SHL SUB AND SWAP1 DUP2 PUSH0 MSTORE PUSH1 0x20 MSTORE PUSH1 0x7 PUSH1 0x40 PUSH0 KECCAK256 PUSH2 0x2342 PUSH1 0xFF PUSH1 0x4 DUP4 ADD SLOAD PUSH1 0x8 SHR AND PUSH2 0x3980 JUMP JUMPDEST PUSH0 PUSH1 0x5 DUP3 ADD SSTORE PUSH0 PUSH1 0x6 DUP3 ADD SSTORE ADD PUSH1 0xFF NOT DUP2 SLOAD AND SWAP1 SSTORE CALLER PUSH32 0xE9B7E1D3CB64115DA0BF49CBE4AF2B06C8D42E87B1E1C0FE240C32BE832F5809 PUSH0 DUP1 LOG3 STOP JUMPDEST CALLVALUE PUSH2 0x38E JUMPI PUSH1 0x40 CALLDATASIZE PUSH1 0x3 NOT ADD SLT PUSH2 0x38E JUMPI PUSH2 0x2397 PUSH2 0x3844 JUMP JUMPDEST PUSH1 0x3 SLOAD PUSH1 0x24 CALLDATALOAD SWAP2 PUSH1 0x1 PUSH1 0x1 PUSH1 0xA0 SHL SUB SWAP2 DUP3 AND CALLER EQ DUP1 ISZERO PUSH2 0x24BD JUMPI JUMPDEST DUP1 ISZERO PUSH2 0x24AE JUMPI JUMPDEST ISZERO PUSH2 0x2478 JUMPI AND SWAP1 PUSH1 0x40 MLOAD PUSH4 0x23B872DD PUSH1 0xE0 SHL PUSH0 MSTORE CALLER PUSH1 0x4 MSTORE ADDRESS PUSH1 0x24 MSTORE DUP2 PUSH1 0x44 MSTORE PUSH1 0x20 PUSH0 PUSH1 0x64 DUP2 DUP1 DUP8 GAS CALL PUSH1 0x1 PUSH0 MLOAD EQ DUP2 AND ISZERO PUSH2 0x2459 JUMPI JUMPDEST DUP2 PUSH1 0x40 MSTORE PUSH0 PUSH1 0x60 MSTORE ISZERO PUSH2 0x2443 JUMPI POP PUSH1 0x20 PUSH32 0xE3A6E26DCEFF30D982E183D0CE051FB5B791F2108785A9D440D417247CEF5B41 SWAP2 DUP4 PUSH0 MSTORE PUSH1 0x10 DUP3 MSTORE PUSH1 0x40 PUSH0 KECCAK256 PUSH2 0x2438 DUP3 DUP3 SLOAD PUSH2 0x39F4 JUMP JUMPDEST SWAP1 SSTORE PUSH1 0x40 MLOAD SWAP1 DUP2 MSTORE LOG2 STOP JUMPDEST PUSH4 0x5274AFE7 PUSH1 0xE0 SHL DUP2 MSTORE PUSH1 0x4 DUP2 ADD DUP4 SWAP1 MSTORE PUSH1 0x24 SWAP1 REVERT JUMPDEST PUSH1 0x1 DUP2 ISZERO AND PUSH2 0x246F JUMPI DUP4 EXTCODESIZE ISZERO ISZERO RETURNDATASIZE ISZERO AND AND PUSH2 0x23F0 JUMP JUMPDEST POP RETURNDATASIZE PUSH0 DUP3 RETURNDATACOPY RETURNDATASIZE SWAP1 REVERT JUMPDEST PUSH1 0x40 MLOAD PUSH3 0x461BCD PUSH1 0xE5 SHL DUP2 MSTORE PUSH1 0x20 PUSH1 0x4 DUP3 ADD MSTORE PUSH1 0xE PUSH1 0x24 DUP3 ADD MSTORE PUSH14 0x1B9BDD08185D5D1A1BDC9A5E9959 PUSH1 0x92 SHL PUSH1 0x44 DUP3 ADD MSTORE PUSH1 0x64 SWAP1 REVERT JUMPDEST POP DUP2 PUSH0 SLOAD PUSH1 0x8 SHR AND CALLER EQ PUSH2 0x23B9 JUMP JUMPDEST POP DUP2 PUSH1 0x4 SLOAD AND CALLER EQ PUSH2 0x23B2 JUMP JUMPDEST CALLVALUE PUSH2 0x38E JUMPI PUSH0 CALLDATASIZE PUSH1 0x3 NOT ADD SLT PUSH2 0x38E JUMPI PUSH1 0x20 PUSH1 0x9 SLOAD PUSH1 0x40 MLOAD SWAP1 DUP2 MSTORE RETURN JUMPDEST CALLVALUE PUSH2 0x38E JUMPI PUSH1 0x20 CALLDATASIZE PUSH1 0x3 NOT ADD SLT PUSH2 0x38E JUMPI PUSH1 0x4 CALLDATALOAD PUSH2 0x2503 PUSH2 0x4539 JUMP JUMPDEST PUSH2 0x2511 PUSH2 0x1F4 DUP3 GT ISZERO PUSH2 0x3BD8 JUMP JUMPDEST PUSH1 0x9 SSTORE STOP JUMPDEST PUSH1 0xC0 CALLDATASIZE PUSH1 0x3 NOT ADD SLT PUSH2 0x38E JUMPI PUSH2 0x252A PUSH2 0x3844 JUMP JUMPDEST PUSH2 0x2532 PUSH2 0x38AC JUMP JUMPDEST PUSH1 0xA4 CALLDATALOAD SWAP2 DUP3 ISZERO ISZERO DUP4 SUB PUSH2 0x38E JUMPI PUSH2 0x2547 PUSH2 0x44ED JUMP JUMPDEST PUSH2 0x254F PUSH2 0x451C JUMP JUMPDEST PUSH8 0xDE0B6B3A7640000 PUSH1 0x64 CALLDATALOAD LT ISZERO DUP1 PUSH2 0x27E1 JUMPI JUMPDEST PUSH2 0x256C SWAP1 PUSH2 0x3D8D JUMP JUMPDEST PUSH2 0x257A PUSH1 0x44 CALLDATALOAD CALLVALUE LT ISZERO PUSH2 0x3DCC JUMP JUMPDEST PUSH2 0x2587 PUSH1 0x44 CALLDATALOAD ISZERO ISZERO PUSH2 0x39BA JUMP JUMPDEST PUSH1 0x84 CALLDATALOAD ISZERO PUSH2 0x27A7 JUMPI PUSH1 0x1 DUP1 PUSH1 0xA0 SHL SUB AND SWAP2 DUP3 PUSH0 MSTORE PUSH1 0x13 PUSH1 0x20 MSTORE PUSH2 0x25B0 PUSH1 0xFF PUSH1 0x40 PUSH0 KECCAK256 SLOAD AND PUSH2 0x3E0E JUMP JUMPDEST CALLER PUSH0 MSTORE PUSH1 0xA PUSH1 0x20 MSTORE PUSH1 0x40 PUSH0 KECCAK256 DUP4 PUSH0 MSTORE PUSH1 0x20 MSTORE PUSH2 0x25D9 PUSH1 0xFF PUSH1 0x4 PUSH1 0x40 PUSH0 KECCAK256 ADD SLOAD PUSH1 0x8 SHR AND ISZERO PUSH2 0x3E56 JUMP JUMPDEST PUSH1 0x15 SLOAD PUSH1 0x40 MLOAD SWAP1 SWAP2 SWAP1 PUSH2 0x100 DUP2 ADD PUSH1 0x1 PUSH1 0x1 PUSH1 0x40 SHL SUB DUP2 GT DUP3 DUP3 LT OR PUSH2 0x1A2F JUMPI PUSH1 0x40 MSTORE CALLER DUP2 MSTORE DUP5 PUSH1 0x20 DUP3 ADD MSTORE DUP4 ISZERO ISZERO PUSH1 0x40 DUP3 ADD MSTORE PUSH1 0x44 CALLDATALOAD PUSH1 0x60 DUP3 ADD MSTORE PUSH1 0x64 CALLDATALOAD PUSH1 0x80 DUP3 ADD MSTORE PUSH1 0x84 CALLDATALOAD PUSH1 0xA0 DUP3 ADD MSTORE DUP2 ISZERO ISZERO PUSH1 0xC0 DUP3 ADD MSTORE PUSH1 0x1 PUSH1 0xE0 DUP3 ADD MSTORE PUSH1 0x1 PUSH1 0x40 SHL DUP4 LT ISZERO PUSH2 0x1A2F JUMPI PUSH1 0x1 DUP4 ADD PUSH1 0x15 SSTORE PUSH2 0x2650 DUP4 PUSH2 0x38FC JUMP JUMPDEST PUSH2 0x2794 JUMPI DUP2 MLOAD DUP2 SLOAD PUSH1 0x1 PUSH1 0x1 PUSH1 0xA0 SHL SUB NOT AND PUSH1 0x1 PUSH1 0x1 PUSH1 0xA0 SHL SUB SWAP2 DUP3 AND OR DUP3 SSTORE PUSH1 0x20 DUP4 ADD MLOAD PUSH1 0x1 DUP4 ADD DUP1 SLOAD PUSH1 0x40 DUP7 ADD MLOAD PUSH1 0x1 PUSH1 0x1 PUSH1 0xA8 SHL SUB NOT SWAP1 SWAP2 AND SWAP3 SWAP1 SWAP4 AND SWAP2 SWAP1 SWAP2 OR SWAP2 ISZERO ISZERO PUSH1 0xA0 SWAP1 DUP2 SHL PUSH1 0xFF PUSH1 0xA0 SHL AND SWAP3 SWAP1 SWAP3 OR SWAP1 SSTORE PUSH1 0x60 DUP4 ADD MLOAD PUSH1 0x2 DUP4 ADD SSTORE PUSH1 0x80 DUP4 ADD MLOAD PUSH1 0x3 DUP4 ADD SSTORE DUP3 ADD MLOAD PUSH1 0x4 DUP3 ADD SSTORE PUSH1 0xC0 DUP3 ADD MLOAD PUSH1 0x5 SWAP2 SWAP1 SWAP2 ADD SWAP2 PUSH1 0xE0 SWAP2 PUSH2 0x26DF SWAP1 ISZERO ISZERO DUP5 PUSH2 0x3C48 JUMP JUMPDEST ADD MLOAD DUP2 SLOAD PUSH2 0xFF00 NOT AND SWAP1 ISZERO ISZERO PUSH1 0x8 SHL PUSH2 0xFF00 AND OR SWAP1 SSTORE CALLER PUSH0 SWAP1 DUP2 MSTORE PUSH1 0x16 PUSH1 0x20 MSTORE PUSH1 0x40 SWAP1 KECCAK256 DUP1 SLOAD PUSH1 0x1 PUSH1 0x40 SHL DUP2 LT ISZERO PUSH2 0x1A2F JUMPI PUSH2 0x2720 SWAP2 PUSH1 0x1 DUP3 ADD DUP2 SSTORE PUSH2 0x38E7 JUMP JUMPDEST DUP2 SLOAD SWAP1 PUSH1 0x3 SHL SWAP1 DUP5 DUP3 SHL SWAP2 PUSH0 NOT SWAP1 SHL NOT AND OR SWAP1 SSTORE PUSH1 0x40 MLOAD SWAP3 ISZERO ISZERO DUP4 MSTORE PUSH1 0x44 CALLDATALOAD PUSH1 0x20 DUP5 ADD MSTORE PUSH1 0x64 CALLDATALOAD PUSH1 0x40 DUP5 ADD MSTORE PUSH1 0x84 CALLDATALOAD PUSH1 0x60 DUP5 ADD MSTORE ISZERO ISZERO PUSH1 0x80 DUP4 ADD MSTORE PUSH32 0xD38CF2938CF143EC7305058C0EAC45E5532FCD567442EEF7F027E22D8B1CAED5 PUSH1 0xA0 CALLER SWAP4 LOG4 PUSH1 0x1 PUSH0 DUP1 MLOAD PUSH1 0x20 PUSH2 0x4B80 DUP4 CODECOPY DUP2 MLOAD SWAP2 MSTORE SSTORE STOP JUMPDEST PUSH4 0x4E487B71 PUSH1 0xE0 SHL PUSH0 MSTORE PUSH0 PUSH1 0x4 MSTORE PUSH1 0x24 PUSH0 REVERT JUMPDEST PUSH1 0x40 MLOAD PUSH3 0x461BCD PUSH1 0xE5 SHL DUP2 MSTORE PUSH1 0x20 PUSH1 0x4 DUP3 ADD MSTORE PUSH1 0x12 PUSH1 0x24 DUP3 ADD MSTORE PUSH18 0x7A65726F2074726967676572207072696365 PUSH1 0x70 SHL PUSH1 0x44 DUP3 ADD MSTORE PUSH1 0x64 SWAP1 REVERT JUMPDEST POP PUSH8 0x8AC7230489E80000 PUSH1 0x64 CALLDATALOAD GT ISZERO PUSH2 0x2563 JUMP JUMPDEST CALLVALUE PUSH2 0x38E JUMPI PUSH0 CALLDATASIZE PUSH1 0x3 NOT ADD SLT PUSH2 0x38E JUMPI PUSH1 0x20 PUSH1 0x40 MLOAD PUSH2 0xBB8 DUP2 MSTORE RETURN JUMPDEST CALLVALUE PUSH2 0x38E JUMPI PUSH1 0x20 DUP1 PUSH1 0x3 NOT CALLDATASIZE ADD SLT PUSH2 0x38E JUMPI PUSH2 0x282B PUSH2 0x3844 JUMP JUMPDEST PUSH1 0x1 SLOAD PUSH1 0x40 MLOAD PUSH4 0x41976E09 PUSH1 0xE0 SHL DUP2 MSTORE PUSH1 0x1 PUSH1 0x1 PUSH1 0xA0 SHL SUB SWAP3 DUP4 AND PUSH1 0x4 DUP3 ADD MSTORE SWAP2 DUP4 SWAP2 DUP4 SWAP2 PUSH1 0x24 SWAP2 DUP4 SWAP2 AND GAS STATICCALL SWAP1 DUP2 ISZERO PUSH2 0x8F2 JUMPI PUSH0 SWAP2 PUSH2 0x286F JUMPI JUMPDEST POP PUSH1 0x40 MLOAD SWAP1 DUP2 MSTORE RETURN JUMPDEST SWAP1 POP DUP2 DUP2 DUP2 RETURNDATASIZE DUP4 GT PUSH2 0x2895 JUMPI JUMPDEST PUSH2 0x2886 DUP2 DUP4 PUSH2 0x3A01 JUMP JUMPDEST DUP2 ADD SUB SLT PUSH2 0x38E JUMPI MLOAD DUP3 PUSH2 0x2866 JUMP JUMPDEST POP RETURNDATASIZE PUSH2 0x287C JUMP JUMPDEST CALLVALUE PUSH2 0x38E JUMPI PUSH0 CALLDATASIZE PUSH1 0x3 NOT ADD SLT PUSH2 0x38E JUMPI PUSH1 0x20 PUSH1 0xFF PUSH0 SLOAD AND PUSH1 0x40 MLOAD SWAP1 ISZERO ISZERO DUP2 MSTORE RETURN JUMPDEST CALLVALUE PUSH2 0x38E JUMPI PUSH1 0x20 CALLDATASIZE PUSH1 0x3 NOT ADD SLT PUSH2 0x38E JUMPI PUSH1 0x4 CALLDATALOAD PUSH1 0x12 SLOAD DUP2 LT ISZERO PUSH2 0x38E JUMPI PUSH2 0x28E6 PUSH1 0x20 SWAP2 PUSH2 0x38BB JUMP JUMPDEST SWAP1 SLOAD PUSH1 0x40 MLOAD PUSH1 0x3 SWAP3 SWAP1 SWAP3 SHL SHR PUSH1 0x1 PUSH1 0x1 PUSH1 0xA0 SHL SUB AND DUP2 MSTORE RETURN JUMPDEST CALLVALUE PUSH2 0x38E JUMPI PUSH0 CALLDATASIZE PUSH1 0x3 NOT ADD SLT PUSH2 0x38E JUMPI PUSH1 0x2 SLOAD PUSH1 0x40 MLOAD PUSH1 0x1 PUSH1 0x1 PUSH1 0xA0 SHL SUB SWAP1 SWAP2 AND DUP2 MSTORE PUSH1 0x20 SWAP1 RETURN JUMPDEST CALLVALUE PUSH2 0x38E JUMPI PUSH0 CALLDATASIZE PUSH1 0x3 NOT ADD SLT PUSH2 0x38E JUMPI PUSH1 0x20 PUSH1 0x40 MLOAD PUSH2 0x7080 DUP2 MSTORE RETURN JUMPDEST CALLVALUE PUSH2 0x38E JUMPI PUSH0 CALLDATASIZE PUSH1 0x3 NOT ADD SLT PUSH2 0x38E JUMPI PUSH1 0x20 PUSH1 0x8 SLOAD PUSH1 0x40 MLOAD SWAP1 DUP2 MSTORE RETURN JUMPDEST CALLVALUE PUSH2 0x38E JUMPI PUSH0 CALLDATASIZE PUSH1 0x3 NOT ADD SLT PUSH2 0x38E JUMPI PUSH1 0x20 PUSH1 0x12 SLOAD PUSH1 0x40 MLOAD SWAP1 DUP2 MSTORE RETURN JUMPDEST CALLVALUE PUSH2 0x38E JUMPI PUSH1 0x40 CALLDATASIZE PUSH1 0x3 NOT ADD SLT PUSH2 0x38E JUMPI PUSH2 0x2996 PUSH2 0x3844 JUMP JUMPDEST PUSH2 0x299E PUSH2 0x385A JUMP JUMPDEST SWAP1 PUSH1 0x1 DUP1 PUSH1 0xA0 SHL SUB DUP1 SWAP2 AND PUSH0 MSTORE PUSH1 0xA PUSH1 0x20 MSTORE PUSH1 0x40 PUSH0 KECCAK256 SWAP2 AND PUSH0 MSTORE PUSH1 0x20 MSTORE PUSH2 0x140 PUSH1 0x40 PUSH0 KECCAK256 DUP1 SLOAD SWAP1 PUSH1 0x1 DUP2 ADD SLOAD SWAP1 PUSH1 0x2 DUP2 ADD SLOAD PUSH1 0x3 DUP3 ADD SLOAD PUSH1 0xFF PUSH1 0x4 DUP5 ADD SLOAD PUSH1 0x5 DUP6 ADD SLOAD SWAP3 PUSH1 0x6 DUP7 ADD SLOAD SWAP5 PUSH1 0x8 DUP5 PUSH1 0x7 DUP10 ADD SLOAD AND SWAP8 ADD SLOAD SWAP8 PUSH1 0x40 MLOAD SWAP10 DUP11 MSTORE PUSH1 0x20 DUP11 ADD MSTORE PUSH1 0x40 DUP10 ADD MSTORE PUSH1 0x60 DUP9 ADD MSTORE DUP2 DUP2 AND ISZERO ISZERO PUSH1 0x80 DUP9 ADD MSTORE PUSH1 0x8 SHR AND ISZERO ISZERO PUSH1 0xA0 DUP7 ADD MSTORE PUSH1 0xC0 DUP6 ADD MSTORE PUSH1 0xE0 DUP5 ADD MSTORE ISZERO ISZERO PUSH2 0x100 DUP4 ADD MSTORE PUSH2 0x120 DUP3 ADD MSTORE RETURN JUMPDEST CALLVALUE PUSH2 0x38E JUMPI PUSH1 0x20 CALLDATASIZE PUSH1 0x3 NOT ADD SLT PUSH2 0x38E JUMPI PUSH2 0x2A52 PUSH2 0x3844 JUMP JUMPDEST PUSH2 0x2A5A PUSH2 0x4539 JUMP JUMPDEST PUSH1 0x3 DUP1 SLOAD PUSH1 0x1 PUSH1 0x1 PUSH1 0xA0 SHL SUB NOT AND PUSH1 0x1 PUSH1 0x1 PUSH1 0xA0 SHL SUB SWAP3 SWAP1 SWAP3 AND SWAP2 SWAP1 SWAP2 OR SWAP1 SSTORE STOP JUMPDEST CALLVALUE PUSH2 0x38E JUMPI PUSH1 0x60 CALLDATASIZE PUSH1 0x3 NOT ADD SLT PUSH2 0x38E JUMPI PUSH2 0x2A95 PUSH2 0x3844 JUMP JUMPDEST PUSH2 0x2A9D PUSH2 0x385A JUMP JUMPDEST PUSH1 0x44 CALLDATALOAD SWAP1 DUP2 ISZERO ISZERO DUP3 SUB PUSH2 0x38E JUMPI PUSH2 0x2AB2 PUSH2 0x44ED JUMP JUMPDEST PUSH2 0x2ABA PUSH2 0x451C JUMP JUMPDEST PUSH1 0x1 PUSH1 0x1 PUSH1 0xA0 SHL SUB DUP4 DUP2 AND PUSH0 SWAP1 DUP2 MSTORE PUSH1 0xA PUSH1 0x20 SWAP1 DUP2 MSTORE PUSH1 0x40 DUP1 DUP4 KECCAK256 SWAP4 DUP6 AND DUP4 MSTORE SWAP3 SWAP1 MSTORE KECCAK256 PUSH1 0x4 DUP2 ADD SLOAD SWAP2 PUSH1 0x8 DUP4 SWAP1 SHR PUSH1 0xFF AND DUP1 PUSH2 0x30FB JUMPI JUMPDEST ISZERO PUSH2 0x30CC JUMPI PUSH1 0x1 SLOAD PUSH1 0x40 MLOAD PUSH4 0x41976E09 PUSH1 0xE0 SHL DUP2 MSTORE PUSH1 0x1 PUSH1 0x1 PUSH1 0xA0 SHL SUB DUP4 DUP2 AND PUSH1 0x4 DUP4 ADD MSTORE SWAP1 SWAP4 SWAP2 PUSH1 0x20 SWAP2 DUP6 SWAP2 PUSH1 0x24 SWAP2 DUP4 SWAP2 AND GAS STATICCALL SWAP3 DUP4 ISZERO PUSH2 0x8F2 JUMPI PUSH0 SWAP4 PUSH2 0x3098 JUMPI JUMPDEST POP PUSH2 0x2B41 DUP4 ISZERO ISZERO PUSH2 0x3C59 JUMP JUMPDEST PUSH2 0x2B4A DUP3 PUSH2 0x4591 JUMP JUMPDEST DUP5 ISZERO PUSH2 0x308D JUMPI PUSH1 0x5 DUP2 ADD SLOAD SWAP3 JUMPDEST DUP4 ISZERO PUSH2 0x305E JUMPI PUSH1 0x24 SWAP5 PUSH1 0xFF AND ISZERO PUSH2 0x3040 JUMPI DUP6 ISZERO PUSH2 0x302F JUMPI PUSH2 0x2B7A DUP5 DUP3 LT ISZERO PUSH2 0x3CCD JUMP JUMPDEST PUSH1 0x1 PUSH2 0x2710 PUSH2 0x2B8D DUP5 SLOAD PUSH1 0x9 SLOAD SWAP1 PUSH2 0x3AB3 JUMP JUMPDEST DIV SWAP3 DUP4 ISZERO ISZERO DUP1 PUSH2 0x3025 JUMPI JUMPDEST PUSH2 0x300D JUMPI JUMPDEST ADD SLOAD SWAP4 PUSH1 0x1 DUP1 PUSH1 0xA0 SHL SUB DUP9 AND PUSH0 MSTORE PUSH1 0xA PUSH1 0x20 MSTORE PUSH1 0x40 PUSH0 KECCAK256 PUSH1 0x1 DUP1 PUSH1 0xA0 SHL SUB DUP6 AND PUSH0 MSTORE PUSH1 0x20 MSTORE PUSH1 0x40 PUSH0 KECCAK256 SWAP5 PUSH2 0x2BDA PUSH1 0xFF PUSH1 0x4 DUP9 ADD SLOAD PUSH1 0x8 SHR AND PUSH2 0x3980 JUMP JUMPDEST PUSH2 0x2BE3 DUP6 PUSH2 0x4744 JUMP JUMPDEST PUSH1 0x1 SLOAD PUSH1 0x40 MLOAD PUSH4 0x41976E09 PUSH1 0xE0 SHL DUP2 MSTORE PUSH1 0x1 PUSH1 0x1 PUSH1 0xA0 SHL SUB DUP8 DUP2 AND PUSH1 0x4 DUP4 ADD MSTORE SWAP1 SWAP9 PUSH1 0x20 SWAP3 DUP11 SWAP3 DUP4 SWAP2 AND GAS STATICCALL SWAP7 DUP8 ISZERO PUSH2 0x8F2 JUMPI PUSH0 SWAP8 PUSH2 0x2FD9 JUMPI JUMPDEST POP PUSH2 0x2C29 DUP8 ISZERO ISZERO PUSH2 0x3C59 JUMP JUMPDEST PUSH2 0x2C32 DUP6 PUSH2 0x4591 JUMP JUMPDEST PUSH8 0xDE0B6B3A7640000 DUP2 MUL DUP2 DUP2 DIV PUSH8 0xDE0B6B3A7640000 EQ DUP3 ISZERO OR ISZERO PUSH2 0x2052 JUMPI PUSH1 0x1 DUP8 ADD SLOAD PUSH2 0x2C60 SWAP2 PUSH2 0x3AD3 JUMP JUMPDEST SWAP1 PUSH2 0x2C6E DUP9 PUSH2 0x5D8 DUP10 PUSH2 0x3A24 JUMP JUMPDEST SWAP7 PUSH0 DUP9 SLT PUSH1 0x1 PUSH1 0xFF SHL DUP5 EQ AND PUSH2 0x2052 JUMPI DUP8 DUP4 DUP2 MUL SDIV DUP4 EQ DUP9 ISZERO OR ISZERO PUSH2 0x2052 JUMPI PUSH32 0x399E51B755363F9E7C0719A2AC0289D77F512608B9D120AE8AF7CA01E0FF3E1E SWAP9 DUP12 PUSH8 0xDE0B6B3A7640000 DUP6 PUSH1 0x80 SWAP12 MUL SDIV SWAP5 PUSH2 0x2CCD DUP11 PUSH2 0x60F DUP7 PUSH2 0x3A24 JUMP JUMPDEST PUSH0 DUP2 SGT ISZERO PUSH2 0x2F72 JUMPI DUP5 SLOAD PUSH2 0x2D0F SWAP2 SWAP1 DUP1 DUP3 GT PUSH2 0x2F6A JUMPI JUMPDEST DUP2 PUSH2 0x2CEE SWAP2 PUSH2 0x3AC6 JUMP JUMPDEST DUP7 SSTORE PUSH1 0x1 DUP1 PUSH1 0xA0 SHL SUB DUP13 AND PUSH0 MSTORE PUSH1 0xF PUSH1 0x20 MSTORE PUSH1 0x40 PUSH0 KECCAK256 PUSH2 0x64D DUP3 DUP3 SLOAD PUSH2 0x39F4 JUMP JUMPDEST PUSH1 0x11 SSTORE JUMPDEST PUSH8 0xDE0B6B3A7640000 PUSH2 0x2D2E PUSH1 0x3 DUP7 ADD SWAP3 TIMESTAMP DUP5 SSTORE DUP7 SLOAD PUSH2 0x3AB3 JUMP JUMPDEST DIV SWAP1 PUSH0 DUP8 SLT PUSH2 0x2F42 JUMPI PUSH2 0x2D41 DUP8 DUP4 PUSH2 0x39F4 JUMP JUMPDEST SWAP2 JUMPDEST PUSH1 0x4 DUP7 ADD SLOAD PUSH1 0xFF AND ISZERO PUSH2 0x2F1C JUMPI PUSH1 0x1 DUP1 PUSH1 0xA0 SHL SUB DUP13 AND PUSH0 MSTORE PUSH1 0xB PUSH1 0x20 MSTORE PUSH1 0x40 PUSH0 KECCAK256 PUSH2 0x2D6F DUP9 DUP3 SLOAD PUSH2 0x3AC6 JUMP JUMPDEST SWAP1 SSTORE JUMPDEST PUSH1 0x1 DUP7 ADD SLOAD DUP8 DUP2 SUB PUSH2 0x2E72 JUMPI POP POP POP PUSH0 DUP1 MLOAD PUSH1 0x20 PUSH2 0x4BA0 DUP4 CODECOPY DUP2 MLOAD SWAP2 MSTORE SWAP4 SWAP5 POP DUP1 ISZERO ISZERO DUP1 PUSH2 0x2E68 JUMPI JUMPDEST PUSH2 0x2E42 JUMPI JUMPDEST POP PUSH1 0x4 DUP5 ADD SLOAD DUP5 SLOAD PUSH1 0x1 SWAP1 SWAP6 ADD SLOAD PUSH1 0x40 MLOAD PUSH1 0x1 PUSH1 0x1 PUSH1 0xA0 SHL SUB SWAP4 DUP5 AND SWAP8 SWAP4 DUP13 AND SWAP7 SWAP1 SWAP5 DUP6 SWAP5 PUSH2 0x2DD7 SWAP5 TIMESTAMP SWAP5 SWAP2 SWAP4 SWAP1 PUSH1 0xFF AND DUP8 PUSH2 0x4567 JUMP JUMPDEST SUB SWAP1 LOG3 PUSH1 0x1 PUSH1 0x1 PUSH1 0xA0 SHL SUB DUP9 DUP2 AND PUSH0 SWAP1 DUP2 MSTORE PUSH1 0xA PUSH1 0x20 SWAP1 DUP2 MSTORE PUSH1 0x40 DUP1 DUP4 KECCAK256 SWAP4 DUP9 AND DUP4 MSTORE SWAP3 SWAP1 MSTORE KECCAK256 PUSH2 0x2E07 SWAP1 PUSH2 0x3EF9 JUMP JUMPDEST PUSH1 0x40 DUP1 MLOAD SWAP8 ISZERO ISZERO DUP9 MSTORE PUSH1 0x20 DUP9 ADD SWAP2 SWAP1 SWAP2 MSTORE DUP7 ADD MSTORE PUSH1 0x60 DUP6 ADD MSTORE PUSH1 0x1 PUSH1 0x1 PUSH1 0xA0 SHL SUB SWAP1 DUP2 AND SWAP5 AND SWAP3 LOG3 PUSH1 0x1 PUSH0 DUP1 MLOAD PUSH1 0x20 PUSH2 0x4B80 DUP4 CODECOPY DUP2 MLOAD SWAP2 MSTORE SSTORE STOP JUMPDEST PUSH2 0x2E61 SWAP2 PUSH0 SWAP2 DUP3 SWAP2 DUP3 SWAP2 DUP3 SWAP2 PUSH1 0x1 PUSH1 0x1 PUSH1 0xA0 SHL SUB AND GAS CALL PUSH2 0x735 PUSH2 0x3D0A JUMP JUMPDEST DUP12 DUP14 PUSH2 0x2DA0 JUMP JUMPDEST POP SELFBALANCE DUP2 GT ISZERO PUSH2 0x2D9B JUMP JUMPDEST SWAP2 PUSH2 0x2EA0 PUSH2 0x2EE9 SWAP5 SWAP3 PUSH2 0x2E94 DUP11 PUSH0 DUP1 MLOAD PUSH1 0x20 PUSH2 0x4B40 DUP4 CODECOPY DUP2 MLOAD SWAP2 MSTORE SWAP11 SWAP7 PUSH2 0x3AC6 JUMP JUMPDEST PUSH1 0x1 DUP7 ADD SSTORE DUP5 SLOAD PUSH2 0x3AC6 JUMP JUMPDEST DUP4 SSTORE TIMESTAMP SWAP1 SSTORE PUSH0 PUSH1 0x8 DUP4 ADD SSTORE DUP1 ISZERO ISZERO DUP1 PUSH2 0x2F12 JUMPI JUMPDEST PUSH2 0x2EF1 JUMPI JUMPDEST POP PUSH1 0x1 PUSH1 0xFF PUSH1 0x4 DUP4 ADD SLOAD AND SWAP2 ADD SLOAD SWAP7 PUSH1 0x40 MLOAD SWAP5 DUP6 SWAP5 PUSH1 0x1 DUP1 PUSH1 0xA0 SHL SUB AND SWAP9 DUP14 PUSH1 0x1 DUP1 PUSH1 0xA0 SHL SUB AND SWAP9 TIMESTAMP SWAP5 DUP8 PUSH2 0x4567 JUMP JUMPDEST SUB SWAP1 LOG3 PUSH2 0x2E07 JUMP JUMPDEST PUSH0 DUP1 DUP1 DUP1 PUSH2 0x2F0C SWAP5 PUSH1 0x1 DUP1 PUSH1 0xA0 SHL SUB DUP10 AND GAS CALL PUSH2 0x735 PUSH2 0x3D0A JUMP JUMPDEST DUP16 PUSH2 0x2EB9 JUMP JUMPDEST POP SELFBALANCE DUP2 GT ISZERO PUSH2 0x2EB4 JUMP JUMPDEST PUSH1 0x1 DUP1 PUSH1 0xA0 SHL SUB DUP13 AND PUSH0 MSTORE PUSH1 0xC PUSH1 0x20 MSTORE PUSH1 0x40 PUSH0 KECCAK256 PUSH2 0x2F3B DUP9 DUP3 SLOAD PUSH2 0x3AC6 JUMP JUMPDEST SWAP1 SSTORE PUSH2 0x2D72 JUMP JUMPDEST PUSH2 0x2F4B DUP8 PUSH2 0x3EE9 JUMP JUMPDEST DUP3 DUP2 LT PUSH2 0x2F5B JUMPI POP PUSH0 JUMPDEST SWAP2 PUSH2 0x2D43 JUMP JUMPDEST PUSH2 0x2F65 SWAP1 DUP4 PUSH2 0x3AC6 JUMP JUMPDEST PUSH2 0x2F55 JUMP JUMPDEST SWAP1 POP DUP1 PUSH2 0x2CE4 JUMP JUMPDEST PUSH0 DUP2 SLT PUSH2 0x2F80 JUMPI JUMPDEST POP PUSH2 0x2D13 JUMP JUMPDEST PUSH2 0x2F89 SWAP1 PUSH2 0x3EE9 JUMP JUMPDEST PUSH2 0x2F94 DUP2 DUP7 SLOAD PUSH2 0x39F4 JUMP JUMPDEST DUP6 SSTORE PUSH1 0x1 PUSH1 0x1 PUSH1 0xA0 SHL SUB DUP12 AND PUSH0 SWAP1 DUP2 MSTORE PUSH1 0xF PUSH1 0x20 MSTORE PUSH1 0x40 SWAP1 KECCAK256 DUP1 SLOAD SWAP2 SWAP1 DUP2 DUP4 LT ISZERO PUSH2 0x2FC1 JUMPI JUMPDEST POP POP PUSH2 0x2F7A JUMP JUMPDEST PUSH2 0x874 DUP3 PUSH2 0x2FCE SWAP5 PUSH2 0x3AC6 JUMP JUMPDEST PUSH1 0x11 SSTORE DUP15 DUP1 DUP1 PUSH2 0x2FBA JUMP JUMPDEST SWAP1 SWAP7 POP PUSH1 0x20 DUP2 RETURNDATASIZE PUSH1 0x20 GT PUSH2 0x3005 JUMPI JUMPDEST DUP2 PUSH2 0x2FF5 PUSH1 0x20 SWAP4 DUP4 PUSH2 0x3A01 JUMP JUMPDEST DUP2 ADD SUB SLT PUSH2 0x38E JUMPI MLOAD SWAP6 DUP10 PUSH2 0x2C1D JUMP JUMPDEST RETURNDATASIZE SWAP2 POP PUSH2 0x2FE8 JUMP JUMPDEST PUSH2 0x3020 PUSH0 DUP1 DUP1 DUP1 DUP9 CALLER GAS CALL PUSH2 0x11C2 PUSH2 0x3D0A JUMP JUMPDEST PUSH2 0x2B9D JUMP JUMPDEST POP SELFBALANCE DUP5 GT ISZERO PUSH2 0x2B98 JUMP JUMPDEST PUSH2 0x303B DUP5 DUP3 GT ISZERO PUSH2 0x3C90 JUMP JUMPDEST PUSH2 0x2B7A JUMP JUMPDEST DUP6 ISZERO PUSH2 0x3052 JUMPI PUSH2 0x303B DUP5 DUP3 GT ISZERO PUSH2 0x3CCD JUMP JUMPDEST PUSH2 0x303B DUP5 DUP3 LT ISZERO PUSH2 0x3C90 JUMP JUMPDEST PUSH1 0x40 MLOAD PUSH3 0x461BCD PUSH1 0xE5 SHL DUP2 MSTORE PUSH1 0x20 PUSH1 0x4 DUP3 ADD MSTORE PUSH1 0x7 PUSH1 0x24 DUP3 ADD MSTORE PUSH7 0x1B9BDD081CD95D PUSH1 0xCA SHL PUSH1 0x44 DUP3 ADD MSTORE PUSH1 0x64 SWAP1 REVERT JUMPDEST PUSH1 0x6 DUP2 ADD SLOAD SWAP3 PUSH2 0x2B57 JUMP JUMPDEST SWAP1 SWAP3 POP PUSH1 0x20 DUP2 RETURNDATASIZE PUSH1 0x20 GT PUSH2 0x30C4 JUMPI JUMPDEST DUP2 PUSH2 0x30B4 PUSH1 0x20 SWAP4 DUP4 PUSH2 0x3A01 JUMP JUMPDEST DUP2 ADD SUB SLT PUSH2 0x38E JUMPI MLOAD SWAP2 DUP7 PUSH2 0x2B35 JUMP JUMPDEST RETURNDATASIZE SWAP2 POP PUSH2 0x30A7 JUMP JUMPDEST PUSH1 0x40 MLOAD PUSH3 0x461BCD PUSH1 0xE5 SHL DUP2 MSTORE PUSH1 0x20 PUSH1 0x4 DUP3 ADD MSTORE PUSH1 0x7 PUSH1 0x24 DUP3 ADD MSTORE PUSH7 0x1B9BC81D1C1CDB PUSH1 0xCA SHL PUSH1 0x44 DUP3 ADD MSTORE PUSH1 0x64 SWAP1 REVERT JUMPDEST POP PUSH1 0xFF PUSH1 0x7 DUP4 ADD SLOAD AND PUSH2 0x2AF2 JUMP JUMPDEST CALLVALUE PUSH2 0x38E JUMPI PUSH1 0x60 CALLDATASIZE PUSH1 0x3 NOT ADD SLT PUSH2 0x38E JUMPI PUSH2 0x3122 PUSH2 0x3844 JUMP JUMPDEST PUSH1 0x24 CALLDATALOAD PUSH1 0x44 CALLDATALOAD CALLER PUSH0 MSTORE PUSH1 0x20 PUSH1 0xA DUP2 MSTORE PUSH1 0x40 PUSH0 KECCAK256 SWAP4 PUSH1 0x1 DUP1 PUSH1 0xA0 SHL SUB AND SWAP4 DUP5 PUSH0 MSTORE DUP2 MSTORE PUSH1 0x40 PUSH0 KECCAK256 PUSH1 0xFF PUSH1 0x4 DUP3 ADD SLOAD PUSH2 0x315D DUP3 DUP3 PUSH1 0x8 SHR AND PUSH2 0x3980 JUMP JUMPDEST AND ISZERO PUSH2 0x3266 JUMPI DUP4 ISZERO DUP1 ISZERO PUSH2 0x3259 JUMPI JUMPDEST ISZERO PUSH2 0x3222 JUMPI DUP3 ISZERO DUP1 ISZERO PUSH2 0x3215 JUMPI JUMPDEST ISZERO PUSH2 0x31DE JUMPI PUSH2 0x31A3 SWAP1 JUMPDEST DUP5 PUSH1 0x5 DUP3 ADD SSTORE DUP4 PUSH1 0x6 DUP3 ADD SSTORE DUP5 ISZERO SWAP1 DUP2 ISZERO SWAP2 PUSH2 0x31D4 JUMPI JUMPDEST PUSH1 0x7 ADD PUSH2 0x3C48 JUMP JUMPDEST PUSH1 0x40 MLOAD SWAP3 DUP4 MSTORE DUP3 ADD MSTORE PUSH32 0x6C6D28F5D331E789A81E2A85CA3C76CD34F609C9BC9D9CAA6CD309C7DD015FB4 PUSH1 0x40 CALLER SWAP3 LOG3 STOP JUMPDEST DUP5 ISZERO ISZERO SWAP2 POP PUSH2 0x319B JUMP JUMPDEST PUSH1 0x40 MLOAD PUSH3 0x461BCD PUSH1 0xE5 SHL DUP2 MSTORE PUSH1 0x4 DUP2 ADD DUP4 SWAP1 MSTORE PUSH1 0xF PUSH1 0x24 DUP3 ADD MSTORE PUSH15 0x534C206D757374203C20656E747279 PUSH1 0x88 SHL PUSH1 0x44 DUP3 ADD MSTORE PUSH1 0x64 SWAP1 REVERT JUMPDEST POP PUSH1 0x2 DUP2 ADD SLOAD DUP4 LT PUSH2 0x317A JUMP JUMPDEST PUSH1 0x40 MLOAD PUSH3 0x461BCD PUSH1 0xE5 SHL DUP2 MSTORE PUSH1 0x4 DUP2 ADD DUP4 SWAP1 MSTORE PUSH1 0xF PUSH1 0x24 DUP3 ADD MSTORE PUSH15 0x5450206D757374203E20656E747279 PUSH1 0x88 SHL PUSH1 0x44 DUP3 ADD MSTORE PUSH1 0x64 SWAP1 REVERT JUMPDEST POP PUSH1 0x2 DUP2 ADD SLOAD DUP5 GT PUSH2 0x316C JUMP JUMPDEST DUP4 ISZERO DUP1 ISZERO PUSH2 0x3306 JUMPI JUMPDEST ISZERO PUSH2 0x32CF JUMPI DUP3 ISZERO DUP1 ISZERO PUSH2 0x32C2 JUMPI JUMPDEST ISZERO PUSH2 0x328B JUMPI PUSH2 0x31A3 SWAP1 PUSH2 0x3184 JUMP JUMPDEST PUSH1 0x40 MLOAD PUSH3 0x461BCD PUSH1 0xE5 SHL DUP2 MSTORE PUSH1 0x4 DUP2 ADD DUP4 SWAP1 MSTORE PUSH1 0xF PUSH1 0x24 DUP3 ADD MSTORE PUSH15 0x534C206D757374203E20656E747279 PUSH1 0x88 SHL PUSH1 0x44 DUP3 ADD MSTORE PUSH1 0x64 SWAP1 REVERT JUMPDEST POP PUSH1 0x2 DUP2 ADD SLOAD DUP4 GT PUSH2 0x327D JUMP JUMPDEST PUSH1 0x40 MLOAD PUSH3 0x461BCD PUSH1 0xE5 SHL DUP2 MSTORE PUSH1 0x4 DUP2 ADD DUP4 SWAP1 MSTORE PUSH1 0xF PUSH1 0x24 DUP3 ADD MSTORE PUSH15 0x5450206D757374203C20656E747279 PUSH1 0x88 SHL PUSH1 0x44 DUP3 ADD MSTORE PUSH1 0x64 SWAP1 REVERT JUMPDEST POP PUSH1 0x2 DUP2 ADD SLOAD DUP5 LT PUSH2 0x326F JUMP JUMPDEST CALLVALUE PUSH2 0x38E JUMPI PUSH1 0x20 CALLDATASIZE PUSH1 0x3 NOT ADD SLT PUSH2 0x38E JUMPI PUSH2 0x332C PUSH2 0x3844 JUMP JUMPDEST PUSH2 0x3334 PUSH2 0x4539 JUMP JUMPDEST PUSH1 0x1 DUP1 PUSH1 0xA0 SHL SUB DUP1 SWAP2 AND SWAP1 DUP2 PUSH0 MSTORE PUSH1 0x13 PUSH1 0x20 MSTORE PUSH2 0x3357 PUSH1 0xFF PUSH1 0x40 PUSH0 KECCAK256 SLOAD AND PUSH2 0x3C0F JUMP JUMPDEST DUP1 PUSH1 0x14 SLOAD AND DUP3 EQ PUSH2 0x343F JUMPI PUSH0 DUP3 DUP2 MSTORE PUSH1 0x13 PUSH1 0x20 MSTORE PUSH1 0x40 DUP2 KECCAK256 DUP1 SLOAD PUSH1 0xFF NOT AND SWAP1 SSTORE JUMPDEST PUSH1 0x12 SWAP1 DUP2 SLOAD SWAP2 DUP3 DUP3 LT ISZERO PUSH2 0x3436 JUMPI DUP4 SWAP3 DUP6 PUSH2 0x3392 DUP5 PUSH2 0x38BB JUMP JUMPDEST SWAP7 SWAP1 SLOAD PUSH1 0x3 SWAP8 DUP9 SHL SHR AND EQ PUSH2 0x33AE JUMPI POP POP PUSH1 0x1 SWAP2 SWAP3 POP ADD PUSH2 0x3378 JUMP JUMPDEST SWAP1 SWAP3 SWAP2 PUSH0 NOT SWAP2 DUP1 DUP4 ADD SWAP2 SWAP1 DUP3 GT PUSH2 0x2052 JUMPI PUSH2 0x19C9 DUP5 PUSH2 0x33CF PUSH2 0x33DC SWAP5 PUSH2 0x38BB JUMP JUMPDEST SWAP1 SLOAD SWAP1 DUP10 SHL SHR AND SWAP2 PUSH2 0x38BB JUMP JUMPDEST DUP3 SLOAD DUP1 ISZERO PUSH2 0x3422 JUMPI ADD SWAP3 PUSH2 0x33EF DUP5 PUSH2 0x38BB JUMP JUMPDEST DUP2 SWAP4 SWAP2 SLOAD SWAP3 SHL SHL NOT AND SWAP1 SSTORE SSTORE JUMPDEST PUSH32 0x53F882E7AE7F246C0C12E357352713C90DA73CFBAA37ABCDC49697B332EFC927 PUSH0 DUP1 LOG2 STOP JUMPDEST PUSH4 0x4E487B71 PUSH1 0xE0 SHL PUSH0 MSTORE PUSH1 0x31 PUSH1 0x4 MSTORE PUSH1 0x24 PUSH0 REVERT JUMPDEST POP POP POP POP PUSH2 0x33FC JUMP JUMPDEST PUSH1 0x40 MLOAD PUSH3 0x461BCD PUSH1 0xE5 SHL DUP2 MSTORE PUSH1 0x20 PUSH1 0x4 DUP3 ADD MSTORE PUSH1 0x15 PUSH1 0x24 DUP3 ADD MSTORE PUSH21 0x18D85B9B9BDD0819195B1A5CDD08191959985D5B1D PUSH1 0x5A SHL PUSH1 0x44 DUP3 ADD MSTORE PUSH1 0x64 SWAP1 REVERT JUMPDEST CALLVALUE PUSH2 0x38E JUMPI PUSH0 CALLDATASIZE PUSH1 0x3 NOT ADD SLT PUSH2 0x38E JUMPI PUSH1 0x20 PUSH1 0x7 SLOAD PUSH1 0x40 MLOAD SWAP1 DUP2 MSTORE RETURN JUMPDEST CALLVALUE PUSH2 0x38E JUMPI PUSH1 0x20 CALLDATASIZE PUSH1 0x3 NOT ADD SLT PUSH2 0x38E JUMPI PUSH1 0x1 PUSH1 0x1 PUSH1 0xA0 SHL SUB PUSH2 0x34BA PUSH2 0x3844 JUMP JUMPDEST AND PUSH0 MSTORE PUSH1 0xC PUSH1 0x20 MSTORE PUSH1 0x20 PUSH1 0x40 PUSH0 KECCAK256 SLOAD PUSH1 0x40 MLOAD SWAP1 DUP2 MSTORE RETURN JUMPDEST CALLVALUE PUSH2 0x38E JUMPI PUSH1 0x20 DUP1 PUSH1 0x3 NOT CALLDATASIZE ADD SLT PUSH2 0x38E JUMPI PUSH2 0x34EB PUSH2 0x3844 JUMP JUMPDEST SWAP1 PUSH2 0x34F4 PUSH2 0x44ED JUMP JUMPDEST PUSH2 0x34FC PUSH2 0x451C JUMP JUMPDEST CALLER PUSH0 MSTORE PUSH1 0xA DUP2 MSTORE PUSH1 0x40 PUSH0 KECCAK256 SWAP2 PUSH1 0x24 PUSH1 0x1 DUP1 PUSH1 0xA0 SHL SUB SWAP2 DUP3 DUP2 AND SWAP5 DUP6 PUSH0 MSTORE DUP5 MSTORE PUSH1 0x1 PUSH1 0x40 PUSH0 KECCAK256 PUSH2 0x3534 PUSH1 0xFF PUSH1 0x4 DUP4 ADD SLOAD PUSH1 0x8 SHR AND PUSH2 0x3980 JUMP JUMPDEST ADD SLOAD SWAP3 CALLER PUSH0 MSTORE PUSH1 0xA DUP6 MSTORE PUSH1 0x40 PUSH0 KECCAK256 DUP7 PUSH0 MSTORE DUP6 MSTORE PUSH1 0x40 PUSH0 KECCAK256 SWAP1 DUP6 PUSH1 0x4 DUP4 ADD SWAP2 PUSH2 0x3562 PUSH1 0xFF DUP5 SLOAD PUSH1 0x8 SHR AND PUSH2 0x3980 JUMP JUMPDEST PUSH2 0x356B DUP6 PUSH2 0x4744 JUMP JUMPDEST PUSH1 0x1 SLOAD AND PUSH1 0x40 MLOAD SWAP6 DUP7 DUP1 SWAP3 PUSH4 0x41976E09 PUSH1 0xE0 SHL DUP3 MSTORE DUP12 PUSH1 0x4 DUP4 ADD MSTORE GAS STATICCALL SWAP4 DUP5 ISZERO PUSH2 0x8F2 JUMPI PUSH0 SWAP5 PUSH2 0x3613 JUMPI JUMPDEST POP PUSH2 0x35A2 DUP5 ISZERO ISZERO PUSH2 0x3C59 JUMP JUMPDEST PUSH2 0x35AB DUP4 PUSH2 0x4591 JUMP JUMPDEST PUSH8 0xDE0B6B3A7640000 DUP1 DUP7 MUL SWAP6 DUP1 DUP8 DIV DUP3 EQ DUP2 ISZERO OR ISZERO PUSH2 0x2052 JUMPI PUSH2 0x35D5 PUSH1 0x1 DUP6 ADD SWAP8 DUP9 SLOAD SWAP1 PUSH2 0x3AD3 JUMP JUMPDEST SWAP2 PUSH2 0x35E3 DUP8 PUSH2 0x5D8 DUP8 PUSH2 0x3A24 JUMP JUMPDEST DUP1 DUP5 MUL SWAP1 PUSH0 DUP2 SLT PUSH1 0x1 PUSH1 0xFF SHL DUP7 EQ AND PUSH2 0x2052 JUMPI DUP1 DUP3 SDIV DUP6 EQ SWAP1 ISZERO OR ISZERO PUSH2 0x2052 JUMPI DUP2 PUSH2 0x614 SWAP2 SDIV SWAP7 PUSH2 0x60F DUP8 PUSH2 0x3A24 JUMP JUMPDEST SWAP1 SWAP4 POP DUP6 DUP2 DUP2 RETURNDATASIZE DUP4 GT PUSH2 0x363B JUMPI JUMPDEST PUSH2 0x362B DUP2 DUP4 PUSH2 0x3A01 JUMP JUMPDEST DUP2 ADD SUB SLT PUSH2 0x38E JUMPI MLOAD SWAP3 DUP8 PUSH2 0x3596 JUMP JUMPDEST POP RETURNDATASIZE PUSH2 0x3621 JUMP JUMPDEST CALLVALUE PUSH2 0x38E JUMPI PUSH1 0x20 CALLDATASIZE PUSH1 0x3 NOT ADD SLT PUSH2 0x38E JUMPI PUSH1 0x4 CALLDATALOAD PUSH2 0x365E PUSH2 0x4539 JUMP JUMPDEST PUSH2 0x3671 PUSH7 0x38D7EA4C68000 DUP3 GT ISZERO PUSH2 0x3BD8 JUMP JUMPDEST PUSH1 0x6 SSTORE STOP JUMPDEST CALLVALUE PUSH2 0x38E JUMPI PUSH0 CALLDATASIZE PUSH1 0x3 NOT ADD SLT PUSH2 0x38E JUMPI PUSH1 0x40 MLOAD PUSH1 0x12 DUP1 SLOAD DUP1 DUP4 MSTORE PUSH0 SWAP2 DUP3 MSTORE PUSH1 0x20 DUP1 DUP5 ADD SWAP4 SWAP3 PUSH32 0xBB8A6A4669BA250D26CD7A459ECA9D215F8307E33AEBE50379BC5A3617EC3444 SWAP3 SWAP2 JUMPDEST DUP3 DUP3 LT PUSH2 0x36EA JUMPI PUSH2 0xBCE DUP6 PUSH2 0x36D6 DUP2 DUP10 SUB DUP3 PUSH2 0x3A01 JUMP JUMPDEST PUSH1 0x40 MLOAD SWAP2 DUP3 SWAP2 PUSH1 0x20 DUP4 MSTORE PUSH1 0x20 DUP4 ADD SWAP1 PUSH2 0x3870 JUMP JUMPDEST DUP4 SLOAD PUSH1 0x1 PUSH1 0x1 PUSH1 0xA0 SHL SUB AND DUP7 MSTORE SWAP5 DUP6 ADD SWAP5 PUSH1 0x1 SWAP4 DUP5 ADD SWAP4 SWAP1 SWAP2 ADD SWAP1 PUSH2 0x36BF JUMP JUMPDEST CALLVALUE PUSH2 0x38E JUMPI PUSH0 CALLDATASIZE PUSH1 0x3 NOT ADD SLT PUSH2 0x38E JUMPI PUSH1 0x20 PUSH1 0x15 SLOAD PUSH1 0x40 MLOAD SWAP1 DUP2 MSTORE RETURN JUMPDEST CALLVALUE PUSH2 0x38E JUMPI PUSH0 CALLDATASIZE PUSH1 0x3 NOT ADD SLT PUSH2 0x38E JUMPI PUSH1 0x20 PUSH1 0x11 SLOAD PUSH1 0x40 MLOAD SWAP1 DUP2 MSTORE RETURN JUMPDEST CALLVALUE PUSH2 0x38E JUMPI PUSH1 0x40 CALLDATASIZE PUSH1 0x3 NOT ADD SLT PUSH2 0x38E JUMPI PUSH1 0x20 PUSH2 0x971 PUSH2 0x3762 PUSH2 0x3844 JUMP JUMPDEST PUSH2 0x376A PUSH2 0x385A JUMP JUMPDEST SWAP1 PUSH2 0x3AF1 JUMP JUMPDEST PUSH1 0x20 CALLDATASIZE PUSH1 0x3 NOT ADD SLT PUSH2 0x38E JUMPI PUSH2 0x3784 PUSH2 0x3844 JUMP JUMPDEST PUSH2 0x378C PUSH2 0x44ED JUMP JUMPDEST PUSH2 0x3794 PUSH2 0x451C JUMP JUMPDEST CALLER PUSH0 MSTORE PUSH1 0xA PUSH1 0x20 MSTORE PUSH1 0x40 PUSH0 KECCAK256 SWAP1 PUSH1 0x1 DUP1 PUSH1 0xA0 SHL SUB AND SWAP1 DUP2 PUSH0 MSTORE PUSH1 0x20 MSTORE PUSH1 0x40 PUSH0 KECCAK256 PUSH2 0x37C7 PUSH1 0xFF PUSH1 0x4 DUP4 ADD SLOAD PUSH1 0x8 SHR AND PUSH2 0x3980 JUMP JUMPDEST PUSH2 0x37D2 CALLVALUE ISZERO ISZERO PUSH2 0x39BA JUMP JUMPDEST PUSH2 0x37DD CALLVALUE DUP3 SLOAD PUSH2 0x39F4 JUMP JUMPDEST DUP1 SWAP2 SSTORE PUSH1 0x40 MLOAD SWAP1 CALLVALUE DUP3 MSTORE PUSH1 0x20 DUP3 ADD MSTORE PUSH32 0x5EE4D5D52169C996164E259F1AAD282B3746303766EA2F71D42F3D0AAA9680A5 PUSH1 0x40 CALLER SWAP3 LOG3 PUSH1 0x1 PUSH0 DUP1 MLOAD PUSH1 0x20 PUSH2 0x4B80 DUP4 CODECOPY DUP2 MLOAD SWAP2 MSTORE SSTORE STOP JUMPDEST CALLVALUE PUSH2 0x38E JUMPI PUSH0 CALLDATASIZE PUSH1 0x3 NOT ADD SLT PUSH2 0x38E JUMPI DUP1 PUSH7 0xD529AE9E860000 PUSH1 0x20 SWAP3 MSTORE RETURN JUMPDEST PUSH1 0x4 CALLDATALOAD SWAP1 PUSH1 0x1 PUSH1 0x1 PUSH1 0xA0 SHL SUB DUP3 AND DUP3 SUB PUSH2 0x38E JUMPI JUMP JUMPDEST PUSH1 0x24 CALLDATALOAD SWAP1 PUSH1 0x1 PUSH1 0x1 PUSH1 0xA0 SHL SUB DUP3 AND DUP3 SUB PUSH2 0x38E JUMPI JUMP JUMPDEST SWAP1 DUP2 MLOAD DUP1 DUP3 MSTORE PUSH1 0x20 DUP1 DUP1 SWAP4 ADD SWAP4 ADD SWAP2 PUSH0 JUMPDEST DUP3 DUP2 LT PUSH2 0x388F JUMPI POP POP POP POP SWAP1 JUMP JUMPDEST DUP4 MLOAD PUSH1 0x1 PUSH1 0x1 PUSH1 0xA0 SHL SUB AND DUP6 MSTORE SWAP4 DUP2 ADD SWAP4 SWAP3 DUP2 ADD SWAP3 PUSH1 0x1 ADD PUSH2 0x3881 JUMP JUMPDEST PUSH1 0x24 CALLDATALOAD SWAP1 DUP2 ISZERO ISZERO DUP3 SUB PUSH2 0x38E JUMPI JUMP JUMPDEST PUSH1 0x12 SLOAD DUP2 LT ISZERO PUSH2 0x38D3 JUMPI PUSH1 0x12 PUSH0 MSTORE PUSH1 0x20 PUSH0 KECCAK256 ADD SWAP1 PUSH0 SWAP1 JUMP JUMPDEST PUSH4 0x4E487B71 PUSH1 0xE0 SHL PUSH0 MSTORE PUSH1 0x32 PUSH1 0x4 MSTORE PUSH1 0x24 PUSH0 REVERT JUMPDEST DUP1 SLOAD DUP3 LT ISZERO PUSH2 0x38D3 JUMPI PUSH0 MSTORE PUSH1 0x20 PUSH0 KECCAK256 ADD SWAP1 PUSH0 SWAP1 JUMP JUMPDEST PUSH1 0x15 SLOAD DUP2 LT ISZERO PUSH2 0x38D3 JUMPI PUSH1 0x15 PUSH0 MSTORE PUSH1 0x6 PUSH1 0x20 PUSH0 KECCAK256 SWAP2 MUL ADD SWAP1 PUSH0 SWAP1 JUMP JUMPDEST SWAP1 DUP2 MLOAD DUP1 DUP3 MSTORE PUSH1 0x20 DUP1 DUP1 SWAP4 ADD SWAP4 ADD SWAP2 PUSH0 JUMPDEST DUP3 DUP2 LT PUSH2 0x3937 JUMPI POP POP POP POP SWAP1 JUMP JUMPDEST DUP4 MLOAD DUP6 MSTORE SWAP4 DUP2 ADD SWAP4 SWAP3 DUP2 ADD SWAP3 PUSH1 0x1 ADD PUSH2 0x3929 JUMP JUMPDEST SWAP1 DUP2 MLOAD DUP1 DUP3 MSTORE PUSH1 0x20 DUP1 DUP1 SWAP4 ADD SWAP4 ADD SWAP2 PUSH0 JUMPDEST DUP3 DUP2 LT PUSH2 0x396A JUMPI POP POP POP POP SWAP1 JUMP JUMPDEST DUP4 MLOAD ISZERO ISZERO DUP6 MSTORE SWAP4 DUP2 ADD SWAP4 SWAP3 DUP2 ADD SWAP3 PUSH1 0x1 ADD PUSH2 0x395C JUMP JUMPDEST ISZERO PUSH2 0x3987 JUMPI JUMP JUMPDEST PUSH1 0x40 MLOAD PUSH3 0x461BCD PUSH1 0xE5 SHL DUP2 MSTORE PUSH1 0x20 PUSH1 0x4 DUP3 ADD MSTORE PUSH1 0xB PUSH1 0x24 DUP3 ADD MSTORE PUSH11 0x3737903837B9B4BA34B7B7 PUSH1 0xA9 SHL PUSH1 0x44 DUP3 ADD MSTORE PUSH1 0x64 SWAP1 REVERT JUMPDEST ISZERO PUSH2 0x39C1 JUMPI JUMP JUMPDEST PUSH1 0x40 MLOAD PUSH3 0x461BCD PUSH1 0xE5 SHL DUP2 MSTORE PUSH1 0x20 PUSH1 0x4 DUP3 ADD MSTORE PUSH1 0xB PUSH1 0x24 DUP3 ADD MSTORE PUSH11 0x3D32B9379036B0B933B4B7 PUSH1 0xA9 SHL PUSH1 0x44 DUP3 ADD MSTORE PUSH1 0x64 SWAP1 REVERT JUMPDEST SWAP2 SWAP1 DUP3 ADD DUP1 SWAP3 GT PUSH2 0x2052 JUMPI JUMP JUMPDEST PUSH1 0x1F SWAP1 SWAP2 ADD PUSH1 0x1F NOT AND DUP2 ADD SWAP1 PUSH1 0x1 PUSH1 0x1 PUSH1 0x40 SHL SUB DUP3 GT SWAP1 DUP3 LT OR PUSH2 0x1A2F JUMPI PUSH1 0x40 MSTORE JUMP JUMPDEST PUSH1 0x40 MLOAD SWAP1 SWAP2 SWAP1 PUSH2 0x140 DUP2 ADD PUSH1 0x1 PUSH1 0x1 PUSH1 0x40 SHL SUB DUP2 GT DUP3 DUP3 LT OR PUSH2 0x1A2F JUMPI PUSH1 0x40 MSTORE PUSH2 0x120 PUSH1 0x8 DUP3 SWAP5 DUP1 SLOAD DUP5 MSTORE PUSH1 0x1 DUP2 ADD SLOAD PUSH1 0x20 DUP6 ADD MSTORE PUSH1 0x2 DUP2 ADD SLOAD PUSH1 0x40 DUP6 ADD MSTORE PUSH1 0x3 DUP2 ADD SLOAD PUSH1 0x60 DUP6 ADD MSTORE PUSH1 0xFF PUSH1 0x4 DUP3 ADD SLOAD DUP2 DUP2 AND ISZERO ISZERO PUSH1 0x80 DUP8 ADD MSTORE DUP4 SHR AND ISZERO ISZERO PUSH1 0xA0 DUP6 ADD MSTORE PUSH1 0x5 DUP2 ADD SLOAD PUSH1 0xC0 DUP6 ADD MSTORE PUSH1 0x6 DUP2 ADD SLOAD PUSH1 0xE0 DUP6 ADD MSTORE PUSH1 0xFF PUSH1 0x7 DUP3 ADD SLOAD AND ISZERO ISZERO PUSH2 0x100 DUP6 ADD MSTORE ADD SLOAD SWAP2 ADD MSTORE JUMP JUMPDEST DUP2 DUP2 MUL SWAP3 SWAP2 DUP2 ISZERO SWAP2 DUP5 DIV EQ OR ISZERO PUSH2 0x2052 JUMPI JUMP JUMPDEST SWAP2 SWAP1 DUP3 SUB SWAP2 DUP3 GT PUSH2 0x2052 JUMPI JUMP JUMPDEST DUP2 ISZERO PUSH2 0x3ADD JUMPI DIV SWAP1 JUMP JUMPDEST PUSH4 0x4E487B71 PUSH1 0xE0 SHL PUSH0 MSTORE PUSH1 0x12 PUSH1 0x4 MSTORE PUSH1 0x24 PUSH0 REVERT JUMPDEST PUSH1 0x1 DUP1 PUSH1 0xA0 SHL SUB DUP1 SWAP2 AND PUSH0 MSTORE PUSH1 0xA PUSH1 0x20 MSTORE PUSH1 0x40 PUSH0 KECCAK256 SWAP2 AND PUSH0 MSTORE PUSH1 0x20 MSTORE PUSH2 0x3B19 PUSH1 0x40 PUSH0 KECCAK256 PUSH2 0x3A24 JUMP JUMPDEST PUSH1 0xA0 DUP2 ADD MLOAD ISZERO PUSH2 0x3BD3 JUMPI DUP1 MLOAD DUP1 ISZERO PUSH2 0x3B81 JUMPI PUSH1 0x80 DUP3 ADD MLOAD PUSH1 0x20 SWAP2 SWAP1 ISZERO PUSH2 0x3B87 JUMPI PUSH2 0x3B47 SWAP1 PUSH1 0x40 DUP5 ADD MLOAD PUSH2 0x3AB3 JUMP JUMPDEST SWAP2 ADD MLOAD PUSH8 0xEB5E06245EA0000 SWAP1 DUP2 DUP2 MUL SWAP2 DUP2 DUP4 DIV EQ SWAP1 ISZERO OR ISZERO PUSH2 0x2052 JUMPI PUSH8 0xDE0B6B3A7640000 SWAP1 DIV DUP1 ISZERO PUSH2 0x3B81 JUMPI PUSH2 0x3B7E SWAP2 PUSH2 0x3AD3 JUMP JUMPDEST SWAP1 JUMP JUMPDEST POP POP PUSH0 SWAP1 JUMP JUMPDEST PUSH2 0x3B95 SWAP1 PUSH1 0x40 DUP5 ADD MLOAD PUSH2 0x3AB3 JUMP JUMPDEST SWAP2 ADD MLOAD PUSH8 0xD0B8D0508DE0000 SWAP1 DUP2 DUP2 MUL SWAP2 DUP2 DUP4 DIV EQ SWAP1 ISZERO OR ISZERO PUSH2 0x2052 JUMPI PUSH8 0xDE0B6B3A7640000 SWAP1 DIV DUP1 ISZERO PUSH2 0x3BCC JUMPI PUSH2 0x3B7E SWAP2 PUSH2 0x3AD3 JUMP JUMPDEST POP POP PUSH0 NOT SWAP1 JUMP JUMPDEST POP PUSH0 SWAP1 JUMP JUMPDEST ISZERO PUSH2 0x3BDF JUMPI JUMP JUMPDEST PUSH1 0x40 MLOAD PUSH3 0x461BCD PUSH1 0xE5 SHL DUP2 MSTORE PUSH1 0x20 PUSH1 0x4 DUP3 ADD MSTORE PUSH1 0x8 PUSH1 0x24 DUP3 ADD MSTORE PUSH8 0xE8DEDE40D0D2CED PUSH1 0xC3 SHL PUSH1 0x44 DUP3 ADD MSTORE PUSH1 0x64 SWAP1 REVERT JUMPDEST ISZERO PUSH2 0x3C16 JUMPI JUMP JUMPDEST PUSH1 0x40 MLOAD PUSH3 0x461BCD PUSH1 0xE5 SHL DUP2 MSTORE PUSH1 0x20 PUSH1 0x4 DUP3 ADD MSTORE PUSH1 0xA PUSH1 0x24 DUP3 ADD MSTORE PUSH10 0x1B9BDD081B1A5CDD1959 PUSH1 0xB2 SHL PUSH1 0x44 DUP3 ADD MSTORE PUSH1 0x64 SWAP1 REVERT JUMPDEST SWAP1 PUSH1 0xFF DUP1 NOT DUP4 SLOAD AND SWAP2 ISZERO ISZERO AND OR SWAP1 SSTORE JUMP JUMPDEST ISZERO PUSH2 0x3C60 JUMPI JUMP JUMPDEST PUSH1 0x40 MLOAD PUSH3 0x461BCD PUSH1 0xE5 SHL DUP2 MSTORE PUSH1 0x20 PUSH1 0x4 DUP3 ADD MSTORE PUSH1 0x8 PUSH1 0x24 DUP3 ADD MSTORE PUSH8 0x6E6F207072696365 PUSH1 0xC0 SHL PUSH1 0x44 DUP3 ADD MSTORE PUSH1 0x64 SWAP1 REVERT JUMPDEST ISZERO PUSH2 0x3C97 JUMPI JUMP JUMPDEST PUSH1 0x40 MLOAD PUSH3 0x461BCD PUSH1 0xE5 SHL DUP2 MSTORE PUSH1 0x20 PUSH1 0x4 DUP3 ADD MSTORE PUSH1 0xE PUSH1 0x24 DUP3 ADD MSTORE PUSH14 0x14D3081B9BDD081C995858DA1959 PUSH1 0x92 SHL PUSH1 0x44 DUP3 ADD MSTORE PUSH1 0x64 SWAP1 REVERT JUMPDEST ISZERO PUSH2 0x3CD4 JUMPI JUMP JUMPDEST PUSH1 0x40 MLOAD PUSH3 0x461BCD PUSH1 0xE5 SHL DUP2 MSTORE PUSH1 0x20 PUSH1 0x4 DUP3 ADD MSTORE PUSH1 0xE PUSH1 0x24 DUP3 ADD MSTORE PUSH14 0x1514081B9BDD081C995858DA1959 PUSH1 0x92 SHL PUSH1 0x44 DUP3 ADD MSTORE PUSH1 0x64 SWAP1 REVERT JUMPDEST RETURNDATASIZE ISZERO PUSH2 0x3D43 JUMPI RETURNDATASIZE SWAP1 PUSH1 0x1 PUSH1 0x1 PUSH1 0x40 SHL SUB DUP3 GT PUSH2 0x1A2F JUMPI PUSH1 0x40 MLOAD SWAP2 PUSH2 0x3D38 PUSH1 0x1F DUP3 ADD PUSH1 0x1F NOT AND PUSH1 0x20 ADD DUP5 PUSH2 0x3A01 JUMP JUMPDEST DUP3 MSTORE RETURNDATASIZE PUSH0 PUSH1 0x20 DUP5 ADD RETURNDATACOPY JUMP JUMPDEST PUSH1 0x60 SWAP1 JUMP JUMPDEST ISZERO PUSH2 0x3D4F JUMPI JUMP JUMPDEST PUSH1 0x40 MLOAD PUSH3 0x461BCD PUSH1 0xE5 SHL DUP2 MSTORE PUSH1 0x20 PUSH1 0x4 DUP3 ADD MSTORE PUSH1 0x16 PUSH1 0x24 DUP3 ADD MSTORE PUSH22 0x195E1958DD5D1BDC881C995DD85C990819985A5B1959 PUSH1 0x52 SHL PUSH1 0x44 DUP3 ADD MSTORE PUSH1 0x64 SWAP1 REVERT JUMPDEST ISZERO PUSH2 0x3D94 JUMPI JUMP JUMPDEST PUSH1 0x40 MLOAD PUSH3 0x461BCD PUSH1 0xE5 SHL DUP2 MSTORE PUSH1 0x20 PUSH1 0x4 DUP3 ADD MSTORE PUSH1 0x10 PUSH1 0x24 DUP3 ADD MSTORE PUSH16 0x696E76616C6964206C65766572616765 PUSH1 0x80 SHL PUSH1 0x44 DUP3 ADD MSTORE PUSH1 0x64 SWAP1 REVERT JUMPDEST ISZERO PUSH2 0x3DD3 JUMPI JUMP JUMPDEST PUSH1 0x40 MLOAD PUSH3 0x461BCD PUSH1 0xE5 SHL DUP2 MSTORE PUSH1 0x20 PUSH1 0x4 DUP3 ADD MSTORE PUSH1 0x13 PUSH1 0x24 DUP3 ADD MSTORE PUSH19 0x34B739BAB33334B1B4B2B73A1036B0B933B4B7 PUSH1 0x69 SHL PUSH1 0x44 DUP3 ADD MSTORE PUSH1 0x64 SWAP1 REVERT JUMPDEST ISZERO PUSH2 0x3E15 JUMPI JUMP JUMPDEST PUSH1 0x40 MLOAD PUSH3 0x461BCD PUSH1 0xE5 SHL DUP2 MSTORE PUSH1 0x20 PUSH1 0x4 DUP3 ADD MSTORE PUSH1 0x19 PUSH1 0x24 DUP3 ADD MSTORE PUSH25 0x746F6B656E206E6F74206C697374656420666F72207065727 PUSH1 0x3C SHL PUSH1 0x44 DUP3 ADD MSTORE PUSH1 0x64 SWAP1 REVERT JUMPDEST ISZERO PUSH2 0x3E5D JUMPI JUMP JUMPDEST PUSH1 0x40 MLOAD PUSH3 0x461BCD PUSH1 0xE5 SHL DUP2 MSTORE PUSH1 0x20 PUSH1 0x4 DUP3 ADD MSTORE PUSH1 0x1D PUSH1 0x24 DUP3 ADD MSTORE PUSH32 0x636C6F7365206578697374696E6720706F736974696F6E206669727374000000 PUSH1 0x44 DUP3 ADD MSTORE PUSH1 0x64 SWAP1 REVERT JUMPDEST PUSH1 0x1 PUSH1 0x1 PUSH1 0xA0 SHL SUB AND PUSH0 DUP2 DUP2 MSTORE PUSH1 0xE PUSH1 0x20 MSTORE PUSH1 0x40 SWAP1 KECCAK256 SLOAD ISZERO PUSH2 0x3ED9 JUMPI PUSH0 MSTORE PUSH1 0xE PUSH1 0x20 MSTORE PUSH1 0x40 PUSH0 KECCAK256 SLOAD PUSH2 0x7080 DUP2 ADD DUP1 SWAP2 GT PUSH2 0x2052 JUMPI SWAP1 JUMP JUMPDEST POP PUSH2 0x7080 TIMESTAMP ADD DUP1 TIMESTAMP GT PUSH2 0x2052 JUMPI SWAP1 JUMP JUMPDEST PUSH1 0x1 PUSH1 0xFF SHL DUP2 EQ PUSH2 0x2052 JUMPI PUSH0 SUB SWAP1 JUMP JUMPDEST PUSH1 0x8 PUSH0 SWAP2 DUP3 DUP2 SSTORE DUP3 PUSH1 0x1 DUP3 ADD SSTORE DUP3 PUSH1 0x2 DUP3 ADD SSTORE DUP3 PUSH1 0x3 DUP3 ADD SSTORE DUP3 PUSH1 0x4 DUP3 ADD SSTORE DUP3 PUSH1 0x5 DUP3 ADD SSTORE DUP3 PUSH1 0x6 DUP3 ADD SSTORE DUP3 PUSH1 0x7 DUP3 ADD SSTORE ADD SSTORE JUMP JUMPDEST PUSH1 0x1 DUP1 PUSH1 0xA0 SHL SUB DUP1 SWAP2 AND PUSH0 MSTORE PUSH1 0x20 SWAP1 PUSH1 0xA DUP3 MSTORE DUP1 PUSH1 0x40 PUSH0 KECCAK256 SWAP4 AND SWAP3 DUP4 PUSH0 MSTORE DUP3 MSTORE PUSH2 0x3F5A PUSH1 0x40 PUSH0 KECCAK256 PUSH2 0x3A24 JUMP JUMPDEST SWAP1 PUSH1 0xA0 DUP3 ADD MLOAD ISZERO PUSH2 0x3FD1 JUMPI DUP3 SWAP1 PUSH1 0x1 SLOAD AND SWAP4 PUSH1 0x24 PUSH1 0x40 MLOAD DUP1 SWAP7 DUP2 SWAP4 PUSH4 0x41976E09 PUSH1 0xE0 SHL DUP4 MSTORE PUSH1 0x4 DUP4 ADD MSTORE GAS STATICCALL SWAP2 DUP3 ISZERO PUSH2 0x8F2 JUMPI PUSH0 SWAP3 PUSH2 0x3F9F JUMPI JUMPDEST POP PUSH2 0x3B7E SWAP3 POP PUSH2 0x4961 JUMP JUMPDEST SWAP1 SWAP2 POP DUP3 DUP2 RETURNDATASIZE DUP4 GT PUSH2 0x3FCA JUMPI JUMPDEST PUSH2 0x3FB6 DUP2 DUP4 PUSH2 0x3A01 JUMP JUMPDEST DUP2 ADD SUB SLT PUSH2 0x38E JUMPI PUSH2 0x3B7E SWAP2 MLOAD SWAP1 PUSH0 PUSH2 0x3F94 JUMP JUMPDEST POP RETURNDATASIZE PUSH2 0x3FAC JUMP JUMPDEST POP POP POP POP PUSH0 SWAP1 JUMP JUMPDEST ISZERO PUSH2 0x3FE0 JUMPI JUMP JUMPDEST PUSH1 0x40 MLOAD PUSH3 0x461BCD PUSH1 0xE5 SHL DUP2 MSTORE PUSH1 0x20 PUSH1 0x4 DUP3 ADD MSTORE PUSH1 0xD PUSH1 0x24 DUP3 ADD MSTORE PUSH13 0x34B73B30B634B21037B93232B9 PUSH1 0x99 SHL PUSH1 0x44 DUP3 ADD MSTORE PUSH1 0x64 SWAP1 REVERT JUMPDEST ISZERO PUSH2 0x401C JUMPI JUMP JUMPDEST PUSH1 0x40 MLOAD PUSH3 0x461BCD PUSH1 0xE5 SHL DUP2 MSTORE PUSH1 0x20 PUSH1 0x4 DUP3 ADD MSTORE PUSH1 0x10 PUSH1 0x24 DUP3 ADD MSTORE PUSH16 0x6F72646572206E6F7420616374697665 PUSH1 0x80 SHL PUSH1 0x44 DUP3 ADD MSTORE PUSH1 0x64 SWAP1 REVERT JUMPDEST ISZERO PUSH2 0x405B JUMPI JUMP JUMPDEST PUSH1 0x40 MLOAD PUSH3 0x461BCD PUSH1 0xE5 SHL DUP2 MSTORE PUSH1 0x20 PUSH1 0x4 DUP3 ADD MSTORE PUSH1 0xF PUSH1 0x24 DUP3 ADD MSTORE PUSH15 0x1D1C985B9CD9995C8819985A5B1959 PUSH1 0x8A SHL PUSH1 0x44 DUP3 ADD MSTORE PUSH1 0x64 SWAP1 REVERT JUMPDEST ISZERO PUSH2 0x4099 JUMPI JUMP JUMPDEST PUSH1 0x40 MLOAD PUSH3 0x461BCD PUSH1 0xE5 SHL DUP2 MSTORE PUSH1 0x20 PUSH1 0x4 DUP3 ADD MSTORE PUSH1 0x11 PUSH1 0x24 DUP3 ADD MSTORE PUSH17 0x1C1C9A58D9481B9BDD081C995858DA1959 PUSH1 0x7A SHL PUSH1 0x44 DUP3 ADD MSTORE PUSH1 0x64 SWAP1 REVERT JUMPDEST ISZERO PUSH2 0x40D9 JUMPI JUMP JUMPDEST PUSH1 0x40 MLOAD PUSH3 0x461BCD PUSH1 0xE5 SHL DUP2 MSTORE PUSH1 0x20 PUSH1 0x4 DUP3 ADD MSTORE PUSH1 0x13 PUSH1 0x24 DUP3 ADD MSTORE PUSH19 0x199959481D1C985B9CD9995C8819985A5B1959 PUSH1 0x6A SHL PUSH1 0x44 DUP3 ADD MSTORE PUSH1 0x64 SWAP1 REVERT JUMPDEST SWAP2 SWAP3 PUSH1 0x80 SWAP4 SWAP7 SWAP6 SWAP5 SWAP2 SWAP7 PUSH1 0xA0 DUP5 ADD SWAP8 ISZERO ISZERO DUP5 MSTORE PUSH1 0x20 DUP5 ADD MSTORE PUSH1 0x40 DUP4 ADD MSTORE PUSH1 0x60 DUP3 ADD MSTORE ADD MSTORE JUMP JUMPDEST PUSH1 0x1 DUP1 PUSH1 0xA0 SHL SUB DUP1 SWAP2 AND DUP1 PUSH0 MSTORE PUSH1 0x20 SWAP3 PUSH1 0xA DUP5 MSTORE PUSH1 0x40 SWAP1 DUP4 DUP3 PUSH0 KECCAK256 SWAP2 AND SWAP1 DUP2 PUSH0 MSTORE DUP6 MSTORE PUSH2 0x4168 DUP3 PUSH0 KECCAK256 PUSH2 0x3A24 JUMP JUMPDEST SWAP4 PUSH1 0xA0 DUP6 ADD MLOAD ISZERO PUSH2 0x42D1 JUMPI DUP3 MLOAD SWAP4 PUSH3 0x30CF69 PUSH1 0xE7 SHL DUP6 MSTORE PUSH1 0x4 DUP6 ADD MSTORE DUP2 PUSH1 0x24 DUP6 ADD MSTORE DUP6 DUP5 PUSH1 0x44 DUP2 ADDRESS GAS STATICCALL SWAP4 DUP5 ISZERO PUSH2 0x42C7 JUMPI SWAP1 DUP7 SWAP2 PUSH0 SWAP6 PUSH2 0x4296 JUMPI JUMPDEST POP PUSH1 0x1 SLOAD AND SWAP2 PUSH1 0x24 DUP5 MLOAD DUP1 SWAP5 DUP2 SWAP4 PUSH4 0x41976E09 PUSH1 0xE0 SHL DUP4 MSTORE PUSH1 0x4 DUP4 ADD MSTORE GAS STATICCALL SWAP5 DUP6 ISZERO PUSH2 0x428C JUMPI PUSH0 SWAP6 PUSH2 0x425C JUMPI JUMPDEST POP POP DUP4 ISZERO PUSH2 0x3FD1 JUMPI PUSH1 0x80 DUP4 ADD MLOAD ISZERO PUSH2 0x4230 JUMPI DUP2 DUP5 GT ISZERO PUSH2 0x3FD1 JUMPI PUSH2 0x4209 SWAP3 ADD MLOAD DUP2 DUP1 DUP3 GT PUSH0 EQ PUSH2 0x4226 JUMPI PUSH2 0x4203 SWAP2 PUSH2 0x3AC6 JUMP JUMPDEST SWAP3 PUSH2 0x3AC6 JUMP JUMPDEST SWAP1 PUSH1 0x64 DUP3 MUL SWAP2 DUP1 DUP4 DIV PUSH1 0x64 EQ SWAP1 ISZERO OR ISZERO PUSH2 0x2052 JUMPI PUSH2 0x3B7E SWAP2 PUSH2 0x3AD3 JUMP JUMPDEST POP POP PUSH1 0x1 SWAP3 PUSH2 0x3AC6 JUMP JUMPDEST DUP2 DUP5 SWAP3 SWAP5 LT ISZERO PUSH2 0x3FD1 JUMPI PUSH2 0x4209 SWAP3 ADD MLOAD DUP1 DUP5 GT PUSH0 EQ PUSH2 0x4253 JUMPI PUSH2 0x4203 SWAP1 DUP5 PUSH2 0x3AC6 JUMP JUMPDEST POP PUSH1 0x1 SWAP3 PUSH2 0x3AC6 JUMP JUMPDEST SWAP1 DUP1 SWAP3 SWAP6 POP DUP2 RETURNDATASIZE DUP4 GT PUSH2 0x4285 JUMPI JUMPDEST PUSH2 0x4274 DUP2 DUP4 PUSH2 0x3A01 JUMP JUMPDEST DUP2 ADD SUB SLT PUSH2 0x38E JUMPI MLOAD SWAP3 PUSH0 DUP1 PUSH2 0x41D0 JUMP JUMPDEST POP RETURNDATASIZE PUSH2 0x426A JUMP JUMPDEST DUP3 MLOAD RETURNDATASIZE PUSH0 DUP3 RETURNDATACOPY RETURNDATASIZE SWAP1 REVERT JUMPDEST DUP3 DUP2 SWAP4 SWAP3 SWAP7 POP RETURNDATASIZE DUP4 GT PUSH2 0x42C0 JUMPI JUMPDEST PUSH2 0x42AE DUP2 DUP4 PUSH2 0x3A01 JUMP JUMPDEST DUP2 ADD SUB SLT PUSH2 0x38E JUMPI DUP6 SWAP1 MLOAD SWAP4 PUSH0 PUSH2 0x41A3 JUMP JUMPDEST POP RETURNDATASIZE PUSH2 0x42A4 JUMP JUMPDEST DUP4 MLOAD RETURNDATASIZE PUSH0 DUP3 RETURNDATACOPY RETURNDATASIZE SWAP1 REVERT JUMPDEST POP POP POP POP POP POP PUSH1 0x64 SWAP1 JUMP JUMPDEST PUSH1 0x1 PUSH1 0x1 PUSH1 0x40 SHL SUB DUP2 GT PUSH2 0x1A2F JUMPI PUSH1 0x5 SHL PUSH1 0x20 ADD SWAP1 JUMP JUMPDEST SWAP1 PUSH2 0x42FD DUP3 PUSH2 0x42DC JUMP JUMPDEST PUSH2 0x430A PUSH1 0x40 MLOAD SWAP2 DUP3 PUSH2 0x3A01 JUMP JUMPDEST DUP3 DUP2 MSTORE DUP1 SWAP3 PUSH2 0x431B PUSH1 0x1F NOT SWAP2 PUSH2 0x42DC JUMP JUMPDEST ADD SWAP1 PUSH1 0x20 CALLDATASIZE SWAP2 ADD CALLDATACOPY JUMP JUMPDEST DUP1 MLOAD DUP3 LT ISZERO PUSH2 0x38D3 JUMPI PUSH1 0x20 SWAP2 PUSH1 0x5 SHL ADD ADD SWAP1 JUMP JUMPDEST PUSH1 0x1 DUP1 PUSH1 0xA0 SHL SUB AND PUSH0 MSTORE PUSH1 0xB PUSH1 0x20 MSTORE PUSH1 0x40 PUSH0 KECCAK256 SLOAD PUSH1 0xC PUSH1 0x20 MSTORE PUSH1 0x40 PUSH0 KECCAK256 SLOAD SWAP1 DUP1 ISZERO SWAP2 DUP3 DUP1 SWAP4 PUSH2 0x4439 JUMPI JUMPDEST PUSH2 0x4432 JUMPI DUP1 DUP3 GT ISZERO PUSH2 0x43C5 JUMPI PUSH8 0xDE0B6B3A7640000 SWAP3 DUP4 DUP4 MUL SWAP3 DUP4 DIV DUP5 EQ OR ISZERO PUSH2 0x2052 JUMPI PUSH2 0x43A3 SWAP2 PUSH2 0x439B SWAP2 DUP1 ISZERO PUSH2 0x43BC JUMPI SWAP1 PUSH2 0x3AD3 JUMP JUMPDEST PUSH1 0x6 SLOAD PUSH2 0x3AB3 JUMP JUMPDEST DIV PUSH7 0x38D7EA4C68000 DUP1 DUP3 SGT PUSH2 0x43B7 JUMPI POP SWAP1 JUMP JUMPDEST SWAP1 POP SWAP1 JUMP JUMPDEST POP PUSH1 0x1 SWAP1 PUSH2 0x3AD3 JUMP JUMPDEST SWAP2 SWAP1 DUP1 DUP4 GT PUSH2 0x43D5 JUMPI POP POP POP PUSH0 SWAP1 JUMP JUMPDEST PUSH8 0xDE0B6B3A7640000 SWAP2 DUP3 DUP5 MUL SWAP4 DUP1 DUP6 DIV DUP5 EQ SWAP1 ISZERO OR ISZERO PUSH2 0x2052 JUMPI PUSH2 0x440C SWAP4 PUSH2 0x4406 SWAP3 PUSH2 0x439B SWAP3 PUSH2 0x43BC JUMPI SWAP1 PUSH2 0x3AD3 JUMP JUMPDEST DIV PUSH2 0x3EE9 JUMP JUMPDEST PUSH7 0x38D7EA4C68000 PUSH2 0x441D DUP3 PUSH2 0x3EE9 JUMP JUMPDEST SGT PUSH2 0x4425 JUMPI SWAP1 JUMP JUMPDEST POP PUSH7 0x38D7EA4C67FFF NOT SWAP1 JUMP JUMPDEST POP POP POP PUSH0 SWAP1 JUMP JUMPDEST POP DUP1 ISZERO PUSH2 0x4363 JUMP JUMPDEST PUSH1 0x1 DUP1 PUSH1 0xA0 SHL SUB DUP1 SWAP2 AND PUSH0 MSTORE PUSH1 0x20 SWAP1 PUSH1 0xA DUP3 MSTORE DUP1 PUSH1 0x40 PUSH0 KECCAK256 SWAP4 AND SWAP3 DUP4 PUSH0 MSTORE DUP3 MSTORE PUSH2 0x446D PUSH1 0x40 PUSH0 KECCAK256 PUSH2 0x3A24 JUMP JUMPDEST SWAP1 PUSH1 0xA0 DUP3 ADD MLOAD ISZERO PUSH2 0x44E4 JUMPI DUP3 SWAP1 PUSH1 0x1 SLOAD AND SWAP4 PUSH1 0x24 PUSH1 0x40 MLOAD DUP1 SWAP7 DUP2 SWAP4 PUSH4 0x41976E09 PUSH1 0xE0 SHL DUP4 MSTORE PUSH1 0x4 DUP4 ADD MSTORE GAS STATICCALL SWAP2 DUP3 ISZERO PUSH2 0x8F2 JUMPI PUSH0 SWAP3 PUSH2 0x44B2 JUMPI JUMPDEST POP PUSH2 0x3B7E SWAP3 POP PUSH2 0x4686 JUMP JUMPDEST SWAP1 SWAP2 POP DUP3 DUP2 RETURNDATASIZE DUP4 GT PUSH2 0x44DD JUMPI JUMPDEST PUSH2 0x44C9 DUP2 DUP4 PUSH2 0x3A01 JUMP JUMPDEST DUP2 ADD SUB SLT PUSH2 0x38E JUMPI PUSH2 0x3B7E SWAP2 MLOAD SWAP1 PUSH0 PUSH2 0x44A7 JUMP JUMPDEST POP RETURNDATASIZE PUSH2 0x44BF JUMP JUMPDEST POP POP POP POP PUSH0 NOT SWAP1 JUMP JUMPDEST PUSH0 DUP1 MLOAD PUSH1 0x20 PUSH2 0x4B80 DUP4 CODECOPY DUP2 MLOAD SWAP2 MSTORE PUSH1 0x2 DUP2 SLOAD EQ PUSH2 0x450A JUMPI PUSH1 0x2 SWAP1 SSTORE JUMP JUMPDEST PUSH1 0x40 MLOAD PUSH4 0x3EE5AEB5 PUSH1 0xE0 SHL DUP2 MSTORE PUSH1 0x4 SWAP1 REVERT JUMPDEST PUSH1 0xFF PUSH0 SLOAD AND PUSH2 0x4527 JUMPI JUMP JUMPDEST PUSH1 0x40 MLOAD PUSH4 0xD93C0665 PUSH1 0xE0 SHL DUP2 MSTORE PUSH1 0x4 SWAP1 REVERT JUMPDEST PUSH0 SLOAD PUSH1 0x8 SHR PUSH1 0x1 PUSH1 0x1 PUSH1 0xA0 SHL SUB AND CALLER SUB PUSH2 0x454F JUMPI JUMP JUMPDEST PUSH1 0x40 MLOAD PUSH4 0x118CDAA7 PUSH1 0xE0 SHL DUP2 MSTORE CALLER PUSH1 0x4 DUP3 ADD MSTORE PUSH1 0x24 SWAP1 REVERT JUMPDEST SWAP3 PUSH1 0xA0 SWAP5 SWAP2 SWAP8 SWAP7 SWAP6 SWAP3 PUSH1 0xC0 DUP6 ADD SWAP9 ISZERO ISZERO DUP6 MSTORE PUSH1 0x20 DUP6 ADD MSTORE PUSH1 0x40 DUP5 ADD MSTORE PUSH1 0x60 DUP4 ADD MSTORE PUSH1 0x80 DUP3 ADD MSTORE ADD MSTORE JUMP JUMPDEST PUSH1 0x1 SLOAD PUSH1 0x40 MLOAD PUSH4 0x85F89EEF PUSH1 0xE0 SHL DUP2 MSTORE PUSH1 0x1 PUSH1 0x1 PUSH1 0xA0 SHL SUB SWAP3 DUP4 AND PUSH1 0x4 DUP3 ADD MSTORE PUSH1 0x20 SWAP3 SWAP1 SWAP2 DUP4 SWAP2 DUP4 SWAP2 PUSH1 0x24 SWAP2 DUP4 SWAP2 AND GAS STATICCALL SWAP1 DUP2 ISZERO PUSH2 0x8F2 JUMPI PUSH0 SWAP2 PUSH2 0x4659 JUMPI JUMPDEST POP DUP1 ISZERO PUSH2 0x461E JUMPI PUSH2 0x45E4 PUSH2 0x12C SWAP2 TIMESTAMP PUSH2 0x3AC6 JUMP JUMPDEST GT PUSH2 0x45EC JUMPI POP JUMP JUMPDEST PUSH1 0x64 SWAP1 PUSH1 0x40 MLOAD SWAP1 PUSH3 0x461BCD PUSH1 0xE5 SHL DUP3 MSTORE PUSH1 0x4 DUP3 ADD MSTORE PUSH1 0xB PUSH1 0x24 DUP3 ADD MSTORE PUSH11 0x7072696365207374616C65 PUSH1 0xA8 SHL PUSH1 0x44 DUP3 ADD MSTORE REVERT JUMPDEST PUSH1 0x40 MLOAD PUSH3 0x461BCD PUSH1 0xE5 SHL DUP2 MSTORE PUSH1 0x4 DUP2 ADD DUP4 SWAP1 MSTORE PUSH1 0x13 PUSH1 0x24 DUP3 ADD MSTORE PUSH19 0x1C1C9A58D9481B995D995C881D5C19185D1959 PUSH1 0x6A SHL PUSH1 0x44 DUP3 ADD MSTORE PUSH1 0x64 SWAP1 REVERT JUMPDEST SWAP1 POP DUP2 DUP2 DUP2 RETURNDATASIZE DUP4 GT PUSH2 0x467F JUMPI JUMPDEST PUSH2 0x4670 DUP2 DUP4 PUSH2 0x3A01 JUMP JUMPDEST DUP2 ADD SUB SLT PUSH2 0x38E JUMPI MLOAD PUSH0 PUSH2 0x45D0 JUMP JUMPDEST POP RETURNDATASIZE PUSH2 0x4666 JUMP JUMPDEST PUSH2 0x4690 DUP3 DUP3 PUSH2 0x4961 JUMP JUMPDEST PUSH1 0x80 DUP3 ADD MLOAD SWAP1 SWAP3 SWAP1 ISZERO PUSH2 0x4722 JUMPI PUSH2 0x46AE PUSH2 0x46B9 SWAP2 PUSH1 0x20 DUP5 ADD MLOAD PUSH2 0x3AB3 JUMP JUMPDEST PUSH1 0x40 DUP4 ADD MLOAD SWAP1 PUSH2 0x3AD3 JUMP JUMPDEST SWAP2 JUMPDEST PUSH0 DUP2 SLT PUSH2 0x46F7 JUMPI PUSH2 0x46CC SWAP2 MLOAD PUSH2 0x39F4 JUMP JUMPDEST SWAP1 JUMPDEST DUP1 ISZERO PUSH2 0x3BCC JUMPI PUSH8 0xDE0B6B3A7640000 SWAP2 DUP3 DUP2 MUL SWAP3 DUP2 DUP5 DIV EQ SWAP1 ISZERO OR ISZERO PUSH2 0x2052 JUMPI PUSH2 0x3B7E SWAP2 PUSH2 0x3AD3 JUMP JUMPDEST PUSH2 0x4700 SWAP1 PUSH2 0x3EE9 JUMP JUMPDEST SWAP1 MLOAD SWAP1 DUP2 DUP2 LT PUSH2 0x4714 JUMPI POP POP PUSH0 JUMPDEST SWAP1 PUSH2 0x46CE JUMP JUMPDEST PUSH2 0x471D SWAP2 PUSH2 0x3AC6 JUMP JUMPDEST PUSH2 0x470E JUMP JUMPDEST PUSH2 0x473E SWAP1 PUSH2 0x4739 PUSH1 0x20 DUP5 ADD MLOAD PUSH1 0x40 DUP6 ADD MLOAD SWAP1 PUSH2 0x3AB3 JUMP JUMPDEST PUSH2 0x3AD3 JUMP JUMPDEST SWAP2 PUSH2 0x46BB JUMP JUMPDEST PUSH1 0x1 DUP1 PUSH1 0xA0 SHL SUB AND DUP1 PUSH0 MSTORE PUSH1 0x20 PUSH1 0xE DUP2 MSTORE PUSH1 0x40 DUP1 PUSH0 KECCAK256 DUP1 SLOAD ISZERO PUSH2 0x4959 JUMPI PUSH2 0x476C SWAP1 SLOAD TIMESTAMP PUSH2 0x3AC6 JUMP JUMPDEST SWAP2 PUSH2 0x7080 SWAP3 DUP4 DUP2 LT PUSH2 0x4952 JUMPI DUP5 PUSH0 MSTORE PUSH1 0xB DUP3 MSTORE DUP3 PUSH0 KECCAK256 SLOAD PUSH1 0xC DUP4 MSTORE DUP4 PUSH0 KECCAK256 SLOAD SWAP5 DUP2 ISZERO SWAP3 DUP4 DUP1 SWAP5 PUSH2 0x494A JUMPI JUMPDEST PUSH2 0x4938 JUMPI DIV SWAP5 PUSH0 DUP2 DUP4 GT ISZERO PUSH2 0x488B JUMPI POP PUSH8 0xDE0B6B3A7640000 SWAP3 DUP4 DUP4 MUL SWAP3 DUP4 DIV DUP5 EQ OR ISZERO PUSH2 0x2052 JUMPI PUSH2 0x47D9 SWAP2 DUP7 SWAP2 PUSH2 0xDA8 SWAP2 PUSH2 0x439B SWAP2 DUP1 ISZERO PUSH2 0x43BC JUMPI SWAP1 PUSH2 0x3AD3 JUMP JUMPDEST DIV SWAP1 PUSH7 0x38D7EA4C68000 SWAP4 DUP1 DUP6 MUL SWAP5 DUP6 DIV SUB PUSH2 0x2052 JUMPI DUP4 PUSH0 DUP1 MLOAD PUSH1 0x20 PUSH2 0x4B00 DUP4 CODECOPY DUP2 MLOAD SWAP2 MSTORE SWAP5 DUP4 SGT PUSH2 0x4883 JUMPI JUMPDEST POP JUMPDEST PUSH0 DUP3 SGT ISZERO PUSH2 0x4841 JUMPI DUP5 PUSH0 MSTORE PUSH1 0xD DUP2 MSTORE DUP3 PUSH0 KECCAK256 PUSH2 0x4825 DUP4 DUP3 SLOAD PUSH2 0x39F4 JUMP JUMPDEST SWAP1 SSTORE JUMPDEST DUP5 PUSH0 MSTORE PUSH1 0xE DUP2 MSTORE TIMESTAMP DUP4 PUSH0 KECCAK256 SSTORE DUP3 MLOAD SWAP2 DUP3 MSTORE TIMESTAMP SWAP1 DUP3 ADD MSTORE LOG2 JUMP JUMPDEST PUSH0 DUP3 SLT ISZERO PUSH2 0x4828 JUMPI PUSH2 0x4852 DUP3 PUSH2 0x3EE9 JUMP JUMPDEST DUP6 PUSH0 MSTORE PUSH1 0xD DUP3 MSTORE DUP4 PUSH0 KECCAK256 SWAP1 DUP1 DUP3 SLOAD LT ISZERO PUSH0 EQ PUSH2 0x487A JUMPI PUSH2 0x4873 SWAP1 DUP3 SLOAD PUSH2 0x3AC6 JUMP JUMPDEST SWAP1 SSTORE PUSH2 0x4828 JUMP JUMPDEST POP PUSH0 SWAP1 SSTORE PUSH2 0x4828 JUMP JUMPDEST SWAP2 POP PUSH0 PUSH2 0x4806 JUMP JUMPDEST SWAP4 SWAP3 DUP3 DUP3 GT PUSH2 0x48AD JUMPI JUMPDEST POP POP POP PUSH0 DUP1 MLOAD PUSH1 0x20 PUSH2 0x4B00 DUP4 CODECOPY DUP2 MLOAD SWAP2 MSTORE SWAP4 POP PUSH2 0x4808 JUMP JUMPDEST SWAP1 SWAP2 SWAP3 SWAP4 POP PUSH8 0xDE0B6B3A7640000 SWAP2 DUP3 DUP2 MUL SWAP1 DUP1 DUP3 DIV DUP5 EQ SWAP1 ISZERO OR ISZERO PUSH2 0x2052 JUMPI PUSH2 0xDA8 PUSH2 0x439B DUP9 SWAP3 PUSH2 0x48EA SWAP7 PUSH2 0x4406 SWAP6 ISZERO PUSH0 EQ PUSH2 0x43BC JUMPI SWAP1 PUSH2 0x3AD3 JUMP JUMPDEST SWAP1 PUSH2 0x48F4 DUP3 PUSH2 0x3EE9 JUMP JUMPDEST SWAP4 PUSH7 0x38D7EA4C68000 SWAP1 DUP1 DUP3 MUL SWAP2 DUP3 DIV SUB PUSH2 0x2052 JUMPI DUP1 PUSH0 DUP1 MLOAD PUSH1 0x20 PUSH2 0x4B00 DUP4 CODECOPY DUP2 MLOAD SWAP2 MSTORE SWAP6 SGT PUSH2 0x4926 JUMPI JUMPDEST DUP1 DUP1 PUSH2 0x4895 JUMP JUMPDEST PUSH2 0x4931 SWAP2 SWAP3 POP PUSH2 0x3EE9 JUMP JUMPDEST SWAP1 PUSH0 PUSH2 0x491F JUMP JUMPDEST POP POP PUSH1 0xE SWAP1 SWAP3 MSTORE POP POP PUSH0 KECCAK256 TIMESTAMP SWAP1 SSTORE POP POP JUMP JUMPDEST POP DUP7 ISZERO PUSH2 0x4797 JUMP JUMPDEST POP POP POP POP POP JUMP JUMPDEST TIMESTAMP SWAP1 SSTORE POP POP POP JUMP JUMPDEST PUSH1 0x80 DUP2 ADD MLOAD ISZERO PUSH2 0x49C1 JUMPI PUSH1 0x40 DUP2 ADD DUP1 MLOAD SWAP1 SWAP2 SWAP1 DUP1 DUP5 LT PUSH2 0x49A2 JUMPI POP PUSH2 0x3B7E SWAP3 PUSH2 0x4994 PUSH1 0x20 PUSH2 0x499A SWAP4 ADD MLOAD SWAP2 DUP5 MLOAD SWAP1 PUSH2 0x3AC6 JUMP JUMPDEST SWAP1 PUSH2 0x3AB3 JUMP JUMPDEST SWAP1 MLOAD SWAP1 PUSH2 0x3AD3 JUMP JUMPDEST PUSH2 0x499A SWAP1 PUSH2 0x4994 PUSH2 0x3B7E SWAP6 PUSH1 0x20 PUSH2 0x49BC SWAP7 SWAP6 ADD MLOAD SWAP3 PUSH2 0x3AC6 JUMP JUMPDEST PUSH2 0x3EE9 JUMP JUMPDEST PUSH1 0x40 DUP2 ADD DUP1 MLOAD SWAP1 SWAP2 SWAP1 DUP1 DUP5 GT PUSH2 0x49E9 JUMPI POP PUSH2 0x3B7E SWAP3 PUSH2 0x4994 PUSH1 0x20 PUSH2 0x499A SWAP4 ADD MLOAD SWAP2 DUP5 MLOAD PUSH2 0x3AC6 JUMP JUMPDEST PUSH2 0x3B7E SWAP4 PUSH2 0x4994 PUSH2 0x499A SWAP3 PUSH1 0x20 PUSH2 0x49BC SWAP7 SWAP6 ADD MLOAD SWAP3 PUSH2 0x3AC6 JUMP JUMPDEST SWAP1 SWAP4 ISZERO PUSH2 0x4A18 JUMPI PUSH2 0x46CE SWAP3 SWAP2 PUSH2 0x4739 SWAP2 PUSH2 0x3AB3 JUMP JUMPDEST PUSH2 0x4A25 SWAP3 PUSH2 0x4739 SWAP2 PUSH2 0x3AB3 JUMP JUMPDEST PUSH2 0x46CE JUMP JUMPDEST PUSH1 0x60 DUP2 ADD MLOAD TIMESTAMP DUP2 LT ISZERO PUSH2 0x4432 JUMPI PUSH2 0x4A44 PUSH2 0x7080 SWAP2 TIMESTAMP PUSH2 0x3AC6 JUMP JUMPDEST DIV SWAP2 DUP3 ISZERO PUSH2 0x4432 JUMPI PUSH1 0x1 DUP1 PUSH1 0xA0 SHL SUB AND PUSH0 MSTORE PUSH1 0xB PUSH1 0x20 MSTORE PUSH1 0x40 PUSH0 KECCAK256 SLOAD PUSH1 0xC PUSH1 0x20 MSTORE PUSH1 0x40 PUSH0 KECCAK256 SLOAD SWAP3 DUP2 ISZERO DUP1 PUSH2 0x4AD7 JUMPI JUMPDEST PUSH2 0x3FD1 JUMPI PUSH2 0x4A99 PUSH2 0x4A8F PUSH8 0xDE0B6B3A7640000 SWAP3 PUSH1 0x6 SLOAD PUSH2 0x3AB3 JUMP JUMPDEST PUSH1 0x20 DUP6 ADD MLOAD PUSH2 0x3AB3 JUMP JUMPDEST DIV SWAP3 DUP1 DUP3 GT ISZERO PUSH2 0x4ABA JUMPI POP POP PUSH1 0x80 ADD MLOAD ISZERO PUSH2 0x4AB1 JUMPI SWAP1 JUMP JUMPDEST PUSH2 0x3B7E SWAP1 PUSH2 0x3EE9 JUMP JUMPDEST GT PUSH2 0x4AC5 JUMPI POP POP PUSH0 SWAP1 JUMP JUMPDEST PUSH1 0x80 ADD MLOAD ISZERO PUSH2 0x3B7E JUMPI PUSH2 0x3B7E SWAP1 PUSH2 0x3EE9 JUMP JUMPDEST POP DUP4 ISZERO PUSH2 0x4A73 JUMP INVALID 0xBF ADDRESS RETURNDATACOPY 0xDF SWAP6 CALLDATALOAD 0x2C 0xF6 0xAD SLOAD 0xB7 MOD 0xE8 SWAP6 TIMESTAMP BALANCE SWAP13 0xD1 0xE6 0xCA STATICCALL 0xC 0xD0 LOG4 0x24 0xC 0x27 0xE7 PUSH23 0xB9DEA7769084355BCA6D68D2849F20818A61530E0C6837 0x1F NUMBER LOG4 EXTCODECOPY 0xC 0xA7 0xED 0xC0 0xB3 0xEE 0x27 POP SWAP1 KECCAK256 BLOCKHASH RETURNDATASIZE PUSH20 0xC786AD905C04A7EB4321E541E6D41CEAE2333E7F PUSH21 0xFADE7471558CBF9F87525440F259C04CB82958A99F MCOPY 0x4D 0x1F 0xC2 MULMOD SWAP6 0xD3 BALANCE ORIGIN 0x29 0xF9 0x1E 0xE9 0x4F PUSH14 0x62CF8BE0079C531659141344CD1F 0xD0 LOG4 CALLCODE DUP5 NOT BLOBHASH PUSH32 0x9722A3DAAFE3B4186F6B6457E09B779B17422D0DF92223018B32B4D1FA46E071 PUSH19 0x3D6817E2486D003BECC55F008252BD05C6D67C DUP7 0xEF 0xED BASEFEE EQ 0xE 0xC6 PUSH18 0x88BF0DFD021CD6FD1B830F99EA0F354E19A2 PUSH5 0x6970667358 0x22 SLT KECCAK256 0x26 DUP12 SWAP9 0xEB DUP3 0xC JUMP MCOPY 0xC7 0xE6 GT 0xA7 0x1F 0x4D BALANCE 0xC2 PUSH7 0xD8FA0FF313EBB2 PUSH6 0xCF6980476E6F 0xF PUSH5 0x736F6C6343 STOP ADDMOD XOR STOP CALLER "},"methodIdentifiers":{"FUNDING_INTERVAL()":"55efb287","INSURANCE_FEE_SPLIT()":"5db3225a","LIQUIDATION_FEE()":"b1827330","MAINTENANCE_MARGIN_RATIO()":"0bf429d7","MAX_FUNDING_RATE()":"f40f2a79","MAX_LEVERAGE()":"9b45ec97","PRICE_STALENESS_THRESHOLD()":"f25b9caa","addMargin(address)":"10d9b8b8","baseFundingRate()":"cc018b7c","bondingCurve()":"eff1d50e","burnEngine()":"57431923","cancelLimitOrder(uint256)":"a5cdc8fc","cancelTpsl(address)":"6970bff8","closePosition(address)":"2f86e2dd","closePositionPartial(address,uint256)":"ecfcc6da","cumulativeFundingRate(address)":"7ebecc13","defaultToken()":"74c13fda","delistTokenForPerp(address)":"37acb119","depositTokens(address,uint256)":"66168bd7","depositUsdcToInsurance(address)":"759f8a1f","dexLister()":"c0b5ce97","executeLimitOrder(uint256)":"c7219460","executeTpsl(address,address,bool)":"428ad47d","getCurrentFundingRate(address)":"e3a892d5","getLimitOrderCount()":"1c7817cc","getLiquidationPrice(address,address)":"1867b480","getListedTokens()":"2ba996a5","getListedTokensCount()":"4c974221","getMarginHealth(address,address)":"d24ddfb7","getMarginRatio(address,address)":"ea0a45f9","getMarkPrice(address)":"5d6f9c14","getNextFundingTime(address)":"6d573090","getOpenInterest(address)":"6a0016d0","getPnl(address,address)":"8fde79a8","getPosition(address,address)":"b33dc190","getUserLimitOrders(address)":"dd5d02e6","isTokenListedForPerp(address)":"cc0f374e","lastFundingTime(address)":"f7c628ee","limitOrders(uint256)":"a3e2b495","liquidate(address,address)":"86b9d81f","liquidatorIncentiveBps()":"4d92c756","listTokenForPerp(address)":"90f0496c","listedTokens(uint256)":"5a9d1ac3","openPosition(address,bool,uint256,uint256)":"dba0ae3a","oracle()":"7dc0d1d0","owner()":"8da5cb5b","paused()":"5c975abb","placeLimitOrder(address,bool,uint256,uint256,uint256,bool)":"5eafc3a6","platformTreasury()":"e138818c","positions(address,address)":"4bd21445","protocolFeeBps()":"35659fb8","removeMargin(address,uint256)":"b959d695","renounceOwnership()":"715018a6","setBaseFundingRate(uint256)":"2e354c7d","setBondingCurve(address)":"43ff1fb8","setBurnEngine(address)":"983dde52","setDefaultToken(address)":"e1e32f99","setDexLister(address)":"8ab68fdf","setLiquidatorIncentiveBps(uint256)":"91dfacee","setOracle(address)":"7adbf973","setPlatformTreasury(address)":"7cd86d60","setProtocolFeeBps(uint256)":"c0417e58","setTpsl(address,uint256,uint256)":"407dc308","setTpslExecutorRewardBps(uint256)":"6268b6e9","tokenAvailable(address)":"97b2544f","tokenInsuranceFund(address)":"aea1d4d9","tokenLongOpenInterest(address)":"ff846006","tokenShortOpenInterest(address)":"31141490","totalInsuranceFund()":"19d07496","tpslExecutorRewardBps()":"6301793d","tpslOrders(uint256)":"e851bc94","transferOwnership(address)":"f2fde38b","userLimitOrders(address,uint256)":"a5bb2be6","userTpslOrders(address,address,uint256)":"b99287ae"}}}}}