{"project/contracts/pool/PerpetualPool.sol":{"PerpetualPool":{"abi":[{"inputs":[{"internalType":"address","name":"_oracle","type":"address"},{"internalType":"address","name":"_burnEngine","type":"address"},{"internalType":"address","name":"_platformTreasury","type":"address"}],"stateMutability":"nonpayable","type":"constructor"},{"inputs":[],"name":"EnforcedPause","type":"error"},{"inputs":[],"name":"ExpectedPause","type":"error"},{"inputs":[{"internalType":"address","name":"owner","type":"address"}],"name":"OwnableInvalidOwner","type":"error"},{"inputs":[{"internalType":"address","name":"account","type":"address"}],"name":"OwnableUnauthorizedAccount","type":"error"},{"inputs":[],"name":"ReentrancyGuardReentrantCall","type":"error"},{"inputs":[{"internalType":"address","name":"token","type":"address"}],"name":"SafeERC20FailedOperation","type":"error"},{"anonymous":false,"inputs":[{"indexed":true,"internalType":"address","name":"token","type":"address"},{"indexed":false,"internalType":"uint256","name":"amount","type":"uint256"}],"name":"DepositTokens","type":"event"},{"anonymous":false,"inputs":[{"indexed":true,"internalType":"address","name":"token","type":"address"},{"indexed":false,"internalType":"int256","name":"rate","type":"int256"},{"indexed":false,"internalType":"uint256","name":"timestamp","type":"uint256"}],"name":"FundingRateUpdated","type":"event"},{"anonymous":false,"inputs":[{"indexed":true,"internalType":"address","name":"token","type":"address"},{"indexed":false,"internalType":"uint256","name":"amount","type":"uint256"}],"name":"InsuranceFundAdded","type":"event"},{"anonymous":false,"inputs":[{"indexed":true,"internalType":"address","name":"token","type":"address"},{"indexed":false,"internalType":"uint256","name":"amount","type":"uint256"},{"indexed":false,"internalType":"string","name":"reason","type":"string"}],"name":"InsuranceFundUsed","type":"event"},{"anonymous":false,"inputs":[{"indexed":true,"internalType":"uint256","name":"orderId","type":"uint256"},{"indexed":true,"internalType":"address","name":"user","type":"address"}],"name":"LimitOrderCancelled","type":"event"},{"anonymous":false,"inputs":[{"indexed":true,"internalType":"uint256","name":"orderId","type":"uint256"},{"indexed":true,"internalType":"address","name":"user","type":"address"},{"indexed":false,"internalType":"uint256","name":"entryPrice","type":"uint256"}],"name":"LimitOrderExecuted","type":"event"},{"anonymous":false,"inputs":[{"indexed":true,"internalType":"uint256","name":"orderId","type":"uint256"},{"indexed":true,"internalType":"address","name":"user","type":"address"},{"indexed":true,"internalType":"address","name":"token","type":"address"},{"indexed":false,"internalType":"bool","name":"isLong","type":"bool"},{"indexed":false,"internalType":"uint256","name":"margin","type":"uint256"},{"indexed":false,"internalType":"uint256","name":"leverage","type":"uint256"},{"indexed":false,"internalType":"uint256","name":"triggerPrice","type":"uint256"},{"indexed":false,"internalType":"bool","name":"isTriggerAbove","type":"bool"}],"name":"LimitOrderPlaced","type":"event"},{"anonymous":false,"inputs":[{"indexed":true,"internalType":"address","name":"user","type":"address"},{"indexed":true,"internalType":"address","name":"token","type":"address"},{"indexed":false,"internalType":"uint256","name":"amount","type":"uint256"},{"indexed":false,"internalType":"uint256","name":"newMargin","type":"uint256"}],"name":"MarginAdded","type":"event"},{"anonymous":false,"inputs":[{"indexed":true,"internalType":"address","name":"user","type":"address"},{"indexed":true,"internalType":"address","name":"token","type":"address"},{"indexed":false,"internalType":"uint256","name":"amount","type":"uint256"},{"indexed":false,"internalType":"uint256","name":"newMargin","type":"uint256"}],"name":"MarginRemoved","type":"event"},{"anonymous":false,"inputs":[{"indexed":true,"internalType":"address","name":"previousOwner","type":"address"},{"indexed":true,"internalType":"address","name":"newOwner","type":"address"}],"name":"OwnershipTransferred","type":"event"},{"anonymous":false,"inputs":[{"indexed":false,"internalType":"address","name":"account","type":"address"}],"name":"Paused","type":"event"},{"anonymous":false,"inputs":[{"indexed":true,"internalType":"address","name":"token","type":"address"},{"indexed":true,"internalType":"address","name":"user","type":"address"},{"indexed":false,"internalType":"bool","name":"isLong","type":"bool"},{"indexed":false,"internalType":"uint256","name":"margin","type":"uint256"},{"indexed":false,"internalType":"uint256","name":"size","type":"uint256"},{"indexed":false,"internalType":"uint256","name":"exitPrice","type":"uint256"},{"indexed":false,"internalType":"int256","name":"pnl","type":"int256"},{"indexed":false,"internalType":"uint256","name":"timestamp","type":"uint256"}],"name":"PositionClosed","type":"event"},{"anonymous":false,"inputs":[{"indexed":true,"internalType":"address","name":"token","type":"address"},{"indexed":true,"internalType":"address","name":"liquidator","type":"address"},{"indexed":true,"internalType":"address","name":"borrower","type":"address"},{"indexed":false,"internalType":"bool","name":"isLong","type":"bool"},{"indexed":false,"internalType":"uint256","name":"size","type":"uint256"},{"indexed":false,"internalType":"uint256","name":"exitPrice","type":"uint256"},{"indexed":false,"internalType":"int256","name":"pnl","type":"int256"},{"indexed":false,"internalType":"uint256","name":"timestamp","type":"uint256"}],"name":"PositionLiquidated","type":"event"},{"anonymous":false,"inputs":[{"indexed":true,"internalType":"address","name":"token","type":"address"},{"indexed":true,"internalType":"address","name":"user","type":"address"},{"indexed":false,"internalType":"bool","name":"isLong","type":"bool"},{"indexed":false,"internalType":"uint256","name":"margin","type":"uint256"},{"indexed":false,"internalType":"uint256","name":"size","type":"uint256"},{"indexed":false,"internalType":"uint256","name":"entryPrice","type":"uint256"},{"indexed":false,"internalType":"uint256","name":"timestamp","type":"uint256"}],"name":"PositionOpened","type":"event"},{"anonymous":false,"inputs":[{"indexed":true,"internalType":"address","name":"token","type":"address"},{"indexed":true,"internalType":"address","name":"user","type":"address"},{"indexed":false,"internalType":"bool","name":"isLong","type":"bool"},{"indexed":false,"internalType":"uint256","name":"closeSize","type":"uint256"},{"indexed":false,"internalType":"uint256","name":"remainingSize","type":"uint256"},{"indexed":false,"internalType":"uint256","name":"exitPrice","type":"uint256"},{"indexed":false,"internalType":"int256","name":"closePnl","type":"int256"},{"indexed":false,"internalType":"uint256","name":"timestamp","type":"uint256"}],"name":"PositionPartiallyClosed","type":"event"},{"anonymous":false,"inputs":[{"indexed":true,"internalType":"address","name":"token","type":"address"}],"name":"TokenDelistedForPerp","type":"event"},{"anonymous":false,"inputs":[{"indexed":true,"internalType":"address","name":"token","type":"address"}],"name":"TokenListedForPerp","type":"event"},{"anonymous":false,"inputs":[{"indexed":true,"internalType":"address","name":"user","type":"address"},{"indexed":true,"internalType":"address","name":"token","type":"address"}],"name":"TpslCancelled","type":"event"},{"anonymous":false,"inputs":[{"indexed":true,"internalType":"address","name":"user","type":"address"},{"indexed":true,"internalType":"address","name":"token","type":"address"},{"indexed":false,"internalType":"uint256","name":"tpPrice","type":"uint256"},{"indexed":false,"internalType":"uint256","name":"slPrice","type":"uint256"}],"name":"TpslSet","type":"event"},{"anonymous":false,"inputs":[{"indexed":true,"internalType":"address","name":"user","type":"address"},{"indexed":true,"internalType":"address","name":"token","type":"address"},{"indexed":false,"internalType":"bool","name":"isTp","type":"bool"},{"indexed":false,"internalType":"uint256","name":"triggerPrice","type":"uint256"},{"indexed":false,"internalType":"uint256","name":"closePrice","type":"uint256"},{"indexed":false,"internalType":"uint256","name":"executorReward","type":"uint256"}],"name":"TpslTriggered","type":"event"},{"anonymous":false,"inputs":[{"indexed":false,"internalType":"address","name":"account","type":"address"}],"name":"Unpaused","type":"event"},{"inputs":[],"name":"FUNDING_INTERVAL","outputs":[{"internalType":"uint256","name":"","type":"uint256"}],"stateMutability":"view","type":"function"},{"inputs":[],"name":"INSURANCE_FEE_SPLIT","outputs":[{"internalType":"uint256","name":"","type":"uint256"}],"stateMutability":"view","type":"function"},{"inputs":[],"name":"LIQUIDATION_FEE","outputs":[{"internalType":"uint256","name":"","type":"uint256"}],"stateMutability":"view","type":"function"},{"inputs":[],"name":"MAINTENANCE_MARGIN_RATIO","outputs":[{"internalType":"uint256","name":"","type":"uint256"}],"stateMutability":"view","type":"function"},{"inputs":[],"name":"MAX_FUNDING_RATE","outputs":[{"internalType":"uint256","name":"","type":"uint256"}],"stateMutability":"view","type":"function"},{"inputs":[],"name":"MAX_LEVERAGE","outputs":[{"internalType":"uint256","name":"","type":"uint256"}],"stateMutability":"view","type":"function"},{"inputs":[],"name":"PRICE_STALENESS_THRESHOLD","outputs":[{"internalType":"uint256","name":"","type":"uint256"}],"stateMutability":"view","type":"function"},{"inputs":[{"internalType":"address","name":"token","type":"address"}],"name":"addMargin","outputs":[],"stateMutability":"payable","type":"function"},{"inputs":[],"name":"baseFundingRate","outputs":[{"internalType":"uint256","name":"","type":"uint256"}],"stateMutability":"view","type":"function"},{"inputs":[],"name":"bondingCurve","outputs":[{"internalType":"address","name":"","type":"address"}],"stateMutability":"view","type":"function"},{"inputs":[],"name":"burnEngine","outputs":[{"internalType":"address","name":"","type":"address"}],"stateMutability":"view","type":"function"},{"inputs":[{"internalType":"uint256","name":"orderId","type":"uint256"}],"name":"cancelLimitOrder","outputs":[],"stateMutability":"nonpayable","type":"function"},{"inputs":[{"internalType":"address","name":"token","type":"address"}],"name":"cancelTpsl","outputs":[],"stateMutability":"nonpayable","type":"function"},{"inputs":[{"internalType":"address","name":"token","type":"address"}],"name":"closePosition","outputs":[],"stateMutability":"nonpayable","type":"function"},{"inputs":[{"internalType":"address","name":"token","type":"address"},{"internalType":"uint256","name":"closeSize","type":"uint256"}],"name":"closePositionPartial","outputs":[],"stateMutability":"nonpayable","type":"function"},{"inputs":[{"internalType":"address","name":"","type":"address"}],"name":"cumulativeFundingRate","outputs":[{"internalType":"uint256","name":"","type":"uint256"}],"stateMutability":"view","type":"function"},{"inputs":[],"name":"defaultToken","outputs":[{"internalType":"address","name":"","type":"address"}],"stateMutability":"view","type":"function"},{"inputs":[{"internalType":"address","name":"token","type":"address"}],"name":"delistTokenForPerp","outputs":[],"stateMutability":"nonpayable","type":"function"},{"inputs":[{"internalType":"address","name":"token","type":"address"},{"internalType":"uint256","name":"amount","type":"uint256"}],"name":"depositTokens","outputs":[],"stateMutability":"nonpayable","type":"function"},{"inputs":[{"internalType":"address","name":"token","type":"address"}],"name":"depositUsdcToInsurance","outputs":[],"stateMutability":"payable","type":"function"},{"inputs":[],"name":"dexLister","outputs":[{"internalType":"address","name":"","type":"address"}],"stateMutability":"view","type":"function"},{"inputs":[{"internalType":"uint256","name":"orderId","type":"uint256"}],"name":"executeLimitOrder","outputs":[],"stateMutability":"nonpayable","type":"function"},{"inputs":[{"internalType":"address","name":"user","type":"address"},{"internalType":"address","name":"token","type":"address"},{"internalType":"bool","name":"isTp","type":"bool"}],"name":"executeTpsl","outputs":[],"stateMutability":"nonpayable","type":"function"},{"inputs":[{"internalType":"address","name":"token","type":"address"}],"name":"getCurrentFundingRate","outputs":[{"internalType":"int256","name":"","type":"int256"}],"stateMutability":"view","type":"function"},{"inputs":[],"name":"getLimitOrderCount","outputs":[{"internalType":"uint256","name":"","type":"uint256"}],"stateMutability":"view","type":"function"},{"inputs":[{"internalType":"address","name":"user","type":"address"},{"internalType":"address","name":"token","type":"address"}],"name":"getLiquidationPrice","outputs":[{"internalType":"uint256","name":"","type":"uint256"}],"stateMutability":"view","type":"function"},{"inputs":[],"name":"getListedTokens","outputs":[{"internalType":"address[]","name":"","type":"address[]"}],"stateMutability":"view","type":"function"},{"inputs":[],"name":"getListedTokensCount","outputs":[{"internalType":"uint256","name":"","type":"uint256"}],"stateMutability":"view","type":"function"},{"inputs":[{"internalType":"address","name":"user","type":"address"},{"internalType":"address","name":"token","type":"address"}],"name":"getMarginHealth","outputs":[{"internalType":"uint256","name":"","type":"uint256"}],"stateMutability":"view","type":"function"},{"inputs":[{"internalType":"address","name":"user","type":"address"},{"internalType":"address","name":"token","type":"address"}],"name":"getMarginRatio","outputs":[{"internalType":"uint256","name":"","type":"uint256"}],"stateMutability":"view","type":"function"},{"inputs":[{"internalType":"address","name":"token","type":"address"}],"name":"getMarkPrice","outputs":[{"internalType":"uint256","name":"","type":"uint256"}],"stateMutability":"view","type":"function"},{"inputs":[{"internalType":"address","name":"token","type":"address"}],"name":"getNextFundingTime","outputs":[{"internalType":"uint256","name":"","type":"uint256"}],"stateMutability":"view","type":"function"},{"inputs":[{"internalType":"address","name":"token","type":"address"}],"name":"getOpenInterest","outputs":[{"internalType":"uint256","name":"longOI","type":"uint256"},{"internalType":"uint256","name":"shortOI","type":"uint256"}],"stateMutability":"view","type":"function"},{"inputs":[{"internalType":"address","name":"user","type":"address"},{"internalType":"address","name":"token","type":"address"}],"name":"getPnl","outputs":[{"internalType":"int256","name":"","type":"int256"}],"stateMutability":"view","type":"function"},{"inputs":[{"internalType":"address","name":"user","type":"address"},{"internalType":"address","name":"token","type":"address"}],"name":"getPosition","outputs":[{"internalType":"uint256","name":"margin","type":"uint256"},{"internalType":"uint256","name":"size","type":"uint256"},{"internalType":"uint256","name":"entryPrice","type":"uint256"},{"internalType":"uint256","name":"lastFundingTime_","type":"uint256"},{"internalType":"bool","name":"isLong","type":"bool"},{"internalType":"bool","name":"isActive","type":"bool"},{"internalType":"uint256","name":"tpPrice","type":"uint256"},{"internalType":"uint256","name":"slPrice","type":"uint256"},{"internalType":"bool","name":"hasTpsl","type":"bool"}],"stateMutability":"view","type":"function"},{"inputs":[{"internalType":"address","name":"user","type":"address"}],"name":"getUserLimitOrders","outputs":[{"internalType":"uint256[]","name":"orderIds","type":"uint256[]"},{"internalType":"address[]","name":"tokens","type":"address[]"},{"internalType":"bool[]","name":"isLongs","type":"bool[]"},{"internalType":"uint256[]","name":"margins","type":"uint256[]"},{"internalType":"uint256[]","name":"leverages","type":"uint256[]"},{"internalType":"uint256[]","name":"triggerPrices","type":"uint256[]"},{"internalType":"bool[]","name":"isTriggerAboves","type":"bool[]"},{"internalType":"bool[]","name":"actives","type":"bool[]"}],"stateMutability":"view","type":"function"},{"inputs":[{"internalType":"address","name":"","type":"address"}],"name":"isTokenListedForPerp","outputs":[{"internalType":"bool","name":"","type":"bool"}],"stateMutability":"view","type":"function"},{"inputs":[{"internalType":"address","name":"","type":"address"}],"name":"lastFundingTime","outputs":[{"internalType":"uint256","name":"","type":"uint256"}],"stateMutability":"view","type":"function"},{"inputs":[{"internalType":"uint256","name":"","type":"uint256"}],"name":"limitOrders","outputs":[{"internalType":"address","name":"user","type":"address"},{"internalType":"address","name":"token","type":"address"},{"internalType":"bool","name":"isLong","type":"bool"},{"internalType":"uint256","name":"margin","type":"uint256"},{"internalType":"uint256","name":"leverage","type":"uint256"},{"internalType":"uint256","name":"triggerPrice","type":"uint256"},{"internalType":"bool","name":"isTriggerAbove","type":"bool"},{"internalType":"bool","name":"isActive","type":"bool"}],"stateMutability":"view","type":"function"},{"inputs":[{"internalType":"address","name":"borrower","type":"address"},{"internalType":"address","name":"token","type":"address"}],"name":"liquidate","outputs":[],"stateMutability":"nonpayable","type":"function"},{"inputs":[],"name":"liquidatorIncentiveBps","outputs":[{"internalType":"uint256","name":"","type":"uint256"}],"stateMutability":"view","type":"function"},{"inputs":[{"internalType":"address","name":"token","type":"address"}],"name":"listTokenForPerp","outputs":[],"stateMutability":"nonpayable","type":"function"},{"inputs":[{"internalType":"uint256","name":"","type":"uint256"}],"name":"listedTokens","outputs":[{"internalType":"address","name":"","type":"address"}],"stateMutability":"view","type":"function"},{"inputs":[{"internalType":"address","name":"token","type":"address"},{"internalType":"bool","name":"isLong","type":"bool"},{"internalType":"uint256","name":"marginUsdc","type":"uint256"},{"internalType":"uint256","name":"leverage","type":"uint256"}],"name":"openPosition","outputs":[],"stateMutability":"payable","type":"function"},{"inputs":[],"name":"oracle","outputs":[{"internalType":"contract IPerpOracle","name":"","type":"address"}],"stateMutability":"view","type":"function"},{"inputs":[],"name":"owner","outputs":[{"internalType":"address","name":"","type":"address"}],"stateMutability":"view","type":"function"},{"inputs":[],"name":"paused","outputs":[{"internalType":"bool","name":"","type":"bool"}],"stateMutability":"view","type":"function"},{"inputs":[{"internalType":"address","name":"token","type":"address"},{"internalType":"bool","name":"isLong","type":"bool"},{"internalType":"uint256","name":"marginUsdc","type":"uint256"},{"internalType":"uint256","name":"leverage","type":"uint256"},{"internalType":"uint256","name":"triggerPrice","type":"uint256"},{"internalType":"bool","name":"isTriggerAbove","type":"bool"}],"name":"placeLimitOrder","outputs":[],"stateMutability":"payable","type":"function"},{"inputs":[],"name":"platformTreasury","outputs":[{"internalType":"address","name":"","type":"address"}],"stateMutability":"view","type":"function"},{"inputs":[{"internalType":"address","name":"","type":"address"},{"internalType":"address","name":"","type":"address"}],"name":"positions","outputs":[{"internalType":"uint256","name":"margin","type":"uint256"},{"internalType":"uint256","name":"size","type":"uint256"},{"internalType":"uint256","name":"entryPrice","type":"uint256"},{"internalType":"uint256","name":"lastFundingTime","type":"uint256"},{"internalType":"bool","name":"isLong","type":"bool"},{"internalType":"bool","name":"isActive","type":"bool"},{"internalType":"uint256","name":"tpPrice","type":"uint256"},{"internalType":"uint256","name":"slPrice","type":"uint256"},{"internalType":"bool","name":"hasTpsl","type":"bool"},{"internalType":"int256","name":"fundingDebt","type":"int256"}],"stateMutability":"view","type":"function"},{"inputs":[],"name":"protocolFeeBps","outputs":[{"internalType":"uint256","name":"","type":"uint256"}],"stateMutability":"view","type":"function"},{"inputs":[{"internalType":"address","name":"token","type":"address"},{"internalType":"uint256","name":"amount","type":"uint256"}],"name":"removeMargin","outputs":[],"stateMutability":"nonpayable","type":"function"},{"inputs":[],"name":"renounceOwnership","outputs":[],"stateMutability":"nonpayable","type":"function"},{"inputs":[{"internalType":"uint256","name":"_rate","type":"uint256"}],"name":"setBaseFundingRate","outputs":[],"stateMutability":"nonpayable","type":"function"},{"inputs":[{"internalType":"address","name":"_bondingCurve","type":"address"}],"name":"setBondingCurve","outputs":[],"stateMutability":"nonpayable","type":"function"},{"inputs":[{"internalType":"address","name":"_burnEngine","type":"address"}],"name":"setBurnEngine","outputs":[],"stateMutability":"nonpayable","type":"function"},{"inputs":[{"internalType":"address","name":"token","type":"address"}],"name":"setDefaultToken","outputs":[],"stateMutability":"nonpayable","type":"function"},{"inputs":[{"internalType":"address","name":"_dexLister","type":"address"}],"name":"setDexLister","outputs":[],"stateMutability":"nonpayable","type":"function"},{"inputs":[{"internalType":"uint256","name":"_bps","type":"uint256"}],"name":"setLiquidatorIncentiveBps","outputs":[],"stateMutability":"nonpayable","type":"function"},{"inputs":[{"internalType":"address","name":"_oracle","type":"address"}],"name":"setOracle","outputs":[],"stateMutability":"nonpayable","type":"function"},{"inputs":[{"internalType":"address","name":"_treasury","type":"address"}],"name":"setPlatformTreasury","outputs":[],"stateMutability":"nonpayable","type":"function"},{"inputs":[{"internalType":"uint256","name":"_bps","type":"uint256"}],"name":"setProtocolFeeBps","outputs":[],"stateMutability":"nonpayable","type":"function"},{"inputs":[{"internalType":"address","name":"token","type":"address"},{"internalType":"uint256","name":"tpPrice","type":"uint256"},{"internalType":"uint256","name":"slPrice","type":"uint256"}],"name":"setTpsl","outputs":[],"stateMutability":"nonpayable","type":"function"},{"inputs":[{"internalType":"uint256","name":"_bps","type":"uint256"}],"name":"setTpslExecutorRewardBps","outputs":[],"stateMutability":"nonpayable","type":"function"},{"inputs":[{"internalType":"address","name":"","type":"address"}],"name":"tokenAvailable","outputs":[{"internalType":"uint256","name":"","type":"uint256"}],"stateMutability":"view","type":"function"},{"inputs":[{"internalType":"address","name":"","type":"address"}],"name":"tokenInsuranceFund","outputs":[{"internalType":"uint256","name":"","type":"uint256"}],"stateMutability":"view","type":"function"},{"inputs":[{"internalType":"address","name":"","type":"address"}],"name":"tokenLongOpenInterest","outputs":[{"internalType":"uint256","name":"","type":"uint256"}],"stateMutability":"view","type":"function"},{"inputs":[{"internalType":"address","name":"","type":"address"}],"name":"tokenShortOpenInterest","outputs":[{"internalType":"uint256","name":"","type":"uint256"}],"stateMutability":"view","type":"function"},{"inputs":[],"name":"totalInsuranceFund","outputs":[{"internalType":"uint256","name":"","type":"uint256"}],"stateMutability":"view","type":"function"},{"inputs":[],"name":"tpslExecutorRewardBps","outputs":[{"internalType":"uint256","name":"","type":"uint256"}],"stateMutability":"view","type":"function"},{"inputs":[{"internalType":"uint256","name":"","type":"uint256"}],"name":"tpslOrders","outputs":[{"internalType":"address","name":"user","type":"address"},{"internalType":"address","name":"token","type":"address"},{"internalType":"uint256","name":"triggerPrice","type":"uint256"},{"internalType":"bool","name":"isTp","type":"bool"},{"internalType":"bool","name":"isActive","type":"bool"}],"stateMutability":"view","type":"function"},{"inputs":[{"internalType":"address","name":"newOwner","type":"address"}],"name":"transferOwnership","outputs":[],"stateMutability":"nonpayable","type":"function"},{"inputs":[{"internalType":"address","name":"","type":"address"},{"internalType":"uint256","name":"","type":"uint256"}],"name":"userLimitOrders","outputs":[{"internalType":"uint256","name":"","type":"uint256"}],"stateMutability":"view","type":"function"},{"inputs":[{"internalType":"address","name":"","type":"address"},{"internalType":"address","name":"","type":"address"},{"internalType":"uint256","name":"","type":"uint256"}],"name":"userTpslOrders","outputs":[{"internalType":"uint256","name":"","type":"uint256"}],"stateMutability":"view","type":"function"},{"stateMutability":"payable","type":"receive"}],"evm":{"bytecode":{"linkReferences":{},"object":"6080346200015f57601f62004c9a38819003918201601f19168301916001600160401b0383118484101762000163578084926060946040528339810103126200015f576200004d8162000177565b620000696040620000616020850162000177565b930162000177565b9160017f9b779b17422d0df92223018b32b4d1fa46e071723d6817e2486d003becc55f0055331562000147575f8054610100600160a81b0319811633600881811b610100600160a81b0316929092178455604051966001600160a01b03959094869491939190911c8416907f8be0079c531659141344cd1fd0a4f28419497f9722a3daafe3b4186f6b6457e09080a3655af3107a4000600655600a6007556101f460085560646009558160018060a01b031995168560015416176001551683600254161760025516906005541617600555614b0d90816200018d8239f35b604051631e4fbdf760e01b81525f6004820152602490fd5b5f80fd5b634e487b7160e01b5f52604160045260245ffd5b51906001600160a01b03821682036200015f5756fe608080604052600436101561001c575b50361561001a575f80fd5b005b5f3560e01c9081630bf429d71461371b5750806310d9b8b8146136665780631867b4801461363a57806319d074961461361d5780631c7817cc146136005780632ba996a51461356c5780632e354c7d146135385780632f86e2dd1461340557806331141490146133cd57806335659fb8146133b057806337acb11914613247578063407dc3081461303d578063428ad47d14612a3f57806343ff1fb8146129fc5780634bd21445146129405780634c974221146129235780634d92c7561461290657806355efb287146128ea57806357431923146128c25780635a9d1ac3146128805780635c975abb1461285f5780635d6f9c14146127d45780635db3225a146127b85780635eafc3a6146124d95780636268b6e9146124aa5780636301793d1461248d57806366168bd7146123415780636970bff8146122b75780636a0016d0146122735780636d57309014612250578063715018a61461220857806374c13fda146121e0578063759f8a1f146121795780637adbf973146121365780637cd86d60146120f35780637dc0d1d0146120cb5780637ebecc131461209357806386b9d81f14611b1e5780638ab68fdf14611adb5780638da5cb5b14611ab05780638fde79a814611a8457806390f0496c1461191c57806391dfacee146118ed57806397b2544f146118b5578063983dde52146118725780639b45ec9714611850578063a3e2b495146117bd578063a5bb2be614611774578063a5cdc8fc14611636578063aea1d4d9146115fe578063b1827330146115dd578063b33dc1901461152a578063b959d69514611331578063b99287ae146112c9578063c0417e581461129b578063c0b5ce9714611273578063c721946014610f61578063cc018b7c14610f44578063cc0f374e14610f07578063d24ddfb714610edb578063dba0ae3a14610c61578063dd5d02e614610a6a578063e138818c14610a42578063e1e32f99146109e8578063e3a892d5146109c5578063e851bc9414610950578063ea0a45f91461091c578063ecfcc6da146104b6578063eff1d50e1461048e578063f25b9caa14610472578063f2fde38b146103eb578063f40f2a79146103ca578063f7c628ee146103925763ff84600614610356575f61000f565b3461038e57602036600319011261038e576001600160a01b0361037761373a565b165f52600b602052602060405f2054604051908152f35b5f80fd5b3461038e57602036600319011261038e576001600160a01b036103b361373a565b165f52600e602052602060405f2054604051908152f35b3461038e575f36600319011261038e57602060405166038d7ea4c680008152f35b3461038e57602036600319011261038e5761040461373a565b61040c61442f565b6001600160a01b0381811691821561045a575f8054610100600160a81b03198116600893841b610100600160a81b031617825590911c91909116905f80516020614a788339815191529080a3005b604051631e4fbdf760e01b81525f6004820152602490fd5b3461038e575f36600319011261038e57602060405161012c8152f35b3461038e575f36600319011261038e576003546040516001600160a01b039091168152602090f35b3461038e57604036600319011261038e576104cf61373a565b6024356104da6143e3565b6104e2614412565b335f52602090600a825260405f209260018060a01b039182821694855f52845260405f209261051a60ff600486015460081c16613876565b8115938415908161090d575b50156108d3579060249291335f52600a865260405f20875f52865260405f209186600484019261055c60ff855460081c16613876565b6105658661465c565b60015416604051968780926341976e0960e01b82528c60048301525afa9485156108c8575f95610899575b5061059c851515613b4f565b6105a5846144a9565b670de0b6b3a7640000908181029681880483141715610885576105ce60018501978854906139c9565b91610610816105ee856105e98b6105e48b61391a565b614879565b61445d565b0596610606856105e9836106018b61391a565b614942565b506106018761391a565b5f8113156108205785546106539190808211610818575b81610631916139bc565b87558b5f52600f8b5260405f206106498282546138ea565b90556011546138ea565b6011555b610669600386019342855586546139a9565b04915f86126107f05761067c86846138ea565b925b845460ff16156107d3578a5f52600b8a5260405f2061069e8482546139bc565b90555b8854838103610747575050505087949260ff5f80516020614ab88339815191529593836106ed9415158061073d575b61071e575b5054169054965492604051948594339942948761447f565b0390a3335f52600a815260405f20915f525261070b60405f20613def565b60015f80516020614a9883398151915255005b5f80808061073794335af1610731613c00565b50613f4a565b8b6106d5565b50478111156106d0565b839b9a506107a89660ff959361077d5f946107745f80516020614a588339815191529e9a986008966139bc565b8a5583546139bc565b82554290550155801515806107c9575b6107b0575b505416905492604051948594339942948761447f565b0390a361070b565b5f8080806107c394335af1610731613c00565b89610792565b504781111561078d565b8a5f52600c8a5260405f206107e98482546139bc565b90556106a1565b6107f986613ddf565b83811061080957505f5b9261067e565b61081390846139bc565b610803565b905080610627565b5f811261082e575b50610657565b61083790613ddf565b6108428187546138ea565b86558a5f52600f8a5260405f209081549181831015610863575b5050610828565b6108708261087a946139bc565b90556011546139bc565b6011558a808061085c565b634e487b7160e01b5f52601160045260245ffd5b9094508681813d83116108c1575b6108b181836138f7565b8101031261038e57519388610590565b503d6108a7565b6040513d5f823e3d90fd5b60405162461bcd60e51b8152600481018690526012602482015271696e76616c696420636c6f73652073697a6560701b6044820152606490fd5b60019150015482111587610526565b3461038e57604036600319011261038e57602061094861093a61373a565b610942613750565b90614337565b604051908152f35b3461038e57602036600319011261038e5760043560175481101561038e5760a09060175f5260205f209060021b0160ff600180841b03918281541692600182015416906003600282015491015491604051948552602085015260408401528181161515606084015260081c1615156080820152f35b3461038e57602036600319011261038e5760206109486109e361373a565b61422f565b3461038e57602036600319011261038e57610a0161373a565b610a0961442f565b6001600160a01b03165f81815260136020526040902054610a2c9060ff16613b05565b601480546001600160a01b031916919091179055005b3461038e575f36600319011261038e576005546040516001600160a01b039091168152602090f35b3461038e57602036600319011261038e576001600160a01b03610a8b61373a565b165f52601660205260405f20805490610aa3826141e9565b90610aad836141d2565b92610abb60405194856138f7565b808452601f19610aca826141d2565b01366020860137610ada816141e9565b610ae3826141e9565b610aec836141e9565b90610af6846141e9565b92610b00856141e9565b94610b0a816141e9565b965f5b828110610ba957505050604051978897610100808a528901610b2e9161380e565b88810360208a0152610b3f91613766565b8781036040890152610b5091613841565b8681036060880152610b619161380e565b8581036080870152610b729161380e565b84810360a0860152610b839161380e565b83810360c0850152610b9491613841565b82810360e0840152610ba591613841565b0390f35b808b60058c610bba600195876137dd565b9054600391821b1c610bd686610bcf836137f2565b509461421b565b528582015493610bee86888060a01b0387169261421b565b5260ff9384610bfd878c61421b565b9160a01c16151590526002820154610c15868c61421b565b52810154610c23858c61421b565b526004810154610c33858d61421b565b52015490610c41838c61421b565b81831615159052610c52838d61421b565b9160081c161515905201610b0d565b608036600319011261038e57610c7561373a565b610c7d6137a2565b60443591606435610c8c6143e3565b610c94614412565b670de0b6b3a7640000918282101580610ec9575b610cb190613c83565b610cbd85341015613cc2565b610cc88515156138b0565b60018060a01b039384821694855f52602060138152610ced60ff60405f205416613d04565b335f52600a815260405f20875f52815260405f206004810196610d1760ff895460081c1615613d4c565b836001541696838a6024604051809b81936341976e0960e01b835260048301525afa9788156108c8578b905f99610e87575b5098610d8b600793610d84610e2399989796945f80516020614a388339815191529d610d768e1515613b4f565b610d7f8d6144a9565b6139a9565b049861465c565b8b8255876001830155886002830155426003830155610daa8682613b3e565b805461ff0019166101001790555f6008820181905560058201819055600682015501805460ff191690558215610e6a57600b90885f525260405f20610df08582546138ea565b90555b612710610e026007548a6139a9565b0480151580610e5d575b610e39575b5050604051938493339842938661400a565b0390a360015f80516020614a9883398151915255005b5f80808093610e5695600254165af1610e50613c00565b50613fc8565b8780610e11565b5081600254161515610e0c565b600c90885f525260405f20610e808582546138ea565b9055610df3565b858095939a50819498979692503d8311610ec2575b610ea681836138f7565b8101031261038e5790519693949293919290918a610d8b610d49565b503d610e9c565b50678ac7230489e80000821115610ca8565b3461038e57604036600319011261038e576020610948610ef961373a565b610f01613750565b90614030565b3461038e57602036600319011261038e576001600160a01b03610f2861373a565b165f526013602052602060ff60405f2054166040519015158152f35b3461038e575f36600319011261038e576020600654604051908152f35b3461038e5760208060031936011261038e57600435610f7e6143e3565b610f86614412565b610f936015548210613ecf565b610f9c816137f2565b5090600582019283549060ff92610fb7848460081c16613f0b565b60018060a01b039260248460015416936001880190808783541696604051948580926341976e0960e01b82528a60048301525afa9283156108c8575f93611244575b50611005831515613b4f565b61100e866144a9565b8388161561122f5761102660048a0154841015613f88565b868954165f52600a815260405f20865f52815260405f206004810189815460081c166111f65788999a9b61ff0099989919809716905560028c01958c87549060030154611072916139a9565b670de0b6b3a76400009004996110879061465c565b865483558960018401558560028401554260038401558b855460a01c166110ae9083613b3e565b8154166101001790556008015f9055815494868a8760a01c165f149b5f80516020614a388339815191529a610e23987f431ebe7f2929904a285c3050ab2a96ca5b4533ee5206a3b661cde6dd6d141d569e6111d957508554165f52600b845260405f2061111c8b82546138ea565b90555b6111338754612710918291600754906139a9565b04801515806111cc575b6111af575b506111518854600954906139a9565b04801515806111a5575b611186575b5054169a8b92604051868152a354915494604051958695841698429460a01c168661400a565b5f80808061119f94335af1611199613c00565b50613c3e565b8d611160565b504781111561115b565b5f8080806111c69488600254165af1610e50613c00565b8e611142565b508360025416151561113d565b165f52600c845260405f206111ef8b82546138ea565b905561111f565b60405162461bcd60e51b81526004810184905260116024820152703ab9b2b9103430b9903837b9b4ba34b7b760791b6044820152606490fd5b61123f60048a0154841115613f88565b611026565b9080935081813d831161126c575b61125c81836138f7565b8101031261038e5751918a610ff9565b503d611252565b3461038e575f36600319011261038e576004546040516001600160a01b039091168152602090f35b3461038e57602036600319011261038e576004356112b761442f565b6112c46064821115613ace565b600755005b3461038e57606036600319011261038e576112e261373a565b6112ea613750565b6044359160018060a01b038091165f52601860205260405f2091165f5260205260405f20805482101561038e57602091611323916137dd565b90546040519160031b1c8152f35b3461038e57604036600319011261038e5761134a61373a565b6024356113556143e3565b61135d614412565b335f526020600a815260405f209260018060a01b0380911693845f52825260405f209060048201549061139560ff8360081c16613876565b84151580611520575b156114ea578360249160015416604051928380926341976e0960e01b82528a60048301525afa9081156108c8575f916114bb575b5061140d816113eb67011c37937e080000931515613b4f565b6113f68786546139bc565b936001860154918560ff600289015493169361491b565b1061146b5781556114275f80808087335af1610731613c00565b54906040519283528201527f33a6a7befb7e6c5e685340c90629413ed5a124b429160f8f02f4d818ae7efbbd60403392a360015f80516020614a9883398151915255005b60405162461bcd60e51b815260048101849052602260248201527f6d617267696e20726174696f20746f6f206c6f772061667465722072656d6f76604482015261185b60f21b6064820152608490fd5b90508381813d83116114e3575b6114d281836138f7565b8101031261038e575161140d6113d2565b503d6114c8565b60405162461bcd60e51b815260048101859052600e60248201526d1a5b9d985b1a5908185b5bdd5b9d60921b6044820152606490fd5b508254851061139e565b3461038e57604036600319011261038e5761154361373a565b61154b613750565b9060018060a01b038091165f52600a60205260405f2091165f5260205261012061157760405f2061391a565b805190602081015190604081015160608201516080830151151560a084015115159060c08501519260e08601519461010080970151151597604051998a5260208a015260408901526060880152608087015260a086015260c085015260e0840152820152f35b3461038e575f36600319011261038e57602060405166b1a2bc2ec500008152f35b3461038e57602036600319011261038e576001600160a01b0361161f61373a565b165f52600f602052602060405f2054604051908152f35b3461038e57602036600319011261038e576004356116526143e3565b61165f6015548210613ecf565b611668816137f2565b5080546001600160a01b0316330361173e5780600560029201805461169260ff8260081c16613f0b565b61ff0019169055015480151580611734575b6116e3575b5033907f34cf495316dbb07c8286e6c6b35542a47854aaf8050f2dd51ab0347b855582975f80a360015f80516020614a9883398151915255005b5f80808093335af16116f3613c00565b50156116ff57816116a9565b60405162461bcd60e51b815260206004820152600d60248201526c1c99599d5b990819985a5b1959609a1b6044820152606490fd5b50478111156116a4565b60405162461bcd60e51b815260206004820152600e60248201526d3737ba103cb7bab91037b93232b960911b6044820152606490fd5b3461038e57604036600319011261038e5761178d61373a565b6001600160a01b03165f9081526016602052604090208054602435919082101561038e57602091611323916137dd565b3461038e57602036600319011261038e5760043560155481101561038e576117e7610100916137f2565b5060ff60018060a01b038083541692600181015460028201548460038401549260056004860154950154956040519889528116602089015260a01c16151560408701526060860152608085015260a0840152818116151560c084015260081c16151560e0820152f35b3461038e575f36600319011261038e576020604051678ac7230489e800008152f35b3461038e57602036600319011261038e5761188b61373a565b61189361442f565b600280546001600160a01b0319166001600160a01b0392909216919091179055005b3461038e57602036600319011261038e576001600160a01b036118d661373a565b165f526010602052602060405f2054604051908152f35b3461038e57602036600319011261038e5760043561190961442f565b6119176103e8821115613ace565b600855005b3461038e57602036600319011261038e5761193561373a565b61193d61442f565b6001600160a01b0381811691908215611a5057825f52601360205260ff60405f205416611a1a575f838152601360205260409020805460ff19166001179055601254600160401b811015611a065783926119a08260016119be94016012556137b1565b90919060018060a01b038084549260031b9316831b921b1916179055565b601454908116156119f1575b507f44407f8af029e74ef3c8d735b22092e8d0b7793d8739ea61b6cd677aef5eb4125f80a2005b6001600160a01b0319161760145580826119ca565b634e487b7160e01b5f52604160045260245ffd5b60405162461bcd60e51b815260206004820152600e60248201526d185b1c9958591e481b1a5cdd195960921b6044820152606490fd5b60405162461bcd60e51b815260206004820152600c60248201526b7a65726f206164647265737360a01b6044820152606490fd5b3461038e57604036600319011261038e576020610948611aa261373a565b611aaa613750565b90613e24565b3461038e575f36600319011261038e575f5460405160089190911c6001600160a01b03168152602090f35b3461038e57602036600319011261038e57611af461373a565b611afc61442f565b600480546001600160a01b0319166001600160a01b0392909216919091179055005b3461038e57604036600319011261038e57611b3761373a565b611b3f613750565b90611b486143e3565b611b50614412565b6001600160a01b038181165f908152600a602090815260408083209386168352929052206004810154611b889060081c60ff16613876565b6001546040516341976e0960e01b81526001600160a01b038581166004830152909160209183916024918391165afa9081156108c8575f91612061575b50611bd1811515613b4f565b611bda846144a9565b66d529ae9e860000611bf482611bef8561391a565b61459e565b101561202957611c038461465c565b611c10816105e48461391a565b90825466b1a2bc2ec5000080820290828204148215171561088557670de0b6b3a76400009004612710611c45600854846139a9565b04610bb88381810204811484151715610885576127109084020492611c7384611c6e84866138ea565b6138ea565b90808211611fbd575b5050600486015460ff1615611f9257600186015460018060a01b0389165f52600b602052611caf60405f209182546139bc565b90555b80151580611f88575b611f2c575b5080151580611f18575b611eb7575b5080611e5d575b505f8212611d6f575b600160ff600485015416930154604051931515845260208401526040830152606082015242608082015260018060a01b0382169033907f2519c4ebc951d8ee92a05c30c8d8c1470731af70c412127475402abd963d1b1160a0600180821b03871692a460018060a01b03165f52600a60205260405f209060018060a01b03165f5260205261070b60405f20613def565b611d7882613ddf565b835480821180611e3d575b611d8f575b5050611cdf565b611d98916139bc565b6001600160a01b0386165f908152600f6020526040902080549182811115611e325750611dc582806139bc565b9055611dd3816011546139bc565b60115560405190815260406020820152600a60408201526962616e6b72757074637960b01b60608201527f9a8c1dc5fb2b764e1b96134304619e44486c555d03fa116c381105d23fd37e67608060018060a01b03881692a28580611d88565b611dc59080936139bc565b506001600160a01b0387165f908152600f60205260409020541515611d83565b60018060a01b0386165f52600f60205260405f20611e7c8282546138ea565b9055611e8a816011546138ea565b6011556040519081526001600160a01b038616905f805160206149f883398151915290602090a285611cd6565b6002545f918291829182916001600160a01b03165af1611ed5613c00565b5015611ee15786611ccf565b60405162461bcd60e51b815260206004820152600f60248201526e189d5c9b881999594819985a5b1959608a1b6044820152606490fd5b506002546001600160a01b03161515611cca565b5f80808093335af1611f3c613c00565b5015611f485787611cc0565b60405162461bcd60e51b81526020600482015260186024820152771b1a5c5d5a59185d1bdc881c995dd85c990819985a5b195960421b6044820152606490fd5b5047811115611cbb565b600186015460018060a01b0389165f52600c602052611fb660405f209182546139bc565b9055611cb2565b809192939450670de0b6b3a7640000810204670de0b6b3a764000014811517156108855761201c670de0b6b3a76400006120138161200a612003612021978388026139c9565b80996139a9565b049687966139a9565b049485926139bc565b6139bc565b918880611c7c565b60405162461bcd60e51b815260206004820152601060248201526f706f736974696f6e206865616c74687960801b6044820152606490fd5b90506020813d60201161208b575b8161207c602093836138f7565b8101031261038e575184611bc5565b3d915061206f565b3461038e57602036600319011261038e576001600160a01b036120b461373a565b165f52600d602052602060405f2054604051908152f35b3461038e575f36600319011261038e576001546040516001600160a01b039091168152602090f35b3461038e57602036600319011261038e5761210c61373a565b61211461442f565b600580546001600160a01b0319166001600160a01b0392909216919091179055005b3461038e57602036600319011261038e5761214f61373a565b61215761442f565b600180546001600160a01b0319166001600160a01b0392909216919091179055005b602036600319011261038e5761218d61373a565b341561038e576001600160a01b03165f818152600f6020526040902080546121b69034906138ea565b90556121c4346011546138ea565b6011555f805160206149f88339815191526020604051348152a2005b3461038e575f36600319011261038e576014546040516001600160a01b039091168152602090f35b3461038e575f36600319011261038e5761222061442f565b5f8054610100600160a81b03198116825560081c6001600160a01b03165f80516020614a788339815191528280a3005b3461038e57602036600319011261038e57602061094861226e61373a565b613d98565b3461038e57602036600319011261038e576001600160a01b0361229461373a565b165f52600b6020526040805f2054600c602052815f205482519182526020820152f35b3461038e57602036600319011261038e576122d061373a565b335f52600a60205260405f209060018060a01b031690815f52602052600760405f2061230560ff600483015460081c16613876565b5f60058201555f60068201550160ff198154169055337fe9b7e1d3cb64115da0bf49cbe4af2b06c8d42e87b1e1c0fe240c32be832f58095f80a3005b3461038e57604036600319011261038e5761235a61373a565b600354602435916001600160a01b0391821633148015612480575b8015612471575b1561243b5716906040516323b872dd60e01b5f5233600452306024528160445260205f60648180875af160015f511481161561241c575b816040525f60605215612406575060207fe3a6e26dceff30d982e183d0ce051fb5b791f2108785a9d440d417247cef5b4191835f526010825260405f206123fb8282546138ea565b9055604051908152a2005b635274afe760e01b815260048101839052602490fd5b600181151661243257833b15153d1516166123b3565b503d5f823e3d90fd5b60405162461bcd60e51b815260206004820152600e60248201526d1b9bdd08185d5d1a1bdc9a5e995960921b6044820152606490fd5b50815f5460081c16331461237c565b5081600454163314612375565b3461038e575f36600319011261038e576020600954604051908152f35b3461038e57602036600319011261038e576004356124c661442f565b6124d46101f4821115613ace565b600955005b60c036600319011261038e576124ed61373a565b6124f56137a2565b60a43591821515830361038e5761250a6143e3565b612512614412565b670de0b6b3a76400006064351015806127a4575b61252f90613c83565b61253d604435341015613cc2565b61254a60443515156138b0565b6084351561276a5760018060a01b031691825f52601360205261257360ff60405f205416613d04565b335f52600a60205260405f20835f5260205261259c60ff600460405f20015460081c1615613d4c565b60155460405190919061010081016001600160401b03811182821017611a065760405233815284602082015283151560408201526044356060820152606435608082015260843560a082015281151560c0820152600160e0820152600160401b831015611a065760018301601555612613836137f2565b61275757815181546001600160a01b0319166001600160a01b03918216178255602083015160018301805460408601516001600160a81b0319909116929093169190911791151560a090811b60ff60a01b169290921790556060830151600283015560808301516003830155820151600482015560c08201516005919091019160e0916126a290151584613b3e565b0151815461ff00191690151560081b61ff0016179055335f9081526016602052604090208054600160401b811015611a06576126e3916001820181556137dd565b81549060031b9084821b915f19901b19161790556040519215158352604435602084015260643560408401526084356060840152151560808301527fd38cf2938cf143ec7305058c0eac45e5532fcd567442eef7f027e22d8b1caed560a03393a460015f80516020614a9883398151915255005b634e487b7160e01b5f525f60045260245ffd5b60405162461bcd60e51b81526020600482015260126024820152717a65726f207472696767657220707269636560701b6044820152606490fd5b50678ac7230489e800006064351115612526565b3461038e575f36600319011261038e576020604051610bb88152f35b3461038e5760208060031936011261038e576127ee61373a565b6001546040516341976e0960e01b81526001600160a01b03928316600482015291839183916024918391165afa9081156108c8575f91612832575b50604051908152f35b90508181813d8311612858575b61284981836138f7565b8101031261038e575182612829565b503d61283f565b3461038e575f36600319011261038e57602060ff5f54166040519015158152f35b3461038e57602036600319011261038e5760043560125481101561038e576128a96020916137b1565b905460405160039290921b1c6001600160a01b03168152f35b3461038e575f36600319011261038e576002546040516001600160a01b039091168152602090f35b3461038e575f36600319011261038e5760206040516170808152f35b3461038e575f36600319011261038e576020600854604051908152f35b3461038e575f36600319011261038e576020601254604051908152f35b3461038e57604036600319011261038e5761295961373a565b612961613750565b9060018060a01b038091165f52600a60205260405f2091165f5260205261014060405f208054906001810154906002810154600382015460ff600484015460058501549260068601549460088460078901541697015497604051998a5260208a0152604089015260608801528181161515608088015260081c16151560a086015260c085015260e08401521515610100830152610120820152f35b3461038e57602036600319011261038e57612a1561373a565b612a1d61442f565b600380546001600160a01b0319166001600160a01b0392909216919091179055005b3461038e57606036600319011261038e57612a5861373a565b612a60613750565b60443590811515820361038e57612a756143e3565b612a7d614412565b60018060a01b038084165f52600a60205260405f208183165f5260205260405f209060048201549160ff8360081c168061302f575b1561300057816001541693604051916020836024816341976e0960e01b998a825288871660048301525afa9283156108c8575f93612fcc575b50612af7831515613b4f565b612b00826144a9565b8615612fc1576005810154945b8515612f925760ff1615612f74578615612f6357612b2d85841015613bc3565b6001612710612b408354600954906139a9565b049182151580612f59575b612f41575b0154928489165f52600a60205260405f208584165f5260205260405f2095612b8160ff600489015460081c16613876565b612b8a8461465c565b60208660015416986024604051809b819382528a891660048301525afa9788156108c8575f98612f0d575b50612bc1881515613b4f565b612bca846144a9565b670de0b6b3a76400008502858104670de0b6b3a76400001486151715610885577f399e51b755363f9e7c0719a2ac0289d77f512608b9d120ae8af7ca01e0ff3e1e9888888d8199612c238a96600160809f0154906139c9565b670de0b6b3a7640000612c3d826105e9896105e48a61391a565b0591612c50826105e98a6106018a61391a565b50612c5e886106018861391a565b5f811315612eaf578654612c9a9190808211612ea7575b81612c7f916139bc565b8855868a165f52600f60205260405f206106498282546138ea565b6011555b670de0b6b3a7640000612cb9600388019342855588546139a9565b04915f8412612e7f57612ccc84846138ea565b925b600488015460ff1615612e5f57868a165f52600b60205260405f20612cf48482546139bc565b90555b6001880154838103612dc7575050505094612d4e91865f80516020614ab88339815191529697151580612dbd575b612da2575b5060ff600488015416916001885498015486604051978897169a169842948761447f565b0390a3848a165f52600a60205260405f208585165f52602052612d7360405f20613def565b604051981515895260208901526040880152606087015216941692a360015f80516020614a9883398151915255005b5f808080612db7948a8a165af1610731613c00565b5f612d2a565b5047811115612d25565b91612df85f80516020614a58833981519152999592612dec86612e3299979d966139bc565b600188015586546139bc565b85554290555f600885015580151580612e55575b612e3a575b50600160ff60048501541693015486604051978897169a169842948761447f565b0390a3612d73565b5f808080612e4f948b8b165af1610731613c00565b5f612e11565b5047811115612e0c565b868a165f52600c60205260405f20612e788482546139bc565b9055612cf7565b612e8884613ddf565b838110612e9857505f5b92612cce565b612ea290846139bc565b612e92565b905080612c75565b5f8112612ebd575b50612c9e565b612ec690613ddf565b612ed18188546138ea565b87558589165f52600f60205260405f209081549181831015612ef5575b5050612eb7565b61087082612f02946139bc565b6011555f8080612eee565b9097506020813d602011612f39575b81612f29602093836138f7565b8101031261038e5751968a612bb5565b3d9150612f1c565b612f545f80808087335af1611199613c00565b612b50565b5047831115612b4b565b612f6f85841115613b86565b612b2d565b8615612f8657612f6f85841115613bc3565b612f6f85841015613b86565b60405162461bcd60e51b81526020600482015260076024820152661b9bdd081cd95d60ca1b6044820152606490fd5b600681015494612b0d565b9092506020813d602011612ff8575b81612fe8602093836138f7565b8101031261038e57519188612aeb565b3d9150612fdb565b60405162461bcd60e51b81526020600482015260076024820152661b9bc81d1c1cdb60ca1b6044820152606490fd5b5060ff600782015416612ab2565b3461038e57606036600319011261038e5761305661373a565b602435604435335f526020600a815260405f209360018060a01b031693845f52815260405f2060ff6004820154613091828260081c16613876565b161561319a578315801561318d575b156131565782158015613149575b15613112576130d7905b846005820155836006820155841590811591613108575b600701613b3e565b6040519283528201527f6c6d28f5d331e789a81e2a85ca3c76cd34f609c9bc9d9caa6cd309c7dd015fb460403392a3005b84151591506130cf565b60405162461bcd60e51b815260048101839052600f60248201526e534c206d757374203c20656e74727960881b6044820152606490fd5b50600281015483106130ae565b60405162461bcd60e51b815260048101839052600f60248201526e5450206d757374203e20656e74727960881b6044820152606490fd5b50600281015484116130a0565b8315801561323a575b1561320357821580156131f6575b156131bf576130d7906130b8565b60405162461bcd60e51b815260048101839052600f60248201526e534c206d757374203e20656e74727960881b6044820152606490fd5b50600281015483116131b1565b60405162461bcd60e51b815260048101839052600f60248201526e5450206d757374203c20656e74727960881b6044820152606490fd5b50600281015484106131a3565b3461038e57602036600319011261038e5761326061373a565b61326861442f565b60018060a01b0380911690815f52601360205261328b60ff60405f205416613b05565b80601454168214613373575f828152601360205260408120805460ff191690555b6012908154918282101561336a578392856132c6846137b1565b969054600397881b1c16146132e25750506001919250016132ac565b9092915f199180830191908211610885576119a084613303613310946137b1565b905490891b1c16916137b1565b82548015613356570192613323846137b1565b81939154921b1b19169055555b7f53f882e7ae7f246c0c12e357352713c90da73cfbaa37abcdc49697b332efc9275f80a2005b634e487b7160e01b5f52603160045260245ffd5b50505050613330565b60405162461bcd60e51b815260206004820152601560248201527418d85b9b9bdd0819195b1a5cdd08191959985d5b1d605a1b6044820152606490fd5b3461038e575f36600319011261038e576020600754604051908152f35b3461038e57602036600319011261038e576001600160a01b036133ee61373a565b165f52600c602052602060405f2054604051908152f35b3461038e5760208060031936011261038e5761341f61373a565b906134286143e3565b613430614412565b335f52600a815260405f2091602460018060a01b039182811694855f528452600160405f2061346860ff600483015460081c16613876565b015492335f52600a855260405f20865f52855260405f209085600483019161349660ff845460081c16613876565b61349f8561465c565b60015416604051958680926341976e0960e01b82528b60048301525afa9384156108c8575f94613509575b506134d6841515613b4f565b6134df836144a9565b670de0b6b3a764000080860295808704821481151715610885576105ce60018501978854906139c9565b9093508581813d8311613531575b61352181836138f7565b8101031261038e575192876134ca565b503d613517565b3461038e57602036600319011261038e5760043561355461442f565b61356766038d7ea4c68000821115613ace565b600655005b3461038e575f36600319011261038e57604051601280548083525f918252602080840193927fbb8a6a4669ba250d26cd7a459eca9d215f8307e33aebe50379bc5a3617ec344492915b8282106135e057610ba5856135cc818903826138f7565b604051918291602083526020830190613766565b83546001600160a01b0316865294850194600193840193909101906135b5565b3461038e575f36600319011261038e576020601554604051908152f35b3461038e575f36600319011261038e576020601154604051908152f35b3461038e57604036600319011261038e57602061094861365861373a565b613660613750565b906139e7565b602036600319011261038e5761367a61373a565b6136826143e3565b61368a614412565b335f52600a60205260405f209060018060a01b031690815f5260205260405f206136bd60ff600483015460081c16613876565b6136c83415156138b0565b6136d33482546138ea565b8091556040519034825260208201527f5ee4d5d52169c996164e259f1aad282b3746303766ea2f71d42f3d0aaa9680a560403392a360015f80516020614a9883398151915255005b3461038e575f36600319011261038e578066d529ae9e86000060209252f35b600435906001600160a01b038216820361038e57565b602435906001600160a01b038216820361038e57565b9081518082526020808093019301915f5b828110613785575050505090565b83516001600160a01b031685529381019392810192600101613777565b60243590811515820361038e57565b6012548110156137c95760125f5260205f2001905f90565b634e487b7160e01b5f52603260045260245ffd5b80548210156137c9575f5260205f2001905f90565b6015548110156137c95760155f52600660205f20910201905f90565b9081518082526020808093019301915f5b82811061382d575050505090565b83518552938101939281019260010161381f565b9081518082526020808093019301915f5b828110613860575050505090565b8351151585529381019392810192600101613852565b1561387d57565b60405162461bcd60e51b815260206004820152600b60248201526a3737903837b9b4ba34b7b760a91b6044820152606490fd5b156138b757565b60405162461bcd60e51b815260206004820152600b60248201526a3d32b9379036b0b933b4b760a91b6044820152606490fd5b9190820180921161088557565b601f909101601f19168101906001600160401b03821190821017611a0657604052565b60405190919061014081016001600160401b03811182821017611a0657604052610120600882948054845260018101546020850152600281015460408501526003810154606085015260ff600482015481811615156080870152831c16151560a0850152600581015460c0850152600681015460e085015260ff60078201541615156101008501520154910152565b8181029291811591840414171561088557565b9190820391821161088557565b81156139d3570490565b634e487b7160e01b5f52601260045260245ffd5b60018060a01b038091165f52600a60205260405f2091165f52602052613a0f60405f2061391a565b60a081015115613ac95780518015613a775760808201516020919015613a7d57613a3d9060408401516139a9565b910151670eb5e06245ea00009081810291818304149015171561088557670de0b6b3a764000090048015613a7757613a74916139c9565b90565b50505f90565b613a8b9060408401516139a9565b910151670d0b8d0508de00009081810291818304149015171561088557670de0b6b3a764000090048015613ac257613a74916139c9565b50505f1990565b505f90565b15613ad557565b60405162461bcd60e51b81526020600482015260086024820152670e8dede40d0d2ced60c31b6044820152606490fd5b15613b0c57565b60405162461bcd60e51b815260206004820152600a6024820152691b9bdd081b1a5cdd195960b21b6044820152606490fd5b9060ff801983541691151516179055565b15613b5657565b60405162461bcd60e51b81526020600482015260086024820152676e6f20707269636560c01b6044820152606490fd5b15613b8d57565b60405162461bcd60e51b815260206004820152600e60248201526d14d3081b9bdd081c995858da195960921b6044820152606490fd5b15613bca57565b60405162461bcd60e51b815260206004820152600e60248201526d1514081b9bdd081c995858da195960921b6044820152606490fd5b3d15613c39573d906001600160401b038211611a065760405191613c2e601f8201601f1916602001846138f7565b82523d5f602084013e565b606090565b15613c4557565b60405162461bcd60e51b8152602060048201526016602482015275195e1958dd5d1bdc881c995dd85c990819985a5b195960521b6044820152606490fd5b15613c8a57565b60405162461bcd60e51b815260206004820152601060248201526f696e76616c6964206c6576657261676560801b6044820152606490fd5b15613cc957565b60405162461bcd60e51b815260206004820152601360248201527234b739bab33334b1b4b2b73a1036b0b933b4b760691b6044820152606490fd5b15613d0b57565b60405162461bcd60e51b81526020600482015260196024820152780746f6b656e206e6f74206c697374656420666f72207065727603c1b6044820152606490fd5b15613d5357565b60405162461bcd60e51b815260206004820152601d60248201527f636c6f7365206578697374696e6720706f736974696f6e2066697273740000006044820152606490fd5b6001600160a01b03165f818152600e602052604090205415613dcf575f52600e60205260405f205461708081018091116108855790565b5061708042018042116108855790565b600160ff1b8114610885575f0390565b60085f918281558260018201558260028201558260038201558260048201558260058201558260068201558260078201550155565b60018060a01b038091165f52602090600a82528060405f20931692835f528252613e5060405f2061391a565b9060a082015115613ec757829060015416936024604051809681936341976e0960e01b835260048301525afa9182156108c8575f92613e95575b50613a749250614879565b90915082813d8311613ec0575b613eac81836138f7565b8101031261038e57613a749151905f613e8a565b503d613ea2565b505050505f90565b15613ed657565b60405162461bcd60e51b815260206004820152600d60248201526c34b73b30b634b21037b93232b960991b6044820152606490fd5b15613f1257565b60405162461bcd60e51b815260206004820152601060248201526f6f72646572206e6f742061637469766560801b6044820152606490fd5b15613f5157565b60405162461bcd60e51b815260206004820152600f60248201526e1d1c985b9cd9995c8819985a5b1959608a1b6044820152606490fd5b15613f8f57565b60405162461bcd60e51b81526020600482015260116024820152701c1c9a58d9481b9bdd081c995858da1959607a1b6044820152606490fd5b15613fcf57565b60405162461bcd60e51b8152602060048201526013602482015272199959481d1c985b9cd9995c8819985a5b1959606a1b6044820152606490fd5b9192608093969594919660a0840197151584526020840152604083015260608201520152565b60018060a01b03809116805f52602092600a845260409083825f20911690815f52855261405e825f2061391a565b9360a0850151156141c7578251936230cf6960e71b855260048501528160248501528584604481305afa9384156141bd579086915f9561418c575b50600154169160248451809481936341976e0960e01b835260048301525afa948515614182575f95614152575b50508315613ec7576080830151156141265781841115613ec7576140ff920151818082115f1461411c576140f9916139bc565b926139bc565b9060648202918083046064149015171561088557613a74916139c9565b50506001926139bc565b818492941015613ec7576140ff9201518084115f14614149576140f990846139bc565b506001926139bc565b9080929550813d831161417b575b61416a81836138f7565b8101031261038e5751925f806140c6565b503d614160565b82513d5f823e3d90fd5b8281939296503d83116141b6575b6141a481836138f7565b8101031261038e57859051935f614099565b503d61419a565b83513d5f823e3d90fd5b505050505050606490565b6001600160401b038111611a065760051b60200190565b906141f3826141d2565b61420060405191826138f7565b8281528092614211601f19916141d2565b0190602036910137565b80518210156137c95760209160051b010190565b60018060a01b03165f52600b60205260405f2054600c60205260405f20549080159182809361432f575b61432857808211156142bb57670de0b6b3a7640000928383029283048414171561088557614299916142919180156142b257906139c9565b6006546139a9565b0466038d7ea4c680008082136142ad575090565b905090565b506001906139c9565b91908083116142cb575050505f90565b670de0b6b3a7640000918284029380850484149015171561088557614302936142fc92614291926142b257906139c9565b04613ddf565b66038d7ea4c6800061431382613ddf565b1361431b5790565b5066038d7ea4c67fff1990565b5050505f90565b508015614259565b60018060a01b038091165f52602090600a82528060405f20931692835f52825261436360405f2061391a565b9060a0820151156143da57829060015416936024604051809681936341976e0960e01b835260048301525afa9182156108c8575f926143a8575b50613a74925061459e565b90915082813d83116143d3575b6143bf81836138f7565b8101031261038e57613a749151905f61439d565b503d6143b5565b505050505f1990565b5f80516020614a9883398151915260028154146144005760029055565b604051633ee5aeb560e01b8152600490fd5b60ff5f541661441d57565b60405163d93c066560e01b8152600490fd5b5f5460081c6001600160a01b0316330361444557565b60405163118cdaa760e01b8152336004820152602490fd5b81810292915f8212600160ff1b82141661088557818405149015171561088557565b9260a094919796959260c08501981515855260208501526040840152606083015260808201520152565b6001546040516385f89eef60e01b81526001600160a01b0392831660048201526020929091839183916024918391165afa9081156108c8575f91614571575b508015614536576144fc61012c91426139bc565b116145045750565b6064906040519062461bcd60e51b82526004820152600b60248201526a7072696365207374616c6560a81b6044820152fd5b60405162461bcd60e51b81526004810183905260136024820152721c1c9a58d9481b995d995c881d5c19185d1959606a1b6044820152606490fd5b90508181813d8311614597575b61458881836138f7565b8101031261038e57515f6144e8565b503d61457e565b6145a88282614879565b60808201519092901561463a576145c66145d19160208401516139a9565b6040830151906139c9565b915b5f811261460f576145e491516138ea565b905b8015613ac257670de0b6b3a76400009182810292818404149015171561088557613a74916139c9565b61461890613ddf565b90519081811061462c5750505f5b906145e6565b614635916139bc565b614626565b6146569061465160208401516040850151906139a9565b6139c9565b916145d3565b60018060a01b0316805f526020600e81526040805f20805415614871576146849054426139bc565b916170809283811061486a57845f52600b8252825f2054600c8352835f205494811592838094614862575b6148505704945f818311156147a35750670de0b6b3a76400009283830292830484141715610885576146f1918691610d7f916142919180156142b257906139c9565b049066038d7ea4c68000938085029485040361088557835f80516020614a1883398151915294831361479b575b505b5f82131561475957845f52600d8152825f2061473d8382546138ea565b90555b845f52600e815242835f205582519182524290820152a2565b5f8212156147405761476a82613ddf565b855f52600d8252835f209080825410155f146147925761478b9082546139bc565b9055614740565b505f9055614740565b91505f61471e565b93928282116147c5575b5050505f80516020614a188339815191529350614720565b9091929350670de0b6b3a7640000918281029080820484149015171561088557610d7f6142918892614802966142fc95155f146142b257906139c9565b9061480c82613ddf565b9366038d7ea4c68000908082029182040361088557805f80516020614a18833981519152951361483e575b80806147ad565b614849919250613ddf565b905f614837565b5050600e90925250505f204290555050565b5086156146af565b5050505050565b429055505050565b6080810151156148d9576040810180519091908084106148ba5750613a74926148ac60206148b2930151918451906139bc565b906139a9565b9051906139c9565b6148b2906148ac613a749560206148d496950151926139bc565b613ddf565b6040810180519091908084116149015750613a74926148ac60206148b29301519184516139bc565b613a74936148ac6148b29260206148d496950151926139bc565b909315614930576145e69291614651916139a9565b61493d92614651916139a9565b6145e6565b6060810151428110156143285761495c61708091426139bc565b049182156143285760018060a01b03165f52600b60205260405f2054600c60205260405f2054928115806149ef575b613ec7576149b16149a7670de0b6b3a7640000926006546139a9565b60208501516139a9565b0492808211156149d257505060800151156149c95790565b613a7490613ddf565b116149dd5750505f90565b6080015115613a7457613a7490613ddf565b50831561498b56febf303edf95352cf6ad54b706e89542319cd1e6cafa0cd0a4240c27e776b9dea7769084355bca6d68d2849f20818a61530e0c68371f43a43c0ca7edc0b3ee27509020403d73c786ad905c04a7eb4321e541e6d41ceae2333e7f74fade7471558cbf9f87525440f259c04cb82958a99f5e4d1fc20995d3313229f91ee94f6d62cf8be0079c531659141344cd1fd0a4f28419497f9722a3daafe3b4186f6b6457e09b779b17422d0df92223018b32b4d1fa46e071723d6817e2486d003becc55f008252bd05c6d67c86efed48140ec67188bf0dfd021cd6fd1b830f99ea0f354e19a26469706673582212206acfe4ad3c9e7a3a2b388f4e1a3d757df0d53fa71f57dc72df7610d4f36ac00664736f6c63430008180033","opcodes":"PUSH1 0x80 CALLVALUE PUSH3 0x15F JUMPI PUSH1 0x1F PUSH3 0x4C9A CODESIZE DUP2 SWAP1 SUB SWAP2 DUP3 ADD PUSH1 0x1F NOT AND DUP4 ADD SWAP2 PUSH1 0x1 PUSH1 0x1 PUSH1 0x40 SHL SUB DUP4 GT DUP5 DUP5 LT OR PUSH3 0x163 JUMPI DUP1 DUP5 SWAP3 PUSH1 0x60 SWAP5 PUSH1 0x40 MSTORE DUP4 CODECOPY DUP2 ADD SUB SLT PUSH3 0x15F JUMPI PUSH3 0x4D DUP2 PUSH3 0x177 JUMP JUMPDEST PUSH3 0x69 PUSH1 0x40 PUSH3 0x61 PUSH1 0x20 DUP6 ADD PUSH3 0x177 JUMP JUMPDEST SWAP4 ADD PUSH3 0x177 JUMP JUMPDEST SWAP2 PUSH1 0x1 PUSH32 0x9B779B17422D0DF92223018B32B4D1FA46E071723D6817E2486D003BECC55F00 SSTORE CALLER ISZERO PUSH3 0x147 JUMPI PUSH0 DUP1 SLOAD PUSH2 0x100 PUSH1 0x1 PUSH1 0xA8 SHL SUB NOT DUP2 AND CALLER PUSH1 0x8 DUP2 DUP2 SHL PUSH2 0x100 PUSH1 0x1 PUSH1 0xA8 SHL SUB AND SWAP3 SWAP1 SWAP3 OR DUP5 SSTORE PUSH1 0x40 MLOAD SWAP7 PUSH1 0x1 PUSH1 0x1 PUSH1 0xA0 SHL SUB SWAP6 SWAP1 SWAP5 DUP7 SWAP5 SWAP2 SWAP4 SWAP2 SWAP1 SWAP2 SHR DUP5 AND SWAP1 PUSH32 0x8BE0079C531659141344CD1FD0A4F28419497F9722A3DAAFE3B4186F6B6457E0 SWAP1 DUP1 LOG3 PUSH6 0x5AF3107A4000 PUSH1 0x6 SSTORE PUSH1 0xA PUSH1 0x7 SSTORE PUSH2 0x1F4 PUSH1 0x8 SSTORE PUSH1 0x64 PUSH1 0x9 SSTORE DUP2 PUSH1 0x1 DUP1 PUSH1 0xA0 SHL SUB NOT SWAP6 AND DUP6 PUSH1 0x1 SLOAD AND OR PUSH1 0x1 SSTORE AND DUP4 PUSH1 0x2 SLOAD AND OR PUSH1 0x2 SSTORE AND SWAP1 PUSH1 0x5 SLOAD AND OR PUSH1 0x5 SSTORE PUSH2 0x4B0D SWAP1 DUP2 PUSH3 0x18D DUP3 CODECOPY RETURN JUMPDEST PUSH1 0x40 MLOAD PUSH4 0x1E4FBDF7 PUSH1 0xE0 SHL DUP2 MSTORE PUSH0 PUSH1 0x4 DUP3 ADD MSTORE PUSH1 0x24 SWAP1 REVERT JUMPDEST PUSH0 DUP1 REVERT JUMPDEST PUSH4 0x4E487B71 PUSH1 0xE0 SHL PUSH0 MSTORE PUSH1 0x41 PUSH1 0x4 MSTORE PUSH1 0x24 PUSH0 REVERT JUMPDEST MLOAD SWAP1 PUSH1 0x1 PUSH1 0x1 PUSH1 0xA0 SHL SUB DUP3 AND DUP3 SUB PUSH3 0x15F JUMPI JUMP INVALID PUSH1 0x80 DUP1 PUSH1 0x40 MSTORE PUSH1 0x4 CALLDATASIZE LT ISZERO PUSH2 0x1C JUMPI JUMPDEST POP CALLDATASIZE ISZERO PUSH2 0x1A JUMPI PUSH0 DUP1 REVERT JUMPDEST STOP JUMPDEST PUSH0 CALLDATALOAD PUSH1 0xE0 SHR SWAP1 DUP2 PUSH4 0xBF429D7 EQ PUSH2 0x371B JUMPI POP DUP1 PUSH4 0x10D9B8B8 EQ PUSH2 0x3666 JUMPI DUP1 PUSH4 0x1867B480 EQ PUSH2 0x363A JUMPI DUP1 PUSH4 0x19D07496 EQ PUSH2 0x361D JUMPI DUP1 PUSH4 0x1C7817CC EQ PUSH2 0x3600 JUMPI DUP1 PUSH4 0x2BA996A5 EQ PUSH2 0x356C JUMPI DUP1 PUSH4 0x2E354C7D EQ PUSH2 0x3538 JUMPI DUP1 PUSH4 0x2F86E2DD EQ PUSH2 0x3405 JUMPI DUP1 PUSH4 0x31141490 EQ PUSH2 0x33CD JUMPI DUP1 PUSH4 0x35659FB8 EQ PUSH2 0x33B0 JUMPI DUP1 PUSH4 0x37ACB119 EQ PUSH2 0x3247 JUMPI DUP1 PUSH4 0x407DC308 EQ PUSH2 0x303D JUMPI DUP1 PUSH4 0x428AD47D EQ PUSH2 0x2A3F JUMPI DUP1 PUSH4 0x43FF1FB8 EQ PUSH2 0x29FC JUMPI DUP1 PUSH4 0x4BD21445 EQ PUSH2 0x2940 JUMPI DUP1 PUSH4 0x4C974221 EQ PUSH2 0x2923 JUMPI DUP1 PUSH4 0x4D92C756 EQ PUSH2 0x2906 JUMPI DUP1 PUSH4 0x55EFB287 EQ PUSH2 0x28EA JUMPI DUP1 PUSH4 0x57431923 EQ PUSH2 0x28C2 JUMPI DUP1 PUSH4 0x5A9D1AC3 EQ PUSH2 0x2880 JUMPI DUP1 PUSH4 0x5C975ABB EQ PUSH2 0x285F JUMPI DUP1 PUSH4 0x5D6F9C14 EQ PUSH2 0x27D4 JUMPI DUP1 PUSH4 0x5DB3225A EQ PUSH2 0x27B8 JUMPI DUP1 PUSH4 0x5EAFC3A6 EQ PUSH2 0x24D9 JUMPI DUP1 PUSH4 0x6268B6E9 EQ PUSH2 0x24AA JUMPI DUP1 PUSH4 0x6301793D EQ PUSH2 0x248D JUMPI DUP1 PUSH4 0x66168BD7 EQ PUSH2 0x2341 JUMPI DUP1 PUSH4 0x6970BFF8 EQ PUSH2 0x22B7 JUMPI DUP1 PUSH4 0x6A0016D0 EQ PUSH2 0x2273 JUMPI DUP1 PUSH4 0x6D573090 EQ PUSH2 0x2250 JUMPI DUP1 PUSH4 0x715018A6 EQ PUSH2 0x2208 JUMPI DUP1 PUSH4 0x74C13FDA EQ PUSH2 0x21E0 JUMPI DUP1 PUSH4 0x759F8A1F EQ PUSH2 0x2179 JUMPI DUP1 PUSH4 0x7ADBF973 EQ PUSH2 0x2136 JUMPI DUP1 PUSH4 0x7CD86D60 EQ PUSH2 0x20F3 JUMPI DUP1 PUSH4 0x7DC0D1D0 EQ PUSH2 0x20CB JUMPI DUP1 PUSH4 0x7EBECC13 EQ PUSH2 0x2093 JUMPI DUP1 PUSH4 0x86B9D81F EQ PUSH2 0x1B1E JUMPI DUP1 PUSH4 0x8AB68FDF EQ PUSH2 0x1ADB JUMPI DUP1 PUSH4 0x8DA5CB5B EQ PUSH2 0x1AB0 JUMPI DUP1 PUSH4 0x8FDE79A8 EQ PUSH2 0x1A84 JUMPI DUP1 PUSH4 0x90F0496C EQ PUSH2 0x191C JUMPI DUP1 PUSH4 0x91DFACEE EQ PUSH2 0x18ED JUMPI DUP1 PUSH4 0x97B2544F EQ PUSH2 0x18B5 JUMPI DUP1 PUSH4 0x983DDE52 EQ PUSH2 0x1872 JUMPI DUP1 PUSH4 0x9B45EC97 EQ PUSH2 0x1850 JUMPI DUP1 PUSH4 0xA3E2B495 EQ PUSH2 0x17BD JUMPI DUP1 PUSH4 0xA5BB2BE6 EQ PUSH2 0x1774 JUMPI DUP1 PUSH4 0xA5CDC8FC EQ PUSH2 0x1636 JUMPI DUP1 PUSH4 0xAEA1D4D9 EQ PUSH2 0x15FE JUMPI DUP1 PUSH4 0xB1827330 EQ PUSH2 0x15DD JUMPI DUP1 PUSH4 0xB33DC190 EQ PUSH2 0x152A JUMPI DUP1 PUSH4 0xB959D695 EQ PUSH2 0x1331 JUMPI DUP1 PUSH4 0xB99287AE EQ PUSH2 0x12C9 JUMPI DUP1 PUSH4 0xC0417E58 EQ PUSH2 0x129B JUMPI DUP1 PUSH4 0xC0B5CE97 EQ PUSH2 0x1273 JUMPI DUP1 PUSH4 0xC7219460 EQ PUSH2 0xF61 JUMPI DUP1 PUSH4 0xCC018B7C EQ PUSH2 0xF44 JUMPI DUP1 PUSH4 0xCC0F374E EQ PUSH2 0xF07 JUMPI DUP1 PUSH4 0xD24DDFB7 EQ PUSH2 0xEDB JUMPI DUP1 PUSH4 0xDBA0AE3A EQ PUSH2 0xC61 JUMPI DUP1 PUSH4 0xDD5D02E6 EQ PUSH2 0xA6A JUMPI DUP1 PUSH4 0xE138818C EQ PUSH2 0xA42 JUMPI DUP1 PUSH4 0xE1E32F99 EQ PUSH2 0x9E8 JUMPI DUP1 PUSH4 0xE3A892D5 EQ PUSH2 0x9C5 JUMPI DUP1 PUSH4 0xE851BC94 EQ PUSH2 0x950 JUMPI DUP1 PUSH4 0xEA0A45F9 EQ PUSH2 0x91C JUMPI DUP1 PUSH4 0xECFCC6DA EQ PUSH2 0x4B6 JUMPI DUP1 PUSH4 0xEFF1D50E EQ PUSH2 0x48E JUMPI DUP1 PUSH4 0xF25B9CAA EQ PUSH2 0x472 JUMPI DUP1 PUSH4 0xF2FDE38B EQ PUSH2 0x3EB JUMPI DUP1 PUSH4 0xF40F2A79 EQ PUSH2 0x3CA JUMPI DUP1 PUSH4 0xF7C628EE EQ PUSH2 0x392 JUMPI PUSH4 0xFF846006 EQ PUSH2 0x356 JUMPI PUSH0 PUSH2 0xF JUMP JUMPDEST CALLVALUE PUSH2 0x38E JUMPI PUSH1 0x20 CALLDATASIZE PUSH1 0x3 NOT ADD SLT PUSH2 0x38E JUMPI PUSH1 0x1 PUSH1 0x1 PUSH1 0xA0 SHL SUB PUSH2 0x377 PUSH2 0x373A JUMP JUMPDEST AND PUSH0 MSTORE PUSH1 0xB PUSH1 0x20 MSTORE PUSH1 0x20 PUSH1 0x40 PUSH0 KECCAK256 SLOAD PUSH1 0x40 MLOAD SWAP1 DUP2 MSTORE RETURN JUMPDEST PUSH0 DUP1 REVERT JUMPDEST CALLVALUE PUSH2 0x38E JUMPI PUSH1 0x20 CALLDATASIZE PUSH1 0x3 NOT ADD SLT PUSH2 0x38E JUMPI PUSH1 0x1 PUSH1 0x1 PUSH1 0xA0 SHL SUB PUSH2 0x3B3 PUSH2 0x373A JUMP JUMPDEST AND PUSH0 MSTORE PUSH1 0xE PUSH1 0x20 MSTORE PUSH1 0x20 PUSH1 0x40 PUSH0 KECCAK256 SLOAD PUSH1 0x40 MLOAD SWAP1 DUP2 MSTORE RETURN JUMPDEST CALLVALUE PUSH2 0x38E JUMPI PUSH0 CALLDATASIZE PUSH1 0x3 NOT ADD SLT PUSH2 0x38E JUMPI PUSH1 0x20 PUSH1 0x40 MLOAD PUSH7 0x38D7EA4C68000 DUP2 MSTORE RETURN JUMPDEST CALLVALUE PUSH2 0x38E JUMPI PUSH1 0x20 CALLDATASIZE PUSH1 0x3 NOT ADD SLT PUSH2 0x38E JUMPI PUSH2 0x404 PUSH2 0x373A JUMP JUMPDEST PUSH2 0x40C PUSH2 0x442F JUMP JUMPDEST PUSH1 0x1 PUSH1 0x1 PUSH1 0xA0 SHL SUB DUP2 DUP2 AND SWAP2 DUP3 ISZERO PUSH2 0x45A JUMPI PUSH0 DUP1 SLOAD PUSH2 0x100 PUSH1 0x1 PUSH1 0xA8 SHL SUB NOT DUP2 AND PUSH1 0x8 SWAP4 DUP5 SHL PUSH2 0x100 PUSH1 0x1 PUSH1 0xA8 SHL SUB AND OR DUP3 SSTORE SWAP1 SWAP2 SHR SWAP2 SWAP1 SWAP2 AND SWAP1 PUSH0 DUP1 MLOAD PUSH1 0x20 PUSH2 0x4A78 DUP4 CODECOPY DUP2 MLOAD SWAP2 MSTORE SWAP1 DUP1 LOG3 STOP JUMPDEST PUSH1 0x40 MLOAD PUSH4 0x1E4FBDF7 PUSH1 0xE0 SHL DUP2 MSTORE PUSH0 PUSH1 0x4 DUP3 ADD MSTORE PUSH1 0x24 SWAP1 REVERT JUMPDEST CALLVALUE PUSH2 0x38E JUMPI PUSH0 CALLDATASIZE PUSH1 0x3 NOT ADD SLT PUSH2 0x38E JUMPI PUSH1 0x20 PUSH1 0x40 MLOAD PUSH2 0x12C DUP2 MSTORE RETURN JUMPDEST CALLVALUE PUSH2 0x38E JUMPI PUSH0 CALLDATASIZE PUSH1 0x3 NOT ADD SLT PUSH2 0x38E JUMPI PUSH1 0x3 SLOAD PUSH1 0x40 MLOAD PUSH1 0x1 PUSH1 0x1 PUSH1 0xA0 SHL SUB SWAP1 SWAP2 AND DUP2 MSTORE PUSH1 0x20 SWAP1 RETURN JUMPDEST CALLVALUE PUSH2 0x38E JUMPI PUSH1 0x40 CALLDATASIZE PUSH1 0x3 NOT ADD SLT PUSH2 0x38E JUMPI PUSH2 0x4CF PUSH2 0x373A JUMP JUMPDEST PUSH1 0x24 CALLDATALOAD PUSH2 0x4DA PUSH2 0x43E3 JUMP JUMPDEST PUSH2 0x4E2 PUSH2 0x4412 JUMP JUMPDEST CALLER PUSH0 MSTORE PUSH1 0x20 SWAP1 PUSH1 0xA DUP3 MSTORE PUSH1 0x40 PUSH0 KECCAK256 SWAP3 PUSH1 0x1 DUP1 PUSH1 0xA0 SHL SUB SWAP2 DUP3 DUP3 AND SWAP5 DUP6 PUSH0 MSTORE DUP5 MSTORE PUSH1 0x40 PUSH0 KECCAK256 SWAP3 PUSH2 0x51A PUSH1 0xFF PUSH1 0x4 DUP7 ADD SLOAD PUSH1 0x8 SHR AND PUSH2 0x3876 JUMP JUMPDEST DUP2 ISZERO SWAP4 DUP5 ISZERO SWAP1 DUP2 PUSH2 0x90D JUMPI JUMPDEST POP ISZERO PUSH2 0x8D3 JUMPI SWAP1 PUSH1 0x24 SWAP3 SWAP2 CALLER PUSH0 MSTORE PUSH1 0xA DUP7 MSTORE PUSH1 0x40 PUSH0 KECCAK256 DUP8 PUSH0 MSTORE DUP7 MSTORE PUSH1 0x40 PUSH0 KECCAK256 SWAP2 DUP7 PUSH1 0x4 DUP5 ADD SWAP3 PUSH2 0x55C PUSH1 0xFF DUP6 SLOAD PUSH1 0x8 SHR AND PUSH2 0x3876 JUMP JUMPDEST PUSH2 0x565 DUP7 PUSH2 0x465C JUMP JUMPDEST PUSH1 0x1 SLOAD AND PUSH1 0x40 MLOAD SWAP7 DUP8 DUP1 SWAP3 PUSH4 0x41976E09 PUSH1 0xE0 SHL DUP3 MSTORE DUP13 PUSH1 0x4 DUP4 ADD MSTORE GAS STATICCALL SWAP5 DUP6 ISZERO PUSH2 0x8C8 JUMPI PUSH0 SWAP6 PUSH2 0x899 JUMPI JUMPDEST POP PUSH2 0x59C DUP6 ISZERO ISZERO PUSH2 0x3B4F JUMP JUMPDEST PUSH2 0x5A5 DUP5 PUSH2 0x44A9 JUMP JUMPDEST PUSH8 0xDE0B6B3A7640000 SWAP1 DUP2 DUP2 MUL SWAP7 DUP2 DUP9 DIV DUP4 EQ OR ISZERO PUSH2 0x885 JUMPI PUSH2 0x5CE PUSH1 0x1 DUP6 ADD SWAP8 DUP9 SLOAD SWAP1 PUSH2 0x39C9 JUMP JUMPDEST SWAP2 PUSH2 0x610 DUP2 PUSH2 0x5EE DUP6 PUSH2 0x5E9 DUP12 PUSH2 0x5E4 DUP12 PUSH2 0x391A JUMP JUMPDEST PUSH2 0x4879 JUMP JUMPDEST PUSH2 0x445D JUMP JUMPDEST SDIV SWAP7 PUSH2 0x606 DUP6 PUSH2 0x5E9 DUP4 PUSH2 0x601 DUP12 PUSH2 0x391A JUMP JUMPDEST PUSH2 0x4942 JUMP JUMPDEST POP PUSH2 0x601 DUP8 PUSH2 0x391A JUMP JUMPDEST PUSH0 DUP2 SGT ISZERO PUSH2 0x820 JUMPI DUP6 SLOAD PUSH2 0x653 SWAP2 SWAP1 DUP1 DUP3 GT PUSH2 0x818 JUMPI JUMPDEST DUP2 PUSH2 0x631 SWAP2 PUSH2 0x39BC JUMP JUMPDEST DUP8 SSTORE DUP12 PUSH0 MSTORE PUSH1 0xF DUP12 MSTORE PUSH1 0x40 PUSH0 KECCAK256 PUSH2 0x649 DUP3 DUP3 SLOAD PUSH2 0x38EA JUMP JUMPDEST SWAP1 SSTORE PUSH1 0x11 SLOAD PUSH2 0x38EA JUMP JUMPDEST PUSH1 0x11 SSTORE JUMPDEST PUSH2 0x669 PUSH1 0x3 DUP7 ADD SWAP4 TIMESTAMP DUP6 SSTORE DUP7 SLOAD PUSH2 0x39A9 JUMP JUMPDEST DIV SWAP2 PUSH0 DUP7 SLT PUSH2 0x7F0 JUMPI PUSH2 0x67C DUP7 DUP5 PUSH2 0x38EA JUMP JUMPDEST SWAP3 JUMPDEST DUP5 SLOAD PUSH1 0xFF AND ISZERO PUSH2 0x7D3 JUMPI DUP11 PUSH0 MSTORE PUSH1 0xB DUP11 MSTORE PUSH1 0x40 PUSH0 KECCAK256 PUSH2 0x69E DUP5 DUP3 SLOAD PUSH2 0x39BC JUMP JUMPDEST SWAP1 SSTORE JUMPDEST DUP9 SLOAD DUP4 DUP2 SUB PUSH2 0x747 JUMPI POP POP POP POP DUP8 SWAP5 SWAP3 PUSH1 0xFF PUSH0 DUP1 MLOAD PUSH1 0x20 PUSH2 0x4AB8 DUP4 CODECOPY DUP2 MLOAD SWAP2 MSTORE SWAP6 SWAP4 DUP4 PUSH2 0x6ED SWAP5 ISZERO ISZERO DUP1 PUSH2 0x73D JUMPI JUMPDEST PUSH2 0x71E JUMPI JUMPDEST POP SLOAD AND SWAP1 SLOAD SWAP7 SLOAD SWAP3 PUSH1 0x40 MLOAD SWAP5 DUP6 SWAP5 CALLER SWAP10 TIMESTAMP SWAP5 DUP8 PUSH2 0x447F JUMP JUMPDEST SUB SWAP1 LOG3 CALLER PUSH0 MSTORE PUSH1 0xA DUP2 MSTORE PUSH1 0x40 PUSH0 KECCAK256 SWAP2 PUSH0 MSTORE MSTORE PUSH2 0x70B PUSH1 0x40 PUSH0 KECCAK256 PUSH2 0x3DEF JUMP JUMPDEST PUSH1 0x1 PUSH0 DUP1 MLOAD PUSH1 0x20 PUSH2 0x4A98 DUP4 CODECOPY DUP2 MLOAD SWAP2 MSTORE SSTORE STOP JUMPDEST PUSH0 DUP1 DUP1 DUP1 PUSH2 0x737 SWAP5 CALLER GAS CALL PUSH2 0x731 PUSH2 0x3C00 JUMP JUMPDEST POP PUSH2 0x3F4A JUMP JUMPDEST DUP12 PUSH2 0x6D5 JUMP JUMPDEST POP SELFBALANCE DUP2 GT ISZERO PUSH2 0x6D0 JUMP JUMPDEST DUP4 SWAP12 SWAP11 POP PUSH2 0x7A8 SWAP7 PUSH1 0xFF SWAP6 SWAP4 PUSH2 0x77D PUSH0 SWAP5 PUSH2 0x774 PUSH0 DUP1 MLOAD PUSH1 0x20 PUSH2 0x4A58 DUP4 CODECOPY DUP2 MLOAD SWAP2 MSTORE SWAP15 SWAP11 SWAP9 PUSH1 0x8 SWAP7 PUSH2 0x39BC JUMP JUMPDEST DUP11 SSTORE DUP4 SLOAD PUSH2 0x39BC JUMP JUMPDEST DUP3 SSTORE TIMESTAMP SWAP1 SSTORE ADD SSTORE DUP1 ISZERO ISZERO DUP1 PUSH2 0x7C9 JUMPI JUMPDEST PUSH2 0x7B0 JUMPI JUMPDEST POP SLOAD AND SWAP1 SLOAD SWAP3 PUSH1 0x40 MLOAD SWAP5 DUP6 SWAP5 CALLER SWAP10 TIMESTAMP SWAP5 DUP8 PUSH2 0x447F JUMP JUMPDEST SUB SWAP1 LOG3 PUSH2 0x70B JUMP JUMPDEST PUSH0 DUP1 DUP1 DUP1 PUSH2 0x7C3 SWAP5 CALLER GAS CALL PUSH2 0x731 PUSH2 0x3C00 JUMP JUMPDEST DUP10 PUSH2 0x792 JUMP JUMPDEST POP SELFBALANCE DUP2 GT ISZERO PUSH2 0x78D JUMP JUMPDEST DUP11 PUSH0 MSTORE PUSH1 0xC DUP11 MSTORE PUSH1 0x40 PUSH0 KECCAK256 PUSH2 0x7E9 DUP5 DUP3 SLOAD PUSH2 0x39BC JUMP JUMPDEST SWAP1 SSTORE PUSH2 0x6A1 JUMP JUMPDEST PUSH2 0x7F9 DUP7 PUSH2 0x3DDF JUMP JUMPDEST DUP4 DUP2 LT PUSH2 0x809 JUMPI POP PUSH0 JUMPDEST SWAP3 PUSH2 0x67E JUMP JUMPDEST PUSH2 0x813 SWAP1 DUP5 PUSH2 0x39BC JUMP JUMPDEST PUSH2 0x803 JUMP JUMPDEST SWAP1 POP DUP1 PUSH2 0x627 JUMP JUMPDEST PUSH0 DUP2 SLT PUSH2 0x82E JUMPI JUMPDEST POP PUSH2 0x657 JUMP JUMPDEST PUSH2 0x837 SWAP1 PUSH2 0x3DDF JUMP JUMPDEST PUSH2 0x842 DUP2 DUP8 SLOAD PUSH2 0x38EA JUMP JUMPDEST DUP7 SSTORE DUP11 PUSH0 MSTORE PUSH1 0xF DUP11 MSTORE PUSH1 0x40 PUSH0 KECCAK256 SWAP1 DUP2 SLOAD SWAP2 DUP2 DUP4 LT ISZERO PUSH2 0x863 JUMPI JUMPDEST POP POP PUSH2 0x828 JUMP JUMPDEST PUSH2 0x870 DUP3 PUSH2 0x87A SWAP5 PUSH2 0x39BC JUMP JUMPDEST SWAP1 SSTORE PUSH1 0x11 SLOAD PUSH2 0x39BC JUMP JUMPDEST PUSH1 0x11 SSTORE DUP11 DUP1 DUP1 PUSH2 0x85C JUMP JUMPDEST PUSH4 0x4E487B71 PUSH1 0xE0 SHL PUSH0 MSTORE PUSH1 0x11 PUSH1 0x4 MSTORE PUSH1 0x24 PUSH0 REVERT JUMPDEST SWAP1 SWAP5 POP DUP7 DUP2 DUP2 RETURNDATASIZE DUP4 GT PUSH2 0x8C1 JUMPI JUMPDEST PUSH2 0x8B1 DUP2 DUP4 PUSH2 0x38F7 JUMP JUMPDEST DUP2 ADD SUB SLT PUSH2 0x38E JUMPI MLOAD SWAP4 DUP9 PUSH2 0x590 JUMP JUMPDEST POP RETURNDATASIZE PUSH2 0x8A7 JUMP JUMPDEST PUSH1 0x40 MLOAD RETURNDATASIZE PUSH0 DUP3 RETURNDATACOPY RETURNDATASIZE SWAP1 REVERT JUMPDEST PUSH1 0x40 MLOAD PUSH3 0x461BCD PUSH1 0xE5 SHL DUP2 MSTORE PUSH1 0x4 DUP2 ADD DUP7 SWAP1 MSTORE PUSH1 0x12 PUSH1 0x24 DUP3 ADD MSTORE PUSH18 0x696E76616C696420636C6F73652073697A65 PUSH1 0x70 SHL PUSH1 0x44 DUP3 ADD MSTORE PUSH1 0x64 SWAP1 REVERT JUMPDEST PUSH1 0x1 SWAP2 POP ADD SLOAD DUP3 GT ISZERO DUP8 PUSH2 0x526 JUMP JUMPDEST CALLVALUE PUSH2 0x38E JUMPI PUSH1 0x40 CALLDATASIZE PUSH1 0x3 NOT ADD SLT PUSH2 0x38E JUMPI PUSH1 0x20 PUSH2 0x948 PUSH2 0x93A PUSH2 0x373A JUMP JUMPDEST PUSH2 0x942 PUSH2 0x3750 JUMP JUMPDEST SWAP1 PUSH2 0x4337 JUMP JUMPDEST PUSH1 0x40 MLOAD SWAP1 DUP2 MSTORE RETURN JUMPDEST CALLVALUE PUSH2 0x38E JUMPI PUSH1 0x20 CALLDATASIZE PUSH1 0x3 NOT ADD SLT PUSH2 0x38E JUMPI PUSH1 0x4 CALLDATALOAD PUSH1 0x17 SLOAD DUP2 LT ISZERO PUSH2 0x38E JUMPI PUSH1 0xA0 SWAP1 PUSH1 0x17 PUSH0 MSTORE PUSH1 0x20 PUSH0 KECCAK256 SWAP1 PUSH1 0x2 SHL ADD PUSH1 0xFF PUSH1 0x1 DUP1 DUP5 SHL SUB SWAP2 DUP3 DUP2 SLOAD AND SWAP3 PUSH1 0x1 DUP3 ADD SLOAD AND SWAP1 PUSH1 0x3 PUSH1 0x2 DUP3 ADD SLOAD SWAP2 ADD SLOAD SWAP2 PUSH1 0x40 MLOAD SWAP5 DUP6 MSTORE PUSH1 0x20 DUP6 ADD MSTORE PUSH1 0x40 DUP5 ADD MSTORE DUP2 DUP2 AND ISZERO ISZERO PUSH1 0x60 DUP5 ADD MSTORE PUSH1 0x8 SHR AND ISZERO ISZERO PUSH1 0x80 DUP3 ADD MSTORE RETURN JUMPDEST CALLVALUE PUSH2 0x38E JUMPI PUSH1 0x20 CALLDATASIZE PUSH1 0x3 NOT ADD SLT PUSH2 0x38E JUMPI PUSH1 0x20 PUSH2 0x948 PUSH2 0x9E3 PUSH2 0x373A JUMP JUMPDEST PUSH2 0x422F JUMP JUMPDEST CALLVALUE PUSH2 0x38E JUMPI PUSH1 0x20 CALLDATASIZE PUSH1 0x3 NOT ADD SLT PUSH2 0x38E JUMPI PUSH2 0xA01 PUSH2 0x373A JUMP JUMPDEST PUSH2 0xA09 PUSH2 0x442F JUMP JUMPDEST PUSH1 0x1 PUSH1 0x1 PUSH1 0xA0 SHL SUB AND PUSH0 DUP2 DUP2 MSTORE PUSH1 0x13 PUSH1 0x20 MSTORE PUSH1 0x40 SWAP1 KECCAK256 SLOAD PUSH2 0xA2C SWAP1 PUSH1 0xFF AND PUSH2 0x3B05 JUMP JUMPDEST PUSH1 0x14 DUP1 SLOAD PUSH1 0x1 PUSH1 0x1 PUSH1 0xA0 SHL SUB NOT AND SWAP2 SWAP1 SWAP2 OR SWAP1 SSTORE STOP JUMPDEST CALLVALUE PUSH2 0x38E JUMPI PUSH0 CALLDATASIZE PUSH1 0x3 NOT ADD SLT PUSH2 0x38E JUMPI PUSH1 0x5 SLOAD PUSH1 0x40 MLOAD PUSH1 0x1 PUSH1 0x1 PUSH1 0xA0 SHL SUB SWAP1 SWAP2 AND DUP2 MSTORE PUSH1 0x20 SWAP1 RETURN JUMPDEST CALLVALUE PUSH2 0x38E JUMPI PUSH1 0x20 CALLDATASIZE PUSH1 0x3 NOT ADD SLT PUSH2 0x38E JUMPI PUSH1 0x1 PUSH1 0x1 PUSH1 0xA0 SHL SUB PUSH2 0xA8B PUSH2 0x373A JUMP JUMPDEST AND PUSH0 MSTORE PUSH1 0x16 PUSH1 0x20 MSTORE PUSH1 0x40 PUSH0 KECCAK256 DUP1 SLOAD SWAP1 PUSH2 0xAA3 DUP3 PUSH2 0x41E9 JUMP JUMPDEST SWAP1 PUSH2 0xAAD DUP4 PUSH2 0x41D2 JUMP JUMPDEST SWAP3 PUSH2 0xABB PUSH1 0x40 MLOAD SWAP5 DUP6 PUSH2 0x38F7 JUMP JUMPDEST DUP1 DUP5 MSTORE PUSH1 0x1F NOT PUSH2 0xACA DUP3 PUSH2 0x41D2 JUMP JUMPDEST ADD CALLDATASIZE PUSH1 0x20 DUP7 ADD CALLDATACOPY PUSH2 0xADA DUP2 PUSH2 0x41E9 JUMP JUMPDEST PUSH2 0xAE3 DUP3 PUSH2 0x41E9 JUMP JUMPDEST PUSH2 0xAEC DUP4 PUSH2 0x41E9 JUMP JUMPDEST SWAP1 PUSH2 0xAF6 DUP5 PUSH2 0x41E9 JUMP JUMPDEST SWAP3 PUSH2 0xB00 DUP6 PUSH2 0x41E9 JUMP JUMPDEST SWAP5 PUSH2 0xB0A DUP2 PUSH2 0x41E9 JUMP JUMPDEST SWAP7 PUSH0 JUMPDEST DUP3 DUP2 LT PUSH2 0xBA9 JUMPI POP POP POP PUSH1 0x40 MLOAD SWAP8 DUP9 SWAP8 PUSH2 0x100 DUP1 DUP11 MSTORE DUP10 ADD PUSH2 0xB2E SWAP2 PUSH2 0x380E JUMP JUMPDEST DUP9 DUP2 SUB PUSH1 0x20 DUP11 ADD MSTORE PUSH2 0xB3F SWAP2 PUSH2 0x3766 JUMP JUMPDEST DUP8 DUP2 SUB PUSH1 0x40 DUP10 ADD MSTORE PUSH2 0xB50 SWAP2 PUSH2 0x3841 JUMP JUMPDEST DUP7 DUP2 SUB PUSH1 0x60 DUP9 ADD MSTORE PUSH2 0xB61 SWAP2 PUSH2 0x380E JUMP JUMPDEST DUP6 DUP2 SUB PUSH1 0x80 DUP8 ADD MSTORE PUSH2 0xB72 SWAP2 PUSH2 0x380E JUMP JUMPDEST DUP5 DUP2 SUB PUSH1 0xA0 DUP7 ADD MSTORE PUSH2 0xB83 SWAP2 PUSH2 0x380E JUMP JUMPDEST DUP4 DUP2 SUB PUSH1 0xC0 DUP6 ADD MSTORE PUSH2 0xB94 SWAP2 PUSH2 0x3841 JUMP JUMPDEST DUP3 DUP2 SUB PUSH1 0xE0 DUP5 ADD MSTORE PUSH2 0xBA5 SWAP2 PUSH2 0x3841 JUMP JUMPDEST SUB SWAP1 RETURN JUMPDEST DUP1 DUP12 PUSH1 0x5 DUP13 PUSH2 0xBBA PUSH1 0x1 SWAP6 DUP8 PUSH2 0x37DD JUMP JUMPDEST SWAP1 SLOAD PUSH1 0x3 SWAP2 DUP3 SHL SHR PUSH2 0xBD6 DUP7 PUSH2 0xBCF DUP4 PUSH2 0x37F2 JUMP JUMPDEST POP SWAP5 PUSH2 0x421B JUMP JUMPDEST MSTORE DUP6 DUP3 ADD SLOAD SWAP4 PUSH2 0xBEE DUP7 DUP9 DUP1 PUSH1 0xA0 SHL SUB DUP8 AND SWAP3 PUSH2 0x421B JUMP JUMPDEST MSTORE PUSH1 0xFF SWAP4 DUP5 PUSH2 0xBFD DUP8 DUP13 PUSH2 0x421B JUMP JUMPDEST SWAP2 PUSH1 0xA0 SHR AND ISZERO ISZERO SWAP1 MSTORE PUSH1 0x2 DUP3 ADD SLOAD PUSH2 0xC15 DUP7 DUP13 PUSH2 0x421B JUMP JUMPDEST MSTORE DUP2 ADD SLOAD PUSH2 0xC23 DUP6 DUP13 PUSH2 0x421B JUMP JUMPDEST MSTORE PUSH1 0x4 DUP2 ADD SLOAD PUSH2 0xC33 DUP6 DUP14 PUSH2 0x421B JUMP JUMPDEST MSTORE ADD SLOAD SWAP1 PUSH2 0xC41 DUP4 DUP13 PUSH2 0x421B JUMP JUMPDEST DUP2 DUP4 AND ISZERO ISZERO SWAP1 MSTORE PUSH2 0xC52 DUP4 DUP14 PUSH2 0x421B JUMP JUMPDEST SWAP2 PUSH1 0x8 SHR AND ISZERO ISZERO SWAP1 MSTORE ADD PUSH2 0xB0D JUMP JUMPDEST PUSH1 0x80 CALLDATASIZE PUSH1 0x3 NOT ADD SLT PUSH2 0x38E JUMPI PUSH2 0xC75 PUSH2 0x373A JUMP JUMPDEST PUSH2 0xC7D PUSH2 0x37A2 JUMP JUMPDEST PUSH1 0x44 CALLDATALOAD SWAP2 PUSH1 0x64 CALLDATALOAD PUSH2 0xC8C PUSH2 0x43E3 JUMP JUMPDEST PUSH2 0xC94 PUSH2 0x4412 JUMP JUMPDEST PUSH8 0xDE0B6B3A7640000 SWAP2 DUP3 DUP3 LT ISZERO DUP1 PUSH2 0xEC9 JUMPI JUMPDEST PUSH2 0xCB1 SWAP1 PUSH2 0x3C83 JUMP JUMPDEST PUSH2 0xCBD DUP6 CALLVALUE LT ISZERO PUSH2 0x3CC2 JUMP JUMPDEST PUSH2 0xCC8 DUP6 ISZERO ISZERO PUSH2 0x38B0 JUMP JUMPDEST PUSH1 0x1 DUP1 PUSH1 0xA0 SHL SUB SWAP4 DUP5 DUP3 AND SWAP5 DUP6 PUSH0 MSTORE PUSH1 0x20 PUSH1 0x13 DUP2 MSTORE PUSH2 0xCED PUSH1 0xFF PUSH1 0x40 PUSH0 KECCAK256 SLOAD AND PUSH2 0x3D04 JUMP JUMPDEST CALLER PUSH0 MSTORE PUSH1 0xA DUP2 MSTORE PUSH1 0x40 PUSH0 KECCAK256 DUP8 PUSH0 MSTORE DUP2 MSTORE PUSH1 0x40 PUSH0 KECCAK256 PUSH1 0x4 DUP2 ADD SWAP7 PUSH2 0xD17 PUSH1 0xFF DUP10 SLOAD PUSH1 0x8 SHR AND ISZERO PUSH2 0x3D4C JUMP JUMPDEST DUP4 PUSH1 0x1 SLOAD AND SWAP7 DUP4 DUP11 PUSH1 0x24 PUSH1 0x40 MLOAD DUP1 SWAP12 DUP2 SWAP4 PUSH4 0x41976E09 PUSH1 0xE0 SHL DUP4 MSTORE PUSH1 0x4 DUP4 ADD MSTORE GAS STATICCALL SWAP8 DUP9 ISZERO PUSH2 0x8C8 JUMPI DUP12 SWAP1 PUSH0 SWAP10 PUSH2 0xE87 JUMPI JUMPDEST POP SWAP9 PUSH2 0xD8B PUSH1 0x7 SWAP4 PUSH2 0xD84 PUSH2 0xE23 SWAP10 SWAP9 SWAP8 SWAP7 SWAP5 PUSH0 DUP1 MLOAD PUSH1 0x20 PUSH2 0x4A38 DUP4 CODECOPY DUP2 MLOAD SWAP2 MSTORE SWAP14 PUSH2 0xD76 DUP15 ISZERO ISZERO PUSH2 0x3B4F JUMP JUMPDEST PUSH2 0xD7F DUP14 PUSH2 0x44A9 JUMP JUMPDEST PUSH2 0x39A9 JUMP JUMPDEST DIV SWAP9 PUSH2 0x465C JUMP JUMPDEST DUP12 DUP3 SSTORE DUP8 PUSH1 0x1 DUP4 ADD SSTORE DUP9 PUSH1 0x2 DUP4 ADD SSTORE TIMESTAMP PUSH1 0x3 DUP4 ADD SSTORE PUSH2 0xDAA DUP7 DUP3 PUSH2 0x3B3E JUMP JUMPDEST DUP1 SLOAD PUSH2 0xFF00 NOT AND PUSH2 0x100 OR SWAP1 SSTORE PUSH0 PUSH1 0x8 DUP3 ADD DUP2 SWAP1 SSTORE PUSH1 0x5 DUP3 ADD DUP2 SWAP1 SSTORE PUSH1 0x6 DUP3 ADD SSTORE ADD DUP1 SLOAD PUSH1 0xFF NOT AND SWAP1 SSTORE DUP3 ISZERO PUSH2 0xE6A JUMPI PUSH1 0xB SWAP1 DUP9 PUSH0 MSTORE MSTORE PUSH1 0x40 PUSH0 KECCAK256 PUSH2 0xDF0 DUP6 DUP3 SLOAD PUSH2 0x38EA JUMP JUMPDEST SWAP1 SSTORE JUMPDEST PUSH2 0x2710 PUSH2 0xE02 PUSH1 0x7 SLOAD DUP11 PUSH2 0x39A9 JUMP JUMPDEST DIV DUP1 ISZERO ISZERO DUP1 PUSH2 0xE5D JUMPI JUMPDEST PUSH2 0xE39 JUMPI JUMPDEST POP POP PUSH1 0x40 MLOAD SWAP4 DUP5 SWAP4 CALLER SWAP9 TIMESTAMP SWAP4 DUP7 PUSH2 0x400A JUMP JUMPDEST SUB SWAP1 LOG3 PUSH1 0x1 PUSH0 DUP1 MLOAD PUSH1 0x20 PUSH2 0x4A98 DUP4 CODECOPY DUP2 MLOAD SWAP2 MSTORE SSTORE STOP JUMPDEST PUSH0 DUP1 DUP1 DUP1 SWAP4 PUSH2 0xE56 SWAP6 PUSH1 0x2 SLOAD AND GAS CALL PUSH2 0xE50 PUSH2 0x3C00 JUMP JUMPDEST POP PUSH2 0x3FC8 JUMP JUMPDEST DUP8 DUP1 PUSH2 0xE11 JUMP JUMPDEST POP DUP2 PUSH1 0x2 SLOAD AND ISZERO ISZERO PUSH2 0xE0C JUMP JUMPDEST PUSH1 0xC SWAP1 DUP9 PUSH0 MSTORE MSTORE PUSH1 0x40 PUSH0 KECCAK256 PUSH2 0xE80 DUP6 DUP3 SLOAD PUSH2 0x38EA JUMP JUMPDEST SWAP1 SSTORE PUSH2 0xDF3 JUMP JUMPDEST DUP6 DUP1 SWAP6 SWAP4 SWAP11 POP DUP2 SWAP5 SWAP9 SWAP8 SWAP7 SWAP3 POP RETURNDATASIZE DUP4 GT PUSH2 0xEC2 JUMPI JUMPDEST PUSH2 0xEA6 DUP2 DUP4 PUSH2 0x38F7 JUMP JUMPDEST DUP2 ADD SUB SLT PUSH2 0x38E JUMPI SWAP1 MLOAD SWAP7 SWAP4 SWAP5 SWAP3 SWAP4 SWAP2 SWAP3 SWAP1 SWAP2 DUP11 PUSH2 0xD8B PUSH2 0xD49 JUMP JUMPDEST POP RETURNDATASIZE PUSH2 0xE9C JUMP JUMPDEST POP PUSH8 0x8AC7230489E80000 DUP3 GT ISZERO PUSH2 0xCA8 JUMP JUMPDEST CALLVALUE PUSH2 0x38E JUMPI PUSH1 0x40 CALLDATASIZE PUSH1 0x3 NOT ADD SLT PUSH2 0x38E JUMPI PUSH1 0x20 PUSH2 0x948 PUSH2 0xEF9 PUSH2 0x373A JUMP JUMPDEST PUSH2 0xF01 PUSH2 0x3750 JUMP JUMPDEST SWAP1 PUSH2 0x4030 JUMP JUMPDEST CALLVALUE PUSH2 0x38E JUMPI PUSH1 0x20 CALLDATASIZE PUSH1 0x3 NOT ADD SLT PUSH2 0x38E JUMPI PUSH1 0x1 PUSH1 0x1 PUSH1 0xA0 SHL SUB PUSH2 0xF28 PUSH2 0x373A JUMP JUMPDEST AND PUSH0 MSTORE PUSH1 0x13 PUSH1 0x20 MSTORE PUSH1 0x20 PUSH1 0xFF PUSH1 0x40 PUSH0 KECCAK256 SLOAD AND PUSH1 0x40 MLOAD SWAP1 ISZERO ISZERO DUP2 MSTORE RETURN JUMPDEST CALLVALUE PUSH2 0x38E JUMPI PUSH0 CALLDATASIZE PUSH1 0x3 NOT ADD SLT PUSH2 0x38E JUMPI PUSH1 0x20 PUSH1 0x6 SLOAD PUSH1 0x40 MLOAD SWAP1 DUP2 MSTORE RETURN JUMPDEST CALLVALUE PUSH2 0x38E JUMPI PUSH1 0x20 DUP1 PUSH1 0x3 NOT CALLDATASIZE ADD SLT PUSH2 0x38E JUMPI PUSH1 0x4 CALLDATALOAD PUSH2 0xF7E PUSH2 0x43E3 JUMP JUMPDEST PUSH2 0xF86 PUSH2 0x4412 JUMP JUMPDEST PUSH2 0xF93 PUSH1 0x15 SLOAD DUP3 LT PUSH2 0x3ECF JUMP JUMPDEST PUSH2 0xF9C DUP2 PUSH2 0x37F2 JUMP JUMPDEST POP SWAP1 PUSH1 0x5 DUP3 ADD SWAP3 DUP4 SLOAD SWAP1 PUSH1 0xFF SWAP3 PUSH2 0xFB7 DUP5 DUP5 PUSH1 0x8 SHR AND PUSH2 0x3F0B JUMP JUMPDEST PUSH1 0x1 DUP1 PUSH1 0xA0 SHL SUB SWAP3 PUSH1 0x24 DUP5 PUSH1 0x1 SLOAD AND SWAP4 PUSH1 0x1 DUP9 ADD SWAP1 DUP1 DUP8 DUP4 SLOAD AND SWAP7 PUSH1 0x40 MLOAD SWAP5 DUP6 DUP1 SWAP3 PUSH4 0x41976E09 PUSH1 0xE0 SHL DUP3 MSTORE DUP11 PUSH1 0x4 DUP4 ADD MSTORE GAS STATICCALL SWAP3 DUP4 ISZERO PUSH2 0x8C8 JUMPI PUSH0 SWAP4 PUSH2 0x1244 JUMPI JUMPDEST POP PUSH2 0x1005 DUP4 ISZERO ISZERO PUSH2 0x3B4F JUMP JUMPDEST PUSH2 0x100E DUP7 PUSH2 0x44A9 JUMP JUMPDEST DUP4 DUP9 AND ISZERO PUSH2 0x122F JUMPI PUSH2 0x1026 PUSH1 0x4 DUP11 ADD SLOAD DUP5 LT ISZERO PUSH2 0x3F88 JUMP JUMPDEST DUP7 DUP10 SLOAD AND PUSH0 MSTORE PUSH1 0xA DUP2 MSTORE PUSH1 0x40 PUSH0 KECCAK256 DUP7 PUSH0 MSTORE DUP2 MSTORE PUSH1 0x40 PUSH0 KECCAK256 PUSH1 0x4 DUP2 ADD DUP10 DUP2 SLOAD PUSH1 0x8 SHR AND PUSH2 0x11F6 JUMPI DUP9 SWAP10 SWAP11 SWAP12 PUSH2 0xFF00 SWAP10 SWAP9 SWAP10 NOT DUP1 SWAP8 AND SWAP1 SSTORE PUSH1 0x2 DUP13 ADD SWAP6 DUP13 DUP8 SLOAD SWAP1 PUSH1 0x3 ADD SLOAD PUSH2 0x1072 SWAP2 PUSH2 0x39A9 JUMP JUMPDEST PUSH8 0xDE0B6B3A7640000 SWAP1 DIV SWAP10 PUSH2 0x1087 SWAP1 PUSH2 0x465C JUMP JUMPDEST DUP7 SLOAD DUP4 SSTORE DUP10 PUSH1 0x1 DUP5 ADD SSTORE DUP6 PUSH1 0x2 DUP5 ADD SSTORE TIMESTAMP PUSH1 0x3 DUP5 ADD SSTORE DUP12 DUP6 SLOAD PUSH1 0xA0 SHR AND PUSH2 0x10AE SWAP1 DUP4 PUSH2 0x3B3E JUMP JUMPDEST DUP2 SLOAD AND PUSH2 0x100 OR SWAP1 SSTORE PUSH1 0x8 ADD PUSH0 SWAP1 SSTORE DUP2 SLOAD SWAP5 DUP7 DUP11 DUP8 PUSH1 0xA0 SHR AND PUSH0 EQ SWAP12 PUSH0 DUP1 MLOAD PUSH1 0x20 PUSH2 0x4A38 DUP4 CODECOPY DUP2 MLOAD SWAP2 MSTORE SWAP11 PUSH2 0xE23 SWAP9 PUSH32 0x431EBE7F2929904A285C3050AB2A96CA5B4533EE5206A3B661CDE6DD6D141D56 SWAP15 PUSH2 0x11D9 JUMPI POP DUP6 SLOAD AND PUSH0 MSTORE PUSH1 0xB DUP5 MSTORE PUSH1 0x40 PUSH0 KECCAK256 PUSH2 0x111C DUP12 DUP3 SLOAD PUSH2 0x38EA JUMP JUMPDEST SWAP1 SSTORE JUMPDEST PUSH2 0x1133 DUP8 SLOAD PUSH2 0x2710 SWAP2 DUP3 SWAP2 PUSH1 0x7 SLOAD SWAP1 PUSH2 0x39A9 JUMP JUMPDEST DIV DUP1 ISZERO ISZERO DUP1 PUSH2 0x11CC JUMPI JUMPDEST PUSH2 0x11AF JUMPI JUMPDEST POP PUSH2 0x1151 DUP9 SLOAD PUSH1 0x9 SLOAD SWAP1 PUSH2 0x39A9 JUMP JUMPDEST DIV DUP1 ISZERO ISZERO DUP1 PUSH2 0x11A5 JUMPI JUMPDEST PUSH2 0x1186 JUMPI JUMPDEST POP SLOAD AND SWAP11 DUP12 SWAP3 PUSH1 0x40 MLOAD DUP7 DUP2 MSTORE LOG3 SLOAD SWAP2 SLOAD SWAP5 PUSH1 0x40 MLOAD SWAP6 DUP7 SWAP6 DUP5 AND SWAP9 TIMESTAMP SWAP5 PUSH1 0xA0 SHR AND DUP7 PUSH2 0x400A JUMP JUMPDEST PUSH0 DUP1 DUP1 DUP1 PUSH2 0x119F SWAP5 CALLER GAS CALL PUSH2 0x1199 PUSH2 0x3C00 JUMP JUMPDEST POP PUSH2 0x3C3E JUMP JUMPDEST DUP14 PUSH2 0x1160 JUMP JUMPDEST POP SELFBALANCE DUP2 GT ISZERO PUSH2 0x115B JUMP JUMPDEST PUSH0 DUP1 DUP1 DUP1 PUSH2 0x11C6 SWAP5 DUP9 PUSH1 0x2 SLOAD AND GAS CALL PUSH2 0xE50 PUSH2 0x3C00 JUMP JUMPDEST DUP15 PUSH2 0x1142 JUMP JUMPDEST POP DUP4 PUSH1 0x2 SLOAD AND ISZERO ISZERO PUSH2 0x113D JUMP JUMPDEST AND PUSH0 MSTORE PUSH1 0xC DUP5 MSTORE PUSH1 0x40 PUSH0 KECCAK256 PUSH2 0x11EF DUP12 DUP3 SLOAD PUSH2 0x38EA JUMP JUMPDEST SWAP1 SSTORE PUSH2 0x111F JUMP JUMPDEST PUSH1 0x40 MLOAD PUSH3 0x461BCD PUSH1 0xE5 SHL DUP2 MSTORE PUSH1 0x4 DUP2 ADD DUP5 SWAP1 MSTORE PUSH1 0x11 PUSH1 0x24 DUP3 ADD MSTORE PUSH17 0x3AB9B2B9103430B9903837B9B4BA34B7B7 PUSH1 0x79 SHL PUSH1 0x44 DUP3 ADD MSTORE PUSH1 0x64 SWAP1 REVERT JUMPDEST PUSH2 0x123F PUSH1 0x4 DUP11 ADD SLOAD DUP5 GT ISZERO PUSH2 0x3F88 JUMP JUMPDEST PUSH2 0x1026 JUMP JUMPDEST SWAP1 DUP1 SWAP4 POP DUP2 DUP2 RETURNDATASIZE DUP4 GT PUSH2 0x126C JUMPI JUMPDEST PUSH2 0x125C DUP2 DUP4 PUSH2 0x38F7 JUMP JUMPDEST DUP2 ADD SUB SLT PUSH2 0x38E JUMPI MLOAD SWAP2 DUP11 PUSH2 0xFF9 JUMP JUMPDEST POP RETURNDATASIZE PUSH2 0x1252 JUMP JUMPDEST CALLVALUE PUSH2 0x38E JUMPI PUSH0 CALLDATASIZE PUSH1 0x3 NOT ADD SLT PUSH2 0x38E JUMPI PUSH1 0x4 SLOAD PUSH1 0x40 MLOAD PUSH1 0x1 PUSH1 0x1 PUSH1 0xA0 SHL SUB SWAP1 SWAP2 AND DUP2 MSTORE PUSH1 0x20 SWAP1 RETURN JUMPDEST CALLVALUE PUSH2 0x38E JUMPI PUSH1 0x20 CALLDATASIZE PUSH1 0x3 NOT ADD SLT PUSH2 0x38E JUMPI PUSH1 0x4 CALLDATALOAD PUSH2 0x12B7 PUSH2 0x442F JUMP JUMPDEST PUSH2 0x12C4 PUSH1 0x64 DUP3 GT ISZERO PUSH2 0x3ACE JUMP JUMPDEST PUSH1 0x7 SSTORE STOP JUMPDEST CALLVALUE PUSH2 0x38E JUMPI PUSH1 0x60 CALLDATASIZE PUSH1 0x3 NOT ADD SLT PUSH2 0x38E JUMPI PUSH2 0x12E2 PUSH2 0x373A JUMP JUMPDEST PUSH2 0x12EA PUSH2 0x3750 JUMP JUMPDEST PUSH1 0x44 CALLDATALOAD SWAP2 PUSH1 0x1 DUP1 PUSH1 0xA0 SHL SUB DUP1 SWAP2 AND PUSH0 MSTORE PUSH1 0x18 PUSH1 0x20 MSTORE PUSH1 0x40 PUSH0 KECCAK256 SWAP2 AND PUSH0 MSTORE PUSH1 0x20 MSTORE PUSH1 0x40 PUSH0 KECCAK256 DUP1 SLOAD DUP3 LT ISZERO PUSH2 0x38E JUMPI PUSH1 0x20 SWAP2 PUSH2 0x1323 SWAP2 PUSH2 0x37DD JUMP JUMPDEST SWAP1 SLOAD PUSH1 0x40 MLOAD SWAP2 PUSH1 0x3 SHL SHR DUP2 MSTORE RETURN JUMPDEST CALLVALUE PUSH2 0x38E JUMPI PUSH1 0x40 CALLDATASIZE PUSH1 0x3 NOT ADD SLT PUSH2 0x38E JUMPI PUSH2 0x134A PUSH2 0x373A JUMP JUMPDEST PUSH1 0x24 CALLDATALOAD PUSH2 0x1355 PUSH2 0x43E3 JUMP JUMPDEST PUSH2 0x135D PUSH2 0x4412 JUMP JUMPDEST CALLER PUSH0 MSTORE PUSH1 0x20 PUSH1 0xA DUP2 MSTORE PUSH1 0x40 PUSH0 KECCAK256 SWAP3 PUSH1 0x1 DUP1 PUSH1 0xA0 SHL SUB DUP1 SWAP2 AND SWAP4 DUP5 PUSH0 MSTORE DUP3 MSTORE PUSH1 0x40 PUSH0 KECCAK256 SWAP1 PUSH1 0x4 DUP3 ADD SLOAD SWAP1 PUSH2 0x1395 PUSH1 0xFF DUP4 PUSH1 0x8 SHR AND PUSH2 0x3876 JUMP JUMPDEST DUP5 ISZERO ISZERO DUP1 PUSH2 0x1520 JUMPI JUMPDEST ISZERO PUSH2 0x14EA JUMPI DUP4 PUSH1 0x24 SWAP2 PUSH1 0x1 SLOAD AND PUSH1 0x40 MLOAD SWAP3 DUP4 DUP1 SWAP3 PUSH4 0x41976E09 PUSH1 0xE0 SHL DUP3 MSTORE DUP11 PUSH1 0x4 DUP4 ADD MSTORE GAS STATICCALL SWAP1 DUP2 ISZERO PUSH2 0x8C8 JUMPI PUSH0 SWAP2 PUSH2 0x14BB JUMPI JUMPDEST POP PUSH2 0x140D DUP2 PUSH2 0x13EB PUSH8 0x11C37937E080000 SWAP4 ISZERO ISZERO PUSH2 0x3B4F JUMP JUMPDEST PUSH2 0x13F6 DUP8 DUP7 SLOAD PUSH2 0x39BC JUMP JUMPDEST SWAP4 PUSH1 0x1 DUP7 ADD SLOAD SWAP2 DUP6 PUSH1 0xFF PUSH1 0x2 DUP10 ADD SLOAD SWAP4 AND SWAP4 PUSH2 0x491B JUMP JUMPDEST LT PUSH2 0x146B JUMPI DUP2 SSTORE PUSH2 0x1427 PUSH0 DUP1 DUP1 DUP1 DUP8 CALLER GAS CALL PUSH2 0x731 PUSH2 0x3C00 JUMP JUMPDEST SLOAD SWAP1 PUSH1 0x40 MLOAD SWAP3 DUP4 MSTORE DUP3 ADD MSTORE PUSH32 0x33A6A7BEFB7E6C5E685340C90629413ED5A124B429160F8F02F4D818AE7EFBBD PUSH1 0x40 CALLER SWAP3 LOG3 PUSH1 0x1 PUSH0 DUP1 MLOAD PUSH1 0x20 PUSH2 0x4A98 DUP4 CODECOPY DUP2 MLOAD SWAP2 MSTORE SSTORE STOP JUMPDEST PUSH1 0x40 MLOAD PUSH3 0x461BCD PUSH1 0xE5 SHL DUP2 MSTORE PUSH1 0x4 DUP2 ADD DUP5 SWAP1 MSTORE PUSH1 0x22 PUSH1 0x24 DUP3 ADD MSTORE PUSH32 0x6D617267696E20726174696F20746F6F206C6F772061667465722072656D6F76 PUSH1 0x44 DUP3 ADD MSTORE PUSH2 0x185B PUSH1 0xF2 SHL PUSH1 0x64 DUP3 ADD MSTORE PUSH1 0x84 SWAP1 REVERT JUMPDEST SWAP1 POP DUP4 DUP2 DUP2 RETURNDATASIZE DUP4 GT PUSH2 0x14E3 JUMPI JUMPDEST PUSH2 0x14D2 DUP2 DUP4 PUSH2 0x38F7 JUMP JUMPDEST DUP2 ADD SUB SLT PUSH2 0x38E JUMPI MLOAD PUSH2 0x140D PUSH2 0x13D2 JUMP JUMPDEST POP RETURNDATASIZE PUSH2 0x14C8 JUMP JUMPDEST PUSH1 0x40 MLOAD PUSH3 0x461BCD PUSH1 0xE5 SHL DUP2 MSTORE PUSH1 0x4 DUP2 ADD DUP6 SWAP1 MSTORE PUSH1 0xE PUSH1 0x24 DUP3 ADD MSTORE PUSH14 0x1A5B9D985B1A5908185B5BDD5B9D PUSH1 0x92 SHL PUSH1 0x44 DUP3 ADD MSTORE PUSH1 0x64 SWAP1 REVERT JUMPDEST POP DUP3 SLOAD DUP6 LT PUSH2 0x139E JUMP JUMPDEST CALLVALUE PUSH2 0x38E JUMPI PUSH1 0x40 CALLDATASIZE PUSH1 0x3 NOT ADD SLT PUSH2 0x38E JUMPI PUSH2 0x1543 PUSH2 0x373A JUMP JUMPDEST PUSH2 0x154B PUSH2 0x3750 JUMP JUMPDEST SWAP1 PUSH1 0x1 DUP1 PUSH1 0xA0 SHL SUB DUP1 SWAP2 AND PUSH0 MSTORE PUSH1 0xA PUSH1 0x20 MSTORE PUSH1 0x40 PUSH0 KECCAK256 SWAP2 AND PUSH0 MSTORE PUSH1 0x20 MSTORE PUSH2 0x120 PUSH2 0x1577 PUSH1 0x40 PUSH0 KECCAK256 PUSH2 0x391A JUMP JUMPDEST DUP1 MLOAD SWAP1 PUSH1 0x20 DUP2 ADD MLOAD SWAP1 PUSH1 0x40 DUP2 ADD MLOAD PUSH1 0x60 DUP3 ADD MLOAD PUSH1 0x80 DUP4 ADD MLOAD ISZERO ISZERO PUSH1 0xA0 DUP5 ADD MLOAD ISZERO ISZERO SWAP1 PUSH1 0xC0 DUP6 ADD MLOAD SWAP3 PUSH1 0xE0 DUP7 ADD MLOAD SWAP5 PUSH2 0x100 DUP1 SWAP8 ADD MLOAD ISZERO ISZERO SWAP8 PUSH1 0x40 MLOAD SWAP10 DUP11 MSTORE PUSH1 0x20 DUP11 ADD MSTORE PUSH1 0x40 DUP10 ADD MSTORE PUSH1 0x60 DUP9 ADD MSTORE PUSH1 0x80 DUP8 ADD MSTORE PUSH1 0xA0 DUP7 ADD MSTORE PUSH1 0xC0 DUP6 ADD MSTORE PUSH1 0xE0 DUP5 ADD MSTORE DUP3 ADD MSTORE RETURN JUMPDEST CALLVALUE PUSH2 0x38E JUMPI PUSH0 CALLDATASIZE PUSH1 0x3 NOT ADD SLT PUSH2 0x38E JUMPI PUSH1 0x20 PUSH1 0x40 MLOAD PUSH7 0xB1A2BC2EC50000 DUP2 MSTORE RETURN JUMPDEST CALLVALUE PUSH2 0x38E JUMPI PUSH1 0x20 CALLDATASIZE PUSH1 0x3 NOT ADD SLT PUSH2 0x38E JUMPI PUSH1 0x1 PUSH1 0x1 PUSH1 0xA0 SHL SUB PUSH2 0x161F PUSH2 0x373A JUMP JUMPDEST AND PUSH0 MSTORE PUSH1 0xF PUSH1 0x20 MSTORE PUSH1 0x20 PUSH1 0x40 PUSH0 KECCAK256 SLOAD PUSH1 0x40 MLOAD SWAP1 DUP2 MSTORE RETURN JUMPDEST CALLVALUE PUSH2 0x38E JUMPI PUSH1 0x20 CALLDATASIZE PUSH1 0x3 NOT ADD SLT PUSH2 0x38E JUMPI PUSH1 0x4 CALLDATALOAD PUSH2 0x1652 PUSH2 0x43E3 JUMP JUMPDEST PUSH2 0x165F PUSH1 0x15 SLOAD DUP3 LT PUSH2 0x3ECF JUMP JUMPDEST PUSH2 0x1668 DUP2 PUSH2 0x37F2 JUMP JUMPDEST POP DUP1 SLOAD PUSH1 0x1 PUSH1 0x1 PUSH1 0xA0 SHL SUB AND CALLER SUB PUSH2 0x173E JUMPI DUP1 PUSH1 0x5 PUSH1 0x2 SWAP3 ADD DUP1 SLOAD PUSH2 0x1692 PUSH1 0xFF DUP3 PUSH1 0x8 SHR AND PUSH2 0x3F0B JUMP JUMPDEST PUSH2 0xFF00 NOT AND SWAP1 SSTORE ADD SLOAD DUP1 ISZERO ISZERO DUP1 PUSH2 0x1734 JUMPI JUMPDEST PUSH2 0x16E3 JUMPI JUMPDEST POP CALLER SWAP1 PUSH32 0x34CF495316DBB07C8286E6C6B35542A47854AAF8050F2DD51AB0347B85558297 PUSH0 DUP1 LOG3 PUSH1 0x1 PUSH0 DUP1 MLOAD PUSH1 0x20 PUSH2 0x4A98 DUP4 CODECOPY DUP2 MLOAD SWAP2 MSTORE SSTORE STOP JUMPDEST PUSH0 DUP1 DUP1 DUP1 SWAP4 CALLER GAS CALL PUSH2 0x16F3 PUSH2 0x3C00 JUMP JUMPDEST POP ISZERO PUSH2 0x16FF JUMPI DUP2 PUSH2 0x16A9 JUMP JUMPDEST PUSH1 0x40 MLOAD PUSH3 0x461BCD PUSH1 0xE5 SHL DUP2 MSTORE PUSH1 0x20 PUSH1 0x4 DUP3 ADD MSTORE PUSH1 0xD PUSH1 0x24 DUP3 ADD MSTORE PUSH13 0x1C99599D5B990819985A5B1959 PUSH1 0x9A SHL PUSH1 0x44 DUP3 ADD MSTORE PUSH1 0x64 SWAP1 REVERT JUMPDEST POP SELFBALANCE DUP2 GT ISZERO PUSH2 0x16A4 JUMP JUMPDEST PUSH1 0x40 MLOAD PUSH3 0x461BCD PUSH1 0xE5 SHL DUP2 MSTORE PUSH1 0x20 PUSH1 0x4 DUP3 ADD MSTORE PUSH1 0xE PUSH1 0x24 DUP3 ADD MSTORE PUSH14 0x3737BA103CB7BAB91037B93232B9 PUSH1 0x91 SHL PUSH1 0x44 DUP3 ADD MSTORE PUSH1 0x64 SWAP1 REVERT JUMPDEST CALLVALUE PUSH2 0x38E JUMPI PUSH1 0x40 CALLDATASIZE PUSH1 0x3 NOT ADD SLT PUSH2 0x38E JUMPI PUSH2 0x178D PUSH2 0x373A JUMP JUMPDEST PUSH1 0x1 PUSH1 0x1 PUSH1 0xA0 SHL SUB AND PUSH0 SWAP1 DUP2 MSTORE PUSH1 0x16 PUSH1 0x20 MSTORE PUSH1 0x40 SWAP1 KECCAK256 DUP1 SLOAD PUSH1 0x24 CALLDATALOAD SWAP2 SWAP1 DUP3 LT ISZERO PUSH2 0x38E JUMPI PUSH1 0x20 SWAP2 PUSH2 0x1323 SWAP2 PUSH2 0x37DD JUMP JUMPDEST CALLVALUE PUSH2 0x38E JUMPI PUSH1 0x20 CALLDATASIZE PUSH1 0x3 NOT ADD SLT PUSH2 0x38E JUMPI PUSH1 0x4 CALLDATALOAD PUSH1 0x15 SLOAD DUP2 LT ISZERO PUSH2 0x38E JUMPI PUSH2 0x17E7 PUSH2 0x100 SWAP2 PUSH2 0x37F2 JUMP JUMPDEST POP PUSH1 0xFF PUSH1 0x1 DUP1 PUSH1 0xA0 SHL SUB DUP1 DUP4 SLOAD AND SWAP3 PUSH1 0x1 DUP2 ADD SLOAD PUSH1 0x2 DUP3 ADD SLOAD DUP5 PUSH1 0x3 DUP5 ADD SLOAD SWAP3 PUSH1 0x5 PUSH1 0x4 DUP7 ADD SLOAD SWAP6 ADD SLOAD SWAP6 PUSH1 0x40 MLOAD SWAP9 DUP10 MSTORE DUP2 AND PUSH1 0x20 DUP10 ADD MSTORE PUSH1 0xA0 SHR AND ISZERO ISZERO PUSH1 0x40 DUP8 ADD MSTORE PUSH1 0x60 DUP7 ADD MSTORE PUSH1 0x80 DUP6 ADD MSTORE PUSH1 0xA0 DUP5 ADD MSTORE DUP2 DUP2 AND ISZERO ISZERO PUSH1 0xC0 DUP5 ADD MSTORE PUSH1 0x8 SHR AND ISZERO ISZERO PUSH1 0xE0 DUP3 ADD MSTORE RETURN JUMPDEST CALLVALUE PUSH2 0x38E JUMPI PUSH0 CALLDATASIZE PUSH1 0x3 NOT ADD SLT PUSH2 0x38E JUMPI PUSH1 0x20 PUSH1 0x40 MLOAD PUSH8 0x8AC7230489E80000 DUP2 MSTORE RETURN JUMPDEST CALLVALUE PUSH2 0x38E JUMPI PUSH1 0x20 CALLDATASIZE PUSH1 0x3 NOT ADD SLT PUSH2 0x38E JUMPI PUSH2 0x188B PUSH2 0x373A JUMP JUMPDEST PUSH2 0x1893 PUSH2 0x442F JUMP JUMPDEST PUSH1 0x2 DUP1 SLOAD PUSH1 0x1 PUSH1 0x1 PUSH1 0xA0 SHL SUB NOT AND PUSH1 0x1 PUSH1 0x1 PUSH1 0xA0 SHL SUB SWAP3 SWAP1 SWAP3 AND SWAP2 SWAP1 SWAP2 OR SWAP1 SSTORE STOP JUMPDEST CALLVALUE PUSH2 0x38E JUMPI PUSH1 0x20 CALLDATASIZE PUSH1 0x3 NOT ADD SLT PUSH2 0x38E JUMPI PUSH1 0x1 PUSH1 0x1 PUSH1 0xA0 SHL SUB PUSH2 0x18D6 PUSH2 0x373A JUMP JUMPDEST AND PUSH0 MSTORE PUSH1 0x10 PUSH1 0x20 MSTORE PUSH1 0x20 PUSH1 0x40 PUSH0 KECCAK256 SLOAD PUSH1 0x40 MLOAD SWAP1 DUP2 MSTORE RETURN JUMPDEST CALLVALUE PUSH2 0x38E JUMPI PUSH1 0x20 CALLDATASIZE PUSH1 0x3 NOT ADD SLT PUSH2 0x38E JUMPI PUSH1 0x4 CALLDATALOAD PUSH2 0x1909 PUSH2 0x442F JUMP JUMPDEST PUSH2 0x1917 PUSH2 0x3E8 DUP3 GT ISZERO PUSH2 0x3ACE JUMP JUMPDEST PUSH1 0x8 SSTORE STOP JUMPDEST CALLVALUE PUSH2 0x38E JUMPI PUSH1 0x20 CALLDATASIZE PUSH1 0x3 NOT ADD SLT PUSH2 0x38E JUMPI PUSH2 0x1935 PUSH2 0x373A JUMP JUMPDEST PUSH2 0x193D PUSH2 0x442F JUMP JUMPDEST PUSH1 0x1 PUSH1 0x1 PUSH1 0xA0 SHL SUB DUP2 DUP2 AND SWAP2 SWAP1 DUP3 ISZERO PUSH2 0x1A50 JUMPI DUP3 PUSH0 MSTORE PUSH1 0x13 PUSH1 0x20 MSTORE PUSH1 0xFF PUSH1 0x40 PUSH0 KECCAK256 SLOAD AND PUSH2 0x1A1A JUMPI PUSH0 DUP4 DUP2 MSTORE PUSH1 0x13 PUSH1 0x20 MSTORE PUSH1 0x40 SWAP1 KECCAK256 DUP1 SLOAD PUSH1 0xFF NOT AND PUSH1 0x1 OR SWAP1 SSTORE PUSH1 0x12 SLOAD PUSH1 0x1 PUSH1 0x40 SHL DUP2 LT ISZERO PUSH2 0x1A06 JUMPI DUP4 SWAP3 PUSH2 0x19A0 DUP3 PUSH1 0x1 PUSH2 0x19BE SWAP5 ADD PUSH1 0x12 SSTORE PUSH2 0x37B1 JUMP JUMPDEST SWAP1 SWAP2 SWAP1 PUSH1 0x1 DUP1 PUSH1 0xA0 SHL SUB DUP1 DUP5 SLOAD SWAP3 PUSH1 0x3 SHL SWAP4 AND DUP4 SHL SWAP3 SHL NOT AND OR SWAP1 SSTORE JUMP JUMPDEST PUSH1 0x14 SLOAD SWAP1 DUP2 AND ISZERO PUSH2 0x19F1 JUMPI JUMPDEST POP PUSH32 0x44407F8AF029E74EF3C8D735B22092E8D0B7793D8739EA61B6CD677AEF5EB412 PUSH0 DUP1 LOG2 STOP JUMPDEST PUSH1 0x1 PUSH1 0x1 PUSH1 0xA0 SHL SUB NOT AND OR PUSH1 0x14 SSTORE DUP1 DUP3 PUSH2 0x19CA JUMP JUMPDEST PUSH4 0x4E487B71 PUSH1 0xE0 SHL PUSH0 MSTORE PUSH1 0x41 PUSH1 0x4 MSTORE PUSH1 0x24 PUSH0 REVERT JUMPDEST PUSH1 0x40 MLOAD PUSH3 0x461BCD PUSH1 0xE5 SHL DUP2 MSTORE PUSH1 0x20 PUSH1 0x4 DUP3 ADD MSTORE PUSH1 0xE PUSH1 0x24 DUP3 ADD MSTORE PUSH14 0x185B1C9958591E481B1A5CDD1959 PUSH1 0x92 SHL PUSH1 0x44 DUP3 ADD MSTORE PUSH1 0x64 SWAP1 REVERT JUMPDEST PUSH1 0x40 MLOAD PUSH3 0x461BCD PUSH1 0xE5 SHL DUP2 MSTORE PUSH1 0x20 PUSH1 0x4 DUP3 ADD MSTORE PUSH1 0xC PUSH1 0x24 DUP3 ADD MSTORE PUSH12 0x7A65726F2061646472657373 PUSH1 0xA0 SHL PUSH1 0x44 DUP3 ADD MSTORE PUSH1 0x64 SWAP1 REVERT JUMPDEST CALLVALUE PUSH2 0x38E JUMPI PUSH1 0x40 CALLDATASIZE PUSH1 0x3 NOT ADD SLT PUSH2 0x38E JUMPI PUSH1 0x20 PUSH2 0x948 PUSH2 0x1AA2 PUSH2 0x373A JUMP JUMPDEST PUSH2 0x1AAA PUSH2 0x3750 JUMP JUMPDEST SWAP1 PUSH2 0x3E24 JUMP JUMPDEST CALLVALUE PUSH2 0x38E JUMPI PUSH0 CALLDATASIZE PUSH1 0x3 NOT ADD SLT PUSH2 0x38E JUMPI PUSH0 SLOAD PUSH1 0x40 MLOAD PUSH1 0x8 SWAP2 SWAP1 SWAP2 SHR PUSH1 0x1 PUSH1 0x1 PUSH1 0xA0 SHL SUB AND DUP2 MSTORE PUSH1 0x20 SWAP1 RETURN JUMPDEST CALLVALUE PUSH2 0x38E JUMPI PUSH1 0x20 CALLDATASIZE PUSH1 0x3 NOT ADD SLT PUSH2 0x38E JUMPI PUSH2 0x1AF4 PUSH2 0x373A JUMP JUMPDEST PUSH2 0x1AFC PUSH2 0x442F JUMP JUMPDEST PUSH1 0x4 DUP1 SLOAD PUSH1 0x1 PUSH1 0x1 PUSH1 0xA0 SHL SUB NOT AND PUSH1 0x1 PUSH1 0x1 PUSH1 0xA0 SHL SUB SWAP3 SWAP1 SWAP3 AND SWAP2 SWAP1 SWAP2 OR SWAP1 SSTORE STOP JUMPDEST CALLVALUE PUSH2 0x38E JUMPI PUSH1 0x40 CALLDATASIZE PUSH1 0x3 NOT ADD SLT PUSH2 0x38E JUMPI PUSH2 0x1B37 PUSH2 0x373A JUMP JUMPDEST PUSH2 0x1B3F PUSH2 0x3750 JUMP JUMPDEST SWAP1 PUSH2 0x1B48 PUSH2 0x43E3 JUMP JUMPDEST PUSH2 0x1B50 PUSH2 0x4412 JUMP JUMPDEST PUSH1 0x1 PUSH1 0x1 PUSH1 0xA0 SHL SUB DUP2 DUP2 AND PUSH0 SWAP1 DUP2 MSTORE PUSH1 0xA PUSH1 0x20 SWAP1 DUP2 MSTORE PUSH1 0x40 DUP1 DUP4 KECCAK256 SWAP4 DUP7 AND DUP4 MSTORE SWAP3 SWAP1 MSTORE KECCAK256 PUSH1 0x4 DUP2 ADD SLOAD PUSH2 0x1B88 SWAP1 PUSH1 0x8 SHR PUSH1 0xFF AND PUSH2 0x3876 JUMP JUMPDEST PUSH1 0x1 SLOAD PUSH1 0x40 MLOAD PUSH4 0x41976E09 PUSH1 0xE0 SHL DUP2 MSTORE PUSH1 0x1 PUSH1 0x1 PUSH1 0xA0 SHL SUB DUP6 DUP2 AND PUSH1 0x4 DUP4 ADD MSTORE SWAP1 SWAP2 PUSH1 0x20 SWAP2 DUP4 SWAP2 PUSH1 0x24 SWAP2 DUP4 SWAP2 AND GAS STATICCALL SWAP1 DUP2 ISZERO PUSH2 0x8C8 JUMPI PUSH0 SWAP2 PUSH2 0x2061 JUMPI JUMPDEST POP PUSH2 0x1BD1 DUP2 ISZERO ISZERO PUSH2 0x3B4F JUMP JUMPDEST PUSH2 0x1BDA DUP5 PUSH2 0x44A9 JUMP JUMPDEST PUSH7 0xD529AE9E860000 PUSH2 0x1BF4 DUP3 PUSH2 0x1BEF DUP6 PUSH2 0x391A JUMP JUMPDEST PUSH2 0x459E JUMP JUMPDEST LT ISZERO PUSH2 0x2029 JUMPI PUSH2 0x1C03 DUP5 PUSH2 0x465C JUMP JUMPDEST PUSH2 0x1C10 DUP2 PUSH2 0x5E4 DUP5 PUSH2 0x391A JUMP JUMPDEST SWAP1 DUP3 SLOAD PUSH7 0xB1A2BC2EC50000 DUP1 DUP3 MUL SWAP1 DUP3 DUP3 DIV EQ DUP3 ISZERO OR ISZERO PUSH2 0x885 JUMPI PUSH8 0xDE0B6B3A7640000 SWAP1 DIV PUSH2 0x2710 PUSH2 0x1C45 PUSH1 0x8 SLOAD DUP5 PUSH2 0x39A9 JUMP JUMPDEST DIV PUSH2 0xBB8 DUP4 DUP2 DUP2 MUL DIV DUP2 EQ DUP5 ISZERO OR ISZERO PUSH2 0x885 JUMPI PUSH2 0x2710 SWAP1 DUP5 MUL DIV SWAP3 PUSH2 0x1C73 DUP5 PUSH2 0x1C6E DUP5 DUP7 PUSH2 0x38EA JUMP JUMPDEST PUSH2 0x38EA JUMP JUMPDEST SWAP1 DUP1 DUP3 GT PUSH2 0x1FBD JUMPI JUMPDEST POP POP PUSH1 0x4 DUP7 ADD SLOAD PUSH1 0xFF AND ISZERO PUSH2 0x1F92 JUMPI PUSH1 0x1 DUP7 ADD SLOAD PUSH1 0x1 DUP1 PUSH1 0xA0 SHL SUB DUP10 AND PUSH0 MSTORE PUSH1 0xB PUSH1 0x20 MSTORE PUSH2 0x1CAF PUSH1 0x40 PUSH0 KECCAK256 SWAP2 DUP3 SLOAD PUSH2 0x39BC JUMP JUMPDEST SWAP1 SSTORE JUMPDEST DUP1 ISZERO ISZERO DUP1 PUSH2 0x1F88 JUMPI JUMPDEST PUSH2 0x1F2C JUMPI JUMPDEST POP DUP1 ISZERO ISZERO DUP1 PUSH2 0x1F18 JUMPI JUMPDEST PUSH2 0x1EB7 JUMPI JUMPDEST POP DUP1 PUSH2 0x1E5D JUMPI JUMPDEST POP PUSH0 DUP3 SLT PUSH2 0x1D6F JUMPI JUMPDEST PUSH1 0x1 PUSH1 0xFF PUSH1 0x4 DUP6 ADD SLOAD AND SWAP4 ADD SLOAD PUSH1 0x40 MLOAD SWAP4 ISZERO ISZERO DUP5 MSTORE PUSH1 0x20 DUP5 ADD MSTORE PUSH1 0x40 DUP4 ADD MSTORE PUSH1 0x60 DUP3 ADD MSTORE TIMESTAMP PUSH1 0x80 DUP3 ADD MSTORE PUSH1 0x1 DUP1 PUSH1 0xA0 SHL SUB DUP3 AND SWAP1 CALLER SWAP1 PUSH32 0x2519C4EBC951D8EE92A05C30C8D8C1470731AF70C412127475402ABD963D1B11 PUSH1 0xA0 PUSH1 0x1 DUP1 DUP3 SHL SUB DUP8 AND SWAP3 LOG4 PUSH1 0x1 DUP1 PUSH1 0xA0 SHL SUB AND PUSH0 MSTORE PUSH1 0xA PUSH1 0x20 MSTORE PUSH1 0x40 PUSH0 KECCAK256 SWAP1 PUSH1 0x1 DUP1 PUSH1 0xA0 SHL SUB AND PUSH0 MSTORE PUSH1 0x20 MSTORE PUSH2 0x70B PUSH1 0x40 PUSH0 KECCAK256 PUSH2 0x3DEF JUMP JUMPDEST PUSH2 0x1D78 DUP3 PUSH2 0x3DDF JUMP JUMPDEST DUP4 SLOAD DUP1 DUP3 GT DUP1 PUSH2 0x1E3D JUMPI JUMPDEST PUSH2 0x1D8F JUMPI JUMPDEST POP POP PUSH2 0x1CDF JUMP JUMPDEST PUSH2 0x1D98 SWAP2 PUSH2 0x39BC JUMP JUMPDEST PUSH1 0x1 PUSH1 0x1 PUSH1 0xA0 SHL SUB DUP7 AND PUSH0 SWAP1 DUP2 MSTORE PUSH1 0xF PUSH1 0x20 MSTORE PUSH1 0x40 SWAP1 KECCAK256 DUP1 SLOAD SWAP2 DUP3 DUP2 GT ISZERO PUSH2 0x1E32 JUMPI POP PUSH2 0x1DC5 DUP3 DUP1 PUSH2 0x39BC JUMP JUMPDEST SWAP1 SSTORE PUSH2 0x1DD3 DUP2 PUSH1 0x11 SLOAD PUSH2 0x39BC JUMP JUMPDEST PUSH1 0x11 SSTORE PUSH1 0x40 MLOAD SWAP1 DUP2 MSTORE PUSH1 0x40 PUSH1 0x20 DUP3 ADD MSTORE PUSH1 0xA PUSH1 0x40 DUP3 ADD MSTORE PUSH10 0x62616E6B727570746379 PUSH1 0xB0 SHL PUSH1 0x60 DUP3 ADD MSTORE PUSH32 0x9A8C1DC5FB2B764E1B96134304619E44486C555D03FA116C381105D23FD37E67 PUSH1 0x80 PUSH1 0x1 DUP1 PUSH1 0xA0 SHL SUB DUP9 AND SWAP3 LOG2 DUP6 DUP1 PUSH2 0x1D88 JUMP JUMPDEST PUSH2 0x1DC5 SWAP1 DUP1 SWAP4 PUSH2 0x39BC JUMP JUMPDEST POP PUSH1 0x1 PUSH1 0x1 PUSH1 0xA0 SHL SUB DUP8 AND PUSH0 SWAP1 DUP2 MSTORE PUSH1 0xF PUSH1 0x20 MSTORE PUSH1 0x40 SWAP1 KECCAK256 SLOAD ISZERO ISZERO PUSH2 0x1D83 JUMP JUMPDEST PUSH1 0x1 DUP1 PUSH1 0xA0 SHL SUB DUP7 AND PUSH0 MSTORE PUSH1 0xF PUSH1 0x20 MSTORE PUSH1 0x40 PUSH0 KECCAK256 PUSH2 0x1E7C DUP3 DUP3 SLOAD PUSH2 0x38EA JUMP JUMPDEST SWAP1 SSTORE PUSH2 0x1E8A DUP2 PUSH1 0x11 SLOAD PUSH2 0x38EA JUMP JUMPDEST PUSH1 0x11 SSTORE PUSH1 0x40 MLOAD SWAP1 DUP2 MSTORE PUSH1 0x1 PUSH1 0x1 PUSH1 0xA0 SHL SUB DUP7 AND SWAP1 PUSH0 DUP1 MLOAD PUSH1 0x20 PUSH2 0x49F8 DUP4 CODECOPY DUP2 MLOAD SWAP2 MSTORE SWAP1 PUSH1 0x20 SWAP1 LOG2 DUP6 PUSH2 0x1CD6 JUMP JUMPDEST PUSH1 0x2 SLOAD PUSH0 SWAP2 DUP3 SWAP2 DUP3 SWAP2 DUP3 SWAP2 PUSH1 0x1 PUSH1 0x1 PUSH1 0xA0 SHL SUB AND GAS CALL PUSH2 0x1ED5 PUSH2 0x3C00 JUMP JUMPDEST POP ISZERO PUSH2 0x1EE1 JUMPI DUP7 PUSH2 0x1CCF JUMP JUMPDEST PUSH1 0x40 MLOAD PUSH3 0x461BCD PUSH1 0xE5 SHL DUP2 MSTORE PUSH1 0x20 PUSH1 0x4 DUP3 ADD MSTORE PUSH1 0xF PUSH1 0x24 DUP3 ADD MSTORE PUSH15 0x189D5C9B881999594819985A5B1959 PUSH1 0x8A SHL PUSH1 0x44 DUP3 ADD MSTORE PUSH1 0x64 SWAP1 REVERT JUMPDEST POP PUSH1 0x2 SLOAD PUSH1 0x1 PUSH1 0x1 PUSH1 0xA0 SHL SUB AND ISZERO ISZERO PUSH2 0x1CCA JUMP JUMPDEST PUSH0 DUP1 DUP1 DUP1 SWAP4 CALLER GAS CALL PUSH2 0x1F3C PUSH2 0x3C00 JUMP JUMPDEST POP ISZERO PUSH2 0x1F48 JUMPI DUP8 PUSH2 0x1CC0 JUMP JUMPDEST PUSH1 0x40 MLOAD PUSH3 0x461BCD PUSH1 0xE5 SHL DUP2 MSTORE PUSH1 0x20 PUSH1 0x4 DUP3 ADD MSTORE PUSH1 0x18 PUSH1 0x24 DUP3 ADD MSTORE PUSH24 0x1B1A5C5D5A59185D1BDC881C995DD85C990819985A5B1959 PUSH1 0x42 SHL PUSH1 0x44 DUP3 ADD MSTORE PUSH1 0x64 SWAP1 REVERT JUMPDEST POP SELFBALANCE DUP2 GT ISZERO PUSH2 0x1CBB JUMP JUMPDEST PUSH1 0x1 DUP7 ADD SLOAD PUSH1 0x1 DUP1 PUSH1 0xA0 SHL SUB DUP10 AND PUSH0 MSTORE PUSH1 0xC PUSH1 0x20 MSTORE PUSH2 0x1FB6 PUSH1 0x40 PUSH0 KECCAK256 SWAP2 DUP3 SLOAD PUSH2 0x39BC JUMP JUMPDEST SWAP1 SSTORE PUSH2 0x1CB2 JUMP JUMPDEST DUP1 SWAP2 SWAP3 SWAP4 SWAP5 POP PUSH8 0xDE0B6B3A7640000 DUP2 MUL DIV PUSH8 0xDE0B6B3A7640000 EQ DUP2 ISZERO OR ISZERO PUSH2 0x885 JUMPI PUSH2 0x201C PUSH8 0xDE0B6B3A7640000 PUSH2 0x2013 DUP2 PUSH2 0x200A PUSH2 0x2003 PUSH2 0x2021 SWAP8 DUP4 DUP9 MUL PUSH2 0x39C9 JUMP JUMPDEST DUP1 SWAP10 PUSH2 0x39A9 JUMP JUMPDEST DIV SWAP7 DUP8 SWAP7 PUSH2 0x39A9 JUMP JUMPDEST DIV SWAP5 DUP6 SWAP3 PUSH2 0x39BC JUMP JUMPDEST PUSH2 0x39BC JUMP JUMPDEST SWAP2 DUP9 DUP1 PUSH2 0x1C7C JUMP JUMPDEST PUSH1 0x40 MLOAD PUSH3 0x461BCD PUSH1 0xE5 SHL DUP2 MSTORE PUSH1 0x20 PUSH1 0x4 DUP3 ADD MSTORE PUSH1 0x10 PUSH1 0x24 DUP3 ADD MSTORE PUSH16 0x706F736974696F6E206865616C746879 PUSH1 0x80 SHL PUSH1 0x44 DUP3 ADD MSTORE PUSH1 0x64 SWAP1 REVERT JUMPDEST SWAP1 POP PUSH1 0x20 DUP2 RETURNDATASIZE PUSH1 0x20 GT PUSH2 0x208B JUMPI JUMPDEST DUP2 PUSH2 0x207C PUSH1 0x20 SWAP4 DUP4 PUSH2 0x38F7 JUMP JUMPDEST DUP2 ADD SUB SLT PUSH2 0x38E JUMPI MLOAD DUP5 PUSH2 0x1BC5 JUMP JUMPDEST RETURNDATASIZE SWAP2 POP PUSH2 0x206F JUMP JUMPDEST CALLVALUE PUSH2 0x38E JUMPI PUSH1 0x20 CALLDATASIZE PUSH1 0x3 NOT ADD SLT PUSH2 0x38E JUMPI PUSH1 0x1 PUSH1 0x1 PUSH1 0xA0 SHL SUB PUSH2 0x20B4 PUSH2 0x373A JUMP JUMPDEST AND PUSH0 MSTORE PUSH1 0xD PUSH1 0x20 MSTORE PUSH1 0x20 PUSH1 0x40 PUSH0 KECCAK256 SLOAD PUSH1 0x40 MLOAD SWAP1 DUP2 MSTORE RETURN JUMPDEST CALLVALUE PUSH2 0x38E JUMPI PUSH0 CALLDATASIZE PUSH1 0x3 NOT ADD SLT PUSH2 0x38E JUMPI PUSH1 0x1 SLOAD PUSH1 0x40 MLOAD PUSH1 0x1 PUSH1 0x1 PUSH1 0xA0 SHL SUB SWAP1 SWAP2 AND DUP2 MSTORE PUSH1 0x20 SWAP1 RETURN JUMPDEST CALLVALUE PUSH2 0x38E JUMPI PUSH1 0x20 CALLDATASIZE PUSH1 0x3 NOT ADD SLT PUSH2 0x38E JUMPI PUSH2 0x210C PUSH2 0x373A JUMP JUMPDEST PUSH2 0x2114 PUSH2 0x442F JUMP JUMPDEST PUSH1 0x5 DUP1 SLOAD PUSH1 0x1 PUSH1 0x1 PUSH1 0xA0 SHL SUB NOT AND PUSH1 0x1 PUSH1 0x1 PUSH1 0xA0 SHL SUB SWAP3 SWAP1 SWAP3 AND SWAP2 SWAP1 SWAP2 OR SWAP1 SSTORE STOP JUMPDEST CALLVALUE PUSH2 0x38E JUMPI PUSH1 0x20 CALLDATASIZE PUSH1 0x3 NOT ADD SLT PUSH2 0x38E JUMPI PUSH2 0x214F PUSH2 0x373A JUMP JUMPDEST PUSH2 0x2157 PUSH2 0x442F JUMP JUMPDEST PUSH1 0x1 DUP1 SLOAD PUSH1 0x1 PUSH1 0x1 PUSH1 0xA0 SHL SUB NOT AND PUSH1 0x1 PUSH1 0x1 PUSH1 0xA0 SHL SUB SWAP3 SWAP1 SWAP3 AND SWAP2 SWAP1 SWAP2 OR SWAP1 SSTORE STOP JUMPDEST PUSH1 0x20 CALLDATASIZE PUSH1 0x3 NOT ADD SLT PUSH2 0x38E JUMPI PUSH2 0x218D PUSH2 0x373A JUMP JUMPDEST CALLVALUE ISZERO PUSH2 0x38E JUMPI PUSH1 0x1 PUSH1 0x1 PUSH1 0xA0 SHL SUB AND PUSH0 DUP2 DUP2 MSTORE PUSH1 0xF PUSH1 0x20 MSTORE PUSH1 0x40 SWAP1 KECCAK256 DUP1 SLOAD PUSH2 0x21B6 SWAP1 CALLVALUE SWAP1 PUSH2 0x38EA JUMP JUMPDEST SWAP1 SSTORE PUSH2 0x21C4 CALLVALUE PUSH1 0x11 SLOAD PUSH2 0x38EA JUMP JUMPDEST PUSH1 0x11 SSTORE PUSH0 DUP1 MLOAD PUSH1 0x20 PUSH2 0x49F8 DUP4 CODECOPY DUP2 MLOAD SWAP2 MSTORE PUSH1 0x20 PUSH1 0x40 MLOAD CALLVALUE DUP2 MSTORE LOG2 STOP JUMPDEST CALLVALUE PUSH2 0x38E JUMPI PUSH0 CALLDATASIZE PUSH1 0x3 NOT ADD SLT PUSH2 0x38E JUMPI PUSH1 0x14 SLOAD PUSH1 0x40 MLOAD PUSH1 0x1 PUSH1 0x1 PUSH1 0xA0 SHL SUB SWAP1 SWAP2 AND DUP2 MSTORE PUSH1 0x20 SWAP1 RETURN JUMPDEST CALLVALUE PUSH2 0x38E JUMPI PUSH0 CALLDATASIZE PUSH1 0x3 NOT ADD SLT PUSH2 0x38E JUMPI PUSH2 0x2220 PUSH2 0x442F JUMP JUMPDEST PUSH0 DUP1 SLOAD PUSH2 0x100 PUSH1 0x1 PUSH1 0xA8 SHL SUB NOT DUP2 AND DUP3 SSTORE PUSH1 0x8 SHR PUSH1 0x1 PUSH1 0x1 PUSH1 0xA0 SHL SUB AND PUSH0 DUP1 MLOAD PUSH1 0x20 PUSH2 0x4A78 DUP4 CODECOPY DUP2 MLOAD SWAP2 MSTORE DUP3 DUP1 LOG3 STOP JUMPDEST CALLVALUE PUSH2 0x38E JUMPI PUSH1 0x20 CALLDATASIZE PUSH1 0x3 NOT ADD SLT PUSH2 0x38E JUMPI PUSH1 0x20 PUSH2 0x948 PUSH2 0x226E PUSH2 0x373A JUMP JUMPDEST PUSH2 0x3D98 JUMP JUMPDEST CALLVALUE PUSH2 0x38E JUMPI PUSH1 0x20 CALLDATASIZE PUSH1 0x3 NOT ADD SLT PUSH2 0x38E JUMPI PUSH1 0x1 PUSH1 0x1 PUSH1 0xA0 SHL SUB PUSH2 0x2294 PUSH2 0x373A JUMP JUMPDEST AND PUSH0 MSTORE PUSH1 0xB PUSH1 0x20 MSTORE PUSH1 0x40 DUP1 PUSH0 KECCAK256 SLOAD PUSH1 0xC PUSH1 0x20 MSTORE DUP2 PUSH0 KECCAK256 SLOAD DUP3 MLOAD SWAP2 DUP3 MSTORE PUSH1 0x20 DUP3 ADD MSTORE RETURN JUMPDEST CALLVALUE PUSH2 0x38E JUMPI PUSH1 0x20 CALLDATASIZE PUSH1 0x3 NOT ADD SLT PUSH2 0x38E JUMPI PUSH2 0x22D0 PUSH2 0x373A JUMP JUMPDEST CALLER PUSH0 MSTORE PUSH1 0xA PUSH1 0x20 MSTORE PUSH1 0x40 PUSH0 KECCAK256 SWAP1 PUSH1 0x1 DUP1 PUSH1 0xA0 SHL SUB AND SWAP1 DUP2 PUSH0 MSTORE PUSH1 0x20 MSTORE PUSH1 0x7 PUSH1 0x40 PUSH0 KECCAK256 PUSH2 0x2305 PUSH1 0xFF PUSH1 0x4 DUP4 ADD SLOAD PUSH1 0x8 SHR AND PUSH2 0x3876 JUMP JUMPDEST PUSH0 PUSH1 0x5 DUP3 ADD SSTORE PUSH0 PUSH1 0x6 DUP3 ADD SSTORE ADD PUSH1 0xFF NOT DUP2 SLOAD AND SWAP1 SSTORE CALLER PUSH32 0xE9B7E1D3CB64115DA0BF49CBE4AF2B06C8D42E87B1E1C0FE240C32BE832F5809 PUSH0 DUP1 LOG3 STOP JUMPDEST CALLVALUE PUSH2 0x38E JUMPI PUSH1 0x40 CALLDATASIZE PUSH1 0x3 NOT ADD SLT PUSH2 0x38E JUMPI PUSH2 0x235A PUSH2 0x373A JUMP JUMPDEST PUSH1 0x3 SLOAD PUSH1 0x24 CALLDATALOAD SWAP2 PUSH1 0x1 PUSH1 0x1 PUSH1 0xA0 SHL SUB SWAP2 DUP3 AND CALLER EQ DUP1 ISZERO PUSH2 0x2480 JUMPI JUMPDEST DUP1 ISZERO PUSH2 0x2471 JUMPI JUMPDEST ISZERO PUSH2 0x243B JUMPI AND SWAP1 PUSH1 0x40 MLOAD PUSH4 0x23B872DD PUSH1 0xE0 SHL PUSH0 MSTORE CALLER PUSH1 0x4 MSTORE ADDRESS PUSH1 0x24 MSTORE DUP2 PUSH1 0x44 MSTORE PUSH1 0x20 PUSH0 PUSH1 0x64 DUP2 DUP1 DUP8 GAS CALL PUSH1 0x1 PUSH0 MLOAD EQ DUP2 AND ISZERO PUSH2 0x241C JUMPI JUMPDEST DUP2 PUSH1 0x40 MSTORE PUSH0 PUSH1 0x60 MSTORE ISZERO PUSH2 0x2406 JUMPI POP PUSH1 0x20 PUSH32 0xE3A6E26DCEFF30D982E183D0CE051FB5B791F2108785A9D440D417247CEF5B41 SWAP2 DUP4 PUSH0 MSTORE PUSH1 0x10 DUP3 MSTORE PUSH1 0x40 PUSH0 KECCAK256 PUSH2 0x23FB DUP3 DUP3 SLOAD PUSH2 0x38EA JUMP JUMPDEST SWAP1 SSTORE PUSH1 0x40 MLOAD SWAP1 DUP2 MSTORE LOG2 STOP JUMPDEST PUSH4 0x5274AFE7 PUSH1 0xE0 SHL DUP2 MSTORE PUSH1 0x4 DUP2 ADD DUP4 SWAP1 MSTORE PUSH1 0x24 SWAP1 REVERT JUMPDEST PUSH1 0x1 DUP2 ISZERO AND PUSH2 0x2432 JUMPI DUP4 EXTCODESIZE ISZERO ISZERO RETURNDATASIZE ISZERO AND AND PUSH2 0x23B3 JUMP JUMPDEST POP RETURNDATASIZE PUSH0 DUP3 RETURNDATACOPY RETURNDATASIZE SWAP1 REVERT JUMPDEST PUSH1 0x40 MLOAD PUSH3 0x461BCD PUSH1 0xE5 SHL DUP2 MSTORE PUSH1 0x20 PUSH1 0x4 DUP3 ADD MSTORE PUSH1 0xE PUSH1 0x24 DUP3 ADD MSTORE PUSH14 0x1B9BDD08185D5D1A1BDC9A5E9959 PUSH1 0x92 SHL PUSH1 0x44 DUP3 ADD MSTORE PUSH1 0x64 SWAP1 REVERT JUMPDEST POP DUP2 PUSH0 SLOAD PUSH1 0x8 SHR AND CALLER EQ PUSH2 0x237C JUMP JUMPDEST POP DUP2 PUSH1 0x4 SLOAD AND CALLER EQ PUSH2 0x2375 JUMP JUMPDEST CALLVALUE PUSH2 0x38E JUMPI PUSH0 CALLDATASIZE PUSH1 0x3 NOT ADD SLT PUSH2 0x38E JUMPI PUSH1 0x20 PUSH1 0x9 SLOAD PUSH1 0x40 MLOAD SWAP1 DUP2 MSTORE RETURN JUMPDEST CALLVALUE PUSH2 0x38E JUMPI PUSH1 0x20 CALLDATASIZE PUSH1 0x3 NOT ADD SLT PUSH2 0x38E JUMPI PUSH1 0x4 CALLDATALOAD PUSH2 0x24C6 PUSH2 0x442F JUMP JUMPDEST PUSH2 0x24D4 PUSH2 0x1F4 DUP3 GT ISZERO PUSH2 0x3ACE JUMP JUMPDEST PUSH1 0x9 SSTORE STOP JUMPDEST PUSH1 0xC0 CALLDATASIZE PUSH1 0x3 NOT ADD SLT PUSH2 0x38E JUMPI PUSH2 0x24ED PUSH2 0x373A JUMP JUMPDEST PUSH2 0x24F5 PUSH2 0x37A2 JUMP JUMPDEST PUSH1 0xA4 CALLDATALOAD SWAP2 DUP3 ISZERO ISZERO DUP4 SUB PUSH2 0x38E JUMPI PUSH2 0x250A PUSH2 0x43E3 JUMP JUMPDEST PUSH2 0x2512 PUSH2 0x4412 JUMP JUMPDEST PUSH8 0xDE0B6B3A7640000 PUSH1 0x64 CALLDATALOAD LT ISZERO DUP1 PUSH2 0x27A4 JUMPI JUMPDEST PUSH2 0x252F SWAP1 PUSH2 0x3C83 JUMP JUMPDEST PUSH2 0x253D PUSH1 0x44 CALLDATALOAD CALLVALUE LT ISZERO PUSH2 0x3CC2 JUMP JUMPDEST PUSH2 0x254A PUSH1 0x44 CALLDATALOAD ISZERO ISZERO PUSH2 0x38B0 JUMP JUMPDEST PUSH1 0x84 CALLDATALOAD ISZERO PUSH2 0x276A JUMPI PUSH1 0x1 DUP1 PUSH1 0xA0 SHL SUB AND SWAP2 DUP3 PUSH0 MSTORE PUSH1 0x13 PUSH1 0x20 MSTORE PUSH2 0x2573 PUSH1 0xFF PUSH1 0x40 PUSH0 KECCAK256 SLOAD AND PUSH2 0x3D04 JUMP JUMPDEST CALLER PUSH0 MSTORE PUSH1 0xA PUSH1 0x20 MSTORE PUSH1 0x40 PUSH0 KECCAK256 DUP4 PUSH0 MSTORE PUSH1 0x20 MSTORE PUSH2 0x259C PUSH1 0xFF PUSH1 0x4 PUSH1 0x40 PUSH0 KECCAK256 ADD SLOAD PUSH1 0x8 SHR AND ISZERO PUSH2 0x3D4C JUMP JUMPDEST PUSH1 0x15 SLOAD PUSH1 0x40 MLOAD SWAP1 SWAP2 SWAP1 PUSH2 0x100 DUP2 ADD PUSH1 0x1 PUSH1 0x1 PUSH1 0x40 SHL SUB DUP2 GT DUP3 DUP3 LT OR PUSH2 0x1A06 JUMPI PUSH1 0x40 MSTORE CALLER DUP2 MSTORE DUP5 PUSH1 0x20 DUP3 ADD MSTORE DUP4 ISZERO ISZERO PUSH1 0x40 DUP3 ADD MSTORE PUSH1 0x44 CALLDATALOAD PUSH1 0x60 DUP3 ADD MSTORE PUSH1 0x64 CALLDATALOAD PUSH1 0x80 DUP3 ADD MSTORE PUSH1 0x84 CALLDATALOAD PUSH1 0xA0 DUP3 ADD MSTORE DUP2 ISZERO ISZERO PUSH1 0xC0 DUP3 ADD MSTORE PUSH1 0x1 PUSH1 0xE0 DUP3 ADD MSTORE PUSH1 0x1 PUSH1 0x40 SHL DUP4 LT ISZERO PUSH2 0x1A06 JUMPI PUSH1 0x1 DUP4 ADD PUSH1 0x15 SSTORE PUSH2 0x2613 DUP4 PUSH2 0x37F2 JUMP JUMPDEST PUSH2 0x2757 JUMPI DUP2 MLOAD DUP2 SLOAD PUSH1 0x1 PUSH1 0x1 PUSH1 0xA0 SHL SUB NOT AND PUSH1 0x1 PUSH1 0x1 PUSH1 0xA0 SHL SUB SWAP2 DUP3 AND OR DUP3 SSTORE PUSH1 0x20 DUP4 ADD MLOAD PUSH1 0x1 DUP4 ADD DUP1 SLOAD PUSH1 0x40 DUP7 ADD MLOAD PUSH1 0x1 PUSH1 0x1 PUSH1 0xA8 SHL SUB NOT SWAP1 SWAP2 AND SWAP3 SWAP1 SWAP4 AND SWAP2 SWAP1 SWAP2 OR SWAP2 ISZERO ISZERO PUSH1 0xA0 SWAP1 DUP2 SHL PUSH1 0xFF PUSH1 0xA0 SHL AND SWAP3 SWAP1 SWAP3 OR SWAP1 SSTORE PUSH1 0x60 DUP4 ADD MLOAD PUSH1 0x2 DUP4 ADD SSTORE PUSH1 0x80 DUP4 ADD MLOAD PUSH1 0x3 DUP4 ADD SSTORE DUP3 ADD MLOAD PUSH1 0x4 DUP3 ADD SSTORE PUSH1 0xC0 DUP3 ADD MLOAD PUSH1 0x5 SWAP2 SWAP1 SWAP2 ADD SWAP2 PUSH1 0xE0 SWAP2 PUSH2 0x26A2 SWAP1 ISZERO ISZERO DUP5 PUSH2 0x3B3E JUMP JUMPDEST ADD MLOAD DUP2 SLOAD PUSH2 0xFF00 NOT AND SWAP1 ISZERO ISZERO PUSH1 0x8 SHL PUSH2 0xFF00 AND OR SWAP1 SSTORE CALLER PUSH0 SWAP1 DUP2 MSTORE PUSH1 0x16 PUSH1 0x20 MSTORE PUSH1 0x40 SWAP1 KECCAK256 DUP1 SLOAD PUSH1 0x1 PUSH1 0x40 SHL DUP2 LT ISZERO PUSH2 0x1A06 JUMPI PUSH2 0x26E3 SWAP2 PUSH1 0x1 DUP3 ADD DUP2 SSTORE PUSH2 0x37DD JUMP JUMPDEST DUP2 SLOAD SWAP1 PUSH1 0x3 SHL SWAP1 DUP5 DUP3 SHL SWAP2 PUSH0 NOT SWAP1 SHL NOT AND OR SWAP1 SSTORE PUSH1 0x40 MLOAD SWAP3 ISZERO ISZERO DUP4 MSTORE PUSH1 0x44 CALLDATALOAD PUSH1 0x20 DUP5 ADD MSTORE PUSH1 0x64 CALLDATALOAD PUSH1 0x40 DUP5 ADD MSTORE PUSH1 0x84 CALLDATALOAD PUSH1 0x60 DUP5 ADD MSTORE ISZERO ISZERO PUSH1 0x80 DUP4 ADD MSTORE PUSH32 0xD38CF2938CF143EC7305058C0EAC45E5532FCD567442EEF7F027E22D8B1CAED5 PUSH1 0xA0 CALLER SWAP4 LOG4 PUSH1 0x1 PUSH0 DUP1 MLOAD PUSH1 0x20 PUSH2 0x4A98 DUP4 CODECOPY DUP2 MLOAD SWAP2 MSTORE SSTORE STOP JUMPDEST PUSH4 0x4E487B71 PUSH1 0xE0 SHL PUSH0 MSTORE PUSH0 PUSH1 0x4 MSTORE PUSH1 0x24 PUSH0 REVERT JUMPDEST PUSH1 0x40 MLOAD PUSH3 0x461BCD PUSH1 0xE5 SHL DUP2 MSTORE PUSH1 0x20 PUSH1 0x4 DUP3 ADD MSTORE PUSH1 0x12 PUSH1 0x24 DUP3 ADD MSTORE PUSH18 0x7A65726F2074726967676572207072696365 PUSH1 0x70 SHL PUSH1 0x44 DUP3 ADD MSTORE PUSH1 0x64 SWAP1 REVERT JUMPDEST POP PUSH8 0x8AC7230489E80000 PUSH1 0x64 CALLDATALOAD GT ISZERO PUSH2 0x2526 JUMP JUMPDEST CALLVALUE PUSH2 0x38E JUMPI PUSH0 CALLDATASIZE PUSH1 0x3 NOT ADD SLT PUSH2 0x38E JUMPI PUSH1 0x20 PUSH1 0x40 MLOAD PUSH2 0xBB8 DUP2 MSTORE RETURN JUMPDEST CALLVALUE PUSH2 0x38E JUMPI PUSH1 0x20 DUP1 PUSH1 0x3 NOT CALLDATASIZE ADD SLT PUSH2 0x38E JUMPI PUSH2 0x27EE PUSH2 0x373A JUMP JUMPDEST PUSH1 0x1 SLOAD PUSH1 0x40 MLOAD PUSH4 0x41976E09 PUSH1 0xE0 SHL DUP2 MSTORE PUSH1 0x1 PUSH1 0x1 PUSH1 0xA0 SHL SUB SWAP3 DUP4 AND PUSH1 0x4 DUP3 ADD MSTORE SWAP2 DUP4 SWAP2 DUP4 SWAP2 PUSH1 0x24 SWAP2 DUP4 SWAP2 AND GAS STATICCALL SWAP1 DUP2 ISZERO PUSH2 0x8C8 JUMPI PUSH0 SWAP2 PUSH2 0x2832 JUMPI JUMPDEST POP PUSH1 0x40 MLOAD SWAP1 DUP2 MSTORE RETURN JUMPDEST SWAP1 POP DUP2 DUP2 DUP2 RETURNDATASIZE DUP4 GT PUSH2 0x2858 JUMPI JUMPDEST PUSH2 0x2849 DUP2 DUP4 PUSH2 0x38F7 JUMP JUMPDEST DUP2 ADD SUB SLT PUSH2 0x38E JUMPI MLOAD DUP3 PUSH2 0x2829 JUMP JUMPDEST POP RETURNDATASIZE PUSH2 0x283F JUMP JUMPDEST CALLVALUE PUSH2 0x38E JUMPI PUSH0 CALLDATASIZE PUSH1 0x3 NOT ADD SLT PUSH2 0x38E JUMPI PUSH1 0x20 PUSH1 0xFF PUSH0 SLOAD AND PUSH1 0x40 MLOAD SWAP1 ISZERO ISZERO DUP2 MSTORE RETURN JUMPDEST CALLVALUE PUSH2 0x38E JUMPI PUSH1 0x20 CALLDATASIZE PUSH1 0x3 NOT ADD SLT PUSH2 0x38E JUMPI PUSH1 0x4 CALLDATALOAD PUSH1 0x12 SLOAD DUP2 LT ISZERO PUSH2 0x38E JUMPI PUSH2 0x28A9 PUSH1 0x20 SWAP2 PUSH2 0x37B1 JUMP JUMPDEST SWAP1 SLOAD PUSH1 0x40 MLOAD PUSH1 0x3 SWAP3 SWAP1 SWAP3 SHL SHR PUSH1 0x1 PUSH1 0x1 PUSH1 0xA0 SHL SUB AND DUP2 MSTORE RETURN JUMPDEST CALLVALUE PUSH2 0x38E JUMPI PUSH0 CALLDATASIZE PUSH1 0x3 NOT ADD SLT PUSH2 0x38E JUMPI PUSH1 0x2 SLOAD PUSH1 0x40 MLOAD PUSH1 0x1 PUSH1 0x1 PUSH1 0xA0 SHL SUB SWAP1 SWAP2 AND DUP2 MSTORE PUSH1 0x20 SWAP1 RETURN JUMPDEST CALLVALUE PUSH2 0x38E JUMPI PUSH0 CALLDATASIZE PUSH1 0x3 NOT ADD SLT PUSH2 0x38E JUMPI PUSH1 0x20 PUSH1 0x40 MLOAD PUSH2 0x7080 DUP2 MSTORE RETURN JUMPDEST CALLVALUE PUSH2 0x38E JUMPI PUSH0 CALLDATASIZE PUSH1 0x3 NOT ADD SLT PUSH2 0x38E JUMPI PUSH1 0x20 PUSH1 0x8 SLOAD PUSH1 0x40 MLOAD SWAP1 DUP2 MSTORE RETURN JUMPDEST CALLVALUE PUSH2 0x38E JUMPI PUSH0 CALLDATASIZE PUSH1 0x3 NOT ADD SLT PUSH2 0x38E JUMPI PUSH1 0x20 PUSH1 0x12 SLOAD PUSH1 0x40 MLOAD SWAP1 DUP2 MSTORE RETURN JUMPDEST CALLVALUE PUSH2 0x38E JUMPI PUSH1 0x40 CALLDATASIZE PUSH1 0x3 NOT ADD SLT PUSH2 0x38E JUMPI PUSH2 0x2959 PUSH2 0x373A JUMP JUMPDEST PUSH2 0x2961 PUSH2 0x3750 JUMP JUMPDEST SWAP1 PUSH1 0x1 DUP1 PUSH1 0xA0 SHL SUB DUP1 SWAP2 AND PUSH0 MSTORE PUSH1 0xA PUSH1 0x20 MSTORE PUSH1 0x40 PUSH0 KECCAK256 SWAP2 AND PUSH0 MSTORE PUSH1 0x20 MSTORE PUSH2 0x140 PUSH1 0x40 PUSH0 KECCAK256 DUP1 SLOAD SWAP1 PUSH1 0x1 DUP2 ADD SLOAD SWAP1 PUSH1 0x2 DUP2 ADD SLOAD PUSH1 0x3 DUP3 ADD SLOAD PUSH1 0xFF PUSH1 0x4 DUP5 ADD SLOAD PUSH1 0x5 DUP6 ADD SLOAD SWAP3 PUSH1 0x6 DUP7 ADD SLOAD SWAP5 PUSH1 0x8 DUP5 PUSH1 0x7 DUP10 ADD SLOAD AND SWAP8 ADD SLOAD SWAP8 PUSH1 0x40 MLOAD SWAP10 DUP11 MSTORE PUSH1 0x20 DUP11 ADD MSTORE PUSH1 0x40 DUP10 ADD MSTORE PUSH1 0x60 DUP9 ADD MSTORE DUP2 DUP2 AND ISZERO ISZERO PUSH1 0x80 DUP9 ADD MSTORE PUSH1 0x8 SHR AND ISZERO ISZERO PUSH1 0xA0 DUP7 ADD MSTORE PUSH1 0xC0 DUP6 ADD MSTORE PUSH1 0xE0 DUP5 ADD MSTORE ISZERO ISZERO PUSH2 0x100 DUP4 ADD MSTORE PUSH2 0x120 DUP3 ADD MSTORE RETURN JUMPDEST CALLVALUE PUSH2 0x38E JUMPI PUSH1 0x20 CALLDATASIZE PUSH1 0x3 NOT ADD SLT PUSH2 0x38E JUMPI PUSH2 0x2A15 PUSH2 0x373A JUMP JUMPDEST PUSH2 0x2A1D PUSH2 0x442F JUMP JUMPDEST PUSH1 0x3 DUP1 SLOAD PUSH1 0x1 PUSH1 0x1 PUSH1 0xA0 SHL SUB NOT AND PUSH1 0x1 PUSH1 0x1 PUSH1 0xA0 SHL SUB SWAP3 SWAP1 SWAP3 AND SWAP2 SWAP1 SWAP2 OR SWAP1 SSTORE STOP JUMPDEST CALLVALUE PUSH2 0x38E JUMPI PUSH1 0x60 CALLDATASIZE PUSH1 0x3 NOT ADD SLT PUSH2 0x38E JUMPI PUSH2 0x2A58 PUSH2 0x373A JUMP JUMPDEST PUSH2 0x2A60 PUSH2 0x3750 JUMP JUMPDEST PUSH1 0x44 CALLDATALOAD SWAP1 DUP2 ISZERO ISZERO DUP3 SUB PUSH2 0x38E JUMPI PUSH2 0x2A75 PUSH2 0x43E3 JUMP JUMPDEST PUSH2 0x2A7D PUSH2 0x4412 JUMP JUMPDEST PUSH1 0x1 DUP1 PUSH1 0xA0 SHL SUB DUP1 DUP5 AND PUSH0 MSTORE PUSH1 0xA PUSH1 0x20 MSTORE PUSH1 0x40 PUSH0 KECCAK256 DUP2 DUP4 AND PUSH0 MSTORE PUSH1 0x20 MSTORE PUSH1 0x40 PUSH0 KECCAK256 SWAP1 PUSH1 0x4 DUP3 ADD SLOAD SWAP2 PUSH1 0xFF DUP4 PUSH1 0x8 SHR AND DUP1 PUSH2 0x302F JUMPI JUMPDEST ISZERO PUSH2 0x3000 JUMPI DUP2 PUSH1 0x1 SLOAD AND SWAP4 PUSH1 0x40 MLOAD SWAP2 PUSH1 0x20 DUP4 PUSH1 0x24 DUP2 PUSH4 0x41976E09 PUSH1 0xE0 SHL SWAP10 DUP11 DUP3 MSTORE DUP9 DUP8 AND PUSH1 0x4 DUP4 ADD MSTORE GAS STATICCALL SWAP3 DUP4 ISZERO PUSH2 0x8C8 JUMPI PUSH0 SWAP4 PUSH2 0x2FCC JUMPI JUMPDEST POP PUSH2 0x2AF7 DUP4 ISZERO ISZERO PUSH2 0x3B4F JUMP JUMPDEST PUSH2 0x2B00 DUP3 PUSH2 0x44A9 JUMP JUMPDEST DUP7 ISZERO PUSH2 0x2FC1 JUMPI PUSH1 0x5 DUP2 ADD SLOAD SWAP5 JUMPDEST DUP6 ISZERO PUSH2 0x2F92 JUMPI PUSH1 0xFF AND ISZERO PUSH2 0x2F74 JUMPI DUP7 ISZERO PUSH2 0x2F63 JUMPI PUSH2 0x2B2D DUP6 DUP5 LT ISZERO PUSH2 0x3BC3 JUMP JUMPDEST PUSH1 0x1 PUSH2 0x2710 PUSH2 0x2B40 DUP4 SLOAD PUSH1 0x9 SLOAD SWAP1 PUSH2 0x39A9 JUMP JUMPDEST DIV SWAP2 DUP3 ISZERO ISZERO DUP1 PUSH2 0x2F59 JUMPI JUMPDEST PUSH2 0x2F41 JUMPI JUMPDEST ADD SLOAD SWAP3 DUP5 DUP10 AND PUSH0 MSTORE PUSH1 0xA PUSH1 0x20 MSTORE PUSH1 0x40 PUSH0 KECCAK256 DUP6 DUP5 AND PUSH0 MSTORE PUSH1 0x20 MSTORE PUSH1 0x40 PUSH0 KECCAK256 SWAP6 PUSH2 0x2B81 PUSH1 0xFF PUSH1 0x4 DUP10 ADD SLOAD PUSH1 0x8 SHR AND PUSH2 0x3876 JUMP JUMPDEST PUSH2 0x2B8A DUP5 PUSH2 0x465C JUMP JUMPDEST PUSH1 0x20 DUP7 PUSH1 0x1 SLOAD AND SWAP9 PUSH1 0x24 PUSH1 0x40 MLOAD DUP1 SWAP12 DUP2 SWAP4 DUP3 MSTORE DUP11 DUP10 AND PUSH1 0x4 DUP4 ADD MSTORE GAS STATICCALL SWAP8 DUP9 ISZERO PUSH2 0x8C8 JUMPI PUSH0 SWAP9 PUSH2 0x2F0D JUMPI JUMPDEST POP PUSH2 0x2BC1 DUP9 ISZERO ISZERO PUSH2 0x3B4F JUMP JUMPDEST PUSH2 0x2BCA DUP5 PUSH2 0x44A9 JUMP JUMPDEST PUSH8 0xDE0B6B3A7640000 DUP6 MUL DUP6 DUP2 DIV PUSH8 0xDE0B6B3A7640000 EQ DUP7 ISZERO OR ISZERO PUSH2 0x885 JUMPI PUSH32 0x399E51B755363F9E7C0719A2AC0289D77F512608B9D120AE8AF7CA01E0FF3E1E SWAP9 DUP9 DUP9 DUP14 DUP2 SWAP10 PUSH2 0x2C23 DUP11 SWAP7 PUSH1 0x1 PUSH1 0x80 SWAP16 ADD SLOAD SWAP1 PUSH2 0x39C9 JUMP JUMPDEST PUSH8 0xDE0B6B3A7640000 PUSH2 0x2C3D DUP3 PUSH2 0x5E9 DUP10 PUSH2 0x5E4 DUP11 PUSH2 0x391A JUMP JUMPDEST SDIV SWAP2 PUSH2 0x2C50 DUP3 PUSH2 0x5E9 DUP11 PUSH2 0x601 DUP11 PUSH2 0x391A JUMP JUMPDEST POP PUSH2 0x2C5E DUP9 PUSH2 0x601 DUP9 PUSH2 0x391A JUMP JUMPDEST PUSH0 DUP2 SGT ISZERO PUSH2 0x2EAF JUMPI DUP7 SLOAD PUSH2 0x2C9A SWAP2 SWAP1 DUP1 DUP3 GT PUSH2 0x2EA7 JUMPI JUMPDEST DUP2 PUSH2 0x2C7F SWAP2 PUSH2 0x39BC JUMP JUMPDEST DUP9 SSTORE DUP7 DUP11 AND PUSH0 MSTORE PUSH1 0xF PUSH1 0x20 MSTORE PUSH1 0x40 PUSH0 KECCAK256 PUSH2 0x649 DUP3 DUP3 SLOAD PUSH2 0x38EA JUMP JUMPDEST PUSH1 0x11 SSTORE JUMPDEST PUSH8 0xDE0B6B3A7640000 PUSH2 0x2CB9 PUSH1 0x3 DUP9 ADD SWAP4 TIMESTAMP DUP6 SSTORE DUP9 SLOAD PUSH2 0x39A9 JUMP JUMPDEST DIV SWAP2 PUSH0 DUP5 SLT PUSH2 0x2E7F JUMPI PUSH2 0x2CCC DUP5 DUP5 PUSH2 0x38EA JUMP JUMPDEST SWAP3 JUMPDEST PUSH1 0x4 DUP9 ADD SLOAD PUSH1 0xFF AND ISZERO PUSH2 0x2E5F JUMPI DUP7 DUP11 AND PUSH0 MSTORE PUSH1 0xB PUSH1 0x20 MSTORE PUSH1 0x40 PUSH0 KECCAK256 PUSH2 0x2CF4 DUP5 DUP3 SLOAD PUSH2 0x39BC JUMP JUMPDEST SWAP1 SSTORE JUMPDEST PUSH1 0x1 DUP9 ADD SLOAD DUP4 DUP2 SUB PUSH2 0x2DC7 JUMPI POP POP POP POP SWAP5 PUSH2 0x2D4E SWAP2 DUP7 PUSH0 DUP1 MLOAD PUSH1 0x20 PUSH2 0x4AB8 DUP4 CODECOPY DUP2 MLOAD SWAP2 MSTORE SWAP7 SWAP8 ISZERO ISZERO DUP1 PUSH2 0x2DBD JUMPI JUMPDEST PUSH2 0x2DA2 JUMPI JUMPDEST POP PUSH1 0xFF PUSH1 0x4 DUP9 ADD SLOAD AND SWAP2 PUSH1 0x1 DUP9 SLOAD SWAP9 ADD SLOAD DUP7 PUSH1 0x40 MLOAD SWAP8 DUP9 SWAP8 AND SWAP11 AND SWAP9 TIMESTAMP SWAP5 DUP8 PUSH2 0x447F JUMP JUMPDEST SUB SWAP1 LOG3 DUP5 DUP11 AND PUSH0 MSTORE PUSH1 0xA PUSH1 0x20 MSTORE PUSH1 0x40 PUSH0 KECCAK256 DUP6 DUP6 AND PUSH0 MSTORE PUSH1 0x20 MSTORE PUSH2 0x2D73 PUSH1 0x40 PUSH0 KECCAK256 PUSH2 0x3DEF JUMP JUMPDEST PUSH1 0x40 MLOAD SWAP9 ISZERO ISZERO DUP10 MSTORE PUSH1 0x20 DUP10 ADD MSTORE PUSH1 0x40 DUP9 ADD MSTORE PUSH1 0x60 DUP8 ADD MSTORE AND SWAP5 AND SWAP3 LOG3 PUSH1 0x1 PUSH0 DUP1 MLOAD PUSH1 0x20 PUSH2 0x4A98 DUP4 CODECOPY DUP2 MLOAD SWAP2 MSTORE SSTORE STOP JUMPDEST PUSH0 DUP1 DUP1 DUP1 PUSH2 0x2DB7 SWAP5 DUP11 DUP11 AND GAS CALL PUSH2 0x731 PUSH2 0x3C00 JUMP JUMPDEST PUSH0 PUSH2 0x2D2A JUMP JUMPDEST POP SELFBALANCE DUP2 GT ISZERO PUSH2 0x2D25 JUMP JUMPDEST SWAP2 PUSH2 0x2DF8 PUSH0 DUP1 MLOAD PUSH1 0x20 PUSH2 0x4A58 DUP4 CODECOPY DUP2 MLOAD SWAP2 MSTORE SWAP10 SWAP6 SWAP3 PUSH2 0x2DEC DUP7 PUSH2 0x2E32 SWAP10 SWAP8 SWAP14 SWAP7 PUSH2 0x39BC JUMP JUMPDEST PUSH1 0x1 DUP9 ADD SSTORE DUP7 SLOAD PUSH2 0x39BC JUMP JUMPDEST DUP6 SSTORE TIMESTAMP SWAP1 SSTORE PUSH0 PUSH1 0x8 DUP6 ADD SSTORE DUP1 ISZERO ISZERO DUP1 PUSH2 0x2E55 JUMPI JUMPDEST PUSH2 0x2E3A JUMPI JUMPDEST POP PUSH1 0x1 PUSH1 0xFF PUSH1 0x4 DUP6 ADD SLOAD AND SWAP4 ADD SLOAD DUP7 PUSH1 0x40 MLOAD SWAP8 DUP9 SWAP8 AND SWAP11 AND SWAP9 TIMESTAMP SWAP5 DUP8 PUSH2 0x447F JUMP JUMPDEST SUB SWAP1 LOG3 PUSH2 0x2D73 JUMP JUMPDEST PUSH0 DUP1 DUP1 DUP1 PUSH2 0x2E4F SWAP5 DUP12 DUP12 AND GAS CALL PUSH2 0x731 PUSH2 0x3C00 JUMP JUMPDEST PUSH0 PUSH2 0x2E11 JUMP JUMPDEST POP SELFBALANCE DUP2 GT ISZERO PUSH2 0x2E0C JUMP JUMPDEST DUP7 DUP11 AND PUSH0 MSTORE PUSH1 0xC PUSH1 0x20 MSTORE PUSH1 0x40 PUSH0 KECCAK256 PUSH2 0x2E78 DUP5 DUP3 SLOAD PUSH2 0x39BC JUMP JUMPDEST SWAP1 SSTORE PUSH2 0x2CF7 JUMP JUMPDEST PUSH2 0x2E88 DUP5 PUSH2 0x3DDF JUMP JUMPDEST DUP4 DUP2 LT PUSH2 0x2E98 JUMPI POP PUSH0 JUMPDEST SWAP3 PUSH2 0x2CCE JUMP JUMPDEST PUSH2 0x2EA2 SWAP1 DUP5 PUSH2 0x39BC JUMP JUMPDEST PUSH2 0x2E92 JUMP JUMPDEST SWAP1 POP DUP1 PUSH2 0x2C75 JUMP JUMPDEST PUSH0 DUP2 SLT PUSH2 0x2EBD JUMPI JUMPDEST POP PUSH2 0x2C9E JUMP JUMPDEST PUSH2 0x2EC6 SWAP1 PUSH2 0x3DDF JUMP JUMPDEST PUSH2 0x2ED1 DUP2 DUP9 SLOAD PUSH2 0x38EA JUMP JUMPDEST DUP8 SSTORE DUP6 DUP10 AND PUSH0 MSTORE PUSH1 0xF PUSH1 0x20 MSTORE PUSH1 0x40 PUSH0 KECCAK256 SWAP1 DUP2 SLOAD SWAP2 DUP2 DUP4 LT ISZERO PUSH2 0x2EF5 JUMPI JUMPDEST POP POP PUSH2 0x2EB7 JUMP JUMPDEST PUSH2 0x870 DUP3 PUSH2 0x2F02 SWAP5 PUSH2 0x39BC JUMP JUMPDEST PUSH1 0x11 SSTORE PUSH0 DUP1 DUP1 PUSH2 0x2EEE JUMP JUMPDEST SWAP1 SWAP8 POP PUSH1 0x20 DUP2 RETURNDATASIZE PUSH1 0x20 GT PUSH2 0x2F39 JUMPI JUMPDEST DUP2 PUSH2 0x2F29 PUSH1 0x20 SWAP4 DUP4 PUSH2 0x38F7 JUMP JUMPDEST DUP2 ADD SUB SLT PUSH2 0x38E JUMPI MLOAD SWAP7 DUP11 PUSH2 0x2BB5 JUMP JUMPDEST RETURNDATASIZE SWAP2 POP PUSH2 0x2F1C JUMP JUMPDEST PUSH2 0x2F54 PUSH0 DUP1 DUP1 DUP1 DUP8 CALLER GAS CALL PUSH2 0x1199 PUSH2 0x3C00 JUMP JUMPDEST PUSH2 0x2B50 JUMP JUMPDEST POP SELFBALANCE DUP4 GT ISZERO PUSH2 0x2B4B JUMP JUMPDEST PUSH2 0x2F6F DUP6 DUP5 GT ISZERO PUSH2 0x3B86 JUMP JUMPDEST PUSH2 0x2B2D JUMP JUMPDEST DUP7 ISZERO PUSH2 0x2F86 JUMPI PUSH2 0x2F6F DUP6 DUP5 GT ISZERO PUSH2 0x3BC3 JUMP JUMPDEST PUSH2 0x2F6F DUP6 DUP5 LT ISZERO PUSH2 0x3B86 JUMP JUMPDEST PUSH1 0x40 MLOAD PUSH3 0x461BCD PUSH1 0xE5 SHL DUP2 MSTORE PUSH1 0x20 PUSH1 0x4 DUP3 ADD MSTORE PUSH1 0x7 PUSH1 0x24 DUP3 ADD MSTORE PUSH7 0x1B9BDD081CD95D PUSH1 0xCA SHL PUSH1 0x44 DUP3 ADD MSTORE PUSH1 0x64 SWAP1 REVERT JUMPDEST PUSH1 0x6 DUP2 ADD SLOAD SWAP5 PUSH2 0x2B0D JUMP JUMPDEST SWAP1 SWAP3 POP PUSH1 0x20 DUP2 RETURNDATASIZE PUSH1 0x20 GT PUSH2 0x2FF8 JUMPI JUMPDEST DUP2 PUSH2 0x2FE8 PUSH1 0x20 SWAP4 DUP4 PUSH2 0x38F7 JUMP JUMPDEST DUP2 ADD SUB SLT PUSH2 0x38E JUMPI MLOAD SWAP2 DUP9 PUSH2 0x2AEB JUMP JUMPDEST RETURNDATASIZE SWAP2 POP PUSH2 0x2FDB JUMP JUMPDEST PUSH1 0x40 MLOAD PUSH3 0x461BCD PUSH1 0xE5 SHL DUP2 MSTORE PUSH1 0x20 PUSH1 0x4 DUP3 ADD MSTORE PUSH1 0x7 PUSH1 0x24 DUP3 ADD MSTORE PUSH7 0x1B9BC81D1C1CDB PUSH1 0xCA SHL PUSH1 0x44 DUP3 ADD MSTORE PUSH1 0x64 SWAP1 REVERT JUMPDEST POP PUSH1 0xFF PUSH1 0x7 DUP3 ADD SLOAD AND PUSH2 0x2AB2 JUMP JUMPDEST CALLVALUE PUSH2 0x38E JUMPI PUSH1 0x60 CALLDATASIZE PUSH1 0x3 NOT ADD SLT PUSH2 0x38E JUMPI PUSH2 0x3056 PUSH2 0x373A JUMP JUMPDEST PUSH1 0x24 CALLDATALOAD PUSH1 0x44 CALLDATALOAD CALLER PUSH0 MSTORE PUSH1 0x20 PUSH1 0xA DUP2 MSTORE PUSH1 0x40 PUSH0 KECCAK256 SWAP4 PUSH1 0x1 DUP1 PUSH1 0xA0 SHL SUB AND SWAP4 DUP5 PUSH0 MSTORE DUP2 MSTORE PUSH1 0x40 PUSH0 KECCAK256 PUSH1 0xFF PUSH1 0x4 DUP3 ADD SLOAD PUSH2 0x3091 DUP3 DUP3 PUSH1 0x8 SHR AND PUSH2 0x3876 JUMP JUMPDEST AND ISZERO PUSH2 0x319A JUMPI DUP4 ISZERO DUP1 ISZERO PUSH2 0x318D JUMPI JUMPDEST ISZERO PUSH2 0x3156 JUMPI DUP3 ISZERO DUP1 ISZERO PUSH2 0x3149 JUMPI JUMPDEST ISZERO PUSH2 0x3112 JUMPI PUSH2 0x30D7 SWAP1 JUMPDEST DUP5 PUSH1 0x5 DUP3 ADD SSTORE DUP4 PUSH1 0x6 DUP3 ADD SSTORE DUP5 ISZERO SWAP1 DUP2 ISZERO SWAP2 PUSH2 0x3108 JUMPI JUMPDEST PUSH1 0x7 ADD PUSH2 0x3B3E JUMP JUMPDEST PUSH1 0x40 MLOAD SWAP3 DUP4 MSTORE DUP3 ADD MSTORE PUSH32 0x6C6D28F5D331E789A81E2A85CA3C76CD34F609C9BC9D9CAA6CD309C7DD015FB4 PUSH1 0x40 CALLER SWAP3 LOG3 STOP JUMPDEST DUP5 ISZERO ISZERO SWAP2 POP PUSH2 0x30CF JUMP JUMPDEST PUSH1 0x40 MLOAD PUSH3 0x461BCD PUSH1 0xE5 SHL DUP2 MSTORE PUSH1 0x4 DUP2 ADD DUP4 SWAP1 MSTORE PUSH1 0xF PUSH1 0x24 DUP3 ADD MSTORE PUSH15 0x534C206D757374203C20656E747279 PUSH1 0x88 SHL PUSH1 0x44 DUP3 ADD MSTORE PUSH1 0x64 SWAP1 REVERT JUMPDEST POP PUSH1 0x2 DUP2 ADD SLOAD DUP4 LT PUSH2 0x30AE JUMP JUMPDEST PUSH1 0x40 MLOAD PUSH3 0x461BCD PUSH1 0xE5 SHL DUP2 MSTORE PUSH1 0x4 DUP2 ADD DUP4 SWAP1 MSTORE PUSH1 0xF PUSH1 0x24 DUP3 ADD MSTORE PUSH15 0x5450206D757374203E20656E747279 PUSH1 0x88 SHL PUSH1 0x44 DUP3 ADD MSTORE PUSH1 0x64 SWAP1 REVERT JUMPDEST POP PUSH1 0x2 DUP2 ADD SLOAD DUP5 GT PUSH2 0x30A0 JUMP JUMPDEST DUP4 ISZERO DUP1 ISZERO PUSH2 0x323A JUMPI JUMPDEST ISZERO PUSH2 0x3203 JUMPI DUP3 ISZERO DUP1 ISZERO PUSH2 0x31F6 JUMPI JUMPDEST ISZERO PUSH2 0x31BF JUMPI PUSH2 0x30D7 SWAP1 PUSH2 0x30B8 JUMP JUMPDEST PUSH1 0x40 MLOAD PUSH3 0x461BCD PUSH1 0xE5 SHL DUP2 MSTORE PUSH1 0x4 DUP2 ADD DUP4 SWAP1 MSTORE PUSH1 0xF PUSH1 0x24 DUP3 ADD MSTORE PUSH15 0x534C206D757374203E20656E747279 PUSH1 0x88 SHL PUSH1 0x44 DUP3 ADD MSTORE PUSH1 0x64 SWAP1 REVERT JUMPDEST POP PUSH1 0x2 DUP2 ADD SLOAD DUP4 GT PUSH2 0x31B1 JUMP JUMPDEST PUSH1 0x40 MLOAD PUSH3 0x461BCD PUSH1 0xE5 SHL DUP2 MSTORE PUSH1 0x4 DUP2 ADD DUP4 SWAP1 MSTORE PUSH1 0xF PUSH1 0x24 DUP3 ADD MSTORE PUSH15 0x5450206D757374203C20656E747279 PUSH1 0x88 SHL PUSH1 0x44 DUP3 ADD MSTORE PUSH1 0x64 SWAP1 REVERT JUMPDEST POP PUSH1 0x2 DUP2 ADD SLOAD DUP5 LT PUSH2 0x31A3 JUMP JUMPDEST CALLVALUE PUSH2 0x38E JUMPI PUSH1 0x20 CALLDATASIZE PUSH1 0x3 NOT ADD SLT PUSH2 0x38E JUMPI PUSH2 0x3260 PUSH2 0x373A JUMP JUMPDEST PUSH2 0x3268 PUSH2 0x442F JUMP JUMPDEST PUSH1 0x1 DUP1 PUSH1 0xA0 SHL SUB DUP1 SWAP2 AND SWAP1 DUP2 PUSH0 MSTORE PUSH1 0x13 PUSH1 0x20 MSTORE PUSH2 0x328B PUSH1 0xFF PUSH1 0x40 PUSH0 KECCAK256 SLOAD AND PUSH2 0x3B05 JUMP JUMPDEST DUP1 PUSH1 0x14 SLOAD AND DUP3 EQ PUSH2 0x3373 JUMPI PUSH0 DUP3 DUP2 MSTORE PUSH1 0x13 PUSH1 0x20 MSTORE PUSH1 0x40 DUP2 KECCAK256 DUP1 SLOAD PUSH1 0xFF NOT AND SWAP1 SSTORE JUMPDEST PUSH1 0x12 SWAP1 DUP2 SLOAD SWAP2 DUP3 DUP3 LT ISZERO PUSH2 0x336A JUMPI DUP4 SWAP3 DUP6 PUSH2 0x32C6 DUP5 PUSH2 0x37B1 JUMP JUMPDEST SWAP7 SWAP1 SLOAD PUSH1 0x3 SWAP8 DUP9 SHL SHR AND EQ PUSH2 0x32E2 JUMPI POP POP PUSH1 0x1 SWAP2 SWAP3 POP ADD PUSH2 0x32AC JUMP JUMPDEST SWAP1 SWAP3 SWAP2 PUSH0 NOT SWAP2 DUP1 DUP4 ADD SWAP2 SWAP1 DUP3 GT PUSH2 0x885 JUMPI PUSH2 0x19A0 DUP5 PUSH2 0x3303 PUSH2 0x3310 SWAP5 PUSH2 0x37B1 JUMP JUMPDEST SWAP1 SLOAD SWAP1 DUP10 SHL SHR AND SWAP2 PUSH2 0x37B1 JUMP JUMPDEST DUP3 SLOAD DUP1 ISZERO PUSH2 0x3356 JUMPI ADD SWAP3 PUSH2 0x3323 DUP5 PUSH2 0x37B1 JUMP JUMPDEST DUP2 SWAP4 SWAP2 SLOAD SWAP3 SHL SHL NOT AND SWAP1 SSTORE SSTORE JUMPDEST PUSH32 0x53F882E7AE7F246C0C12E357352713C90DA73CFBAA37ABCDC49697B332EFC927 PUSH0 DUP1 LOG2 STOP JUMPDEST PUSH4 0x4E487B71 PUSH1 0xE0 SHL PUSH0 MSTORE PUSH1 0x31 PUSH1 0x4 MSTORE PUSH1 0x24 PUSH0 REVERT JUMPDEST POP POP POP POP PUSH2 0x3330 JUMP JUMPDEST PUSH1 0x40 MLOAD PUSH3 0x461BCD PUSH1 0xE5 SHL DUP2 MSTORE PUSH1 0x20 PUSH1 0x4 DUP3 ADD MSTORE PUSH1 0x15 PUSH1 0x24 DUP3 ADD MSTORE PUSH21 0x18D85B9B9BDD0819195B1A5CDD08191959985D5B1D PUSH1 0x5A SHL PUSH1 0x44 DUP3 ADD MSTORE PUSH1 0x64 SWAP1 REVERT JUMPDEST CALLVALUE PUSH2 0x38E JUMPI PUSH0 CALLDATASIZE PUSH1 0x3 NOT ADD SLT PUSH2 0x38E JUMPI PUSH1 0x20 PUSH1 0x7 SLOAD PUSH1 0x40 MLOAD SWAP1 DUP2 MSTORE RETURN JUMPDEST CALLVALUE PUSH2 0x38E JUMPI PUSH1 0x20 CALLDATASIZE PUSH1 0x3 NOT ADD SLT PUSH2 0x38E JUMPI PUSH1 0x1 PUSH1 0x1 PUSH1 0xA0 SHL SUB PUSH2 0x33EE PUSH2 0x373A JUMP JUMPDEST AND PUSH0 MSTORE PUSH1 0xC PUSH1 0x20 MSTORE PUSH1 0x20 PUSH1 0x40 PUSH0 KECCAK256 SLOAD PUSH1 0x40 MLOAD SWAP1 DUP2 MSTORE RETURN JUMPDEST CALLVALUE PUSH2 0x38E JUMPI PUSH1 0x20 DUP1 PUSH1 0x3 NOT CALLDATASIZE ADD SLT PUSH2 0x38E JUMPI PUSH2 0x341F PUSH2 0x373A JUMP JUMPDEST SWAP1 PUSH2 0x3428 PUSH2 0x43E3 JUMP JUMPDEST PUSH2 0x3430 PUSH2 0x4412 JUMP JUMPDEST CALLER PUSH0 MSTORE PUSH1 0xA DUP2 MSTORE PUSH1 0x40 PUSH0 KECCAK256 SWAP2 PUSH1 0x24 PUSH1 0x1 DUP1 PUSH1 0xA0 SHL SUB SWAP2 DUP3 DUP2 AND SWAP5 DUP6 PUSH0 MSTORE DUP5 MSTORE PUSH1 0x1 PUSH1 0x40 PUSH0 KECCAK256 PUSH2 0x3468 PUSH1 0xFF PUSH1 0x4 DUP4 ADD SLOAD PUSH1 0x8 SHR AND PUSH2 0x3876 JUMP JUMPDEST ADD SLOAD SWAP3 CALLER PUSH0 MSTORE PUSH1 0xA DUP6 MSTORE PUSH1 0x40 PUSH0 KECCAK256 DUP7 PUSH0 MSTORE DUP6 MSTORE PUSH1 0x40 PUSH0 KECCAK256 SWAP1 DUP6 PUSH1 0x4 DUP4 ADD SWAP2 PUSH2 0x3496 PUSH1 0xFF DUP5 SLOAD PUSH1 0x8 SHR AND PUSH2 0x3876 JUMP JUMPDEST PUSH2 0x349F DUP6 PUSH2 0x465C JUMP JUMPDEST PUSH1 0x1 SLOAD AND PUSH1 0x40 MLOAD SWAP6 DUP7 DUP1 SWAP3 PUSH4 0x41976E09 PUSH1 0xE0 SHL DUP3 MSTORE DUP12 PUSH1 0x4 DUP4 ADD MSTORE GAS STATICCALL SWAP4 DUP5 ISZERO PUSH2 0x8C8 JUMPI PUSH0 SWAP5 PUSH2 0x3509 JUMPI JUMPDEST POP PUSH2 0x34D6 DUP5 ISZERO ISZERO PUSH2 0x3B4F JUMP JUMPDEST PUSH2 0x34DF DUP4 PUSH2 0x44A9 JUMP JUMPDEST PUSH8 0xDE0B6B3A7640000 DUP1 DUP7 MUL SWAP6 DUP1 DUP8 DIV DUP3 EQ DUP2 ISZERO OR ISZERO PUSH2 0x885 JUMPI PUSH2 0x5CE PUSH1 0x1 DUP6 ADD SWAP8 DUP9 SLOAD SWAP1 PUSH2 0x39C9 JUMP JUMPDEST SWAP1 SWAP4 POP DUP6 DUP2 DUP2 RETURNDATASIZE DUP4 GT PUSH2 0x3531 JUMPI JUMPDEST PUSH2 0x3521 DUP2 DUP4 PUSH2 0x38F7 JUMP JUMPDEST DUP2 ADD SUB SLT PUSH2 0x38E JUMPI MLOAD SWAP3 DUP8 PUSH2 0x34CA JUMP JUMPDEST POP RETURNDATASIZE PUSH2 0x3517 JUMP JUMPDEST CALLVALUE PUSH2 0x38E JUMPI PUSH1 0x20 CALLDATASIZE PUSH1 0x3 NOT ADD SLT PUSH2 0x38E JUMPI PUSH1 0x4 CALLDATALOAD PUSH2 0x3554 PUSH2 0x442F JUMP JUMPDEST PUSH2 0x3567 PUSH7 0x38D7EA4C68000 DUP3 GT ISZERO PUSH2 0x3ACE JUMP JUMPDEST PUSH1 0x6 SSTORE STOP JUMPDEST CALLVALUE PUSH2 0x38E JUMPI PUSH0 CALLDATASIZE PUSH1 0x3 NOT ADD SLT PUSH2 0x38E JUMPI PUSH1 0x40 MLOAD PUSH1 0x12 DUP1 SLOAD DUP1 DUP4 MSTORE PUSH0 SWAP2 DUP3 MSTORE PUSH1 0x20 DUP1 DUP5 ADD SWAP4 SWAP3 PUSH32 0xBB8A6A4669BA250D26CD7A459ECA9D215F8307E33AEBE50379BC5A3617EC3444 SWAP3 SWAP2 JUMPDEST DUP3 DUP3 LT PUSH2 0x35E0 JUMPI PUSH2 0xBA5 DUP6 PUSH2 0x35CC DUP2 DUP10 SUB DUP3 PUSH2 0x38F7 JUMP JUMPDEST PUSH1 0x40 MLOAD SWAP2 DUP3 SWAP2 PUSH1 0x20 DUP4 MSTORE PUSH1 0x20 DUP4 ADD SWAP1 PUSH2 0x3766 JUMP JUMPDEST DUP4 SLOAD PUSH1 0x1 PUSH1 0x1 PUSH1 0xA0 SHL SUB AND DUP7 MSTORE SWAP5 DUP6 ADD SWAP5 PUSH1 0x1 SWAP4 DUP5 ADD SWAP4 SWAP1 SWAP2 ADD SWAP1 PUSH2 0x35B5 JUMP JUMPDEST CALLVALUE PUSH2 0x38E JUMPI PUSH0 CALLDATASIZE PUSH1 0x3 NOT ADD SLT PUSH2 0x38E JUMPI PUSH1 0x20 PUSH1 0x15 SLOAD PUSH1 0x40 MLOAD SWAP1 DUP2 MSTORE RETURN JUMPDEST CALLVALUE PUSH2 0x38E JUMPI PUSH0 CALLDATASIZE PUSH1 0x3 NOT ADD SLT PUSH2 0x38E JUMPI PUSH1 0x20 PUSH1 0x11 SLOAD PUSH1 0x40 MLOAD SWAP1 DUP2 MSTORE RETURN JUMPDEST CALLVALUE PUSH2 0x38E JUMPI PUSH1 0x40 CALLDATASIZE PUSH1 0x3 NOT ADD SLT PUSH2 0x38E JUMPI PUSH1 0x20 PUSH2 0x948 PUSH2 0x3658 PUSH2 0x373A JUMP JUMPDEST PUSH2 0x3660 PUSH2 0x3750 JUMP JUMPDEST SWAP1 PUSH2 0x39E7 JUMP JUMPDEST PUSH1 0x20 CALLDATASIZE PUSH1 0x3 NOT ADD SLT PUSH2 0x38E JUMPI PUSH2 0x367A PUSH2 0x373A JUMP JUMPDEST PUSH2 0x3682 PUSH2 0x43E3 JUMP JUMPDEST PUSH2 0x368A PUSH2 0x4412 JUMP JUMPDEST CALLER PUSH0 MSTORE PUSH1 0xA PUSH1 0x20 MSTORE PUSH1 0x40 PUSH0 KECCAK256 SWAP1 PUSH1 0x1 DUP1 PUSH1 0xA0 SHL SUB AND SWAP1 DUP2 PUSH0 MSTORE PUSH1 0x20 MSTORE PUSH1 0x40 PUSH0 KECCAK256 PUSH2 0x36BD PUSH1 0xFF PUSH1 0x4 DUP4 ADD SLOAD PUSH1 0x8 SHR AND PUSH2 0x3876 JUMP JUMPDEST PUSH2 0x36C8 CALLVALUE ISZERO ISZERO PUSH2 0x38B0 JUMP JUMPDEST PUSH2 0x36D3 CALLVALUE DUP3 SLOAD PUSH2 0x38EA JUMP JUMPDEST DUP1 SWAP2 SSTORE PUSH1 0x40 MLOAD SWAP1 CALLVALUE DUP3 MSTORE PUSH1 0x20 DUP3 ADD MSTORE PUSH32 0x5EE4D5D52169C996164E259F1AAD282B3746303766EA2F71D42F3D0AAA9680A5 PUSH1 0x40 CALLER SWAP3 LOG3 PUSH1 0x1 PUSH0 DUP1 MLOAD PUSH1 0x20 PUSH2 0x4A98 DUP4 CODECOPY DUP2 MLOAD SWAP2 MSTORE SSTORE STOP JUMPDEST CALLVALUE PUSH2 0x38E JUMPI PUSH0 CALLDATASIZE PUSH1 0x3 NOT ADD SLT PUSH2 0x38E JUMPI DUP1 PUSH7 0xD529AE9E860000 PUSH1 0x20 SWAP3 MSTORE RETURN JUMPDEST PUSH1 0x4 CALLDATALOAD SWAP1 PUSH1 0x1 PUSH1 0x1 PUSH1 0xA0 SHL SUB DUP3 AND DUP3 SUB PUSH2 0x38E JUMPI JUMP JUMPDEST PUSH1 0x24 CALLDATALOAD SWAP1 PUSH1 0x1 PUSH1 0x1 PUSH1 0xA0 SHL SUB DUP3 AND DUP3 SUB PUSH2 0x38E JUMPI JUMP JUMPDEST SWAP1 DUP2 MLOAD DUP1 DUP3 MSTORE PUSH1 0x20 DUP1 DUP1 SWAP4 ADD SWAP4 ADD SWAP2 PUSH0 JUMPDEST DUP3 DUP2 LT PUSH2 0x3785 JUMPI POP POP POP POP SWAP1 JUMP JUMPDEST DUP4 MLOAD PUSH1 0x1 PUSH1 0x1 PUSH1 0xA0 SHL SUB AND DUP6 MSTORE SWAP4 DUP2 ADD SWAP4 SWAP3 DUP2 ADD SWAP3 PUSH1 0x1 ADD PUSH2 0x3777 JUMP JUMPDEST PUSH1 0x24 CALLDATALOAD SWAP1 DUP2 ISZERO ISZERO DUP3 SUB PUSH2 0x38E JUMPI JUMP JUMPDEST PUSH1 0x12 SLOAD DUP2 LT ISZERO PUSH2 0x37C9 JUMPI PUSH1 0x12 PUSH0 MSTORE PUSH1 0x20 PUSH0 KECCAK256 ADD SWAP1 PUSH0 SWAP1 JUMP JUMPDEST PUSH4 0x4E487B71 PUSH1 0xE0 SHL PUSH0 MSTORE PUSH1 0x32 PUSH1 0x4 MSTORE PUSH1 0x24 PUSH0 REVERT JUMPDEST DUP1 SLOAD DUP3 LT ISZERO PUSH2 0x37C9 JUMPI PUSH0 MSTORE PUSH1 0x20 PUSH0 KECCAK256 ADD SWAP1 PUSH0 SWAP1 JUMP JUMPDEST PUSH1 0x15 SLOAD DUP2 LT ISZERO PUSH2 0x37C9 JUMPI PUSH1 0x15 PUSH0 MSTORE PUSH1 0x6 PUSH1 0x20 PUSH0 KECCAK256 SWAP2 MUL ADD SWAP1 PUSH0 SWAP1 JUMP JUMPDEST SWAP1 DUP2 MLOAD DUP1 DUP3 MSTORE PUSH1 0x20 DUP1 DUP1 SWAP4 ADD SWAP4 ADD SWAP2 PUSH0 JUMPDEST DUP3 DUP2 LT PUSH2 0x382D JUMPI POP POP POP POP SWAP1 JUMP JUMPDEST DUP4 MLOAD DUP6 MSTORE SWAP4 DUP2 ADD SWAP4 SWAP3 DUP2 ADD SWAP3 PUSH1 0x1 ADD PUSH2 0x381F JUMP JUMPDEST SWAP1 DUP2 MLOAD DUP1 DUP3 MSTORE PUSH1 0x20 DUP1 DUP1 SWAP4 ADD SWAP4 ADD SWAP2 PUSH0 JUMPDEST DUP3 DUP2 LT PUSH2 0x3860 JUMPI POP POP POP POP SWAP1 JUMP JUMPDEST DUP4 MLOAD ISZERO ISZERO DUP6 MSTORE SWAP4 DUP2 ADD SWAP4 SWAP3 DUP2 ADD SWAP3 PUSH1 0x1 ADD PUSH2 0x3852 JUMP JUMPDEST ISZERO PUSH2 0x387D JUMPI JUMP JUMPDEST PUSH1 0x40 MLOAD PUSH3 0x461BCD PUSH1 0xE5 SHL DUP2 MSTORE PUSH1 0x20 PUSH1 0x4 DUP3 ADD MSTORE PUSH1 0xB PUSH1 0x24 DUP3 ADD MSTORE PUSH11 0x3737903837B9B4BA34B7B7 PUSH1 0xA9 SHL PUSH1 0x44 DUP3 ADD MSTORE PUSH1 0x64 SWAP1 REVERT JUMPDEST ISZERO PUSH2 0x38B7 JUMPI JUMP JUMPDEST PUSH1 0x40 MLOAD PUSH3 0x461BCD PUSH1 0xE5 SHL DUP2 MSTORE PUSH1 0x20 PUSH1 0x4 DUP3 ADD MSTORE PUSH1 0xB PUSH1 0x24 DUP3 ADD MSTORE PUSH11 0x3D32B9379036B0B933B4B7 PUSH1 0xA9 SHL PUSH1 0x44 DUP3 ADD MSTORE PUSH1 0x64 SWAP1 REVERT JUMPDEST SWAP2 SWAP1 DUP3 ADD DUP1 SWAP3 GT PUSH2 0x885 JUMPI JUMP JUMPDEST PUSH1 0x1F SWAP1 SWAP2 ADD PUSH1 0x1F NOT AND DUP2 ADD SWAP1 PUSH1 0x1 PUSH1 0x1 PUSH1 0x40 SHL SUB DUP3 GT SWAP1 DUP3 LT OR PUSH2 0x1A06 JUMPI PUSH1 0x40 MSTORE JUMP JUMPDEST PUSH1 0x40 MLOAD SWAP1 SWAP2 SWAP1 PUSH2 0x140 DUP2 ADD PUSH1 0x1 PUSH1 0x1 PUSH1 0x40 SHL SUB DUP2 GT DUP3 DUP3 LT OR PUSH2 0x1A06 JUMPI PUSH1 0x40 MSTORE PUSH2 0x120 PUSH1 0x8 DUP3 SWAP5 DUP1 SLOAD DUP5 MSTORE PUSH1 0x1 DUP2 ADD SLOAD PUSH1 0x20 DUP6 ADD MSTORE PUSH1 0x2 DUP2 ADD SLOAD PUSH1 0x40 DUP6 ADD MSTORE PUSH1 0x3 DUP2 ADD SLOAD PUSH1 0x60 DUP6 ADD MSTORE PUSH1 0xFF PUSH1 0x4 DUP3 ADD SLOAD DUP2 DUP2 AND ISZERO ISZERO PUSH1 0x80 DUP8 ADD MSTORE DUP4 SHR AND ISZERO ISZERO PUSH1 0xA0 DUP6 ADD MSTORE PUSH1 0x5 DUP2 ADD SLOAD PUSH1 0xC0 DUP6 ADD MSTORE PUSH1 0x6 DUP2 ADD SLOAD PUSH1 0xE0 DUP6 ADD MSTORE PUSH1 0xFF PUSH1 0x7 DUP3 ADD SLOAD AND ISZERO ISZERO PUSH2 0x100 DUP6 ADD MSTORE ADD SLOAD SWAP2 ADD MSTORE JUMP JUMPDEST DUP2 DUP2 MUL SWAP3 SWAP2 DUP2 ISZERO SWAP2 DUP5 DIV EQ OR ISZERO PUSH2 0x885 JUMPI JUMP JUMPDEST SWAP2 SWAP1 DUP3 SUB SWAP2 DUP3 GT PUSH2 0x885 JUMPI JUMP JUMPDEST DUP2 ISZERO PUSH2 0x39D3 JUMPI DIV SWAP1 JUMP JUMPDEST PUSH4 0x4E487B71 PUSH1 0xE0 SHL PUSH0 MSTORE PUSH1 0x12 PUSH1 0x4 MSTORE PUSH1 0x24 PUSH0 REVERT JUMPDEST PUSH1 0x1 DUP1 PUSH1 0xA0 SHL SUB DUP1 SWAP2 AND PUSH0 MSTORE PUSH1 0xA PUSH1 0x20 MSTORE PUSH1 0x40 PUSH0 KECCAK256 SWAP2 AND PUSH0 MSTORE PUSH1 0x20 MSTORE PUSH2 0x3A0F PUSH1 0x40 PUSH0 KECCAK256 PUSH2 0x391A JUMP JUMPDEST PUSH1 0xA0 DUP2 ADD MLOAD ISZERO PUSH2 0x3AC9 JUMPI DUP1 MLOAD DUP1 ISZERO PUSH2 0x3A77 JUMPI PUSH1 0x80 DUP3 ADD MLOAD PUSH1 0x20 SWAP2 SWAP1 ISZERO PUSH2 0x3A7D JUMPI PUSH2 0x3A3D SWAP1 PUSH1 0x40 DUP5 ADD MLOAD PUSH2 0x39A9 JUMP JUMPDEST SWAP2 ADD MLOAD PUSH8 0xEB5E06245EA0000 SWAP1 DUP2 DUP2 MUL SWAP2 DUP2 DUP4 DIV EQ SWAP1 ISZERO OR ISZERO PUSH2 0x885 JUMPI PUSH8 0xDE0B6B3A7640000 SWAP1 DIV DUP1 ISZERO PUSH2 0x3A77 JUMPI PUSH2 0x3A74 SWAP2 PUSH2 0x39C9 JUMP JUMPDEST SWAP1 JUMP JUMPDEST POP POP PUSH0 SWAP1 JUMP JUMPDEST PUSH2 0x3A8B SWAP1 PUSH1 0x40 DUP5 ADD MLOAD PUSH2 0x39A9 JUMP JUMPDEST SWAP2 ADD MLOAD PUSH8 0xD0B8D0508DE0000 SWAP1 DUP2 DUP2 MUL SWAP2 DUP2 DUP4 DIV EQ SWAP1 ISZERO OR ISZERO PUSH2 0x885 JUMPI PUSH8 0xDE0B6B3A7640000 SWAP1 DIV DUP1 ISZERO PUSH2 0x3AC2 JUMPI PUSH2 0x3A74 SWAP2 PUSH2 0x39C9 JUMP JUMPDEST POP POP PUSH0 NOT SWAP1 JUMP JUMPDEST POP PUSH0 SWAP1 JUMP JUMPDEST ISZERO PUSH2 0x3AD5 JUMPI JUMP JUMPDEST PUSH1 0x40 MLOAD PUSH3 0x461BCD PUSH1 0xE5 SHL DUP2 MSTORE PUSH1 0x20 PUSH1 0x4 DUP3 ADD MSTORE PUSH1 0x8 PUSH1 0x24 DUP3 ADD MSTORE PUSH8 0xE8DEDE40D0D2CED PUSH1 0xC3 SHL PUSH1 0x44 DUP3 ADD MSTORE PUSH1 0x64 SWAP1 REVERT JUMPDEST ISZERO PUSH2 0x3B0C JUMPI JUMP JUMPDEST PUSH1 0x40 MLOAD PUSH3 0x461BCD PUSH1 0xE5 SHL DUP2 MSTORE PUSH1 0x20 PUSH1 0x4 DUP3 ADD MSTORE PUSH1 0xA PUSH1 0x24 DUP3 ADD MSTORE PUSH10 0x1B9BDD081B1A5CDD1959 PUSH1 0xB2 SHL PUSH1 0x44 DUP3 ADD MSTORE PUSH1 0x64 SWAP1 REVERT JUMPDEST SWAP1 PUSH1 0xFF DUP1 NOT DUP4 SLOAD AND SWAP2 ISZERO ISZERO AND OR SWAP1 SSTORE JUMP JUMPDEST ISZERO PUSH2 0x3B56 JUMPI JUMP JUMPDEST PUSH1 0x40 MLOAD PUSH3 0x461BCD PUSH1 0xE5 SHL DUP2 MSTORE PUSH1 0x20 PUSH1 0x4 DUP3 ADD MSTORE PUSH1 0x8 PUSH1 0x24 DUP3 ADD MSTORE PUSH8 0x6E6F207072696365 PUSH1 0xC0 SHL PUSH1 0x44 DUP3 ADD MSTORE PUSH1 0x64 SWAP1 REVERT JUMPDEST ISZERO PUSH2 0x3B8D JUMPI JUMP JUMPDEST PUSH1 0x40 MLOAD PUSH3 0x461BCD PUSH1 0xE5 SHL DUP2 MSTORE PUSH1 0x20 PUSH1 0x4 DUP3 ADD MSTORE PUSH1 0xE PUSH1 0x24 DUP3 ADD MSTORE PUSH14 0x14D3081B9BDD081C995858DA1959 PUSH1 0x92 SHL PUSH1 0x44 DUP3 ADD MSTORE PUSH1 0x64 SWAP1 REVERT JUMPDEST ISZERO PUSH2 0x3BCA JUMPI JUMP JUMPDEST PUSH1 0x40 MLOAD PUSH3 0x461BCD PUSH1 0xE5 SHL DUP2 MSTORE PUSH1 0x20 PUSH1 0x4 DUP3 ADD MSTORE PUSH1 0xE PUSH1 0x24 DUP3 ADD MSTORE PUSH14 0x1514081B9BDD081C995858DA1959 PUSH1 0x92 SHL PUSH1 0x44 DUP3 ADD MSTORE PUSH1 0x64 SWAP1 REVERT JUMPDEST RETURNDATASIZE ISZERO PUSH2 0x3C39 JUMPI RETURNDATASIZE SWAP1 PUSH1 0x1 PUSH1 0x1 PUSH1 0x40 SHL SUB DUP3 GT PUSH2 0x1A06 JUMPI PUSH1 0x40 MLOAD SWAP2 PUSH2 0x3C2E PUSH1 0x1F DUP3 ADD PUSH1 0x1F NOT AND PUSH1 0x20 ADD DUP5 PUSH2 0x38F7 JUMP JUMPDEST DUP3 MSTORE RETURNDATASIZE PUSH0 PUSH1 0x20 DUP5 ADD RETURNDATACOPY JUMP JUMPDEST PUSH1 0x60 SWAP1 JUMP JUMPDEST ISZERO PUSH2 0x3C45 JUMPI JUMP JUMPDEST PUSH1 0x40 MLOAD PUSH3 0x461BCD PUSH1 0xE5 SHL DUP2 MSTORE PUSH1 0x20 PUSH1 0x4 DUP3 ADD MSTORE PUSH1 0x16 PUSH1 0x24 DUP3 ADD MSTORE PUSH22 0x195E1958DD5D1BDC881C995DD85C990819985A5B1959 PUSH1 0x52 SHL PUSH1 0x44 DUP3 ADD MSTORE PUSH1 0x64 SWAP1 REVERT JUMPDEST ISZERO PUSH2 0x3C8A JUMPI JUMP JUMPDEST PUSH1 0x40 MLOAD PUSH3 0x461BCD PUSH1 0xE5 SHL DUP2 MSTORE PUSH1 0x20 PUSH1 0x4 DUP3 ADD MSTORE PUSH1 0x10 PUSH1 0x24 DUP3 ADD MSTORE PUSH16 0x696E76616C6964206C65766572616765 PUSH1 0x80 SHL PUSH1 0x44 DUP3 ADD MSTORE PUSH1 0x64 SWAP1 REVERT JUMPDEST ISZERO PUSH2 0x3CC9 JUMPI JUMP JUMPDEST PUSH1 0x40 MLOAD PUSH3 0x461BCD PUSH1 0xE5 SHL DUP2 MSTORE PUSH1 0x20 PUSH1 0x4 DUP3 ADD MSTORE PUSH1 0x13 PUSH1 0x24 DUP3 ADD MSTORE PUSH19 0x34B739BAB33334B1B4B2B73A1036B0B933B4B7 PUSH1 0x69 SHL PUSH1 0x44 DUP3 ADD MSTORE PUSH1 0x64 SWAP1 REVERT JUMPDEST ISZERO PUSH2 0x3D0B JUMPI JUMP JUMPDEST PUSH1 0x40 MLOAD PUSH3 0x461BCD PUSH1 0xE5 SHL DUP2 MSTORE PUSH1 0x20 PUSH1 0x4 DUP3 ADD MSTORE PUSH1 0x19 PUSH1 0x24 DUP3 ADD MSTORE PUSH25 0x746F6B656E206E6F74206C697374656420666F72207065727 PUSH1 0x3C SHL PUSH1 0x44 DUP3 ADD MSTORE PUSH1 0x64 SWAP1 REVERT JUMPDEST ISZERO PUSH2 0x3D53 JUMPI JUMP JUMPDEST PUSH1 0x40 MLOAD PUSH3 0x461BCD PUSH1 0xE5 SHL DUP2 MSTORE PUSH1 0x20 PUSH1 0x4 DUP3 ADD MSTORE PUSH1 0x1D PUSH1 0x24 DUP3 ADD MSTORE PUSH32 0x636C6F7365206578697374696E6720706F736974696F6E206669727374000000 PUSH1 0x44 DUP3 ADD MSTORE PUSH1 0x64 SWAP1 REVERT JUMPDEST PUSH1 0x1 PUSH1 0x1 PUSH1 0xA0 SHL SUB AND PUSH0 DUP2 DUP2 MSTORE PUSH1 0xE PUSH1 0x20 MSTORE PUSH1 0x40 SWAP1 KECCAK256 SLOAD ISZERO PUSH2 0x3DCF JUMPI PUSH0 MSTORE PUSH1 0xE PUSH1 0x20 MSTORE PUSH1 0x40 PUSH0 KECCAK256 SLOAD PUSH2 0x7080 DUP2 ADD DUP1 SWAP2 GT PUSH2 0x885 JUMPI SWAP1 JUMP JUMPDEST POP PUSH2 0x7080 TIMESTAMP ADD DUP1 TIMESTAMP GT PUSH2 0x885 JUMPI SWAP1 JUMP JUMPDEST PUSH1 0x1 PUSH1 0xFF SHL DUP2 EQ PUSH2 0x885 JUMPI PUSH0 SUB SWAP1 JUMP JUMPDEST PUSH1 0x8 PUSH0 SWAP2 DUP3 DUP2 SSTORE DUP3 PUSH1 0x1 DUP3 ADD SSTORE DUP3 PUSH1 0x2 DUP3 ADD SSTORE DUP3 PUSH1 0x3 DUP3 ADD SSTORE DUP3 PUSH1 0x4 DUP3 ADD SSTORE DUP3 PUSH1 0x5 DUP3 ADD SSTORE DUP3 PUSH1 0x6 DUP3 ADD SSTORE DUP3 PUSH1 0x7 DUP3 ADD SSTORE ADD SSTORE JUMP JUMPDEST PUSH1 0x1 DUP1 PUSH1 0xA0 SHL SUB DUP1 SWAP2 AND PUSH0 MSTORE PUSH1 0x20 SWAP1 PUSH1 0xA DUP3 MSTORE DUP1 PUSH1 0x40 PUSH0 KECCAK256 SWAP4 AND SWAP3 DUP4 PUSH0 MSTORE DUP3 MSTORE PUSH2 0x3E50 PUSH1 0x40 PUSH0 KECCAK256 PUSH2 0x391A JUMP JUMPDEST SWAP1 PUSH1 0xA0 DUP3 ADD MLOAD ISZERO PUSH2 0x3EC7 JUMPI DUP3 SWAP1 PUSH1 0x1 SLOAD AND SWAP4 PUSH1 0x24 PUSH1 0x40 MLOAD DUP1 SWAP7 DUP2 SWAP4 PUSH4 0x41976E09 PUSH1 0xE0 SHL DUP4 MSTORE PUSH1 0x4 DUP4 ADD MSTORE GAS STATICCALL SWAP2 DUP3 ISZERO PUSH2 0x8C8 JUMPI PUSH0 SWAP3 PUSH2 0x3E95 JUMPI JUMPDEST POP PUSH2 0x3A74 SWAP3 POP PUSH2 0x4879 JUMP JUMPDEST SWAP1 SWAP2 POP DUP3 DUP2 RETURNDATASIZE DUP4 GT PUSH2 0x3EC0 JUMPI JUMPDEST PUSH2 0x3EAC DUP2 DUP4 PUSH2 0x38F7 JUMP JUMPDEST DUP2 ADD SUB SLT PUSH2 0x38E JUMPI PUSH2 0x3A74 SWAP2 MLOAD SWAP1 PUSH0 PUSH2 0x3E8A JUMP JUMPDEST POP RETURNDATASIZE PUSH2 0x3EA2 JUMP JUMPDEST POP POP POP POP PUSH0 SWAP1 JUMP JUMPDEST ISZERO PUSH2 0x3ED6 JUMPI JUMP JUMPDEST PUSH1 0x40 MLOAD PUSH3 0x461BCD PUSH1 0xE5 SHL DUP2 MSTORE PUSH1 0x20 PUSH1 0x4 DUP3 ADD MSTORE PUSH1 0xD PUSH1 0x24 DUP3 ADD MSTORE PUSH13 0x34B73B30B634B21037B93232B9 PUSH1 0x99 SHL PUSH1 0x44 DUP3 ADD MSTORE PUSH1 0x64 SWAP1 REVERT JUMPDEST ISZERO PUSH2 0x3F12 JUMPI JUMP JUMPDEST PUSH1 0x40 MLOAD PUSH3 0x461BCD PUSH1 0xE5 SHL DUP2 MSTORE PUSH1 0x20 PUSH1 0x4 DUP3 ADD MSTORE PUSH1 0x10 PUSH1 0x24 DUP3 ADD MSTORE PUSH16 0x6F72646572206E6F7420616374697665 PUSH1 0x80 SHL PUSH1 0x44 DUP3 ADD MSTORE PUSH1 0x64 SWAP1 REVERT JUMPDEST ISZERO PUSH2 0x3F51 JUMPI JUMP JUMPDEST PUSH1 0x40 MLOAD PUSH3 0x461BCD PUSH1 0xE5 SHL DUP2 MSTORE PUSH1 0x20 PUSH1 0x4 DUP3 ADD MSTORE PUSH1 0xF PUSH1 0x24 DUP3 ADD MSTORE PUSH15 0x1D1C985B9CD9995C8819985A5B1959 PUSH1 0x8A SHL PUSH1 0x44 DUP3 ADD MSTORE PUSH1 0x64 SWAP1 REVERT JUMPDEST ISZERO PUSH2 0x3F8F JUMPI JUMP JUMPDEST PUSH1 0x40 MLOAD PUSH3 0x461BCD PUSH1 0xE5 SHL DUP2 MSTORE PUSH1 0x20 PUSH1 0x4 DUP3 ADD MSTORE PUSH1 0x11 PUSH1 0x24 DUP3 ADD MSTORE PUSH17 0x1C1C9A58D9481B9BDD081C995858DA1959 PUSH1 0x7A SHL PUSH1 0x44 DUP3 ADD MSTORE PUSH1 0x64 SWAP1 REVERT JUMPDEST ISZERO PUSH2 0x3FCF JUMPI JUMP JUMPDEST PUSH1 0x40 MLOAD PUSH3 0x461BCD PUSH1 0xE5 SHL DUP2 MSTORE PUSH1 0x20 PUSH1 0x4 DUP3 ADD MSTORE PUSH1 0x13 PUSH1 0x24 DUP3 ADD MSTORE PUSH19 0x199959481D1C985B9CD9995C8819985A5B1959 PUSH1 0x6A SHL PUSH1 0x44 DUP3 ADD MSTORE PUSH1 0x64 SWAP1 REVERT JUMPDEST SWAP2 SWAP3 PUSH1 0x80 SWAP4 SWAP7 SWAP6 SWAP5 SWAP2 SWAP7 PUSH1 0xA0 DUP5 ADD SWAP8 ISZERO ISZERO DUP5 MSTORE PUSH1 0x20 DUP5 ADD MSTORE PUSH1 0x40 DUP4 ADD MSTORE PUSH1 0x60 DUP3 ADD MSTORE ADD MSTORE JUMP JUMPDEST PUSH1 0x1 DUP1 PUSH1 0xA0 SHL SUB DUP1 SWAP2 AND DUP1 PUSH0 MSTORE PUSH1 0x20 SWAP3 PUSH1 0xA DUP5 MSTORE PUSH1 0x40 SWAP1 DUP4 DUP3 PUSH0 KECCAK256 SWAP2 AND SWAP1 DUP2 PUSH0 MSTORE DUP6 MSTORE PUSH2 0x405E DUP3 PUSH0 KECCAK256 PUSH2 0x391A JUMP JUMPDEST SWAP4 PUSH1 0xA0 DUP6 ADD MLOAD ISZERO PUSH2 0x41C7 JUMPI DUP3 MLOAD SWAP4 PUSH3 0x30CF69 PUSH1 0xE7 SHL DUP6 MSTORE PUSH1 0x4 DUP6 ADD MSTORE DUP2 PUSH1 0x24 DUP6 ADD MSTORE DUP6 DUP5 PUSH1 0x44 DUP2 ADDRESS GAS STATICCALL SWAP4 DUP5 ISZERO PUSH2 0x41BD JUMPI SWAP1 DUP7 SWAP2 PUSH0 SWAP6 PUSH2 0x418C JUMPI JUMPDEST POP PUSH1 0x1 SLOAD AND SWAP2 PUSH1 0x24 DUP5 MLOAD DUP1 SWAP5 DUP2 SWAP4 PUSH4 0x41976E09 PUSH1 0xE0 SHL DUP4 MSTORE PUSH1 0x4 DUP4 ADD MSTORE GAS STATICCALL SWAP5 DUP6 ISZERO PUSH2 0x4182 JUMPI PUSH0 SWAP6 PUSH2 0x4152 JUMPI JUMPDEST POP POP DUP4 ISZERO PUSH2 0x3EC7 JUMPI PUSH1 0x80 DUP4 ADD MLOAD ISZERO PUSH2 0x4126 JUMPI DUP2 DUP5 GT ISZERO PUSH2 0x3EC7 JUMPI PUSH2 0x40FF SWAP3 ADD MLOAD DUP2 DUP1 DUP3 GT PUSH0 EQ PUSH2 0x411C JUMPI PUSH2 0x40F9 SWAP2 PUSH2 0x39BC JUMP JUMPDEST SWAP3 PUSH2 0x39BC JUMP JUMPDEST SWAP1 PUSH1 0x64 DUP3 MUL SWAP2 DUP1 DUP4 DIV PUSH1 0x64 EQ SWAP1 ISZERO OR ISZERO PUSH2 0x885 JUMPI PUSH2 0x3A74 SWAP2 PUSH2 0x39C9 JUMP JUMPDEST POP POP PUSH1 0x1 SWAP3 PUSH2 0x39BC JUMP JUMPDEST DUP2 DUP5 SWAP3 SWAP5 LT ISZERO PUSH2 0x3EC7 JUMPI PUSH2 0x40FF SWAP3 ADD MLOAD DUP1 DUP5 GT PUSH0 EQ PUSH2 0x4149 JUMPI PUSH2 0x40F9 SWAP1 DUP5 PUSH2 0x39BC JUMP JUMPDEST POP PUSH1 0x1 SWAP3 PUSH2 0x39BC JUMP JUMPDEST SWAP1 DUP1 SWAP3 SWAP6 POP DUP2 RETURNDATASIZE DUP4 GT PUSH2 0x417B JUMPI JUMPDEST PUSH2 0x416A DUP2 DUP4 PUSH2 0x38F7 JUMP JUMPDEST DUP2 ADD SUB SLT PUSH2 0x38E JUMPI MLOAD SWAP3 PUSH0 DUP1 PUSH2 0x40C6 JUMP JUMPDEST POP RETURNDATASIZE PUSH2 0x4160 JUMP JUMPDEST DUP3 MLOAD RETURNDATASIZE PUSH0 DUP3 RETURNDATACOPY RETURNDATASIZE SWAP1 REVERT JUMPDEST DUP3 DUP2 SWAP4 SWAP3 SWAP7 POP RETURNDATASIZE DUP4 GT PUSH2 0x41B6 JUMPI JUMPDEST PUSH2 0x41A4 DUP2 DUP4 PUSH2 0x38F7 JUMP JUMPDEST DUP2 ADD SUB SLT PUSH2 0x38E JUMPI DUP6 SWAP1 MLOAD SWAP4 PUSH0 PUSH2 0x4099 JUMP JUMPDEST POP RETURNDATASIZE PUSH2 0x419A JUMP JUMPDEST DUP4 MLOAD RETURNDATASIZE PUSH0 DUP3 RETURNDATACOPY RETURNDATASIZE SWAP1 REVERT JUMPDEST POP POP POP POP POP POP PUSH1 0x64 SWAP1 JUMP JUMPDEST PUSH1 0x1 PUSH1 0x1 PUSH1 0x40 SHL SUB DUP2 GT PUSH2 0x1A06 JUMPI PUSH1 0x5 SHL PUSH1 0x20 ADD SWAP1 JUMP JUMPDEST SWAP1 PUSH2 0x41F3 DUP3 PUSH2 0x41D2 JUMP JUMPDEST PUSH2 0x4200 PUSH1 0x40 MLOAD SWAP2 DUP3 PUSH2 0x38F7 JUMP JUMPDEST DUP3 DUP2 MSTORE DUP1 SWAP3 PUSH2 0x4211 PUSH1 0x1F NOT SWAP2 PUSH2 0x41D2 JUMP JUMPDEST ADD SWAP1 PUSH1 0x20 CALLDATASIZE SWAP2 ADD CALLDATACOPY JUMP JUMPDEST DUP1 MLOAD DUP3 LT ISZERO PUSH2 0x37C9 JUMPI PUSH1 0x20 SWAP2 PUSH1 0x5 SHL ADD ADD SWAP1 JUMP JUMPDEST PUSH1 0x1 DUP1 PUSH1 0xA0 SHL SUB AND PUSH0 MSTORE PUSH1 0xB PUSH1 0x20 MSTORE PUSH1 0x40 PUSH0 KECCAK256 SLOAD PUSH1 0xC PUSH1 0x20 MSTORE PUSH1 0x40 PUSH0 KECCAK256 SLOAD SWAP1 DUP1 ISZERO SWAP2 DUP3 DUP1 SWAP4 PUSH2 0x432F JUMPI JUMPDEST PUSH2 0x4328 JUMPI DUP1 DUP3 GT ISZERO PUSH2 0x42BB JUMPI PUSH8 0xDE0B6B3A7640000 SWAP3 DUP4 DUP4 MUL SWAP3 DUP4 DIV DUP5 EQ OR ISZERO PUSH2 0x885 JUMPI PUSH2 0x4299 SWAP2 PUSH2 0x4291 SWAP2 DUP1 ISZERO PUSH2 0x42B2 JUMPI SWAP1 PUSH2 0x39C9 JUMP JUMPDEST PUSH1 0x6 SLOAD PUSH2 0x39A9 JUMP JUMPDEST DIV PUSH7 0x38D7EA4C68000 DUP1 DUP3 SGT PUSH2 0x42AD JUMPI POP SWAP1 JUMP JUMPDEST SWAP1 POP SWAP1 JUMP JUMPDEST POP PUSH1 0x1 SWAP1 PUSH2 0x39C9 JUMP JUMPDEST SWAP2 SWAP1 DUP1 DUP4 GT PUSH2 0x42CB JUMPI POP POP POP PUSH0 SWAP1 JUMP JUMPDEST PUSH8 0xDE0B6B3A7640000 SWAP2 DUP3 DUP5 MUL SWAP4 DUP1 DUP6 DIV DUP5 EQ SWAP1 ISZERO OR ISZERO PUSH2 0x885 JUMPI PUSH2 0x4302 SWAP4 PUSH2 0x42FC SWAP3 PUSH2 0x4291 SWAP3 PUSH2 0x42B2 JUMPI SWAP1 PUSH2 0x39C9 JUMP JUMPDEST DIV PUSH2 0x3DDF JUMP JUMPDEST PUSH7 0x38D7EA4C68000 PUSH2 0x4313 DUP3 PUSH2 0x3DDF JUMP JUMPDEST SGT PUSH2 0x431B JUMPI SWAP1 JUMP JUMPDEST POP PUSH7 0x38D7EA4C67FFF NOT SWAP1 JUMP JUMPDEST POP POP POP PUSH0 SWAP1 JUMP JUMPDEST POP DUP1 ISZERO PUSH2 0x4259 JUMP JUMPDEST PUSH1 0x1 DUP1 PUSH1 0xA0 SHL SUB DUP1 SWAP2 AND PUSH0 MSTORE PUSH1 0x20 SWAP1 PUSH1 0xA DUP3 MSTORE DUP1 PUSH1 0x40 PUSH0 KECCAK256 SWAP4 AND SWAP3 DUP4 PUSH0 MSTORE DUP3 MSTORE PUSH2 0x4363 PUSH1 0x40 PUSH0 KECCAK256 PUSH2 0x391A JUMP JUMPDEST SWAP1 PUSH1 0xA0 DUP3 ADD MLOAD ISZERO PUSH2 0x43DA JUMPI DUP3 SWAP1 PUSH1 0x1 SLOAD AND SWAP4 PUSH1 0x24 PUSH1 0x40 MLOAD DUP1 SWAP7 DUP2 SWAP4 PUSH4 0x41976E09 PUSH1 0xE0 SHL DUP4 MSTORE PUSH1 0x4 DUP4 ADD MSTORE GAS STATICCALL SWAP2 DUP3 ISZERO PUSH2 0x8C8 JUMPI PUSH0 SWAP3 PUSH2 0x43A8 JUMPI JUMPDEST POP PUSH2 0x3A74 SWAP3 POP PUSH2 0x459E JUMP JUMPDEST SWAP1 SWAP2 POP DUP3 DUP2 RETURNDATASIZE DUP4 GT PUSH2 0x43D3 JUMPI JUMPDEST PUSH2 0x43BF DUP2 DUP4 PUSH2 0x38F7 JUMP JUMPDEST DUP2 ADD SUB SLT PUSH2 0x38E JUMPI PUSH2 0x3A74 SWAP2 MLOAD SWAP1 PUSH0 PUSH2 0x439D JUMP JUMPDEST POP RETURNDATASIZE PUSH2 0x43B5 JUMP JUMPDEST POP POP POP POP PUSH0 NOT SWAP1 JUMP JUMPDEST PUSH0 DUP1 MLOAD PUSH1 0x20 PUSH2 0x4A98 DUP4 CODECOPY DUP2 MLOAD SWAP2 MSTORE PUSH1 0x2 DUP2 SLOAD EQ PUSH2 0x4400 JUMPI PUSH1 0x2 SWAP1 SSTORE JUMP JUMPDEST PUSH1 0x40 MLOAD PUSH4 0x3EE5AEB5 PUSH1 0xE0 SHL DUP2 MSTORE PUSH1 0x4 SWAP1 REVERT JUMPDEST PUSH1 0xFF PUSH0 SLOAD AND PUSH2 0x441D JUMPI JUMP JUMPDEST PUSH1 0x40 MLOAD PUSH4 0xD93C0665 PUSH1 0xE0 SHL DUP2 MSTORE PUSH1 0x4 SWAP1 REVERT JUMPDEST PUSH0 SLOAD PUSH1 0x8 SHR PUSH1 0x1 PUSH1 0x1 PUSH1 0xA0 SHL SUB AND CALLER SUB PUSH2 0x4445 JUMPI JUMP JUMPDEST PUSH1 0x40 MLOAD PUSH4 0x118CDAA7 PUSH1 0xE0 SHL DUP2 MSTORE CALLER PUSH1 0x4 DUP3 ADD MSTORE PUSH1 0x24 SWAP1 REVERT JUMPDEST DUP2 DUP2 MUL SWAP3 SWAP2 PUSH0 DUP3 SLT PUSH1 0x1 PUSH1 0xFF SHL DUP3 EQ AND PUSH2 0x885 JUMPI DUP2 DUP5 SDIV EQ SWAP1 ISZERO OR ISZERO PUSH2 0x885 JUMPI JUMP JUMPDEST SWAP3 PUSH1 0xA0 SWAP5 SWAP2 SWAP8 SWAP7 SWAP6 SWAP3 PUSH1 0xC0 DUP6 ADD SWAP9 ISZERO ISZERO DUP6 MSTORE PUSH1 0x20 DUP6 ADD MSTORE PUSH1 0x40 DUP5 ADD MSTORE PUSH1 0x60 DUP4 ADD MSTORE PUSH1 0x80 DUP3 ADD MSTORE ADD MSTORE JUMP JUMPDEST PUSH1 0x1 SLOAD PUSH1 0x40 MLOAD PUSH4 0x85F89EEF PUSH1 0xE0 SHL DUP2 MSTORE PUSH1 0x1 PUSH1 0x1 PUSH1 0xA0 SHL SUB SWAP3 DUP4 AND PUSH1 0x4 DUP3 ADD MSTORE PUSH1 0x20 SWAP3 SWAP1 SWAP2 DUP4 SWAP2 DUP4 SWAP2 PUSH1 0x24 SWAP2 DUP4 SWAP2 AND GAS STATICCALL SWAP1 DUP2 ISZERO PUSH2 0x8C8 JUMPI PUSH0 SWAP2 PUSH2 0x4571 JUMPI JUMPDEST POP DUP1 ISZERO PUSH2 0x4536 JUMPI PUSH2 0x44FC PUSH2 0x12C SWAP2 TIMESTAMP PUSH2 0x39BC JUMP JUMPDEST GT PUSH2 0x4504 JUMPI POP JUMP JUMPDEST PUSH1 0x64 SWAP1 PUSH1 0x40 MLOAD SWAP1 PUSH3 0x461BCD PUSH1 0xE5 SHL DUP3 MSTORE PUSH1 0x4 DUP3 ADD MSTORE PUSH1 0xB PUSH1 0x24 DUP3 ADD MSTORE PUSH11 0x7072696365207374616C65 PUSH1 0xA8 SHL PUSH1 0x44 DUP3 ADD MSTORE REVERT JUMPDEST PUSH1 0x40 MLOAD PUSH3 0x461BCD PUSH1 0xE5 SHL DUP2 MSTORE PUSH1 0x4 DUP2 ADD DUP4 SWAP1 MSTORE PUSH1 0x13 PUSH1 0x24 DUP3 ADD MSTORE PUSH19 0x1C1C9A58D9481B995D995C881D5C19185D1959 PUSH1 0x6A SHL PUSH1 0x44 DUP3 ADD MSTORE PUSH1 0x64 SWAP1 REVERT JUMPDEST SWAP1 POP DUP2 DUP2 DUP2 RETURNDATASIZE DUP4 GT PUSH2 0x4597 JUMPI JUMPDEST PUSH2 0x4588 DUP2 DUP4 PUSH2 0x38F7 JUMP JUMPDEST DUP2 ADD SUB SLT PUSH2 0x38E JUMPI MLOAD PUSH0 PUSH2 0x44E8 JUMP JUMPDEST POP RETURNDATASIZE PUSH2 0x457E JUMP JUMPDEST PUSH2 0x45A8 DUP3 DUP3 PUSH2 0x4879 JUMP JUMPDEST PUSH1 0x80 DUP3 ADD MLOAD SWAP1 SWAP3 SWAP1 ISZERO PUSH2 0x463A JUMPI PUSH2 0x45C6 PUSH2 0x45D1 SWAP2 PUSH1 0x20 DUP5 ADD MLOAD PUSH2 0x39A9 JUMP JUMPDEST PUSH1 0x40 DUP4 ADD MLOAD SWAP1 PUSH2 0x39C9 JUMP JUMPDEST SWAP2 JUMPDEST PUSH0 DUP2 SLT PUSH2 0x460F JUMPI PUSH2 0x45E4 SWAP2 MLOAD PUSH2 0x38EA JUMP JUMPDEST SWAP1 JUMPDEST DUP1 ISZERO PUSH2 0x3AC2 JUMPI PUSH8 0xDE0B6B3A7640000 SWAP2 DUP3 DUP2 MUL SWAP3 DUP2 DUP5 DIV EQ SWAP1 ISZERO OR ISZERO PUSH2 0x885 JUMPI PUSH2 0x3A74 SWAP2 PUSH2 0x39C9 JUMP JUMPDEST PUSH2 0x4618 SWAP1 PUSH2 0x3DDF JUMP JUMPDEST SWAP1 MLOAD SWAP1 DUP2 DUP2 LT PUSH2 0x462C JUMPI POP POP PUSH0 JUMPDEST SWAP1 PUSH2 0x45E6 JUMP JUMPDEST PUSH2 0x4635 SWAP2 PUSH2 0x39BC JUMP JUMPDEST PUSH2 0x4626 JUMP JUMPDEST PUSH2 0x4656 SWAP1 PUSH2 0x4651 PUSH1 0x20 DUP5 ADD MLOAD PUSH1 0x40 DUP6 ADD MLOAD SWAP1 PUSH2 0x39A9 JUMP JUMPDEST PUSH2 0x39C9 JUMP JUMPDEST SWAP2 PUSH2 0x45D3 JUMP JUMPDEST PUSH1 0x1 DUP1 PUSH1 0xA0 SHL SUB AND DUP1 PUSH0 MSTORE PUSH1 0x20 PUSH1 0xE DUP2 MSTORE PUSH1 0x40 DUP1 PUSH0 KECCAK256 DUP1 SLOAD ISZERO PUSH2 0x4871 JUMPI PUSH2 0x4684 SWAP1 SLOAD TIMESTAMP PUSH2 0x39BC JUMP JUMPDEST SWAP2 PUSH2 0x7080 SWAP3 DUP4 DUP2 LT PUSH2 0x486A JUMPI DUP5 PUSH0 MSTORE PUSH1 0xB DUP3 MSTORE DUP3 PUSH0 KECCAK256 SLOAD PUSH1 0xC DUP4 MSTORE DUP4 PUSH0 KECCAK256 SLOAD SWAP5 DUP2 ISZERO SWAP3 DUP4 DUP1 SWAP5 PUSH2 0x4862 JUMPI JUMPDEST PUSH2 0x4850 JUMPI DIV SWAP5 PUSH0 DUP2 DUP4 GT ISZERO PUSH2 0x47A3 JUMPI POP PUSH8 0xDE0B6B3A7640000 SWAP3 DUP4 DUP4 MUL SWAP3 DUP4 DIV DUP5 EQ OR ISZERO PUSH2 0x885 JUMPI PUSH2 0x46F1 SWAP2 DUP7 SWAP2 PUSH2 0xD7F SWAP2 PUSH2 0x4291 SWAP2 DUP1 ISZERO PUSH2 0x42B2 JUMPI SWAP1 PUSH2 0x39C9 JUMP JUMPDEST DIV SWAP1 PUSH7 0x38D7EA4C68000 SWAP4 DUP1 DUP6 MUL SWAP5 DUP6 DIV SUB PUSH2 0x885 JUMPI DUP4 PUSH0 DUP1 MLOAD PUSH1 0x20 PUSH2 0x4A18 DUP4 CODECOPY DUP2 MLOAD SWAP2 MSTORE SWAP5 DUP4 SGT PUSH2 0x479B JUMPI JUMPDEST POP JUMPDEST PUSH0 DUP3 SGT ISZERO PUSH2 0x4759 JUMPI DUP5 PUSH0 MSTORE PUSH1 0xD DUP2 MSTORE DUP3 PUSH0 KECCAK256 PUSH2 0x473D DUP4 DUP3 SLOAD PUSH2 0x38EA JUMP JUMPDEST SWAP1 SSTORE JUMPDEST DUP5 PUSH0 MSTORE PUSH1 0xE DUP2 MSTORE TIMESTAMP DUP4 PUSH0 KECCAK256 SSTORE DUP3 MLOAD SWAP2 DUP3 MSTORE TIMESTAMP SWAP1 DUP3 ADD MSTORE LOG2 JUMP JUMPDEST PUSH0 DUP3 SLT ISZERO PUSH2 0x4740 JUMPI PUSH2 0x476A DUP3 PUSH2 0x3DDF JUMP JUMPDEST DUP6 PUSH0 MSTORE PUSH1 0xD DUP3 MSTORE DUP4 PUSH0 KECCAK256 SWAP1 DUP1 DUP3 SLOAD LT ISZERO PUSH0 EQ PUSH2 0x4792 JUMPI PUSH2 0x478B SWAP1 DUP3 SLOAD PUSH2 0x39BC JUMP JUMPDEST SWAP1 SSTORE PUSH2 0x4740 JUMP JUMPDEST POP PUSH0 SWAP1 SSTORE PUSH2 0x4740 JUMP JUMPDEST SWAP2 POP PUSH0 PUSH2 0x471E JUMP JUMPDEST SWAP4 SWAP3 DUP3 DUP3 GT PUSH2 0x47C5 JUMPI JUMPDEST POP POP POP PUSH0 DUP1 MLOAD PUSH1 0x20 PUSH2 0x4A18 DUP4 CODECOPY DUP2 MLOAD SWAP2 MSTORE SWAP4 POP PUSH2 0x4720 JUMP JUMPDEST SWAP1 SWAP2 SWAP3 SWAP4 POP PUSH8 0xDE0B6B3A7640000 SWAP2 DUP3 DUP2 MUL SWAP1 DUP1 DUP3 DIV DUP5 EQ SWAP1 ISZERO OR ISZERO PUSH2 0x885 JUMPI PUSH2 0xD7F PUSH2 0x4291 DUP9 SWAP3 PUSH2 0x4802 SWAP7 PUSH2 0x42FC SWAP6 ISZERO PUSH0 EQ PUSH2 0x42B2 JUMPI SWAP1 PUSH2 0x39C9 JUMP JUMPDEST SWAP1 PUSH2 0x480C DUP3 PUSH2 0x3DDF JUMP JUMPDEST SWAP4 PUSH7 0x38D7EA4C68000 SWAP1 DUP1 DUP3 MUL SWAP2 DUP3 DIV SUB PUSH2 0x885 JUMPI DUP1 PUSH0 DUP1 MLOAD PUSH1 0x20 PUSH2 0x4A18 DUP4 CODECOPY DUP2 MLOAD SWAP2 MSTORE SWAP6 SGT PUSH2 0x483E JUMPI JUMPDEST DUP1 DUP1 PUSH2 0x47AD JUMP JUMPDEST PUSH2 0x4849 SWAP2 SWAP3 POP PUSH2 0x3DDF JUMP JUMPDEST SWAP1 PUSH0 PUSH2 0x4837 JUMP JUMPDEST POP POP PUSH1 0xE SWAP1 SWAP3 MSTORE POP POP PUSH0 KECCAK256 TIMESTAMP SWAP1 SSTORE POP POP JUMP JUMPDEST POP DUP7 ISZERO PUSH2 0x46AF JUMP JUMPDEST POP POP POP POP POP JUMP JUMPDEST TIMESTAMP SWAP1 SSTORE POP POP POP JUMP JUMPDEST PUSH1 0x80 DUP2 ADD MLOAD ISZERO PUSH2 0x48D9 JUMPI PUSH1 0x40 DUP2 ADD DUP1 MLOAD SWAP1 SWAP2 SWAP1 DUP1 DUP5 LT PUSH2 0x48BA JUMPI POP PUSH2 0x3A74 SWAP3 PUSH2 0x48AC PUSH1 0x20 PUSH2 0x48B2 SWAP4 ADD MLOAD SWAP2 DUP5 MLOAD SWAP1 PUSH2 0x39BC JUMP JUMPDEST SWAP1 PUSH2 0x39A9 JUMP JUMPDEST SWAP1 MLOAD SWAP1 PUSH2 0x39C9 JUMP JUMPDEST PUSH2 0x48B2 SWAP1 PUSH2 0x48AC PUSH2 0x3A74 SWAP6 PUSH1 0x20 PUSH2 0x48D4 SWAP7 SWAP6 ADD MLOAD SWAP3 PUSH2 0x39BC JUMP JUMPDEST PUSH2 0x3DDF JUMP JUMPDEST PUSH1 0x40 DUP2 ADD DUP1 MLOAD SWAP1 SWAP2 SWAP1 DUP1 DUP5 GT PUSH2 0x4901 JUMPI POP PUSH2 0x3A74 SWAP3 PUSH2 0x48AC PUSH1 0x20 PUSH2 0x48B2 SWAP4 ADD MLOAD SWAP2 DUP5 MLOAD PUSH2 0x39BC JUMP JUMPDEST PUSH2 0x3A74 SWAP4 PUSH2 0x48AC PUSH2 0x48B2 SWAP3 PUSH1 0x20 PUSH2 0x48D4 SWAP7 SWAP6 ADD MLOAD SWAP3 PUSH2 0x39BC JUMP JUMPDEST SWAP1 SWAP4 ISZERO PUSH2 0x4930 JUMPI PUSH2 0x45E6 SWAP3 SWAP2 PUSH2 0x4651 SWAP2 PUSH2 0x39A9 JUMP JUMPDEST PUSH2 0x493D SWAP3 PUSH2 0x4651 SWAP2 PUSH2 0x39A9 JUMP JUMPDEST PUSH2 0x45E6 JUMP JUMPDEST PUSH1 0x60 DUP2 ADD MLOAD TIMESTAMP DUP2 LT ISZERO PUSH2 0x4328 JUMPI PUSH2 0x495C PUSH2 0x7080 SWAP2 TIMESTAMP PUSH2 0x39BC JUMP JUMPDEST DIV SWAP2 DUP3 ISZERO PUSH2 0x4328 JUMPI PUSH1 0x1 DUP1 PUSH1 0xA0 SHL SUB AND PUSH0 MSTORE PUSH1 0xB PUSH1 0x20 MSTORE PUSH1 0x40 PUSH0 KECCAK256 SLOAD PUSH1 0xC PUSH1 0x20 MSTORE PUSH1 0x40 PUSH0 KECCAK256 SLOAD SWAP3 DUP2 ISZERO DUP1 PUSH2 0x49EF JUMPI JUMPDEST PUSH2 0x3EC7 JUMPI PUSH2 0x49B1 PUSH2 0x49A7 PUSH8 0xDE0B6B3A7640000 SWAP3 PUSH1 0x6 SLOAD PUSH2 0x39A9 JUMP JUMPDEST PUSH1 0x20 DUP6 ADD MLOAD PUSH2 0x39A9 JUMP JUMPDEST DIV SWAP3 DUP1 DUP3 GT ISZERO PUSH2 0x49D2 JUMPI POP POP PUSH1 0x80 ADD MLOAD ISZERO PUSH2 0x49C9 JUMPI SWAP1 JUMP JUMPDEST PUSH2 0x3A74 SWAP1 PUSH2 0x3DDF JUMP JUMPDEST GT PUSH2 0x49DD JUMPI POP POP PUSH0 SWAP1 JUMP JUMPDEST PUSH1 0x80 ADD MLOAD ISZERO PUSH2 0x3A74 JUMPI PUSH2 0x3A74 SWAP1 PUSH2 0x3DDF JUMP JUMPDEST POP DUP4 ISZERO PUSH2 0x498B JUMP INVALID 0xBF ADDRESS RETURNDATACOPY 0xDF SWAP6 CALLDATALOAD 0x2C 0xF6 0xAD SLOAD 0xB7 MOD 0xE8 SWAP6 TIMESTAMP BALANCE SWAP13 0xD1 0xE6 0xCA STATICCALL 0xC 0xD0 LOG4 0x24 0xC 0x27 0xE7 PUSH23 0xB9DEA7769084355BCA6D68D2849F20818A61530E0C6837 0x1F NUMBER LOG4 EXTCODECOPY 0xC 0xA7 0xED 0xC0 0xB3 0xEE 0x27 POP SWAP1 KECCAK256 BLOCKHASH RETURNDATASIZE PUSH20 0xC786AD905C04A7EB4321E541E6D41CEAE2333E7F PUSH21 0xFADE7471558CBF9F87525440F259C04CB82958A99F MCOPY 0x4D 0x1F 0xC2 MULMOD SWAP6 0xD3 BALANCE ORIGIN 0x29 0xF9 0x1E 0xE9 0x4F PUSH14 0x62CF8BE0079C531659141344CD1F 0xD0 LOG4 CALLCODE DUP5 NOT BLOBHASH PUSH32 0x9722A3DAAFE3B4186F6B6457E09B779B17422D0DF92223018B32B4D1FA46E071 PUSH19 0x3D6817E2486D003BECC55F008252BD05C6D67C DUP7 0xEF 0xED BASEFEE EQ 0xE 0xC6 PUSH18 0x88BF0DFD021CD6FD1B830F99EA0F354E19A2 PUSH5 0x6970667358 0x22 SLT KECCAK256 PUSH11 0xCFE4AD3C9E7A3A2B388F4E BYTE RETURNDATASIZE PUSH22 0x7DF0D53FA71F57DC72DF7610D4F36AC00664736F6C63 NUMBER STOP ADDMOD XOR STOP CALLER "},"methodIdentifiers":{"FUNDING_INTERVAL()":"55efb287","INSURANCE_FEE_SPLIT()":"5db3225a","LIQUIDATION_FEE()":"b1827330","MAINTENANCE_MARGIN_RATIO()":"0bf429d7","MAX_FUNDING_RATE()":"f40f2a79","MAX_LEVERAGE()":"9b45ec97","PRICE_STALENESS_THRESHOLD()":"f25b9caa","addMargin(address)":"10d9b8b8","baseFundingRate()":"cc018b7c","bondingCurve()":"eff1d50e","burnEngine()":"57431923","cancelLimitOrder(uint256)":"a5cdc8fc","cancelTpsl(address)":"6970bff8","closePosition(address)":"2f86e2dd","closePositionPartial(address,uint256)":"ecfcc6da","cumulativeFundingRate(address)":"7ebecc13","defaultToken()":"74c13fda","delistTokenForPerp(address)":"37acb119","depositTokens(address,uint256)":"66168bd7","depositUsdcToInsurance(address)":"759f8a1f","dexLister()":"c0b5ce97","executeLimitOrder(uint256)":"c7219460","executeTpsl(address,address,bool)":"428ad47d","getCurrentFundingRate(address)":"e3a892d5","getLimitOrderCount()":"1c7817cc","getLiquidationPrice(address,address)":"1867b480","getListedTokens()":"2ba996a5","getListedTokensCount()":"4c974221","getMarginHealth(address,address)":"d24ddfb7","getMarginRatio(address,address)":"ea0a45f9","getMarkPrice(address)":"5d6f9c14","getNextFundingTime(address)":"6d573090","getOpenInterest(address)":"6a0016d0","getPnl(address,address)":"8fde79a8","getPosition(address,address)":"b33dc190","getUserLimitOrders(address)":"dd5d02e6","isTokenListedForPerp(address)":"cc0f374e","lastFundingTime(address)":"f7c628ee","limitOrders(uint256)":"a3e2b495","liquidate(address,address)":"86b9d81f","liquidatorIncentiveBps()":"4d92c756","listTokenForPerp(address)":"90f0496c","listedTokens(uint256)":"5a9d1ac3","openPosition(address,bool,uint256,uint256)":"dba0ae3a","oracle()":"7dc0d1d0","owner()":"8da5cb5b","paused()":"5c975abb","placeLimitOrder(address,bool,uint256,uint256,uint256,bool)":"5eafc3a6","platformTreasury()":"e138818c","positions(address,address)":"4bd21445","protocolFeeBps()":"35659fb8","removeMargin(address,uint256)":"b959d695","renounceOwnership()":"715018a6","setBaseFundingRate(uint256)":"2e354c7d","setBondingCurve(address)":"43ff1fb8","setBurnEngine(address)":"983dde52","setDefaultToken(address)":"e1e32f99","setDexLister(address)":"8ab68fdf","setLiquidatorIncentiveBps(uint256)":"91dfacee","setOracle(address)":"7adbf973","setPlatformTreasury(address)":"7cd86d60","setProtocolFeeBps(uint256)":"c0417e58","setTpsl(address,uint256,uint256)":"407dc308","setTpslExecutorRewardBps(uint256)":"6268b6e9","tokenAvailable(address)":"97b2544f","tokenInsuranceFund(address)":"aea1d4d9","tokenLongOpenInterest(address)":"ff846006","tokenShortOpenInterest(address)":"31141490","totalInsuranceFund()":"19d07496","tpslExecutorRewardBps()":"6301793d","tpslOrders(uint256)":"e851bc94","transferOwnership(address)":"f2fde38b","userLimitOrders(address,uint256)":"a5bb2be6","userTpslOrders(address,address,uint256)":"b99287ae"}}}}}