{
  "_format": "hh3-artifact-1",
  "contractName": "PerpetualPool",
  "sourceName": "contracts/pool/PerpetualPool.sol",
  "abi": [
    {
      "inputs": [
        {
          "internalType": "address",
          "name": "_oracle",
          "type": "address"
        },
        {
          "internalType": "address",
          "name": "_burnEngine",
          "type": "address"
        },
        {
          "internalType": "address",
          "name": "_platformTreasury",
          "type": "address"
        }
      ],
      "stateMutability": "nonpayable",
      "type": "constructor"
    },
    {
      "inputs": [],
      "name": "EnforcedPause",
      "type": "error"
    },
    {
      "inputs": [],
      "name": "ExpectedPause",
      "type": "error"
    },
    {
      "inputs": [
        {
          "internalType": "address",
          "name": "owner",
          "type": "address"
        }
      ],
      "name": "OwnableInvalidOwner",
      "type": "error"
    },
    {
      "inputs": [
        {
          "internalType": "address",
          "name": "account",
          "type": "address"
        }
      ],
      "name": "OwnableUnauthorizedAccount",
      "type": "error"
    },
    {
      "inputs": [],
      "name": "ReentrancyGuardReentrantCall",
      "type": "error"
    },
    {
      "inputs": [
        {
          "internalType": "address",
          "name": "token",
          "type": "address"
        }
      ],
      "name": "SafeERC20FailedOperation",
      "type": "error"
    },
    {
      "anonymous": false,
      "inputs": [
        {
          "indexed": true,
          "internalType": "address",
          "name": "token",
          "type": "address"
        },
        {
          "indexed": false,
          "internalType": "uint256",
          "name": "amount",
          "type": "uint256"
        }
      ],
      "name": "DepositTokens",
      "type": "event"
    },
    {
      "anonymous": false,
      "inputs": [
        {
          "indexed": true,
          "internalType": "address",
          "name": "token",
          "type": "address"
        },
        {
          "indexed": false,
          "internalType": "int256",
          "name": "rate",
          "type": "int256"
        },
        {
          "indexed": false,
          "internalType": "uint256",
          "name": "timestamp",
          "type": "uint256"
        }
      ],
      "name": "FundingRateUpdated",
      "type": "event"
    },
    {
      "anonymous": false,
      "inputs": [
        {
          "indexed": true,
          "internalType": "address",
          "name": "token",
          "type": "address"
        },
        {
          "indexed": false,
          "internalType": "uint256",
          "name": "amount",
          "type": "uint256"
        }
      ],
      "name": "InsuranceFundAdded",
      "type": "event"
    },
    {
      "anonymous": false,
      "inputs": [
        {
          "indexed": true,
          "internalType": "address",
          "name": "token",
          "type": "address"
        },
        {
          "indexed": false,
          "internalType": "uint256",
          "name": "amount",
          "type": "uint256"
        },
        {
          "indexed": false,
          "internalType": "string",
          "name": "reason",
          "type": "string"
        }
      ],
      "name": "InsuranceFundUsed",
      "type": "event"
    },
    {
      "anonymous": false,
      "inputs": [
        {
          "indexed": true,
          "internalType": "uint256",
          "name": "orderId",
          "type": "uint256"
        },
        {
          "indexed": true,
          "internalType": "address",
          "name": "user",
          "type": "address"
        }
      ],
      "name": "LimitOrderCancelled",
      "type": "event"
    },
    {
      "anonymous": false,
      "inputs": [
        {
          "indexed": true,
          "internalType": "uint256",
          "name": "orderId",
          "type": "uint256"
        },
        {
          "indexed": true,
          "internalType": "address",
          "name": "user",
          "type": "address"
        },
        {
          "indexed": false,
          "internalType": "uint256",
          "name": "entryPrice",
          "type": "uint256"
        }
      ],
      "name": "LimitOrderExecuted",
      "type": "event"
    },
    {
      "anonymous": false,
      "inputs": [
        {
          "indexed": true,
          "internalType": "uint256",
          "name": "orderId",
          "type": "uint256"
        },
        {
          "indexed": true,
          "internalType": "address",
          "name": "user",
          "type": "address"
        },
        {
          "indexed": true,
          "internalType": "address",
          "name": "token",
          "type": "address"
        },
        {
          "indexed": false,
          "internalType": "bool",
          "name": "isLong",
          "type": "bool"
        },
        {
          "indexed": false,
          "internalType": "uint256",
          "name": "margin",
          "type": "uint256"
        },
        {
          "indexed": false,
          "internalType": "uint256",
          "name": "leverage",
          "type": "uint256"
        },
        {
          "indexed": false,
          "internalType": "uint256",
          "name": "triggerPrice",
          "type": "uint256"
        },
        {
          "indexed": false,
          "internalType": "bool",
          "name": "isTriggerAbove",
          "type": "bool"
        }
      ],
      "name": "LimitOrderPlaced",
      "type": "event"
    },
    {
      "anonymous": false,
      "inputs": [
        {
          "indexed": true,
          "internalType": "address",
          "name": "user",
          "type": "address"
        },
        {
          "indexed": true,
          "internalType": "address",
          "name": "token",
          "type": "address"
        },
        {
          "indexed": false,
          "internalType": "uint256",
          "name": "amount",
          "type": "uint256"
        },
        {
          "indexed": false,
          "internalType": "uint256",
          "name": "newMargin",
          "type": "uint256"
        }
      ],
      "name": "MarginAdded",
      "type": "event"
    },
    {
      "anonymous": false,
      "inputs": [
        {
          "indexed": true,
          "internalType": "address",
          "name": "user",
          "type": "address"
        },
        {
          "indexed": true,
          "internalType": "address",
          "name": "token",
          "type": "address"
        },
        {
          "indexed": false,
          "internalType": "uint256",
          "name": "amount",
          "type": "uint256"
        },
        {
          "indexed": false,
          "internalType": "uint256",
          "name": "newMargin",
          "type": "uint256"
        }
      ],
      "name": "MarginRemoved",
      "type": "event"
    },
    {
      "anonymous": false,
      "inputs": [
        {
          "indexed": true,
          "internalType": "address",
          "name": "previousOwner",
          "type": "address"
        },
        {
          "indexed": true,
          "internalType": "address",
          "name": "newOwner",
          "type": "address"
        }
      ],
      "name": "OwnershipTransferred",
      "type": "event"
    },
    {
      "anonymous": false,
      "inputs": [
        {
          "indexed": false,
          "internalType": "address",
          "name": "account",
          "type": "address"
        }
      ],
      "name": "Paused",
      "type": "event"
    },
    {
      "anonymous": false,
      "inputs": [
        {
          "indexed": true,
          "internalType": "address",
          "name": "token",
          "type": "address"
        },
        {
          "indexed": true,
          "internalType": "address",
          "name": "user",
          "type": "address"
        },
        {
          "indexed": false,
          "internalType": "bool",
          "name": "isLong",
          "type": "bool"
        },
        {
          "indexed": false,
          "internalType": "uint256",
          "name": "margin",
          "type": "uint256"
        },
        {
          "indexed": false,
          "internalType": "uint256",
          "name": "size",
          "type": "uint256"
        },
        {
          "indexed": false,
          "internalType": "uint256",
          "name": "exitPrice",
          "type": "uint256"
        },
        {
          "indexed": false,
          "internalType": "int256",
          "name": "pnl",
          "type": "int256"
        },
        {
          "indexed": false,
          "internalType": "uint256",
          "name": "timestamp",
          "type": "uint256"
        }
      ],
      "name": "PositionClosed",
      "type": "event"
    },
    {
      "anonymous": false,
      "inputs": [
        {
          "indexed": true,
          "internalType": "address",
          "name": "token",
          "type": "address"
        },
        {
          "indexed": true,
          "internalType": "address",
          "name": "liquidator",
          "type": "address"
        },
        {
          "indexed": true,
          "internalType": "address",
          "name": "borrower",
          "type": "address"
        },
        {
          "indexed": false,
          "internalType": "bool",
          "name": "isLong",
          "type": "bool"
        },
        {
          "indexed": false,
          "internalType": "uint256",
          "name": "size",
          "type": "uint256"
        },
        {
          "indexed": false,
          "internalType": "uint256",
          "name": "exitPrice",
          "type": "uint256"
        },
        {
          "indexed": false,
          "internalType": "int256",
          "name": "pnl",
          "type": "int256"
        },
        {
          "indexed": false,
          "internalType": "uint256",
          "name": "timestamp",
          "type": "uint256"
        }
      ],
      "name": "PositionLiquidated",
      "type": "event"
    },
    {
      "anonymous": false,
      "inputs": [
        {
          "indexed": true,
          "internalType": "address",
          "name": "token",
          "type": "address"
        },
        {
          "indexed": true,
          "internalType": "address",
          "name": "user",
          "type": "address"
        },
        {
          "indexed": false,
          "internalType": "bool",
          "name": "isLong",
          "type": "bool"
        },
        {
          "indexed": false,
          "internalType": "uint256",
          "name": "margin",
          "type": "uint256"
        },
        {
          "indexed": false,
          "internalType": "uint256",
          "name": "size",
          "type": "uint256"
        },
        {
          "indexed": false,
          "internalType": "uint256",
          "name": "entryPrice",
          "type": "uint256"
        },
        {
          "indexed": false,
          "internalType": "uint256",
          "name": "timestamp",
          "type": "uint256"
        }
      ],
      "name": "PositionOpened",
      "type": "event"
    },
    {
      "anonymous": false,
      "inputs": [
        {
          "indexed": true,
          "internalType": "address",
          "name": "token",
          "type": "address"
        },
        {
          "indexed": true,
          "internalType": "address",
          "name": "user",
          "type": "address"
        },
        {
          "indexed": false,
          "internalType": "bool",
          "name": "isLong",
          "type": "bool"
        },
        {
          "indexed": false,
          "internalType": "uint256",
          "name": "closeSize",
          "type": "uint256"
        },
        {
          "indexed": false,
          "internalType": "uint256",
          "name": "remainingSize",
          "type": "uint256"
        },
        {
          "indexed": false,
          "internalType": "uint256",
          "name": "exitPrice",
          "type": "uint256"
        },
        {
          "indexed": false,
          "internalType": "int256",
          "name": "closePnl",
          "type": "int256"
        },
        {
          "indexed": false,
          "internalType": "uint256",
          "name": "timestamp",
          "type": "uint256"
        }
      ],
      "name": "PositionPartiallyClosed",
      "type": "event"
    },
    {
      "anonymous": false,
      "inputs": [
        {
          "indexed": true,
          "internalType": "address",
          "name": "token",
          "type": "address"
        }
      ],
      "name": "TokenDelistedForPerp",
      "type": "event"
    },
    {
      "anonymous": false,
      "inputs": [
        {
          "indexed": true,
          "internalType": "address",
          "name": "token",
          "type": "address"
        }
      ],
      "name": "TokenListedForPerp",
      "type": "event"
    },
    {
      "anonymous": false,
      "inputs": [
        {
          "indexed": true,
          "internalType": "address",
          "name": "user",
          "type": "address"
        },
        {
          "indexed": true,
          "internalType": "address",
          "name": "token",
          "type": "address"
        }
      ],
      "name": "TpslCancelled",
      "type": "event"
    },
    {
      "anonymous": false,
      "inputs": [
        {
          "indexed": true,
          "internalType": "address",
          "name": "user",
          "type": "address"
        },
        {
          "indexed": true,
          "internalType": "address",
          "name": "token",
          "type": "address"
        },
        {
          "indexed": false,
          "internalType": "uint256",
          "name": "tpPrice",
          "type": "uint256"
        },
        {
          "indexed": false,
          "internalType": "uint256",
          "name": "slPrice",
          "type": "uint256"
        }
      ],
      "name": "TpslSet",
      "type": "event"
    },
    {
      "anonymous": false,
      "inputs": [
        {
          "indexed": true,
          "internalType": "address",
          "name": "user",
          "type": "address"
        },
        {
          "indexed": true,
          "internalType": "address",
          "name": "token",
          "type": "address"
        },
        {
          "indexed": false,
          "internalType": "bool",
          "name": "isTp",
          "type": "bool"
        },
        {
          "indexed": false,
          "internalType": "uint256",
          "name": "triggerPrice",
          "type": "uint256"
        },
        {
          "indexed": false,
          "internalType": "uint256",
          "name": "closePrice",
          "type": "uint256"
        },
        {
          "indexed": false,
          "internalType": "uint256",
          "name": "executorReward",
          "type": "uint256"
        }
      ],
      "name": "TpslTriggered",
      "type": "event"
    },
    {
      "anonymous": false,
      "inputs": [
        {
          "indexed": false,
          "internalType": "address",
          "name": "account",
          "type": "address"
        }
      ],
      "name": "Unpaused",
      "type": "event"
    },
    {
      "inputs": [],
      "name": "FUNDING_INTERVAL",
      "outputs": [
        {
          "internalType": "uint256",
          "name": "",
          "type": "uint256"
        }
      ],
      "stateMutability": "view",
      "type": "function"
    },
    {
      "inputs": [],
      "name": "INSURANCE_FEE_SPLIT",
      "outputs": [
        {
          "internalType": "uint256",
          "name": "",
          "type": "uint256"
        }
      ],
      "stateMutability": "view",
      "type": "function"
    },
    {
      "inputs": [],
      "name": "LIQUIDATION_FEE",
      "outputs": [
        {
          "internalType": "uint256",
          "name": "",
          "type": "uint256"
        }
      ],
      "stateMutability": "view",
      "type": "function"
    },
    {
      "inputs": [],
      "name": "MAINTENANCE_MARGIN_RATIO",
      "outputs": [
        {
          "internalType": "uint256",
          "name": "",
          "type": "uint256"
        }
      ],
      "stateMutability": "view",
      "type": "function"
    },
    {
      "inputs": [],
      "name": "MAX_FUNDING_RATE",
      "outputs": [
        {
          "internalType": "uint256",
          "name": "",
          "type": "uint256"
        }
      ],
      "stateMutability": "view",
      "type": "function"
    },
    {
      "inputs": [],
      "name": "MAX_LEVERAGE",
      "outputs": [
        {
          "internalType": "uint256",
          "name": "",
          "type": "uint256"
        }
      ],
      "stateMutability": "view",
      "type": "function"
    },
    {
      "inputs": [],
      "name": "PRICE_STALENESS_THRESHOLD",
      "outputs": [
        {
          "internalType": "uint256",
          "name": "",
          "type": "uint256"
        }
      ],
      "stateMutability": "view",
      "type": "function"
    },
    {
      "inputs": [
        {
          "internalType": "address",
          "name": "token",
          "type": "address"
        }
      ],
      "name": "addMargin",
      "outputs": [],
      "stateMutability": "payable",
      "type": "function"
    },
    {
      "inputs": [],
      "name": "baseFundingRate",
      "outputs": [
        {
          "internalType": "uint256",
          "name": "",
          "type": "uint256"
        }
      ],
      "stateMutability": "view",
      "type": "function"
    },
    {
      "inputs": [],
      "name": "bondingCurve",
      "outputs": [
        {
          "internalType": "address",
          "name": "",
          "type": "address"
        }
      ],
      "stateMutability": "view",
      "type": "function"
    },
    {
      "inputs": [],
      "name": "burnEngine",
      "outputs": [
        {
          "internalType": "address",
          "name": "",
          "type": "address"
        }
      ],
      "stateMutability": "view",
      "type": "function"
    },
    {
      "inputs": [
        {
          "internalType": "uint256",
          "name": "orderId",
          "type": "uint256"
        }
      ],
      "name": "cancelLimitOrder",
      "outputs": [],
      "stateMutability": "nonpayable",
      "type": "function"
    },
    {
      "inputs": [
        {
          "internalType": "address",
          "name": "token",
          "type": "address"
        }
      ],
      "name": "cancelTpsl",
      "outputs": [],
      "stateMutability": "nonpayable",
      "type": "function"
    },
    {
      "inputs": [
        {
          "internalType": "address",
          "name": "token",
          "type": "address"
        }
      ],
      "name": "closePosition",
      "outputs": [],
      "stateMutability": "nonpayable",
      "type": "function"
    },
    {
      "inputs": [
        {
          "internalType": "address",
          "name": "token",
          "type": "address"
        },
        {
          "internalType": "uint256",
          "name": "closeSize",
          "type": "uint256"
        }
      ],
      "name": "closePositionPartial",
      "outputs": [],
      "stateMutability": "nonpayable",
      "type": "function"
    },
    {
      "inputs": [
        {
          "internalType": "address",
          "name": "",
          "type": "address"
        }
      ],
      "name": "cumulativeFundingRate",
      "outputs": [
        {
          "internalType": "uint256",
          "name": "",
          "type": "uint256"
        }
      ],
      "stateMutability": "view",
      "type": "function"
    },
    {
      "inputs": [],
      "name": "defaultToken",
      "outputs": [
        {
          "internalType": "address",
          "name": "",
          "type": "address"
        }
      ],
      "stateMutability": "view",
      "type": "function"
    },
    {
      "inputs": [
        {
          "internalType": "address",
          "name": "token",
          "type": "address"
        }
      ],
      "name": "delistTokenForPerp",
      "outputs": [],
      "stateMutability": "nonpayable",
      "type": "function"
    },
    {
      "inputs": [
        {
          "internalType": "address",
          "name": "token",
          "type": "address"
        },
        {
          "internalType": "uint256",
          "name": "amount",
          "type": "uint256"
        }
      ],
      "name": "depositTokens",
      "outputs": [],
      "stateMutability": "nonpayable",
      "type": "function"
    },
    {
      "inputs": [
        {
          "internalType": "address",
          "name": "token",
          "type": "address"
        }
      ],
      "name": "depositUsdcToInsurance",
      "outputs": [],
      "stateMutability": "payable",
      "type": "function"
    },
    {
      "inputs": [],
      "name": "dexLister",
      "outputs": [
        {
          "internalType": "address",
          "name": "",
          "type": "address"
        }
      ],
      "stateMutability": "view",
      "type": "function"
    },
    {
      "inputs": [
        {
          "internalType": "uint256",
          "name": "orderId",
          "type": "uint256"
        }
      ],
      "name": "executeLimitOrder",
      "outputs": [],
      "stateMutability": "nonpayable",
      "type": "function"
    },
    {
      "inputs": [
        {
          "internalType": "address",
          "name": "user",
          "type": "address"
        },
        {
          "internalType": "address",
          "name": "token",
          "type": "address"
        },
        {
          "internalType": "bool",
          "name": "isTp",
          "type": "bool"
        }
      ],
      "name": "executeTpsl",
      "outputs": [],
      "stateMutability": "nonpayable",
      "type": "function"
    },
    {
      "inputs": [
        {
          "internalType": "address",
          "name": "token",
          "type": "address"
        }
      ],
      "name": "getCurrentFundingRate",
      "outputs": [
        {
          "internalType": "int256",
          "name": "",
          "type": "int256"
        }
      ],
      "stateMutability": "view",
      "type": "function"
    },
    {
      "inputs": [],
      "name": "getLimitOrderCount",
      "outputs": [
        {
          "internalType": "uint256",
          "name": "",
          "type": "uint256"
        }
      ],
      "stateMutability": "view",
      "type": "function"
    },
    {
      "inputs": [
        {
          "internalType": "address",
          "name": "user",
          "type": "address"
        },
        {
          "internalType": "address",
          "name": "token",
          "type": "address"
        }
      ],
      "name": "getLiquidationPrice",
      "outputs": [
        {
          "internalType": "uint256",
          "name": "",
          "type": "uint256"
        }
      ],
      "stateMutability": "view",
      "type": "function"
    },
    {
      "inputs": [],
      "name": "getListedTokens",
      "outputs": [
        {
          "internalType": "address[]",
          "name": "",
          "type": "address[]"
        }
      ],
      "stateMutability": "view",
      "type": "function"
    },
    {
      "inputs": [],
      "name": "getListedTokensCount",
      "outputs": [
        {
          "internalType": "uint256",
          "name": "",
          "type": "uint256"
        }
      ],
      "stateMutability": "view",
      "type": "function"
    },
    {
      "inputs": [
        {
          "internalType": "address",
          "name": "user",
          "type": "address"
        },
        {
          "internalType": "address",
          "name": "token",
          "type": "address"
        }
      ],
      "name": "getMarginHealth",
      "outputs": [
        {
          "internalType": "uint256",
          "name": "",
          "type": "uint256"
        }
      ],
      "stateMutability": "view",
      "type": "function"
    },
    {
      "inputs": [
        {
          "internalType": "address",
          "name": "user",
          "type": "address"
        },
        {
          "internalType": "address",
          "name": "token",
          "type": "address"
        }
      ],
      "name": "getMarginRatio",
      "outputs": [
        {
          "internalType": "uint256",
          "name": "",
          "type": "uint256"
        }
      ],
      "stateMutability": "view",
      "type": "function"
    },
    {
      "inputs": [
        {
          "internalType": "address",
          "name": "token",
          "type": "address"
        }
      ],
      "name": "getMarkPrice",
      "outputs": [
        {
          "internalType": "uint256",
          "name": "",
          "type": "uint256"
        }
      ],
      "stateMutability": "view",
      "type": "function"
    },
    {
      "inputs": [
        {
          "internalType": "address",
          "name": "token",
          "type": "address"
        }
      ],
      "name": "getNextFundingTime",
      "outputs": [
        {
          "internalType": "uint256",
          "name": "",
          "type": "uint256"
        }
      ],
      "stateMutability": "view",
      "type": "function"
    },
    {
      "inputs": [
        {
          "internalType": "address",
          "name": "token",
          "type": "address"
        }
      ],
      "name": "getOpenInterest",
      "outputs": [
        {
          "internalType": "uint256",
          "name": "longOI",
          "type": "uint256"
        },
        {
          "internalType": "uint256",
          "name": "shortOI",
          "type": "uint256"
        }
      ],
      "stateMutability": "view",
      "type": "function"
    },
    {
      "inputs": [
        {
          "internalType": "address",
          "name": "user",
          "type": "address"
        },
        {
          "internalType": "address",
          "name": "token",
          "type": "address"
        }
      ],
      "name": "getPnl",
      "outputs": [
        {
          "internalType": "int256",
          "name": "",
          "type": "int256"
        }
      ],
      "stateMutability": "view",
      "type": "function"
    },
    {
      "inputs": [
        {
          "internalType": "address",
          "name": "user",
          "type": "address"
        },
        {
          "internalType": "address",
          "name": "token",
          "type": "address"
        }
      ],
      "name": "getPosition",
      "outputs": [
        {
          "internalType": "uint256",
          "name": "margin",
          "type": "uint256"
        },
        {
          "internalType": "uint256",
          "name": "size",
          "type": "uint256"
        },
        {
          "internalType": "uint256",
          "name": "entryPrice",
          "type": "uint256"
        },
        {
          "internalType": "uint256",
          "name": "lastFundingTime_",
          "type": "uint256"
        },
        {
          "internalType": "bool",
          "name": "isLong",
          "type": "bool"
        },
        {
          "internalType": "bool",
          "name": "isActive",
          "type": "bool"
        },
        {
          "internalType": "uint256",
          "name": "tpPrice",
          "type": "uint256"
        },
        {
          "internalType": "uint256",
          "name": "slPrice",
          "type": "uint256"
        },
        {
          "internalType": "bool",
          "name": "hasTpsl",
          "type": "bool"
        }
      ],
      "stateMutability": "view",
      "type": "function"
    },
    {
      "inputs": [
        {
          "internalType": "address",
          "name": "user",
          "type": "address"
        }
      ],
      "name": "getUserLimitOrders",
      "outputs": [
        {
          "internalType": "uint256[]",
          "name": "orderIds",
          "type": "uint256[]"
        },
        {
          "internalType": "address[]",
          "name": "tokens",
          "type": "address[]"
        },
        {
          "internalType": "bool[]",
          "name": "isLongs",
          "type": "bool[]"
        },
        {
          "internalType": "uint256[]",
          "name": "margins",
          "type": "uint256[]"
        },
        {
          "internalType": "uint256[]",
          "name": "leverages",
          "type": "uint256[]"
        },
        {
          "internalType": "uint256[]",
          "name": "triggerPrices",
          "type": "uint256[]"
        },
        {
          "internalType": "bool[]",
          "name": "isTriggerAboves",
          "type": "bool[]"
        },
        {
          "internalType": "bool[]",
          "name": "actives",
          "type": "bool[]"
        }
      ],
      "stateMutability": "view",
      "type": "function"
    },
    {
      "inputs": [
        {
          "internalType": "address",
          "name": "",
          "type": "address"
        }
      ],
      "name": "isTokenListedForPerp",
      "outputs": [
        {
          "internalType": "bool",
          "name": "",
          "type": "bool"
        }
      ],
      "stateMutability": "view",
      "type": "function"
    },
    {
      "inputs": [
        {
          "internalType": "address",
          "name": "",
          "type": "address"
        }
      ],
      "name": "lastFundingTime",
      "outputs": [
        {
          "internalType": "uint256",
          "name": "",
          "type": "uint256"
        }
      ],
      "stateMutability": "view",
      "type": "function"
    },
    {
      "inputs": [
        {
          "internalType": "uint256",
          "name": "",
          "type": "uint256"
        }
      ],
      "name": "limitOrders",
      "outputs": [
        {
          "internalType": "address",
          "name": "user",
          "type": "address"
        },
        {
          "internalType": "address",
          "name": "token",
          "type": "address"
        },
        {
          "internalType": "bool",
          "name": "isLong",
          "type": "bool"
        },
        {
          "internalType": "uint256",
          "name": "margin",
          "type": "uint256"
        },
        {
          "internalType": "uint256",
          "name": "leverage",
          "type": "uint256"
        },
        {
          "internalType": "uint256",
          "name": "triggerPrice",
          "type": "uint256"
        },
        {
          "internalType": "bool",
          "name": "isTriggerAbove",
          "type": "bool"
        },
        {
          "internalType": "bool",
          "name": "isActive",
          "type": "bool"
        }
      ],
      "stateMutability": "view",
      "type": "function"
    },
    {
      "inputs": [
        {
          "internalType": "address",
          "name": "borrower",
          "type": "address"
        },
        {
          "internalType": "address",
          "name": "token",
          "type": "address"
        }
      ],
      "name": "liquidate",
      "outputs": [],
      "stateMutability": "nonpayable",
      "type": "function"
    },
    {
      "inputs": [],
      "name": "liquidatorIncentiveBps",
      "outputs": [
        {
          "internalType": "uint256",
          "name": "",
          "type": "uint256"
        }
      ],
      "stateMutability": "view",
      "type": "function"
    },
    {
      "inputs": [
        {
          "internalType": "address",
          "name": "token",
          "type": "address"
        }
      ],
      "name": "listTokenForPerp",
      "outputs": [],
      "stateMutability": "nonpayable",
      "type": "function"
    },
    {
      "inputs": [
        {
          "internalType": "uint256",
          "name": "",
          "type": "uint256"
        }
      ],
      "name": "listedTokens",
      "outputs": [
        {
          "internalType": "address",
          "name": "",
          "type": "address"
        }
      ],
      "stateMutability": "view",
      "type": "function"
    },
    {
      "inputs": [
        {
          "internalType": "address",
          "name": "token",
          "type": "address"
        },
        {
          "internalType": "bool",
          "name": "isLong",
          "type": "bool"
        },
        {
          "internalType": "uint256",
          "name": "marginUsdc",
          "type": "uint256"
        },
        {
          "internalType": "uint256",
          "name": "leverage",
          "type": "uint256"
        }
      ],
      "name": "openPosition",
      "outputs": [],
      "stateMutability": "payable",
      "type": "function"
    },
    {
      "inputs": [],
      "name": "oracle",
      "outputs": [
        {
          "internalType": "contract IPerpOracle",
          "name": "",
          "type": "address"
        }
      ],
      "stateMutability": "view",
      "type": "function"
    },
    {
      "inputs": [],
      "name": "owner",
      "outputs": [
        {
          "internalType": "address",
          "name": "",
          "type": "address"
        }
      ],
      "stateMutability": "view",
      "type": "function"
    },
    {
      "inputs": [],
      "name": "paused",
      "outputs": [
        {
          "internalType": "bool",
          "name": "",
          "type": "bool"
        }
      ],
      "stateMutability": "view",
      "type": "function"
    },
    {
      "inputs": [
        {
          "internalType": "address",
          "name": "token",
          "type": "address"
        },
        {
          "internalType": "bool",
          "name": "isLong",
          "type": "bool"
        },
        {
          "internalType": "uint256",
          "name": "marginUsdc",
          "type": "uint256"
        },
        {
          "internalType": "uint256",
          "name": "leverage",
          "type": "uint256"
        },
        {
          "internalType": "uint256",
          "name": "triggerPrice",
          "type": "uint256"
        },
        {
          "internalType": "bool",
          "name": "isTriggerAbove",
          "type": "bool"
        }
      ],
      "name": "placeLimitOrder",
      "outputs": [],
      "stateMutability": "payable",
      "type": "function"
    },
    {
      "inputs": [],
      "name": "platformTreasury",
      "outputs": [
        {
          "internalType": "address",
          "name": "",
          "type": "address"
        }
      ],
      "stateMutability": "view",
      "type": "function"
    },
    {
      "inputs": [
        {
          "internalType": "address",
          "name": "",
          "type": "address"
        },
        {
          "internalType": "address",
          "name": "",
          "type": "address"
        }
      ],
      "name": "positions",
      "outputs": [
        {
          "internalType": "uint256",
          "name": "margin",
          "type": "uint256"
        },
        {
          "internalType": "uint256",
          "name": "size",
          "type": "uint256"
        },
        {
          "internalType": "uint256",
          "name": "entryPrice",
          "type": "uint256"
        },
        {
          "internalType": "uint256",
          "name": "lastFundingTime",
          "type": "uint256"
        },
        {
          "internalType": "bool",
          "name": "isLong",
          "type": "bool"
        },
        {
          "internalType": "bool",
          "name": "isActive",
          "type": "bool"
        },
        {
          "internalType": "uint256",
          "name": "tpPrice",
          "type": "uint256"
        },
        {
          "internalType": "uint256",
          "name": "slPrice",
          "type": "uint256"
        },
        {
          "internalType": "bool",
          "name": "hasTpsl",
          "type": "bool"
        },
        {
          "internalType": "int256",
          "name": "fundingDebt",
          "type": "int256"
        }
      ],
      "stateMutability": "view",
      "type": "function"
    },
    {
      "inputs": [],
      "name": "protocolFeeBps",
      "outputs": [
        {
          "internalType": "uint256",
          "name": "",
          "type": "uint256"
        }
      ],
      "stateMutability": "view",
      "type": "function"
    },
    {
      "inputs": [
        {
          "internalType": "address",
          "name": "token",
          "type": "address"
        },
        {
          "internalType": "uint256",
          "name": "amount",
          "type": "uint256"
        }
      ],
      "name": "removeMargin",
      "outputs": [],
      "stateMutability": "nonpayable",
      "type": "function"
    },
    {
      "inputs": [],
      "name": "renounceOwnership",
      "outputs": [],
      "stateMutability": "nonpayable",
      "type": "function"
    },
    {
      "inputs": [
        {
          "internalType": "uint256",
          "name": "_rate",
          "type": "uint256"
        }
      ],
      "name": "setBaseFundingRate",
      "outputs": [],
      "stateMutability": "nonpayable",
      "type": "function"
    },
    {
      "inputs": [
        {
          "internalType": "address",
          "name": "_bondingCurve",
          "type": "address"
        }
      ],
      "name": "setBondingCurve",
      "outputs": [],
      "stateMutability": "nonpayable",
      "type": "function"
    },
    {
      "inputs": [
        {
          "internalType": "address",
          "name": "_burnEngine",
          "type": "address"
        }
      ],
      "name": "setBurnEngine",
      "outputs": [],
      "stateMutability": "nonpayable",
      "type": "function"
    },
    {
      "inputs": [
        {
          "internalType": "address",
          "name": "token",
          "type": "address"
        }
      ],
      "name": "setDefaultToken",
      "outputs": [],
      "stateMutability": "nonpayable",
      "type": "function"
    },
    {
      "inputs": [
        {
          "internalType": "address",
          "name": "_dexLister",
          "type": "address"
        }
      ],
      "name": "setDexLister",
      "outputs": [],
      "stateMutability": "nonpayable",
      "type": "function"
    },
    {
      "inputs": [
        {
          "internalType": "uint256",
          "name": "_bps",
          "type": "uint256"
        }
      ],
      "name": "setLiquidatorIncentiveBps",
      "outputs": [],
      "stateMutability": "nonpayable",
      "type": "function"
    },
    {
      "inputs": [
        {
          "internalType": "address",
          "name": "_oracle",
          "type": "address"
        }
      ],
      "name": "setOracle",
      "outputs": [],
      "stateMutability": "nonpayable",
      "type": "function"
    },
    {
      "inputs": [
        {
          "internalType": "address",
          "name": "_treasury",
          "type": "address"
        }
      ],
      "name": "setPlatformTreasury",
      "outputs": [],
      "stateMutability": "nonpayable",
      "type": "function"
    },
    {
      "inputs": [
        {
          "internalType": "uint256",
          "name": "_bps",
          "type": "uint256"
        }
      ],
      "name": "setProtocolFeeBps",
      "outputs": [],
      "stateMutability": "nonpayable",
      "type": "function"
    },
    {
      "inputs": [
        {
          "internalType": "address",
          "name": "token",
          "type": "address"
        },
        {
          "internalType": "uint256",
          "name": "tpPrice",
          "type": "uint256"
        },
        {
          "internalType": "uint256",
          "name": "slPrice",
          "type": "uint256"
        }
      ],
      "name": "setTpsl",
      "outputs": [],
      "stateMutability": "nonpayable",
      "type": "function"
    },
    {
      "inputs": [
        {
          "internalType": "uint256",
          "name": "_bps",
          "type": "uint256"
        }
      ],
      "name": "setTpslExecutorRewardBps",
      "outputs": [],
      "stateMutability": "nonpayable",
      "type": "function"
    },
    {
      "inputs": [
        {
          "internalType": "address",
          "name": "",
          "type": "address"
        }
      ],
      "name": "tokenAvailable",
      "outputs": [
        {
          "internalType": "uint256",
          "name": "",
          "type": "uint256"
        }
      ],
      "stateMutability": "view",
      "type": "function"
    },
    {
      "inputs": [
        {
          "internalType": "address",
          "name": "",
          "type": "address"
        }
      ],
      "name": "tokenInsuranceFund",
      "outputs": [
        {
          "internalType": "uint256",
          "name": "",
          "type": "uint256"
        }
      ],
      "stateMutability": "view",
      "type": "function"
    },
    {
      "inputs": [
        {
          "internalType": "address",
          "name": "",
          "type": "address"
        }
      ],
      "name": "tokenLongOpenInterest",
      "outputs": [
        {
          "internalType": "uint256",
          "name": "",
          "type": "uint256"
        }
      ],
      "stateMutability": "view",
      "type": "function"
    },
    {
      "inputs": [
        {
          "internalType": "address",
          "name": "",
          "type": "address"
        }
      ],
      "name": "tokenShortOpenInterest",
      "outputs": [
        {
          "internalType": "uint256",
          "name": "",
          "type": "uint256"
        }
      ],
      "stateMutability": "view",
      "type": "function"
    },
    {
      "inputs": [],
      "name": "totalInsuranceFund",
      "outputs": [
        {
          "internalType": "uint256",
          "name": "",
          "type": "uint256"
        }
      ],
      "stateMutability": "view",
      "type": "function"
    },
    {
      "inputs": [],
      "name": "tpslExecutorRewardBps",
      "outputs": [
        {
          "internalType": "uint256",
          "name": "",
          "type": "uint256"
        }
      ],
      "stateMutability": "view",
      "type": "function"
    },
    {
      "inputs": [
        {
          "internalType": "uint256",
          "name": "",
          "type": "uint256"
        }
      ],
      "name": "tpslOrders",
      "outputs": [
        {
          "internalType": "address",
          "name": "user",
          "type": "address"
        },
        {
          "internalType": "address",
          "name": "token",
          "type": "address"
        },
        {
          "internalType": "uint256",
          "name": "triggerPrice",
          "type": "uint256"
        },
        {
          "internalType": "bool",
          "name": "isTp",
          "type": "bool"
        },
        {
          "internalType": "bool",
          "name": "isActive",
          "type": "bool"
        }
      ],
      "stateMutability": "view",
      "type": "function"
    },
    {
      "inputs": [
        {
          "internalType": "address",
          "name": "newOwner",
          "type": "address"
        }
      ],
      "name": "transferOwnership",
      "outputs": [],
      "stateMutability": "nonpayable",
      "type": "function"
    },
    {
      "inputs": [
        {
          "internalType": "address",
          "name": "",
          "type": "address"
        },
        {
          "internalType": "uint256",
          "name": "",
          "type": "uint256"
        }
      ],
      "name": "userLimitOrders",
      "outputs": [
        {
          "internalType": "uint256",
          "name": "",
          "type": "uint256"
        }
      ],
      "stateMutability": "view",
      "type": "function"
    },
    {
      "inputs": [
        {
          "internalType": "address",
          "name": "",
          "type": "address"
        },
        {
          "internalType": "address",
          "name": "",
          "type": "address"
        },
        {
          "internalType": "uint256",
          "name": "",
          "type": "uint256"
        }
      ],
      "name": "userTpslOrders",
      "outputs": [
        {
          "internalType": "uint256",
          "name": "",
          "type": "uint256"
        }
      ],
      "stateMutability": "view",
      "type": "function"
    },
    {
      "stateMutability": "payable",
      "type": "receive"
    }
  ],
  "bytecode": "0x6080346200015f57601f62004d8238819003918201601f19168301916001600160401b0383118484101762000163578084926060946040528339810103126200015f576200004d8162000177565b620000696040620000616020850162000177565b930162000177565b9160017f9b779b17422d0df92223018b32b4d1fa46e071723d6817e2486d003becc55f0055331562000147575f8054610100600160a81b0319811633600881811b610100600160a81b0316929092178455604051966001600160a01b03959094869491939190911c8416907f8be0079c531659141344cd1fd0a4f28419497f9722a3daafe3b4186f6b6457e09080a3655af3107a4000600655600a6007556101f460085560646009558160018060a01b031995168560015416176001551683600254161760025516906005541617600555614bf590816200018d8239f35b604051631e4fbdf760e01b81525f6004820152602490fd5b5f80fd5b634e487b7160e01b5f52604160045260245ffd5b51906001600160a01b03821682036200015f5756fe608080604052600436101561001c575b50361561001a575f80fd5b005b5f3560e01c9081630bf429d7146138255750806310d9b8b8146137705780631867b4801461374457806319d07496146137275780631c7817cc1461370a5780632ba996a5146136765780632e354c7d146136425780632f86e2dd146134d1578063311414901461349957806335659fb81461347c57806337acb11914613313578063407dc30814613109578063428ad47d14612a7c57806343ff1fb814612a395780634bd214451461297d5780634c974221146129605780634d92c7561461294357806355efb2871461292757806357431923146128ff5780635a9d1ac3146128bd5780635c975abb1461289c5780635d6f9c14146128115780635db3225a146127f55780635eafc3a6146125165780636268b6e9146124e75780636301793d146124ca57806366168bd71461237e5780636970bff8146122f45780636a0016d0146122b05780636d5730901461228d578063715018a61461224557806374c13fda1461221d578063759f8a1f146121b65780637adbf973146121735780637cd86d60146121305780637dc0d1d0146121085780637ebecc13146120d057806386b9d81f14611b475780638ab68fdf14611b045780638da5cb5b14611ad95780638fde79a814611aad57806390f0496c1461194557806391dfacee1461191657806397b2544f146118de578063983dde521461189b5780639b45ec9714611879578063a3e2b495146117e6578063a5bb2be61461179d578063a5cdc8fc1461165f578063aea1d4d914611627578063b182733014611606578063b33dc19014611553578063b959d6951461135a578063b99287ae146112f2578063c0417e58146112c4578063c0b5ce971461129c578063c721946014610f8a578063cc018b7c14610f6d578063cc0f374e14610f30578063d24ddfb714610f04578063dba0ae3a14610c8a578063dd5d02e614610a93578063e138818c14610a6b578063e1e32f9914610a11578063e3a892d5146109ee578063e851bc9414610979578063ea0a45f914610945578063ecfcc6da146104b6578063eff1d50e1461048e578063f25b9caa14610472578063f2fde38b146103eb578063f40f2a79146103ca578063f7c628ee146103925763ff84600614610356575f61000f565b3461038e57602036600319011261038e576001600160a01b03610377613844565b165f52600b602052602060405f2054604051908152f35b5f80fd5b3461038e57602036600319011261038e576001600160a01b036103b3613844565b165f52600e602052602060405f2054604051908152f35b3461038e575f36600319011261038e57602060405166038d7ea4c680008152f35b3461038e57602036600319011261038e57610404613844565b61040c614539565b6001600160a01b0381811691821561045a575f8054610100600160a81b03198116600893841b610100600160a81b031617825590911c91909116905f80516020614b608339815191529080a3005b604051631e4fbdf760e01b81525f6004820152602490fd5b3461038e575f36600319011261038e57602060405161012c8152f35b3461038e575f36600319011261038e576003546040516001600160a01b039091168152602090f35b3461038e57604036600319011261038e576104cf613844565b602480356104db6144ed565b6104e361451c565b335f52602091600a835260405f209360018060a01b039283821695865f52855260405f209361051b60ff600487015460081c16613980565b81159485159081610936575b50156108fd57335f52600a865260405f20875f5286528360405f209287600485019361055960ff865460081c16613980565b61056287614744565b60015416604051978880926341976e0960e01b82528d60048301525afa9586156108f2575f966108c3575b50610599861515613c59565b6105a285614591565b670de0b6b3a764000080820297828904821417156108b0576105ca6001860198895490613ad3565b926105dd886105d888613a24565b614961565b84810291905f8112600160ff1b87141661089c5780830586149015171561088957508161061491059661060f87613a24565b614a2a565b5f811315610824578554610657919080821161081c575b8161063591613ac6565b87558b5f52600f8b5260405f2061064d8282546139f4565b90556011546139f4565b6011555b61066d60038601934285558654613ab3565b04915f86126107f45761068086846139f4565b925b845460ff16156107d7578a5f52600b8a5260405f206106a2848254613ac6565b90555b885483810361074b575050505087949260ff5f80516020614ba08339815191529593836106f194151580610741575b610722575b50541690549654926040519485943399429487614567565b0390a3335f52600a815260405f20915f525261070f60405f20613ef9565b60015f80516020614b8083398151915255005b5f80808061073b94335af1610735613d0a565b50614054565b8b6106d9565b50478111156106d4565b839b9a506107ac9660ff95936107815f946107785f80516020614b408339815191529e9a98600896613ac6565b8a558354613ac6565b82554290550155801515806107cd575b6107b4575b5054169054926040519485943399429487614567565b0390a361070f565b5f8080806107c794335af1610735613d0a565b89610796565b5047811115610791565b8a5f52600c8a5260405f206107ed848254613ac6565b90556106a5565b6107fd86613ee9565b83811061080d57505f5b92610682565b6108179084613ac6565b610807565b90508061062b565b5f8112610832575b5061065b565b61083b90613ee9565b6108468187546139f4565b86558a5f52600f8a5260405f209081549181831015610867575b505061082c565b6108748261087e94613ac6565b9055601154613ac6565b6011558a8080610860565b634e487b7160e01b5f9081526011600452fd5b50634e487b7160e01b5f9081526011600452fd5b82634e487b7160e01b5f5260116004525ffd5b9095508781813d83116108eb575b6108db8183613a01565b8101031261038e5751948961058d565b503d6108d1565b6040513d5f823e3d90fd5b60405162461bcd60e51b81526004810187905260128186015271696e76616c696420636c6f73652073697a6560701b6044820152606490fd5b60019150015482111588610527565b3461038e57604036600319011261038e576020610971610963613844565b61096b61385a565b90614441565b604051908152f35b3461038e57602036600319011261038e5760043560175481101561038e5760a09060175f5260205f209060021b0160ff600180841b03918281541692600182015416906003600282015491015491604051948552602085015260408401528181161515606084015260081c1615156080820152f35b3461038e57602036600319011261038e576020610971610a0c613844565b614339565b3461038e57602036600319011261038e57610a2a613844565b610a32614539565b6001600160a01b03165f81815260136020526040902054610a559060ff16613c0f565b601480546001600160a01b031916919091179055005b3461038e575f36600319011261038e576005546040516001600160a01b039091168152602090f35b3461038e57602036600319011261038e576001600160a01b03610ab4613844565b165f52601660205260405f20805490610acc826142f3565b90610ad6836142dc565b92610ae46040519485613a01565b808452601f19610af3826142dc565b01366020860137610b03816142f3565b610b0c826142f3565b610b15836142f3565b90610b1f846142f3565b92610b29856142f3565b94610b33816142f3565b965f5b828110610bd257505050604051978897610100808a528901610b5791613918565b88810360208a0152610b6891613870565b8781036040890152610b799161394b565b8681036060880152610b8a91613918565b8581036080870152610b9b91613918565b84810360a0860152610bac91613918565b83810360c0850152610bbd9161394b565b82810360e0840152610bce9161394b565b0390f35b808b60058c610be3600195876138e7565b9054600391821b1c610bff86610bf8836138fc565b5094614325565b528582015493610c1786888060a01b03871692614325565b5260ff9384610c26878c614325565b9160a01c16151590526002820154610c3e868c614325565b52810154610c4c858c614325565b526004810154610c5c858d614325565b52015490610c6a838c614325565b81831615159052610c7b838d614325565b9160081c161515905201610b36565b608036600319011261038e57610c9e613844565b610ca66138ac565b60443591606435610cb56144ed565b610cbd61451c565b670de0b6b3a7640000918282101580610ef2575b610cda90613d8d565b610ce685341015613dcc565b610cf18515156139ba565b60018060a01b039384821694855f52602060138152610d1660ff60405f205416613e0e565b335f52600a815260405f20875f52815260405f206004810196610d4060ff895460081c1615613e56565b836001541696838a6024604051809b81936341976e0960e01b835260048301525afa9788156108f2578b905f99610eb0575b5098610db4600793610dad610e4c99989796945f80516020614b208339815191529d610d9f8e1515613c59565b610da88d614591565b613ab3565b0498614744565b8b8255876001830155886002830155426003830155610dd38682613c48565b805461ff0019166101001790555f6008820181905560058201819055600682015501805460ff191690558215610e9357600b90885f525260405f20610e198582546139f4565b90555b612710610e2b6007548a613ab3565b0480151580610e86575b610e62575b50506040519384933398429386614114565b0390a360015f80516020614b8083398151915255005b5f80808093610e7f95600254165af1610e79613d0a565b506140d2565b8780610e3a565b5081600254161515610e35565b600c90885f525260405f20610ea98582546139f4565b9055610e1c565b858095939a50819498979692503d8311610eeb575b610ecf8183613a01565b8101031261038e5790519693949293919290918a610db4610d72565b503d610ec5565b50678ac7230489e80000821115610cd1565b3461038e57604036600319011261038e576020610971610f22613844565b610f2a61385a565b9061413a565b3461038e57602036600319011261038e576001600160a01b03610f51613844565b165f526013602052602060ff60405f2054166040519015158152f35b3461038e575f36600319011261038e576020600654604051908152f35b3461038e5760208060031936011261038e57600435610fa76144ed565b610faf61451c565b610fbc6015548210613fd9565b610fc5816138fc565b5090600582019283549060ff92610fe0848460081c16614015565b60018060a01b039260248460015416936001880190808783541696604051948580926341976e0960e01b82528a60048301525afa9283156108f2575f9361126d575b5061102e831515613c59565b61103786614591565b838816156112585761104f60048a0154841015614092565b868954165f52600a815260405f20865f52815260405f206004810189815460081c1661121f5788999a9b61ff0099989919809716905560028c01958c8754906003015461109b91613ab3565b670de0b6b3a76400009004996110b090614744565b865483558960018401558560028401554260038401558b855460a01c166110d79083613c48565b8154166101001790556008015f9055815494868a8760a01c165f149b5f80516020614b208339815191529a610e4c987f431ebe7f2929904a285c3050ab2a96ca5b4533ee5206a3b661cde6dd6d141d569e61120257508554165f52600b845260405f206111458b82546139f4565b90555b61115c875461271091829160075490613ab3565b04801515806111f5575b6111d8575b5061117a885460095490613ab3565b04801515806111ce575b6111af575b5054169a8b92604051868152a354915494604051958695841698429460a01c1686614114565b5f8080806111c894335af16111c2613d0a565b50613d48565b8d611189565b5047811115611184565b5f8080806111ef9488600254165af1610e79613d0a565b8e61116b565b5083600254161515611166565b165f52600c845260405f206112188b82546139f4565b9055611148565b60405162461bcd60e51b81526004810184905260116024820152703ab9b2b9103430b9903837b9b4ba34b7b760791b6044820152606490fd5b61126860048a0154841115614092565b61104f565b9080935081813d8311611295575b6112858183613a01565b8101031261038e5751918a611022565b503d61127b565b3461038e575f36600319011261038e576004546040516001600160a01b039091168152602090f35b3461038e57602036600319011261038e576004356112e0614539565b6112ed6064821115613bd8565b600755005b3461038e57606036600319011261038e5761130b613844565b61131361385a565b6044359160018060a01b038091165f52601860205260405f2091165f5260205260405f20805482101561038e5760209161134c916138e7565b90546040519160031b1c8152f35b3461038e57604036600319011261038e57611373613844565b60243561137e6144ed565b61138661451c565b335f526020600a815260405f209260018060a01b0380911693845f52825260405f20906004820154906113be60ff8360081c16613980565b84151580611549575b15611513578360249160015416604051928380926341976e0960e01b82528a60048301525afa9081156108f2575f916114e4575b506114368161141467011c37937e080000931515613c59565b61141f878654613ac6565b936001860154918560ff6002890154931693614a03565b106114945781556114505f80808087335af1610735613d0a565b54906040519283528201527f33a6a7befb7e6c5e685340c90629413ed5a124b429160f8f02f4d818ae7efbbd60403392a360015f80516020614b8083398151915255005b60405162461bcd60e51b815260048101849052602260248201527f6d617267696e20726174696f20746f6f206c6f772061667465722072656d6f76604482015261185b60f21b6064820152608490fd5b90508381813d831161150c575b6114fb8183613a01565b8101031261038e57516114366113fb565b503d6114f1565b60405162461bcd60e51b815260048101859052600e60248201526d1a5b9d985b1a5908185b5bdd5b9d60921b6044820152606490fd5b50825485106113c7565b3461038e57604036600319011261038e5761156c613844565b61157461385a565b9060018060a01b038091165f52600a60205260405f2091165f526020526101206115a060405f20613a24565b805190602081015190604081015160608201516080830151151560a084015115159060c08501519260e08601519461010080970151151597604051998a5260208a015260408901526060880152608087015260a086015260c085015260e0840152820152f35b3461038e575f36600319011261038e57602060405166b1a2bc2ec500008152f35b3461038e57602036600319011261038e576001600160a01b03611648613844565b165f52600f602052602060405f2054604051908152f35b3461038e57602036600319011261038e5760043561167b6144ed565b6116886015548210613fd9565b611691816138fc565b5080546001600160a01b03163303611767578060056002920180546116bb60ff8260081c16614015565b61ff001916905501548015158061175d575b61170c575b5033907f34cf495316dbb07c8286e6c6b35542a47854aaf8050f2dd51ab0347b855582975f80a360015f80516020614b8083398151915255005b5f80808093335af161171c613d0a565b501561172857816116d2565b60405162461bcd60e51b815260206004820152600d60248201526c1c99599d5b990819985a5b1959609a1b6044820152606490fd5b50478111156116cd565b60405162461bcd60e51b815260206004820152600e60248201526d3737ba103cb7bab91037b93232b960911b6044820152606490fd5b3461038e57604036600319011261038e576117b6613844565b6001600160a01b03165f9081526016602052604090208054602435919082101561038e5760209161134c916138e7565b3461038e57602036600319011261038e5760043560155481101561038e57611810610100916138fc565b5060ff60018060a01b038083541692600181015460028201548460038401549260056004860154950154956040519889528116602089015260a01c16151560408701526060860152608085015260a0840152818116151560c084015260081c16151560e0820152f35b3461038e575f36600319011261038e576020604051678ac7230489e800008152f35b3461038e57602036600319011261038e576118b4613844565b6118bc614539565b600280546001600160a01b0319166001600160a01b0392909216919091179055005b3461038e57602036600319011261038e576001600160a01b036118ff613844565b165f526010602052602060405f2054604051908152f35b3461038e57602036600319011261038e57600435611932614539565b6119406103e8821115613bd8565b600855005b3461038e57602036600319011261038e5761195e613844565b611966614539565b6001600160a01b0381811691908215611a7957825f52601360205260ff60405f205416611a43575f838152601360205260409020805460ff19166001179055601254600160401b811015611a2f5783926119c98260016119e794016012556138bb565b90919060018060a01b038084549260031b9316831b921b1916179055565b60145490811615611a1a575b507f44407f8af029e74ef3c8d735b22092e8d0b7793d8739ea61b6cd677aef5eb4125f80a2005b6001600160a01b0319161760145580826119f3565b634e487b7160e01b5f52604160045260245ffd5b60405162461bcd60e51b815260206004820152600e60248201526d185b1c9958591e481b1a5cdd195960921b6044820152606490fd5b60405162461bcd60e51b815260206004820152600c60248201526b7a65726f206164647265737360a01b6044820152606490fd5b3461038e57604036600319011261038e576020610971611acb613844565b611ad361385a565b90613f2e565b3461038e575f36600319011261038e575f5460405160089190911c6001600160a01b03168152602090f35b3461038e57602036600319011261038e57611b1d613844565b611b25614539565b600480546001600160a01b0319166001600160a01b0392909216919091179055005b3461038e57604036600319011261038e57611b60613844565b611b6861385a565b90611b716144ed565b611b7961451c565b6001600160a01b038181165f908152600a602090815260408083209386168352929052206004810154611bb19060081c60ff16613980565b6001546040516341976e0960e01b81526001600160a01b038581166004830152909160209183916024918391165afa9081156108f2575f9161209e575b50611bfa811515613c59565b611c0384614591565b66d529ae9e860000611c1d82611c1885613a24565b614686565b101561206657611c2c84614744565b611c39816105d884613a24565b90825466b1a2bc2ec5000080820290828204148215171561205257670de0b6b3a76400009004612710611c6e60085484613ab3565b04610bb88381810204811484151715612052576127109084020492611c9c84611c9784866139f4565b6139f4565b90808211611fe6575b5050600486015460ff1615611fbb57600186015460018060a01b0389165f52600b602052611cd860405f20918254613ac6565b90555b80151580611fb1575b611f55575b5080151580611f41575b611ee0575b5080611e86575b505f8212611d98575b600160ff600485015416930154604051931515845260208401526040830152606082015242608082015260018060a01b0382169033907f2519c4ebc951d8ee92a05c30c8d8c1470731af70c412127475402abd963d1b1160a0600180821b03871692a460018060a01b03165f52600a60205260405f209060018060a01b03165f5260205261070f60405f20613ef9565b611da182613ee9565b835480821180611e66575b611db8575b5050611d08565b611dc191613ac6565b6001600160a01b0386165f908152600f6020526040902080549182811115611e5b5750611dee8280613ac6565b9055611dfc81601154613ac6565b60115560405190815260406020820152600a60408201526962616e6b72757074637960b01b60608201527f9a8c1dc5fb2b764e1b96134304619e44486c555d03fa116c381105d23fd37e67608060018060a01b03881692a28580611db1565b611dee908093613ac6565b506001600160a01b0387165f908152600f60205260409020541515611dac565b60018060a01b0386165f52600f60205260405f20611ea58282546139f4565b9055611eb3816011546139f4565b6011556040519081526001600160a01b038616905f80516020614ae083398151915290602090a285611cff565b6002545f918291829182916001600160a01b03165af1611efe613d0a565b5015611f0a5786611cf8565b60405162461bcd60e51b815260206004820152600f60248201526e189d5c9b881999594819985a5b1959608a1b6044820152606490fd5b506002546001600160a01b03161515611cf3565b5f80808093335af1611f65613d0a565b5015611f715787611ce9565b60405162461bcd60e51b81526020600482015260186024820152771b1a5c5d5a59185d1bdc881c995dd85c990819985a5b195960421b6044820152606490fd5b5047811115611ce4565b600186015460018060a01b0389165f52600c602052611fdf60405f20918254613ac6565b9055611cdb565b809192939450670de0b6b3a7640000810204670de0b6b3a7640000148115171561205257612045670de0b6b3a764000061203c8161203361202c61204a97838802613ad3565b8099613ab3565b04968796613ab3565b04948592613ac6565b613ac6565b918880611ca5565b634e487b7160e01b5f52601160045260245ffd5b60405162461bcd60e51b815260206004820152601060248201526f706f736974696f6e206865616c74687960801b6044820152606490fd5b90506020813d6020116120c8575b816120b960209383613a01565b8101031261038e575184611bee565b3d91506120ac565b3461038e57602036600319011261038e576001600160a01b036120f1613844565b165f52600d602052602060405f2054604051908152f35b3461038e575f36600319011261038e576001546040516001600160a01b039091168152602090f35b3461038e57602036600319011261038e57612149613844565b612151614539565b600580546001600160a01b0319166001600160a01b0392909216919091179055005b3461038e57602036600319011261038e5761218c613844565b612194614539565b600180546001600160a01b0319166001600160a01b0392909216919091179055005b602036600319011261038e576121ca613844565b341561038e576001600160a01b03165f818152600f6020526040902080546121f39034906139f4565b9055612201346011546139f4565b6011555f80516020614ae08339815191526020604051348152a2005b3461038e575f36600319011261038e576014546040516001600160a01b039091168152602090f35b3461038e575f36600319011261038e5761225d614539565b5f8054610100600160a81b03198116825560081c6001600160a01b03165f80516020614b608339815191528280a3005b3461038e57602036600319011261038e5760206109716122ab613844565b613ea2565b3461038e57602036600319011261038e576001600160a01b036122d1613844565b165f52600b6020526040805f2054600c602052815f205482519182526020820152f35b3461038e57602036600319011261038e5761230d613844565b335f52600a60205260405f209060018060a01b031690815f52602052600760405f2061234260ff600483015460081c16613980565b5f60058201555f60068201550160ff198154169055337fe9b7e1d3cb64115da0bf49cbe4af2b06c8d42e87b1e1c0fe240c32be832f58095f80a3005b3461038e57604036600319011261038e57612397613844565b600354602435916001600160a01b03918216331480156124bd575b80156124ae575b156124785716906040516323b872dd60e01b5f5233600452306024528160445260205f60648180875af160015f5114811615612459575b816040525f60605215612443575060207fe3a6e26dceff30d982e183d0ce051fb5b791f2108785a9d440d417247cef5b4191835f526010825260405f206124388282546139f4565b9055604051908152a2005b635274afe760e01b815260048101839052602490fd5b600181151661246f57833b15153d1516166123f0565b503d5f823e3d90fd5b60405162461bcd60e51b815260206004820152600e60248201526d1b9bdd08185d5d1a1bdc9a5e995960921b6044820152606490fd5b50815f5460081c1633146123b9565b50816004541633146123b2565b3461038e575f36600319011261038e576020600954604051908152f35b3461038e57602036600319011261038e57600435612503614539565b6125116101f4821115613bd8565b600955005b60c036600319011261038e5761252a613844565b6125326138ac565b60a43591821515830361038e576125476144ed565b61254f61451c565b670de0b6b3a76400006064351015806127e1575b61256c90613d8d565b61257a604435341015613dcc565b61258760443515156139ba565b608435156127a75760018060a01b031691825f5260136020526125b060ff60405f205416613e0e565b335f52600a60205260405f20835f526020526125d960ff600460405f20015460081c1615613e56565b60155460405190919061010081016001600160401b03811182821017611a2f5760405233815284602082015283151560408201526044356060820152606435608082015260843560a082015281151560c0820152600160e0820152600160401b831015611a2f5760018301601555612650836138fc565b61279457815181546001600160a01b0319166001600160a01b03918216178255602083015160018301805460408601516001600160a81b0319909116929093169190911791151560a090811b60ff60a01b169290921790556060830151600283015560808301516003830155820151600482015560c08201516005919091019160e0916126df90151584613c48565b0151815461ff00191690151560081b61ff0016179055335f9081526016602052604090208054600160401b811015611a2f57612720916001820181556138e7565b81549060031b9084821b915f19901b19161790556040519215158352604435602084015260643560408401526084356060840152151560808301527fd38cf2938cf143ec7305058c0eac45e5532fcd567442eef7f027e22d8b1caed560a03393a460015f80516020614b8083398151915255005b634e487b7160e01b5f525f60045260245ffd5b60405162461bcd60e51b81526020600482015260126024820152717a65726f207472696767657220707269636560701b6044820152606490fd5b50678ac7230489e800006064351115612563565b3461038e575f36600319011261038e576020604051610bb88152f35b3461038e5760208060031936011261038e5761282b613844565b6001546040516341976e0960e01b81526001600160a01b03928316600482015291839183916024918391165afa9081156108f2575f9161286f575b50604051908152f35b90508181813d8311612895575b6128868183613a01565b8101031261038e575182612866565b503d61287c565b3461038e575f36600319011261038e57602060ff5f54166040519015158152f35b3461038e57602036600319011261038e5760043560125481101561038e576128e66020916138bb565b905460405160039290921b1c6001600160a01b03168152f35b3461038e575f36600319011261038e576002546040516001600160a01b039091168152602090f35b3461038e575f36600319011261038e5760206040516170808152f35b3461038e575f36600319011261038e576020600854604051908152f35b3461038e575f36600319011261038e576020601254604051908152f35b3461038e57604036600319011261038e57612996613844565b61299e61385a565b9060018060a01b038091165f52600a60205260405f2091165f5260205261014060405f208054906001810154906002810154600382015460ff600484015460058501549260068601549460088460078901541697015497604051998a5260208a0152604089015260608801528181161515608088015260081c16151560a086015260c085015260e08401521515610100830152610120820152f35b3461038e57602036600319011261038e57612a52613844565b612a5a614539565b600380546001600160a01b0319166001600160a01b0392909216919091179055005b3461038e57606036600319011261038e57612a95613844565b612a9d61385a565b60443590811515820361038e57612ab26144ed565b612aba61451c565b6001600160a01b038381165f908152600a60209081526040808320938516835292905220600481015491600883901c60ff16806130fb575b156130cc576001546040516341976e0960e01b81526001600160a01b03838116600483015290939160209185916024918391165afa9283156108f2575f93613098575b50612b41831515613c59565b612b4a82614591565b841561308d576005810154925b831561305e5760249460ff161561304057851561302f57612b7a84821015613ccd565b6001612710612b8d845460095490613ab3565b049283151580613025575b61300d575b01549360018060a01b0388165f52600a60205260405f2060018060a01b0385165f5260205260405f2094612bda60ff600488015460081c16613980565b612be385614744565b6001546040516341976e0960e01b81526001600160a01b03878116600483015290986020928a928391165afa9687156108f2575f97612fd9575b50612c29871515613c59565b612c3285614591565b670de0b6b3a76400008102818104670de0b6b3a76400001482151715612052576001870154612c6091613ad3565b90612c6e886105d889613a24565b965f8812600160ff1b841416612052578783810205831488151715612052577f399e51b755363f9e7c0719a2ac0289d77f512608b9d120ae8af7ca01e0ff3e1e988b670de0b6b3a76400008560809b020594612ccd8a61060f86613a24565b5f811315612f72578454612d0f9190808211612f6a575b81612cee91613ac6565b865560018060a01b038c165f52600f60205260405f2061064d8282546139f4565b6011555b670de0b6b3a7640000612d2e60038601924284558654613ab3565b04905f8712612f4257612d4187836139f4565b915b600486015460ff1615612f1c5760018060a01b038c165f52600b60205260405f20612d6f888254613ac6565b90555b6001860154878103612e72575050505f80516020614ba083398151915293945080151580612e68575b612e42575b50600484015484546001909501546040516001600160a01b0393841697938c169690948594612dd794429491939060ff1687614567565b0390a36001600160a01b038881165f908152600a60209081526040808320938816835292905220612e0790613ef9565b604080519715158852602088019190915286015260608501526001600160a01b03908116941692a360015f80516020614b8083398151915255005b612e61915f918291829182916001600160a01b03165af1610735613d0a565b8b8d612da0565b5047811115612d9b565b91612ea0612ee99492612e948a5f80516020614b408339815191529a96613ac6565b60018601558454613ac6565b83554290555f600883015580151580612f12575b612ef1575b50600160ff6004830154169101549660405194859460018060a01b0316988d60018060a01b031698429487614567565b0390a3612e07565b5f808080612f0c9460018060a01b0389165af1610735613d0a565b8f612eb9565b5047811115612eb4565b60018060a01b038c165f52600c60205260405f20612f3b888254613ac6565b9055612d72565b612f4b87613ee9565b828110612f5b57505f5b91612d43565b612f659083613ac6565b612f55565b905080612ce4565b5f8112612f80575b50612d13565b612f8990613ee9565b612f948186546139f4565b85556001600160a01b038b165f908152600f602052604090208054919081831015612fc1575b5050612f7a565b61087482612fce94613ac6565b6011558e8080612fba565b9096506020813d602011613005575b81612ff560209383613a01565b8101031261038e57519589612c1d565b3d9150612fe8565b6130205f80808088335af16111c2613d0a565b612b9d565b5047841115612b98565b61303b84821115613c90565b612b7a565b85156130525761303b84821115613ccd565b61303b84821015613c90565b60405162461bcd60e51b81526020600482015260076024820152661b9bdd081cd95d60ca1b6044820152606490fd5b600681015492612b57565b9092506020813d6020116130c4575b816130b460209383613a01565b8101031261038e57519186612b35565b3d91506130a7565b60405162461bcd60e51b81526020600482015260076024820152661b9bc81d1c1cdb60ca1b6044820152606490fd5b5060ff600783015416612af2565b3461038e57606036600319011261038e57613122613844565b602435604435335f526020600a815260405f209360018060a01b031693845f52815260405f2060ff600482015461315d828260081c16613980565b16156132665783158015613259575b156132225782158015613215575b156131de576131a3905b8460058201558360068201558415908115916131d4575b600701613c48565b6040519283528201527f6c6d28f5d331e789a81e2a85ca3c76cd34f609c9bc9d9caa6cd309c7dd015fb460403392a3005b841515915061319b565b60405162461bcd60e51b815260048101839052600f60248201526e534c206d757374203c20656e74727960881b6044820152606490fd5b506002810154831061317a565b60405162461bcd60e51b815260048101839052600f60248201526e5450206d757374203e20656e74727960881b6044820152606490fd5b506002810154841161316c565b83158015613306575b156132cf57821580156132c2575b1561328b576131a390613184565b60405162461bcd60e51b815260048101839052600f60248201526e534c206d757374203e20656e74727960881b6044820152606490fd5b506002810154831161327d565b60405162461bcd60e51b815260048101839052600f60248201526e5450206d757374203c20656e74727960881b6044820152606490fd5b506002810154841061326f565b3461038e57602036600319011261038e5761332c613844565b613334614539565b60018060a01b0380911690815f52601360205261335760ff60405f205416613c0f565b8060145416821461343f575f828152601360205260408120805460ff191690555b6012908154918282101561343657839285613392846138bb565b969054600397881b1c16146133ae575050600191925001613378565b9092915f199180830191908211612052576119c9846133cf6133dc946138bb565b905490891b1c16916138bb565b825480156134225701926133ef846138bb565b81939154921b1b19169055555b7f53f882e7ae7f246c0c12e357352713c90da73cfbaa37abcdc49697b332efc9275f80a2005b634e487b7160e01b5f52603160045260245ffd5b505050506133fc565b60405162461bcd60e51b815260206004820152601560248201527418d85b9b9bdd0819195b1a5cdd08191959985d5b1d605a1b6044820152606490fd5b3461038e575f36600319011261038e576020600754604051908152f35b3461038e57602036600319011261038e576001600160a01b036134ba613844565b165f52600c602052602060405f2054604051908152f35b3461038e5760208060031936011261038e576134eb613844565b906134f46144ed565b6134fc61451c565b335f52600a815260405f2091602460018060a01b039182811694855f528452600160405f2061353460ff600483015460081c16613980565b015492335f52600a855260405f20865f52855260405f209085600483019161356260ff845460081c16613980565b61356b85614744565b60015416604051958680926341976e0960e01b82528b60048301525afa9384156108f2575f94613613575b506135a2841515613c59565b6135ab83614591565b670de0b6b3a764000080860295808704821481151715612052576135d56001850197885490613ad3565b916135e3876105d887613a24565b808402905f8112600160ff1b86141661205257808205851490151715612052578161061491059661060f87613a24565b9093508581813d831161363b575b61362b8183613a01565b8101031261038e57519287613596565b503d613621565b3461038e57602036600319011261038e5760043561365e614539565b61367166038d7ea4c68000821115613bd8565b600655005b3461038e575f36600319011261038e57604051601280548083525f918252602080840193927fbb8a6a4669ba250d26cd7a459eca9d215f8307e33aebe50379bc5a3617ec344492915b8282106136ea57610bce856136d681890382613a01565b604051918291602083526020830190613870565b83546001600160a01b0316865294850194600193840193909101906136bf565b3461038e575f36600319011261038e576020601554604051908152f35b3461038e575f36600319011261038e576020601154604051908152f35b3461038e57604036600319011261038e576020610971613762613844565b61376a61385a565b90613af1565b602036600319011261038e57613784613844565b61378c6144ed565b61379461451c565b335f52600a60205260405f209060018060a01b031690815f5260205260405f206137c760ff600483015460081c16613980565b6137d23415156139ba565b6137dd3482546139f4565b8091556040519034825260208201527f5ee4d5d52169c996164e259f1aad282b3746303766ea2f71d42f3d0aaa9680a560403392a360015f80516020614b8083398151915255005b3461038e575f36600319011261038e578066d529ae9e86000060209252f35b600435906001600160a01b038216820361038e57565b602435906001600160a01b038216820361038e57565b9081518082526020808093019301915f5b82811061388f575050505090565b83516001600160a01b031685529381019392810192600101613881565b60243590811515820361038e57565b6012548110156138d35760125f5260205f2001905f90565b634e487b7160e01b5f52603260045260245ffd5b80548210156138d3575f5260205f2001905f90565b6015548110156138d35760155f52600660205f20910201905f90565b9081518082526020808093019301915f5b828110613937575050505090565b835185529381019392810192600101613929565b9081518082526020808093019301915f5b82811061396a575050505090565b835115158552938101939281019260010161395c565b1561398757565b60405162461bcd60e51b815260206004820152600b60248201526a3737903837b9b4ba34b7b760a91b6044820152606490fd5b156139c157565b60405162461bcd60e51b815260206004820152600b60248201526a3d32b9379036b0b933b4b760a91b6044820152606490fd5b9190820180921161205257565b601f909101601f19168101906001600160401b03821190821017611a2f57604052565b60405190919061014081016001600160401b03811182821017611a2f57604052610120600882948054845260018101546020850152600281015460408501526003810154606085015260ff600482015481811615156080870152831c16151560a0850152600581015460c0850152600681015460e085015260ff60078201541615156101008501520154910152565b8181029291811591840414171561205257565b9190820391821161205257565b8115613add570490565b634e487b7160e01b5f52601260045260245ffd5b60018060a01b038091165f52600a60205260405f2091165f52602052613b1960405f20613a24565b60a081015115613bd35780518015613b815760808201516020919015613b8757613b47906040840151613ab3565b910151670eb5e06245ea00009081810291818304149015171561205257670de0b6b3a764000090048015613b8157613b7e91613ad3565b90565b50505f90565b613b95906040840151613ab3565b910151670d0b8d0508de00009081810291818304149015171561205257670de0b6b3a764000090048015613bcc57613b7e91613ad3565b50505f1990565b505f90565b15613bdf57565b60405162461bcd60e51b81526020600482015260086024820152670e8dede40d0d2ced60c31b6044820152606490fd5b15613c1657565b60405162461bcd60e51b815260206004820152600a6024820152691b9bdd081b1a5cdd195960b21b6044820152606490fd5b9060ff801983541691151516179055565b15613c6057565b60405162461bcd60e51b81526020600482015260086024820152676e6f20707269636560c01b6044820152606490fd5b15613c9757565b60405162461bcd60e51b815260206004820152600e60248201526d14d3081b9bdd081c995858da195960921b6044820152606490fd5b15613cd457565b60405162461bcd60e51b815260206004820152600e60248201526d1514081b9bdd081c995858da195960921b6044820152606490fd5b3d15613d43573d906001600160401b038211611a2f5760405191613d38601f8201601f191660200184613a01565b82523d5f602084013e565b606090565b15613d4f57565b60405162461bcd60e51b8152602060048201526016602482015275195e1958dd5d1bdc881c995dd85c990819985a5b195960521b6044820152606490fd5b15613d9457565b60405162461bcd60e51b815260206004820152601060248201526f696e76616c6964206c6576657261676560801b6044820152606490fd5b15613dd357565b60405162461bcd60e51b815260206004820152601360248201527234b739bab33334b1b4b2b73a1036b0b933b4b760691b6044820152606490fd5b15613e1557565b60405162461bcd60e51b81526020600482015260196024820152780746f6b656e206e6f74206c697374656420666f72207065727603c1b6044820152606490fd5b15613e5d57565b60405162461bcd60e51b815260206004820152601d60248201527f636c6f7365206578697374696e6720706f736974696f6e2066697273740000006044820152606490fd5b6001600160a01b03165f818152600e602052604090205415613ed9575f52600e60205260405f205461708081018091116120525790565b5061708042018042116120525790565b600160ff1b8114612052575f0390565b60085f918281558260018201558260028201558260038201558260048201558260058201558260068201558260078201550155565b60018060a01b038091165f52602090600a82528060405f20931692835f528252613f5a60405f20613a24565b9060a082015115613fd157829060015416936024604051809681936341976e0960e01b835260048301525afa9182156108f2575f92613f9f575b50613b7e9250614961565b90915082813d8311613fca575b613fb68183613a01565b8101031261038e57613b7e9151905f613f94565b503d613fac565b505050505f90565b15613fe057565b60405162461bcd60e51b815260206004820152600d60248201526c34b73b30b634b21037b93232b960991b6044820152606490fd5b1561401c57565b60405162461bcd60e51b815260206004820152601060248201526f6f72646572206e6f742061637469766560801b6044820152606490fd5b1561405b57565b60405162461bcd60e51b815260206004820152600f60248201526e1d1c985b9cd9995c8819985a5b1959608a1b6044820152606490fd5b1561409957565b60405162461bcd60e51b81526020600482015260116024820152701c1c9a58d9481b9bdd081c995858da1959607a1b6044820152606490fd5b156140d957565b60405162461bcd60e51b8152602060048201526013602482015272199959481d1c985b9cd9995c8819985a5b1959606a1b6044820152606490fd5b9192608093969594919660a0840197151584526020840152604083015260608201520152565b60018060a01b03809116805f52602092600a845260409083825f20911690815f528552614168825f20613a24565b9360a0850151156142d1578251936230cf6960e71b855260048501528160248501528584604481305afa9384156142c7579086915f95614296575b50600154169160248451809481936341976e0960e01b835260048301525afa94851561428c575f9561425c575b50508315613fd1576080830151156142305781841115613fd157614209920151818082115f146142265761420391613ac6565b92613ac6565b9060648202918083046064149015171561205257613b7e91613ad3565b5050600192613ac6565b818492941015613fd1576142099201518084115f14614253576142039084613ac6565b50600192613ac6565b9080929550813d8311614285575b6142748183613a01565b8101031261038e5751925f806141d0565b503d61426a565b82513d5f823e3d90fd5b8281939296503d83116142c0575b6142ae8183613a01565b8101031261038e57859051935f6141a3565b503d6142a4565b83513d5f823e3d90fd5b505050505050606490565b6001600160401b038111611a2f5760051b60200190565b906142fd826142dc565b61430a6040519182613a01565b828152809261431b601f19916142dc565b0190602036910137565b80518210156138d35760209160051b010190565b60018060a01b03165f52600b60205260405f2054600c60205260405f205490801591828093614439575b61443257808211156143c557670de0b6b3a76400009283830292830484141715612052576143a39161439b9180156143bc5790613ad3565b600654613ab3565b0466038d7ea4c680008082136143b7575090565b905090565b50600190613ad3565b91908083116143d5575050505f90565b670de0b6b3a764000091828402938085048414901517156120525761440c936144069261439b926143bc5790613ad3565b04613ee9565b66038d7ea4c6800061441d82613ee9565b136144255790565b5066038d7ea4c67fff1990565b5050505f90565b508015614363565b60018060a01b038091165f52602090600a82528060405f20931692835f52825261446d60405f20613a24565b9060a0820151156144e457829060015416936024604051809681936341976e0960e01b835260048301525afa9182156108f2575f926144b2575b50613b7e9250614686565b90915082813d83116144dd575b6144c98183613a01565b8101031261038e57613b7e9151905f6144a7565b503d6144bf565b505050505f1990565b5f80516020614b80833981519152600281541461450a5760029055565b604051633ee5aeb560e01b8152600490fd5b60ff5f541661452757565b60405163d93c066560e01b8152600490fd5b5f5460081c6001600160a01b0316330361454f57565b60405163118cdaa760e01b8152336004820152602490fd5b9260a094919796959260c08501981515855260208501526040840152606083015260808201520152565b6001546040516385f89eef60e01b81526001600160a01b0392831660048201526020929091839183916024918391165afa9081156108f2575f91614659575b50801561461e576145e461012c9142613ac6565b116145ec5750565b6064906040519062461bcd60e51b82526004820152600b60248201526a7072696365207374616c6560a81b6044820152fd5b60405162461bcd60e51b81526004810183905260136024820152721c1c9a58d9481b995d995c881d5c19185d1959606a1b6044820152606490fd5b90508181813d831161467f575b6146708183613a01565b8101031261038e57515f6145d0565b503d614666565b6146908282614961565b608082015190929015614722576146ae6146b9916020840151613ab3565b604083015190613ad3565b915b5f81126146f7576146cc91516139f4565b905b8015613bcc57670de0b6b3a76400009182810292818404149015171561205257613b7e91613ad3565b61470090613ee9565b9051908181106147145750505f5b906146ce565b61471d91613ac6565b61470e565b61473e906147396020840151604085015190613ab3565b613ad3565b916146bb565b60018060a01b0316805f526020600e81526040805f208054156149595761476c905442613ac6565b916170809283811061495257845f52600b8252825f2054600c8352835f20549481159283809461494a575b6149385704945f8183111561488b5750670de0b6b3a76400009283830292830484141715612052576147d9918691610da89161439b9180156143bc5790613ad3565b049066038d7ea4c68000938085029485040361205257835f80516020614b00833981519152948313614883575b505b5f82131561484157845f52600d8152825f206148258382546139f4565b90555b845f52600e815242835f205582519182524290820152a2565b5f8212156148285761485282613ee9565b855f52600d8252835f209080825410155f1461487a57614873908254613ac6565b9055614828565b505f9055614828565b91505f614806565b93928282116148ad575b5050505f80516020614b008339815191529350614808565b9091929350670de0b6b3a7640000918281029080820484149015171561205257610da861439b88926148ea9661440695155f146143bc5790613ad3565b906148f482613ee9565b9366038d7ea4c68000908082029182040361205257805f80516020614b008339815191529513614926575b8080614895565b614931919250613ee9565b905f61491f565b5050600e90925250505f204290555050565b508615614797565b5050505050565b429055505050565b6080810151156149c1576040810180519091908084106149a25750613b7e92614994602061499a93015191845190613ac6565b90613ab3565b905190613ad3565b61499a90614994613b7e9560206149bc9695015192613ac6565b613ee9565b6040810180519091908084116149e95750613b7e92614994602061499a930151918451613ac6565b613b7e9361499461499a9260206149bc9695015192613ac6565b909315614a18576146ce929161473991613ab3565b614a259261473991613ab3565b6146ce565b60608101514281101561443257614a446170809142613ac6565b049182156144325760018060a01b03165f52600b60205260405f2054600c60205260405f205492811580614ad7575b613fd157614a99614a8f670de0b6b3a764000092600654613ab3565b6020850151613ab3565b049280821115614aba5750506080015115614ab15790565b613b7e90613ee9565b11614ac55750505f90565b6080015115613b7e57613b7e90613ee9565b508315614a7356febf303edf95352cf6ad54b706e89542319cd1e6cafa0cd0a4240c27e776b9dea7769084355bca6d68d2849f20818a61530e0c68371f43a43c0ca7edc0b3ee27509020403d73c786ad905c04a7eb4321e541e6d41ceae2333e7f74fade7471558cbf9f87525440f259c04cb82958a99f5e4d1fc20995d3313229f91ee94f6d62cf8be0079c531659141344cd1fd0a4f28419497f9722a3daafe3b4186f6b6457e09b779b17422d0df92223018b32b4d1fa46e071723d6817e2486d003becc55f008252bd05c6d67c86efed48140ec67188bf0dfd021cd6fd1b830f99ea0f354e19a2646970667358221220268b98eb820c565ec7e611a71f4d31c266d8fa0ff313ebb265cf6980476e6f0f64736f6c63430008180033",
  "linkReferences": {},
  "deployedLinkReferences": {},
  "immutableReferences": {},
  "inputSourceName": "project/contracts/pool/PerpetualPool.sol",
  "buildInfoId": "solc-0_8_24-f6214ff0b05813703cc291a901826c3b4401bb89"
}