{
  "_format": "hh3-artifact-1",
  "contractName": "BuyAndBurnEngine",
  "sourceName": "contracts/periphery/BuyAndBurnEngine.sol",
  "abi": [
    {
      "inputs": [
        {
          "internalType": "address",
          "name": "_dexRouter",
          "type": "address"
        },
        {
          "internalType": "address",
          "name": "_keeper",
          "type": "address"
        },
        {
          "internalType": "bool",
          "name": "_isXyloRouter",
          "type": "bool"
        },
        {
          "internalType": "address",
          "name": "_wrappedNative",
          "type": "address"
        }
      ],
      "stateMutability": "nonpayable",
      "type": "constructor"
    },
    {
      "inputs": [
        {
          "internalType": "address",
          "name": "owner",
          "type": "address"
        }
      ],
      "name": "OwnableInvalidOwner",
      "type": "error"
    },
    {
      "inputs": [
        {
          "internalType": "address",
          "name": "account",
          "type": "address"
        }
      ],
      "name": "OwnableUnauthorizedAccount",
      "type": "error"
    },
    {
      "inputs": [],
      "name": "ReentrancyGuardReentrantCall",
      "type": "error"
    },
    {
      "inputs": [
        {
          "internalType": "address",
          "name": "token",
          "type": "address"
        }
      ],
      "name": "SafeERC20FailedOperation",
      "type": "error"
    },
    {
      "anonymous": false,
      "inputs": [
        {
          "indexed": true,
          "internalType": "address",
          "name": "previousOwner",
          "type": "address"
        },
        {
          "indexed": true,
          "internalType": "address",
          "name": "newOwner",
          "type": "address"
        }
      ],
      "name": "OwnershipTransferred",
      "type": "event"
    },
    {
      "anonymous": false,
      "inputs": [
        {
          "indexed": true,
          "internalType": "address",
          "name": "token",
          "type": "address"
        },
        {
          "indexed": false,
          "internalType": "uint256",
          "name": "tokensBurned",
          "type": "uint256"
        },
        {
          "indexed": false,
          "internalType": "uint256",
          "name": "usdcUsed",
          "type": "uint256"
        }
      ],
      "name": "TokenBurned",
      "type": "event"
    },
    {
      "anonymous": false,
      "inputs": [
        {
          "indexed": true,
          "internalType": "address",
          "name": "token",
          "type": "address"
        },
        {
          "indexed": false,
          "internalType": "uint256",
          "name": "amount",
          "type": "uint256"
        }
      ],
      "name": "UsdcDeposited",
      "type": "event"
    },
    {
      "inputs": [],
      "name": "DEAD_ADDRESS",
      "outputs": [
        {
          "internalType": "address",
          "name": "",
          "type": "address"
        }
      ],
      "stateMutability": "view",
      "type": "function"
    },
    {
      "inputs": [
        {
          "internalType": "address",
          "name": "",
          "type": "address"
        }
      ],
      "name": "burnCount",
      "outputs": [
        {
          "internalType": "uint256",
          "name": "",
          "type": "uint256"
        }
      ],
      "stateMutability": "view",
      "type": "function"
    },
    {
      "inputs": [],
      "name": "burnThreshold",
      "outputs": [
        {
          "internalType": "uint256",
          "name": "",
          "type": "uint256"
        }
      ],
      "stateMutability": "view",
      "type": "function"
    },
    {
      "inputs": [
        {
          "internalType": "address",
          "name": "token",
          "type": "address"
        }
      ],
      "name": "deposit",
      "outputs": [],
      "stateMutability": "payable",
      "type": "function"
    },
    {
      "inputs": [],
      "name": "dexRouter",
      "outputs": [
        {
          "internalType": "address",
          "name": "",
          "type": "address"
        }
      ],
      "stateMutability": "view",
      "type": "function"
    },
    {
      "inputs": [
        {
          "internalType": "address payable",
          "name": "to",
          "type": "address"
        },
        {
          "internalType": "uint256",
          "name": "amount",
          "type": "uint256"
        }
      ],
      "name": "emergencyWithdraw",
      "outputs": [],
      "stateMutability": "nonpayable",
      "type": "function"
    },
    {
      "inputs": [
        {
          "internalType": "address",
          "name": "token",
          "type": "address"
        },
        {
          "internalType": "address",
          "name": "to",
          "type": "address"
        },
        {
          "internalType": "uint256",
          "name": "amount",
          "type": "uint256"
        }
      ],
      "name": "emergencyWithdrawToken",
      "outputs": [],
      "stateMutability": "nonpayable",
      "type": "function"
    },
    {
      "inputs": [
        {
          "internalType": "address",
          "name": "token",
          "type": "address"
        },
        {
          "internalType": "uint256",
          "name": "minTokensOut",
          "type": "uint256"
        }
      ],
      "name": "executeBurn",
      "outputs": [],
      "stateMutability": "nonpayable",
      "type": "function"
    },
    {
      "inputs": [
        {
          "internalType": "address",
          "name": "token",
          "type": "address"
        },
        {
          "internalType": "uint256",
          "name": "usdcAmount",
          "type": "uint256"
        }
      ],
      "name": "getEstimatedTokensOut",
      "outputs": [
        {
          "internalType": "uint256",
          "name": "",
          "type": "uint256"
        }
      ],
      "stateMutability": "view",
      "type": "function"
    },
    {
      "inputs": [],
      "name": "isXyloRouter",
      "outputs": [
        {
          "internalType": "bool",
          "name": "",
          "type": "bool"
        }
      ],
      "stateMutability": "view",
      "type": "function"
    },
    {
      "inputs": [],
      "name": "keeper",
      "outputs": [
        {
          "internalType": "address",
          "name": "",
          "type": "address"
        }
      ],
      "stateMutability": "view",
      "type": "function"
    },
    {
      "inputs": [],
      "name": "lastBurnTimestamp",
      "outputs": [
        {
          "internalType": "uint256",
          "name": "",
          "type": "uint256"
        }
      ],
      "stateMutability": "view",
      "type": "function"
    },
    {
      "inputs": [],
      "name": "maxSingleBurn",
      "outputs": [
        {
          "internalType": "uint256",
          "name": "",
          "type": "uint256"
        }
      ],
      "stateMutability": "view",
      "type": "function"
    },
    {
      "inputs": [],
      "name": "maxSlippage",
      "outputs": [
        {
          "internalType": "uint256",
          "name": "",
          "type": "uint256"
        }
      ],
      "stateMutability": "view",
      "type": "function"
    },
    {
      "inputs": [],
      "name": "minInterval",
      "outputs": [
        {
          "internalType": "uint256",
          "name": "",
          "type": "uint256"
        }
      ],
      "stateMutability": "view",
      "type": "function"
    },
    {
      "inputs": [],
      "name": "owner",
      "outputs": [
        {
          "internalType": "address",
          "name": "",
          "type": "address"
        }
      ],
      "stateMutability": "view",
      "type": "function"
    },
    {
      "inputs": [
        {
          "internalType": "address",
          "name": "",
          "type": "address"
        }
      ],
      "name": "pendingUsdc",
      "outputs": [
        {
          "internalType": "uint256",
          "name": "",
          "type": "uint256"
        }
      ],
      "stateMutability": "view",
      "type": "function"
    },
    {
      "inputs": [],
      "name": "randomDelayBlocks",
      "outputs": [
        {
          "internalType": "uint256",
          "name": "",
          "type": "uint256"
        }
      ],
      "stateMutability": "view",
      "type": "function"
    },
    {
      "inputs": [],
      "name": "renounceOwnership",
      "outputs": [],
      "stateMutability": "nonpayable",
      "type": "function"
    },
    {
      "inputs": [
        {
          "internalType": "uint256",
          "name": "_threshold",
          "type": "uint256"
        }
      ],
      "name": "setBurnThreshold",
      "outputs": [],
      "stateMutability": "nonpayable",
      "type": "function"
    },
    {
      "inputs": [
        {
          "internalType": "address",
          "name": "_dexRouter",
          "type": "address"
        }
      ],
      "name": "setDexRouter",
      "outputs": [],
      "stateMutability": "nonpayable",
      "type": "function"
    },
    {
      "inputs": [
        {
          "internalType": "bool",
          "name": "_isXyloRouter",
          "type": "bool"
        }
      ],
      "name": "setIsXyloRouter",
      "outputs": [],
      "stateMutability": "nonpayable",
      "type": "function"
    },
    {
      "inputs": [
        {
          "internalType": "address",
          "name": "_keeper",
          "type": "address"
        }
      ],
      "name": "setKeeper",
      "outputs": [],
      "stateMutability": "nonpayable",
      "type": "function"
    },
    {
      "inputs": [
        {
          "internalType": "uint256",
          "name": "_slippage",
          "type": "uint256"
        }
      ],
      "name": "setMaxSlippage",
      "outputs": [],
      "stateMutability": "nonpayable",
      "type": "function"
    },
    {
      "inputs": [
        {
          "internalType": "address",
          "name": "_wrappedNative",
          "type": "address"
        }
      ],
      "name": "setWrappedNative",
      "outputs": [],
      "stateMutability": "nonpayable",
      "type": "function"
    },
    {
      "inputs": [
        {
          "internalType": "address",
          "name": "",
          "type": "address"
        }
      ],
      "name": "totalBurned",
      "outputs": [
        {
          "internalType": "uint256",
          "name": "",
          "type": "uint256"
        }
      ],
      "stateMutability": "view",
      "type": "function"
    },
    {
      "inputs": [
        {
          "internalType": "address",
          "name": "",
          "type": "address"
        }
      ],
      "name": "totalUsdcUsed",
      "outputs": [
        {
          "internalType": "uint256",
          "name": "",
          "type": "uint256"
        }
      ],
      "stateMutability": "view",
      "type": "function"
    },
    {
      "inputs": [
        {
          "internalType": "address",
          "name": "newOwner",
          "type": "address"
        }
      ],
      "name": "transferOwnership",
      "outputs": [],
      "stateMutability": "nonpayable",
      "type": "function"
    },
    {
      "inputs": [],
      "name": "wrappedNative",
      "outputs": [
        {
          "internalType": "address",
          "name": "",
          "type": "address"
        }
      ],
      "stateMutability": "view",
      "type": "function"
    },
    {
      "stateMutability": "payable",
      "type": "receive"
    }
  ],
  "bytecode": "0x60803461017057601f61138938819003918201601f19168301916001600160401b03831184841017610174578084926080946040528339810103126101705761004781610188565b9061005460208201610188565b6040820151918215158093036101705760606100709101610188565b9060017f9b779b17422d0df92223018b32b4d1fa46e071723d6817e2486d003becc55f00553315610158575f80546001600160a01b0319808216339081178455604051976001600160a01b039592948694859391908416907f8be0079c531659141344cd1fd0a4f28419497f9722a3daafe3b4186f6b6457e09080a367016345785d8a000060035566b1a2bc2ec50000600455670de0b6b3a7640000600555601e60065560036008551683600154161760015516906002541617600255600d5491169160ff60a01b9060a01b169060018060a81b0319161717600d556111ec908161019d8239f35b604051631e4fbdf760e01b81525f6004820152602490fd5b5f80fd5b634e487b7160e01b5f52604160045260245ffd5b51906001600160a01b03821682036101705756fe608060409080825260049182361015610022575b5050503615610020575f80fd5b005b5f925f3560e01c9283630758d92414610e9c5750826315889e4314610e65578263277327a514610d9d5782633d3d937d14610d7f5782633fb19a5314610d6157826341da39f914610d4357826343f68a4914610d24578263448b7c7314610d065782634e6fd6c414610cea5782634f6d38d014610ccc57826352cb60ca14610c8957826353cc973b14610c525782635def5f5e14610c1b578263715018a614610bd7578263748747e614610b9457826375950e7114610b5d5782637baf964814610b2e5782638795d4f414610b085782638c04166f14610aec5782638da5cb5b14610ac557826395ccea6714610a175782639d6b5f21146109f8578263aced1661146109d0578263ade43c3714610358578263eb6d3a111461032f578263eec66036146102e5578263f2fde38b14610271578263f340fa01146101b957505063f72f863b14610172578080610013565b346101b65760203660031901126101b65761018b610ebf565b61019361111c565b600180546001600160a01b0319166001600160a01b039290921691909117905580f35b80fd5b909150602036600319011261026d576101d0610ebf565b906101d9611147565b341561023d575060207f36e229bdaedfa85d503535ae31c3ac9e40d88f1ab4fa53870ef2da82df48e9909160018060a01b0316928385526009825280852061022234825461110f565b905551348152a260015f805160206111978339815191525580f35b606490602084519162461bcd60e51b8352820152600a6024820152695a65726f2076616c756560b01b6044820152fd5b8280fd5b9091503461026d57602036600319011261026d5761028d610ebf565b9061029661111c565b6001600160a01b039182169283156102cf5750505f548260018060a01b03198216175f55165f805160206111778339815191525f80a380f35b51631e4fbdf760e01b8152908101849052602490fd5b83903461032b57602036600319011261032b573580151580910361032b5761030b61111c565b600d805460ff60a01b191660a09290921b60ff60a01b1691909117905580f35b5080fd5b83823461032b578160031936011261032b57600d5490516001600160a01b039091168152602090f35b8382346108da57806003193601126108da57610372610ebf565b90602493843592610381611147565b6002546001600160a01b039490851633036109a15784821694855f5260209160098352855f20546003541161096d576103bf6007546006549061110f565b421061094057865f5260098352855f20938454948590600554808811610938575b508682039182116109265755426007556103fb908590611036565b855490670de0b6b3a76400009182039082821161092657818102918183041490151715610914570481106108de578791899187519161043983610efc565b60028352883687850137600d5460ff828216918261045687610f3a565b528c61046187610f5b565b5260a01c1661069f5750600154169161012c42019081421161068d5788608096959493926104ad8a938d51998a9889978896637ff36ab560e01b88528701528501526084840190610ffa565b90306044840152606483015203925af1908115610683578791610661575b5080515f1981019190821161064f57906104e491610f6b565b51925b853b1561064b578451630852cd8d60e31b81528181018590528780828b81838c5af19182610633575b505061061757845163a9059cbb60e01b5f5261dead8252848952825f604481808b5af160015f51148116156105f8575b818752156105e65750858752600a825284872061055e85825461110f565b90555b858752600b825284872061057684825461110f565b9055858752600c8252848720805491600183018093116105d457507fde3ca466246b0da455138dbea78dacd91d3c40dc98d5846ff0193bf67c24b0e796979850558351928352820152a260015f805160206111978339815191525580f35b634e487b7160e01b8952601190528888fd5b868992635274afe760e01b8352820152fd5b600181151661060e57873b15153d151616610540565b503d5f823e3d90fd5b858752600a825284872061062c85825461110f565b9055610561565b61063c90610ed5565b61064757878a610510565b8780fd5b8680fd5b634e487b7160e01b8852601185528888fd5b61067d91503d8089833e6106758183610f17565b810190610f7f565b886104cb565b85513d89823e3d90fd5b634e487b7160e01b8652601189528486fd5b919450919250803b156108da575f8691888a5180948193630d0e30db60e41b83525af180156108d057908b9392916108b8575b5090818a9392600d541660019082825416908b519163095ea7b360e01b92835f52818d528b88528d818c5f60448180895af191875f51148316156108a9575b52156107c8575b5050505054169061012c4201908142116107b65788889261075e87938d51998a98899788966338ed173960e01b885287015285015260a0604485015260a4840190610ffa565b90306064840152608483015203925af190811561068357879161079c575b5080515f1981019190821161064f579061079591610f6b565b51926104e7565b6107b091503d8089833e6106758183610f17565b8861077c565b634e487b7160e01b8552601189528385fd5b909192939495969750835f52818c525f8852895f60448180875af18d865f5114821615610880575b8290521561086c57508b51925f528a52888652875f60448180855af1835f5114811615610840575b828c521561082d5780808e9796959493610718565b635274afe760e01b8252818a0152849150fd5b909192809495965081151661086357908d9594939291813b15153d151616610818565b823d5f823e3d90fd5b635274afe760e01b81528b81018390528790fd5b509091929394809697985081151661060e578f97969594939291903d15843b151516168d6107f0565b91853b15153d15161691610711565b9092506108c6919950610ed5565b5f9789918b6106d2565b88513d5f823e3d90fd5b5f80fd5b855162461bcd60e51b81528086018490526011818b0152701cdb1a5c1c1859d948195e18d959591959607a1b6044820152606490fd5b8a601188634e487b7160e01b5f52525ffd5b8b601189634e487b7160e01b5f52525ffd5b96508c6103e0565b855162461bcd60e51b81528086018490526008818b0152672a37b79039b7b7b760c11b6044820152606490fd5b855162461bcd60e51b8152808601849052600f818b01526e10995b1bddc81d1a1c995cda1bdb19608a1b6044820152606490fd5b835162461bcd60e51b8152602081850152600a81890152692737ba1035b2b2b832b960b11b6044820152606490fd5b50346108da575f3660031901126108da5760025490516001600160a01b039091168152602090f35b346108da5760203660031901126108da57610a1161111c565b35600355005b90346108da57806003193601126108da5781356001600160a01b038116908190036108da5760243590610a4861111c565b610a50611147565b80156108da574782116108da575f80809381935af1913d15610abe573d906001600160401b038211610aab57509051610a9391601f01601f191660200190610f17565b156108da5760015f8051602061119783398151915255005b604190634e487b7160e01b5f525260245ffd5b5050610a93565b50346108da575f3660031901126108da575f5490516001600160a01b039091168152602090f35b90346108da575f3660031901126108da57602091549051908152f35b50346108da575f3660031901126108da5760209060ff600d5460a01c1690519015158152f35b50346108da57806003193601126108da57602090610b56610b4d610ebf565b60243590611036565b9051908152f35b50346108da5760203660031901126108da576020906001600160a01b03610b82610ebf565b165f52600b8252805f20549051908152f35b346108da5760203660031901126108da57610bad610ebf565b610bb561111c565b600280546001600160a01b0319166001600160a01b0392909216919091179055005b346108da575f3660031901126108da57610bef61111c565b5f80546001600160a01b0319811682556001600160a01b03165f805160206111778339815191528280a3005b50346108da5760203660031901126108da576020906001600160a01b03610c40610ebf565b165f5260098252805f20549051908152f35b50346108da5760203660031901126108da576020906001600160a01b03610c77610ebf565b165f52600a8252805f20549051908152f35b346108da5760203660031901126108da57610ca2610ebf565b610caa61111c565b600d80546001600160a01b0319166001600160a01b0392909216919091179055005b50346108da575f3660031901126108da576020906003549051908152f35b50346108da575f3660031901126108da576020905161dead8152f35b50346108da575f3660031901126108da576020906005549051908152f35b346108da5760203660031901126108da57610d3d61111c565b80359055005b50346108da575f3660031901126108da576020906008549051908152f35b50346108da575f3660031901126108da576020906006549051908152f35b50346108da575f3660031901126108da576020906007549051908152f35b90346108da5760603660031901126108da57610db7610ebf565b6001600160a01b036024358181169392908490036108da57610dd761111c565b610ddf611147565b83156108da57169080519263a9059cbb60e01b5f5284526044356024528260205f60448180875af19160015f5114831615610e40575b5215610e2e5760015f8051602061119783398151915255005b602492635274afe760e01b8352820152fd5b9190506001811516610e5c578390833b15153d15161691610e15565b833d5f823e3d90fd5b50346108da5760203660031901126108da576020906001600160a01b03610e8a610ebf565b165f52600c8252805f20549051908152f35b346108da575f3660031901126108da576001546001600160a01b03168152602090f35b600435906001600160a01b03821682036108da57565b6001600160401b038111610ee857604052565b634e487b7160e01b5f52604160045260245ffd5b606081019081106001600160401b03821117610ee857604052565b601f909101601f19168101906001600160401b03821190821017610ee857604052565b805115610f475760200190565b634e487b7160e01b5f52603260045260245ffd5b805160011015610f475760400190565b8051821015610f475760209160051b010190565b9060209081838203126108da5782516001600160401b03938482116108da570181601f820112156108da578051938411610ee8578360051b9060405194610fc885840187610f17565b855283808601928201019283116108da578301905b828210610feb575050505090565b81518152908301908301610fdd565b9081518082526020808093019301915f5b828110611019575050505090565b83516001600160a01b03168552938101939281019260010161100b565b6040516110a9925f9261104883610efc565b600283526040366020850137600d546001600160a01b039190821661106c85610f3a565b528161107785610f5b565b91169052600154169060405180958194829363d06ca61f60e01b84526004840152604060248401526044830190610ffa565b03915afa908115611104575f916110ea575b5080515f1981019081116110d6576110d291610f6b565b5190565b634e487b7160e01b5f52601160045260245ffd5b6110fe91503d805f833e6106758183610f17565b5f6110bb565b6040513d5f823e3d90fd5b919082018092116110d657565b5f546001600160a01b0316330361112f57565b60405163118cdaa760e01b8152336004820152602490fd5b5f8051602061119783398151915260028154146111645760029055565b604051633ee5aeb560e01b8152600490fdfe8be0079c531659141344cd1fd0a4f28419497f9722a3daafe3b4186f6b6457e09b779b17422d0df92223018b32b4d1fa46e071723d6817e2486d003becc55f00a2646970667358221220927815ad16c0b7fd4b0692c5b09e678a7631db4103048352a4b407c98b56a79164736f6c63430008180033",
  "linkReferences": {},
  "deployedLinkReferences": {},
  "immutableReferences": {},
  "inputSourceName": "project/contracts/periphery/BuyAndBurnEngine.sol",
  "buildInfoId": "solc-0_8_24-90400f2b29e1ab6d772eccdb956b8a125eaef08a"
}