{
  "_format": "hh3-artifact-1",
  "contractName": "BondingCurveFactory",
  "sourceName": "contracts/core/BondingCurveFactory.sol",
  "abi": [
    {
      "inputs": [
        {
          "internalType": "address payable",
          "name": "_bondingCurve",
          "type": "address"
        }
      ],
      "stateMutability": "nonpayable",
      "type": "constructor"
    },
    {
      "inputs": [
        {
          "internalType": "address",
          "name": "owner",
          "type": "address"
        }
      ],
      "name": "OwnableInvalidOwner",
      "type": "error"
    },
    {
      "inputs": [
        {
          "internalType": "address",
          "name": "account",
          "type": "address"
        }
      ],
      "name": "OwnableUnauthorizedAccount",
      "type": "error"
    },
    {
      "anonymous": false,
      "inputs": [
        {
          "indexed": true,
          "internalType": "address",
          "name": "previousOwner",
          "type": "address"
        },
        {
          "indexed": true,
          "internalType": "address",
          "name": "newOwner",
          "type": "address"
        }
      ],
      "name": "OwnershipTransferred",
      "type": "event"
    },
    {
      "anonymous": false,
      "inputs": [
        {
          "indexed": true,
          "internalType": "address",
          "name": "token",
          "type": "address"
        },
        {
          "indexed": true,
          "internalType": "address",
          "name": "creator",
          "type": "address"
        },
        {
          "indexed": false,
          "internalType": "string",
          "name": "name",
          "type": "string"
        },
        {
          "indexed": false,
          "internalType": "string",
          "name": "symbol",
          "type": "string"
        },
        {
          "indexed": false,
          "internalType": "uint256",
          "name": "totalSupply",
          "type": "uint256"
        }
      ],
      "name": "TokenCreated",
      "type": "event"
    },
    {
      "inputs": [
        {
          "internalType": "uint256",
          "name": "",
          "type": "uint256"
        }
      ],
      "name": "allTokens",
      "outputs": [
        {
          "internalType": "address",
          "name": "",
          "type": "address"
        }
      ],
      "stateMutability": "view",
      "type": "function"
    },
    {
      "inputs": [],
      "name": "allTokensLength",
      "outputs": [
        {
          "internalType": "uint256",
          "name": "",
          "type": "uint256"
        }
      ],
      "stateMutability": "view",
      "type": "function"
    },
    {
      "inputs": [],
      "name": "bondingCurve",
      "outputs": [
        {
          "internalType": "address payable",
          "name": "",
          "type": "address"
        }
      ],
      "stateMutability": "view",
      "type": "function"
    },
    {
      "inputs": [
        {
          "internalType": "string",
          "name": "name",
          "type": "string"
        },
        {
          "internalType": "string",
          "name": "symbol",
          "type": "string"
        },
        {
          "internalType": "uint256",
          "name": "totalSupply",
          "type": "uint256"
        },
        {
          "internalType": "string",
          "name": "metadataURI",
          "type": "string"
        },
        {
          "internalType": "bool",
          "name": "wantTaxShare",
          "type": "bool"
        },
        {
          "internalType": "bool",
          "name": "wantLpShare",
          "type": "bool"
        },
        {
          "internalType": "bool",
          "name": "wantTokenAllocation",
          "type": "bool"
        }
      ],
      "name": "createToken",
      "outputs": [
        {
          "internalType": "address",
          "name": "",
          "type": "address"
        }
      ],
      "stateMutability": "payable",
      "type": "function"
    },
    {
      "inputs": [
        {
          "internalType": "address",
          "name": "token",
          "type": "address"
        }
      ],
      "name": "getCurve",
      "outputs": [
        {
          "internalType": "address",
          "name": "",
          "type": "address"
        }
      ],
      "stateMutability": "view",
      "type": "function"
    },
    {
      "inputs": [
        {
          "internalType": "uint256",
          "name": "offset",
          "type": "uint256"
        },
        {
          "internalType": "uint256",
          "name": "limit",
          "type": "uint256"
        }
      ],
      "name": "getTokens",
      "outputs": [
        {
          "internalType": "address[]",
          "name": "",
          "type": "address[]"
        }
      ],
      "stateMutability": "view",
      "type": "function"
    },
    {
      "inputs": [
        {
          "internalType": "address",
          "name": "",
          "type": "address"
        }
      ],
      "name": "isTokenCreated",
      "outputs": [
        {
          "internalType": "bool",
          "name": "",
          "type": "bool"
        }
      ],
      "stateMutability": "view",
      "type": "function"
    },
    {
      "inputs": [],
      "name": "owner",
      "outputs": [
        {
          "internalType": "address",
          "name": "",
          "type": "address"
        }
      ],
      "stateMutability": "view",
      "type": "function"
    },
    {
      "inputs": [],
      "name": "renounceOwnership",
      "outputs": [],
      "stateMutability": "nonpayable",
      "type": "function"
    },
    {
      "inputs": [
        {
          "internalType": "address payable",
          "name": "_bondingCurve",
          "type": "address"
        }
      ],
      "name": "setBondingCurve",
      "outputs": [],
      "stateMutability": "nonpayable",
      "type": "function"
    },
    {
      "inputs": [],
      "name": "tokenCount",
      "outputs": [
        {
          "internalType": "uint256",
          "name": "",
          "type": "uint256"
        }
      ],
      "stateMutability": "view",
      "type": "function"
    },
    {
      "inputs": [
        {
          "internalType": "address",
          "name": "",
          "type": "address"
        }
      ],
      "name": "tokenToCurve",
      "outputs": [
        {
          "internalType": "address",
          "name": "",
          "type": "address"
        }
      ],
      "stateMutability": "view",
      "type": "function"
    },
    {
      "inputs": [
        {
          "internalType": "address",
          "name": "newOwner",
          "type": "address"
        }
      ],
      "name": "transferOwnership",
      "outputs": [],
      "stateMutability": "nonpayable",
      "type": "function"
    }
  ],
  "bytecode": "0x6080346100c257601f6109b038819003918201601f19168301916001600160401b038311848410176100c6578084926020946040528339810103126100c257516001600160a01b0390818116908190036100c25733156100aa575f5460018060a01b03199033828216175f55604051933391167f8be0079c531659141344cd1fd0a4f28419497f9722a3daafe3b4186f6b6457e05f80a360015416176001556108d590816100db8239f35b604051631e4fbdf760e01b81525f6004820152602490fd5b5f80fd5b634e487b7160e01b5f52604160045260245ffdfe6080806040526004361015610012575f80fd5b5f3560e01c9081630c74fbac146106805750806343ff1fb81461063c578063494cfc6c146105d057806361f029fb14610592578063634282af14610550578063715018a61461050c5780637d4105e4146101ea5780638da5cb5b146101c35780639f181b5e146101a6578063a0c0f72014610165578063dbb80e4214610148578063eff1d50e146101205763f2fde38b146100ab575f80fd5b3461011c57602036600319011261011c576004356001600160a01b038181169182900361011c576100da610854565b8115610104575f548260018060a01b03198216175f55165f805160206108808339815191525f80a3005b604051631e4fbdf760e01b81525f6004820152602490fd5b5f80fd5b3461011c575f36600319011261011c576001546040516001600160a01b039091168152602090f35b3461011c575f36600319011261011c576020600254604051908152f35b3461011c57602036600319011261011c576004356001600160a01b0381169081900361011c575f526004602052602060ff60405f2054166040519015158152f35b3461011c575f36600319011261011c576020600554604051908152f35b3461011c575f36600319011261011c575f546040516001600160a01b039091168152602090f35b60e036600319011261011c576001600160401b0360043581811161011c576102169036906004016106e7565b60243583811161011c5761022e9036906004016106e7565b909360643590811161011c576102489036906004016106e7565b939060843590811515820361011c5760a43595861515870361011c5760c43592831515840361011c576001546040516337382d3960e21b81526001600160a01b039091169490602081600481895afa908115610497575f916104da575b5034106104a257604051631f50417960e21b815260e0600482015298899485948c6102d460e488018d8c610834565b8b6003198983030160248a01526102ea92610834565b90604435604488015260031987830301606488015261030892610834565b9215156084850152151560a4840152151560c48301520381345a94602095f1938415610497575f94610453575b50600254600160401b81101561043f5780600161035592016002556106bb565b81546001600160a01b03600392831b81811b199092169781169182901b97909717909255600180545f8481526020938452604080822080546001600160a01b03191693909a169290921790985560049092529520805460ff1916909517909455600554905f19821461042b5760209585936104076104149360017f6e6ae68e7d7d45fbd855c40d1eaafa8de46c5fbec3ee26f1af88730e400bc92c960160055560405197606089526060890191610834565b9186830389880152610834565b9260443560408201528033940390a3604051908152f35b634e487b7160e01b5f52601160045260245ffd5b634e487b7160e01b5f52604160045260245ffd5b9093506020813d60201161048f575b8161046f60209383610714565b8101031261011c57516001600160a01b038116810361011c579285610335565b3d9150610462565b6040513d5f823e3d90fd5b60405162461bcd60e51b815260206004820152601060248201526f696e73756666696369656e742066656560801b6044820152606490fd5b90506020813d602011610504575b816104f560209383610714565b8101031261011c57518b6102a5565b3d91506104e8565b3461011c575f36600319011261011c57610524610854565b5f80546001600160a01b0319811682556001600160a01b03165f805160206108808339815191528280a3005b3461011c57602036600319011261011c5760043560025481101561011c576105796020916106bb565b905460405160039290921b1c6001600160a01b03168152f35b3461011c57602036600319011261011c576004356001600160a01b038181169182900361011c576020915f526003825260405f205416604051908152f35b3461011c57604036600319011261011c576105ef60243560043561075b565b604051809160208083016020845282518091526020604085019301915f5b82811061061c57505050500390f35b83516001600160a01b03168552869550938101939281019260010161060d565b3461011c57602036600319011261011c576004356001600160a01b0381169081900361011c5761066a610854565b600180546001600160a01b031916919091179055005b3461011c57602036600319011261011c576004356001600160a01b03818116929183900361011c576020925f526003835260405f2054168152f35b6002548110156106d35760025f5260205f2001905f90565b634e487b7160e01b5f52603260045260245ffd5b9181601f8401121561011c578235916001600160401b03831161011c576020838186019501011161011c57565b601f909101601f19168101906001600160401b0382119082101761043f57604052565b6001600160401b03811161043f5760051b60200190565b9190820391821161042b57565b600254918282101561080a5781019182821161042b57808311610802575b50610784818361074e565b916107a761079184610737565b9361079f6040519586610714565b808552610737565b602090601f19013685830137825b8281106107c3575050505090565b6107cc816106bb565b9190546107d9868361074e565b9087518210156106d3576001938591858060a01b039160031b1c169160051b88010152016107b5565b91505f610779565b50506040519050602081016001600160401b0381118282101761043f576040525f81525f36813790565b908060209392818452848401375f828201840152601f01601f1916010190565b5f546001600160a01b0316330361086757565b60405163118cdaa760e01b8152336004820152602490fdfe8be0079c531659141344cd1fd0a4f28419497f9722a3daafe3b4186f6b6457e0a2646970667358221220fc40732bb23a804e6f67562eea28078cc25e4f7c9a769d118fcd9caaaecb583464736f6c63430008180033",
  "linkReferences": {},
  "deployedLinkReferences": {},
  "immutableReferences": {},
  "inputSourceName": "project/contracts/core/BondingCurveFactory.sol",
  "buildInfoId": "solc-0_8_24-90400f2b29e1ab6d772eccdb956b8a125eaef08a"
}