{
  "_format": "hh3-artifact-1",
  "contractName": "PriceOracle",
  "sourceName": "contracts/periphery/PriceOracle.sol",
  "abi": [
    {
      "inputs": [],
      "stateMutability": "nonpayable",
      "type": "constructor"
    },
    {
      "inputs": [
        {
          "internalType": "address",
          "name": "owner",
          "type": "address"
        }
      ],
      "name": "OwnableInvalidOwner",
      "type": "error"
    },
    {
      "inputs": [
        {
          "internalType": "address",
          "name": "account",
          "type": "address"
        }
      ],
      "name": "OwnableUnauthorizedAccount",
      "type": "error"
    },
    {
      "anonymous": false,
      "inputs": [
        {
          "indexed": true,
          "internalType": "address",
          "name": "previousOwner",
          "type": "address"
        },
        {
          "indexed": true,
          "internalType": "address",
          "name": "newOwner",
          "type": "address"
        }
      ],
      "name": "OwnershipTransferred",
      "type": "event"
    },
    {
      "anonymous": false,
      "inputs": [
        {
          "indexed": true,
          "internalType": "address",
          "name": "token",
          "type": "address"
        },
        {
          "indexed": false,
          "internalType": "uint256",
          "name": "price",
          "type": "uint256"
        },
        {
          "indexed": false,
          "internalType": "uint256",
          "name": "reserveBase",
          "type": "uint256"
        },
        {
          "indexed": false,
          "internalType": "uint256",
          "name": "reserveToken",
          "type": "uint256"
        }
      ],
      "name": "PriceUpdatedFromDex",
      "type": "event"
    },
    {
      "inputs": [],
      "name": "DEVIATION_THRESHOLD",
      "outputs": [
        {
          "internalType": "uint256",
          "name": "",
          "type": "uint256"
        }
      ],
      "stateMutability": "view",
      "type": "function"
    },
    {
      "inputs": [],
      "name": "MAX_PRICE_AGE",
      "outputs": [
        {
          "internalType": "uint256",
          "name": "",
          "type": "uint256"
        }
      ],
      "stateMutability": "view",
      "type": "function"
    },
    {
      "inputs": [],
      "name": "PRICE_DELAY",
      "outputs": [
        {
          "internalType": "uint256",
          "name": "",
          "type": "uint256"
        }
      ],
      "stateMutability": "view",
      "type": "function"
    },
    {
      "inputs": [],
      "name": "TWAP_PERIOD",
      "outputs": [
        {
          "internalType": "uint256",
          "name": "",
          "type": "uint256"
        }
      ],
      "stateMutability": "view",
      "type": "function"
    },
    {
      "inputs": [
        {
          "internalType": "address",
          "name": "",
          "type": "address"
        }
      ],
      "name": "authorizedUpdaters",
      "outputs": [
        {
          "internalType": "bool",
          "name": "",
          "type": "bool"
        }
      ],
      "stateMutability": "view",
      "type": "function"
    },
    {
      "inputs": [],
      "name": "baseAsset",
      "outputs": [
        {
          "internalType": "address",
          "name": "",
          "type": "address"
        }
      ],
      "stateMutability": "view",
      "type": "function"
    },
    {
      "inputs": [
        {
          "internalType": "address",
          "name": "",
          "type": "address"
        }
      ],
      "name": "chainlinkFeeds",
      "outputs": [
        {
          "internalType": "address",
          "name": "",
          "type": "address"
        }
      ],
      "stateMutability": "view",
      "type": "function"
    },
    {
      "inputs": [],
      "name": "dexFactory",
      "outputs": [
        {
          "internalType": "address",
          "name": "",
          "type": "address"
        }
      ],
      "stateMutability": "view",
      "type": "function"
    },
    {
      "inputs": [
        {
          "internalType": "address",
          "name": "",
          "type": "address"
        }
      ],
      "name": "effectivePrice",
      "outputs": [
        {
          "internalType": "uint256",
          "name": "",
          "type": "uint256"
        }
      ],
      "stateMutability": "view",
      "type": "function"
    },
    {
      "inputs": [
        {
          "internalType": "address",
          "name": "",
          "type": "address"
        }
      ],
      "name": "effectivePriceTime",
      "outputs": [
        {
          "internalType": "uint256",
          "name": "",
          "type": "uint256"
        }
      ],
      "stateMutability": "view",
      "type": "function"
    },
    {
      "inputs": [
        {
          "internalType": "address",
          "name": "token",
          "type": "address"
        }
      ],
      "name": "getPrice",
      "outputs": [
        {
          "internalType": "uint256",
          "name": "",
          "type": "uint256"
        }
      ],
      "stateMutability": "view",
      "type": "function"
    },
    {
      "inputs": [
        {
          "internalType": "address",
          "name": "token",
          "type": "address"
        }
      ],
      "name": "getPriceUpdatedAt",
      "outputs": [
        {
          "internalType": "uint256",
          "name": "",
          "type": "uint256"
        }
      ],
      "stateMutability": "view",
      "type": "function"
    },
    {
      "inputs": [
        {
          "internalType": "address",
          "name": "",
          "type": "address"
        }
      ],
      "name": "lastUpdateTime",
      "outputs": [
        {
          "internalType": "uint256",
          "name": "",
          "type": "uint256"
        }
      ],
      "stateMutability": "view",
      "type": "function"
    },
    {
      "inputs": [],
      "name": "owner",
      "outputs": [
        {
          "internalType": "address",
          "name": "",
          "type": "address"
        }
      ],
      "stateMutability": "view",
      "type": "function"
    },
    {
      "inputs": [],
      "name": "renounceOwnership",
      "outputs": [],
      "stateMutability": "nonpayable",
      "type": "function"
    },
    {
      "inputs": [
        {
          "internalType": "address",
          "name": "updater",
          "type": "address"
        },
        {
          "internalType": "bool",
          "name": "authorized",
          "type": "bool"
        }
      ],
      "name": "setAuthorizedUpdater",
      "outputs": [],
      "stateMutability": "nonpayable",
      "type": "function"
    },
    {
      "inputs": [
        {
          "internalType": "address",
          "name": "token",
          "type": "address"
        },
        {
          "internalType": "address",
          "name": "feed",
          "type": "address"
        }
      ],
      "name": "setChainlinkFeed",
      "outputs": [],
      "stateMutability": "nonpayable",
      "type": "function"
    },
    {
      "inputs": [
        {
          "internalType": "address",
          "name": "_dexFactory",
          "type": "address"
        },
        {
          "internalType": "address",
          "name": "_baseAsset",
          "type": "address"
        }
      ],
      "name": "setDexConfig",
      "outputs": [],
      "stateMutability": "nonpayable",
      "type": "function"
    },
    {
      "inputs": [
        {
          "internalType": "address",
          "name": "token",
          "type": "address"
        },
        {
          "internalType": "address",
          "name": "pair",
          "type": "address"
        }
      ],
      "name": "setTokenDexPair",
      "outputs": [],
      "stateMutability": "nonpayable",
      "type": "function"
    },
    {
      "inputs": [
        {
          "internalType": "address",
          "name": "",
          "type": "address"
        }
      ],
      "name": "tokenDexPairs",
      "outputs": [
        {
          "internalType": "address",
          "name": "",
          "type": "address"
        }
      ],
      "stateMutability": "view",
      "type": "function"
    },
    {
      "inputs": [
        {
          "internalType": "address",
          "name": "newOwner",
          "type": "address"
        }
      ],
      "name": "transferOwnership",
      "outputs": [],
      "stateMutability": "nonpayable",
      "type": "function"
    },
    {
      "inputs": [
        {
          "internalType": "address",
          "name": "",
          "type": "address"
        }
      ],
      "name": "twapPrices",
      "outputs": [
        {
          "internalType": "uint256",
          "name": "",
          "type": "uint256"
        }
      ],
      "stateMutability": "view",
      "type": "function"
    },
    {
      "inputs": [
        {
          "internalType": "address",
          "name": "token",
          "type": "address"
        }
      ],
      "name": "updateEffectivePrice",
      "outputs": [],
      "stateMutability": "nonpayable",
      "type": "function"
    },
    {
      "inputs": [
        {
          "internalType": "address",
          "name": "token",
          "type": "address"
        }
      ],
      "name": "updatePriceFromDex",
      "outputs": [
        {
          "internalType": "uint256",
          "name": "",
          "type": "uint256"
        }
      ],
      "stateMutability": "nonpayable",
      "type": "function"
    },
    {
      "inputs": [
        {
          "internalType": "address",
          "name": "token",
          "type": "address"
        },
        {
          "internalType": "uint256",
          "name": "newPrice",
          "type": "uint256"
        }
      ],
      "name": "updateTwapPrice",
      "outputs": [],
      "stateMutability": "nonpayable",
      "type": "function"
    }
  ],
  "bytecode": "0x60808060405234610078573315610063575f8054336001600160a01b03198216811783556040519290916001600160a01b0316907f8be0079c531659141344cd1fd0a4f28419497f9722a3daafe3b4186f6b6457e09080a3610e84908161007d8239f35b631e4fbdf760e01b81525f6004820152602490fd5b5f80fdfe608060409080825260049081361015610016575f80fd5b5f3560e01c9081630f3c40ea146107f25750806310fd6134146107bb57806316f2a53614610785578063246956c1146106d05780632959ea3b146106975780632ce9aead1461066057806341976e09146106345780635537c6c6146105de57806369ef32d214610587578063712be6fd14610531578063715018a6146104ed578063716e5192146104965780637ca251841461047a57806385f89eef1461040e5780638da5cb5b146103e75780638ff29cfe146103ab578063941bf20a1461037457806399fc65d4146103225780639d7f7e8614610306578063ad80580c14610251578063b849116414610230578063b8d8fbb414610208578063cdf456e1146101e0578063e8c16500146101a75763f2fde38b14610133575f80fd5b346101a35760203660031901126101a35761014c61080c565b90610155610bf3565b6001600160a01b0391821692831561018d5750505f548260018060a01b03198216175f55165f80516020610e2f8339815191525f80a3005b905f6024925191631e4fbdf760e01b8352820152fd5b5f80fd5b82346101a35760203660031901126101a3576020906001600160a01b03806101cd61080c565b165f5260018352815f2054169051908152f35b82346101a3575f3660031901126101a35760085490516001600160a01b039091168152602090f35b82346101a3575f3660031901126101a35760075490516001600160a01b039091168152602090f35b82346101a3575f3660031901126101a357602090516611c37937e080008152f35b5090346101a357602091826003193601126101a35761026e61080c565b92335f526006815261028560ff845f205416610938565b60018060a01b0380851694855f5260028352845f20549160018452855f2054166102e0575b50845f5260058252835f20556102584201938442116102cd575f52525f20555f80f35b601183634e487b7160e01b5f525260245ffd5b6102e990610c32565b80156102aa576102f98183610db1565b156102aa5790505f6102aa565b82346101a3575f3660031901126101a35760209051610e108152f35b82346101a357806003193601126101a35761033b61080c565b90602435918215158093036101a357610352610bf3565b60018060a01b03165f5260066020525f209060ff801983541691161790555f80f35b82346101a35760203660031901126101a3576020906001600160a01b0361039961080c565b165f5260058252805f20549051908152f35b82346101a35760203660031901126101a3576020906001600160a01b036103d061080c565b165f526006825260ff815f20541690519015158152f35b82346101a3575f3660031901126101a3575f5490516001600160a01b039091168152602090f35b5090346101a35760203660031901126101a3576001600160a01b0361043161080c565b165f81815260208490528290205415610467575f5281602052805f20546102571981019081116102cd5760209250905b51908152f35b506020915060038252805f205490610461565b82346101a3575f3660031901126101a357602090516138408152f35b82346101a357806003193601126101a3576104af61080c565b6104b7610822565b916104c0610bf3565b6001600160a01b039182165f90815260096020522080546001600160a01b03191692909116919091179055005b346101a3575f3660031901126101a357610505610bf3565b5f80546001600160a01b0319811682556001600160a01b03165f80516020610e2f8339815191528280a3005b82346101a357806003193601126101a35761054a61080c565b335f52600660205261056160ff835f205416610938565b6001600160a01b03165f9081526002602090815282822060243590556003905220429055005b82346101a357806003193601126101a3576105a061080c565b6105a8610822565b916105b1610bf3565b6001600160a01b039182165f90815260016020522080546001600160a01b03191692909116919091179055005b82346101a3573660031901126101a3576105f661080c565b6105fe610822565b610606610bf3565b600780546001600160a01b039384166001600160a01b03199182161790915560088054929093169116179055005b82346101a35760203660031901126101a35760209061065961065461080c565b610859565b9051908152f35b82346101a35760203660031901126101a3576020906001600160a01b0361068561080c565b165f5260038252805f20549051908152f35b82346101a35760203660031901126101a3576020906001600160a01b03806106bd61080c565b165f5260098352815f2054169051908152f35b50346101a357602091826003193601126101a3576106ec61080c565b6106f5816109e9565b928315610753575060018060a01b0316805f526002845282825f20556003845242825f20557f41efb4588920af82c5127de9396eff282cefda604c83706d1dadf421f4861342606083518581525f878201525f85820152a251908152f35b825162461bcd60e51b8152908101859052600c60248201526b6e6f2064657820707269636560a01b6044820152606490fd5b5090346101a35760203660031901126101a3576020916001600160a01b036107ab61080c565b165f528252805f20549051908152f35b82346101a35760203660031901126101a3576020906001600160a01b036107e061080c565b165f5260028252805f20549051908152f35b346101a3575f3660031901126101a3578061025860209252f35b600435906001600160a01b03821682036101a357565b602435906001600160a01b03821682036101a357565b9190820391821161084557565b634e487b7160e01b5f52601160045260245ffd5b60018060a01b03811690815f5260209060058252604092835f2054151580610927575b61091b5760028352835f205415158061090b575b806108ef575b6108e157506108a4906109e9565b9182156108b057505090565b60649250519062461bcd60e51b82526004820152600b60248201526a7374616c6520707269636560a81b6044820152fd5b60029291505f52525f205490565b5060038352610e10610904855f205442610838565b1115610896565b5060038352835f20541515610890565b5050600590525f205490565b5060048352835f205442101561087c565b1561093f57565b60405162461bcd60e51b815260206004820152600e60248201526d1b9bdd08185d5d1a1bdc9a5e995960921b6044820152606490fd5b601f909101601f19168101906001600160401b0382119082101761099857604052565b634e487b7160e01b5f52604160045260245ffd5b908160209103126101a357516001600160a01b03811681036101a35790565b81156109d5570490565b634e487b7160e01b5f52601260045260245ffd5b60018060a01b03809116805f526020600981528260409281845f20541690811580610be6575b80610bd9575b610b6c575b5016918215610b64578051630240bc6b60e21b815293606085600481875afa938415610b5a575f955f95610b20575b50851593848015610b18575b610b0d5780600492855193848092630dfe168160e01b82525afa938415610b0457505f93610ad5575b505080600854169116145f14610ab057670de0b6b3a764000080840293840414171561084557610aad916109cb565b90565b5090670de0b6b3a76400009182810292818404149015171561084557610aad916109cb565b610af5929350803d10610afd575b610aed8183610975565b8101906109ac565b905f80610a7e565b503d610ae3565b513d5f823e3d90fd5b505050505050505f90565b508515610a55565b955093506060853d606011610b52575b81610b3d60609383610975565b810103126101a357828551950151935f610a49565b3d9150610b30565b82513d5f823e3d90fd5b505050505f90565b91839150600754169160448660085416918651948593849263e6a4390560e01b8452600484015260248301525afa908115610bcf579084915f91610bb2575b505f610a1a565b610bc99150833d8511610afd57610aed8183610975565b5f610bab565b83513d5f823e3d90fd5b5082600854161515610a15565b5082600754161515610a0f565b5f546001600160a01b03163303610c0657565b60405163118cdaa760e01b8152336004820152602490fd5b51906001600160501b03821682036101a357565b60018060a01b038091165f526020906001825260405f2054168015610dab57604051633fabe5a360e21b81529160a083600481855afa928315610d3a575f935f945f925f92610d56575b505f861315610d4c576001600160501b03908116911610610b6457610ca4610e109142610838565b11610d4557806004926040519384809263313ce56760e01b82525afa908115610d3a575f91610d01575b5060ff91501660120360ff81116108455760ff16604d811161084557600a0a908181029181830414901517156108455790565b905081813d8311610d33575b610d178183610975565b810103126101a3575160ff811681036101a35760ff905f610cce565b503d610d0d565b6040513d5f823e3d90fd5b5050505f90565b5050505050505f90565b955050505060a0833d60a011610da3575b81610d7460a09383610975565b810103126101a357610d8583610c1e565b81840151610d9a608060608701519601610c1e565b9094915f610c7c565b3d9150610d67565b50505f90565b80158015610e26575b610e1f5781811115610e0f57610dd08282610838565b915b810180911161084557670de0b6b3a764000091828102928184041490151715610845576611c37937e0800091610e0b9160011c906109cb565b1090565b610e198183610838565b91610dd2565b5050600190565b508115610dba56fe8be0079c531659141344cd1fd0a4f28419497f9722a3daafe3b4186f6b6457e0a264697066735822122016a965aa8316a831da958f28b118697db61881ad66ad8cc38faa8c7d178a4c0664736f6c63430008180033",
  "linkReferences": {},
  "deployedLinkReferences": {},
  "immutableReferences": {},
  "inputSourceName": "project/contracts/periphery/PriceOracle.sol",
  "buildInfoId": "solc-0_8_24-09361ceb9aa7eab9dad68e9ecc9bb798a7b63a45"
}