{
  "_format": "hh3-artifact-1",
  "contractName": "LinearRateModel",
  "sourceName": "contracts/pool/LinearRateModel.sol",
  "abi": [
    {
      "inputs": [
        {
          "internalType": "uint256",
          "name": "prod1",
          "type": "uint256"
        }
      ],
      "name": "PRBMath__MulDivFixedPointOverflow",
      "type": "error"
    },
    {
      "inputs": [
        {
          "internalType": "uint256",
          "name": "prod1",
          "type": "uint256"
        },
        {
          "internalType": "uint256",
          "name": "denominator",
          "type": "uint256"
        }
      ],
      "name": "PRBMath__MulDivOverflow",
      "type": "error"
    },
    {
      "inputs": [],
      "name": "baseRatePerYear",
      "outputs": [
        {
          "internalType": "uint256",
          "name": "",
          "type": "uint256"
        }
      ],
      "stateMutability": "view",
      "type": "function"
    },
    {
      "inputs": [
        {
          "internalType": "uint256",
          "name": "utilization",
          "type": "uint256"
        }
      ],
      "name": "getDailyRate",
      "outputs": [
        {
          "internalType": "uint256",
          "name": "",
          "type": "uint256"
        }
      ],
      "stateMutability": "view",
      "type": "function"
    },
    {
      "inputs": [
        {
          "internalType": "uint256",
          "name": "utilization",
          "type": "uint256"
        }
      ],
      "name": "getPerSecondRate",
      "outputs": [
        {
          "internalType": "uint256",
          "name": "",
          "type": "uint256"
        }
      ],
      "stateMutability": "view",
      "type": "function"
    },
    {
      "inputs": [
        {
          "internalType": "uint256",
          "name": "utilization",
          "type": "uint256"
        }
      ],
      "name": "getRate",
      "outputs": [
        {
          "internalType": "uint256",
          "name": "",
          "type": "uint256"
        }
      ],
      "stateMutability": "view",
      "type": "function"
    },
    {
      "inputs": [],
      "name": "jumpMultiplierPerYear",
      "outputs": [
        {
          "internalType": "uint256",
          "name": "",
          "type": "uint256"
        }
      ],
      "stateMutability": "view",
      "type": "function"
    },
    {
      "inputs": [],
      "name": "kink",
      "outputs": [
        {
          "internalType": "uint256",
          "name": "",
          "type": "uint256"
        }
      ],
      "stateMutability": "view",
      "type": "function"
    },
    {
      "inputs": [],
      "name": "multiplierPerYear",
      "outputs": [
        {
          "internalType": "uint256",
          "name": "",
          "type": "uint256"
        }
      ],
      "stateMutability": "view",
      "type": "function"
    }
  ],
  "bytecode": "0x608080604052346100445766470de4df8200005f5567011c37937e080000600155670de0b6b3a7640000600255670b1a2bc2ec50000060035561037390816100498239f35b5f80fdfe60806040908082526004361015610014575f80fd5b5f3560e01c90816341bac6001461013e57508063577640941461011757806379138383146100f2578063b8113946146100c7578063de3f9485146100aa578063f1b820d51461008c5763fd2da3391461006b575f80fd5b34610088575f366003190112610088576020906003549051908152f35b5f80fd5b5034610088575f366003190112610088576020906001549051908152f35b5034610088575f366003190112610088576020905f549051908152f35b50346100885760203660031901126100885760209061016d6100ea600435610179565b049051908152f35b5034610088576020366003190112610088576020906301e133806100ea600435610179565b503461008857602036600319011261008857602090610137600435610179565b9051908152f35b34610088575f366003190112610088576020906002548152f35b9190820180921161016557565b634e487b7160e01b5f52601160045260245ffd5b600354908181116101a85761019f6101a59261019a5f5493600154906101ed565b61027f565b90610158565b90565b6101b65f5460015490610158565b90828103908111610165576002546101cd916101ed565b670de0b6b3a7640000928303928311610165576101a59261019f9161027f565b5f19828209828202908180821091039381850390670de0b6b3a764000094858310156102665790859109916706f05b59d3b1ffff8311951461025f577faccb18165bd6fe31ae1cf318dc5b51eee0e1ba569b88cd74c1773b91fac106699350828211900360ee1b910360121c17020190565b5050040190565b60405163698d9a0160e11b815260048101849052602490fd5b670de0b6b3a7640000915f19838309928083029283808610950394808603951461031b57828510156102fd579082910960018219018216809204600280826003021880830282030280830282030280830282030280830282030280830282030280920290030293600183805f03040190848311900302920304170290565b6044858460405191631dcf306360e21b835260048301526024820152fd5b505080925015610329570490565b634e487b7160e01b5f52601260045260245ffdfea2646970667358221220c2c84482b9b2b873b688b455dd09a780736ac0d78b72a271a5bc3f59cc831d4264736f6c63430008180033",
  "linkReferences": {},
  "deployedLinkReferences": {},
  "immutableReferences": {},
  "inputSourceName": "project/contracts/pool/LinearRateModel.sol",
  "buildInfoId": "solc-0_8_24-90400f2b29e1ab6d772eccdb956b8a125eaef08a"
}