{
  "_format": "hh3-artifact-1",
  "contractName": "SimplePair",
  "sourceName": "contracts/periphery/SimplePair.sol",
  "abi": [
    {
      "inputs": [],
      "stateMutability": "nonpayable",
      "type": "constructor"
    },
    {
      "inputs": [
        {
          "internalType": "address",
          "name": "spender",
          "type": "address"
        },
        {
          "internalType": "uint256",
          "name": "allowance",
          "type": "uint256"
        },
        {
          "internalType": "uint256",
          "name": "needed",
          "type": "uint256"
        }
      ],
      "name": "ERC20InsufficientAllowance",
      "type": "error"
    },
    {
      "inputs": [
        {
          "internalType": "address",
          "name": "sender",
          "type": "address"
        },
        {
          "internalType": "uint256",
          "name": "balance",
          "type": "uint256"
        },
        {
          "internalType": "uint256",
          "name": "needed",
          "type": "uint256"
        }
      ],
      "name": "ERC20InsufficientBalance",
      "type": "error"
    },
    {
      "inputs": [
        {
          "internalType": "address",
          "name": "approver",
          "type": "address"
        }
      ],
      "name": "ERC20InvalidApprover",
      "type": "error"
    },
    {
      "inputs": [
        {
          "internalType": "address",
          "name": "receiver",
          "type": "address"
        }
      ],
      "name": "ERC20InvalidReceiver",
      "type": "error"
    },
    {
      "inputs": [
        {
          "internalType": "address",
          "name": "sender",
          "type": "address"
        }
      ],
      "name": "ERC20InvalidSender",
      "type": "error"
    },
    {
      "inputs": [
        {
          "internalType": "address",
          "name": "spender",
          "type": "address"
        }
      ],
      "name": "ERC20InvalidSpender",
      "type": "error"
    },
    {
      "inputs": [
        {
          "internalType": "address",
          "name": "owner",
          "type": "address"
        }
      ],
      "name": "OwnableInvalidOwner",
      "type": "error"
    },
    {
      "inputs": [
        {
          "internalType": "address",
          "name": "account",
          "type": "address"
        }
      ],
      "name": "OwnableUnauthorizedAccount",
      "type": "error"
    },
    {
      "inputs": [
        {
          "internalType": "address",
          "name": "token",
          "type": "address"
        }
      ],
      "name": "SafeERC20FailedOperation",
      "type": "error"
    },
    {
      "anonymous": false,
      "inputs": [
        {
          "indexed": true,
          "internalType": "address",
          "name": "owner",
          "type": "address"
        },
        {
          "indexed": true,
          "internalType": "address",
          "name": "spender",
          "type": "address"
        },
        {
          "indexed": false,
          "internalType": "uint256",
          "name": "value",
          "type": "uint256"
        }
      ],
      "name": "Approval",
      "type": "event"
    },
    {
      "anonymous": false,
      "inputs": [
        {
          "indexed": true,
          "internalType": "address",
          "name": "sender",
          "type": "address"
        },
        {
          "indexed": false,
          "internalType": "uint256",
          "name": "amount0",
          "type": "uint256"
        },
        {
          "indexed": false,
          "internalType": "uint256",
          "name": "amount1",
          "type": "uint256"
        },
        {
          "indexed": true,
          "internalType": "address",
          "name": "to",
          "type": "address"
        }
      ],
      "name": "Burn",
      "type": "event"
    },
    {
      "anonymous": false,
      "inputs": [
        {
          "indexed": true,
          "internalType": "address",
          "name": "sender",
          "type": "address"
        },
        {
          "indexed": false,
          "internalType": "uint256",
          "name": "amount0",
          "type": "uint256"
        },
        {
          "indexed": false,
          "internalType": "uint256",
          "name": "amount1",
          "type": "uint256"
        }
      ],
      "name": "Mint",
      "type": "event"
    },
    {
      "anonymous": false,
      "inputs": [
        {
          "indexed": true,
          "internalType": "address",
          "name": "previousOwner",
          "type": "address"
        },
        {
          "indexed": true,
          "internalType": "address",
          "name": "newOwner",
          "type": "address"
        }
      ],
      "name": "OwnershipTransferred",
      "type": "event"
    },
    {
      "anonymous": false,
      "inputs": [
        {
          "indexed": true,
          "internalType": "address",
          "name": "sender",
          "type": "address"
        },
        {
          "indexed": false,
          "internalType": "uint256",
          "name": "amount0In",
          "type": "uint256"
        },
        {
          "indexed": false,
          "internalType": "uint256",
          "name": "amount1In",
          "type": "uint256"
        },
        {
          "indexed": false,
          "internalType": "uint256",
          "name": "amount0Out",
          "type": "uint256"
        },
        {
          "indexed": false,
          "internalType": "uint256",
          "name": "amount1Out",
          "type": "uint256"
        },
        {
          "indexed": true,
          "internalType": "address",
          "name": "to",
          "type": "address"
        }
      ],
      "name": "Swap",
      "type": "event"
    },
    {
      "anonymous": false,
      "inputs": [
        {
          "indexed": false,
          "internalType": "uint256",
          "name": "reserve0",
          "type": "uint256"
        },
        {
          "indexed": false,
          "internalType": "uint256",
          "name": "reserve1",
          "type": "uint256"
        }
      ],
      "name": "Sync",
      "type": "event"
    },
    {
      "anonymous": false,
      "inputs": [
        {
          "indexed": true,
          "internalType": "address",
          "name": "from",
          "type": "address"
        },
        {
          "indexed": true,
          "internalType": "address",
          "name": "to",
          "type": "address"
        },
        {
          "indexed": false,
          "internalType": "uint256",
          "name": "value",
          "type": "uint256"
        }
      ],
      "name": "Transfer",
      "type": "event"
    },
    {
      "inputs": [],
      "name": "MINIMUM_LIQUIDITY",
      "outputs": [
        {
          "internalType": "uint256",
          "name": "",
          "type": "uint256"
        }
      ],
      "stateMutability": "view",
      "type": "function"
    },
    {
      "inputs": [
        {
          "internalType": "address",
          "name": "owner",
          "type": "address"
        },
        {
          "internalType": "address",
          "name": "spender",
          "type": "address"
        }
      ],
      "name": "allowance",
      "outputs": [
        {
          "internalType": "uint256",
          "name": "",
          "type": "uint256"
        }
      ],
      "stateMutability": "view",
      "type": "function"
    },
    {
      "inputs": [
        {
          "internalType": "address",
          "name": "spender",
          "type": "address"
        },
        {
          "internalType": "uint256",
          "name": "value",
          "type": "uint256"
        }
      ],
      "name": "approve",
      "outputs": [
        {
          "internalType": "bool",
          "name": "",
          "type": "bool"
        }
      ],
      "stateMutability": "nonpayable",
      "type": "function"
    },
    {
      "inputs": [
        {
          "internalType": "address",
          "name": "account",
          "type": "address"
        }
      ],
      "name": "balanceOf",
      "outputs": [
        {
          "internalType": "uint256",
          "name": "",
          "type": "uint256"
        }
      ],
      "stateMutability": "view",
      "type": "function"
    },
    {
      "inputs": [
        {
          "internalType": "address",
          "name": "to",
          "type": "address"
        }
      ],
      "name": "burn",
      "outputs": [
        {
          "internalType": "uint256",
          "name": "amount0",
          "type": "uint256"
        },
        {
          "internalType": "uint256",
          "name": "amount1",
          "type": "uint256"
        }
      ],
      "stateMutability": "nonpayable",
      "type": "function"
    },
    {
      "inputs": [],
      "name": "decimals",
      "outputs": [
        {
          "internalType": "uint8",
          "name": "",
          "type": "uint8"
        }
      ],
      "stateMutability": "view",
      "type": "function"
    },
    {
      "inputs": [],
      "name": "factory",
      "outputs": [
        {
          "internalType": "address",
          "name": "",
          "type": "address"
        }
      ],
      "stateMutability": "view",
      "type": "function"
    },
    {
      "inputs": [],
      "name": "getReserves",
      "outputs": [
        {
          "internalType": "uint256",
          "name": "",
          "type": "uint256"
        },
        {
          "internalType": "uint256",
          "name": "",
          "type": "uint256"
        },
        {
          "internalType": "uint256",
          "name": "",
          "type": "uint256"
        }
      ],
      "stateMutability": "view",
      "type": "function"
    },
    {
      "inputs": [
        {
          "internalType": "address",
          "name": "_token0",
          "type": "address"
        },
        {
          "internalType": "address",
          "name": "_token1",
          "type": "address"
        }
      ],
      "name": "initialize",
      "outputs": [],
      "stateMutability": "nonpayable",
      "type": "function"
    },
    {
      "inputs": [
        {
          "internalType": "address",
          "name": "to",
          "type": "address"
        }
      ],
      "name": "mint",
      "outputs": [
        {
          "internalType": "uint256",
          "name": "liquidity",
          "type": "uint256"
        }
      ],
      "stateMutability": "nonpayable",
      "type": "function"
    },
    {
      "inputs": [],
      "name": "name",
      "outputs": [
        {
          "internalType": "string",
          "name": "",
          "type": "string"
        }
      ],
      "stateMutability": "view",
      "type": "function"
    },
    {
      "inputs": [],
      "name": "owner",
      "outputs": [
        {
          "internalType": "address",
          "name": "",
          "type": "address"
        }
      ],
      "stateMutability": "view",
      "type": "function"
    },
    {
      "inputs": [],
      "name": "renounceOwnership",
      "outputs": [],
      "stateMutability": "nonpayable",
      "type": "function"
    },
    {
      "inputs": [
        {
          "internalType": "address",
          "name": "to",
          "type": "address"
        }
      ],
      "name": "skim",
      "outputs": [],
      "stateMutability": "nonpayable",
      "type": "function"
    },
    {
      "inputs": [
        {
          "internalType": "uint256",
          "name": "amount0Out",
          "type": "uint256"
        },
        {
          "internalType": "uint256",
          "name": "amount1Out",
          "type": "uint256"
        },
        {
          "internalType": "address",
          "name": "to",
          "type": "address"
        }
      ],
      "name": "swap",
      "outputs": [],
      "stateMutability": "nonpayable",
      "type": "function"
    },
    {
      "inputs": [],
      "name": "symbol",
      "outputs": [
        {
          "internalType": "string",
          "name": "",
          "type": "string"
        }
      ],
      "stateMutability": "view",
      "type": "function"
    },
    {
      "inputs": [],
      "name": "sync",
      "outputs": [],
      "stateMutability": "nonpayable",
      "type": "function"
    },
    {
      "inputs": [],
      "name": "token0",
      "outputs": [
        {
          "internalType": "address",
          "name": "",
          "type": "address"
        }
      ],
      "stateMutability": "view",
      "type": "function"
    },
    {
      "inputs": [],
      "name": "token1",
      "outputs": [
        {
          "internalType": "address",
          "name": "",
          "type": "address"
        }
      ],
      "stateMutability": "view",
      "type": "function"
    },
    {
      "inputs": [],
      "name": "totalSupply",
      "outputs": [
        {
          "internalType": "uint256",
          "name": "",
          "type": "uint256"
        }
      ],
      "stateMutability": "view",
      "type": "function"
    },
    {
      "inputs": [
        {
          "internalType": "address",
          "name": "to",
          "type": "address"
        },
        {
          "internalType": "uint256",
          "name": "value",
          "type": "uint256"
        }
      ],
      "name": "transfer",
      "outputs": [
        {
          "internalType": "bool",
          "name": "",
          "type": "bool"
        }
      ],
      "stateMutability": "nonpayable",
      "type": "function"
    },
    {
      "inputs": [
        {
          "internalType": "address",
          "name": "from",
          "type": "address"
        },
        {
          "internalType": "address",
          "name": "to",
          "type": "address"
        },
        {
          "internalType": "uint256",
          "name": "value",
          "type": "uint256"
        }
      ],
      "name": "transferFrom",
      "outputs": [
        {
          "internalType": "bool",
          "name": "",
          "type": "bool"
        }
      ],
      "stateMutability": "nonpayable",
      "type": "function"
    },
    {
      "inputs": [
        {
          "internalType": "address",
          "name": "newOwner",
          "type": "address"
        }
      ],
      "name": "transferOwnership",
      "outputs": [],
      "stateMutability": "nonpayable",
      "type": "function"
    }
  ],
  "bytecode": "0x60803462000382576040906001600160401b0390808301828111828210176200036e578352600d81526020916c053696d706c6553776170204c5609c1b83830152835192848401848110838211176200036e57855260049384815263053534c560e41b828201528351908382116200035b576003928354926001968785811c9516801562000350575b838610146200033d578190601f95868111620002ea575b50839086831160011462000287575f926200027b575b50505f1982871b1c191690871b1784555b8151948511620002685786548681811c911680156200025d575b828210146200024a5783811162000202575b50809285116001146200019857509383949184925f956200018c575b50501b925f19911b1c19161781555b331562000177575060058054336001600160a01b0319821681179092559151916001600160a01b03167f8be0079c531659141344cd1fd0a4f28419497f9722a3daafe3b4186f6b6457e05f80a36117289081620003878239f35b5f6024925191631e4fbdf760e01b8352820152fd5b015193505f806200010e565b92919084601f198116885f52855f20955f905b89838310620001e75750505010620001cd575b50505050811b0181556200011d565b01519060f8845f19921b161c191690555f808080620001be565b858701518955909701969485019488935090810190620001ab565b875f52815f208480880160051c82019284891062000240575b0160051c019087905b82811062000234575050620000f2565b5f815501879062000224565b925081926200021b565b602288634e487b7160e01b5f525260245ffd5b90607f1690620000e0565b604187634e487b7160e01b5f525260245ffd5b015190505f80620000b5565b90899350601f19831691885f52855f20925f5b87828210620002d35750508411620002bb575b505050811b018455620000c6565b01515f1983891b60f8161c191690555f8080620002ad565b8385015186558d979095019493840193016200029a565b909150865f52835f208680850160051c82019286861062000333575b918b91869594930160051c01915b828110620003245750506200009f565b5f81558594508b910162000314565b9250819262000306565b602289634e487b7160e01b5f525260245ffd5b94607f169462000088565b604186634e487b7160e01b5f525260245ffd5b634e487b7160e01b5f52604160045260245ffd5b5f80fdfe6080604081815260049182361015610015575f80fd5b5f3560e01c90816306fdde0314611339575080630902f1ac1461130a578063095ea7b3146112625780630dfe16811461123a57806318160ddd1461121c57806323b872dd14611138578063313ce5671461111d578063485cc955146110755780636a62784214610d725780636d9a640a1461099757806370a0823114610961578063715018a61461091957806389afcb44146105cc5780638da5cb5b146105a457806395d89b41146104bf578063a9059cbb1461048f578063ba9a7a5614610473578063bc25cf771461034f578063c45a015514610327578063d21220a7146102ff578063dd62ed3e146102b6578063f2fde38b146102405763fff6cae91461011c575f80fd5b346101ef575f3660031901126101ef5760075481516370a0823160e01b8082523082860152936001600160a01b03926020919082908490602490829088165afa928315610236575f93610204575b506024829394600854169686519788938492835230908301525afa9081156101fa575f916101ba575b5f805160206116d383398151915294508260095581600a5542600b558351928352820152a1005b80915084813d83116101f3575b6101d18183611482565b810103126101ef575f805160206116d3833981519152935190610193565b5f80fd5b503d6101c7565b83513d5f823e3d90fd5b9180935082813d831161022f575b61021c8183611482565b810103126101ef5790519190602461016a565b503d610212565b85513d5f823e3d90fd5b5090346101ef5760203660031901126101ef5761025b611456565b906102646115db565b6001600160a01b039182169283156102a0575050600580546001600160a01b031981168417909155165f805160206116938339815191525f80a3005b905f6024925191631e4fbdf760e01b8352820152fd5b50346101ef57806003193601126101ef576020906102d2611456565b6102da61146c565b9060018060a01b038091165f5260018452825f2091165f528252805f20549051908152f35b50346101ef575f3660031901126101ef5760085490516001600160a01b039091168152602090f35b50346101ef575f3660031901126101ef5760065490516001600160a01b039091168152602090f35b5090346101ef576020806003193601126101ef5761036b611456565b60075484516370a0823160e01b80825230868301529293916001600160a01b03919082168382602481845afa9182156104695786905f93610435575b506103b86103be93600954906114b9565b91611614565b6008541693855192835230908301528082602481875afa94851561042c57505f946103f8575b50506103b86103f693600a54906114b9565b005b90809450813d8311610425575b61040f8183611482565b810103126101ef576103b86103f69351936103e4565b503d610405565b513d5f823e3d90fd5b809350858092503d8311610462575b61044e8183611482565b810103126101ef57905190856103b86103a7565b503d610444565b88513d5f823e3d90fd5b50346101ef575f3660031901126101ef57602090516103e88152f35b50346101ef57806003193601126101ef576020906104b86104ae611456565b6024359033611529565b5160018152f35b50346101ef575f3660031901126101ef578051905f9280549060018260011c916001841693841561059a575b6020948585108114610587578488529081156105655750600114610529575b610525868661051b828b0383611482565b519182918261140f565b0390f35b5f908152838120939650925b82841061055257505050826105259461051b92820101945f61050a565b8054868501880152928601928101610535565b60ff191687860152505050151560051b830101925061051b826105255f61050a565b602283634e487b7160e01b5f525260245ffd5b92607f16926104eb565b50346101ef575f3660031901126101ef5760055490516001600160a01b039091168152602090f35b5090346101ef57602090816003193601126101ef576105e9611456565b60075484516370a0823160e01b808252308583015260249593926001600160a01b03929190859083908990829087165afa9586156104695787925f976108e6575b508584600854168a51998a809286825230868301525afa9788156108dc575f986108ad575b50305f525f865261067f6106736106736106788c5f20549a6002549384918d6114da565b6114ed565b9a8a6114da565b96881515806108a4575b1561086257301561084d57305f525f8752895f205481811061082b57915f8286938d9695308452838c520386832055806002540360025585519081525f805160206116b38339815191528a3092a36106e68a888860075416611614565b6106f589888860085416611614565b87866007541685519384809287825230868301525afa9485156108215788925f966107eb575b5086600854169385519485938492835230908301525afa9081156107e1575f916107a3575b50915f805160206116d3833981519152928160095580600a5542600b55825191825286820152a1855191858352848484015216907fdccd412f0b1252819cb1fd330b93224ca42612892bb3f4f789976e6d81936496863392a38351928352820152f35b809250868092503d83116107da575b6107bc8183611482565b810103126101ef575187905f805160206116d3833981519152610740565b503d6107b2565b82513d5f823e3d90fd5b9283919650809295503d831161081a575b6108068183611482565b810103126101ef578992879151945f61071b565b503d6107fc565b84513d5f823e3d90fd5b8a5163391434e360e21b81529081906108499084903084880161150b565b0390fd5b8951634b637e8f60e11b81525f818401528490fd5b895162461bcd60e51b8152808301889052601d818601527f494e53554646494349454e545f4c49515549444954595f4255524e45440000006044820152606490fd5b50871515610689565b9097508581813d83116108d5575b6108c58183611482565b810103126101ef5751965f61064f565b503d6108bb565b89513d5f823e3d90fd5b86809298508194503d8311610912575b6109008183611482565b810103126101ef57869151955f61062a565b503d6108f6565b346101ef575f3660031901126101ef576109316115db565b600580546001600160a01b031981169091555f906001600160a01b03165f805160206116938339815191528280a3005b50346101ef5760203660031901126101ef576020906001600160a01b03610986611456565b165f525f8252805f20549051908152f35b5090346101ef5760603660031901126101ef576001600160a01b0360443581811693909260248035938235939291908787036101ef5784159283158094610d69575b15610d2a5760095497600a549489881080610d21575b15610ce657610cd2575b8780610cbd575b505081600754169085519384936370a0823160e01b938486523084870152858360209889935afa948515610469579086915f96610c8c575b50600854169382895180968193825230878301525afa928315610c82575f93610c53575b50610a67888b6114b9565b841115610c4c57610a81610a7b898c6114b9565b856114b9565b995b610a8d8a886114b9565b841115610c4557610aa1610a7b8b896114b9565b965b8b15801581610c3c575b15610bfe576103e89081880290888204831489151715610bda57908e91600383029283046003141715610bda5790610ae4916114b9565b90808702908782041487151715610bec5760038a02908a82046003148b151715610bda5791610b1a610b2092610b2695946114b9565b906114da565b926114da565b90620f424091828102928184041490151715610bc85710610ba25750508185915f805160206116d38339815191529360095580600a5542600b55825191825284820152a1825195865285015283015260608201527fd78ad95fa46c994b6551d0da85fc275fe613ce37657fb8d5e3d130840159d82260803392a3005b865162461bcd60e51b8152918201859052600190820152604b60f81b6044820152606490fd5b82601185634e487b7160e01b5f52525ffd5b85601188634e487b7160e01b5f52525ffd5b84601187634e487b7160e01b5f52525ffd5b895162461bcd60e51b815280860189905260198186015278125394d551919250d251539517d25394155517d05353d55395603a1b6044820152606490fd5b50881515610aad565b5f96610aa3565b5f99610a83565b9092508481813d8311610c7b575b610c6b8183611482565b810103126101ef5751915f610a5c565b503d610c61565b87513d5f823e3d90fd5b8281939297503d8311610cb6575b610ca48183611482565b810103126101ef57859051945f610a38565b503d610c9a565b610ccb918460085416611614565b5f87610a00565b610ce187828560075416611614565b6109f9565b865162461bcd60e51b815260208185015260168187015275494e53554646494349454e545f4c495155494449545960501b6044820152606490fd5b508589106109ef565b606490601a84602088519362461bcd60e51b855284015282015279125394d551919250d251539517d3d55514155517d05353d5539560321b6044820152fd5b508615156109d9565b5090346101ef57602091826003193601126101ef57610d8f611456565b60095492600a549060018060a01b03908160075416908551809389826370a0823160e01b95868252308683015260249485915afa948515610469575f95611046575b5089816008541694838a5180978193825230888301525afa938415610469575f94611017575b50610e0289866114b9565b96610e0d87866114b9565b966002549a8b155f14610fe2575050610e2687896114da565b5f6003821115610fd45750806001908060011c60018101809111610fc25791905b838310610fa2575050505b6103e7198101908111610f9057996103e890818101809111610bec576002555f5f805160206116b38339815191528d61dead938484528382528d84208181540190558d51908152a35b8915610f4e5716918215610f3b5750509185915f805160206116d383398151915293610ec989600254611607565b600255805f525f8a52835f208981540190555f5f805160206116b38339815191528b86518c8152a38160095580600a5542600b55825191825288820152a18251918252848201527f4c209b5fc8ad50758f13e2e1088ba56a560dff690a1c6fef26394f4c03821c4f823392a251908152f35b5f88519163ec442f0560e01b8352820152fd5b885162461bcd60e51b81528085018c9052601d818501527f494e53554646494349454e545f4c49515549444954595f4d494e5445440000006044820152606490fd5b83601186634e487b7160e01b5f52525ffd5b90919250610fb983610fb481846114ed565b611607565b821c9190610e47565b86601189634e487b7160e01b5f52525ffd5b9015610e5257506001610e52565b90610673610ff9611000936106738f969f8e6114da565b938a6114da565b8082101561101057505b98610e9b565b905061100a565b9093508981813d831161103f575b61102f8183611482565b810103126101ef5751925f610df7565b503d611025565b9094508981813d831161106e575b61105e8183611482565b810103126101ef5751935f610dd1565b503d611054565b5090346101ef57816003193601126101ef5761108f611456565b61109761146c565b906110a06115db565b6007546001600160a01b03939091908483166110e4575083945060018060a01b03199485911691161760075516816008541617600855339060065416176006555f80f35b606490602087519162461bcd60e51b835282015260136024820152721053149150511657d253925512505312569151606a1b6044820152fd5b50346101ef575f3660031901126101ef576020905160128152f35b5090346101ef5760603660031901126101ef57611153611456565b61115b61146c565b906044359260018060a01b038216805f526001602052855f20335f52602052855f2054915f198310611196575b6020876104b8888888611529565b8583106111fe5781156111e85733156111d257505f908152600160209081528682203383528152908690209185900390915582906104b8611188565b6024905f885191634a1406b160e11b8352820152fd5b6024905f88519163e602df0560e01b8352820152fd5b9050610849858751938493637dc7a0d960e11b85523390850161150b565b50346101ef575f3660031901126101ef576020906002549051908152f35b50346101ef575f3660031901126101ef5760075490516001600160a01b039091168152602090f35b50346101ef57806003193601126101ef5761127b611456565b6024359033156112f4576001600160a01b03169081156112de5760209350335f5260018452825f20825f52845280835f205582519081527f8c5be1e5ebec7d5bd14f71427d1e84f3dd0314c0f7b2291e5b200ac8c7c3b925843392a35160018152f35b8251634a1406b160e11b81525f81860152602490fd5b825163e602df0560e01b81525f81860152602490fd5b50346101ef575f3660031901126101ef5760609060095490600a5490600b549181519384526020840152820152f35b919050346101ef575f3660031901126101ef575f9260035460018160011c91600181168015611405575b60209485851082146113f257508387529081156113d25750600114611395575b50505061051b82610525940383611482565b91945060035f52845f20915f925b8284106113bf57505050826105259461051b9282010194611383565b80548685018801529286019281016113a3565b60ff1916868501525050151560051b830101925061051b82610525611383565b602290634e487b7160e01b5f525260245ffd5b92607f1692611363565b602080825282518183018190529093925f5b82811061144257505060409293505f838284010152601f8019910116010190565b818101860151848201604001528501611421565b600435906001600160a01b03821682036101ef57565b602435906001600160a01b03821682036101ef57565b601f909101601f19168101906001600160401b038211908210176114a557604052565b634e487b7160e01b5f52604160045260245ffd5b919082039182116114c657565b634e487b7160e01b5f52601160045260245ffd5b818102929181159184041417156114c657565b81156114f7570490565b634e487b7160e01b5f52601260045260245ffd5b604091949392606082019560018060a01b0316825260208201520152565b916001600160a01b038084169283156115c357169283156115ab57825f525f60205260405f20549082821061158e5750815f805160206116b383398151915292602092855f525f84520360405f2055845f5260405f20818154019055604051908152a3565b6108498360405193849363391434e360e21b85526004850161150b565b60405163ec442f0560e01b81525f6004820152602490fd5b604051634b637e8f60e11b81525f6004820152602490fd5b6005546001600160a01b031633036115ef57565b60405163118cdaa760e01b8152336004820152602490fd5b919082018092116114c657565b60405163a9059cbb60e01b5f9081526001600160a01b039384166004526024949094529260209060448180855af160015f5114811615611673575b836040521561165d57505050565b635274afe760e01b835216600482015260249150fd5b600181151661168957813b15153d15161661164f565b833d5f823e3d90fdfe8be0079c531659141344cd1fd0a4f28419497f9722a3daafe3b4186f6b6457e0ddf252ad1be2c89b69c2b068fc378daa952ba7f163c4a11628f55a4df523b3efcf2aa50876cdfbb541206f89af0ee78d44a2abf8d328e37fa4917f982149848aa2646970667358221220e89b2b6221f085c2eff73ff31e1dfdd41f3493c25339e33b39e059c50fe7e90d64736f6c63430008180033",
  "linkReferences": {},
  "deployedLinkReferences": {},
  "immutableReferences": {},
  "inputSourceName": "project/contracts/periphery/SimplePair.sol",
  "buildInfoId": "solc-0_8_24-90400f2b29e1ab6d772eccdb956b8a125eaef08a"
}